{
	"BCStaking.sol": {
		"BillionCashStaking": {
			"abi": [
				{
					"inputs": [
						{
							"internalType": "contract ERC20",
							"name": "_token",
							"type": "address"
						}
					],
					"stateMutability": "nonpayable",
					"type": "constructor"
				},
				{
					"anonymous": false,
					"inputs": [
						{
							"indexed": true,
							"internalType": "address",
							"name": "user",
							"type": "address"
						},
						{
							"indexed": false,
							"internalType": "uint256",
							"name": "amount",
							"type": "uint256"
						}
					],
					"name": "NewDeposit",
					"type": "event"
				},
				{
					"anonymous": false,
					"inputs": [
						{
							"indexed": false,
							"internalType": "address",
							"name": "user",
							"type": "address"
						}
					],
					"name": "Newbie",
					"type": "event"
				},
				{
					"anonymous": false,
					"inputs": [
						{
							"indexed": true,
							"internalType": "address",
							"name": "previousOwner",
							"type": "address"
						},
						{
							"indexed": true,
							"internalType": "address",
							"name": "newOwner",
							"type": "address"
						}
					],
					"name": "OwnershipTransferred",
					"type": "event"
				},
				{
					"anonymous": false,
					"inputs": [
						{
							"indexed": true,
							"internalType": "address",
							"name": "referrer",
							"type": "address"
						},
						{
							"indexed": true,
							"internalType": "address",
							"name": "referral",
							"type": "address"
						},
						{
							"indexed": false,
							"internalType": "uint256",
							"name": "amount",
							"type": "uint256"
						}
					],
					"name": "RefBonus",
					"type": "event"
				},
				{
					"anonymous": false,
					"inputs": [
						{
							"indexed": true,
							"internalType": "address",
							"name": "user",
							"type": "address"
						},
						{
							"indexed": false,
							"internalType": "uint256",
							"name": "amount",
							"type": "uint256"
						}
					],
					"name": "Withdrawn",
					"type": "event"
				},
				{
					"anonymous": false,
					"inputs": [
						{
							"indexed": true,
							"internalType": "address",
							"name": "user",
							"type": "address"
						},
						{
							"indexed": false,
							"internalType": "uint256",
							"name": "reinvestAmount",
							"type": "uint256"
						}
					],
					"name": "onReinvestment",
					"type": "event"
				},
				{
					"inputs": [],
					"name": "PERCENTS_DAILY",
					"outputs": [
						{
							"internalType": "uint256",
							"name": "",
							"type": "uint256"
						}
					],
					"stateMutability": "view",
					"type": "function"
				},
				{
					"inputs": [],
					"name": "PERCENTS_DIVIDER",
					"outputs": [
						{
							"internalType": "uint256",
							"name": "",
							"type": "uint256"
						}
					],
					"stateMutability": "view",
					"type": "function"
				},
				{
					"inputs": [],
					"name": "REFERRAL_PERCENTS",
					"outputs": [
						{
							"internalType": "uint256",
							"name": "",
							"type": "uint256"
						}
					],
					"stateMutability": "view",
					"type": "function"
				},
				{
					"inputs": [],
					"name": "STAKING_PERIOD",
					"outputs": [
						{
							"internalType": "uint256",
							"name": "",
							"type": "uint256"
						}
					],
					"stateMutability": "view",
					"type": "function"
				},
				{
					"inputs": [],
					"name": "TIME_STEP",
					"outputs": [
						{
							"internalType": "uint256",
							"name": "",
							"type": "uint256"
						}
					],
					"stateMutability": "view",
					"type": "function"
				},
				{
					"inputs": [],
					"name": "claim",
					"outputs": [],
					"stateMutability": "nonpayable",
					"type": "function"
				},
				{
					"inputs": [],
					"name": "compound",
					"outputs": [],
					"stateMutability": "nonpayable",
					"type": "function"
				},
				{
					"inputs": [
						{
							"internalType": "address",
							"name": "userAddress",
							"type": "address"
						}
					],
					"name": "getUserAmountOfDeposits",
					"outputs": [
						{
							"internalType": "uint256",
							"name": "",
							"type": "uint256"
						}
					],
					"stateMutability": "view",
					"type": "function"
				},
				{
					"inputs": [
						{
							"internalType": "address",
							"name": "userAddress",
							"type": "address"
						}
					],
					"name": "getUserAvailable",
					"outputs": [
						{
							"internalType": "uint256",
							"name": "",
							"type": "uint256"
						}
					],
					"stateMutability": "view",
					"type": "function"
				},
				{
					"inputs": [
						{
							"internalType": "address",
							"name": "userAddress",
							"type": "address"
						}
					],
					"name": "getUserCheckpoint",
					"outputs": [
						{
							"internalType": "uint256",
							"name": "",
							"type": "uint256"
						}
					],
					"stateMutability": "view",
					"type": "function"
				},
				{
					"inputs": [
						{
							"internalType": "address",
							"name": "userAddress",
							"type": "address"
						},
						{
							"internalType": "uint256",
							"name": "index",
							"type": "uint256"
						}
					],
					"name": "getUserDepositInfo",
					"outputs": [
						{
							"internalType": "uint256",
							"name": "",
							"type": "uint256"
						},
						{
							"internalType": "uint256",
							"name": "",
							"type": "uint256"
						},
						{
							"internalType": "uint256",
							"name": "",
							"type": "uint256"
						},
						{
							"internalType": "uint256",
							"name": "",
							"type": "uint256"
						},
						{
							"internalType": "bool",
							"name": "",
							"type": "bool"
						}
					],
					"stateMutability": "view",
					"type": "function"
				},
				{
					"inputs": [
						{
							"internalType": "address",
							"name": "userAddress",
							"type": "address"
						}
					],
					"name": "getUserDividends",
					"outputs": [
						{
							"internalType": "uint256",
							"name": "",
							"type": "uint256"
						}
					],
					"stateMutability": "view",
					"type": "function"
				},
				{
					"inputs": [
						{
							"internalType": "address",
							"name": "userAddress",
							"type": "address"
						}
					],
					"name": "getUserReferralBonus",
					"outputs": [
						{
							"internalType": "uint256",
							"name": "",
							"type": "uint256"
						}
					],
					"stateMutability": "view",
					"type": "function"
				},
				{
					"inputs": [
						{
							"internalType": "address",
							"name": "userAddress",
							"type": "address"
						}
					],
					"name": "getUserReferralCount",
					"outputs": [
						{
							"internalType": "uint256",
							"name": "",
							"type": "uint256"
						}
					],
					"stateMutability": "view",
					"type": "function"
				},
				{
					"inputs": [
						{
							"internalType": "address",
							"name": "userAddress",
							"type": "address"
						}
					],
					"name": "getUserReferrer",
					"outputs": [
						{
							"internalType": "address",
							"name": "",
							"type": "address"
						}
					],
					"stateMutability": "view",
					"type": "function"
				},
				{
					"inputs": [
						{
							"internalType": "address",
							"name": "userAddress",
							"type": "address"
						}
					],
					"name": "getUserTotalDeposits",
					"outputs": [
						{
							"internalType": "uint256",
							"name": "",
							"type": "uint256"
						}
					],
					"stateMutability": "view",
					"type": "function"
				},
				{
					"inputs": [
						{
							"internalType": "address",
							"name": "userAddress",
							"type": "address"
						}
					],
					"name": "getUserTotalWithdrawn",
					"outputs": [
						{
							"internalType": "uint256",
							"name": "",
							"type": "uint256"
						}
					],
					"stateMutability": "view",
					"type": "function"
				},
				{
					"inputs": [
						{
							"internalType": "address",
							"name": "userAddress",
							"type": "address"
						}
					],
					"name": "isActive",
					"outputs": [
						{
							"internalType": "bool",
							"name": "",
							"type": "bool"
						}
					],
					"stateMutability": "view",
					"type": "function"
				},
				{
					"inputs": [],
					"name": "minimumStakeValue",
					"outputs": [
						{
							"internalType": "uint256",
							"name": "",
							"type": "uint256"
						}
					],
					"stateMutability": "view",
					"type": "function"
				},
				{
					"inputs": [],
					"name": "owner",
					"outputs": [
						{
							"internalType": "address",
							"name": "",
							"type": "address"
						}
					],
					"stateMutability": "view",
					"type": "function"
				},
				{
					"inputs": [],
					"name": "renounceOwnership",
					"outputs": [],
					"stateMutability": "nonpayable",
					"type": "function"
				},
				{
					"inputs": [
						{
							"internalType": "uint256",
							"name": "_minimumStakeValue",
							"type": "uint256"
						}
					],
					"name": "setMinimumStakeValue",
					"outputs": [],
					"stateMutability": "nonpayable",
					"type": "function"
				},
				{
					"inputs": [
						{
							"internalType": "address",
							"name": "referrer",
							"type": "address"
						},
						{
							"internalType": "uint256",
							"name": "amount",
							"type": "uint256"
						}
					],
					"name": "stake",
					"outputs": [],
					"stateMutability": "nonpayable",
					"type": "function"
				},
				{
					"inputs": [],
					"name": "totalDepositCount",
					"outputs": [
						{
							"internalType": "uint256",
							"name": "",
							"type": "uint256"
						}
					],
					"stateMutability": "view",
					"type": "function"
				},
				{
					"inputs": [],
					"name": "totalStaked",
					"outputs": [
						{
							"internalType": "uint256",
							"name": "",
							"type": "uint256"
						}
					],
					"stateMutability": "view",
					"type": "function"
				},
				{
					"inputs": [],
					"name": "totalUsers",
					"outputs": [
						{
							"internalType": "uint256",
							"name": "",
							"type": "uint256"
						}
					],
					"stateMutability": "view",
					"type": "function"
				},
				{
					"inputs": [],
					"name": "totalWithdrawn",
					"outputs": [
						{
							"internalType": "uint256",
							"name": "",
							"type": "uint256"
						}
					],
					"stateMutability": "view",
					"type": "function"
				},
				{
					"inputs": [
						{
							"internalType": "address",
							"name": "newOwner",
							"type": "address"
						}
					],
					"name": "transferOwnership",
					"outputs": [],
					"stateMutability": "nonpayable",
					"type": "function"
				}
			],
			"devdoc": {
				"kind": "dev",
				"methods": {
					"owner()": {
						"details": "Returns the address of the current owner."
					},
					"renounceOwnership()": {
						"details": "Leaves the contract without owner. It will not be possible to call `onlyOwner` functions anymore. Can only be called by the current owner. NOTE: Renouncing ownership will leave the contract without an owner, thereby removing any functionality that is only available to the owner."
					},
					"transferOwnership(address)": {
						"details": "Transfers ownership of the contract to a new account (`newOwner`). Can only be called by the current owner."
					}
				},
				"version": 1
			},
			"evm": {
				"assembly": "    /* \"BCStaking.sol\":241:16139  contract BillionCashStaking is Ownable {... */\n  mstore(0x40, 0x80)\n    /* \"BCStaking.sol\":779:791  200 * 10**18 */\n  0x0ad78ebc5ac6200000\n    /* \"BCStaking.sol\":744:791  uint256 public minimumStakeValue = 200 * 10**18 */\n  0x06\n  sstore\n    /* \"BCStaking.sol\":1644:1739  constructor(ERC20 _token) {... */\n  callvalue\n  dup1\n  iszero\n  tag_1\n  jumpi\n  0x00\n  dup1\n  revert\ntag_1:\n  pop\n  mload(0x40)\n  sub(codesize, bytecodeSize)\n  dup1\n  bytecodeSize\n  dup4\n  codecopy\n  dup2\n  add\n  0x40\n  dup2\n  swap1\n  mstore\n  tag_2\n  swap2\n  tag_3\n  jump\t// in\ntag_2:\n    /* \"@openzeppelin/contracts/access/Ownable.sol\":921:953  _transferOwnership(_msgSender()) */\n  tag_7\n    /* \"@openzeppelin/contracts/utils/Context.sol\":719:729  msg.sender */\n  caller\n    /* \"@openzeppelin/contracts/access/Ownable.sol\":921:939  _transferOwnership */\n  tag_10\n    /* \"@openzeppelin/contracts/access/Ownable.sol\":921:953  _transferOwnership(_msgSender()) */\n  jump\t// in\ntag_7:\n    /* \"BCStaking.sol\":1720:1722  BC */\n  0x01\n    /* \"BCStaking.sol\":1720:1731  BC = _token */\n  dup1\n  sload\n  not(sub(shl(0xa0, 0x01), 0x01))\n  and\n  sub(shl(0xa0, 0x01), 0x01)\n  swap3\n  swap1\n  swap3\n  and\n  swap2\n  swap1\n  swap2\n  or\n  swap1\n  sstore\n    /* \"BCStaking.sol\":241:16139  contract BillionCashStaking is Ownable {... */\n  jump(tag_15)\n    /* \"@openzeppelin/contracts/access/Ownable.sol\":2270:2457  function _transferOwnership(address newOwner) internal virtual {... */\ntag_10:\n    /* \"@openzeppelin/contracts/access/Ownable.sol\":2343:2359  address oldOwner */\n  0x00\n    /* \"@openzeppelin/contracts/access/Ownable.sol\":2362:2368  _owner */\n  dup1\n  sload\n  sub(shl(0xa0, 0x01), 0x01)\n    /* \"@openzeppelin/contracts/access/Ownable.sol\":2378:2395  _owner = newOwner */\n  dup4\n  dup2\n  and\n  not(sub(shl(0xa0, 0x01), 0x01))\n  dup4\n  and\n  dup2\n  or\n  dup5\n  sstore\n    /* \"@openzeppelin/contracts/access/Ownable.sol\":2410:2450  OwnershipTransferred(oldOwner, newOwner) */\n  mload(0x40)\n    /* \"@openzeppelin/contracts/access/Ownable.sol\":2362:2368  _owner */\n  swap2\n  swap1\n  swap3\n  and\n  swap3\n  dup4\n  swap2\n    /* \"@openzeppelin/contracts/access/Ownable.sol\":2410:2450  OwnershipTransferred(oldOwner, newOwner) */\n  0x8be0079c531659141344cd1fd0a4f28419497f9722a3daafe3b4186f6b6457e0\n  swap2\n    /* \"@openzeppelin/contracts/access/Ownable.sol\":2343:2359  address oldOwner */\n  swap1\n    /* \"@openzeppelin/contracts/access/Ownable.sol\":2410:2450  OwnershipTransferred(oldOwner, newOwner) */\n  log3\n    /* \"@openzeppelin/contracts/access/Ownable.sol\":2333:2457  {... */\n  pop\n    /* \"@openzeppelin/contracts/access/Ownable.sol\":2270:2457  function _transferOwnership(address newOwner) internal virtual {... */\n  pop\n  jump\t// out\n    /* \"#utility.yul\":14:317   */\ntag_3:\n    /* \"#utility.yul\":97:103   */\n  0x00\n    /* \"#utility.yul\":150:152   */\n  0x20\n    /* \"#utility.yul\":138:147   */\n  dup3\n    /* \"#utility.yul\":129:136   */\n  dup5\n    /* \"#utility.yul\":125:148   */\n  sub\n    /* \"#utility.yul\":121:153   */\n  slt\n    /* \"#utility.yul\":118:170   */\n  iszero\n  tag_17\n  jumpi\n    /* \"#utility.yul\":166:167   */\n  0x00\n    /* \"#utility.yul\":163:164   */\n  dup1\n    /* \"#utility.yul\":156:168   */\n  revert\n    /* \"#utility.yul\":118:170   */\ntag_17:\n    /* \"#utility.yul\":192:208   */\n  dup2\n  mload\n  sub(shl(0xa0, 0x01), 0x01)\n    /* \"#utility.yul\":237:268   */\n  dup2\n  and\n    /* \"#utility.yul\":227:269   */\n  dup2\n  eq\n    /* \"#utility.yul\":217:287   */\n  tag_18\n  jumpi\n    /* \"#utility.yul\":283:284   */\n  0x00\n    /* \"#utility.yul\":280:281   */\n  dup1\n    /* \"#utility.yul\":273:285   */\n  revert\n    /* \"#utility.yul\":217:287   */\ntag_18:\n    /* \"#utility.yul\":306:311   */\n  swap4\n    /* \"#utility.yul\":14:317   */\n  swap3\n  pop\n  pop\n  pop\n  jump\t// out\ntag_15:\n    /* \"BCStaking.sol\":241:16139  contract BillionCashStaking is Ownable {... */\n  dataSize(sub_0)\n  dup1\n  dataOffset(sub_0)\n  0x00\n  codecopy\n  0x00\n  return\nstop\n\nsub_0: assembly {\n        /* \"BCStaking.sol\":241:16139  contract BillionCashStaking is Ownable {... */\n      mstore(0x40, 0x80)\n      callvalue\n      dup1\n      iszero\n      tag_1\n      jumpi\n      0x00\n      dup1\n      revert\n    tag_1:\n      pop\n      jumpi(tag_2, lt(calldatasize, 0x04))\n      shr(0xe0, calldataload(0x00))\n      dup1\n      0x817b1cd2\n      gt\n      tag_31\n      jumpi\n      dup1\n      0xc8a22eb4\n      gt\n      tag_32\n      jumpi\n      dup1\n      0xe85abe09\n      gt\n      tag_33\n      jumpi\n      dup1\n      0xe85abe09\n      eq\n      tag_27\n      jumpi\n      dup1\n      0xf2fde38b\n      eq\n      tag_28\n      jumpi\n      dup1\n      0xf69e2046\n      eq\n      tag_29\n      jumpi\n      dup1\n      0xfb4cb32b\n      eq\n      tag_30\n      jumpi\n      0x00\n      dup1\n      revert\n    tag_33:\n      dup1\n      0xc8a22eb4\n      eq\n      tag_24\n      jumpi\n      dup1\n      0xd6343867\n      eq\n      tag_25\n      jumpi\n      dup1\n      0xd7ffca91\n      eq\n      tag_26\n      jumpi\n      0x00\n      dup1\n      revert\n    tag_32:\n      dup1\n      0xa8aeb6c2\n      gt\n      tag_34\n      jumpi\n      dup1\n      0xa8aeb6c2\n      eq\n      tag_20\n      jumpi\n      dup1\n      0xadc9772e\n      eq\n      tag_21\n      jumpi\n      dup1\n      0xbff1f9e1\n      eq\n      tag_22\n      jumpi\n      dup1\n      0xc0806b03\n      eq\n      tag_23\n      jumpi\n      0x00\n      dup1\n      revert\n    tag_34:\n      dup1\n      0x817b1cd2\n      eq\n      tag_17\n      jumpi\n      dup1\n      0x8da5cb5b\n      eq\n      tag_18\n      jumpi\n      dup1\n      0x9f8a13d7\n      eq\n      tag_19\n      jumpi\n      0x00\n      dup1\n      revert\n    tag_31:\n      dup1\n      0x36144c9a\n      gt\n      tag_35\n      jumpi\n      dup1\n      0x4be4d790\n      gt\n      tag_36\n      jumpi\n      dup1\n      0x4be4d790\n      eq\n      tag_13\n      jumpi\n      dup1\n      0x4e71d92d\n      eq\n      tag_14\n      jumpi\n      dup1\n      0x715018a6\n      eq\n      tag_15\n      jumpi\n      dup1\n      0x7e3abeea\n      eq\n      tag_16\n      jumpi\n      0x00\n      dup1\n      revert\n    tag_36:\n      dup1\n      0x36144c9a\n      eq\n      tag_10\n      jumpi\n      dup1\n      0x44038f90\n      eq\n      tag_11\n      jumpi\n      dup1\n      0x4b319713\n      eq\n      tag_12\n      jumpi\n      0x00\n      dup1\n      revert\n    tag_35:\n      dup1\n      0x141a2a3f\n      gt\n      tag_37\n      jumpi\n      dup1\n      0x141a2a3f\n      eq\n      tag_6\n      jumpi\n      dup1\n      0x153ab9df\n      eq\n      tag_7\n      jumpi\n      dup1\n      0x18e1fbfc\n      eq\n      tag_8\n      jumpi\n      dup1\n      0x32bc298c\n      eq\n      tag_9\n      jumpi\n      0x00\n      dup1\n      revert\n    tag_37:\n      dup1\n      0x0104db1b\n      eq\n      tag_3\n      jumpi\n      dup1\n      0x01c234a8\n      eq\n      tag_4\n      jumpi\n      dup1\n      0x040a772e\n      eq\n      tag_5\n      jumpi\n    tag_2:\n      0x00\n      dup1\n      revert\n        /* \"BCStaking.sol\":529:578  uint256 public constant STAKING_PERIOD = 180 days */\n    tag_3:\n      tag_38\n        /* \"BCStaking.sol\":570:578  180 days */\n      0xed4e00\n        /* \"BCStaking.sol\":529:578  uint256 public constant STAKING_PERIOD = 180 days */\n      dup2\n      jump\n    tag_38:\n      mload(0x40)\n        /* \"#utility.yul\":160:185   */\n      swap1\n      dup2\n      mstore\n        /* \"#utility.yul\":148:150   */\n      0x20\n        /* \"#utility.yul\":133:151   */\n      add\n        /* \"BCStaking.sol\":529:578  uint256 public constant STAKING_PERIOD = 180 days */\n    tag_40:\n      mload(0x40)\n      dup1\n      swap2\n      sub\n      swap1\n      return\n        /* \"BCStaking.sol\":322:369  uint256 public constant PERCENTS_DIVIDER = 1000 */\n    tag_4:\n      tag_38\n        /* \"BCStaking.sol\":365:369  1000 */\n      0x03e8\n        /* \"BCStaking.sol\":322:369  uint256 public constant PERCENTS_DIVIDER = 1000 */\n      dup2\n      jump\n        /* \"BCStaking.sol\":10558:13008  function getUserDividends(address userAddress)... */\n    tag_5:\n      tag_38\n      tag_46\n      calldatasize\n      0x04\n      tag_47\n      jump\t// in\n    tag_46:\n      tag_48\n      jump\t// in\n        /* \"BCStaking.sol\":376:419  uint256 public constant PERCENTS_DAILY = 15 */\n    tag_6:\n      tag_38\n        /* \"BCStaking.sol\":417:419  15 */\n      0x0f\n        /* \"BCStaking.sol\":376:419  uint256 public constant PERCENTS_DAILY = 15 */\n      dup2\n      jump\n        /* \"BCStaking.sol\":13708:13956  function getUserAvailable(address userAddress)... */\n    tag_7:\n      tag_38\n      tag_54\n      calldatasize\n      0x04\n      tag_47\n      jump\t// in\n    tag_54:\n      tag_55\n      jump\t// in\n        /* \"BCStaking.sol\":744:791  uint256 public minimumStakeValue = 200 * 10**18 */\n    tag_8:\n      tag_38\n      sload(0x06)\n      dup2\n      jump\n        /* \"BCStaking.sol\":480:522  uint256 public constant TIME_STEP = 1 days */\n    tag_9:\n      tag_38\n        /* \"BCStaking.sol\":516:522  1 days */\n      0x015180\n        /* \"BCStaking.sol\":480:522  uint256 public constant TIME_STEP = 1 days */\n      dup2\n      jump\n        /* \"BCStaking.sol\":13366:13527  function getUserReferrer(address userAddress)... */\n    tag_10:\n      tag_63\n      tag_64\n      calldatasize\n      0x04\n      tag_47\n      jump\t// in\n    tag_64:\n      sub(shl(0xa0, 0x01), 0x01)\n        /* \"BCStaking.sol\":13492:13510  users[userAddress] */\n      swap1\n      dup2\n      and\n        /* \"BCStaking.sol\":13460:13467  address */\n      0x00\n        /* \"BCStaking.sol\":13492:13510  users[userAddress] */\n      swap1\n      dup2\n      mstore\n        /* \"BCStaking.sol\":13492:13497  users */\n      0x07\n        /* \"BCStaking.sol\":13492:13510  users[userAddress] */\n      0x20\n      mstore\n      0x40\n      swap1\n      keccak256\n        /* \"BCStaking.sol\":13492:13519  users[userAddress].referrer */\n      0x04\n      add\n      sload\n      and\n      swap1\n        /* \"BCStaking.sol\":13366:13527  function getUserReferrer(address userAddress)... */\n      jump\n    tag_63:\n      mload(0x40)\n      sub(shl(0xa0, 0x01), 0x01)\n        /* \"#utility.yul\":729:761   */\n      swap1\n      swap2\n      and\n        /* \"#utility.yul\":711:762   */\n      dup2\n      mstore\n        /* \"#utility.yul\":699:701   */\n      0x20\n        /* \"#utility.yul\":684:702   */\n      add\n        /* \"BCStaking.sol\":13366:13527  function getUserReferrer(address userAddress)... */\n      tag_40\n        /* \"#utility.yul\":565:768   */\n      jump\n        /* \"BCStaking.sol\":426:473  uint256 public constant REFERRAL_PERCENTS = 120 */\n    tag_11:\n      tag_38\n        /* \"BCStaking.sol\":470:473  120 */\n      0x78\n        /* \"BCStaking.sol\":426:473  uint256 public constant REFERRAL_PERCENTS = 120 */\n      dup2\n      jump\n        /* \"BCStaking.sol\":669:698  uint256 public totalWithdrawn */\n    tag_12:\n      tag_38\n      sload(0x04)\n      dup2\n      jump\n        /* \"BCStaking.sol\":15979:16136  function setMinimumStakeValue(uint256 _minimumStakeValue)... */\n    tag_13:\n      tag_74\n      tag_75\n      calldatasize\n      0x04\n      tag_76\n      jump\t// in\n    tag_75:\n      tag_77\n      jump\t// in\n    tag_74:\n      stop\n        /* \"BCStaking.sol\":3955:7280  function claim() public {... */\n    tag_14:\n      tag_74\n      tag_79\n      jump\t// in\n        /* \"@openzeppelin/contracts/access/Ownable.sol\":1668:1769  function renounceOwnership() public virtual onlyOwner {... */\n    tag_15:\n      tag_74\n      tag_81\n      jump\t// in\n        /* \"BCStaking.sol\":15209:15566  function getUserTotalDeposits(address userAddress)... */\n    tag_16:\n      tag_38\n      tag_83\n      calldatasize\n      0x04\n      tag_47\n      jump\t// in\n    tag_83:\n      tag_84\n      jump\t// in\n        /* \"BCStaking.sol\":636:662  uint256 public totalStaked */\n    tag_17:\n      tag_38\n      sload(0x03)\n      dup2\n      jump\n        /* \"@openzeppelin/contracts/access/Ownable.sol\":1036:1121  function owner() public view virtual returns (address) {... */\n    tag_18:\n        /* \"@openzeppelin/contracts/access/Ownable.sol\":1082:1089  address */\n      0x00\n        /* \"@openzeppelin/contracts/access/Ownable.sol\":1108:1114  _owner */\n      sload\n      sub(shl(0xa0, 0x01), 0x01)\n      and\n        /* \"@openzeppelin/contracts/access/Ownable.sol\":1036:1121  function owner() public view virtual returns (address) {... */\n      jump(tag_63)\n        /* \"BCStaking.sol\":13964:14470  function isActive(address userAddress) public view returns (bool) {... */\n    tag_19:\n      tag_92\n      tag_93\n      calldatasize\n      0x04\n      tag_47\n      jump\t// in\n    tag_93:\n      tag_94\n      jump\t// in\n    tag_92:\n      mload(0x40)\n        /* \"#utility.yul\":1123:1137   */\n      swap1\n      iszero\n        /* \"#utility.yul\":1116:1138   */\n      iszero\n        /* \"#utility.yul\":1098:1139   */\n      dup2\n      mstore\n        /* \"#utility.yul\":1086:1088   */\n      0x20\n        /* \"#utility.yul\":1071:1089   */\n      add\n        /* \"BCStaking.sol\":13964:14470  function isActive(address userAddress) public view returns (bool) {... */\n      tag_40\n        /* \"#utility.yul\":958:1145   */\n      jump\n        /* \"BCStaking.sol\":15025:15201  function getUserAmountOfDeposits(address userAddress)... */\n    tag_20:\n      tag_38\n      tag_98\n      calldatasize\n      0x04\n      tag_47\n      jump\t// in\n    tag_98:\n      sub(shl(0xa0, 0x01), 0x01)\n        /* \"BCStaking.sol\":15159:15177  users[userAddress] */\n      and\n        /* \"BCStaking.sol\":15127:15134  uint256 */\n      0x00\n        /* \"BCStaking.sol\":15159:15177  users[userAddress] */\n      swap1\n      dup2\n      mstore\n        /* \"BCStaking.sol\":15159:15164  users */\n      0x07\n        /* \"BCStaking.sol\":15159:15177  users[userAddress] */\n      0x20\n      mstore\n      0x40\n      swap1\n      keccak256\n        /* \"BCStaking.sol\":15159:15193  users[userAddress].deposits.length */\n      sload\n      swap1\n        /* \"BCStaking.sol\":15025:15201  function getUserAmountOfDeposits(address userAddress)... */\n      jump\n        /* \"BCStaking.sol\":1747:3947  function stake(address referrer, uint256 amount) public {... */\n    tag_21:\n      tag_74\n      tag_102\n      calldatasize\n      0x04\n      tag_103\n      jump\t// in\n    tag_102:\n      tag_104\n      jump\t// in\n        /* \"BCStaking.sol\":604:629  uint256 public totalUsers */\n    tag_22:\n      tag_38\n      sload(0x02)\n      dup2\n      jump\n        /* \"BCStaking.sol\":14478:15017  function getUserDepositInfo(address userAddress, uint256 index)... */\n    tag_23:\n      tag_108\n      tag_109\n      calldatasize\n      0x04\n      tag_103\n      jump\t// in\n    tag_109:\n      tag_110\n      jump\t// in\n    tag_108:\n      0x40\n      dup1\n      mload\n        /* \"#utility.yul\":1662:1687   */\n      swap6\n      dup7\n      mstore\n        /* \"#utility.yul\":1718:1720   */\n      0x20\n        /* \"#utility.yul\":1703:1721   */\n      dup7\n      add\n        /* \"#utility.yul\":1696:1730   */\n      swap5\n      swap1\n      swap5\n      mstore\n        /* \"#utility.yul\":1746:1764   */\n      swap3\n      dup5\n      add\n        /* \"#utility.yul\":1739:1773   */\n      swap2\n      swap1\n      swap2\n      mstore\n        /* \"#utility.yul\":1804:1806   */\n      0x60\n        /* \"#utility.yul\":1789:1807   */\n      dup4\n      add\n        /* \"#utility.yul\":1782:1816   */\n      mstore\n        /* \"#utility.yul\":1860:1874   */\n      iszero\n        /* \"#utility.yul\":1853:1875   */\n      iszero\n        /* \"#utility.yul\":1847:1850   */\n      0x80\n        /* \"#utility.yul\":1832:1851   */\n      dup3\n      add\n        /* \"#utility.yul\":1825:1876   */\n      mstore\n        /* \"#utility.yul\":1649:1652   */\n      0xa0\n        /* \"#utility.yul\":1634:1653   */\n      add\n        /* \"BCStaking.sol\":14478:15017  function getUserDepositInfo(address userAddress, uint256 index)... */\n      tag_40\n        /* \"#utility.yul\":1409:1882   */\n      jump\n        /* \"BCStaking.sol\":13187:13358  function getUserReferralCount(address userAddress)... */\n    tag_24:\n      tag_38\n      tag_114\n      calldatasize\n      0x04\n      tag_47\n      jump\t// in\n    tag_114:\n      sub(shl(0xa0, 0x01), 0x01)\n        /* \"BCStaking.sol\":13318:13336  users[userAddress] */\n      and\n        /* \"BCStaking.sol\":13286:13293  uint256 */\n      0x00\n        /* \"BCStaking.sol\":13318:13336  users[userAddress] */\n      swap1\n      dup2\n      mstore\n        /* \"BCStaking.sol\":13318:13323  users */\n      0x07\n        /* \"BCStaking.sol\":13318:13336  users[userAddress] */\n      0x20\n      mstore\n      0x40\n      swap1\n      keccak256\n        /* \"BCStaking.sol\":13318:13350  users[userAddress].referralCount */\n      0x03\n      add\n      sload\n      swap1\n        /* \"BCStaking.sol\":13187:13358  function getUserReferralCount(address userAddress)... */\n      jump\n        /* \"BCStaking.sol\":705:737  uint256 public totalDepositCount */\n    tag_25:\n      tag_38\n      sload(0x05)\n      dup2\n      jump\n        /* \"BCStaking.sol\":13535:13700  function getUserCheckpoint(address userAddress)... */\n    tag_26:\n      tag_38\n      tag_121\n      calldatasize\n      0x04\n      tag_47\n      jump\t// in\n    tag_121:\n      sub(shl(0xa0, 0x01), 0x01)\n        /* \"BCStaking.sol\":13663:13681  users[userAddress] */\n      and\n        /* \"BCStaking.sol\":13631:13638  uint256 */\n      0x00\n        /* \"BCStaking.sol\":13663:13681  users[userAddress] */\n      swap1\n      dup2\n      mstore\n        /* \"BCStaking.sol\":13663:13668  users */\n      0x07\n        /* \"BCStaking.sol\":13663:13681  users[userAddress] */\n      0x20\n      mstore\n      0x40\n      swap1\n      keccak256\n        /* \"BCStaking.sol\":13663:13692  users[userAddress].checkpoint */\n      0x01\n      add\n      sload\n      swap1\n        /* \"BCStaking.sol\":13535:13700  function getUserCheckpoint(address userAddress)... */\n      jump\n        /* \"BCStaking.sol\":13016:13179  function getUserReferralBonus(address userAddress)... */\n    tag_27:\n      tag_38\n      tag_125\n      calldatasize\n      0x04\n      tag_47\n      jump\t// in\n    tag_125:\n      sub(shl(0xa0, 0x01), 0x01)\n        /* \"BCStaking.sol\":13147:13165  users[userAddress] */\n      and\n        /* \"BCStaking.sol\":13115:13122  uint256 */\n      0x00\n        /* \"BCStaking.sol\":13147:13165  users[userAddress] */\n      swap1\n      dup2\n      mstore\n        /* \"BCStaking.sol\":13147:13152  users */\n      0x07\n        /* \"BCStaking.sol\":13147:13165  users[userAddress] */\n      0x20\n      mstore\n      0x40\n      swap1\n      keccak256\n        /* \"BCStaking.sol\":13147:13171  users[userAddress].bonus */\n      0x02\n      add\n      sload\n      swap1\n        /* \"BCStaking.sol\":13016:13179  function getUserReferralBonus(address userAddress)... */\n      jump\n        /* \"@openzeppelin/contracts/access/Ownable.sol\":1918:2116  function transferOwnership(address newOwner) public virtual onlyOwner {... */\n    tag_28:\n      tag_74\n      tag_129\n      calldatasize\n      0x04\n      tag_47\n      jump\t// in\n    tag_129:\n      tag_130\n      jump\t// in\n        /* \"BCStaking.sol\":7288:10550  function compound() public onlyhodler {... */\n    tag_29:\n      tag_74\n      tag_132\n      jump\t// in\n        /* \"BCStaking.sol\":15574:15935  function getUserTotalWithdrawn(address userAddress)... */\n    tag_30:\n      tag_38\n      tag_134\n      calldatasize\n      0x04\n      tag_47\n      jump\t// in\n    tag_134:\n      tag_135\n      jump\t// in\n        /* \"BCStaking.sol\":10558:13008  function getUserDividends(address userAddress)... */\n    tag_48:\n      sub(shl(0xa0, 0x01), 0x01)\n        /* \"BCStaking.sol\":10698:10716  users[userAddress] */\n      dup2\n      and\n        /* \"BCStaking.sol\":10653:10660  uint256 */\n      0x00\n        /* \"BCStaking.sol\":10698:10716  users[userAddress] */\n      swap1\n      dup2\n      mstore\n        /* \"BCStaking.sol\":10698:10703  users */\n      0x07\n        /* \"BCStaking.sol\":10698:10716  users[userAddress] */\n      0x20\n      mstore\n      0x40\n      dup2\n      keccak256\n        /* \"BCStaking.sol\":10653:10660  uint256 */\n      dup2\n      dup1\n      dup1\n        /* \"BCStaking.sol\":10792:12967  for (uint256 i = 0; i < user.deposits.length; i++) {... */\n    tag_138:\n        /* \"BCStaking.sol\":10816:10836  user.deposits.length */\n      dup4\n      sload\n        /* \"BCStaking.sol\":10812:10836  i < user.deposits.length */\n      dup2\n      lt\n        /* \"BCStaking.sol\":10792:12967  for (uint256 i = 0; i < user.deposits.length; i++) {... */\n      iszero\n      tag_139\n      jumpi\n        /* \"BCStaking.sol\":10862:10866  user */\n      dup4\n        /* \"BCStaking.sol\":10862:10875  user.deposits */\n      0x00\n      add\n        /* \"BCStaking.sol\":10876:10877  i */\n      dup2\n        /* \"BCStaking.sol\":10862:10878  user.deposits[i] */\n      dup2\n      sload\n      dup2\n      lt\n      tag_142\n      jumpi\n      tag_142\n      tag_143\n      jump\t// in\n    tag_142:\n      0x00\n      swap2\n      dup3\n      mstore\n      0x20\n      swap1\n      swap2\n      keccak256\n        /* \"BCStaking.sol\":10862:10884  user.deposits[i].ended */\n      0x04\n        /* \"BCStaking.sol\":10862:10878  user.deposits[i] */\n      0x05\n      swap1\n      swap3\n      mul\n      add\n        /* \"BCStaking.sol\":10862:10884  user.deposits[i].ended */\n      add\n      sload\n      0xff\n      and\n        /* \"BCStaking.sol\":10858:12956  if (user.deposits[i].ended == false) {... */\n      tag_145\n      jumpi\n        /* \"BCStaking.sol\":10945:10960  block.timestamp */\n      timestamp\n        /* \"BCStaking.sol\":10918:10922  user */\n      dup5\n        /* \"BCStaking.sol\":10918:10931  user.deposits */\n      0x00\n      add\n        /* \"BCStaking.sol\":10932:10933  i */\n      dup3\n        /* \"BCStaking.sol\":10918:10934  user.deposits[i] */\n      dup2\n      sload\n      dup2\n      lt\n      tag_147\n      jumpi\n      tag_147\n      tag_143\n      jump\t// in\n    tag_147:\n      swap1\n      0x00\n      mstore\n      keccak256(0x00, 0x20)\n      swap1\n      0x05\n      mul\n      add\n        /* \"BCStaking.sol\":10918:10942  user.deposits[i].endTime */\n      0x03\n      add\n      sload\n        /* \"BCStaking.sol\":10918:10960  user.deposits[i].endTime > block.timestamp */\n      gt\n        /* \"BCStaking.sol\":10914:12876  if (user.deposits[i].endTime > block.timestamp) {... */\n      iszero\n      tag_149\n      jumpi\n        /* \"BCStaking.sol\":11018:11022  user */\n      dup4\n        /* \"BCStaking.sol\":11018:11033  user.checkpoint */\n      0x01\n      add\n      sload\n        /* \"BCStaking.sol\":10989:10993  user */\n      dup5\n        /* \"BCStaking.sol\":10989:11002  user.deposits */\n      0x00\n      add\n        /* \"BCStaking.sol\":11003:11004  i */\n      dup3\n        /* \"BCStaking.sol\":10989:11005  user.deposits[i] */\n      dup2\n      sload\n      dup2\n      lt\n      tag_151\n      jumpi\n      tag_151\n      tag_143\n      jump\t// in\n    tag_151:\n      swap1\n      0x00\n      mstore\n      keccak256(0x00, 0x20)\n      swap1\n      0x05\n      mul\n      add\n        /* \"BCStaking.sol\":10989:11015  user.deposits[i].startTime */\n      0x02\n      add\n      sload\n        /* \"BCStaking.sol\":10989:11033  user.deposits[i].startTime > user.checkpoint */\n      gt\n        /* \"BCStaking.sol\":10985:11854  if (user.deposits[i].startTime > user.checkpoint) {... */\n      iszero\n      tag_153\n      jumpi\n        /* \"BCStaking.sol\":11074:11453  (... */\n      tag_154\n        /* \"BCStaking.sol\":516:522  1 days */\n      0x015180\n        /* \"BCStaking.sol\":11074:11408  (... */\n      tag_162\n        /* \"BCStaking.sol\":11330:11377  block.timestamp.sub(user.deposits[i].startTime) */\n      tag_156\n        /* \"BCStaking.sol\":11350:11354  user */\n      dup8\n        /* \"BCStaking.sol\":11350:11363  user.deposits */\n      0x00\n      add\n        /* \"BCStaking.sol\":11364:11365  i */\n      dup6\n        /* \"BCStaking.sol\":11350:11366  user.deposits[i] */\n      dup2\n      sload\n      dup2\n      lt\n      tag_158\n      jumpi\n      tag_158\n      tag_143\n      jump\t// in\n    tag_158:\n      swap1\n      0x00\n      mstore\n      keccak256(0x00, 0x20)\n      swap1\n      0x05\n      mul\n      add\n        /* \"BCStaking.sol\":11350:11376  user.deposits[i].startTime */\n      0x02\n      add\n      sload\n        /* \"BCStaking.sol\":11330:11345  block.timestamp */\n      timestamp\n        /* \"BCStaking.sol\":11330:11349  block.timestamp.sub */\n      tag_160\n      swap1\n        /* \"BCStaking.sol\":11330:11377  block.timestamp.sub(user.deposits[i].startTime) */\n      swap2\n      swap1\n      0xffffffff\n      and\n      jump\t// in\n    tag_156:\n        /* \"BCStaking.sol\":11105:11234  user.deposits[i].amount.mul(PERCENTS_DAILY).div(... */\n      tag_161\n        /* \"BCStaking.sol\":365:369  1000 */\n      0x03e8\n        /* \"BCStaking.sol\":11105:11148  user.deposits[i].amount.mul(PERCENTS_DAILY) */\n      tag_162\n        /* \"BCStaking.sol\":417:419  15 */\n      0x0f\n        /* \"BCStaking.sol\":11105:11109  user */\n      dup12\n        /* \"BCStaking.sol\":11105:11118  user.deposits */\n      0x00\n      add\n        /* \"BCStaking.sol\":11119:11120  i */\n      dup10\n        /* \"BCStaking.sol\":11105:11121  user.deposits[i] */\n      dup2\n      sload\n      dup2\n      lt\n      tag_164\n      jumpi\n      tag_164\n      tag_143\n      jump\t// in\n    tag_164:\n      0x00\n      swap2\n      dup3\n      mstore\n      0x20\n      swap1\n      swap2\n      keccak256\n      0x05\n      swap1\n      swap2\n      mul\n      add\n        /* \"BCStaking.sol\":11105:11128  user.deposits[i].amount */\n      sload\n      swap1\n        /* \"BCStaking.sol\":11105:11132  user.deposits[i].amount.mul */\n      tag_166\n        /* \"BCStaking.sol\":11105:11148  user.deposits[i].amount.mul(PERCENTS_DAILY) */\n      jump\t// in\n    tag_162:\n        /* \"BCStaking.sol\":11105:11152  user.deposits[i].amount.mul(PERCENTS_DAILY).div */\n      swap1\n      tag_167\n        /* \"BCStaking.sol\":11105:11234  user.deposits[i].amount.mul(PERCENTS_DAILY).div(... */\n      jump\t// in\n    tag_161:\n        /* \"BCStaking.sol\":11074:11295  (... */\n      swap1\n      tag_166\n        /* \"BCStaking.sol\":11074:11408  (... */\n      jump\t// in\n        /* \"BCStaking.sol\":11074:11453  (... */\n    tag_154:\n        /* \"BCStaking.sol\":11062:11453  dividends = (... */\n      swap2\n      pop\n        /* \"BCStaking.sol\":10914:12876  if (user.deposits[i].endTime > block.timestamp) {... */\n      jump(tag_196)\n        /* \"BCStaking.sol\":10985:11854  if (user.deposits[i].startTime > user.checkpoint) {... */\n    tag_153:\n        /* \"BCStaking.sol\":11522:11830  (... */\n      tag_154\n        /* \"BCStaking.sol\":516:522  1 days */\n      0x015180\n        /* \"BCStaking.sol\":11522:11751  (... */\n      tag_162\n        /* \"BCStaking.sol\":11714:11750  block.timestamp.sub(user.checkpoint) */\n      tag_156\n        /* \"BCStaking.sol\":11734:11738  user */\n      dup8\n        /* \"BCStaking.sol\":11734:11749  user.checkpoint */\n      0x01\n      add\n      sload\n        /* \"BCStaking.sol\":11714:11729  block.timestamp */\n      timestamp\n        /* \"BCStaking.sol\":11714:11733  block.timestamp.sub */\n      tag_160\n      swap1\n        /* \"BCStaking.sol\":11714:11750  block.timestamp.sub(user.checkpoint) */\n      swap2\n      swap1\n      0xffffffff\n      and\n      jump\t// in\n        /* \"BCStaking.sol\":10914:12876  if (user.deposits[i].endTime > block.timestamp) {... */\n    tag_149:\n        /* \"BCStaking.sol\":11935:11939  user */\n      dup4\n        /* \"BCStaking.sol\":11935:11950  user.checkpoint */\n      0x01\n      add\n      sload\n        /* \"BCStaking.sol\":11906:11910  user */\n      dup5\n        /* \"BCStaking.sol\":11906:11919  user.deposits */\n      0x00\n      add\n        /* \"BCStaking.sol\":11920:11921  i */\n      dup3\n        /* \"BCStaking.sol\":11906:11922  user.deposits[i] */\n      dup2\n      sload\n      dup2\n      lt\n      tag_179\n      jumpi\n      tag_179\n      tag_143\n      jump\t// in\n    tag_179:\n      swap1\n      0x00\n      mstore\n      keccak256(0x00, 0x20)\n      swap1\n      0x05\n      mul\n      add\n        /* \"BCStaking.sol\":11906:11932  user.deposits[i].startTime */\n      0x02\n      add\n      sload\n        /* \"BCStaking.sol\":11906:11950  user.deposits[i].startTime > user.checkpoint */\n      gt\n        /* \"BCStaking.sol\":11902:12857  if (user.deposits[i].startTime > user.checkpoint) {... */\n      iszero\n      tag_181\n      jumpi\n        /* \"BCStaking.sol\":11991:12451  (... */\n      tag_154\n        /* \"BCStaking.sol\":516:522  1 days */\n      0x015180\n        /* \"BCStaking.sol\":11991:12406  (... */\n      tag_162\n        /* \"BCStaking.sol\":12247:12375  user.deposits[i].endTime.sub(... */\n      tag_156\n        /* \"BCStaking.sol\":12314:12318  user */\n      dup8\n        /* \"BCStaking.sol\":12314:12327  user.deposits */\n      0x00\n      add\n        /* \"BCStaking.sol\":12328:12329  i */\n      dup6\n        /* \"BCStaking.sol\":12314:12330  user.deposits[i] */\n      dup2\n      sload\n      dup2\n      lt\n      tag_186\n      jumpi\n      tag_186\n      tag_143\n      jump\t// in\n    tag_186:\n      swap1\n      0x00\n      mstore\n      keccak256(0x00, 0x20)\n      swap1\n      0x05\n      mul\n      add\n        /* \"BCStaking.sol\":12314:12340  user.deposits[i].startTime */\n      0x02\n      add\n      sload\n        /* \"BCStaking.sol\":12247:12251  user */\n      dup9\n        /* \"BCStaking.sol\":12247:12260  user.deposits */\n      0x00\n      add\n        /* \"BCStaking.sol\":12261:12262  i */\n      dup7\n        /* \"BCStaking.sol\":12247:12263  user.deposits[i] */\n      dup2\n      sload\n      dup2\n      lt\n      tag_189\n      jumpi\n      tag_189\n      tag_143\n      jump\t// in\n    tag_189:\n      swap1\n      0x00\n      mstore\n      keccak256(0x00, 0x20)\n      swap1\n      0x05\n      mul\n      add\n        /* \"BCStaking.sol\":12247:12271  user.deposits[i].endTime */\n      0x03\n      add\n      sload\n        /* \"BCStaking.sol\":12247:12275  user.deposits[i].endTime.sub */\n      tag_160\n      swap1\n        /* \"BCStaking.sol\":12247:12375  user.deposits[i].endTime.sub(... */\n      swap2\n      swap1\n      0xffffffff\n      and\n      jump\t// in\n        /* \"BCStaking.sol\":11902:12857  if (user.deposits[i].startTime > user.checkpoint) {... */\n    tag_181:\n        /* \"BCStaking.sol\":12520:12833  (... */\n      tag_197\n        /* \"BCStaking.sol\":516:522  1 days */\n      0x015180\n        /* \"BCStaking.sol\":12520:12788  (... */\n      tag_162\n        /* \"BCStaking.sol\":12742:12787  user.deposits[i].endTime.sub(user.checkpoint) */\n      tag_156\n        /* \"BCStaking.sol\":12771:12775  user */\n      dup8\n        /* \"BCStaking.sol\":12771:12786  user.checkpoint */\n      0x01\n      add\n      sload\n        /* \"BCStaking.sol\":12742:12746  user */\n      dup9\n        /* \"BCStaking.sol\":12742:12755  user.deposits */\n      0x00\n      add\n        /* \"BCStaking.sol\":12756:12757  i */\n      dup7\n        /* \"BCStaking.sol\":12742:12758  user.deposits[i] */\n      dup2\n      sload\n      dup2\n      lt\n      tag_189\n      jumpi\n      tag_189\n      tag_143\n      jump\t// in\n        /* \"BCStaking.sol\":12520:12833  (... */\n    tag_197:\n        /* \"BCStaking.sol\":12508:12833  dividends = (... */\n      swap2\n      pop\n        /* \"BCStaking.sol\":11902:12857  if (user.deposits[i].startTime > user.checkpoint) {... */\n    tag_196:\n        /* \"BCStaking.sol\":12911:12940  totalDividends.add(dividends) */\n      tag_208\n        /* \"BCStaking.sol\":12911:12925  totalDividends */\n      dup4\n        /* \"BCStaking.sol\":12930:12939  dividends */\n      dup4\n        /* \"BCStaking.sol\":12911:12929  totalDividends.add */\n      tag_209\n        /* \"BCStaking.sol\":12911:12940  totalDividends.add(dividends) */\n      jump\t// in\n    tag_208:\n        /* \"BCStaking.sol\":12894:12940  totalDividends = totalDividends.add(dividends) */\n      swap3\n      pop\n        /* \"BCStaking.sol\":10858:12956  if (user.deposits[i].ended == false) {... */\n    tag_145:\n        /* \"BCStaking.sol\":10838:10841  i++ */\n      dup1\n      tag_210\n      dup2\n      tag_211\n      jump\t// in\n    tag_210:\n      swap2\n      pop\n      pop\n        /* \"BCStaking.sol\":10792:12967  for (uint256 i = 0; i < user.deposits.length; i++) {... */\n      jump(tag_138)\n    tag_139:\n      pop\n        /* \"BCStaking.sol\":12986:13000  totalDividends */\n      swap1\n      swap5\n        /* \"BCStaking.sol\":10558:13008  function getUserDividends(address userAddress)... */\n      swap4\n      pop\n      pop\n      pop\n      pop\n      jump\t// out\n        /* \"BCStaking.sol\":13708:13956  function getUserAvailable(address userAddress)... */\n    tag_55:\n        /* \"BCStaking.sol\":13803:13810  uint256 */\n      0x00\n        /* \"BCStaking.sol\":13848:13948  getUserReferralBonus(userAddress).add(... */\n      tag_213\n        /* \"BCStaking.sol\":13904:13933  getUserDividends(userAddress) */\n      tag_214\n        /* \"BCStaking.sol\":13921:13932  userAddress */\n      dup4\n        /* \"BCStaking.sol\":13904:13920  getUserDividends */\n      tag_48\n        /* \"BCStaking.sol\":13904:13933  getUserDividends(userAddress) */\n      jump\t// in\n    tag_214:\n      sub(shl(0xa0, 0x01), 0x01)\n        /* \"BCStaking.sol\":13147:13165  users[userAddress] */\n      dup5\n      and\n        /* \"BCStaking.sol\":13115:13122  uint256 */\n      0x00\n        /* \"BCStaking.sol\":13147:13165  users[userAddress] */\n      swap1\n      dup2\n      mstore\n        /* \"BCStaking.sol\":13147:13152  users */\n      0x07\n        /* \"BCStaking.sol\":13147:13165  users[userAddress] */\n      0x20\n      mstore\n      0x40\n      swap1\n      keccak256\n        /* \"BCStaking.sol\":13147:13171  users[userAddress].bonus */\n      0x02\n      add\n      sload\n        /* \"BCStaking.sol\":13848:13885  getUserReferralBonus(userAddress).add */\n      swap1\n      tag_209\n        /* \"BCStaking.sol\":13848:13948  getUserReferralBonus(userAddress).add(... */\n      jump\t// in\n    tag_213:\n        /* \"BCStaking.sol\":13828:13948  return... */\n      swap3\n        /* \"BCStaking.sol\":13708:13956  function getUserAvailable(address userAddress)... */\n      swap2\n      pop\n      pop\n      jump\t// out\n        /* \"BCStaking.sol\":15979:16136  function setMinimumStakeValue(uint256 _minimumStakeValue)... */\n    tag_77:\n        /* \"@openzeppelin/contracts/access/Ownable.sol\":1082:1089  address */\n      0x00\n        /* \"@openzeppelin/contracts/access/Ownable.sol\":1108:1114  _owner */\n      sload\n      sub(shl(0xa0, 0x01), 0x01)\n      and\n        /* \"@openzeppelin/contracts/utils/Context.sol\":719:729  msg.sender */\n      caller\n        /* \"@openzeppelin/contracts/access/Ownable.sol\":1248:1271  owner() == _msgSender() */\n      eq\n        /* \"@openzeppelin/contracts/access/Ownable.sol\":1240:1308  require(owner() == _msgSender(), \"Ownable: caller is not the owner\") */\n      tag_221\n      jumpi\n      mload(0x40)\n      shl(0xe5, 0x461bcd)\n      dup2\n      mstore\n      0x04\n      add\n      tag_222\n      swap1\n      tag_223\n      jump\t// in\n    tag_222:\n      mload(0x40)\n      dup1\n      swap2\n      sub\n      swap1\n      revert\n    tag_221:\n        /* \"BCStaking.sol\":16090:16107  minimumStakeValue */\n      0x06\n        /* \"BCStaking.sol\":16090:16128  minimumStakeValue = _minimumStakeValue */\n      sstore\n        /* \"BCStaking.sol\":15979:16136  function setMinimumStakeValue(uint256 _minimumStakeValue)... */\n      jump\t// out\n        /* \"BCStaking.sol\":3955:7280  function claim() public {... */\n    tag_79:\n        /* \"BCStaking.sol\":4016:4026  msg.sender */\n      caller\n        /* \"BCStaking.sol\":3990:4007  User storage user */\n      0x00\n        /* \"BCStaking.sol\":4010:4027  users[msg.sender] */\n      swap1\n      dup2\n      mstore\n        /* \"BCStaking.sol\":4010:4015  users */\n      0x07\n        /* \"BCStaking.sol\":4010:4027  users[msg.sender] */\n      0x20\n      mstore\n      0x40\n      dup2\n      keccak256\n      swap1\n        /* \"BCStaking.sol\":3990:4007  User storage user */\n      dup1\n      dup1\n        /* \"BCStaking.sol\":4100:6541  for (uint256 i = 0; i < user.deposits.length; i++) {... */\n    tag_226:\n        /* \"BCStaking.sol\":4124:4144  user.deposits.length */\n      dup4\n      sload\n        /* \"BCStaking.sol\":4120:4144  i < user.deposits.length */\n      dup2\n      lt\n        /* \"BCStaking.sol\":4100:6541  for (uint256 i = 0; i < user.deposits.length; i++) {... */\n      iszero\n      tag_227\n      jumpi\n        /* \"BCStaking.sol\":4170:4174  user */\n      dup4\n        /* \"BCStaking.sol\":4170:4183  user.deposits */\n      0x00\n      add\n        /* \"BCStaking.sol\":4184:4185  i */\n      dup2\n        /* \"BCStaking.sol\":4170:4186  user.deposits[i] */\n      dup2\n      sload\n      dup2\n      lt\n      tag_230\n      jumpi\n      tag_230\n      tag_143\n      jump\t// in\n    tag_230:\n      0x00\n      swap2\n      dup3\n      mstore\n      0x20\n      swap1\n      swap2\n      keccak256\n        /* \"BCStaking.sol\":4170:4192  user.deposits[i].ended */\n      0x04\n        /* \"BCStaking.sol\":4170:4186  user.deposits[i] */\n      0x05\n      swap1\n      swap3\n      mul\n      add\n        /* \"BCStaking.sol\":4170:4192  user.deposits[i].ended */\n      add\n      sload\n      0xff\n      and\n        /* \"BCStaking.sol\":4166:6530  if (user.deposits[i].ended == false) {... */\n      tag_232\n      jumpi\n        /* \"BCStaking.sol\":4253:4268  block.timestamp */\n      timestamp\n        /* \"BCStaking.sol\":4226:4230  user */\n      dup5\n        /* \"BCStaking.sol\":4226:4239  user.deposits */\n      0x00\n      add\n        /* \"BCStaking.sol\":4240:4241  i */\n      dup3\n        /* \"BCStaking.sol\":4226:4242  user.deposits[i] */\n      dup2\n      sload\n      dup2\n      lt\n      tag_234\n      jumpi\n      tag_234\n      tag_143\n      jump\t// in\n    tag_234:\n      swap1\n      0x00\n      mstore\n      keccak256(0x00, 0x20)\n      swap1\n      0x05\n      mul\n      add\n        /* \"BCStaking.sol\":4226:4250  user.deposits[i].endTime */\n      0x03\n      add\n      sload\n        /* \"BCStaking.sol\":4226:4268  user.deposits[i].endTime > block.timestamp */\n      gt\n        /* \"BCStaking.sol\":4222:6296  if (user.deposits[i].endTime > block.timestamp) {... */\n      iszero\n      tag_236\n      jumpi\n        /* \"BCStaking.sol\":4326:4330  user */\n      dup4\n        /* \"BCStaking.sol\":4326:4341  user.checkpoint */\n      0x01\n      add\n      sload\n        /* \"BCStaking.sol\":4297:4301  user */\n      dup5\n        /* \"BCStaking.sol\":4297:4310  user.deposits */\n      0x00\n      add\n        /* \"BCStaking.sol\":4311:4312  i */\n      dup3\n        /* \"BCStaking.sol\":4297:4313  user.deposits[i] */\n      dup2\n      sload\n      dup2\n      lt\n      tag_238\n      jumpi\n      tag_238\n      tag_143\n      jump\t// in\n    tag_238:\n      swap1\n      0x00\n      mstore\n      keccak256(0x00, 0x20)\n      swap1\n      0x05\n      mul\n      add\n        /* \"BCStaking.sol\":4297:4323  user.deposits[i].startTime */\n      0x02\n      add\n      sload\n        /* \"BCStaking.sol\":4297:4341  user.deposits[i].startTime > user.checkpoint */\n      gt\n        /* \"BCStaking.sol\":4293:5162  if (user.deposits[i].startTime > user.checkpoint) {... */\n      iszero\n      tag_240\n      jumpi\n        /* \"BCStaking.sol\":4382:4761  (... */\n      tag_241\n        /* \"BCStaking.sol\":516:522  1 days */\n      0x015180\n        /* \"BCStaking.sol\":4382:4716  (... */\n      tag_162\n        /* \"BCStaking.sol\":4638:4685  block.timestamp.sub(user.deposits[i].startTime) */\n      tag_156\n        /* \"BCStaking.sol\":4658:4662  user */\n      dup8\n        /* \"BCStaking.sol\":4658:4671  user.deposits */\n      0x00\n      add\n        /* \"BCStaking.sol\":4672:4673  i */\n      dup6\n        /* \"BCStaking.sol\":4658:4674  user.deposits[i] */\n      dup2\n      sload\n      dup2\n      lt\n      tag_158\n      jumpi\n      tag_158\n      tag_143\n      jump\t// in\n        /* \"BCStaking.sol\":4382:4761  (... */\n    tag_241:\n        /* \"BCStaking.sol\":4370:4761  dividends = (... */\n      swap2\n      pop\n        /* \"BCStaking.sol\":4222:6296  if (user.deposits[i].endTime > block.timestamp) {... */\n      jump(tag_283)\n        /* \"BCStaking.sol\":4293:5162  if (user.deposits[i].startTime > user.checkpoint) {... */\n    tag_240:\n        /* \"BCStaking.sol\":4830:5138  (... */\n      tag_241\n        /* \"BCStaking.sol\":516:522  1 days */\n      0x015180\n        /* \"BCStaking.sol\":4830:5059  (... */\n      tag_162\n        /* \"BCStaking.sol\":5022:5058  block.timestamp.sub(user.checkpoint) */\n      tag_156\n        /* \"BCStaking.sol\":5042:5046  user */\n      dup8\n        /* \"BCStaking.sol\":5042:5057  user.checkpoint */\n      0x01\n      add\n      sload\n        /* \"BCStaking.sol\":5022:5037  block.timestamp */\n      timestamp\n        /* \"BCStaking.sol\":5022:5041  block.timestamp.sub */\n      tag_160\n      swap1\n        /* \"BCStaking.sol\":5022:5058  block.timestamp.sub(user.checkpoint) */\n      swap2\n      swap1\n      0xffffffff\n      and\n      jump\t// in\n        /* \"BCStaking.sol\":4222:6296  if (user.deposits[i].endTime > block.timestamp) {... */\n    tag_236:\n        /* \"BCStaking.sol\":5243:5247  user */\n      dup4\n        /* \"BCStaking.sol\":5243:5258  user.checkpoint */\n      0x01\n      add\n      sload\n        /* \"BCStaking.sol\":5214:5218  user */\n      dup5\n        /* \"BCStaking.sol\":5214:5227  user.deposits */\n      0x00\n      add\n        /* \"BCStaking.sol\":5228:5229  i */\n      dup3\n        /* \"BCStaking.sol\":5214:5230  user.deposits[i] */\n      dup2\n      sload\n      dup2\n      lt\n      tag_263\n      jumpi\n      tag_263\n      tag_143\n      jump\t// in\n    tag_263:\n      swap1\n      0x00\n      mstore\n      keccak256(0x00, 0x20)\n      swap1\n      0x05\n      mul\n      add\n        /* \"BCStaking.sol\":5214:5240  user.deposits[i].startTime */\n      0x02\n      add\n      sload\n        /* \"BCStaking.sol\":5214:5258  user.deposits[i].startTime > user.checkpoint */\n      gt\n        /* \"BCStaking.sol\":5210:6277  if (user.deposits[i].startTime > user.checkpoint) {... */\n      iszero\n      tag_265\n      jumpi\n        /* \"BCStaking.sol\":5299:5759  (... */\n      tag_266\n        /* \"BCStaking.sol\":516:522  1 days */\n      0x015180\n        /* \"BCStaking.sol\":5299:5714  (... */\n      tag_162\n        /* \"BCStaking.sol\":5555:5683  user.deposits[i].endTime.sub(... */\n      tag_156\n        /* \"BCStaking.sol\":5622:5626  user */\n      dup8\n        /* \"BCStaking.sol\":5622:5635  user.deposits */\n      0x00\n      add\n        /* \"BCStaking.sol\":5636:5637  i */\n      dup6\n        /* \"BCStaking.sol\":5622:5638  user.deposits[i] */\n      dup2\n      sload\n      dup2\n      lt\n      tag_186\n      jumpi\n      tag_186\n      tag_143\n      jump\t// in\n        /* \"BCStaking.sol\":5299:5759  (... */\n    tag_266:\n        /* \"BCStaking.sol\":5287:5759  dividends = (... */\n      swap2\n      pop\n        /* \"BCStaking.sol\":5811:5815  true */\n      0x01\n        /* \"BCStaking.sol\":5786:5790  user */\n      dup5\n        /* \"BCStaking.sol\":5786:5799  user.deposits */\n      0x00\n      add\n        /* \"BCStaking.sol\":5800:5801  i */\n      dup3\n        /* \"BCStaking.sol\":5786:5802  user.deposits[i] */\n      dup2\n      sload\n      dup2\n      lt\n      tag_281\n      jumpi\n      tag_281\n      tag_143\n      jump\t// in\n    tag_281:\n      0x00\n      swap2\n      dup3\n      mstore\n      0x20\n      swap1\n      swap2\n      keccak256\n      0x05\n      swap1\n      swap2\n      mul\n      add\n        /* \"BCStaking.sol\":5786:5808  user.deposits[i].ended */\n      0x04\n      add\n        /* \"BCStaking.sol\":5786:5815  user.deposits[i].ended = true */\n      dup1\n      sload\n      not(0xff)\n      and\n      swap2\n      iszero\n      iszero\n      swap2\n      swap1\n      swap2\n      or\n      swap1\n      sstore\n        /* \"BCStaking.sol\":5210:6277  if (user.deposits[i].startTime > user.checkpoint) {... */\n      jump(tag_283)\n    tag_265:\n        /* \"BCStaking.sol\":5884:6197  (... */\n      tag_284\n        /* \"BCStaking.sol\":516:522  1 days */\n      0x015180\n        /* \"BCStaking.sol\":5884:6152  (... */\n      tag_162\n        /* \"BCStaking.sol\":6106:6151  user.deposits[i].endTime.sub(user.checkpoint) */\n      tag_156\n        /* \"BCStaking.sol\":6135:6139  user */\n      dup8\n        /* \"BCStaking.sol\":6135:6150  user.checkpoint */\n      0x01\n      add\n      sload\n        /* \"BCStaking.sol\":6106:6110  user */\n      dup9\n        /* \"BCStaking.sol\":6106:6119  user.deposits */\n      0x00\n      add\n        /* \"BCStaking.sol\":6120:6121  i */\n      dup7\n        /* \"BCStaking.sol\":6106:6122  user.deposits[i] */\n      dup2\n      sload\n      dup2\n      lt\n      tag_189\n      jumpi\n      tag_189\n      tag_143\n      jump\t// in\n        /* \"BCStaking.sol\":5884:6197  (... */\n    tag_284:\n        /* \"BCStaking.sol\":5872:6197  dividends = (... */\n      swap2\n      pop\n        /* \"BCStaking.sol\":6249:6253  true */\n      0x01\n        /* \"BCStaking.sol\":6224:6228  user */\n      dup5\n        /* \"BCStaking.sol\":6224:6237  user.deposits */\n      0x00\n      add\n        /* \"BCStaking.sol\":6238:6239  i */\n      dup3\n        /* \"BCStaking.sol\":6224:6240  user.deposits[i] */\n      dup2\n      sload\n      dup2\n      lt\n      tag_296\n      jumpi\n      tag_296\n      tag_143\n      jump\t// in\n    tag_296:\n      0x00\n      swap2\n      dup3\n      mstore\n      0x20\n      swap1\n      swap2\n      keccak256\n      0x05\n      swap1\n      swap2\n      mul\n      add\n        /* \"BCStaking.sol\":6224:6246  user.deposits[i].ended */\n      0x04\n      add\n        /* \"BCStaking.sol\":6224:6253  user.deposits[i].ended = true */\n      dup1\n      sload\n      not(0xff)\n      and\n      swap2\n      iszero\n      iszero\n      swap2\n      swap1\n      swap2\n      or\n      swap1\n      sstore\n        /* \"BCStaking.sol\":5210:6277  if (user.deposits[i].startTime > user.checkpoint) {... */\n    tag_283:\n        /* \"BCStaking.sol\":6345:6426  user.deposits[i].withdrawn.add(... */\n      tag_298\n        /* \"BCStaking.sol\":6398:6407  dividends */\n      dup3\n        /* \"BCStaking.sol\":6345:6349  user */\n      dup6\n        /* \"BCStaking.sol\":6345:6358  user.deposits */\n      0x00\n      add\n        /* \"BCStaking.sol\":6359:6360  i */\n      dup4\n        /* \"BCStaking.sol\":6345:6361  user.deposits[i] */\n      dup2\n      sload\n      dup2\n      lt\n      tag_300\n      jumpi\n      tag_300\n      tag_143\n      jump\t// in\n    tag_300:\n      swap1\n      0x00\n      mstore\n      keccak256(0x00, 0x20)\n      swap1\n      0x05\n      mul\n      add\n        /* \"BCStaking.sol\":6345:6371  user.deposits[i].withdrawn */\n      0x01\n      add\n      sload\n        /* \"BCStaking.sol\":6345:6375  user.deposits[i].withdrawn.add */\n      tag_209\n      swap1\n        /* \"BCStaking.sol\":6345:6426  user.deposits[i].withdrawn.add(... */\n      swap2\n      swap1\n      0xffffffff\n      and\n      jump\t// in\n    tag_298:\n        /* \"BCStaking.sol\":6316:6320  user */\n      dup5\n        /* \"BCStaking.sol\":6316:6329  user.deposits */\n      0x00\n      add\n        /* \"BCStaking.sol\":6330:6331  i */\n      dup3\n        /* \"BCStaking.sol\":6316:6332  user.deposits[i] */\n      dup2\n      sload\n      dup2\n      lt\n      tag_303\n      jumpi\n      tag_303\n      tag_143\n      jump\t// in\n    tag_303:\n      0x00\n      swap2\n      dup3\n      mstore\n      0x20\n      swap1\n      swap2\n      keccak256\n        /* \"BCStaking.sol\":6316:6342  user.deposits[i].withdrawn */\n      0x01\n        /* \"BCStaking.sol\":6316:6332  user.deposits[i] */\n      0x05\n      swap1\n      swap3\n      mul\n      add\n        /* \"BCStaking.sol\":6316:6342  user.deposits[i].withdrawn */\n      add\n        /* \"BCStaking.sol\":6316:6426  user.deposits[i].withdrawn = user.deposits[i].withdrawn.add(... */\n      sstore\n        /* \"BCStaking.sol\":6488:6514  totalAmount.add(dividends) */\n      tag_305\n        /* \"BCStaking.sol\":6488:6499  totalAmount */\n      dup4\n        /* \"BCStaking.sol\":6504:6513  dividends */\n      dup4\n        /* \"BCStaking.sol\":6488:6503  totalAmount.add */\n      tag_209\n        /* \"BCStaking.sol\":6488:6514  totalAmount.add(dividends) */\n      jump\t// in\n    tag_305:\n        /* \"BCStaking.sol\":6474:6514  totalAmount = totalAmount.add(dividends) */\n      swap3\n      pop\n        /* \"BCStaking.sol\":4166:6530  if (user.deposits[i].ended == false) {... */\n    tag_232:\n        /* \"BCStaking.sol\":4146:4149  i++ */\n      dup1\n      tag_306\n      dup2\n      tag_211\n      jump\t// in\n    tag_306:\n      swap2\n      pop\n      pop\n        /* \"BCStaking.sol\":4100:6541  for (uint256 i = 0; i < user.deposits.length; i++) {... */\n      jump(tag_226)\n    tag_227:\n      pop\n        /* \"BCStaking.sol\":6598:6608  msg.sender */\n      caller\n        /* \"BCStaking.sol\":6553:6574  uint256 referralBonus */\n      0x00\n        /* \"BCStaking.sol\":13147:13165  users[userAddress] */\n      swap1\n      dup2\n      mstore\n        /* \"BCStaking.sol\":13147:13152  users */\n      0x07\n        /* \"BCStaking.sol\":13147:13165  users[userAddress] */\n      0x20\n      mstore\n      0x40\n      swap1\n      keccak256\n        /* \"BCStaking.sol\":13147:13171  users[userAddress].bonus */\n      0x02\n      add\n      sload\n        /* \"BCStaking.sol\":6624:6641  referralBonus > 0 */\n      dup1\n      iszero\n        /* \"BCStaking.sol\":6620:6743  if (referralBonus > 0) {... */\n      tag_308\n      jumpi\n        /* \"BCStaking.sol\":6672:6702  totalAmount.add(referralBonus) */\n      tag_309\n        /* \"BCStaking.sol\":6672:6683  totalAmount */\n      dup4\n        /* \"BCStaking.sol\":6688:6701  referralBonus */\n      dup3\n        /* \"BCStaking.sol\":6672:6687  totalAmount.add */\n      tag_209\n        /* \"BCStaking.sol\":6672:6702  totalAmount.add(referralBonus) */\n      jump\t// in\n    tag_309:\n        /* \"BCStaking.sol\":6730:6731  0 */\n      0x00\n        /* \"BCStaking.sol\":6717:6727  user.bonus */\n      0x02\n      dup7\n      add\n        /* \"BCStaking.sol\":6717:6731  user.bonus = 0 */\n      sstore\n        /* \"BCStaking.sol\":6658:6702  totalAmount = totalAmount.add(referralBonus) */\n      swap3\n      pop\n        /* \"BCStaking.sol\":6620:6743  if (referralBonus > 0) {... */\n    tag_308:\n        /* \"BCStaking.sol\":6777:6778  0 */\n      0x00\n        /* \"BCStaking.sol\":6763:6774  totalAmount */\n      dup4\n        /* \"BCStaking.sol\":6763:6778  totalAmount > 0 */\n      gt\n        /* \"BCStaking.sol\":6755:6804  require(totalAmount > 0, \"User has no dividends\") */\n      tag_310\n      jumpi\n      mload(0x40)\n      shl(0xe5, 0x461bcd)\n      dup2\n      mstore\n        /* \"#utility.yul\":2854:2856   */\n      0x20\n        /* \"BCStaking.sol\":6755:6804  require(totalAmount > 0, \"User has no dividends\") */\n      0x04\n      dup3\n      add\n        /* \"#utility.yul\":2836:2857   */\n      mstore\n        /* \"#utility.yul\":2893:2895   */\n      0x15\n        /* \"#utility.yul\":2873:2891   */\n      0x24\n      dup3\n      add\n        /* \"#utility.yul\":2866:2896   */\n      mstore\n      shl(0x58, 0x5573657220686173206e6f206469766964656e6473)\n        /* \"#utility.yul\":2912:2930   */\n      0x44\n      dup3\n      add\n        /* \"#utility.yul\":2905:2956   */\n      mstore\n        /* \"#utility.yul\":2973:2991   */\n      0x64\n      add\n        /* \"BCStaking.sol\":6755:6804  require(totalAmount > 0, \"User has no dividends\") */\n      tag_222\n        /* \"#utility.yul\":2652:2997   */\n      jump\n        /* \"BCStaking.sol\":6755:6804  require(totalAmount > 0, \"User has no dividends\") */\n    tag_310:\n        /* \"BCStaking.sol\":6843:6845  BC */\n      sload(0x01)\n        /* \"BCStaking.sol\":6843:6870  BC.balanceOf(address(this)) */\n      mload(0x40)\n      shl(0xe0, 0x70a08231)\n      dup2\n      mstore\n        /* \"BCStaking.sol\":6864:6868  this */\n      address\n        /* \"BCStaking.sol\":6843:6870  BC.balanceOf(address(this)) */\n      0x04\n      dup3\n      add\n        /* \"#utility.yul\":711:762   */\n      mstore\n        /* \"BCStaking.sol\":6817:6840  uint256 contractBalance */\n      0x00\n      swap2\n      sub(shl(0xa0, 0x01), 0x01)\n        /* \"BCStaking.sol\":6843:6845  BC */\n      and\n      swap1\n        /* \"BCStaking.sol\":6843:6855  BC.balanceOf */\n      0x70a08231\n      swap1\n        /* \"#utility.yul\":684:702   */\n      0x24\n      add\n        /* \"BCStaking.sol\":6843:6870  BC.balanceOf(address(this)) */\n      0x20\n      mload(0x40)\n      dup1\n      dup4\n      sub\n      dup2\n      dup7\n      gas\n      staticcall\n      iszero\n      dup1\n      iszero\n      tag_315\n      jumpi\n      returndatasize\n      0x00\n      dup1\n      returndatacopy\n      revert(0x00, returndatasize)\n    tag_315:\n      pop\n      pop\n      pop\n      pop\n      mload(0x40)\n      returndatasize\n      not(0x1f)\n      0x1f\n      dup3\n      add\n      and\n      dup3\n      add\n      dup1\n      0x40\n      mstore\n      pop\n      dup2\n      add\n      swap1\n      tag_316\n      swap2\n      swap1\n      tag_317\n      jump\t// in\n    tag_316:\n        /* \"BCStaking.sol\":6817:6870  uint256 contractBalance = BC.balanceOf(address(this)) */\n      swap1\n      pop\n        /* \"BCStaking.sol\":6903:6914  totalAmount */\n      dup4\n        /* \"BCStaking.sol\":6885:6900  contractBalance */\n      dup2\n        /* \"BCStaking.sol\":6885:6914  contractBalance < totalAmount */\n      lt\n        /* \"BCStaking.sol\":6881:6972  if (contractBalance < totalAmount) {... */\n      iszero\n      tag_318\n      jumpi\n        /* \"BCStaking.sol\":6945:6960  contractBalance */\n      dup1\n        /* \"BCStaking.sol\":6931:6960  totalAmount = contractBalance */\n      swap4\n      pop\n        /* \"BCStaking.sol\":6881:6972  if (contractBalance < totalAmount) {... */\n    tag_318:\n        /* \"BCStaking.sol\":7002:7017  block.timestamp */\n      timestamp\n        /* \"BCStaking.sol\":6984:6999  user.checkpoint */\n      0x01\n      dup7\n      dup2\n      add\n        /* \"BCStaking.sol\":6984:7017  user.checkpoint = block.timestamp */\n      swap2\n      swap1\n      swap2\n      sstore\n        /* \"BCStaking.sol\":7052:7054  BC */\n      sload\n        /* \"BCStaking.sol\":7052:7088  BC.transfer(msg.sender, totalAmount) */\n      mload(0x40)\n      shl(0xe0, 0xa9059cbb)\n      dup2\n      mstore\n        /* \"BCStaking.sol\":7064:7074  msg.sender */\n      caller\n        /* \"BCStaking.sol\":7052:7088  BC.transfer(msg.sender, totalAmount) */\n      0x04\n      dup3\n      add\n        /* \"#utility.yul\":3365:3416   */\n      mstore\n        /* \"#utility.yul\":3432:3450   */\n      0x24\n      dup2\n      add\n        /* \"#utility.yul\":3425:3459   */\n      dup7\n      swap1\n      mstore\n      sub(shl(0xa0, 0x01), 0x01)\n        /* \"BCStaking.sol\":7052:7054  BC */\n      swap1\n      swap2\n      and\n      swap1\n        /* \"BCStaking.sol\":7052:7063  BC.transfer */\n      0xa9059cbb\n      swap1\n        /* \"#utility.yul\":3338:3356   */\n      0x44\n      add\n        /* \"BCStaking.sol\":7052:7088  BC.transfer(msg.sender, totalAmount) */\n      0x20\n      mload(0x40)\n      dup1\n      dup4\n      sub\n      dup2\n      0x00\n      dup8\n      gas\n      call\n      iszero\n      dup1\n      iszero\n      tag_322\n      jumpi\n      returndatasize\n      0x00\n      dup1\n      returndatacopy\n      revert(0x00, returndatasize)\n    tag_322:\n      pop\n      pop\n      pop\n      pop\n      mload(0x40)\n      returndatasize\n      not(0x1f)\n      0x1f\n      dup3\n      add\n      and\n      dup3\n      add\n      dup1\n      0x40\n      mstore\n      pop\n      dup2\n      add\n      swap1\n      tag_323\n      swap2\n      swap1\n      tag_324\n      jump\t// in\n    tag_323:\n        /* \"BCStaking.sol\":7030:7159  require(... */\n      tag_325\n      jumpi\n      mload(0x40)\n      shl(0xe5, 0x461bcd)\n      dup2\n      mstore\n        /* \"#utility.yul\":3954:3956   */\n      0x20\n        /* \"BCStaking.sol\":7030:7159  require(... */\n      0x04\n      dup3\n      add\n        /* \"#utility.yul\":3936:3957   */\n      mstore\n        /* \"#utility.yul\":3993:3995   */\n      0x2b\n        /* \"#utility.yul\":3973:3991   */\n      0x24\n      dup3\n      add\n        /* \"#utility.yul\":3966:3996   */\n      mstore\n        /* \"#utility.yul\":4032:4066   */\n      0x436c61696d206661696c65642064756520746f206661696c656420616d6f756e\n        /* \"#utility.yul\":4012:4030   */\n      0x44\n      dup3\n      add\n        /* \"#utility.yul\":4005:4067   */\n      mstore\n      shl(0xa9, 0x3a103a3930b739b332b917)\n        /* \"#utility.yul\":4083:4101   */\n      0x64\n      dup3\n      add\n        /* \"#utility.yul\":4076:4117   */\n      mstore\n        /* \"#utility.yul\":4134:4153   */\n      0x84\n      add\n        /* \"BCStaking.sol\":7030:7159  require(... */\n      tag_222\n        /* \"#utility.yul\":3752:4159   */\n      jump\n        /* \"BCStaking.sol\":7030:7159  require(... */\n    tag_325:\n        /* \"BCStaking.sol\":7189:7203  totalWithdrawn */\n      sload(0x04)\n        /* \"BCStaking.sol\":7189:7220  totalWithdrawn.add(totalAmount) */\n      tag_328\n      swap1\n        /* \"BCStaking.sol\":7208:7219  totalAmount */\n      dup6\n        /* \"BCStaking.sol\":7189:7207  totalWithdrawn.add */\n      tag_209\n        /* \"BCStaking.sol\":7189:7220  totalWithdrawn.add(totalAmount) */\n      jump\t// in\n    tag_328:\n        /* \"BCStaking.sol\":7172:7186  totalWithdrawn */\n      0x04\n        /* \"BCStaking.sol\":7172:7220  totalWithdrawn = totalWithdrawn.add(totalAmount) */\n      sstore\n        /* \"BCStaking.sol\":7238:7272  Withdrawn(msg.sender, totalAmount) */\n      mload(0x40)\n        /* \"#utility.yul\":160:185   */\n      dup5\n      dup2\n      mstore\n        /* \"BCStaking.sol\":7248:7258  msg.sender */\n      caller\n      swap1\n        /* \"BCStaking.sol\":7238:7272  Withdrawn(msg.sender, totalAmount) */\n      0x7084f5476618d8e60b11ef0d7d3f06914655adb8793e28ff7f018d4c76d505d5\n      swap1\n        /* \"#utility.yul\":148:150   */\n      0x20\n        /* \"#utility.yul\":133:151   */\n      add\n        /* \"BCStaking.sol\":7238:7272  Withdrawn(msg.sender, totalAmount) */\n      mload(0x40)\n      dup1\n      swap2\n      sub\n      swap1\n      log2\n        /* \"BCStaking.sol\":3979:7280  {... */\n      pop\n      pop\n      pop\n      pop\n      pop\n        /* \"BCStaking.sol\":3955:7280  function claim() public {... */\n      jump\t// out\n        /* \"@openzeppelin/contracts/access/Ownable.sol\":1668:1769  function renounceOwnership() public virtual onlyOwner {... */\n    tag_81:\n        /* \"@openzeppelin/contracts/access/Ownable.sol\":1082:1089  address */\n      0x00\n        /* \"@openzeppelin/contracts/access/Ownable.sol\":1108:1114  _owner */\n      sload\n      sub(shl(0xa0, 0x01), 0x01)\n      and\n        /* \"@openzeppelin/contracts/utils/Context.sol\":719:729  msg.sender */\n      caller\n        /* \"@openzeppelin/contracts/access/Ownable.sol\":1248:1271  owner() == _msgSender() */\n      eq\n        /* \"@openzeppelin/contracts/access/Ownable.sol\":1240:1308  require(owner() == _msgSender(), \"Ownable: caller is not the owner\") */\n      tag_333\n      jumpi\n      mload(0x40)\n      shl(0xe5, 0x461bcd)\n      dup2\n      mstore\n      0x04\n      add\n      tag_222\n      swap1\n      tag_223\n      jump\t// in\n    tag_333:\n        /* \"@openzeppelin/contracts/access/Ownable.sol\":1732:1762  _transferOwnership(address(0)) */\n      tag_336\n        /* \"@openzeppelin/contracts/access/Ownable.sol\":1759:1760  0 */\n      0x00\n        /* \"@openzeppelin/contracts/access/Ownable.sol\":1732:1750  _transferOwnership */\n      tag_337\n        /* \"@openzeppelin/contracts/access/Ownable.sol\":1732:1762  _transferOwnership(address(0)) */\n      jump\t// in\n    tag_336:\n        /* \"@openzeppelin/contracts/access/Ownable.sol\":1668:1769  function renounceOwnership() public virtual onlyOwner {... */\n      jump\t// out\n        /* \"BCStaking.sol\":15209:15566  function getUserTotalDeposits(address userAddress)... */\n    tag_84:\n      sub(shl(0xa0, 0x01), 0x01)\n        /* \"BCStaking.sol\":15353:15371  users[userAddress] */\n      dup2\n      and\n        /* \"BCStaking.sol\":15308:15315  uint256 */\n      0x00\n        /* \"BCStaking.sol\":15353:15371  users[userAddress] */\n      swap1\n      dup2\n      mstore\n        /* \"BCStaking.sol\":15353:15358  users */\n      0x07\n        /* \"BCStaking.sol\":15353:15371  users[userAddress] */\n      0x20\n      mstore\n      0x40\n      dup2\n      keccak256\n        /* \"BCStaking.sol\":15308:15315  uint256 */\n      dup2\n      dup1\n        /* \"BCStaking.sol\":15411:15533  for (uint256 i = 0; i < user.deposits.length; i++) {... */\n    tag_339:\n        /* \"BCStaking.sol\":15435:15455  user.deposits.length */\n      dup3\n      sload\n        /* \"BCStaking.sol\":15431:15455  i < user.deposits.length */\n      dup2\n      lt\n        /* \"BCStaking.sol\":15411:15533  for (uint256 i = 0; i < user.deposits.length; i++) {... */\n      iszero\n      tag_340\n      jumpi\n        /* \"BCStaking.sol\":15486:15521  amount.add(user.deposits[i].amount) */\n      tag_342\n        /* \"BCStaking.sol\":15497:15501  user */\n      dup4\n        /* \"BCStaking.sol\":15497:15510  user.deposits */\n      0x00\n      add\n        /* \"BCStaking.sol\":15511:15512  i */\n      dup3\n        /* \"BCStaking.sol\":15497:15513  user.deposits[i] */\n      dup2\n      sload\n      dup2\n      lt\n      tag_344\n      jumpi\n      tag_344\n      tag_143\n      jump\t// in\n    tag_344:\n      0x00\n      swap2\n      dup3\n      mstore\n      0x20\n      swap1\n      swap2\n      keccak256\n      0x05\n      swap1\n      swap2\n      mul\n      add\n        /* \"BCStaking.sol\":15497:15520  user.deposits[i].amount */\n      sload\n        /* \"BCStaking.sol\":15486:15492  amount */\n      dup4\n      swap1\n        /* \"BCStaking.sol\":15486:15496  amount.add */\n      tag_209\n        /* \"BCStaking.sol\":15486:15521  amount.add(user.deposits[i].amount) */\n      jump\t// in\n    tag_342:\n        /* \"BCStaking.sol\":15477:15521  amount = amount.add(user.deposits[i].amount) */\n      swap2\n      pop\n        /* \"BCStaking.sol\":15457:15460  i++ */\n      dup1\n      tag_346\n      dup2\n      tag_211\n      jump\t// in\n    tag_346:\n      swap2\n      pop\n      pop\n        /* \"BCStaking.sol\":15411:15533  for (uint256 i = 0; i < user.deposits.length; i++) {... */\n      jump(tag_339)\n    tag_340:\n      pop\n        /* \"BCStaking.sol\":15552:15558  amount */\n      swap4\n        /* \"BCStaking.sol\":15209:15566  function getUserTotalDeposits(address userAddress)... */\n      swap3\n      pop\n      pop\n      pop\n      jump\t// out\n        /* \"BCStaking.sol\":13964:14470  function isActive(address userAddress) public view returns (bool) {... */\n    tag_94:\n      sub(shl(0xa0, 0x01), 0x01)\n        /* \"BCStaking.sol\":14061:14079  users[userAddress] */\n      dup2\n      and\n        /* \"BCStaking.sol\":14024:14028  bool */\n      0x00\n        /* \"BCStaking.sol\":14061:14079  users[userAddress] */\n      swap1\n      dup2\n      mstore\n        /* \"BCStaking.sol\":14061:14066  users */\n      0x07\n        /* \"BCStaking.sol\":14061:14079  users[userAddress] */\n      0x20\n      mstore\n      0x40\n      dup2\n      keccak256\n        /* \"BCStaking.sol\":14096:14116  user.deposits.length */\n      dup1\n      sload\n        /* \"BCStaking.sol\":14096:14120  user.deposits.length > 0 */\n      iszero\n        /* \"BCStaking.sol\":14092:14463  if (user.deposits.length > 0) {... */\n      tag_361\n      jumpi\n        /* \"BCStaking.sol\":14242:14262  user.deposits.length */\n      dup1\n      sload\n        /* \"BCStaking.sol\":14228:14292  user.deposits[user.deposits.length - 1].amount.mul(365).div(100) */\n      tag_350\n      swap1\n        /* \"BCStaking.sol\":14288:14291  100 */\n      0x64\n      swap1\n        /* \"BCStaking.sol\":14228:14283  user.deposits[user.deposits.length - 1].amount.mul(365) */\n      tag_162\n      swap1\n        /* \"BCStaking.sol\":14279:14282  365 */\n      0x016d\n      swap1\n        /* \"BCStaking.sol\":14228:14232  user */\n      dup6\n      swap1\n        /* \"BCStaking.sol\":14242:14266  user.deposits.length - 1 */\n      tag_352\n      swap1\n        /* \"BCStaking.sol\":14265:14266  1 */\n      0x01\n      swap1\n        /* \"BCStaking.sol\":14242:14266  user.deposits.length - 1 */\n      tag_353\n      jump\t// in\n    tag_352:\n        /* \"BCStaking.sol\":14228:14267  user.deposits[user.deposits.length - 1] */\n      dup2\n      sload\n      dup2\n      lt\n      tag_164\n      jumpi\n      tag_164\n      tag_143\n      jump\t// in\n        /* \"BCStaking.sol\":14228:14292  user.deposits[user.deposits.length - 1].amount.mul(365).div(100) */\n    tag_350:\n        /* \"BCStaking.sol\":14173:14193  user.deposits.length */\n      dup2\n      sload\n        /* \"BCStaking.sol\":14159:14163  user */\n      dup3\n      swap1\n        /* \"BCStaking.sol\":14173:14197  user.deposits.length - 1 */\n      tag_357\n      swap1\n        /* \"BCStaking.sol\":14196:14197  1 */\n      0x01\n      swap1\n        /* \"BCStaking.sol\":14173:14197  user.deposits.length - 1 */\n      tag_353\n      jump\t// in\n    tag_357:\n        /* \"BCStaking.sol\":14159:14198  user.deposits[user.deposits.length - 1] */\n      dup2\n      sload\n      dup2\n      lt\n      tag_359\n      jumpi\n      tag_359\n      tag_143\n      jump\t// in\n    tag_359:\n      swap1\n      0x00\n      mstore\n      keccak256(0x00, 0x20)\n      swap1\n      0x05\n      mul\n      add\n        /* \"BCStaking.sol\":14159:14208  user.deposits[user.deposits.length - 1].withdrawn */\n      0x01\n      add\n      sload\n        /* \"BCStaking.sol\":14159:14292  user.deposits[user.deposits.length - 1].withdrawn <... */\n      lt\n        /* \"BCStaking.sol\":14137:14407  if (... */\n      iszero\n      tag_361\n      jumpi\n      pop\n        /* \"BCStaking.sol\":14334:14338  true */\n      0x01\n      swap3\n        /* \"BCStaking.sol\":13964:14470  function isActive(address userAddress) public view returns (bool) {... */\n      swap2\n      pop\n      pop\n      jump\t// out\n        /* \"BCStaking.sol\":14137:14407  if (... */\n    tag_361:\n      pop\n        /* \"BCStaking.sol\":14386:14391  false */\n      0x00\n      swap3\n        /* \"BCStaking.sol\":13964:14470  function isActive(address userAddress) public view returns (bool) {... */\n      swap2\n      pop\n      pop\n      jump\t// out\n        /* \"BCStaking.sol\":1747:3947  function stake(address referrer, uint256 amount) public {... */\n    tag_104:\n        /* \"BCStaking.sol\":1846:1863  minimumStakeValue */\n      sload(0x06)\n        /* \"BCStaking.sol\":1836:1842  amount */\n      dup2\n        /* \"BCStaking.sol\":1836:1863  amount >= minimumStakeValue */\n      lt\n      iszero\n        /* \"BCStaking.sol\":1814:1927  require(... */\n      tag_366\n      jumpi\n      mload(0x40)\n      shl(0xe5, 0x461bcd)\n      dup2\n      mstore\n        /* \"#utility.yul\":4496:4498   */\n      0x20\n        /* \"BCStaking.sol\":1814:1927  require(... */\n      0x04\n      dup3\n      add\n        /* \"#utility.yul\":4478:4499   */\n      mstore\n        /* \"#utility.yul\":4535:4537   */\n      0x24\n        /* \"#utility.yul\":4515:4533   */\n      dup1\n      dup3\n      add\n        /* \"#utility.yul\":4508:4538   */\n      mstore\n        /* \"#utility.yul\":4574:4608   */\n      0x416d6f756e742069732062656c6f77206d696e696d756d207374616b65207661\n        /* \"#utility.yul\":4554:4572   */\n      0x44\n      dup3\n      add\n        /* \"#utility.yul\":4547:4609   */\n      mstore\n      shl(0xe1, 0x363ab297)\n        /* \"#utility.yul\":4625:4643   */\n      0x64\n      dup3\n      add\n        /* \"#utility.yul\":4618:4652   */\n      mstore\n        /* \"#utility.yul\":4669:4688   */\n      0x84\n      add\n        /* \"BCStaking.sol\":1814:1927  require(... */\n      tag_222\n        /* \"#utility.yul\":4294:4694   */\n      jump\n        /* \"BCStaking.sol\":1814:1927  require(... */\n    tag_366:\n        /* \"BCStaking.sol\":1962:1964  BC */\n      sload(0x01)\n        /* \"BCStaking.sol\":1962:1986  BC.balanceOf(msg.sender) */\n      mload(0x40)\n      shl(0xe0, 0x70a08231)\n      dup2\n      mstore\n        /* \"BCStaking.sol\":1975:1985  msg.sender */\n      caller\n        /* \"BCStaking.sol\":1962:1986  BC.balanceOf(msg.sender) */\n      0x04\n      dup3\n      add\n        /* \"#utility.yul\":711:762   */\n      mstore\n        /* \"BCStaking.sol\":1990:1996  amount */\n      dup3\n      swap2\n      sub(shl(0xa0, 0x01), 0x01)\n        /* \"BCStaking.sol\":1962:1964  BC */\n      and\n      swap1\n        /* \"BCStaking.sol\":1962:1974  BC.balanceOf */\n      0x70a08231\n      swap1\n        /* \"#utility.yul\":684:702   */\n      0x24\n      add\n        /* \"BCStaking.sol\":1962:1986  BC.balanceOf(msg.sender) */\n      0x20\n      mload(0x40)\n      dup1\n      dup4\n      sub\n      dup2\n      dup7\n      gas\n      staticcall\n      iszero\n      dup1\n      iszero\n      tag_371\n      jumpi\n      returndatasize\n      0x00\n      dup1\n      returndatacopy\n      revert(0x00, returndatasize)\n    tag_371:\n      pop\n      pop\n      pop\n      pop\n      mload(0x40)\n      returndatasize\n      not(0x1f)\n      0x1f\n      dup3\n      add\n      and\n      dup3\n      add\n      dup1\n      0x40\n      mstore\n      pop\n      dup2\n      add\n      swap1\n      tag_372\n      swap2\n      swap1\n      tag_317\n      jump\t// in\n    tag_372:\n        /* \"BCStaking.sol\":1962:1996  BC.balanceOf(msg.sender) >= amount */\n      lt\n      iszero\n        /* \"BCStaking.sol\":1940:2057  require(... */\n      tag_373\n      jumpi\n      mload(0x40)\n      shl(0xe5, 0x461bcd)\n      dup2\n      mstore\n        /* \"#utility.yul\":4901:4903   */\n      0x20\n        /* \"BCStaking.sol\":1940:2057  require(... */\n      0x04\n      dup3\n      add\n        /* \"#utility.yul\":4883:4904   */\n      mstore\n        /* \"#utility.yul\":4940:4942   */\n      0x21\n        /* \"#utility.yul\":4920:4938   */\n      0x24\n      dup3\n      add\n        /* \"#utility.yul\":4913:4943   */\n      mstore\n        /* \"#utility.yul\":4979:5013   */\n      0x4d757374206861766520656e6f7567682062616c616e636520746f207374616b\n        /* \"#utility.yul\":4959:4977   */\n      0x44\n      dup3\n      add\n        /* \"#utility.yul\":4952:5014   */\n      mstore\n      shl(0xf8, 0x65)\n        /* \"#utility.yul\":5030:5048   */\n      0x64\n      dup3\n      add\n        /* \"#utility.yul\":5023:5054   */\n      mstore\n        /* \"#utility.yul\":5071:5090   */\n      0x84\n      add\n        /* \"BCStaking.sol\":1940:2057  require(... */\n      tag_222\n        /* \"#utility.yul\":4699:5096   */\n      jump\n        /* \"BCStaking.sol\":1940:2057  require(... */\n    tag_373:\n        /* \"BCStaking.sol\":2092:2094  BC */\n      sload(0x01)\n        /* \"BCStaking.sol\":2092:2142  BC.transferFrom(msg.sender, address(this), amount) */\n      mload(0x40)\n      shl(0xe0, 0x23b872dd)\n      dup2\n      mstore\n        /* \"BCStaking.sol\":2108:2118  msg.sender */\n      caller\n        /* \"BCStaking.sol\":2092:2142  BC.transferFrom(msg.sender, address(this), amount) */\n      0x04\n      dup3\n      add\n        /* \"#utility.yul\":5341:5375   */\n      mstore\n        /* \"BCStaking.sol\":2128:2132  this */\n      address\n        /* \"#utility.yul\":5391:5409   */\n      0x24\n      dup3\n      add\n        /* \"#utility.yul\":5384:5427   */\n      mstore\n        /* \"#utility.yul\":5443:5461   */\n      0x44\n      dup2\n      add\n        /* \"#utility.yul\":5436:5470   */\n      dup4\n      swap1\n      mstore\n      sub(shl(0xa0, 0x01), 0x01)\n        /* \"BCStaking.sol\":2092:2094  BC */\n      swap1\n      swap2\n      and\n      swap1\n        /* \"BCStaking.sol\":2092:2107  BC.transferFrom */\n      0x23b872dd\n      swap1\n        /* \"#utility.yul\":5276:5294   */\n      0x64\n      add\n        /* \"BCStaking.sol\":2092:2142  BC.transferFrom(msg.sender, address(this), amount) */\n      0x20\n      mload(0x40)\n      dup1\n      dup4\n      sub\n      dup2\n      0x00\n      dup8\n      gas\n      call\n      iszero\n      dup1\n      iszero\n      tag_379\n      jumpi\n      returndatasize\n      0x00\n      dup1\n      returndatacopy\n      revert(0x00, returndatasize)\n    tag_379:\n      pop\n      pop\n      pop\n      pop\n      mload(0x40)\n      returndatasize\n      not(0x1f)\n      0x1f\n      dup3\n      add\n      and\n      dup3\n      add\n      dup1\n      0x40\n      mstore\n      pop\n      dup2\n      add\n      swap1\n      tag_380\n      swap2\n      swap1\n      tag_324\n      jump\t// in\n    tag_380:\n        /* \"BCStaking.sol\":2070:2213  require(... */\n      tag_381\n      jumpi\n      mload(0x40)\n      shl(0xe5, 0x461bcd)\n      dup2\n      mstore\n        /* \"#utility.yul\":5683:5685   */\n      0x20\n        /* \"BCStaking.sol\":2070:2213  require(... */\n      0x04\n      dup3\n      add\n        /* \"#utility.yul\":5665:5686   */\n      mstore\n        /* \"#utility.yul\":5722:5724   */\n      0x2b\n        /* \"#utility.yul\":5702:5720   */\n      0x24\n      dup3\n      add\n        /* \"#utility.yul\":5695:5725   */\n      mstore\n        /* \"#utility.yul\":5761:5795   */\n      0x5374616b65206661696c65642064756520746f206661696c656420616d6f756e\n        /* \"#utility.yul\":5741:5759   */\n      0x44\n      dup3\n      add\n        /* \"#utility.yul\":5734:5796   */\n      mstore\n      shl(0xa9, 0x3a103a3930b739b332b917)\n        /* \"#utility.yul\":5812:5830   */\n      0x64\n      dup3\n      add\n        /* \"#utility.yul\":5805:5846   */\n      mstore\n        /* \"#utility.yul\":5863:5882   */\n      0x84\n      add\n        /* \"BCStaking.sol\":2070:2213  require(... */\n      tag_222\n        /* \"#utility.yul\":5481:5888   */\n      jump\n        /* \"BCStaking.sol\":2070:2213  require(... */\n    tag_381:\n        /* \"BCStaking.sol\":2252:2262  msg.sender */\n      caller\n        /* \"BCStaking.sol\":2226:2243  User storage user */\n      0x00\n        /* \"BCStaking.sol\":2246:2263  users[msg.sender] */\n      swap1\n      dup2\n      mstore\n        /* \"BCStaking.sol\":2246:2251  users */\n      0x07\n        /* \"BCStaking.sol\":2246:2263  users[msg.sender] */\n      0x20\n      mstore\n      0x40\n      dup1\n      dup3\n      keccak256\n      sub(shl(0xa0, 0x01), 0x01)\n        /* \"BCStaking.sol\":2341:2356  users[referrer] */\n      dup6\n      and\n      dup4\n      mstore\n      swap2\n      keccak256\n        /* \"BCStaking.sol\":2341:2372  users[referrer].deposits.length */\n      sload\n        /* \"BCStaking.sol\":2341:2376  users[referrer].deposits.length > 0 */\n      iszero\n      dup1\n      iszero\n      swap1\n        /* \"BCStaking.sol\":2341:2402  users[referrer].deposits.length > 0 && referrer != msg.sender */\n      tag_384\n      jumpi\n      pop\n      sub(shl(0xa0, 0x01), 0x01)\n        /* \"BCStaking.sol\":2380:2402  referrer != msg.sender */\n      dup4\n      and\n        /* \"BCStaking.sol\":2392:2402  msg.sender */\n      caller\n        /* \"BCStaking.sol\":2380:2402  referrer != msg.sender */\n      eq\n      iszero\n        /* \"BCStaking.sol\":2341:2402  users[referrer].deposits.length > 0 && referrer != msg.sender */\n    tag_384:\n        /* \"BCStaking.sol\":2276:2465  if (... */\n      iszero\n      tag_385\n      jumpi\n        /* \"BCStaking.sol\":2429:2442  user.referrer */\n      0x04\n      dup2\n      add\n        /* \"BCStaking.sol\":2429:2453  user.referrer = referrer */\n      dup1\n      sload\n      not(sub(shl(0xa0, 0x01), 0x01))\n      and\n      sub(shl(0xa0, 0x01), 0x01)\n      dup6\n      and\n      or\n      swap1\n      sstore\n        /* \"BCStaking.sol\":2276:2465  if (... */\n    tag_385:\n        /* \"BCStaking.sol\":2481:2494  user.referrer */\n      0x04\n      dup2\n      add\n      sload\n      sub(shl(0xa0, 0x01), 0x01)\n      and\n        /* \"BCStaking.sol\":2481:2508  user.referrer != address(0) */\n      iszero\n        /* \"BCStaking.sol\":2477:2887  if (user.referrer != address(0)) {... */\n      tag_386\n      jumpi\n        /* \"BCStaking.sol\":2542:2555  user.referrer */\n      0x04\n      dup2\n      add\n      sload\n      sub(shl(0xa0, 0x01), 0x01)\n      and\n        /* \"BCStaking.sol\":2576:2596  upline != address(0) */\n      dup1\n      iszero\n        /* \"BCStaking.sol\":2572:2876  if (upline != address(0)) {... */\n      tag_387\n      jumpi\n        /* \"BCStaking.sol\":2617:2632  uint256 _amount */\n      0x00\n        /* \"BCStaking.sol\":2635:2726  amount.mul(REFERRAL_PERCENTS).div(... */\n      tag_388\n        /* \"BCStaking.sol\":365:369  1000 */\n      0x03e8\n        /* \"BCStaking.sol\":2635:2664  amount.mul(REFERRAL_PERCENTS) */\n      tag_162\n        /* \"BCStaking.sol\":2635:2641  amount */\n      dup7\n        /* \"BCStaking.sol\":470:473  120 */\n      0x78\n        /* \"BCStaking.sol\":2635:2645  amount.mul */\n      tag_166\n        /* \"BCStaking.sol\":2635:2664  amount.mul(REFERRAL_PERCENTS) */\n      jump\t// in\n        /* \"BCStaking.sol\":2635:2726  amount.mul(REFERRAL_PERCENTS).div(... */\n    tag_388:\n      sub(shl(0xa0, 0x01), 0x01)\n        /* \"BCStaking.sol\":2767:2780  users[upline] */\n      dup4\n      and\n      0x00\n      swap1\n      dup2\n      mstore\n        /* \"BCStaking.sol\":2767:2772  users */\n      0x07\n        /* \"BCStaking.sol\":2767:2780  users[upline] */\n      0x20\n      mstore\n      0x40\n      swap1\n      keccak256\n        /* \"BCStaking.sol\":2767:2786  users[upline].bonus */\n      0x02\n      add\n      sload\n        /* \"BCStaking.sol\":2617:2726  uint256 _amount = amount.mul(REFERRAL_PERCENTS).div(... */\n      swap1\n      swap2\n      pop\n        /* \"BCStaking.sol\":2767:2799  users[upline].bonus.add(_amount) */\n      tag_390\n      swap1\n        /* \"BCStaking.sol\":2617:2726  uint256 _amount = amount.mul(REFERRAL_PERCENTS).div(... */\n      dup3\n        /* \"BCStaking.sol\":2767:2790  users[upline].bonus.add */\n      tag_209\n        /* \"BCStaking.sol\":2767:2799  users[upline].bonus.add(_amount) */\n      jump\t// in\n    tag_390:\n      sub(shl(0xa0, 0x01), 0x01)\n        /* \"BCStaking.sol\":2745:2758  users[upline] */\n      dup4\n      and\n      0x00\n      dup2\n      dup2\n      mstore\n        /* \"BCStaking.sol\":2745:2750  users */\n      0x07\n        /* \"BCStaking.sol\":2745:2758  users[upline] */\n      0x20\n      swap1\n      dup2\n      mstore\n      0x40\n      swap2\n      dup3\n      swap1\n      keccak256\n        /* \"BCStaking.sol\":2745:2764  users[upline].bonus */\n      0x02\n      add\n        /* \"BCStaking.sol\":2745:2799  users[upline].bonus = users[upline].bonus.add(_amount) */\n      swap4\n      swap1\n      swap4\n      sstore\n        /* \"BCStaking.sol\":2823:2860  RefBonus(upline, msg.sender, _amount) */\n      mload\n        /* \"#utility.yul\":160:185   */\n      dup4\n      dup2\n      mstore\n        /* \"BCStaking.sol\":2840:2850  msg.sender */\n      caller\n      swap3\n        /* \"BCStaking.sol\":2823:2860  RefBonus(upline, msg.sender, _amount) */\n      0x328838ddfc48ad5ae5531b1ad95dfb22b42ff1866853e474375ffef2c63d8e50\n      swap2\n        /* \"#utility.yul\":133:151   */\n      add\n        /* \"BCStaking.sol\":2823:2860  RefBonus(upline, msg.sender, _amount) */\n      mload(0x40)\n      dup1\n      swap2\n      sub\n      swap1\n      log3\n        /* \"BCStaking.sol\":2598:2876  {... */\n      pop\n        /* \"BCStaking.sol\":2572:2876  if (upline != address(0)) {... */\n    tag_387:\n        /* \"BCStaking.sol\":2510:2887  {... */\n      pop\n        /* \"BCStaking.sol\":2477:2887  if (user.referrer != address(0)) {... */\n    tag_386:\n        /* \"BCStaking.sol\":2903:2923  user.deposits.length */\n      dup1\n      sload\n        /* \"BCStaking.sol\":2899:3073  if (user.deposits.length == 0) {... */\n      tag_392\n      jumpi\n        /* \"BCStaking.sol\":2963:2978  block.timestamp */\n      timestamp\n        /* \"BCStaking.sol\":2945:2960  user.checkpoint */\n      0x01\n      dup1\n      dup4\n      add\n        /* \"BCStaking.sol\":2945:2978  user.checkpoint = block.timestamp */\n      swap2\n      swap1\n      swap2\n      sstore\n        /* \"BCStaking.sol\":3006:3016  totalUsers */\n      sload(0x02)\n        /* \"BCStaking.sol\":3006:3023  totalUsers.add(1) */\n      tag_393\n      swap2\n        /* \"BCStaking.sol\":3006:3020  totalUsers.add */\n      tag_209\n        /* \"BCStaking.sol\":3006:3023  totalUsers.add(1) */\n      jump\t// in\n    tag_393:\n        /* \"BCStaking.sol\":2993:3003  totalUsers */\n      0x02\n        /* \"BCStaking.sol\":2993:3023  totalUsers = totalUsers.add(1) */\n      sstore\n        /* \"BCStaking.sol\":3043:3061  Newbie(msg.sender) */\n      mload(0x40)\n        /* \"BCStaking.sol\":3050:3060  msg.sender */\n      caller\n        /* \"#utility.yul\":711:762   */\n      dup2\n      mstore\n        /* \"BCStaking.sol\":3043:3061  Newbie(msg.sender) */\n      0x9fd565cd14c3c391679eb0cad12a14dcf7534e9d3462bcb9b67a098a9bbbc24a\n      swap1\n        /* \"#utility.yul\":699:701   */\n      0x20\n        /* \"#utility.yul\":684:702   */\n      add\n        /* \"BCStaking.sol\":3043:3061  Newbie(msg.sender) */\n      mload(0x40)\n      dup1\n      swap2\n      sub\n      swap1\n      log1\n        /* \"BCStaking.sol\":2899:3073  if (user.deposits.length == 0) {... */\n    tag_392:\n        /* \"BCStaking.sol\":3089:3102  user.referrer */\n      0x04\n      dup2\n      add\n      sload\n      sub(shl(0xa0, 0x01), 0x01)\n      and\n        /* \"BCStaking.sol\":3089:3116  user.referrer != address(0) */\n      iszero\n        /* \"BCStaking.sol\":3085:3787  if (user.referrer != address(0)) {... */\n      tag_395\n      jumpi\n        /* \"BCStaking.sol\":3170:3475  Deposit(... */\n      0x40\n      dup1\n      mload\n      0xa0\n      dup2\n      add\n      swap1\n      swap2\n      mstore\n        /* \"BCStaking.sol\":3133:3137  user */\n      dup2\n      swap1\n        /* \"BCStaking.sol\":3170:3475  Deposit(... */\n      dup1\n        /* \"BCStaking.sol\":3200:3311  amount.sub(... */\n      tag_396\n        /* \"BCStaking.sol\":3237:3288  amount.mul(REFERRAL_PERCENTS).div(PERCENTS_DIVIDER) */\n      tag_397\n        /* \"BCStaking.sol\":365:369  1000 */\n      0x03e8\n        /* \"BCStaking.sol\":3237:3266  amount.mul(REFERRAL_PERCENTS) */\n      tag_162\n        /* \"BCStaking.sol\":3237:3243  amount */\n      dup9\n        /* \"BCStaking.sol\":470:473  120 */\n      0x78\n        /* \"BCStaking.sol\":3237:3247  amount.mul */\n      tag_166\n        /* \"BCStaking.sol\":3237:3266  amount.mul(REFERRAL_PERCENTS) */\n      jump\t// in\n        /* \"BCStaking.sol\":3237:3288  amount.mul(REFERRAL_PERCENTS).div(PERCENTS_DIVIDER) */\n    tag_397:\n        /* \"BCStaking.sol\":3200:3206  amount */\n      dup7\n      swap1\n        /* \"BCStaking.sol\":3200:3210  amount.sub */\n      tag_160\n        /* \"BCStaking.sol\":3200:3311  amount.sub(... */\n      jump\t// in\n    tag_396:\n        /* \"BCStaking.sol\":3170:3475  Deposit(... */\n      dup2\n      mstore\n      0x20\n      add\n        /* \"BCStaking.sol\":3334:3335  0 */\n      0x00\n        /* \"BCStaking.sol\":3170:3475  Deposit(... */\n      dup2\n      mstore\n      0x20\n      add\n        /* \"BCStaking.sol\":3358:3373  block.timestamp */\n      timestamp\n        /* \"BCStaking.sol\":3170:3475  Deposit(... */\n      dup2\n      mstore\n      0x20\n      add\n        /* \"BCStaking.sol\":570:578  180 days */\n      0xed4e00\n        /* \"BCStaking.sol\":3396:3411  block.timestamp */\n      timestamp\n        /* \"BCStaking.sol\":3396:3428  block.timestamp + STAKING_PERIOD */\n      tag_399\n      swap2\n      swap1\n      tag_400\n      jump\t// in\n    tag_399:\n        /* \"BCStaking.sol\":3170:3475  Deposit(... */\n      dup2\n      mstore\n        /* \"BCStaking.sol\":3451:3456  false */\n      0x00\n        /* \"BCStaking.sol\":3170:3475  Deposit(... */\n      0x20\n      swap2\n      dup3\n      add\n      dup2\n      swap1\n      mstore\n        /* \"BCStaking.sol\":3133:3490  user.deposits.push(... */\n      dup4\n      sload\n        /* \"BCStaking.sol\":3170:3475  Deposit(... */\n      0x01\n        /* \"BCStaking.sol\":3133:3490  user.deposits.push(... */\n      dup1\n      dup3\n      add\n      dup7\n      sstore\n      swap5\n      dup3\n      mstore\n      swap1\n      dup3\n      swap1\n      keccak256\n      dup4\n      mload\n      0x05\n      swap1\n      swap3\n      mul\n      add\n      swap1\n      dup2\n      sstore\n      swap1\n      dup3\n      add\n      mload\n      swap3\n      dup2\n      add\n      swap3\n      swap1\n      swap3\n      sstore\n      0x40\n      dup2\n      add\n      mload\n      0x02\n      dup4\n      add\n      sstore\n      0x60\n      dup2\n      add\n      mload\n      0x03\n      dup4\n      add\n      sstore\n      0x80\n      add\n      mload\n      0x04\n      swap1\n      swap2\n      add\n      dup1\n      sload\n      not(0xff)\n      and\n      swap2\n      iszero\n      iszero\n      swap2\n      swap1\n      swap2\n      or\n      swap1\n      sstore\n        /* \"BCStaking.sol\":3085:3787  if (user.referrer != address(0)) {... */\n      jump(tag_402)\n    tag_395:\n        /* \"BCStaking.sol\":3523:3527  user */\n      dup1\n        /* \"BCStaking.sol\":3523:3536  user.deposits */\n      0x00\n      add\n        /* \"BCStaking.sol\":3560:3760  Deposit(... */\n      mload(0x40)\n      dup1\n      0xa0\n      add\n      0x40\n      mstore\n      dup1\n        /* \"BCStaking.sol\":3590:3596  amount */\n      dup5\n        /* \"BCStaking.sol\":3560:3760  Deposit(... */\n      dup2\n      mstore\n      0x20\n      add\n        /* \"BCStaking.sol\":3619:3620  0 */\n      0x00\n        /* \"BCStaking.sol\":3560:3760  Deposit(... */\n      dup2\n      mstore\n      0x20\n      add\n        /* \"BCStaking.sol\":3643:3658  block.timestamp */\n      timestamp\n        /* \"BCStaking.sol\":3560:3760  Deposit(... */\n      dup2\n      mstore\n      0x20\n      add\n        /* \"BCStaking.sol\":570:578  180 days */\n      0xed4e00\n        /* \"BCStaking.sol\":3681:3696  block.timestamp */\n      timestamp\n        /* \"BCStaking.sol\":3681:3713  block.timestamp + STAKING_PERIOD */\n      tag_403\n      swap2\n      swap1\n      tag_400\n      jump\t// in\n    tag_403:\n        /* \"BCStaking.sol\":3560:3760  Deposit(... */\n      dup2\n      mstore\n        /* \"BCStaking.sol\":3736:3741  false */\n      0x00\n        /* \"BCStaking.sol\":3560:3760  Deposit(... */\n      0x20\n      swap2\n      dup3\n      add\n      dup2\n      swap1\n      mstore\n        /* \"BCStaking.sol\":3523:3775  user.deposits.push(... */\n      dup4\n      sload\n        /* \"BCStaking.sol\":3560:3760  Deposit(... */\n      0x01\n        /* \"BCStaking.sol\":3523:3775  user.deposits.push(... */\n      dup1\n      dup3\n      add\n      dup7\n      sstore\n      swap5\n      dup3\n      mstore\n      swap1\n      dup3\n      swap1\n      keccak256\n      dup4\n      mload\n      0x05\n      swap1\n      swap3\n      mul\n      add\n      swap1\n      dup2\n      sstore\n      swap1\n      dup3\n      add\n      mload\n      swap3\n      dup2\n      add\n      swap3\n      swap1\n      swap3\n      sstore\n      0x40\n      dup2\n      add\n      mload\n      0x02\n      dup4\n      add\n      sstore\n      0x60\n      dup2\n      add\n      mload\n      0x03\n      dup4\n      add\n      sstore\n      0x80\n      add\n      mload\n      0x04\n      swap1\n      swap2\n      add\n      dup1\n      sload\n      not(0xff)\n      and\n      swap2\n      iszero\n      iszero\n      swap2\n      swap1\n      swap2\n      or\n      swap1\n      sstore\n        /* \"BCStaking.sol\":3085:3787  if (user.referrer != address(0)) {... */\n    tag_402:\n        /* \"BCStaking.sol\":3813:3824  totalStaked */\n      sload(0x03)\n        /* \"BCStaking.sol\":3813:3836  totalStaked.add(amount) */\n      tag_405\n      swap1\n        /* \"BCStaking.sol\":3829:3835  amount */\n      dup4\n        /* \"BCStaking.sol\":3813:3828  totalStaked.add */\n      tag_209\n        /* \"BCStaking.sol\":3813:3836  totalStaked.add(amount) */\n      jump\t// in\n    tag_405:\n        /* \"BCStaking.sol\":3799:3810  totalStaked */\n      0x03\n        /* \"BCStaking.sol\":3799:3836  totalStaked = totalStaked.add(amount) */\n      sstore\n        /* \"BCStaking.sol\":3867:3884  totalDepositCount */\n      sload(0x05)\n        /* \"BCStaking.sol\":3867:3891  totalDepositCount.add(1) */\n      tag_406\n      swap1\n        /* \"BCStaking.sol\":3889:3890  1 */\n      0x01\n        /* \"BCStaking.sol\":3867:3888  totalDepositCount.add */\n      tag_209\n        /* \"BCStaking.sol\":3867:3891  totalDepositCount.add(1) */\n      jump\t// in\n    tag_406:\n        /* \"BCStaking.sol\":3847:3864  totalDepositCount */\n      0x05\n        /* \"BCStaking.sol\":3847:3891  totalDepositCount = totalDepositCount.add(1) */\n      sstore\n        /* \"BCStaking.sol\":3909:3939  NewDeposit(msg.sender, amount) */\n      mload(0x40)\n        /* \"#utility.yul\":160:185   */\n      dup3\n      dup2\n      mstore\n        /* \"BCStaking.sol\":3920:3930  msg.sender */\n      caller\n      swap1\n        /* \"BCStaking.sol\":3909:3939  NewDeposit(msg.sender, amount) */\n      0x2cb77763bc1e8490c1a904905c4d74b4269919aca114464f4bb4d911e60de364\n      swap1\n        /* \"#utility.yul\":148:150   */\n      0x20\n        /* \"#utility.yul\":133:151   */\n      add\n        /* \"BCStaking.sol\":3909:3939  NewDeposit(msg.sender, amount) */\n      mload(0x40)\n      dup1\n      swap2\n      sub\n      swap1\n      log2\n        /* \"BCStaking.sol\":1803:3947  {... */\n      pop\n        /* \"BCStaking.sol\":1747:3947  function stake(address referrer, uint256 amount) public {... */\n      pop\n      pop\n      jump\t// out\n        /* \"BCStaking.sol\":14478:15017  function getUserDepositInfo(address userAddress, uint256 index)... */\n    tag_110:\n      sub(shl(0xa0, 0x01), 0x01)\n        /* \"BCStaking.sol\":14744:14762  users[userAddress] */\n      dup3\n      and\n        /* \"BCStaking.sol\":14604:14611  uint256 */\n      0x00\n        /* \"BCStaking.sol\":14744:14762  users[userAddress] */\n      swap1\n      dup2\n      mstore\n        /* \"BCStaking.sol\":14744:14749  users */\n      0x07\n        /* \"BCStaking.sol\":14744:14762  users[userAddress] */\n      0x20\n      mstore\n      0x40\n      dup2\n      keccak256\n        /* \"BCStaking.sol\":14797:14817  user.deposits[index] */\n      dup1\n      sload\n        /* \"BCStaking.sol\":14604:14611  uint256 */\n      dup3\n      swap2\n      dup3\n      swap2\n      dup3\n      swap2\n      dup3\n      swap2\n        /* \"BCStaking.sol\":14744:14762  users[userAddress] */\n      dup2\n      swap1\n        /* \"BCStaking.sol\":14811:14816  index */\n      dup9\n      swap1\n        /* \"BCStaking.sol\":14797:14817  user.deposits[index] */\n      dup2\n      lt\n      tag_410\n      jumpi\n      tag_410\n      tag_143\n      jump\t// in\n    tag_410:\n      swap1\n      0x00\n      mstore\n      keccak256(0x00, 0x20)\n      swap1\n      0x05\n      mul\n      add\n        /* \"BCStaking.sol\":14797:14824  user.deposits[index].amount */\n      0x00\n      add\n      sload\n        /* \"BCStaking.sol\":14839:14843  user */\n      dup2\n        /* \"BCStaking.sol\":14839:14852  user.deposits */\n      0x00\n      add\n        /* \"BCStaking.sol\":14853:14858  index */\n      dup9\n        /* \"BCStaking.sol\":14839:14859  user.deposits[index] */\n      dup2\n      sload\n      dup2\n      lt\n      tag_413\n      jumpi\n      tag_413\n      tag_143\n      jump\t// in\n    tag_413:\n      swap1\n      0x00\n      mstore\n      keccak256(0x00, 0x20)\n      swap1\n      0x05\n      mul\n      add\n        /* \"BCStaking.sol\":14839:14869  user.deposits[index].withdrawn */\n      0x01\n      add\n      sload\n        /* \"BCStaking.sol\":14884:14888  user */\n      dup3\n        /* \"BCStaking.sol\":14884:14897  user.deposits */\n      0x00\n      add\n        /* \"BCStaking.sol\":14898:14903  index */\n      dup10\n        /* \"BCStaking.sol\":14884:14904  user.deposits[index] */\n      dup2\n      sload\n      dup2\n      lt\n      tag_416\n      jumpi\n      tag_416\n      tag_143\n      jump\t// in\n    tag_416:\n      swap1\n      0x00\n      mstore\n      keccak256(0x00, 0x20)\n      swap1\n      0x05\n      mul\n      add\n        /* \"BCStaking.sol\":14884:14914  user.deposits[index].startTime */\n      0x02\n      add\n      sload\n        /* \"BCStaking.sol\":14929:14933  user */\n      dup4\n        /* \"BCStaking.sol\":14929:14942  user.deposits */\n      0x00\n      add\n        /* \"BCStaking.sol\":14943:14948  index */\n      dup11\n        /* \"BCStaking.sol\":14929:14949  user.deposits[index] */\n      dup2\n      sload\n      dup2\n      lt\n      tag_419\n      jumpi\n      tag_419\n      tag_143\n      jump\t// in\n    tag_419:\n      swap1\n      0x00\n      mstore\n      keccak256(0x00, 0x20)\n      swap1\n      0x05\n      mul\n      add\n        /* \"BCStaking.sol\":14929:14957  user.deposits[index].endTime */\n      0x03\n      add\n      sload\n        /* \"BCStaking.sol\":14972:14976  user */\n      dup5\n        /* \"BCStaking.sol\":14972:14985  user.deposits */\n      0x00\n      add\n        /* \"BCStaking.sol\":14986:14991  index */\n      dup12\n        /* \"BCStaking.sol\":14972:14992  user.deposits[index] */\n      dup2\n      sload\n      dup2\n      lt\n      tag_422\n      jumpi\n      tag_422\n      tag_143\n      jump\t// in\n    tag_422:\n      0x00\n      swap2\n      dup3\n      mstore\n      0x20\n      swap1\n      swap2\n      keccak256\n      0x05\n      swap1\n      swap2\n      mul\n      add\n        /* \"BCStaking.sol\":14972:14998  user.deposits[index].ended */\n      0x04\n      add\n      sload\n        /* \"BCStaking.sol\":14775:15009  return (... */\n      swap4\n      swap13\n      swap3\n      swap12\n      pop\n      swap1\n      swap10\n      pop\n      swap8\n      pop\n        /* \"BCStaking.sol\":14972:14998  user.deposits[index].ended */\n      0xff\n      swap1\n      swap2\n      and\n      swap6\n      pop\n        /* \"BCStaking.sol\":14478:15017  function getUserDepositInfo(address userAddress, uint256 index)... */\n      swap4\n      pop\n      pop\n      pop\n      pop\n      jump\t// out\n        /* \"@openzeppelin/contracts/access/Ownable.sol\":1918:2116  function transferOwnership(address newOwner) public virtual onlyOwner {... */\n    tag_130:\n        /* \"@openzeppelin/contracts/access/Ownable.sol\":1082:1089  address */\n      0x00\n        /* \"@openzeppelin/contracts/access/Ownable.sol\":1108:1114  _owner */\n      sload\n      sub(shl(0xa0, 0x01), 0x01)\n      and\n        /* \"@openzeppelin/contracts/utils/Context.sol\":719:729  msg.sender */\n      caller\n        /* \"@openzeppelin/contracts/access/Ownable.sol\":1248:1271  owner() == _msgSender() */\n      eq\n        /* \"@openzeppelin/contracts/access/Ownable.sol\":1240:1308  require(owner() == _msgSender(), \"Ownable: caller is not the owner\") */\n      tag_430\n      jumpi\n      mload(0x40)\n      shl(0xe5, 0x461bcd)\n      dup2\n      mstore\n      0x04\n      add\n      tag_222\n      swap1\n      tag_223\n      jump\t// in\n    tag_430:\n      sub(shl(0xa0, 0x01), 0x01)\n        /* \"@openzeppelin/contracts/access/Ownable.sol\":2006:2028  newOwner != address(0) */\n      dup2\n      and\n        /* \"@openzeppelin/contracts/access/Ownable.sol\":1998:2071  require(newOwner != address(0), \"Ownable: new owner is the zero address\") */\n      tag_433\n      jumpi\n      mload(0x40)\n      shl(0xe5, 0x461bcd)\n      dup2\n      mstore\n        /* \"#utility.yul\":6228:6230   */\n      0x20\n        /* \"@openzeppelin/contracts/access/Ownable.sol\":1998:2071  require(newOwner != address(0), \"Ownable: new owner is the zero address\") */\n      0x04\n      dup3\n      add\n        /* \"#utility.yul\":6210:6231   */\n      mstore\n        /* \"#utility.yul\":6267:6269   */\n      0x26\n        /* \"#utility.yul\":6247:6265   */\n      0x24\n      dup3\n      add\n        /* \"#utility.yul\":6240:6270   */\n      mstore\n        /* \"#utility.yul\":6306:6340   */\n      0x4f776e61626c653a206e6577206f776e657220697320746865207a65726f2061\n        /* \"#utility.yul\":6286:6304   */\n      0x44\n      dup3\n      add\n        /* \"#utility.yul\":6279:6341   */\n      mstore\n      shl(0xd0, 0x646472657373)\n        /* \"#utility.yul\":6357:6375   */\n      0x64\n      dup3\n      add\n        /* \"#utility.yul\":6350:6386   */\n      mstore\n        /* \"#utility.yul\":6403:6422   */\n      0x84\n      add\n        /* \"@openzeppelin/contracts/access/Ownable.sol\":1998:2071  require(newOwner != address(0), \"Ownable: new owner is the zero address\") */\n      tag_222\n        /* \"#utility.yul\":6026:6428   */\n      jump\n        /* \"@openzeppelin/contracts/access/Ownable.sol\":1998:2071  require(newOwner != address(0), \"Ownable: new owner is the zero address\") */\n    tag_433:\n        /* \"@openzeppelin/contracts/access/Ownable.sol\":2081:2109  _transferOwnership(newOwner) */\n      tag_436\n        /* \"@openzeppelin/contracts/access/Ownable.sol\":2100:2108  newOwner */\n      dup2\n        /* \"@openzeppelin/contracts/access/Ownable.sol\":2081:2099  _transferOwnership */\n      tag_337\n        /* \"@openzeppelin/contracts/access/Ownable.sol\":2081:2109  _transferOwnership(newOwner) */\n      jump\t// in\n    tag_436:\n        /* \"@openzeppelin/contracts/access/Ownable.sol\":1918:2116  function transferOwnership(address newOwner) public virtual onlyOwner {... */\n      pop\n      jump\t// out\n        /* \"BCStaking.sol\":7288:10550  function compound() public onlyhodler {... */\n    tag_132:\n        /* \"BCStaking.sol\":1248:1249  0 */\n      0x00\n        /* \"BCStaking.sol\":1217:1245  getUserDividends(msg.sender) */\n      tag_438\n        /* \"BCStaking.sol\":1234:1244  msg.sender */\n      caller\n        /* \"BCStaking.sol\":1217:1233  getUserDividends */\n      tag_48\n        /* \"BCStaking.sol\":1217:1245  getUserDividends(msg.sender) */\n      jump\t// in\n    tag_438:\n        /* \"BCStaking.sol\":1217:1249  getUserDividends(msg.sender) > 0 */\n      gt\n        /* \"BCStaking.sol\":1209:1264  require(getUserDividends(msg.sender) > 0, \"Not Holder\") */\n      tag_439\n      jumpi\n      mload(0x40)\n      shl(0xe5, 0x461bcd)\n      dup2\n      mstore\n        /* \"#utility.yul\":6635:6637   */\n      0x20\n        /* \"BCStaking.sol\":1209:1264  require(getUserDividends(msg.sender) > 0, \"Not Holder\") */\n      0x04\n      dup3\n      add\n        /* \"#utility.yul\":6617:6638   */\n      mstore\n        /* \"#utility.yul\":6674:6676   */\n      0x0a\n        /* \"#utility.yul\":6654:6672   */\n      0x24\n      dup3\n      add\n        /* \"#utility.yul\":6647:6677   */\n      mstore\n      shl(0xb1, 0x2737ba102437b63232b9)\n        /* \"#utility.yul\":6693:6711   */\n      0x44\n      dup3\n      add\n        /* \"#utility.yul\":6686:6726   */\n      mstore\n        /* \"#utility.yul\":6743:6761   */\n      0x64\n      add\n        /* \"BCStaking.sol\":1209:1264  require(getUserDividends(msg.sender) > 0, \"Not Holder\") */\n      tag_222\n        /* \"#utility.yul\":6433:6767   */\n      jump\n        /* \"BCStaking.sol\":1209:1264  require(getUserDividends(msg.sender) > 0, \"Not Holder\") */\n    tag_439:\n        /* \"BCStaking.sol\":7363:7373  msg.sender */\n      caller\n        /* \"BCStaking.sol\":7337:7354  User storage user */\n      0x00\n        /* \"BCStaking.sol\":7357:7374  users[msg.sender] */\n      dup2\n      dup2\n      mstore\n        /* \"BCStaking.sol\":7357:7362  users */\n      0x07\n        /* \"BCStaking.sol\":7357:7374  users[msg.sender] */\n      0x20\n      mstore\n      0x40\n      dup2\n      keccak256\n      swap2\n        /* \"BCStaking.sol\":7434:7462  getUserDividends(msg.sender) */\n      tag_443\n      swap1\n        /* \"BCStaking.sol\":7434:7450  getUserDividends */\n      tag_48\n        /* \"BCStaking.sol\":7434:7462  getUserDividends(msg.sender) */\n      jump\t// in\n    tag_443:\n        /* \"BCStaking.sol\":7413:7462  uint256 _dividends = getUserDividends(msg.sender) */\n      swap1\n      pop\n        /* \"BCStaking.sol\":7514:7533  uint256 totalAmount */\n      0x00\n        /* \"BCStaking.sol\":7544:7561  uint256 dividends */\n      dup1\n        /* \"BCStaking.sol\":7574:7578  user */\n      dup4\n        /* \"BCStaking.sol\":7574:7587  user.deposits */\n      0x00\n      add\n        /* \"BCStaking.sol\":7607:7787  Deposit(... */\n      mload(0x40)\n      dup1\n      0xa0\n      add\n      0x40\n      mstore\n      dup1\n        /* \"BCStaking.sol\":7633:7643  _dividends */\n      dup6\n        /* \"BCStaking.sol\":7607:7787  Deposit(... */\n      dup2\n      mstore\n      0x20\n      add\n        /* \"BCStaking.sol\":7662:7663  0 */\n      0x00\n        /* \"BCStaking.sol\":7607:7787  Deposit(... */\n      dup2\n      mstore\n      0x20\n      add\n        /* \"BCStaking.sol\":7682:7697  block.timestamp */\n      timestamp\n        /* \"BCStaking.sol\":7607:7787  Deposit(... */\n      dup2\n      mstore\n      0x20\n      add\n        /* \"BCStaking.sol\":570:578  180 days */\n      0xed4e00\n        /* \"BCStaking.sol\":7716:7731  block.timestamp */\n      timestamp\n        /* \"BCStaking.sol\":7716:7748  block.timestamp + STAKING_PERIOD */\n      tag_444\n      swap2\n      swap1\n      tag_400\n      jump\t// in\n    tag_444:\n        /* \"BCStaking.sol\":7607:7787  Deposit(... */\n      dup2\n      mstore\n        /* \"BCStaking.sol\":7767:7772  false */\n      0x00\n        /* \"BCStaking.sol\":7607:7787  Deposit(... */\n      0x20\n      swap2\n      dup3\n      add\n      dup2\n      swap1\n      mstore\n        /* \"BCStaking.sol\":7574:7798  user.deposits.push(... */\n      dup4\n      sload\n        /* \"BCStaking.sol\":7607:7787  Deposit(... */\n      0x01\n        /* \"BCStaking.sol\":7574:7798  user.deposits.push(... */\n      dup1\n      dup3\n      add\n      dup7\n      sstore\n      swap5\n      dup3\n      mstore\n      dup3\n      dup3\n      keccak256\n      dup5\n      mload\n      0x05\n      swap1\n      swap3\n      mul\n      add\n      swap1\n      dup2\n      sstore\n      swap2\n      dup4\n      add\n      mload\n      swap4\n      dup3\n      add\n      swap4\n      swap1\n      swap4\n      sstore\n      0x40\n      dup3\n      add\n      mload\n      0x02\n      dup3\n      add\n      sstore\n      0x60\n      dup3\n      add\n      mload\n      0x03\n      dup3\n      add\n      sstore\n      0x80\n      swap1\n      swap2\n      add\n      mload\n      0x04\n      swap1\n      swap2\n      add\n      dup1\n      sload\n      not(0xff)\n      and\n      swap2\n      iszero\n      iszero\n      swap2\n      swap1\n      swap2\n      or\n      swap1\n      sstore\n        /* \"BCStaking.sol\":7811:10252  for (uint256 i = 0; i < user.deposits.length; i++) {... */\n    tag_446:\n        /* \"BCStaking.sol\":7835:7855  user.deposits.length */\n      dup5\n      sload\n        /* \"BCStaking.sol\":7831:7855  i < user.deposits.length */\n      dup2\n      lt\n        /* \"BCStaking.sol\":7811:10252  for (uint256 i = 0; i < user.deposits.length; i++) {... */\n      iszero\n      tag_447\n      jumpi\n        /* \"BCStaking.sol\":7881:7885  user */\n      dup5\n        /* \"BCStaking.sol\":7881:7894  user.deposits */\n      0x00\n      add\n        /* \"BCStaking.sol\":7895:7896  i */\n      dup2\n        /* \"BCStaking.sol\":7881:7897  user.deposits[i] */\n      dup2\n      sload\n      dup2\n      lt\n      tag_450\n      jumpi\n      tag_450\n      tag_143\n      jump\t// in\n    tag_450:\n      0x00\n      swap2\n      dup3\n      mstore\n      0x20\n      swap1\n      swap2\n      keccak256\n        /* \"BCStaking.sol\":7881:7903  user.deposits[i].ended */\n      0x04\n        /* \"BCStaking.sol\":7881:7897  user.deposits[i] */\n      0x05\n      swap1\n      swap3\n      mul\n      add\n        /* \"BCStaking.sol\":7881:7903  user.deposits[i].ended */\n      add\n      sload\n      0xff\n      and\n        /* \"BCStaking.sol\":7877:10241  if (user.deposits[i].ended == false) {... */\n      tag_452\n      jumpi\n        /* \"BCStaking.sol\":7964:7979  block.timestamp */\n      timestamp\n        /* \"BCStaking.sol\":7937:7941  user */\n      dup6\n        /* \"BCStaking.sol\":7937:7950  user.deposits */\n      0x00\n      add\n        /* \"BCStaking.sol\":7951:7952  i */\n      dup3\n        /* \"BCStaking.sol\":7937:7953  user.deposits[i] */\n      dup2\n      sload\n      dup2\n      lt\n      tag_454\n      jumpi\n      tag_454\n      tag_143\n      jump\t// in\n    tag_454:\n      swap1\n      0x00\n      mstore\n      keccak256(0x00, 0x20)\n      swap1\n      0x05\n      mul\n      add\n        /* \"BCStaking.sol\":7937:7961  user.deposits[i].endTime */\n      0x03\n      add\n      sload\n        /* \"BCStaking.sol\":7937:7979  user.deposits[i].endTime > block.timestamp */\n      gt\n        /* \"BCStaking.sol\":7933:10007  if (user.deposits[i].endTime > block.timestamp) {... */\n      iszero\n      tag_456\n      jumpi\n        /* \"BCStaking.sol\":8037:8041  user */\n      dup5\n        /* \"BCStaking.sol\":8037:8052  user.checkpoint */\n      0x01\n      add\n      sload\n        /* \"BCStaking.sol\":8008:8012  user */\n      dup6\n        /* \"BCStaking.sol\":8008:8021  user.deposits */\n      0x00\n      add\n        /* \"BCStaking.sol\":8022:8023  i */\n      dup3\n        /* \"BCStaking.sol\":8008:8024  user.deposits[i] */\n      dup2\n      sload\n      dup2\n      lt\n      tag_458\n      jumpi\n      tag_458\n      tag_143\n      jump\t// in\n    tag_458:\n      swap1\n      0x00\n      mstore\n      keccak256(0x00, 0x20)\n      swap1\n      0x05\n      mul\n      add\n        /* \"BCStaking.sol\":8008:8034  user.deposits[i].startTime */\n      0x02\n      add\n      sload\n        /* \"BCStaking.sol\":8008:8052  user.deposits[i].startTime > user.checkpoint */\n      gt\n        /* \"BCStaking.sol\":8004:8873  if (user.deposits[i].startTime > user.checkpoint) {... */\n      iszero\n      tag_460\n      jumpi\n        /* \"BCStaking.sol\":8093:8472  (... */\n      tag_461\n        /* \"BCStaking.sol\":516:522  1 days */\n      0x015180\n        /* \"BCStaking.sol\":8093:8427  (... */\n      tag_162\n        /* \"BCStaking.sol\":8349:8396  block.timestamp.sub(user.deposits[i].startTime) */\n      tag_463\n        /* \"BCStaking.sol\":8369:8373  user */\n      dup9\n        /* \"BCStaking.sol\":8369:8382  user.deposits */\n      0x00\n      add\n        /* \"BCStaking.sol\":8383:8384  i */\n      dup6\n        /* \"BCStaking.sol\":8369:8385  user.deposits[i] */\n      dup2\n      sload\n      dup2\n      lt\n      tag_158\n      jumpi\n      tag_158\n      tag_143\n      jump\t// in\n        /* \"BCStaking.sol\":8349:8396  block.timestamp.sub(user.deposits[i].startTime) */\n    tag_463:\n        /* \"BCStaking.sol\":8124:8253  user.deposits[i].amount.mul(PERCENTS_DAILY).div(... */\n      tag_161\n        /* \"BCStaking.sol\":365:369  1000 */\n      0x03e8\n        /* \"BCStaking.sol\":8124:8167  user.deposits[i].amount.mul(PERCENTS_DAILY) */\n      tag_162\n        /* \"BCStaking.sol\":417:419  15 */\n      0x0f\n        /* \"BCStaking.sol\":8124:8128  user */\n      dup13\n        /* \"BCStaking.sol\":8124:8137  user.deposits */\n      0x00\n      add\n        /* \"BCStaking.sol\":8138:8139  i */\n      dup10\n        /* \"BCStaking.sol\":8124:8140  user.deposits[i] */\n      dup2\n      sload\n      dup2\n      lt\n      tag_164\n      jumpi\n      tag_164\n      tag_143\n      jump\t// in\n        /* \"BCStaking.sol\":8093:8472  (... */\n    tag_461:\n        /* \"BCStaking.sol\":8081:8472  dividends = (... */\n      swap2\n      pop\n        /* \"BCStaking.sol\":7933:10007  if (user.deposits[i].endTime > block.timestamp) {... */\n      jump(tag_503)\n        /* \"BCStaking.sol\":8004:8873  if (user.deposits[i].startTime > user.checkpoint) {... */\n    tag_460:\n        /* \"BCStaking.sol\":8541:8849  (... */\n      tag_461\n        /* \"BCStaking.sol\":516:522  1 days */\n      0x015180\n        /* \"BCStaking.sol\":8541:8770  (... */\n      tag_162\n        /* \"BCStaking.sol\":8733:8769  block.timestamp.sub(user.checkpoint) */\n      tag_463\n        /* \"BCStaking.sol\":8753:8757  user */\n      dup9\n        /* \"BCStaking.sol\":8753:8768  user.checkpoint */\n      0x01\n      add\n      sload\n        /* \"BCStaking.sol\":8733:8748  block.timestamp */\n      timestamp\n        /* \"BCStaking.sol\":8733:8752  block.timestamp.sub */\n      tag_160\n      swap1\n        /* \"BCStaking.sol\":8733:8769  block.timestamp.sub(user.checkpoint) */\n      swap2\n      swap1\n      0xffffffff\n      and\n      jump\t// in\n        /* \"BCStaking.sol\":7933:10007  if (user.deposits[i].endTime > block.timestamp) {... */\n    tag_456:\n        /* \"BCStaking.sol\":8954:8958  user */\n      dup5\n        /* \"BCStaking.sol\":8954:8969  user.checkpoint */\n      0x01\n      add\n      sload\n        /* \"BCStaking.sol\":8925:8929  user */\n      dup6\n        /* \"BCStaking.sol\":8925:8938  user.deposits */\n      0x00\n      add\n        /* \"BCStaking.sol\":8939:8940  i */\n      dup3\n        /* \"BCStaking.sol\":8925:8941  user.deposits[i] */\n      dup2\n      sload\n      dup2\n      lt\n      tag_483\n      jumpi\n      tag_483\n      tag_143\n      jump\t// in\n    tag_483:\n      swap1\n      0x00\n      mstore\n      keccak256(0x00, 0x20)\n      swap1\n      0x05\n      mul\n      add\n        /* \"BCStaking.sol\":8925:8951  user.deposits[i].startTime */\n      0x02\n      add\n      sload\n        /* \"BCStaking.sol\":8925:8969  user.deposits[i].startTime > user.checkpoint */\n      gt\n        /* \"BCStaking.sol\":8921:9988  if (user.deposits[i].startTime > user.checkpoint) {... */\n      iszero\n      tag_485\n      jumpi\n        /* \"BCStaking.sol\":9010:9470  (... */\n      tag_486\n        /* \"BCStaking.sol\":516:522  1 days */\n      0x015180\n        /* \"BCStaking.sol\":9010:9425  (... */\n      tag_162\n        /* \"BCStaking.sol\":9266:9394  user.deposits[i].endTime.sub(... */\n      tag_463\n        /* \"BCStaking.sol\":9333:9337  user */\n      dup9\n        /* \"BCStaking.sol\":9333:9346  user.deposits */\n      0x00\n      add\n        /* \"BCStaking.sol\":9347:9348  i */\n      dup6\n        /* \"BCStaking.sol\":9333:9349  user.deposits[i] */\n      dup2\n      sload\n      dup2\n      lt\n      tag_490\n      jumpi\n      tag_490\n      tag_143\n      jump\t// in\n    tag_490:\n      swap1\n      0x00\n      mstore\n      keccak256(0x00, 0x20)\n      swap1\n      0x05\n      mul\n      add\n        /* \"BCStaking.sol\":9333:9359  user.deposits[i].startTime */\n      0x02\n      add\n      sload\n        /* \"BCStaking.sol\":9266:9270  user */\n      dup10\n        /* \"BCStaking.sol\":9266:9279  user.deposits */\n      0x00\n      add\n        /* \"BCStaking.sol\":9280:9281  i */\n      dup7\n        /* \"BCStaking.sol\":9266:9282  user.deposits[i] */\n      dup2\n      sload\n      dup2\n      lt\n      tag_189\n      jumpi\n      tag_189\n      tag_143\n      jump\t// in\n        /* \"BCStaking.sol\":9010:9470  (... */\n    tag_486:\n        /* \"BCStaking.sol\":8998:9470  dividends = (... */\n      swap2\n      pop\n        /* \"BCStaking.sol\":9522:9526  true */\n      0x01\n        /* \"BCStaking.sol\":9497:9501  user */\n      dup6\n        /* \"BCStaking.sol\":9497:9510  user.deposits */\n      0x00\n      add\n        /* \"BCStaking.sol\":9511:9512  i */\n      dup3\n        /* \"BCStaking.sol\":9497:9513  user.deposits[i] */\n      dup2\n      sload\n      dup2\n      lt\n      tag_501\n      jumpi\n      tag_501\n      tag_143\n      jump\t// in\n    tag_501:\n      0x00\n      swap2\n      dup3\n      mstore\n      0x20\n      swap1\n      swap2\n      keccak256\n      0x05\n      swap1\n      swap2\n      mul\n      add\n        /* \"BCStaking.sol\":9497:9519  user.deposits[i].ended */\n      0x04\n      add\n        /* \"BCStaking.sol\":9497:9526  user.deposits[i].ended = true */\n      dup1\n      sload\n      not(0xff)\n      and\n      swap2\n      iszero\n      iszero\n      swap2\n      swap1\n      swap2\n      or\n      swap1\n      sstore\n        /* \"BCStaking.sol\":8921:9988  if (user.deposits[i].startTime > user.checkpoint) {... */\n      jump(tag_503)\n    tag_485:\n        /* \"BCStaking.sol\":9595:9908  (... */\n      tag_504\n        /* \"BCStaking.sol\":516:522  1 days */\n      0x015180\n        /* \"BCStaking.sol\":9595:9863  (... */\n      tag_162\n        /* \"BCStaking.sol\":9817:9862  user.deposits[i].endTime.sub(user.checkpoint) */\n      tag_463\n        /* \"BCStaking.sol\":9846:9850  user */\n      dup9\n        /* \"BCStaking.sol\":9846:9861  user.checkpoint */\n      0x01\n      add\n      sload\n        /* \"BCStaking.sol\":9817:9821  user */\n      dup10\n        /* \"BCStaking.sol\":9817:9830  user.deposits */\n      0x00\n      add\n        /* \"BCStaking.sol\":9831:9832  i */\n      dup7\n        /* \"BCStaking.sol\":9817:9833  user.deposits[i] */\n      dup2\n      sload\n      dup2\n      lt\n      tag_189\n      jumpi\n      tag_189\n      tag_143\n      jump\t// in\n        /* \"BCStaking.sol\":9595:9908  (... */\n    tag_504:\n        /* \"BCStaking.sol\":9583:9908  dividends = (... */\n      swap2\n      pop\n        /* \"BCStaking.sol\":9960:9964  true */\n      0x01\n        /* \"BCStaking.sol\":9935:9939  user */\n      dup6\n        /* \"BCStaking.sol\":9935:9948  user.deposits */\n      0x00\n      add\n        /* \"BCStaking.sol\":9949:9950  i */\n      dup3\n        /* \"BCStaking.sol\":9935:9951  user.deposits[i] */\n      dup2\n      sload\n      dup2\n      lt\n      tag_516\n      jumpi\n      tag_516\n      tag_143\n      jump\t// in\n    tag_516:\n      0x00\n      swap2\n      dup3\n      mstore\n      0x20\n      swap1\n      swap2\n      keccak256\n      0x05\n      swap1\n      swap2\n      mul\n      add\n        /* \"BCStaking.sol\":9935:9957  user.deposits[i].ended */\n      0x04\n      add\n        /* \"BCStaking.sol\":9935:9964  user.deposits[i].ended = true */\n      dup1\n      sload\n      not(0xff)\n      and\n      swap2\n      iszero\n      iszero\n      swap2\n      swap1\n      swap2\n      or\n      swap1\n      sstore\n        /* \"BCStaking.sol\":8921:9988  if (user.deposits[i].startTime > user.checkpoint) {... */\n    tag_503:\n        /* \"BCStaking.sol\":10056:10137  user.deposits[i].withdrawn.add(... */\n      tag_518\n        /* \"BCStaking.sol\":10109:10118  dividends */\n      dup3\n        /* \"BCStaking.sol\":10056:10060  user */\n      dup7\n        /* \"BCStaking.sol\":10056:10069  user.deposits */\n      0x00\n      add\n        /* \"BCStaking.sol\":10070:10071  i */\n      dup4\n        /* \"BCStaking.sol\":10056:10072  user.deposits[i] */\n      dup2\n      sload\n      dup2\n      lt\n      tag_300\n      jumpi\n      tag_300\n      tag_143\n      jump\t// in\n        /* \"BCStaking.sol\":10056:10137  user.deposits[i].withdrawn.add(... */\n    tag_518:\n        /* \"BCStaking.sol\":10027:10031  user */\n      dup6\n        /* \"BCStaking.sol\":10027:10040  user.deposits */\n      0x00\n      add\n        /* \"BCStaking.sol\":10041:10042  i */\n      dup3\n        /* \"BCStaking.sol\":10027:10043  user.deposits[i] */\n      dup2\n      sload\n      dup2\n      lt\n      tag_523\n      jumpi\n      tag_523\n      tag_143\n      jump\t// in\n    tag_523:\n      0x00\n      swap2\n      dup3\n      mstore\n      0x20\n      swap1\n      swap2\n      keccak256\n        /* \"BCStaking.sol\":10027:10053  user.deposits[i].withdrawn */\n      0x01\n        /* \"BCStaking.sol\":10027:10043  user.deposits[i] */\n      0x05\n      swap1\n      swap3\n      mul\n      add\n        /* \"BCStaking.sol\":10027:10053  user.deposits[i].withdrawn */\n      add\n        /* \"BCStaking.sol\":10027:10137  user.deposits[i].withdrawn = user.deposits[i].withdrawn.add(... */\n      sstore\n        /* \"BCStaking.sol\":10199:10225  totalAmount.add(dividends) */\n      tag_525\n        /* \"BCStaking.sol\":10199:10210  totalAmount */\n      dup4\n        /* \"BCStaking.sol\":10215:10224  dividends */\n      dup4\n        /* \"BCStaking.sol\":10199:10214  totalAmount.add */\n      tag_209\n        /* \"BCStaking.sol\":10199:10225  totalAmount.add(dividends) */\n      jump\t// in\n    tag_525:\n        /* \"BCStaking.sol\":10185:10225  totalAmount = totalAmount.add(dividends) */\n      swap3\n      pop\n        /* \"BCStaking.sol\":7877:10241  if (user.deposits[i].ended == false) {... */\n    tag_452:\n        /* \"BCStaking.sol\":7857:7860  i++ */\n      dup1\n      tag_526\n      dup2\n      tag_211\n      jump\t// in\n    tag_526:\n      swap2\n      pop\n      pop\n        /* \"BCStaking.sol\":7811:10252  for (uint256 i = 0; i < user.deposits.length; i++) {... */\n      jump(tag_446)\n    tag_447:\n      pop\n        /* \"BCStaking.sol\":10282:10297  block.timestamp */\n      timestamp\n        /* \"BCStaking.sol\":10264:10279  user.checkpoint */\n      0x01\n      dup6\n      add\n        /* \"BCStaking.sol\":10264:10297  user.checkpoint = block.timestamp */\n      sstore\n        /* \"BCStaking.sol\":10324:10335  totalStaked */\n      sload(0x03)\n        /* \"BCStaking.sol\":10324:10351  totalStaked.add(_dividends) */\n      tag_527\n      swap1\n        /* \"BCStaking.sol\":10340:10350  _dividends */\n      dup5\n        /* \"BCStaking.sol\":10324:10339  totalStaked.add */\n      tag_209\n        /* \"BCStaking.sol\":10324:10351  totalStaked.add(_dividends) */\n      jump\t// in\n    tag_527:\n        /* \"BCStaking.sol\":10310:10321  totalStaked */\n      0x03\n        /* \"BCStaking.sol\":10310:10351  totalStaked = totalStaked.add(_dividends) */\n      sstore\n        /* \"BCStaking.sol\":10382:10399  totalDepositCount */\n      sload(0x05)\n        /* \"BCStaking.sol\":10382:10406  totalDepositCount.add(1) */\n      tag_528\n      swap1\n        /* \"BCStaking.sol\":10404:10405  1 */\n      0x01\n        /* \"BCStaking.sol\":10382:10403  totalDepositCount.add */\n      tag_209\n        /* \"BCStaking.sol\":10382:10406  totalDepositCount.add(1) */\n      jump\t// in\n    tag_528:\n        /* \"BCStaking.sol\":10362:10379  totalDepositCount */\n      0x05\n        /* \"BCStaking.sol\":10362:10406  totalDepositCount = totalDepositCount.add(1) */\n      sstore\n        /* \"BCStaking.sol\":10434:10448  totalWithdrawn */\n      sload(0x04)\n        /* \"BCStaking.sol\":10434:10465  totalWithdrawn.add(totalAmount) */\n      tag_529\n      swap1\n        /* \"BCStaking.sol\":10453:10464  totalAmount */\n      dup4\n        /* \"BCStaking.sol\":10434:10452  totalWithdrawn.add */\n      tag_209\n        /* \"BCStaking.sol\":10434:10465  totalWithdrawn.add(totalAmount) */\n      jump\t// in\n    tag_529:\n        /* \"BCStaking.sol\":10417:10431  totalWithdrawn */\n      0x04\n        /* \"BCStaking.sol\":10417:10465  totalWithdrawn = totalWithdrawn.add(totalAmount) */\n      sstore\n        /* \"BCStaking.sol\":10504:10542  onReinvestment(msg.sender, _dividends) */\n      mload(0x40)\n        /* \"#utility.yul\":160:185   */\n      dup4\n      dup2\n      mstore\n        /* \"BCStaking.sol\":10519:10529  msg.sender */\n      caller\n      swap1\n        /* \"BCStaking.sol\":10504:10542  onReinvestment(msg.sender, _dividends) */\n      0x5d511c2070e5a2dbcc6fbfbb3fd6704a11ab5fa74b793b81aacece2c7cc29405\n      swap1\n        /* \"#utility.yul\":148:150   */\n      0x20\n        /* \"#utility.yul\":133:151   */\n      add\n        /* \"BCStaking.sol\":10504:10542  onReinvestment(msg.sender, _dividends) */\n      mload(0x40)\n      dup1\n      swap2\n      sub\n      swap1\n      log2\n        /* \"BCStaking.sol\":7326:10550  {... */\n      pop\n      pop\n      pop\n      pop\n        /* \"BCStaking.sol\":7288:10550  function compound() public onlyhodler {... */\n      jump\t// out\n        /* \"BCStaking.sol\":15574:15935  function getUserTotalWithdrawn(address userAddress)... */\n    tag_135:\n      sub(shl(0xa0, 0x01), 0x01)\n        /* \"BCStaking.sol\":15719:15737  users[userAddress] */\n      dup2\n      and\n        /* \"BCStaking.sol\":15674:15681  uint256 */\n      0x00\n        /* \"BCStaking.sol\":15719:15737  users[userAddress] */\n      swap1\n      dup2\n      mstore\n        /* \"BCStaking.sol\":15719:15724  users */\n      0x07\n        /* \"BCStaking.sol\":15719:15737  users[userAddress] */\n      0x20\n      mstore\n      0x40\n      dup2\n      keccak256\n        /* \"BCStaking.sol\":15674:15681  uint256 */\n      dup2\n      dup1\n        /* \"BCStaking.sol\":15777:15902  for (uint256 i = 0; i < user.deposits.length; i++) {... */\n    tag_532:\n        /* \"BCStaking.sol\":15801:15821  user.deposits.length */\n      dup3\n      sload\n        /* \"BCStaking.sol\":15797:15821  i < user.deposits.length */\n      dup2\n      lt\n        /* \"BCStaking.sol\":15777:15902  for (uint256 i = 0; i < user.deposits.length; i++) {... */\n      iszero\n      tag_340\n      jumpi\n        /* \"BCStaking.sol\":15852:15890  amount.add(user.deposits[i].withdrawn) */\n      tag_535\n        /* \"BCStaking.sol\":15863:15867  user */\n      dup4\n        /* \"BCStaking.sol\":15863:15876  user.deposits */\n      0x00\n      add\n        /* \"BCStaking.sol\":15877:15878  i */\n      dup3\n        /* \"BCStaking.sol\":15863:15879  user.deposits[i] */\n      dup2\n      sload\n      dup2\n      lt\n      tag_537\n      jumpi\n      tag_537\n      tag_143\n      jump\t// in\n    tag_537:\n      swap1\n      0x00\n      mstore\n      keccak256(0x00, 0x20)\n      swap1\n      0x05\n      mul\n      add\n        /* \"BCStaking.sol\":15863:15889  user.deposits[i].withdrawn */\n      0x01\n      add\n      sload\n        /* \"BCStaking.sol\":15852:15858  amount */\n      dup4\n        /* \"BCStaking.sol\":15852:15862  amount.add */\n      tag_209\n      swap1\n        /* \"BCStaking.sol\":15852:15890  amount.add(user.deposits[i].withdrawn) */\n      swap2\n      swap1\n      0xffffffff\n      and\n      jump\t// in\n    tag_535:\n        /* \"BCStaking.sol\":15843:15890  amount = amount.add(user.deposits[i].withdrawn) */\n      swap2\n      pop\n        /* \"BCStaking.sol\":15823:15826  i++ */\n      dup1\n      tag_539\n      dup2\n      tag_211\n      jump\t// in\n    tag_539:\n      swap2\n      pop\n      pop\n        /* \"BCStaking.sol\":15777:15902  for (uint256 i = 0; i < user.deposits.length; i++) {... */\n      jump(tag_532)\n        /* \"@openzeppelin/contracts/utils/math/SafeMath.sol\":3122:3218  function sub(uint256 a, uint256 b) internal pure returns (uint256) {... */\n    tag_160:\n        /* \"@openzeppelin/contracts/utils/math/SafeMath.sol\":3180:3187  uint256 */\n      0x00\n        /* \"@openzeppelin/contracts/utils/math/SafeMath.sol\":3206:3211  a - b */\n      tag_541\n        /* \"@openzeppelin/contracts/utils/math/SafeMath.sol\":3210:3211  b */\n      dup3\n        /* \"@openzeppelin/contracts/utils/math/SafeMath.sol\":3206:3207  a */\n      dup5\n        /* \"@openzeppelin/contracts/utils/math/SafeMath.sol\":3206:3211  a - b */\n      tag_353\n      jump\t// in\n    tag_541:\n        /* \"@openzeppelin/contracts/utils/math/SafeMath.sol\":3199:3211  return a - b */\n      swap4\n        /* \"@openzeppelin/contracts/utils/math/SafeMath.sol\":3122:3218  function sub(uint256 a, uint256 b) internal pure returns (uint256) {... */\n      swap3\n      pop\n      pop\n      pop\n      jump\t// out\n        /* \"@openzeppelin/contracts/utils/math/SafeMath.sol\":3465:3561  function mul(uint256 a, uint256 b) internal pure returns (uint256) {... */\n    tag_166:\n        /* \"@openzeppelin/contracts/utils/math/SafeMath.sol\":3523:3530  uint256 */\n      0x00\n        /* \"@openzeppelin/contracts/utils/math/SafeMath.sol\":3549:3554  a * b */\n      tag_541\n        /* \"@openzeppelin/contracts/utils/math/SafeMath.sol\":3553:3554  b */\n      dup3\n        /* \"@openzeppelin/contracts/utils/math/SafeMath.sol\":3549:3550  a */\n      dup5\n        /* \"@openzeppelin/contracts/utils/math/SafeMath.sol\":3549:3554  a * b */\n      tag_544\n      jump\t// in\n        /* \"@openzeppelin/contracts/utils/math/SafeMath.sol\":3850:3946  function div(uint256 a, uint256 b) internal pure returns (uint256) {... */\n    tag_167:\n        /* \"@openzeppelin/contracts/utils/math/SafeMath.sol\":3908:3915  uint256 */\n      0x00\n        /* \"@openzeppelin/contracts/utils/math/SafeMath.sol\":3934:3939  a / b */\n      tag_541\n        /* \"@openzeppelin/contracts/utils/math/SafeMath.sol\":3938:3939  b */\n      dup3\n        /* \"@openzeppelin/contracts/utils/math/SafeMath.sol\":3934:3935  a */\n      dup5\n        /* \"@openzeppelin/contracts/utils/math/SafeMath.sol\":3934:3939  a / b */\n      tag_547\n      jump\t// in\n        /* \"@openzeppelin/contracts/utils/math/SafeMath.sol\":2755:2851  function add(uint256 a, uint256 b) internal pure returns (uint256) {... */\n    tag_209:\n        /* \"@openzeppelin/contracts/utils/math/SafeMath.sol\":2813:2820  uint256 */\n      0x00\n        /* \"@openzeppelin/contracts/utils/math/SafeMath.sol\":2839:2844  a + b */\n      tag_541\n        /* \"@openzeppelin/contracts/utils/math/SafeMath.sol\":2843:2844  b */\n      dup3\n        /* \"@openzeppelin/contracts/utils/math/SafeMath.sol\":2839:2840  a */\n      dup5\n        /* \"@openzeppelin/contracts/utils/math/SafeMath.sol\":2839:2844  a + b */\n      tag_400\n      jump\t// in\n        /* \"@openzeppelin/contracts/access/Ownable.sol\":2270:2457  function _transferOwnership(address newOwner) internal virtual {... */\n    tag_337:\n        /* \"@openzeppelin/contracts/access/Ownable.sol\":2343:2359  address oldOwner */\n      0x00\n        /* \"@openzeppelin/contracts/access/Ownable.sol\":2362:2368  _owner */\n      dup1\n      sload\n      sub(shl(0xa0, 0x01), 0x01)\n        /* \"@openzeppelin/contracts/access/Ownable.sol\":2378:2395  _owner = newOwner */\n      dup4\n      dup2\n      and\n      not(sub(shl(0xa0, 0x01), 0x01))\n      dup4\n      and\n      dup2\n      or\n      dup5\n      sstore\n        /* \"@openzeppelin/contracts/access/Ownable.sol\":2410:2450  OwnershipTransferred(oldOwner, newOwner) */\n      mload(0x40)\n        /* \"@openzeppelin/contracts/access/Ownable.sol\":2362:2368  _owner */\n      swap2\n      swap1\n      swap3\n      and\n      swap3\n      dup4\n      swap2\n        /* \"@openzeppelin/contracts/access/Ownable.sol\":2410:2450  OwnershipTransferred(oldOwner, newOwner) */\n      0x8be0079c531659141344cd1fd0a4f28419497f9722a3daafe3b4186f6b6457e0\n      swap2\n        /* \"@openzeppelin/contracts/access/Ownable.sol\":2343:2359  address oldOwner */\n      swap1\n        /* \"@openzeppelin/contracts/access/Ownable.sol\":2410:2450  OwnershipTransferred(oldOwner, newOwner) */\n      log3\n        /* \"@openzeppelin/contracts/access/Ownable.sol\":2333:2457  {... */\n      pop\n        /* \"@openzeppelin/contracts/access/Ownable.sol\":2270:2457  function _transferOwnership(address newOwner) internal virtual {... */\n      pop\n      jump\t// out\n        /* \"#utility.yul\":196:369   */\n    tag_552:\n        /* \"#utility.yul\":264:284   */\n      dup1\n      calldataload\n      sub(shl(0xa0, 0x01), 0x01)\n        /* \"#utility.yul\":313:344   */\n      dup2\n      and\n        /* \"#utility.yul\":303:345   */\n      dup2\n      eq\n        /* \"#utility.yul\":293:363   */\n      tag_557\n      jumpi\n        /* \"#utility.yul\":359:360   */\n      0x00\n        /* \"#utility.yul\":356:357   */\n      dup1\n        /* \"#utility.yul\":349:361   */\n      revert\n        /* \"#utility.yul\":293:363   */\n    tag_557:\n        /* \"#utility.yul\":196:369   */\n      swap2\n      swap1\n      pop\n      jump\t// out\n        /* \"#utility.yul\":374:560   */\n    tag_47:\n        /* \"#utility.yul\":433:439   */\n      0x00\n        /* \"#utility.yul\":486:488   */\n      0x20\n        /* \"#utility.yul\":474:483   */\n      dup3\n        /* \"#utility.yul\":465:472   */\n      dup5\n        /* \"#utility.yul\":461:484   */\n      sub\n        /* \"#utility.yul\":457:489   */\n      slt\n        /* \"#utility.yul\":454:506   */\n      iszero\n      tag_559\n      jumpi\n        /* \"#utility.yul\":502:503   */\n      0x00\n        /* \"#utility.yul\":499:500   */\n      dup1\n        /* \"#utility.yul\":492:504   */\n      revert\n        /* \"#utility.yul\":454:506   */\n    tag_559:\n        /* \"#utility.yul\":525:554   */\n      tag_541\n        /* \"#utility.yul\":544:553   */\n      dup3\n        /* \"#utility.yul\":525:554   */\n      tag_552\n      jump\t// in\n        /* \"#utility.yul\":773:953   */\n    tag_76:\n        /* \"#utility.yul\":832:838   */\n      0x00\n        /* \"#utility.yul\":885:887   */\n      0x20\n        /* \"#utility.yul\":873:882   */\n      dup3\n        /* \"#utility.yul\":864:871   */\n      dup5\n        /* \"#utility.yul\":860:883   */\n      sub\n        /* \"#utility.yul\":856:888   */\n      slt\n        /* \"#utility.yul\":853:905   */\n      iszero\n      tag_563\n      jumpi\n        /* \"#utility.yul\":901:902   */\n      0x00\n        /* \"#utility.yul\":898:899   */\n      dup1\n        /* \"#utility.yul\":891:903   */\n      revert\n        /* \"#utility.yul\":853:905   */\n    tag_563:\n      pop\n        /* \"#utility.yul\":924:947   */\n      calldataload\n      swap2\n        /* \"#utility.yul\":773:953   */\n      swap1\n      pop\n      jump\t// out\n        /* \"#utility.yul\":1150:1404   */\n    tag_103:\n        /* \"#utility.yul\":1218:1224   */\n      0x00\n        /* \"#utility.yul\":1226:1232   */\n      dup1\n        /* \"#utility.yul\":1279:1281   */\n      0x40\n        /* \"#utility.yul\":1267:1276   */\n      dup4\n        /* \"#utility.yul\":1258:1265   */\n      dup6\n        /* \"#utility.yul\":1254:1277   */\n      sub\n        /* \"#utility.yul\":1250:1282   */\n      slt\n        /* \"#utility.yul\":1247:1299   */\n      iszero\n      tag_566\n      jumpi\n        /* \"#utility.yul\":1295:1296   */\n      0x00\n        /* \"#utility.yul\":1292:1293   */\n      dup1\n        /* \"#utility.yul\":1285:1297   */\n      revert\n        /* \"#utility.yul\":1247:1299   */\n    tag_566:\n        /* \"#utility.yul\":1318:1347   */\n      tag_567\n        /* \"#utility.yul\":1337:1346   */\n      dup4\n        /* \"#utility.yul\":1318:1347   */\n      tag_552\n      jump\t// in\n    tag_567:\n        /* \"#utility.yul\":1308:1347   */\n      swap5\n        /* \"#utility.yul\":1394:1396   */\n      0x20\n        /* \"#utility.yul\":1379:1397   */\n      swap4\n      swap1\n      swap4\n      add\n        /* \"#utility.yul\":1366:1398   */\n      calldataload\n      swap4\n      pop\n      pop\n      pop\n        /* \"#utility.yul\":1150:1404   */\n      jump\t// out\n        /* \"#utility.yul\":1887:2014   */\n    tag_143:\n        /* \"#utility.yul\":1948:1958   */\n      0x4e487b71\n        /* \"#utility.yul\":1943:1946   */\n      0xe0\n        /* \"#utility.yul\":1939:1959   */\n      shl\n        /* \"#utility.yul\":1936:1937   */\n      0x00\n        /* \"#utility.yul\":1929:1960   */\n      mstore\n        /* \"#utility.yul\":1979:1983   */\n      0x32\n        /* \"#utility.yul\":1976:1977   */\n      0x04\n        /* \"#utility.yul\":1969:1984   */\n      mstore\n        /* \"#utility.yul\":2003:2007   */\n      0x24\n        /* \"#utility.yul\":2000:2001   */\n      0x00\n        /* \"#utility.yul\":1993:2008   */\n      revert\n        /* \"#utility.yul\":2019:2146   */\n    tag_553:\n        /* \"#utility.yul\":2080:2090   */\n      0x4e487b71\n        /* \"#utility.yul\":2075:2078   */\n      0xe0\n        /* \"#utility.yul\":2071:2091   */\n      shl\n        /* \"#utility.yul\":2068:2069   */\n      0x00\n        /* \"#utility.yul\":2061:2092   */\n      mstore\n        /* \"#utility.yul\":2111:2115   */\n      0x11\n        /* \"#utility.yul\":2108:2109   */\n      0x04\n        /* \"#utility.yul\":2101:2116   */\n      mstore\n        /* \"#utility.yul\":2135:2139   */\n      0x24\n        /* \"#utility.yul\":2132:2133   */\n      0x00\n        /* \"#utility.yul\":2125:2140   */\n      revert\n        /* \"#utility.yul\":2151:2286   */\n    tag_211:\n        /* \"#utility.yul\":2190:2193   */\n      0x00\n      not(0x00)\n        /* \"#utility.yul\":2211:2228   */\n      dup3\n      eq\n        /* \"#utility.yul\":2208:2251   */\n      iszero\n      tag_573\n      jumpi\n        /* \"#utility.yul\":2231:2249   */\n      tag_573\n      tag_553\n      jump\t// in\n    tag_573:\n      pop\n        /* \"#utility.yul\":2278:2279   */\n      0x01\n        /* \"#utility.yul\":2267:2280   */\n      add\n      swap1\n        /* \"#utility.yul\":2151:2286   */\n      jump\t// out\n        /* \"#utility.yul\":2291:2647   */\n    tag_223:\n        /* \"#utility.yul\":2493:2495   */\n      0x20\n        /* \"#utility.yul\":2475:2496   */\n      dup1\n      dup3\n      mstore\n        /* \"#utility.yul\":2512:2530   */\n      dup2\n      dup2\n      add\n        /* \"#utility.yul\":2505:2535   */\n      mstore\n        /* \"#utility.yul\":2571:2605   */\n      0x4f776e61626c653a2063616c6c6572206973206e6f7420746865206f776e6572\n        /* \"#utility.yul\":2566:2568   */\n      0x40\n        /* \"#utility.yul\":2551:2569   */\n      dup3\n      add\n        /* \"#utility.yul\":2544:2606   */\n      mstore\n        /* \"#utility.yul\":2638:2640   */\n      0x60\n        /* \"#utility.yul\":2623:2641   */\n      add\n      swap1\n        /* \"#utility.yul\":2291:2647   */\n      jump\t// out\n        /* \"#utility.yul\":3002:3186   */\n    tag_317:\n        /* \"#utility.yul\":3072:3078   */\n      0x00\n        /* \"#utility.yul\":3125:3127   */\n      0x20\n        /* \"#utility.yul\":3113:3122   */\n      dup3\n        /* \"#utility.yul\":3104:3111   */\n      dup5\n        /* \"#utility.yul\":3100:3123   */\n      sub\n        /* \"#utility.yul\":3096:3128   */\n      slt\n        /* \"#utility.yul\":3093:3145   */\n      iszero\n      tag_577\n      jumpi\n        /* \"#utility.yul\":3141:3142   */\n      0x00\n        /* \"#utility.yul\":3138:3139   */\n      dup1\n        /* \"#utility.yul\":3131:3143   */\n      revert\n        /* \"#utility.yul\":3093:3145   */\n    tag_577:\n      pop\n        /* \"#utility.yul\":3164:3180   */\n      mload\n      swap2\n        /* \"#utility.yul\":3002:3186   */\n      swap1\n      pop\n      jump\t// out\n        /* \"#utility.yul\":3470:3747   */\n    tag_324:\n        /* \"#utility.yul\":3537:3543   */\n      0x00\n        /* \"#utility.yul\":3590:3592   */\n      0x20\n        /* \"#utility.yul\":3578:3587   */\n      dup3\n        /* \"#utility.yul\":3569:3576   */\n      dup5\n        /* \"#utility.yul\":3565:3588   */\n      sub\n        /* \"#utility.yul\":3561:3593   */\n      slt\n        /* \"#utility.yul\":3558:3610   */\n      iszero\n      tag_580\n      jumpi\n        /* \"#utility.yul\":3606:3607   */\n      0x00\n        /* \"#utility.yul\":3603:3604   */\n      dup1\n        /* \"#utility.yul\":3596:3608   */\n      revert\n        /* \"#utility.yul\":3558:3610   */\n    tag_580:\n        /* \"#utility.yul\":3638:3647   */\n      dup2\n        /* \"#utility.yul\":3632:3648   */\n      mload\n        /* \"#utility.yul\":3691:3696   */\n      dup1\n        /* \"#utility.yul\":3684:3697   */\n      iszero\n        /* \"#utility.yul\":3677:3698   */\n      iszero\n        /* \"#utility.yul\":3670:3675   */\n      dup2\n        /* \"#utility.yul\":3667:3699   */\n      eq\n        /* \"#utility.yul\":3657:3717   */\n      tag_541\n      jumpi\n        /* \"#utility.yul\":3713:3714   */\n      0x00\n        /* \"#utility.yul\":3710:3711   */\n      dup1\n        /* \"#utility.yul\":3703:3715   */\n      revert\n        /* \"#utility.yul\":4164:4289   */\n    tag_353:\n        /* \"#utility.yul\":4204:4208   */\n      0x00\n        /* \"#utility.yul\":4232:4233   */\n      dup3\n        /* \"#utility.yul\":4229:4230   */\n      dup3\n        /* \"#utility.yul\":4226:4234   */\n      lt\n        /* \"#utility.yul\":4223:4257   */\n      iszero\n      tag_585\n      jumpi\n        /* \"#utility.yul\":4237:4255   */\n      tag_585\n      tag_553\n      jump\t// in\n    tag_585:\n      pop\n        /* \"#utility.yul\":4274:4283   */\n      sub\n      swap1\n        /* \"#utility.yul\":4164:4289   */\n      jump\t// out\n        /* \"#utility.yul\":5893:6021   */\n    tag_400:\n        /* \"#utility.yul\":5933:5936   */\n      0x00\n        /* \"#utility.yul\":5964:5965   */\n      dup3\n        /* \"#utility.yul\":5960:5966   */\n      not\n        /* \"#utility.yul\":5957:5958   */\n      dup3\n        /* \"#utility.yul\":5954:5967   */\n      gt\n        /* \"#utility.yul\":5951:5990   */\n      iszero\n      tag_592\n      jumpi\n        /* \"#utility.yul\":5970:5988   */\n      tag_592\n      tag_553\n      jump\t// in\n    tag_592:\n      pop\n        /* \"#utility.yul\":6006:6015   */\n      add\n      swap1\n        /* \"#utility.yul\":5893:6021   */\n      jump\t// out\n        /* \"#utility.yul\":6772:6940   */\n    tag_544:\n        /* \"#utility.yul\":6812:6819   */\n      0x00\n        /* \"#utility.yul\":6878:6879   */\n      dup2\n        /* \"#utility.yul\":6874:6875   */\n      0x00\n        /* \"#utility.yul\":6870:6876   */\n      not\n        /* \"#utility.yul\":6866:6880   */\n      div\n        /* \"#utility.yul\":6863:6864   */\n      dup4\n        /* \"#utility.yul\":6860:6881   */\n      gt\n        /* \"#utility.yul\":6855:6856   */\n      dup3\n        /* \"#utility.yul\":6848:6857   */\n      iszero\n        /* \"#utility.yul\":6841:6858   */\n      iszero\n        /* \"#utility.yul\":6837:6882   */\n      and\n        /* \"#utility.yul\":6834:6905   */\n      iszero\n      tag_597\n      jumpi\n        /* \"#utility.yul\":6885:6903   */\n      tag_597\n      tag_553\n      jump\t// in\n    tag_597:\n      pop\n        /* \"#utility.yul\":6925:6934   */\n      mul\n      swap1\n        /* \"#utility.yul\":6772:6940   */\n      jump\t// out\n        /* \"#utility.yul\":6945:7162   */\n    tag_547:\n        /* \"#utility.yul\":6985:6986   */\n      0x00\n        /* \"#utility.yul\":7011:7012   */\n      dup3\n        /* \"#utility.yul\":7001:7133   */\n      tag_599\n      jumpi\n        /* \"#utility.yul\":7055:7065   */\n      0x4e487b71\n        /* \"#utility.yul\":7050:7053   */\n      0xe0\n        /* \"#utility.yul\":7046:7066   */\n      shl\n        /* \"#utility.yul\":7043:7044   */\n      0x00\n        /* \"#utility.yul\":7036:7067   */\n      mstore\n        /* \"#utility.yul\":7090:7094   */\n      0x12\n        /* \"#utility.yul\":7087:7088   */\n      0x04\n        /* \"#utility.yul\":7080:7095   */\n      mstore\n        /* \"#utility.yul\":7118:7122   */\n      0x24\n        /* \"#utility.yul\":7115:7116   */\n      0x00\n        /* \"#utility.yul\":7108:7123   */\n      revert\n        /* \"#utility.yul\":7001:7133   */\n    tag_599:\n      pop\n        /* \"#utility.yul\":7147:7156   */\n      div\n      swap1\n        /* \"#utility.yul\":6945:7162   */\n      jump\t// out\n\n    auxdata: 0xa26469706673582212200bab2c44bb83599407d018d3891195c2195dece7a2cb6124893cf93280d18b9964736f6c634300080a0033\n}\n",
				"bytecode": {
					"linkReferences": {},
					"object": "6080604052680ad78ebc5ac620000060065534801561001d57600080fd5b5060405162001b1938038062001b1983398101604081905261003e916100bc565b6100473361006c565b600180546001600160a01b0319166001600160a01b03929092169190911790556100ec565b600080546001600160a01b038381166001600160a01b0319831681178455604051919092169283917f8be0079c531659141344cd1fd0a4f28419497f9722a3daafe3b4186f6b6457e09190a35050565b6000602082840312156100ce57600080fd5b81516001600160a01b03811681146100e557600080fd5b9392505050565b611a1d80620000fc6000396000f3fe608060405234801561001057600080fd5b50600436106101c45760003560e01c8063817b1cd2116100f9578063c8a22eb411610097578063e85abe0911610071578063e85abe09146103e0578063f2fde38b1461040c578063f69e20461461041f578063fb4cb32b1461042757600080fd5b8063c8a22eb41461037f578063d6343867146103ab578063d7ffca91146103b457600080fd5b8063a8aeb6c2116100d3578063a8aeb6c2146102fd578063adc9772e14610326578063bff1f9e114610339578063c0806b031461034257600080fd5b8063817b1cd2146102c05780638da5cb5b146102c95780639f8a13d7146102da57600080fd5b806336144c9a116101665780634be4d790116101405780634be4d790146102885780634e71d92d1461029d578063715018a6146102a55780637e3abeea146102ad57600080fd5b806336144c9a1461023057806344038f90146102775780634b3197131461027f57600080fd5b8063141a2a3f116101a2578063141a2a3f14610202578063153ab9df1461020a57806318e1fbfc1461021d57806332bc298c1461022657600080fd5b80630104db1b146101c957806301c234a8146101e6578063040a772e146101ef575b600080fd5b6101d362ed4e0081565b6040519081526020015b60405180910390f35b6101d36103e881565b6101d36101fd366004611862565b61043a565b6101d3600f81565b6101d3610218366004611862565b61068b565b6101d360065481565b6101d36201518081565b61025f61023e366004611862565b6001600160a01b039081166000908152600760205260409020600401541690565b6040516001600160a01b0390911681526020016101dd565b6101d3607881565b6101d360045481565b61029b61029636600461187d565b6106c1565b005b61029b6106f9565b61029b610b81565b6101d36102bb366004611862565b610bb7565b6101d360035481565b6000546001600160a01b031661025f565b6102ed6102e8366004611862565b610c27565b60405190151581526020016101dd565b6101d361030b366004611862565b6001600160a01b031660009081526007602052604090205490565b61029b610334366004611896565b610cbf565b6101d360025481565b610355610350366004611896565b6111ce565b6040805195865260208601949094529284019190915260608301521515608082015260a0016101dd565b6101d361038d366004611862565b6001600160a01b031660009081526007602052604090206003015490565b6101d360055481565b6101d36103c2366004611862565b6001600160a01b031660009081526007602052604090206001015490565b6101d36103ee366004611862565b6001600160a01b031660009081526007602052604090206002015490565b61029b61041a366004611862565b6112ca565b61029b611365565b6101d3610435366004611862565b61174e565b6001600160a01b03811660009081526007602052604081208180805b835481101561068157836000018181548110610474576104746118c0565b600091825260209091206004600590920201015460ff1661066f57428460000182815481106104a5576104a56118c0565b906000526020600020906005020160030154111561059d5783600101548460000182815481106104d7576104d76118c0565b906000526020600020906005020160020154111561057c5761057562015180610569610532876000018581548110610511576105116118c0565b906000526020600020906005020160020154426117bf90919063ffffffff16565b61056f6103e8610569600f8b6000018981548110610552576105526118c0565b6000918252602090912060059091020154906117d2565b906117de565b906117d2565b9150610662565b610575620151806105696105328760010154426117bf90919063ffffffff16565b83600101548460000182815481106105b7576105b76118c0565b906000526020600020906005020160020154111561063857610575620151806105696105328760000185815481106105f1576105f16118c0565b906000526020600020906005020160020154886000018681548110610618576106186118c0565b9060005260206000209060050201600301546117bf90919063ffffffff16565b61065f620151806105696105328760010154886000018681548110610618576106186118c0565b91505b61066c83836117ea565b92505b80610679816118ec565b915050610456565b5090949350505050565b60006106bb6106998361043a565b6001600160a01b038416600090815260076020526040902060020154906117ea565b92915050565b6000546001600160a01b031633146106f45760405162461bcd60e51b81526004016106eb90611907565b60405180910390fd5b600655565b3360009081526007602052604081209080805b83548110156109675783600001818154811061072a5761072a6118c0565b600091825260209091206004600590920201015460ff16610955574284600001828154811061075b5761075b6118c0565b90600052602060002090600502016003015411156107ef57836001015484600001828154811061078d5761078d6118c0565b90600052602060002090600502016002015411156107ce576107c762015180610569610532876000018581548110610511576105116118c0565b91506108e6565b6107c7620151806105696105328760010154426117bf90919063ffffffff16565b8360010154846000018281548110610809576108096118c0565b906000526020600020906005020160020154111561088357610843620151806105696105328760000185815481106105f1576105f16118c0565b9150600184600001828154811061085c5761085c6118c0565b60009182526020909120600590910201600401805460ff19169115159190911790556108e6565b6108aa620151806105696105328760010154886000018681548110610618576106186118c0565b915060018460000182815481106108c3576108c36118c0565b60009182526020909120600590910201600401805460ff19169115159190911790555b61091f828560000183815481106108ff576108ff6118c0565b9060005260206000209060050201600101546117ea90919063ffffffff16565b846000018281548110610934576109346118c0565b600091825260209091206001600590920201015561095283836117ea565b92505b8061095f816118ec565b91505061070c565b503360009081526007602052604090206002015480156109955761098b83826117ea565b6000600286015592505b600083116109dd5760405162461bcd60e51b81526020600482015260156024820152745573657220686173206e6f206469766964656e647360581b60448201526064016106eb565b6001546040516370a0823160e01b81523060048201526000916001600160a01b0316906370a0823190602401602060405180830381865afa158015610a26573d6000803e3d6000fd5b505050506040513d601f19601f82011682018060405250810190610a4a919061193c565b905083811015610a58578093505b426001868101919091555460405163a9059cbb60e01b8152336004820152602481018690526001600160a01b039091169063a9059cbb906044016020604051808303816000875af1158015610ab1573d6000803e3d6000fd5b505050506040513d601f19601f82011682018060405250810190610ad59190611955565b610b355760405162461bcd60e51b815260206004820152602b60248201527f436c61696d206661696c65642064756520746f206661696c656420616d6f756e60448201526a3a103a3930b739b332b91760a91b60648201526084016106eb565b600454610b4290856117ea565b60045560405184815233907f7084f5476618d8e60b11ef0d7d3f06914655adb8793e28ff7f018d4c76d505d59060200160405180910390a25050505050565b6000546001600160a01b03163314610bab5760405162461bcd60e51b81526004016106eb90611907565b610bb560006117f6565b565b6001600160a01b038116600090815260076020526040812081805b8254811015610c1f57610c0b836000018281548110610bf357610bf36118c0565b600091825260209091206005909102015483906117ea565b915080610c17816118ec565b915050610bd2565b509392505050565b6001600160a01b0381166000908152600760205260408120805415610cb6578054610c75906064906105699061016d908590610c6590600190611977565b81548110610552576105526118c0565b81548290610c8590600190611977565b81548110610c9557610c956118c0565b9060005260206000209060050201600101541015610cb65750600192915050565b50600092915050565b600654811015610d1d5760405162461bcd60e51b8152602060048201526024808201527f416d6f756e742069732062656c6f77206d696e696d756d207374616b65207661604482015263363ab29760e11b60648201526084016106eb565b6001546040516370a0823160e01b815233600482015282916001600160a01b0316906370a0823190602401602060405180830381865afa158015610d65573d6000803e3d6000fd5b505050506040513d601f19601f82011682018060405250810190610d89919061193c565b1015610de15760405162461bcd60e51b815260206004820152602160248201527f4d757374206861766520656e6f7567682062616c616e636520746f207374616b6044820152606560f81b60648201526084016106eb565b6001546040516323b872dd60e01b8152336004820152306024820152604481018390526001600160a01b03909116906323b872dd906064016020604051808303816000875af1158015610e38573d6000803e3d6000fd5b505050506040513d601f19601f82011682018060405250810190610e5c9190611955565b610ebc5760405162461bcd60e51b815260206004820152602b60248201527f5374616b65206661696c65642064756520746f206661696c656420616d6f756e60448201526a3a103a3930b739b332b91760a91b60648201526084016106eb565b336000908152600760205260408082206001600160a01b038516835291205415801590610ef257506001600160a01b0383163314155b15610f15576004810180546001600160a01b0319166001600160a01b0385161790555b60048101546001600160a01b031615610fd05760048101546001600160a01b03168015610fce576000610f4f6103e86105698660786117d2565b6001600160a01b038316600090815260076020526040902060020154909150610f7890826117ea565b6001600160a01b038316600081815260076020908152604091829020600201939093555183815233927f328838ddfc48ad5ae5531b1ad95dfb22b42ff1866853e474375ffef2c63d8e50910160405180910390a3505b505b80546110235742600180830191909155600254610fec916117ea565b6002556040513381527f9fd565cd14c3c391679eb0cad12a14dcf7534e9d3462bcb9b67a098a9bbbc24a9060200160405180910390a15b60048101546001600160a01b0316156110e3576040805160a0810190915281908061105f6110586103e86105698860786117d2565b86906117bf565b81526020016000815260200142815260200162ed4e0042611080919061198e565b81526000602091820181905283546001808201865594825290829020835160059092020190815590820151928101929092556040810151600283015560608101516003830155608001516004909101805460ff1916911515919091179055611173565b806000016040518060a001604052808481526020016000815260200142815260200162ed4e0042611114919061198e565b81526000602091820181905283546001808201865594825290829020835160059092020190815590820151928101929092556040810151600283015560608101516003830155608001516004909101805460ff19169115159190911790555b60035461118090836117ea565b6003556005546111919060016117ea565b60055560405182815233907f2cb77763bc1e8490c1a904905c4d74b4269919aca114464f4bb4d911e60de3649060200160405180910390a2505050565b6001600160a01b038216600090815260076020526040812080548291829182918291819088908110611202576112026118c0565b906000526020600020906005020160000154816000018881548110611229576112296118c0565b906000526020600020906005020160010154826000018981548110611250576112506118c0565b906000526020600020906005020160020154836000018a81548110611277576112776118c0565b906000526020600020906005020160030154846000018b8154811061129e5761129e6118c0565b6000918252602090912060059091020160040154939c929b50909950975060ff90911695509350505050565b6000546001600160a01b031633146112f45760405162461bcd60e51b81526004016106eb90611907565b6001600160a01b0381166113595760405162461bcd60e51b815260206004820152602660248201527f4f776e61626c653a206e6577206f776e657220697320746865207a65726f206160448201526564647265737360d01b60648201526084016106eb565b611362816117f6565b50565b60006113703361043a565b116113aa5760405162461bcd60e51b815260206004820152600a6024820152692737ba102437b63232b960b11b60448201526064016106eb565b336000818152600760205260408120916113c39061043a565b9050600080836000016040518060a001604052808581526020016000815260200142815260200162ed4e00426113f9919061198e565b8152600060209182018190528354600180820186559482528282208451600590920201908155918301519382019390935560408201516002820155606082015160038201556080909101516004909101805460ff19169115159190911790555b84548110156116db57846000018181548110611477576114776118c0565b600091825260209091206004600590920201015460ff166116c957428560000182815481106114a8576114a86118c0565b906000526020600020906005020160030154111561155c5784600101548560000182815481106114da576114da6118c0565b906000526020600020906005020160020154111561153b5761153462015180610569611514886000018581548110610511576105116118c0565b61056f6103e8610569600f8c6000018981548110610552576105526118c0565b915061167a565b611534620151806105696115148860010154426117bf90919063ffffffff16565b8460010154856000018281548110611576576115766118c0565b9060005260206000209060050201600201541115611617576115d7620151806105696115148860000185815481106115b0576115b06118c0565b906000526020600020906005020160020154896000018681548110610618576106186118c0565b915060018560000182815481106115f0576115f06118c0565b60009182526020909120600590910201600401805460ff191691151591909117905561167a565b61163e620151806105696115148860010154896000018681548110610618576106186118c0565b91506001856000018281548110611657576116576118c0565b60009182526020909120600590910201600401805460ff19169115159190911790555b611693828660000183815481106108ff576108ff6118c0565b8560000182815481106116a8576116a86118c0565b60009182526020909120600160059092020101556116c683836117ea565b92505b806116d3816118ec565b915050611459565b504260018501556003546116ef90846117ea565b6003556005546117009060016117ea565b60055560045461171090836117ea565b60045560405183815233907f5d511c2070e5a2dbcc6fbfbb3fd6704a11ab5fa74b793b81aacece2c7cc294059060200160405180910390a250505050565b6001600160a01b038116600090815260076020526040812081805b8254811015610c1f576117ab83600001828154811061178a5761178a6118c0565b906000526020600020906005020160010154836117ea90919063ffffffff16565b9150806117b7816118ec565b915050611769565b60006117cb8284611977565b9392505050565b60006117cb82846119a6565b60006117cb82846119c5565b60006117cb828461198e565b600080546001600160a01b038381166001600160a01b0319831681178455604051919092169283917f8be0079c531659141344cd1fd0a4f28419497f9722a3daafe3b4186f6b6457e09190a35050565b80356001600160a01b038116811461185d57600080fd5b919050565b60006020828403121561187457600080fd5b6117cb82611846565b60006020828403121561188f57600080fd5b5035919050565b600080604083850312156118a957600080fd5b6118b283611846565b946020939093013593505050565b634e487b7160e01b600052603260045260246000fd5b634e487b7160e01b600052601160045260246000fd5b6000600019821415611900576119006118d6565b5060010190565b6020808252818101527f4f776e61626c653a2063616c6c6572206973206e6f7420746865206f776e6572604082015260600190565b60006020828403121561194e57600080fd5b5051919050565b60006020828403121561196757600080fd5b815180151581146117cb57600080fd5b600082821015611989576119896118d6565b500390565b600082198211156119a1576119a16118d6565b500190565b60008160001904831182151516156119c0576119c06118d6565b500290565b6000826119e257634e487b7160e01b600052601260045260246000fd5b50049056fea26469706673582212200bab2c44bb83599407d018d3891195c2195dece7a2cb6124893cf93280d18b9964736f6c634300080a0033",
					"opcodes": "PUSH1 0x80 PUSH1 0x40 MSTORE PUSH9 0xAD78EBC5AC6200000 PUSH1 0x6 SSTORE CALLVALUE DUP1 ISZERO PUSH2 0x1D JUMPI PUSH1 0x0 DUP1 REVERT JUMPDEST POP PUSH1 0x40 MLOAD PUSH3 0x1B19 CODESIZE SUB DUP1 PUSH3 0x1B19 DUP4 CODECOPY DUP2 ADD PUSH1 0x40 DUP2 SWAP1 MSTORE PUSH2 0x3E SWAP2 PUSH2 0xBC JUMP JUMPDEST PUSH2 0x47 CALLER PUSH2 0x6C JUMP JUMPDEST PUSH1 0x1 DUP1 SLOAD PUSH1 0x1 PUSH1 0x1 PUSH1 0xA0 SHL SUB NOT AND PUSH1 0x1 PUSH1 0x1 PUSH1 0xA0 SHL SUB SWAP3 SWAP1 SWAP3 AND SWAP2 SWAP1 SWAP2 OR SWAP1 SSTORE PUSH2 0xEC JUMP JUMPDEST PUSH1 0x0 DUP1 SLOAD PUSH1 0x1 PUSH1 0x1 PUSH1 0xA0 SHL SUB DUP4 DUP2 AND PUSH1 0x1 PUSH1 0x1 PUSH1 0xA0 SHL SUB NOT DUP4 AND DUP2 OR DUP5 SSTORE PUSH1 0x40 MLOAD SWAP2 SWAP1 SWAP3 AND SWAP3 DUP4 SWAP2 PUSH32 0x8BE0079C531659141344CD1FD0A4F28419497F9722A3DAAFE3B4186F6B6457E0 SWAP2 SWAP1 LOG3 POP POP JUMP JUMPDEST PUSH1 0x0 PUSH1 0x20 DUP3 DUP5 SUB SLT ISZERO PUSH2 0xCE JUMPI PUSH1 0x0 DUP1 REVERT JUMPDEST DUP2 MLOAD PUSH1 0x1 PUSH1 0x1 PUSH1 0xA0 SHL SUB DUP2 AND DUP2 EQ PUSH2 0xE5 JUMPI PUSH1 0x0 DUP1 REVERT JUMPDEST SWAP4 SWAP3 POP POP POP JUMP JUMPDEST PUSH2 0x1A1D DUP1 PUSH3 0xFC PUSH1 0x0 CODECOPY PUSH1 0x0 RETURN INVALID PUSH1 0x80 PUSH1 0x40 MSTORE CALLVALUE DUP1 ISZERO PUSH2 0x10 JUMPI PUSH1 0x0 DUP1 REVERT JUMPDEST POP PUSH1 0x4 CALLDATASIZE LT PUSH2 0x1C4 JUMPI PUSH1 0x0 CALLDATALOAD PUSH1 0xE0 SHR DUP1 PUSH4 0x817B1CD2 GT PUSH2 0xF9 JUMPI DUP1 PUSH4 0xC8A22EB4 GT PUSH2 0x97 JUMPI DUP1 PUSH4 0xE85ABE09 GT PUSH2 0x71 JUMPI DUP1 PUSH4 0xE85ABE09 EQ PUSH2 0x3E0 JUMPI DUP1 PUSH4 0xF2FDE38B EQ PUSH2 0x40C JUMPI DUP1 PUSH4 0xF69E2046 EQ PUSH2 0x41F JUMPI DUP1 PUSH4 0xFB4CB32B EQ PUSH2 0x427 JUMPI PUSH1 0x0 DUP1 REVERT JUMPDEST DUP1 PUSH4 0xC8A22EB4 EQ PUSH2 0x37F JUMPI DUP1 PUSH4 0xD6343867 EQ PUSH2 0x3AB JUMPI DUP1 PUSH4 0xD7FFCA91 EQ PUSH2 0x3B4 JUMPI PUSH1 0x0 DUP1 REVERT JUMPDEST DUP1 PUSH4 0xA8AEB6C2 GT PUSH2 0xD3 JUMPI DUP1 PUSH4 0xA8AEB6C2 EQ PUSH2 0x2FD JUMPI DUP1 PUSH4 0xADC9772E EQ PUSH2 0x326 JUMPI DUP1 PUSH4 0xBFF1F9E1 EQ PUSH2 0x339 JUMPI DUP1 PUSH4 0xC0806B03 EQ PUSH2 0x342 JUMPI PUSH1 0x0 DUP1 REVERT JUMPDEST DUP1 PUSH4 0x817B1CD2 EQ PUSH2 0x2C0 JUMPI DUP1 PUSH4 0x8DA5CB5B EQ PUSH2 0x2C9 JUMPI DUP1 PUSH4 0x9F8A13D7 EQ PUSH2 0x2DA JUMPI PUSH1 0x0 DUP1 REVERT JUMPDEST DUP1 PUSH4 0x36144C9A GT PUSH2 0x166 JUMPI DUP1 PUSH4 0x4BE4D790 GT PUSH2 0x140 JUMPI DUP1 PUSH4 0x4BE4D790 EQ PUSH2 0x288 JUMPI DUP1 PUSH4 0x4E71D92D EQ PUSH2 0x29D JUMPI DUP1 PUSH4 0x715018A6 EQ PUSH2 0x2A5 JUMPI DUP1 PUSH4 0x7E3ABEEA EQ PUSH2 0x2AD JUMPI PUSH1 0x0 DUP1 REVERT JUMPDEST DUP1 PUSH4 0x36144C9A EQ PUSH2 0x230 JUMPI DUP1 PUSH4 0x44038F90 EQ PUSH2 0x277 JUMPI DUP1 PUSH4 0x4B319713 EQ PUSH2 0x27F JUMPI PUSH1 0x0 DUP1 REVERT JUMPDEST DUP1 PUSH4 0x141A2A3F GT PUSH2 0x1A2 JUMPI DUP1 PUSH4 0x141A2A3F EQ PUSH2 0x202 JUMPI DUP1 PUSH4 0x153AB9DF EQ PUSH2 0x20A JUMPI DUP1 PUSH4 0x18E1FBFC EQ PUSH2 0x21D JUMPI DUP1 PUSH4 0x32BC298C EQ PUSH2 0x226 JUMPI PUSH1 0x0 DUP1 REVERT JUMPDEST DUP1 PUSH4 0x104DB1B EQ PUSH2 0x1C9 JUMPI DUP1 PUSH4 0x1C234A8 EQ PUSH2 0x1E6 JUMPI DUP1 PUSH4 0x40A772E EQ PUSH2 0x1EF JUMPI JUMPDEST PUSH1 0x0 DUP1 REVERT JUMPDEST PUSH2 0x1D3 PUSH3 0xED4E00 DUP2 JUMP JUMPDEST PUSH1 0x40 MLOAD SWAP1 DUP2 MSTORE PUSH1 0x20 ADD JUMPDEST PUSH1 0x40 MLOAD DUP1 SWAP2 SUB SWAP1 RETURN JUMPDEST PUSH2 0x1D3 PUSH2 0x3E8 DUP2 JUMP JUMPDEST PUSH2 0x1D3 PUSH2 0x1FD CALLDATASIZE PUSH1 0x4 PUSH2 0x1862 JUMP JUMPDEST PUSH2 0x43A JUMP JUMPDEST PUSH2 0x1D3 PUSH1 0xF DUP2 JUMP JUMPDEST PUSH2 0x1D3 PUSH2 0x218 CALLDATASIZE PUSH1 0x4 PUSH2 0x1862 JUMP JUMPDEST PUSH2 0x68B JUMP JUMPDEST PUSH2 0x1D3 PUSH1 0x6 SLOAD DUP2 JUMP JUMPDEST PUSH2 0x1D3 PUSH3 0x15180 DUP2 JUMP JUMPDEST PUSH2 0x25F PUSH2 0x23E CALLDATASIZE PUSH1 0x4 PUSH2 0x1862 JUMP JUMPDEST PUSH1 0x1 PUSH1 0x1 PUSH1 0xA0 SHL SUB SWAP1 DUP2 AND PUSH1 0x0 SWAP1 DUP2 MSTORE PUSH1 0x7 PUSH1 0x20 MSTORE PUSH1 0x40 SWAP1 KECCAK256 PUSH1 0x4 ADD SLOAD AND SWAP1 JUMP JUMPDEST PUSH1 0x40 MLOAD PUSH1 0x1 PUSH1 0x1 PUSH1 0xA0 SHL SUB SWAP1 SWAP2 AND DUP2 MSTORE PUSH1 0x20 ADD PUSH2 0x1DD JUMP JUMPDEST PUSH2 0x1D3 PUSH1 0x78 DUP2 JUMP JUMPDEST PUSH2 0x1D3 PUSH1 0x4 SLOAD DUP2 JUMP JUMPDEST PUSH2 0x29B PUSH2 0x296 CALLDATASIZE PUSH1 0x4 PUSH2 0x187D JUMP JUMPDEST PUSH2 0x6C1 JUMP JUMPDEST STOP JUMPDEST PUSH2 0x29B PUSH2 0x6F9 JUMP JUMPDEST PUSH2 0x29B PUSH2 0xB81 JUMP JUMPDEST PUSH2 0x1D3 PUSH2 0x2BB CALLDATASIZE PUSH1 0x4 PUSH2 0x1862 JUMP JUMPDEST PUSH2 0xBB7 JUMP JUMPDEST PUSH2 0x1D3 PUSH1 0x3 SLOAD DUP2 JUMP JUMPDEST PUSH1 0x0 SLOAD PUSH1 0x1 PUSH1 0x1 PUSH1 0xA0 SHL SUB AND PUSH2 0x25F JUMP JUMPDEST PUSH2 0x2ED PUSH2 0x2E8 CALLDATASIZE PUSH1 0x4 PUSH2 0x1862 JUMP JUMPDEST PUSH2 0xC27 JUMP JUMPDEST PUSH1 0x40 MLOAD SWAP1 ISZERO ISZERO DUP2 MSTORE PUSH1 0x20 ADD PUSH2 0x1DD JUMP JUMPDEST PUSH2 0x1D3 PUSH2 0x30B CALLDATASIZE PUSH1 0x4 PUSH2 0x1862 JUMP JUMPDEST PUSH1 0x1 PUSH1 0x1 PUSH1 0xA0 SHL SUB AND PUSH1 0x0 SWAP1 DUP2 MSTORE PUSH1 0x7 PUSH1 0x20 MSTORE PUSH1 0x40 SWAP1 KECCAK256 SLOAD SWAP1 JUMP JUMPDEST PUSH2 0x29B PUSH2 0x334 CALLDATASIZE PUSH1 0x4 PUSH2 0x1896 JUMP JUMPDEST PUSH2 0xCBF JUMP JUMPDEST PUSH2 0x1D3 PUSH1 0x2 SLOAD DUP2 JUMP JUMPDEST PUSH2 0x355 PUSH2 0x350 CALLDATASIZE PUSH1 0x4 PUSH2 0x1896 JUMP JUMPDEST PUSH2 0x11CE JUMP JUMPDEST PUSH1 0x40 DUP1 MLOAD SWAP6 DUP7 MSTORE PUSH1 0x20 DUP7 ADD SWAP5 SWAP1 SWAP5 MSTORE SWAP3 DUP5 ADD SWAP2 SWAP1 SWAP2 MSTORE PUSH1 0x60 DUP4 ADD MSTORE ISZERO ISZERO PUSH1 0x80 DUP3 ADD MSTORE PUSH1 0xA0 ADD PUSH2 0x1DD JUMP JUMPDEST PUSH2 0x1D3 PUSH2 0x38D CALLDATASIZE PUSH1 0x4 PUSH2 0x1862 JUMP JUMPDEST PUSH1 0x1 PUSH1 0x1 PUSH1 0xA0 SHL SUB AND PUSH1 0x0 SWAP1 DUP2 MSTORE PUSH1 0x7 PUSH1 0x20 MSTORE PUSH1 0x40 SWAP1 KECCAK256 PUSH1 0x3 ADD SLOAD SWAP1 JUMP JUMPDEST PUSH2 0x1D3 PUSH1 0x5 SLOAD DUP2 JUMP JUMPDEST PUSH2 0x1D3 PUSH2 0x3C2 CALLDATASIZE PUSH1 0x4 PUSH2 0x1862 JUMP JUMPDEST PUSH1 0x1 PUSH1 0x1 PUSH1 0xA0 SHL SUB AND PUSH1 0x0 SWAP1 DUP2 MSTORE PUSH1 0x7 PUSH1 0x20 MSTORE PUSH1 0x40 SWAP1 KECCAK256 PUSH1 0x1 ADD SLOAD SWAP1 JUMP JUMPDEST PUSH2 0x1D3 PUSH2 0x3EE CALLDATASIZE PUSH1 0x4 PUSH2 0x1862 JUMP JUMPDEST PUSH1 0x1 PUSH1 0x1 PUSH1 0xA0 SHL SUB AND PUSH1 0x0 SWAP1 DUP2 MSTORE PUSH1 0x7 PUSH1 0x20 MSTORE PUSH1 0x40 SWAP1 KECCAK256 PUSH1 0x2 ADD SLOAD SWAP1 JUMP JUMPDEST PUSH2 0x29B PUSH2 0x41A CALLDATASIZE PUSH1 0x4 PUSH2 0x1862 JUMP JUMPDEST PUSH2 0x12CA JUMP JUMPDEST PUSH2 0x29B PUSH2 0x1365 JUMP JUMPDEST PUSH2 0x1D3 PUSH2 0x435 CALLDATASIZE PUSH1 0x4 PUSH2 0x1862 JUMP JUMPDEST PUSH2 0x174E JUMP JUMPDEST PUSH1 0x1 PUSH1 0x1 PUSH1 0xA0 SHL SUB DUP2 AND PUSH1 0x0 SWAP1 DUP2 MSTORE PUSH1 0x7 PUSH1 0x20 MSTORE PUSH1 0x40 DUP2 KECCAK256 DUP2 DUP1 DUP1 JUMPDEST DUP4 SLOAD DUP2 LT ISZERO PUSH2 0x681 JUMPI DUP4 PUSH1 0x0 ADD DUP2 DUP2 SLOAD DUP2 LT PUSH2 0x474 JUMPI PUSH2 0x474 PUSH2 0x18C0 JUMP JUMPDEST PUSH1 0x0 SWAP2 DUP3 MSTORE PUSH1 0x20 SWAP1 SWAP2 KECCAK256 PUSH1 0x4 PUSH1 0x5 SWAP1 SWAP3 MUL ADD ADD SLOAD PUSH1 0xFF AND PUSH2 0x66F JUMPI TIMESTAMP DUP5 PUSH1 0x0 ADD DUP3 DUP2 SLOAD DUP2 LT PUSH2 0x4A5 JUMPI PUSH2 0x4A5 PUSH2 0x18C0 JUMP JUMPDEST SWAP1 PUSH1 0x0 MSTORE PUSH1 0x20 PUSH1 0x0 KECCAK256 SWAP1 PUSH1 0x5 MUL ADD PUSH1 0x3 ADD SLOAD GT ISZERO PUSH2 0x59D JUMPI DUP4 PUSH1 0x1 ADD SLOAD DUP5 PUSH1 0x0 ADD DUP3 DUP2 SLOAD DUP2 LT PUSH2 0x4D7 JUMPI PUSH2 0x4D7 PUSH2 0x18C0 JUMP JUMPDEST SWAP1 PUSH1 0x0 MSTORE PUSH1 0x20 PUSH1 0x0 KECCAK256 SWAP1 PUSH1 0x5 MUL ADD PUSH1 0x2 ADD SLOAD GT ISZERO PUSH2 0x57C JUMPI PUSH2 0x575 PUSH3 0x15180 PUSH2 0x569 PUSH2 0x532 DUP8 PUSH1 0x0 ADD DUP6 DUP2 SLOAD DUP2 LT PUSH2 0x511 JUMPI PUSH2 0x511 PUSH2 0x18C0 JUMP JUMPDEST SWAP1 PUSH1 0x0 MSTORE PUSH1 0x20 PUSH1 0x0 KECCAK256 SWAP1 PUSH1 0x5 MUL ADD PUSH1 0x2 ADD SLOAD TIMESTAMP PUSH2 0x17BF SWAP1 SWAP2 SWAP1 PUSH4 0xFFFFFFFF AND JUMP JUMPDEST PUSH2 0x56F PUSH2 0x3E8 PUSH2 0x569 PUSH1 0xF DUP12 PUSH1 0x0 ADD DUP10 DUP2 SLOAD DUP2 LT PUSH2 0x552 JUMPI PUSH2 0x552 PUSH2 0x18C0 JUMP JUMPDEST PUSH1 0x0 SWAP2 DUP3 MSTORE PUSH1 0x20 SWAP1 SWAP2 KECCAK256 PUSH1 0x5 SWAP1 SWAP2 MUL ADD SLOAD SWAP1 PUSH2 0x17D2 JUMP JUMPDEST SWAP1 PUSH2 0x17DE JUMP JUMPDEST SWAP1 PUSH2 0x17D2 JUMP JUMPDEST SWAP2 POP PUSH2 0x662 JUMP JUMPDEST PUSH2 0x575 PUSH3 0x15180 PUSH2 0x569 PUSH2 0x532 DUP8 PUSH1 0x1 ADD SLOAD TIMESTAMP PUSH2 0x17BF SWAP1 SWAP2 SWAP1 PUSH4 0xFFFFFFFF AND JUMP JUMPDEST DUP4 PUSH1 0x1 ADD SLOAD DUP5 PUSH1 0x0 ADD DUP3 DUP2 SLOAD DUP2 LT PUSH2 0x5B7 JUMPI PUSH2 0x5B7 PUSH2 0x18C0 JUMP JUMPDEST SWAP1 PUSH1 0x0 MSTORE PUSH1 0x20 PUSH1 0x0 KECCAK256 SWAP1 PUSH1 0x5 MUL ADD PUSH1 0x2 ADD SLOAD GT ISZERO PUSH2 0x638 JUMPI PUSH2 0x575 PUSH3 0x15180 PUSH2 0x569 PUSH2 0x532 DUP8 PUSH1 0x0 ADD DUP6 DUP2 SLOAD DUP2 LT PUSH2 0x5F1 JUMPI PUSH2 0x5F1 PUSH2 0x18C0 JUMP JUMPDEST SWAP1 PUSH1 0x0 MSTORE PUSH1 0x20 PUSH1 0x0 KECCAK256 SWAP1 PUSH1 0x5 MUL ADD PUSH1 0x2 ADD SLOAD DUP9 PUSH1 0x0 ADD DUP7 DUP2 SLOAD DUP2 LT PUSH2 0x618 JUMPI PUSH2 0x618 PUSH2 0x18C0 JUMP JUMPDEST SWAP1 PUSH1 0x0 MSTORE PUSH1 0x20 PUSH1 0x0 KECCAK256 SWAP1 PUSH1 0x5 MUL ADD PUSH1 0x3 ADD SLOAD PUSH2 0x17BF SWAP1 SWAP2 SWAP1 PUSH4 0xFFFFFFFF AND JUMP JUMPDEST PUSH2 0x65F PUSH3 0x15180 PUSH2 0x569 PUSH2 0x532 DUP8 PUSH1 0x1 ADD SLOAD DUP9 PUSH1 0x0 ADD DUP7 DUP2 SLOAD DUP2 LT PUSH2 0x618 JUMPI PUSH2 0x618 PUSH2 0x18C0 JUMP JUMPDEST SWAP2 POP JUMPDEST PUSH2 0x66C DUP4 DUP4 PUSH2 0x17EA JUMP JUMPDEST SWAP3 POP JUMPDEST DUP1 PUSH2 0x679 DUP2 PUSH2 0x18EC JUMP JUMPDEST SWAP2 POP POP PUSH2 0x456 JUMP JUMPDEST POP SWAP1 SWAP5 SWAP4 POP POP POP POP JUMP JUMPDEST PUSH1 0x0 PUSH2 0x6BB PUSH2 0x699 DUP4 PUSH2 0x43A JUMP JUMPDEST PUSH1 0x1 PUSH1 0x1 PUSH1 0xA0 SHL SUB DUP5 AND PUSH1 0x0 SWAP1 DUP2 MSTORE PUSH1 0x7 PUSH1 0x20 MSTORE PUSH1 0x40 SWAP1 KECCAK256 PUSH1 0x2 ADD SLOAD SWAP1 PUSH2 0x17EA JUMP JUMPDEST SWAP3 SWAP2 POP POP JUMP JUMPDEST PUSH1 0x0 SLOAD PUSH1 0x1 PUSH1 0x1 PUSH1 0xA0 SHL SUB AND CALLER EQ PUSH2 0x6F4 JUMPI PUSH1 0x40 MLOAD PUSH3 0x461BCD PUSH1 0xE5 SHL DUP2 MSTORE PUSH1 0x4 ADD PUSH2 0x6EB SWAP1 PUSH2 0x1907 JUMP JUMPDEST PUSH1 0x40 MLOAD DUP1 SWAP2 SUB SWAP1 REVERT JUMPDEST PUSH1 0x6 SSTORE JUMP JUMPDEST CALLER PUSH1 0x0 SWAP1 DUP2 MSTORE PUSH1 0x7 PUSH1 0x20 MSTORE PUSH1 0x40 DUP2 KECCAK256 SWAP1 DUP1 DUP1 JUMPDEST DUP4 SLOAD DUP2 LT ISZERO PUSH2 0x967 JUMPI DUP4 PUSH1 0x0 ADD DUP2 DUP2 SLOAD DUP2 LT PUSH2 0x72A JUMPI PUSH2 0x72A PUSH2 0x18C0 JUMP JUMPDEST PUSH1 0x0 SWAP2 DUP3 MSTORE PUSH1 0x20 SWAP1 SWAP2 KECCAK256 PUSH1 0x4 PUSH1 0x5 SWAP1 SWAP3 MUL ADD ADD SLOAD PUSH1 0xFF AND PUSH2 0x955 JUMPI TIMESTAMP DUP5 PUSH1 0x0 ADD DUP3 DUP2 SLOAD DUP2 LT PUSH2 0x75B JUMPI PUSH2 0x75B PUSH2 0x18C0 JUMP JUMPDEST SWAP1 PUSH1 0x0 MSTORE PUSH1 0x20 PUSH1 0x0 KECCAK256 SWAP1 PUSH1 0x5 MUL ADD PUSH1 0x3 ADD SLOAD GT ISZERO PUSH2 0x7EF JUMPI DUP4 PUSH1 0x1 ADD SLOAD DUP5 PUSH1 0x0 ADD DUP3 DUP2 SLOAD DUP2 LT PUSH2 0x78D JUMPI PUSH2 0x78D PUSH2 0x18C0 JUMP JUMPDEST SWAP1 PUSH1 0x0 MSTORE PUSH1 0x20 PUSH1 0x0 KECCAK256 SWAP1 PUSH1 0x5 MUL ADD PUSH1 0x2 ADD SLOAD GT ISZERO PUSH2 0x7CE JUMPI PUSH2 0x7C7 PUSH3 0x15180 PUSH2 0x569 PUSH2 0x532 DUP8 PUSH1 0x0 ADD DUP6 DUP2 SLOAD DUP2 LT PUSH2 0x511 JUMPI PUSH2 0x511 PUSH2 0x18C0 JUMP JUMPDEST SWAP2 POP PUSH2 0x8E6 JUMP JUMPDEST PUSH2 0x7C7 PUSH3 0x15180 PUSH2 0x569 PUSH2 0x532 DUP8 PUSH1 0x1 ADD SLOAD TIMESTAMP PUSH2 0x17BF SWAP1 SWAP2 SWAP1 PUSH4 0xFFFFFFFF AND JUMP JUMPDEST DUP4 PUSH1 0x1 ADD SLOAD DUP5 PUSH1 0x0 ADD DUP3 DUP2 SLOAD DUP2 LT PUSH2 0x809 JUMPI PUSH2 0x809 PUSH2 0x18C0 JUMP JUMPDEST SWAP1 PUSH1 0x0 MSTORE PUSH1 0x20 PUSH1 0x0 KECCAK256 SWAP1 PUSH1 0x5 MUL ADD PUSH1 0x2 ADD SLOAD GT ISZERO PUSH2 0x883 JUMPI PUSH2 0x843 PUSH3 0x15180 PUSH2 0x569 PUSH2 0x532 DUP8 PUSH1 0x0 ADD DUP6 DUP2 SLOAD DUP2 LT PUSH2 0x5F1 JUMPI PUSH2 0x5F1 PUSH2 0x18C0 JUMP JUMPDEST SWAP2 POP PUSH1 0x1 DUP5 PUSH1 0x0 ADD DUP3 DUP2 SLOAD DUP2 LT PUSH2 0x85C JUMPI PUSH2 0x85C PUSH2 0x18C0 JUMP JUMPDEST PUSH1 0x0 SWAP2 DUP3 MSTORE PUSH1 0x20 SWAP1 SWAP2 KECCAK256 PUSH1 0x5 SWAP1 SWAP2 MUL ADD PUSH1 0x4 ADD DUP1 SLOAD PUSH1 0xFF NOT AND SWAP2 ISZERO ISZERO SWAP2 SWAP1 SWAP2 OR SWAP1 SSTORE PUSH2 0x8E6 JUMP JUMPDEST PUSH2 0x8AA PUSH3 0x15180 PUSH2 0x569 PUSH2 0x532 DUP8 PUSH1 0x1 ADD SLOAD DUP9 PUSH1 0x0 ADD DUP7 DUP2 SLOAD DUP2 LT PUSH2 0x618 JUMPI PUSH2 0x618 PUSH2 0x18C0 JUMP JUMPDEST SWAP2 POP PUSH1 0x1 DUP5 PUSH1 0x0 ADD DUP3 DUP2 SLOAD DUP2 LT PUSH2 0x8C3 JUMPI PUSH2 0x8C3 PUSH2 0x18C0 JUMP JUMPDEST PUSH1 0x0 SWAP2 DUP3 MSTORE PUSH1 0x20 SWAP1 SWAP2 KECCAK256 PUSH1 0x5 SWAP1 SWAP2 MUL ADD PUSH1 0x4 ADD DUP1 SLOAD PUSH1 0xFF NOT AND SWAP2 ISZERO ISZERO SWAP2 SWAP1 SWAP2 OR SWAP1 SSTORE JUMPDEST PUSH2 0x91F DUP3 DUP6 PUSH1 0x0 ADD DUP4 DUP2 SLOAD DUP2 LT PUSH2 0x8FF JUMPI PUSH2 0x8FF PUSH2 0x18C0 JUMP JUMPDEST SWAP1 PUSH1 0x0 MSTORE PUSH1 0x20 PUSH1 0x0 KECCAK256 SWAP1 PUSH1 0x5 MUL ADD PUSH1 0x1 ADD SLOAD PUSH2 0x17EA SWAP1 SWAP2 SWAP1 PUSH4 0xFFFFFFFF AND JUMP JUMPDEST DUP5 PUSH1 0x0 ADD DUP3 DUP2 SLOAD DUP2 LT PUSH2 0x934 JUMPI PUSH2 0x934 PUSH2 0x18C0 JUMP JUMPDEST PUSH1 0x0 SWAP2 DUP3 MSTORE PUSH1 0x20 SWAP1 SWAP2 KECCAK256 PUSH1 0x1 PUSH1 0x5 SWAP1 SWAP3 MUL ADD ADD SSTORE PUSH2 0x952 DUP4 DUP4 PUSH2 0x17EA JUMP JUMPDEST SWAP3 POP JUMPDEST DUP1 PUSH2 0x95F DUP2 PUSH2 0x18EC JUMP JUMPDEST SWAP2 POP POP PUSH2 0x70C JUMP JUMPDEST POP CALLER PUSH1 0x0 SWAP1 DUP2 MSTORE PUSH1 0x7 PUSH1 0x20 MSTORE PUSH1 0x40 SWAP1 KECCAK256 PUSH1 0x2 ADD SLOAD DUP1 ISZERO PUSH2 0x995 JUMPI PUSH2 0x98B DUP4 DUP3 PUSH2 0x17EA JUMP JUMPDEST PUSH1 0x0 PUSH1 0x2 DUP7 ADD SSTORE SWAP3 POP JUMPDEST PUSH1 0x0 DUP4 GT PUSH2 0x9DD JUMPI PUSH1 0x40 MLOAD PUSH3 0x461BCD PUSH1 0xE5 SHL DUP2 MSTORE PUSH1 0x20 PUSH1 0x4 DUP3 ADD MSTORE PUSH1 0x15 PUSH1 0x24 DUP3 ADD MSTORE PUSH21 0x5573657220686173206E6F206469766964656E6473 PUSH1 0x58 SHL PUSH1 0x44 DUP3 ADD MSTORE PUSH1 0x64 ADD PUSH2 0x6EB JUMP JUMPDEST PUSH1 0x1 SLOAD PUSH1 0x40 MLOAD PUSH4 0x70A08231 PUSH1 0xE0 SHL DUP2 MSTORE ADDRESS PUSH1 0x4 DUP3 ADD MSTORE PUSH1 0x0 SWAP2 PUSH1 0x1 PUSH1 0x1 PUSH1 0xA0 SHL SUB AND SWAP1 PUSH4 0x70A08231 SWAP1 PUSH1 0x24 ADD PUSH1 0x20 PUSH1 0x40 MLOAD DUP1 DUP4 SUB DUP2 DUP7 GAS STATICCALL ISZERO DUP1 ISZERO PUSH2 0xA26 JUMPI RETURNDATASIZE PUSH1 0x0 DUP1 RETURNDATACOPY RETURNDATASIZE PUSH1 0x0 REVERT JUMPDEST POP POP POP POP PUSH1 0x40 MLOAD RETURNDATASIZE PUSH1 0x1F NOT PUSH1 0x1F DUP3 ADD AND DUP3 ADD DUP1 PUSH1 0x40 MSTORE POP DUP2 ADD SWAP1 PUSH2 0xA4A SWAP2 SWAP1 PUSH2 0x193C JUMP JUMPDEST SWAP1 POP DUP4 DUP2 LT ISZERO PUSH2 0xA58 JUMPI DUP1 SWAP4 POP JUMPDEST TIMESTAMP PUSH1 0x1 DUP7 DUP2 ADD SWAP2 SWAP1 SWAP2 SSTORE SLOAD PUSH1 0x40 MLOAD PUSH4 0xA9059CBB PUSH1 0xE0 SHL DUP2 MSTORE CALLER PUSH1 0x4 DUP3 ADD MSTORE PUSH1 0x24 DUP2 ADD DUP7 SWAP1 MSTORE PUSH1 0x1 PUSH1 0x1 PUSH1 0xA0 SHL SUB SWAP1 SWAP2 AND SWAP1 PUSH4 0xA9059CBB SWAP1 PUSH1 0x44 ADD PUSH1 0x20 PUSH1 0x40 MLOAD DUP1 DUP4 SUB DUP2 PUSH1 0x0 DUP8 GAS CALL ISZERO DUP1 ISZERO PUSH2 0xAB1 JUMPI RETURNDATASIZE PUSH1 0x0 DUP1 RETURNDATACOPY RETURNDATASIZE PUSH1 0x0 REVERT JUMPDEST POP POP POP POP PUSH1 0x40 MLOAD RETURNDATASIZE PUSH1 0x1F NOT PUSH1 0x1F DUP3 ADD AND DUP3 ADD DUP1 PUSH1 0x40 MSTORE POP DUP2 ADD SWAP1 PUSH2 0xAD5 SWAP2 SWAP1 PUSH2 0x1955 JUMP JUMPDEST PUSH2 0xB35 JUMPI PUSH1 0x40 MLOAD PUSH3 0x461BCD PUSH1 0xE5 SHL DUP2 MSTORE PUSH1 0x20 PUSH1 0x4 DUP3 ADD MSTORE PUSH1 0x2B PUSH1 0x24 DUP3 ADD MSTORE PUSH32 0x436C61696D206661696C65642064756520746F206661696C656420616D6F756E PUSH1 0x44 DUP3 ADD MSTORE PUSH11 0x3A103A3930B739B332B917 PUSH1 0xA9 SHL PUSH1 0x64 DUP3 ADD MSTORE PUSH1 0x84 ADD PUSH2 0x6EB JUMP JUMPDEST PUSH1 0x4 SLOAD PUSH2 0xB42 SWAP1 DUP6 PUSH2 0x17EA JUMP JUMPDEST PUSH1 0x4 SSTORE PUSH1 0x40 MLOAD DUP5 DUP2 MSTORE CALLER SWAP1 PUSH32 0x7084F5476618D8E60B11EF0D7D3F06914655ADB8793E28FF7F018D4C76D505D5 SWAP1 PUSH1 0x20 ADD PUSH1 0x40 MLOAD DUP1 SWAP2 SUB SWAP1 LOG2 POP POP POP POP POP JUMP JUMPDEST PUSH1 0x0 SLOAD PUSH1 0x1 PUSH1 0x1 PUSH1 0xA0 SHL SUB AND CALLER EQ PUSH2 0xBAB JUMPI PUSH1 0x40 MLOAD PUSH3 0x461BCD PUSH1 0xE5 SHL DUP2 MSTORE PUSH1 0x4 ADD PUSH2 0x6EB SWAP1 PUSH2 0x1907 JUMP JUMPDEST PUSH2 0xBB5 PUSH1 0x0 PUSH2 0x17F6 JUMP JUMPDEST JUMP JUMPDEST PUSH1 0x1 PUSH1 0x1 PUSH1 0xA0 SHL SUB DUP2 AND PUSH1 0x0 SWAP1 DUP2 MSTORE PUSH1 0x7 PUSH1 0x20 MSTORE PUSH1 0x40 DUP2 KECCAK256 DUP2 DUP1 JUMPDEST DUP3 SLOAD DUP2 LT ISZERO PUSH2 0xC1F JUMPI PUSH2 0xC0B DUP4 PUSH1 0x0 ADD DUP3 DUP2 SLOAD DUP2 LT PUSH2 0xBF3 JUMPI PUSH2 0xBF3 PUSH2 0x18C0 JUMP JUMPDEST PUSH1 0x0 SWAP2 DUP3 MSTORE PUSH1 0x20 SWAP1 SWAP2 KECCAK256 PUSH1 0x5 SWAP1 SWAP2 MUL ADD SLOAD DUP4 SWAP1 PUSH2 0x17EA JUMP JUMPDEST SWAP2 POP DUP1 PUSH2 0xC17 DUP2 PUSH2 0x18EC JUMP JUMPDEST SWAP2 POP POP PUSH2 0xBD2 JUMP JUMPDEST POP SWAP4 SWAP3 POP POP POP JUMP JUMPDEST PUSH1 0x1 PUSH1 0x1 PUSH1 0xA0 SHL SUB DUP2 AND PUSH1 0x0 SWAP1 DUP2 MSTORE PUSH1 0x7 PUSH1 0x20 MSTORE PUSH1 0x40 DUP2 KECCAK256 DUP1 SLOAD ISZERO PUSH2 0xCB6 JUMPI DUP1 SLOAD PUSH2 0xC75 SWAP1 PUSH1 0x64 SWAP1 PUSH2 0x569 SWAP1 PUSH2 0x16D SWAP1 DUP6 SWAP1 PUSH2 0xC65 SWAP1 PUSH1 0x1 SWAP1 PUSH2 0x1977 JUMP JUMPDEST DUP2 SLOAD DUP2 LT PUSH2 0x552 JUMPI PUSH2 0x552 PUSH2 0x18C0 JUMP JUMPDEST DUP2 SLOAD DUP3 SWAP1 PUSH2 0xC85 SWAP1 PUSH1 0x1 SWAP1 PUSH2 0x1977 JUMP JUMPDEST DUP2 SLOAD DUP2 LT PUSH2 0xC95 JUMPI PUSH2 0xC95 PUSH2 0x18C0 JUMP JUMPDEST SWAP1 PUSH1 0x0 MSTORE PUSH1 0x20 PUSH1 0x0 KECCAK256 SWAP1 PUSH1 0x5 MUL ADD PUSH1 0x1 ADD SLOAD LT ISZERO PUSH2 0xCB6 JUMPI POP PUSH1 0x1 SWAP3 SWAP2 POP POP JUMP JUMPDEST POP PUSH1 0x0 SWAP3 SWAP2 POP POP JUMP JUMPDEST PUSH1 0x6 SLOAD DUP2 LT ISZERO PUSH2 0xD1D JUMPI PUSH1 0x40 MLOAD PUSH3 0x461BCD PUSH1 0xE5 SHL DUP2 MSTORE PUSH1 0x20 PUSH1 0x4 DUP3 ADD MSTORE PUSH1 0x24 DUP1 DUP3 ADD MSTORE PUSH32 0x416D6F756E742069732062656C6F77206D696E696D756D207374616B65207661 PUSH1 0x44 DUP3 ADD MSTORE PUSH4 0x363AB297 PUSH1 0xE1 SHL PUSH1 0x64 DUP3 ADD MSTORE PUSH1 0x84 ADD PUSH2 0x6EB JUMP JUMPDEST PUSH1 0x1 SLOAD PUSH1 0x40 MLOAD PUSH4 0x70A08231 PUSH1 0xE0 SHL DUP2 MSTORE CALLER PUSH1 0x4 DUP3 ADD MSTORE DUP3 SWAP2 PUSH1 0x1 PUSH1 0x1 PUSH1 0xA0 SHL SUB AND SWAP1 PUSH4 0x70A08231 SWAP1 PUSH1 0x24 ADD PUSH1 0x20 PUSH1 0x40 MLOAD DUP1 DUP4 SUB DUP2 DUP7 GAS STATICCALL ISZERO DUP1 ISZERO PUSH2 0xD65 JUMPI RETURNDATASIZE PUSH1 0x0 DUP1 RETURNDATACOPY RETURNDATASIZE PUSH1 0x0 REVERT JUMPDEST POP POP POP POP PUSH1 0x40 MLOAD RETURNDATASIZE PUSH1 0x1F NOT PUSH1 0x1F DUP3 ADD AND DUP3 ADD DUP1 PUSH1 0x40 MSTORE POP DUP2 ADD SWAP1 PUSH2 0xD89 SWAP2 SWAP1 PUSH2 0x193C JUMP JUMPDEST LT ISZERO PUSH2 0xDE1 JUMPI PUSH1 0x40 MLOAD PUSH3 0x461BCD PUSH1 0xE5 SHL DUP2 MSTORE PUSH1 0x20 PUSH1 0x4 DUP3 ADD MSTORE PUSH1 0x21 PUSH1 0x24 DUP3 ADD MSTORE PUSH32 0x4D757374206861766520656E6F7567682062616C616E636520746F207374616B PUSH1 0x44 DUP3 ADD MSTORE PUSH1 0x65 PUSH1 0xF8 SHL PUSH1 0x64 DUP3 ADD MSTORE PUSH1 0x84 ADD PUSH2 0x6EB JUMP JUMPDEST PUSH1 0x1 SLOAD PUSH1 0x40 MLOAD PUSH4 0x23B872DD PUSH1 0xE0 SHL DUP2 MSTORE CALLER PUSH1 0x4 DUP3 ADD MSTORE ADDRESS PUSH1 0x24 DUP3 ADD MSTORE PUSH1 0x44 DUP2 ADD DUP4 SWAP1 MSTORE PUSH1 0x1 PUSH1 0x1 PUSH1 0xA0 SHL SUB SWAP1 SWAP2 AND SWAP1 PUSH4 0x23B872DD SWAP1 PUSH1 0x64 ADD PUSH1 0x20 PUSH1 0x40 MLOAD DUP1 DUP4 SUB DUP2 PUSH1 0x0 DUP8 GAS CALL ISZERO DUP1 ISZERO PUSH2 0xE38 JUMPI RETURNDATASIZE PUSH1 0x0 DUP1 RETURNDATACOPY RETURNDATASIZE PUSH1 0x0 REVERT JUMPDEST POP POP POP POP PUSH1 0x40 MLOAD RETURNDATASIZE PUSH1 0x1F NOT PUSH1 0x1F DUP3 ADD AND DUP3 ADD DUP1 PUSH1 0x40 MSTORE POP DUP2 ADD SWAP1 PUSH2 0xE5C SWAP2 SWAP1 PUSH2 0x1955 JUMP JUMPDEST PUSH2 0xEBC JUMPI PUSH1 0x40 MLOAD PUSH3 0x461BCD PUSH1 0xE5 SHL DUP2 MSTORE PUSH1 0x20 PUSH1 0x4 DUP3 ADD MSTORE PUSH1 0x2B PUSH1 0x24 DUP3 ADD MSTORE PUSH32 0x5374616B65206661696C65642064756520746F206661696C656420616D6F756E PUSH1 0x44 DUP3 ADD MSTORE PUSH11 0x3A103A3930B739B332B917 PUSH1 0xA9 SHL PUSH1 0x64 DUP3 ADD MSTORE PUSH1 0x84 ADD PUSH2 0x6EB JUMP JUMPDEST CALLER PUSH1 0x0 SWAP1 DUP2 MSTORE PUSH1 0x7 PUSH1 0x20 MSTORE PUSH1 0x40 DUP1 DUP3 KECCAK256 PUSH1 0x1 PUSH1 0x1 PUSH1 0xA0 SHL SUB DUP6 AND DUP4 MSTORE SWAP2 KECCAK256 SLOAD ISZERO DUP1 ISZERO SWAP1 PUSH2 0xEF2 JUMPI POP PUSH1 0x1 PUSH1 0x1 PUSH1 0xA0 SHL SUB DUP4 AND CALLER EQ ISZERO JUMPDEST ISZERO PUSH2 0xF15 JUMPI PUSH1 0x4 DUP2 ADD DUP1 SLOAD PUSH1 0x1 PUSH1 0x1 PUSH1 0xA0 SHL SUB NOT AND PUSH1 0x1 PUSH1 0x1 PUSH1 0xA0 SHL SUB DUP6 AND OR SWAP1 SSTORE JUMPDEST PUSH1 0x4 DUP2 ADD SLOAD PUSH1 0x1 PUSH1 0x1 PUSH1 0xA0 SHL SUB AND ISZERO PUSH2 0xFD0 JUMPI PUSH1 0x4 DUP2 ADD SLOAD PUSH1 0x1 PUSH1 0x1 PUSH1 0xA0 SHL SUB AND DUP1 ISZERO PUSH2 0xFCE JUMPI PUSH1 0x0 PUSH2 0xF4F PUSH2 0x3E8 PUSH2 0x569 DUP7 PUSH1 0x78 PUSH2 0x17D2 JUMP JUMPDEST PUSH1 0x1 PUSH1 0x1 PUSH1 0xA0 SHL SUB DUP4 AND PUSH1 0x0 SWAP1 DUP2 MSTORE PUSH1 0x7 PUSH1 0x20 MSTORE PUSH1 0x40 SWAP1 KECCAK256 PUSH1 0x2 ADD SLOAD SWAP1 SWAP2 POP PUSH2 0xF78 SWAP1 DUP3 PUSH2 0x17EA JUMP JUMPDEST PUSH1 0x1 PUSH1 0x1 PUSH1 0xA0 SHL SUB DUP4 AND PUSH1 0x0 DUP2 DUP2 MSTORE PUSH1 0x7 PUSH1 0x20 SWAP1 DUP2 MSTORE PUSH1 0x40 SWAP2 DUP3 SWAP1 KECCAK256 PUSH1 0x2 ADD SWAP4 SWAP1 SWAP4 SSTORE MLOAD DUP4 DUP2 MSTORE CALLER SWAP3 PUSH32 0x328838DDFC48AD5AE5531B1AD95DFB22B42FF1866853E474375FFEF2C63D8E50 SWAP2 ADD PUSH1 0x40 MLOAD DUP1 SWAP2 SUB SWAP1 LOG3 POP JUMPDEST POP JUMPDEST DUP1 SLOAD PUSH2 0x1023 JUMPI TIMESTAMP PUSH1 0x1 DUP1 DUP4 ADD SWAP2 SWAP1 SWAP2 SSTORE PUSH1 0x2 SLOAD PUSH2 0xFEC SWAP2 PUSH2 0x17EA JUMP JUMPDEST PUSH1 0x2 SSTORE PUSH1 0x40 MLOAD CALLER DUP2 MSTORE PUSH32 0x9FD565CD14C3C391679EB0CAD12A14DCF7534E9D3462BCB9B67A098A9BBBC24A SWAP1 PUSH1 0x20 ADD PUSH1 0x40 MLOAD DUP1 SWAP2 SUB SWAP1 LOG1 JUMPDEST PUSH1 0x4 DUP2 ADD SLOAD PUSH1 0x1 PUSH1 0x1 PUSH1 0xA0 SHL SUB AND ISZERO PUSH2 0x10E3 JUMPI PUSH1 0x40 DUP1 MLOAD PUSH1 0xA0 DUP2 ADD SWAP1 SWAP2 MSTORE DUP2 SWAP1 DUP1 PUSH2 0x105F PUSH2 0x1058 PUSH2 0x3E8 PUSH2 0x569 DUP9 PUSH1 0x78 PUSH2 0x17D2 JUMP JUMPDEST DUP7 SWAP1 PUSH2 0x17BF JUMP JUMPDEST DUP2 MSTORE PUSH1 0x20 ADD PUSH1 0x0 DUP2 MSTORE PUSH1 0x20 ADD TIMESTAMP DUP2 MSTORE PUSH1 0x20 ADD PUSH3 0xED4E00 TIMESTAMP PUSH2 0x1080 SWAP2 SWAP1 PUSH2 0x198E JUMP JUMPDEST DUP2 MSTORE PUSH1 0x0 PUSH1 0x20 SWAP2 DUP3 ADD DUP2 SWAP1 MSTORE DUP4 SLOAD PUSH1 0x1 DUP1 DUP3 ADD DUP7 SSTORE SWAP5 DUP3 MSTORE SWAP1 DUP3 SWAP1 KECCAK256 DUP4 MLOAD PUSH1 0x5 SWAP1 SWAP3 MUL ADD SWAP1 DUP2 SSTORE SWAP1 DUP3 ADD MLOAD SWAP3 DUP2 ADD SWAP3 SWAP1 SWAP3 SSTORE PUSH1 0x40 DUP2 ADD MLOAD PUSH1 0x2 DUP4 ADD SSTORE PUSH1 0x60 DUP2 ADD MLOAD PUSH1 0x3 DUP4 ADD SSTORE PUSH1 0x80 ADD MLOAD PUSH1 0x4 SWAP1 SWAP2 ADD DUP1 SLOAD PUSH1 0xFF NOT AND SWAP2 ISZERO ISZERO SWAP2 SWAP1 SWAP2 OR SWAP1 SSTORE PUSH2 0x1173 JUMP JUMPDEST DUP1 PUSH1 0x0 ADD PUSH1 0x40 MLOAD DUP1 PUSH1 0xA0 ADD PUSH1 0x40 MSTORE DUP1 DUP5 DUP2 MSTORE PUSH1 0x20 ADD PUSH1 0x0 DUP2 MSTORE PUSH1 0x20 ADD TIMESTAMP DUP2 MSTORE PUSH1 0x20 ADD PUSH3 0xED4E00 TIMESTAMP PUSH2 0x1114 SWAP2 SWAP1 PUSH2 0x198E JUMP JUMPDEST DUP2 MSTORE PUSH1 0x0 PUSH1 0x20 SWAP2 DUP3 ADD DUP2 SWAP1 MSTORE DUP4 SLOAD PUSH1 0x1 DUP1 DUP3 ADD DUP7 SSTORE SWAP5 DUP3 MSTORE SWAP1 DUP3 SWAP1 KECCAK256 DUP4 MLOAD PUSH1 0x5 SWAP1 SWAP3 MUL ADD SWAP1 DUP2 SSTORE SWAP1 DUP3 ADD MLOAD SWAP3 DUP2 ADD SWAP3 SWAP1 SWAP3 SSTORE PUSH1 0x40 DUP2 ADD MLOAD PUSH1 0x2 DUP4 ADD SSTORE PUSH1 0x60 DUP2 ADD MLOAD PUSH1 0x3 DUP4 ADD SSTORE PUSH1 0x80 ADD MLOAD PUSH1 0x4 SWAP1 SWAP2 ADD DUP1 SLOAD PUSH1 0xFF NOT AND SWAP2 ISZERO ISZERO SWAP2 SWAP1 SWAP2 OR SWAP1 SSTORE JUMPDEST PUSH1 0x3 SLOAD PUSH2 0x1180 SWAP1 DUP4 PUSH2 0x17EA JUMP JUMPDEST PUSH1 0x3 SSTORE PUSH1 0x5 SLOAD PUSH2 0x1191 SWAP1 PUSH1 0x1 PUSH2 0x17EA JUMP JUMPDEST PUSH1 0x5 SSTORE PUSH1 0x40 MLOAD DUP3 DUP2 MSTORE CALLER SWAP1 PUSH32 0x2CB77763BC1E8490C1A904905C4D74B4269919ACA114464F4BB4D911E60DE364 SWAP1 PUSH1 0x20 ADD PUSH1 0x40 MLOAD DUP1 SWAP2 SUB SWAP1 LOG2 POP POP POP JUMP JUMPDEST PUSH1 0x1 PUSH1 0x1 PUSH1 0xA0 SHL SUB DUP3 AND PUSH1 0x0 SWAP1 DUP2 MSTORE PUSH1 0x7 PUSH1 0x20 MSTORE PUSH1 0x40 DUP2 KECCAK256 DUP1 SLOAD DUP3 SWAP2 DUP3 SWAP2 DUP3 SWAP2 DUP3 SWAP2 DUP2 SWAP1 DUP9 SWAP1 DUP2 LT PUSH2 0x1202 JUMPI PUSH2 0x1202 PUSH2 0x18C0 JUMP JUMPDEST SWAP1 PUSH1 0x0 MSTORE PUSH1 0x20 PUSH1 0x0 KECCAK256 SWAP1 PUSH1 0x5 MUL ADD PUSH1 0x0 ADD SLOAD DUP2 PUSH1 0x0 ADD DUP9 DUP2 SLOAD DUP2 LT PUSH2 0x1229 JUMPI PUSH2 0x1229 PUSH2 0x18C0 JUMP JUMPDEST SWAP1 PUSH1 0x0 MSTORE PUSH1 0x20 PUSH1 0x0 KECCAK256 SWAP1 PUSH1 0x5 MUL ADD PUSH1 0x1 ADD SLOAD DUP3 PUSH1 0x0 ADD DUP10 DUP2 SLOAD DUP2 LT PUSH2 0x1250 JUMPI PUSH2 0x1250 PUSH2 0x18C0 JUMP JUMPDEST SWAP1 PUSH1 0x0 MSTORE PUSH1 0x20 PUSH1 0x0 KECCAK256 SWAP1 PUSH1 0x5 MUL ADD PUSH1 0x2 ADD SLOAD DUP4 PUSH1 0x0 ADD DUP11 DUP2 SLOAD DUP2 LT PUSH2 0x1277 JUMPI PUSH2 0x1277 PUSH2 0x18C0 JUMP JUMPDEST SWAP1 PUSH1 0x0 MSTORE PUSH1 0x20 PUSH1 0x0 KECCAK256 SWAP1 PUSH1 0x5 MUL ADD PUSH1 0x3 ADD SLOAD DUP5 PUSH1 0x0 ADD DUP12 DUP2 SLOAD DUP2 LT PUSH2 0x129E JUMPI PUSH2 0x129E PUSH2 0x18C0 JUMP JUMPDEST PUSH1 0x0 SWAP2 DUP3 MSTORE PUSH1 0x20 SWAP1 SWAP2 KECCAK256 PUSH1 0x5 SWAP1 SWAP2 MUL ADD PUSH1 0x4 ADD SLOAD SWAP4 SWAP13 SWAP3 SWAP12 POP SWAP1 SWAP10 POP SWAP8 POP PUSH1 0xFF SWAP1 SWAP2 AND SWAP6 POP SWAP4 POP POP POP POP JUMP JUMPDEST PUSH1 0x0 SLOAD PUSH1 0x1 PUSH1 0x1 PUSH1 0xA0 SHL SUB AND CALLER EQ PUSH2 0x12F4 JUMPI PUSH1 0x40 MLOAD PUSH3 0x461BCD PUSH1 0xE5 SHL DUP2 MSTORE PUSH1 0x4 ADD PUSH2 0x6EB SWAP1 PUSH2 0x1907 JUMP JUMPDEST PUSH1 0x1 PUSH1 0x1 PUSH1 0xA0 SHL SUB DUP2 AND PUSH2 0x1359 JUMPI PUSH1 0x40 MLOAD PUSH3 0x461BCD PUSH1 0xE5 SHL DUP2 MSTORE PUSH1 0x20 PUSH1 0x4 DUP3 ADD MSTORE PUSH1 0x26 PUSH1 0x24 DUP3 ADD MSTORE PUSH32 0x4F776E61626C653A206E6577206F776E657220697320746865207A65726F2061 PUSH1 0x44 DUP3 ADD MSTORE PUSH6 0x646472657373 PUSH1 0xD0 SHL PUSH1 0x64 DUP3 ADD MSTORE PUSH1 0x84 ADD PUSH2 0x6EB JUMP JUMPDEST PUSH2 0x1362 DUP2 PUSH2 0x17F6 JUMP JUMPDEST POP JUMP JUMPDEST PUSH1 0x0 PUSH2 0x1370 CALLER PUSH2 0x43A JUMP JUMPDEST GT PUSH2 0x13AA JUMPI PUSH1 0x40 MLOAD PUSH3 0x461BCD PUSH1 0xE5 SHL DUP2 MSTORE PUSH1 0x20 PUSH1 0x4 DUP3 ADD MSTORE PUSH1 0xA PUSH1 0x24 DUP3 ADD MSTORE PUSH10 0x2737BA102437B63232B9 PUSH1 0xB1 SHL PUSH1 0x44 DUP3 ADD MSTORE PUSH1 0x64 ADD PUSH2 0x6EB JUMP JUMPDEST CALLER PUSH1 0x0 DUP2 DUP2 MSTORE PUSH1 0x7 PUSH1 0x20 MSTORE PUSH1 0x40 DUP2 KECCAK256 SWAP2 PUSH2 0x13C3 SWAP1 PUSH2 0x43A JUMP JUMPDEST SWAP1 POP PUSH1 0x0 DUP1 DUP4 PUSH1 0x0 ADD PUSH1 0x40 MLOAD DUP1 PUSH1 0xA0 ADD PUSH1 0x40 MSTORE DUP1 DUP6 DUP2 MSTORE PUSH1 0x20 ADD PUSH1 0x0 DUP2 MSTORE PUSH1 0x20 ADD TIMESTAMP DUP2 MSTORE PUSH1 0x20 ADD PUSH3 0xED4E00 TIMESTAMP PUSH2 0x13F9 SWAP2 SWAP1 PUSH2 0x198E JUMP JUMPDEST DUP2 MSTORE PUSH1 0x0 PUSH1 0x20 SWAP2 DUP3 ADD DUP2 SWAP1 MSTORE DUP4 SLOAD PUSH1 0x1 DUP1 DUP3 ADD DUP7 SSTORE SWAP5 DUP3 MSTORE DUP3 DUP3 KECCAK256 DUP5 MLOAD PUSH1 0x5 SWAP1 SWAP3 MUL ADD SWAP1 DUP2 SSTORE SWAP2 DUP4 ADD MLOAD SWAP4 DUP3 ADD SWAP4 SWAP1 SWAP4 SSTORE PUSH1 0x40 DUP3 ADD MLOAD PUSH1 0x2 DUP3 ADD SSTORE PUSH1 0x60 DUP3 ADD MLOAD PUSH1 0x3 DUP3 ADD SSTORE PUSH1 0x80 SWAP1 SWAP2 ADD MLOAD PUSH1 0x4 SWAP1 SWAP2 ADD DUP1 SLOAD PUSH1 0xFF NOT AND SWAP2 ISZERO ISZERO SWAP2 SWAP1 SWAP2 OR SWAP1 SSTORE JUMPDEST DUP5 SLOAD DUP2 LT ISZERO PUSH2 0x16DB JUMPI DUP5 PUSH1 0x0 ADD DUP2 DUP2 SLOAD DUP2 LT PUSH2 0x1477 JUMPI PUSH2 0x1477 PUSH2 0x18C0 JUMP JUMPDEST PUSH1 0x0 SWAP2 DUP3 MSTORE PUSH1 0x20 SWAP1 SWAP2 KECCAK256 PUSH1 0x4 PUSH1 0x5 SWAP1 SWAP3 MUL ADD ADD SLOAD PUSH1 0xFF AND PUSH2 0x16C9 JUMPI TIMESTAMP DUP6 PUSH1 0x0 ADD DUP3 DUP2 SLOAD DUP2 LT PUSH2 0x14A8 JUMPI PUSH2 0x14A8 PUSH2 0x18C0 JUMP JUMPDEST SWAP1 PUSH1 0x0 MSTORE PUSH1 0x20 PUSH1 0x0 KECCAK256 SWAP1 PUSH1 0x5 MUL ADD PUSH1 0x3 ADD SLOAD GT ISZERO PUSH2 0x155C JUMPI DUP5 PUSH1 0x1 ADD SLOAD DUP6 PUSH1 0x0 ADD DUP3 DUP2 SLOAD DUP2 LT PUSH2 0x14DA JUMPI PUSH2 0x14DA PUSH2 0x18C0 JUMP JUMPDEST SWAP1 PUSH1 0x0 MSTORE PUSH1 0x20 PUSH1 0x0 KECCAK256 SWAP1 PUSH1 0x5 MUL ADD PUSH1 0x2 ADD SLOAD GT ISZERO PUSH2 0x153B JUMPI PUSH2 0x1534 PUSH3 0x15180 PUSH2 0x569 PUSH2 0x1514 DUP9 PUSH1 0x0 ADD DUP6 DUP2 SLOAD DUP2 LT PUSH2 0x511 JUMPI PUSH2 0x511 PUSH2 0x18C0 JUMP JUMPDEST PUSH2 0x56F PUSH2 0x3E8 PUSH2 0x569 PUSH1 0xF DUP13 PUSH1 0x0 ADD DUP10 DUP2 SLOAD DUP2 LT PUSH2 0x552 JUMPI PUSH2 0x552 PUSH2 0x18C0 JUMP JUMPDEST SWAP2 POP PUSH2 0x167A JUMP JUMPDEST PUSH2 0x1534 PUSH3 0x15180 PUSH2 0x569 PUSH2 0x1514 DUP9 PUSH1 0x1 ADD SLOAD TIMESTAMP PUSH2 0x17BF SWAP1 SWAP2 SWAP1 PUSH4 0xFFFFFFFF AND JUMP JUMPDEST DUP5 PUSH1 0x1 ADD SLOAD DUP6 PUSH1 0x0 ADD DUP3 DUP2 SLOAD DUP2 LT PUSH2 0x1576 JUMPI PUSH2 0x1576 PUSH2 0x18C0 JUMP JUMPDEST SWAP1 PUSH1 0x0 MSTORE PUSH1 0x20 PUSH1 0x0 KECCAK256 SWAP1 PUSH1 0x5 MUL ADD PUSH1 0x2 ADD SLOAD GT ISZERO PUSH2 0x1617 JUMPI PUSH2 0x15D7 PUSH3 0x15180 PUSH2 0x569 PUSH2 0x1514 DUP9 PUSH1 0x0 ADD DUP6 DUP2 SLOAD DUP2 LT PUSH2 0x15B0 JUMPI PUSH2 0x15B0 PUSH2 0x18C0 JUMP JUMPDEST SWAP1 PUSH1 0x0 MSTORE PUSH1 0x20 PUSH1 0x0 KECCAK256 SWAP1 PUSH1 0x5 MUL ADD PUSH1 0x2 ADD SLOAD DUP10 PUSH1 0x0 ADD DUP7 DUP2 SLOAD DUP2 LT PUSH2 0x618 JUMPI PUSH2 0x618 PUSH2 0x18C0 JUMP JUMPDEST SWAP2 POP PUSH1 0x1 DUP6 PUSH1 0x0 ADD DUP3 DUP2 SLOAD DUP2 LT PUSH2 0x15F0 JUMPI PUSH2 0x15F0 PUSH2 0x18C0 JUMP JUMPDEST PUSH1 0x0 SWAP2 DUP3 MSTORE PUSH1 0x20 SWAP1 SWAP2 KECCAK256 PUSH1 0x5 SWAP1 SWAP2 MUL ADD PUSH1 0x4 ADD DUP1 SLOAD PUSH1 0xFF NOT AND SWAP2 ISZERO ISZERO SWAP2 SWAP1 SWAP2 OR SWAP1 SSTORE PUSH2 0x167A JUMP JUMPDEST PUSH2 0x163E PUSH3 0x15180 PUSH2 0x569 PUSH2 0x1514 DUP9 PUSH1 0x1 ADD SLOAD DUP10 PUSH1 0x0 ADD DUP7 DUP2 SLOAD DUP2 LT PUSH2 0x618 JUMPI PUSH2 0x618 PUSH2 0x18C0 JUMP JUMPDEST SWAP2 POP PUSH1 0x1 DUP6 PUSH1 0x0 ADD DUP3 DUP2 SLOAD DUP2 LT PUSH2 0x1657 JUMPI PUSH2 0x1657 PUSH2 0x18C0 JUMP JUMPDEST PUSH1 0x0 SWAP2 DUP3 MSTORE PUSH1 0x20 SWAP1 SWAP2 KECCAK256 PUSH1 0x5 SWAP1 SWAP2 MUL ADD PUSH1 0x4 ADD DUP1 SLOAD PUSH1 0xFF NOT AND SWAP2 ISZERO ISZERO SWAP2 SWAP1 SWAP2 OR SWAP1 SSTORE JUMPDEST PUSH2 0x1693 DUP3 DUP7 PUSH1 0x0 ADD DUP4 DUP2 SLOAD DUP2 LT PUSH2 0x8FF JUMPI PUSH2 0x8FF PUSH2 0x18C0 JUMP JUMPDEST DUP6 PUSH1 0x0 ADD DUP3 DUP2 SLOAD DUP2 LT PUSH2 0x16A8 JUMPI PUSH2 0x16A8 PUSH2 0x18C0 JUMP JUMPDEST PUSH1 0x0 SWAP2 DUP3 MSTORE PUSH1 0x20 SWAP1 SWAP2 KECCAK256 PUSH1 0x1 PUSH1 0x5 SWAP1 SWAP3 MUL ADD ADD SSTORE PUSH2 0x16C6 DUP4 DUP4 PUSH2 0x17EA JUMP JUMPDEST SWAP3 POP JUMPDEST DUP1 PUSH2 0x16D3 DUP2 PUSH2 0x18EC JUMP JUMPDEST SWAP2 POP POP PUSH2 0x1459 JUMP JUMPDEST POP TIMESTAMP PUSH1 0x1 DUP6 ADD SSTORE PUSH1 0x3 SLOAD PUSH2 0x16EF SWAP1 DUP5 PUSH2 0x17EA JUMP JUMPDEST PUSH1 0x3 SSTORE PUSH1 0x5 SLOAD PUSH2 0x1700 SWAP1 PUSH1 0x1 PUSH2 0x17EA JUMP JUMPDEST PUSH1 0x5 SSTORE PUSH1 0x4 SLOAD PUSH2 0x1710 SWAP1 DUP4 PUSH2 0x17EA JUMP JUMPDEST PUSH1 0x4 SSTORE PUSH1 0x40 MLOAD DUP4 DUP2 MSTORE CALLER SWAP1 PUSH32 0x5D511C2070E5A2DBCC6FBFBB3FD6704A11AB5FA74B793B81AACECE2C7CC29405 SWAP1 PUSH1 0x20 ADD PUSH1 0x40 MLOAD DUP1 SWAP2 SUB SWAP1 LOG2 POP POP POP POP JUMP JUMPDEST PUSH1 0x1 PUSH1 0x1 PUSH1 0xA0 SHL SUB DUP2 AND PUSH1 0x0 SWAP1 DUP2 MSTORE PUSH1 0x7 PUSH1 0x20 MSTORE PUSH1 0x40 DUP2 KECCAK256 DUP2 DUP1 JUMPDEST DUP3 SLOAD DUP2 LT ISZERO PUSH2 0xC1F JUMPI PUSH2 0x17AB DUP4 PUSH1 0x0 ADD DUP3 DUP2 SLOAD DUP2 LT PUSH2 0x178A JUMPI PUSH2 0x178A PUSH2 0x18C0 JUMP JUMPDEST SWAP1 PUSH1 0x0 MSTORE PUSH1 0x20 PUSH1 0x0 KECCAK256 SWAP1 PUSH1 0x5 MUL ADD PUSH1 0x1 ADD SLOAD DUP4 PUSH2 0x17EA SWAP1 SWAP2 SWAP1 PUSH4 0xFFFFFFFF AND JUMP JUMPDEST SWAP2 POP DUP1 PUSH2 0x17B7 DUP2 PUSH2 0x18EC JUMP JUMPDEST SWAP2 POP POP PUSH2 0x1769 JUMP JUMPDEST PUSH1 0x0 PUSH2 0x17CB DUP3 DUP5 PUSH2 0x1977 JUMP JUMPDEST SWAP4 SWAP3 POP POP POP JUMP JUMPDEST PUSH1 0x0 PUSH2 0x17CB DUP3 DUP5 PUSH2 0x19A6 JUMP JUMPDEST PUSH1 0x0 PUSH2 0x17CB DUP3 DUP5 PUSH2 0x19C5 JUMP JUMPDEST PUSH1 0x0 PUSH2 0x17CB DUP3 DUP5 PUSH2 0x198E JUMP JUMPDEST PUSH1 0x0 DUP1 SLOAD PUSH1 0x1 PUSH1 0x1 PUSH1 0xA0 SHL SUB DUP4 DUP2 AND PUSH1 0x1 PUSH1 0x1 PUSH1 0xA0 SHL SUB NOT DUP4 AND DUP2 OR DUP5 SSTORE PUSH1 0x40 MLOAD SWAP2 SWAP1 SWAP3 AND SWAP3 DUP4 SWAP2 PUSH32 0x8BE0079C531659141344CD1FD0A4F28419497F9722A3DAAFE3B4186F6B6457E0 SWAP2 SWAP1 LOG3 POP POP JUMP JUMPDEST DUP1 CALLDATALOAD PUSH1 0x1 PUSH1 0x1 PUSH1 0xA0 SHL SUB DUP2 AND DUP2 EQ PUSH2 0x185D JUMPI PUSH1 0x0 DUP1 REVERT JUMPDEST SWAP2 SWAP1 POP JUMP JUMPDEST PUSH1 0x0 PUSH1 0x20 DUP3 DUP5 SUB SLT ISZERO PUSH2 0x1874 JUMPI PUSH1 0x0 DUP1 REVERT JUMPDEST PUSH2 0x17CB DUP3 PUSH2 0x1846 JUMP JUMPDEST PUSH1 0x0 PUSH1 0x20 DUP3 DUP5 SUB SLT ISZERO PUSH2 0x188F JUMPI PUSH1 0x0 DUP1 REVERT JUMPDEST POP CALLDATALOAD SWAP2 SWAP1 POP JUMP JUMPDEST PUSH1 0x0 DUP1 PUSH1 0x40 DUP4 DUP6 SUB SLT ISZERO PUSH2 0x18A9 JUMPI PUSH1 0x0 DUP1 REVERT JUMPDEST PUSH2 0x18B2 DUP4 PUSH2 0x1846 JUMP JUMPDEST SWAP5 PUSH1 0x20 SWAP4 SWAP1 SWAP4 ADD CALLDATALOAD SWAP4 POP POP POP JUMP JUMPDEST PUSH4 0x4E487B71 PUSH1 0xE0 SHL PUSH1 0x0 MSTORE PUSH1 0x32 PUSH1 0x4 MSTORE PUSH1 0x24 PUSH1 0x0 REVERT JUMPDEST PUSH4 0x4E487B71 PUSH1 0xE0 SHL PUSH1 0x0 MSTORE PUSH1 0x11 PUSH1 0x4 MSTORE PUSH1 0x24 PUSH1 0x0 REVERT JUMPDEST PUSH1 0x0 PUSH1 0x0 NOT DUP3 EQ ISZERO PUSH2 0x1900 JUMPI PUSH2 0x1900 PUSH2 0x18D6 JUMP JUMPDEST POP PUSH1 0x1 ADD SWAP1 JUMP JUMPDEST PUSH1 0x20 DUP1 DUP3 MSTORE DUP2 DUP2 ADD MSTORE PUSH32 0x4F776E61626C653A2063616C6C6572206973206E6F7420746865206F776E6572 PUSH1 0x40 DUP3 ADD MSTORE PUSH1 0x60 ADD SWAP1 JUMP JUMPDEST PUSH1 0x0 PUSH1 0x20 DUP3 DUP5 SUB SLT ISZERO PUSH2 0x194E JUMPI PUSH1 0x0 DUP1 REVERT JUMPDEST POP MLOAD SWAP2 SWAP1 POP JUMP JUMPDEST PUSH1 0x0 PUSH1 0x20 DUP3 DUP5 SUB SLT ISZERO PUSH2 0x1967 JUMPI PUSH1 0x0 DUP1 REVERT JUMPDEST DUP2 MLOAD DUP1 ISZERO ISZERO DUP2 EQ PUSH2 0x17CB JUMPI PUSH1 0x0 DUP1 REVERT JUMPDEST PUSH1 0x0 DUP3 DUP3 LT ISZERO PUSH2 0x1989 JUMPI PUSH2 0x1989 PUSH2 0x18D6 JUMP JUMPDEST POP SUB SWAP1 JUMP JUMPDEST PUSH1 0x0 DUP3 NOT DUP3 GT ISZERO PUSH2 0x19A1 JUMPI PUSH2 0x19A1 PUSH2 0x18D6 JUMP JUMPDEST POP ADD SWAP1 JUMP JUMPDEST PUSH1 0x0 DUP2 PUSH1 0x0 NOT DIV DUP4 GT DUP3 ISZERO ISZERO AND ISZERO PUSH2 0x19C0 JUMPI PUSH2 0x19C0 PUSH2 0x18D6 JUMP JUMPDEST POP MUL SWAP1 JUMP JUMPDEST PUSH1 0x0 DUP3 PUSH2 0x19E2 JUMPI PUSH4 0x4E487B71 PUSH1 0xE0 SHL PUSH1 0x0 MSTORE PUSH1 0x12 PUSH1 0x4 MSTORE PUSH1 0x24 PUSH1 0x0 REVERT JUMPDEST POP DIV SWAP1 JUMP INVALID LOG2 PUSH5 0x6970667358 0x22 SLT KECCAK256 SIGNEXTEND 0xAB 0x2C DIFFICULTY 0xBB DUP4 MSIZE SWAP5 SMOD 0xD0 XOR 0xD3 DUP10 GT SWAP6 0xC2 NOT 0x5D 0xEC 0xE7 LOG2 0xCB PUSH2 0x2489 EXTCODECOPY 0xF9 ORIGIN DUP1 0xD1 DUP12 SWAP10 PUSH5 0x736F6C6343 STOP ADDMOD EXP STOP CALLER "
				},
				"gasEstimates": {
					"creation": {
						"codeDepositCost": "1337000",
						"executionCost": "infinite",
						"totalCost": "infinite"
					},
					"external": {
						"PERCENTS_DAILY()": "230",
						"PERCENTS_DIVIDER()": "253",
						"REFERRAL_PERCENTS()": "252",
						"STAKING_PERIOD()": "231",
						"TIME_STEP()": "296",
						"claim()": "infinite",
						"compound()": "infinite",
						"getUserAmountOfDeposits(address)": "2571",
						"getUserAvailable(address)": "infinite",
						"getUserCheckpoint(address)": "2621",
						"getUserDepositInfo(address,uint256)": "22286",
						"getUserDividends(address)": "infinite",
						"getUserReferralBonus(address)": "2576",
						"getUserReferralCount(address)": "2577",
						"getUserReferrer(address)": "2619",
						"getUserTotalDeposits(address)": "infinite",
						"getUserTotalWithdrawn(address)": "infinite",
						"isActive(address)": "infinite",
						"minimumStakeValue()": "2374",
						"owner()": "2399",
						"renounceOwnership()": "28203",
						"setMinimumStakeValue(uint256)": "24509",
						"stake(address,uint256)": "infinite",
						"totalDepositCount()": "2351",
						"totalStaked()": "2330",
						"totalUsers()": "2373",
						"totalWithdrawn()": "2374",
						"transferOwnership(address)": "28375"
					}
				},
				"methodIdentifiers": {
					"PERCENTS_DAILY()": "141a2a3f",
					"PERCENTS_DIVIDER()": "01c234a8",
					"REFERRAL_PERCENTS()": "44038f90",
					"STAKING_PERIOD()": "0104db1b",
					"TIME_STEP()": "32bc298c",
					"claim()": "4e71d92d",
					"compound()": "f69e2046",
					"getUserAmountOfDeposits(address)": "a8aeb6c2",
					"getUserAvailable(address)": "153ab9df",
					"getUserCheckpoint(address)": "d7ffca91",
					"getUserDepositInfo(address,uint256)": "c0806b03",
					"getUserDividends(address)": "040a772e",
					"getUserReferralBonus(address)": "e85abe09",
					"getUserReferralCount(address)": "c8a22eb4",
					"getUserReferrer(address)": "36144c9a",
					"getUserTotalDeposits(address)": "7e3abeea",
					"getUserTotalWithdrawn(address)": "fb4cb32b",
					"isActive(address)": "9f8a13d7",
					"minimumStakeValue()": "18e1fbfc",
					"owner()": "8da5cb5b",
					"renounceOwnership()": "715018a6",
					"setMinimumStakeValue(uint256)": "4be4d790",
					"stake(address,uint256)": "adc9772e",
					"totalDepositCount()": "d6343867",
					"totalStaked()": "817b1cd2",
					"totalUsers()": "bff1f9e1",
					"totalWithdrawn()": "4b319713",
					"transferOwnership(address)": "f2fde38b"
				}
			},
			"storageLayout": {
				"storage": [
					{
						"astId": 7,
						"contract": "BCStaking.sol:BillionCashStaking",
						"label": "_owner",
						"offset": 0,
						"slot": "0",
						"type": "t_address"
					},
					{
						"astId": 1155,
						"contract": "BCStaking.sol:BillionCashStaking",
						"label": "BC",
						"offset": 0,
						"slot": "1",
						"type": "t_contract(ERC20)690"
					},
					{
						"astId": 1157,
						"contract": "BCStaking.sol:BillionCashStaking",
						"label": "totalUsers",
						"offset": 0,
						"slot": "2",
						"type": "t_uint256"
					},
					{
						"astId": 1159,
						"contract": "BCStaking.sol:BillionCashStaking",
						"label": "totalStaked",
						"offset": 0,
						"slot": "3",
						"type": "t_uint256"
					},
					{
						"astId": 1161,
						"contract": "BCStaking.sol:BillionCashStaking",
						"label": "totalWithdrawn",
						"offset": 0,
						"slot": "4",
						"type": "t_uint256"
					},
					{
						"astId": 1163,
						"contract": "BCStaking.sol:BillionCashStaking",
						"label": "totalDepositCount",
						"offset": 0,
						"slot": "5",
						"type": "t_uint256"
					},
					{
						"astId": 1170,
						"contract": "BCStaking.sol:BillionCashStaking",
						"label": "minimumStakeValue",
						"offset": 0,
						"slot": "6",
						"type": "t_uint256"
					},
					{
						"astId": 1199,
						"contract": "BCStaking.sol:BillionCashStaking",
						"label": "users",
						"offset": 0,
						"slot": "7",
						"type": "t_mapping(t_address,t_struct(User)1194_storage)"
					}
				],
				"types": {
					"t_address": {
						"encoding": "inplace",
						"label": "address",
						"numberOfBytes": "20"
					},
					"t_array(t_struct(Deposit)1181_storage)dyn_storage": {
						"base": "t_struct(Deposit)1181_storage",
						"encoding": "dynamic_array",
						"label": "struct BillionCashStaking.Deposit[]",
						"numberOfBytes": "32"
					},
					"t_bool": {
						"encoding": "inplace",
						"label": "bool",
						"numberOfBytes": "1"
					},
					"t_contract(ERC20)690": {
						"encoding": "inplace",
						"label": "contract ERC20",
						"numberOfBytes": "20"
					},
					"t_mapping(t_address,t_struct(User)1194_storage)": {
						"encoding": "mapping",
						"key": "t_address",
						"label": "mapping(address => struct BillionCashStaking.User)",
						"numberOfBytes": "32",
						"value": "t_struct(User)1194_storage"
					},
					"t_struct(Deposit)1181_storage": {
						"encoding": "inplace",
						"label": "struct BillionCashStaking.Deposit",
						"members": [
							{
								"astId": 1172,
								"contract": "BCStaking.sol:BillionCashStaking",
								"label": "amount",
								"offset": 0,
								"slot": "0",
								"type": "t_uint256"
							},
							{
								"astId": 1174,
								"contract": "BCStaking.sol:BillionCashStaking",
								"label": "withdrawn",
								"offset": 0,
								"slot": "1",
								"type": "t_uint256"
							},
							{
								"astId": 1176,
								"contract": "BCStaking.sol:BillionCashStaking",
								"label": "startTime",
								"offset": 0,
								"slot": "2",
								"type": "t_uint256"
							},
							{
								"astId": 1178,
								"contract": "BCStaking.sol:BillionCashStaking",
								"label": "endTime",
								"offset": 0,
								"slot": "3",
								"type": "t_uint256"
							},
							{
								"astId": 1180,
								"contract": "BCStaking.sol:BillionCashStaking",
								"label": "ended",
								"offset": 0,
								"slot": "4",
								"type": "t_bool"
							}
						],
						"numberOfBytes": "160"
					},
					"t_struct(User)1194_storage": {
						"encoding": "inplace",
						"label": "struct BillionCashStaking.User",
						"members": [
							{
								"astId": 1185,
								"contract": "BCStaking.sol:BillionCashStaking",
								"label": "deposits",
								"offset": 0,
								"slot": "0",
								"type": "t_array(t_struct(Deposit)1181_storage)dyn_storage"
							},
							{
								"astId": 1187,
								"contract": "BCStaking.sol:BillionCashStaking",
								"label": "checkpoint",
								"offset": 0,
								"slot": "1",
								"type": "t_uint256"
							},
							{
								"astId": 1189,
								"contract": "BCStaking.sol:BillionCashStaking",
								"label": "bonus",
								"offset": 0,
								"slot": "2",
								"type": "t_uint256"
							},
							{
								"astId": 1191,
								"contract": "BCStaking.sol:BillionCashStaking",
								"label": "referralCount",
								"offset": 0,
								"slot": "3",
								"type": "t_uint256"
							},
							{
								"astId": 1193,
								"contract": "BCStaking.sol:BillionCashStaking",
								"label": "referrer",
								"offset": 0,
								"slot": "4",
								"type": "t_address"
							}
						],
						"numberOfBytes": "160"
					},
					"t_uint256": {
						"encoding": "inplace",
						"label": "uint256",
						"numberOfBytes": "32"
					}
				}
			},
			"userdoc": {
				"kind": "user",
				"methods": {},
				"version": 1
			}
		}
	}
}