{
	"BCStaking.sol": {
		"BillionCashStaking": {
			"abi": [
				{
					"inputs": [
						{
							"internalType": "contract ERC20",
							"name": "_token",
							"type": "address"
						}
					],
					"stateMutability": "nonpayable",
					"type": "constructor"
				},
				{
					"anonymous": false,
					"inputs": [
						{
							"indexed": true,
							"internalType": "address",
							"name": "user",
							"type": "address"
						},
						{
							"indexed": false,
							"internalType": "uint256",
							"name": "amount",
							"type": "uint256"
						}
					],
					"name": "NewDeposit",
					"type": "event"
				},
				{
					"anonymous": false,
					"inputs": [
						{
							"indexed": false,
							"internalType": "address",
							"name": "user",
							"type": "address"
						}
					],
					"name": "Newbie",
					"type": "event"
				},
				{
					"anonymous": false,
					"inputs": [
						{
							"indexed": true,
							"internalType": "address",
							"name": "previousOwner",
							"type": "address"
						},
						{
							"indexed": true,
							"internalType": "address",
							"name": "newOwner",
							"type": "address"
						}
					],
					"name": "OwnershipTransferred",
					"type": "event"
				},
				{
					"anonymous": false,
					"inputs": [
						{
							"indexed": true,
							"internalType": "address",
							"name": "referrer",
							"type": "address"
						},
						{
							"indexed": true,
							"internalType": "address",
							"name": "referral",
							"type": "address"
						},
						{
							"indexed": false,
							"internalType": "uint256",
							"name": "amount",
							"type": "uint256"
						}
					],
					"name": "RefBonus",
					"type": "event"
				},
				{
					"anonymous": false,
					"inputs": [
						{
							"indexed": true,
							"internalType": "address",
							"name": "user",
							"type": "address"
						},
						{
							"indexed": false,
							"internalType": "uint256",
							"name": "amount",
							"type": "uint256"
						}
					],
					"name": "Withdrawn",
					"type": "event"
				},
				{
					"anonymous": false,
					"inputs": [
						{
							"indexed": true,
							"internalType": "address",
							"name": "user",
							"type": "address"
						},
						{
							"indexed": false,
							"internalType": "uint256",
							"name": "reinvestAmount",
							"type": "uint256"
						}
					],
					"name": "onReinvestment",
					"type": "event"
				},
				{
					"inputs": [],
					"name": "DAILY_ROI",
					"outputs": [
						{
							"internalType": "uint256",
							"name": "",
							"type": "uint256"
						}
					],
					"stateMutability": "view",
					"type": "function"
				},
				{
					"inputs": [],
					"name": "PERCENTS_DIVIDER",
					"outputs": [
						{
							"internalType": "uint256",
							"name": "",
							"type": "uint256"
						}
					],
					"stateMutability": "view",
					"type": "function"
				},
				{
					"inputs": [],
					"name": "REFERRAL_PERCENTS",
					"outputs": [
						{
							"internalType": "uint256",
							"name": "",
							"type": "uint256"
						}
					],
					"stateMutability": "view",
					"type": "function"
				},
				{
					"inputs": [],
					"name": "STAKING_PERIOD",
					"outputs": [
						{
							"internalType": "uint256",
							"name": "",
							"type": "uint256"
						}
					],
					"stateMutability": "view",
					"type": "function"
				},
				{
					"inputs": [],
					"name": "TIME_STEP",
					"outputs": [
						{
							"internalType": "uint256",
							"name": "",
							"type": "uint256"
						}
					],
					"stateMutability": "view",
					"type": "function"
				},
				{
					"inputs": [],
					"name": "claim",
					"outputs": [],
					"stateMutability": "nonpayable",
					"type": "function"
				},
				{
					"inputs": [],
					"name": "compound",
					"outputs": [],
					"stateMutability": "nonpayable",
					"type": "function"
				},
				{
					"inputs": [
						{
							"internalType": "address",
							"name": "userAddress",
							"type": "address"
						}
					],
					"name": "getUserAmountOfDeposits",
					"outputs": [
						{
							"internalType": "uint256",
							"name": "",
							"type": "uint256"
						}
					],
					"stateMutability": "view",
					"type": "function"
				},
				{
					"inputs": [
						{
							"internalType": "address",
							"name": "userAddress",
							"type": "address"
						}
					],
					"name": "getUserAvailable",
					"outputs": [
						{
							"internalType": "uint256",
							"name": "",
							"type": "uint256"
						}
					],
					"stateMutability": "view",
					"type": "function"
				},
				{
					"inputs": [
						{
							"internalType": "address",
							"name": "userAddress",
							"type": "address"
						}
					],
					"name": "getUserCheckpoint",
					"outputs": [
						{
							"internalType": "uint256",
							"name": "",
							"type": "uint256"
						}
					],
					"stateMutability": "view",
					"type": "function"
				},
				{
					"inputs": [
						{
							"internalType": "address",
							"name": "userAddress",
							"type": "address"
						},
						{
							"internalType": "uint256",
							"name": "index",
							"type": "uint256"
						}
					],
					"name": "getUserDepositInfo",
					"outputs": [
						{
							"internalType": "uint256",
							"name": "",
							"type": "uint256"
						},
						{
							"internalType": "uint256",
							"name": "",
							"type": "uint256"
						},
						{
							"internalType": "uint256",
							"name": "",
							"type": "uint256"
						},
						{
							"internalType": "uint256",
							"name": "",
							"type": "uint256"
						},
						{
							"internalType": "bool",
							"name": "",
							"type": "bool"
						}
					],
					"stateMutability": "view",
					"type": "function"
				},
				{
					"inputs": [
						{
							"internalType": "address",
							"name": "userAddress",
							"type": "address"
						}
					],
					"name": "getUserDividends",
					"outputs": [
						{
							"internalType": "uint256",
							"name": "",
							"type": "uint256"
						}
					],
					"stateMutability": "view",
					"type": "function"
				},
				{
					"inputs": [
						{
							"internalType": "address",
							"name": "userAddress",
							"type": "address"
						}
					],
					"name": "getUserReferralBonus",
					"outputs": [
						{
							"internalType": "uint256",
							"name": "",
							"type": "uint256"
						}
					],
					"stateMutability": "view",
					"type": "function"
				},
				{
					"inputs": [
						{
							"internalType": "address",
							"name": "userAddress",
							"type": "address"
						}
					],
					"name": "getUserReferralCount",
					"outputs": [
						{
							"internalType": "uint256",
							"name": "",
							"type": "uint256"
						}
					],
					"stateMutability": "view",
					"type": "function"
				},
				{
					"inputs": [
						{
							"internalType": "address",
							"name": "userAddress",
							"type": "address"
						}
					],
					"name": "getUserReferrer",
					"outputs": [
						{
							"internalType": "address",
							"name": "",
							"type": "address"
						}
					],
					"stateMutability": "view",
					"type": "function"
				},
				{
					"inputs": [
						{
							"internalType": "address",
							"name": "userAddress",
							"type": "address"
						}
					],
					"name": "getUserTotalDeposits",
					"outputs": [
						{
							"internalType": "uint256",
							"name": "",
							"type": "uint256"
						}
					],
					"stateMutability": "view",
					"type": "function"
				},
				{
					"inputs": [
						{
							"internalType": "address",
							"name": "userAddress",
							"type": "address"
						}
					],
					"name": "getUserTotalWithdrawn",
					"outputs": [
						{
							"internalType": "uint256",
							"name": "",
							"type": "uint256"
						}
					],
					"stateMutability": "view",
					"type": "function"
				},
				{
					"inputs": [],
					"name": "minimumStakeValue",
					"outputs": [
						{
							"internalType": "uint256",
							"name": "",
							"type": "uint256"
						}
					],
					"stateMutability": "view",
					"type": "function"
				},
				{
					"inputs": [],
					"name": "owner",
					"outputs": [
						{
							"internalType": "address",
							"name": "",
							"type": "address"
						}
					],
					"stateMutability": "view",
					"type": "function"
				},
				{
					"inputs": [],
					"name": "renounceOwnership",
					"outputs": [],
					"stateMutability": "nonpayable",
					"type": "function"
				},
				{
					"inputs": [
						{
							"internalType": "uint256",
							"name": "_minimumStakeValue",
							"type": "uint256"
						}
					],
					"name": "setMinimumStakeValue",
					"outputs": [],
					"stateMutability": "nonpayable",
					"type": "function"
				},
				{
					"inputs": [
						{
							"internalType": "address",
							"name": "referrer",
							"type": "address"
						},
						{
							"internalType": "uint256",
							"name": "amount",
							"type": "uint256"
						}
					],
					"name": "stake",
					"outputs": [],
					"stateMutability": "nonpayable",
					"type": "function"
				},
				{
					"inputs": [],
					"name": "totalDepositCount",
					"outputs": [
						{
							"internalType": "uint256",
							"name": "",
							"type": "uint256"
						}
					],
					"stateMutability": "view",
					"type": "function"
				},
				{
					"inputs": [],
					"name": "totalStaked",
					"outputs": [
						{
							"internalType": "uint256",
							"name": "",
							"type": "uint256"
						}
					],
					"stateMutability": "view",
					"type": "function"
				},
				{
					"inputs": [],
					"name": "totalUsers",
					"outputs": [
						{
							"internalType": "uint256",
							"name": "",
							"type": "uint256"
						}
					],
					"stateMutability": "view",
					"type": "function"
				},
				{
					"inputs": [],
					"name": "totalWithdrawn",
					"outputs": [
						{
							"internalType": "uint256",
							"name": "",
							"type": "uint256"
						}
					],
					"stateMutability": "view",
					"type": "function"
				},
				{
					"inputs": [
						{
							"internalType": "address",
							"name": "newOwner",
							"type": "address"
						}
					],
					"name": "transferOwnership",
					"outputs": [],
					"stateMutability": "nonpayable",
					"type": "function"
				}
			],
			"devdoc": {
				"kind": "dev",
				"methods": {
					"owner()": {
						"details": "Returns the address of the current owner."
					},
					"renounceOwnership()": {
						"details": "Leaves the contract without owner. It will not be possible to call `onlyOwner` functions anymore. Can only be called by the current owner. NOTE: Renouncing ownership will leave the contract without an owner, thereby removing any functionality that is only available to the owner."
					},
					"transferOwnership(address)": {
						"details": "Transfers ownership of the contract to a new account (`newOwner`). Can only be called by the current owner."
					}
				},
				"version": 1
			},
			"evm": {
				"assembly": "    /* \"BCStaking.sol\":241:15557  contract BillionCashStaking is Ownable {... */\n  mstore(0x40, 0x80)\n    /* \"BCStaking.sol\":774:786  200 * 10**18 */\n  0x0ad78ebc5ac6200000\n    /* \"BCStaking.sol\":739:786  uint256 public minimumStakeValue = 200 * 10**18 */\n  0x06\n  sstore\n    /* \"BCStaking.sol\":1639:1734  constructor(ERC20 _token) {... */\n  callvalue\n  dup1\n  iszero\n  tag_1\n  jumpi\n  0x00\n  dup1\n  revert\ntag_1:\n  pop\n  mload(0x40)\n  sub(codesize, bytecodeSize)\n  dup1\n  bytecodeSize\n  dup4\n  codecopy\n  dup2\n  add\n  0x40\n  dup2\n  swap1\n  mstore\n  tag_2\n  swap2\n  tag_3\n  jump\t// in\ntag_2:\n    /* \"@openzeppelin/contracts/access/Ownable.sol\":921:953  _transferOwnership(_msgSender()) */\n  tag_7\n    /* \"@openzeppelin/contracts/utils/Context.sol\":719:729  msg.sender */\n  caller\n    /* \"@openzeppelin/contracts/access/Ownable.sol\":921:939  _transferOwnership */\n  tag_10\n    /* \"@openzeppelin/contracts/access/Ownable.sol\":921:953  _transferOwnership(_msgSender()) */\n  jump\t// in\ntag_7:\n    /* \"BCStaking.sol\":1715:1717  BC */\n  0x01\n    /* \"BCStaking.sol\":1715:1726  BC = _token */\n  dup1\n  sload\n  not(sub(shl(0xa0, 0x01), 0x01))\n  and\n  sub(shl(0xa0, 0x01), 0x01)\n  swap3\n  swap1\n  swap3\n  and\n  swap2\n  swap1\n  swap2\n  or\n  swap1\n  sstore\n    /* \"BCStaking.sol\":241:15557  contract BillionCashStaking is Ownable {... */\n  jump(tag_15)\n    /* \"@openzeppelin/contracts/access/Ownable.sol\":2270:2457  function _transferOwnership(address newOwner) internal virtual {... */\ntag_10:\n    /* \"@openzeppelin/contracts/access/Ownable.sol\":2343:2359  address oldOwner */\n  0x00\n    /* \"@openzeppelin/contracts/access/Ownable.sol\":2362:2368  _owner */\n  dup1\n  sload\n  sub(shl(0xa0, 0x01), 0x01)\n    /* \"@openzeppelin/contracts/access/Ownable.sol\":2378:2395  _owner = newOwner */\n  dup4\n  dup2\n  and\n  not(sub(shl(0xa0, 0x01), 0x01))\n  dup4\n  and\n  dup2\n  or\n  dup5\n  sstore\n    /* \"@openzeppelin/contracts/access/Ownable.sol\":2410:2450  OwnershipTransferred(oldOwner, newOwner) */\n  mload(0x40)\n    /* \"@openzeppelin/contracts/access/Ownable.sol\":2362:2368  _owner */\n  swap2\n  swap1\n  swap3\n  and\n  swap3\n  dup4\n  swap2\n    /* \"@openzeppelin/contracts/access/Ownable.sol\":2410:2450  OwnershipTransferred(oldOwner, newOwner) */\n  0x8be0079c531659141344cd1fd0a4f28419497f9722a3daafe3b4186f6b6457e0\n  swap2\n    /* \"@openzeppelin/contracts/access/Ownable.sol\":2343:2359  address oldOwner */\n  swap1\n    /* \"@openzeppelin/contracts/access/Ownable.sol\":2410:2450  OwnershipTransferred(oldOwner, newOwner) */\n  log3\n    /* \"@openzeppelin/contracts/access/Ownable.sol\":2333:2457  {... */\n  pop\n    /* \"@openzeppelin/contracts/access/Ownable.sol\":2270:2457  function _transferOwnership(address newOwner) internal virtual {... */\n  pop\n  jump\t// out\n    /* \"#utility.yul\":14:317   */\ntag_3:\n    /* \"#utility.yul\":97:103   */\n  0x00\n    /* \"#utility.yul\":150:152   */\n  0x20\n    /* \"#utility.yul\":138:147   */\n  dup3\n    /* \"#utility.yul\":129:136   */\n  dup5\n    /* \"#utility.yul\":125:148   */\n  sub\n    /* \"#utility.yul\":121:153   */\n  slt\n    /* \"#utility.yul\":118:170   */\n  iszero\n  tag_17\n  jumpi\n    /* \"#utility.yul\":166:167   */\n  0x00\n    /* \"#utility.yul\":163:164   */\n  dup1\n    /* \"#utility.yul\":156:168   */\n  revert\n    /* \"#utility.yul\":118:170   */\ntag_17:\n    /* \"#utility.yul\":192:208   */\n  dup2\n  mload\n  sub(shl(0xa0, 0x01), 0x01)\n    /* \"#utility.yul\":237:268   */\n  dup2\n  and\n    /* \"#utility.yul\":227:269   */\n  dup2\n  eq\n    /* \"#utility.yul\":217:287   */\n  tag_18\n  jumpi\n    /* \"#utility.yul\":283:284   */\n  0x00\n    /* \"#utility.yul\":280:281   */\n  dup1\n    /* \"#utility.yul\":273:285   */\n  revert\n    /* \"#utility.yul\":217:287   */\ntag_18:\n    /* \"#utility.yul\":306:311   */\n  swap4\n    /* \"#utility.yul\":14:317   */\n  swap3\n  pop\n  pop\n  pop\n  jump\t// out\ntag_15:\n    /* \"BCStaking.sol\":241:15557  contract BillionCashStaking is Ownable {... */\n  dataSize(sub_0)\n  dup1\n  dataOffset(sub_0)\n  0x00\n  codecopy\n  0x00\n  return\nstop\n\nsub_0: assembly {\n        /* \"BCStaking.sol\":241:15557  contract BillionCashStaking is Ownable {... */\n      mstore(0x40, 0x80)\n      callvalue\n      dup1\n      iszero\n      tag_1\n      jumpi\n      0x00\n      dup1\n      revert\n    tag_1:\n      pop\n      jumpi(tag_2, lt(calldatasize, 0x04))\n      shr(0xe0, calldataload(0x00))\n      dup1\n      0x817b1cd2\n      gt\n      tag_30\n      jumpi\n      dup1\n      0xc8a22eb4\n      gt\n      tag_31\n      jumpi\n      dup1\n      0xe85abe09\n      gt\n      tag_32\n      jumpi\n      dup1\n      0xe85abe09\n      eq\n      tag_26\n      jumpi\n      dup1\n      0xf2fde38b\n      eq\n      tag_27\n      jumpi\n      dup1\n      0xf69e2046\n      eq\n      tag_28\n      jumpi\n      dup1\n      0xfb4cb32b\n      eq\n      tag_29\n      jumpi\n      0x00\n      dup1\n      revert\n    tag_32:\n      dup1\n      0xc8a22eb4\n      eq\n      tag_23\n      jumpi\n      dup1\n      0xd6343867\n      eq\n      tag_24\n      jumpi\n      dup1\n      0xd7ffca91\n      eq\n      tag_25\n      jumpi\n      0x00\n      dup1\n      revert\n    tag_31:\n      dup1\n      0xab8a3c6b\n      gt\n      tag_33\n      jumpi\n      dup1\n      0xab8a3c6b\n      eq\n      tag_19\n      jumpi\n      dup1\n      0xadc9772e\n      eq\n      tag_20\n      jumpi\n      dup1\n      0xbff1f9e1\n      eq\n      tag_21\n      jumpi\n      dup1\n      0xc0806b03\n      eq\n      tag_22\n      jumpi\n      0x00\n      dup1\n      revert\n    tag_33:\n      dup1\n      0x817b1cd2\n      eq\n      tag_16\n      jumpi\n      dup1\n      0x8da5cb5b\n      eq\n      tag_17\n      jumpi\n      dup1\n      0xa8aeb6c2\n      eq\n      tag_18\n      jumpi\n      0x00\n      dup1\n      revert\n    tag_30:\n      dup1\n      0x36144c9a\n      gt\n      tag_34\n      jumpi\n      dup1\n      0x4be4d790\n      gt\n      tag_35\n      jumpi\n      dup1\n      0x4be4d790\n      eq\n      tag_12\n      jumpi\n      dup1\n      0x4e71d92d\n      eq\n      tag_13\n      jumpi\n      dup1\n      0x715018a6\n      eq\n      tag_14\n      jumpi\n      dup1\n      0x7e3abeea\n      eq\n      tag_15\n      jumpi\n      0x00\n      dup1\n      revert\n    tag_35:\n      dup1\n      0x36144c9a\n      eq\n      tag_9\n      jumpi\n      dup1\n      0x44038f90\n      eq\n      tag_10\n      jumpi\n      dup1\n      0x4b319713\n      eq\n      tag_11\n      jumpi\n      0x00\n      dup1\n      revert\n    tag_34:\n      dup1\n      0x0104db1b\n      eq\n      tag_3\n      jumpi\n      dup1\n      0x01c234a8\n      eq\n      tag_4\n      jumpi\n      dup1\n      0x040a772e\n      eq\n      tag_5\n      jumpi\n      dup1\n      0x153ab9df\n      eq\n      tag_6\n      jumpi\n      dup1\n      0x18e1fbfc\n      eq\n      tag_7\n      jumpi\n      dup1\n      0x32bc298c\n      eq\n      tag_8\n      jumpi\n    tag_2:\n      0x00\n      dup1\n      revert\n        /* \"BCStaking.sol\":524:573  uint256 public constant STAKING_PERIOD = 180 days */\n    tag_3:\n      tag_36\n        /* \"BCStaking.sol\":565:573  180 days */\n      0xed4e00\n        /* \"BCStaking.sol\":524:573  uint256 public constant STAKING_PERIOD = 180 days */\n      dup2\n      jump\n    tag_36:\n      mload(0x40)\n        /* \"#utility.yul\":160:185   */\n      swap1\n      dup2\n      mstore\n        /* \"#utility.yul\":148:150   */\n      0x20\n        /* \"#utility.yul\":133:151   */\n      add\n        /* \"BCStaking.sol\":524:573  uint256 public constant STAKING_PERIOD = 180 days */\n    tag_38:\n      mload(0x40)\n      dup1\n      swap2\n      sub\n      swap1\n      return\n        /* \"BCStaking.sol\":322:369  uint256 public constant PERCENTS_DIVIDER = 1000 */\n    tag_4:\n      tag_36\n        /* \"BCStaking.sol\":365:369  1000 */\n      0x03e8\n        /* \"BCStaking.sol\":322:369  uint256 public constant PERCENTS_DIVIDER = 1000 */\n      dup2\n      jump\n        /* \"BCStaking.sol\":10510:12940  function getUserDividends(address userAddress)... */\n    tag_5:\n      tag_36\n      tag_44\n      calldatasize\n      0x04\n      tag_45\n      jump\t// in\n    tag_44:\n      tag_46\n      jump\t// in\n        /* \"BCStaking.sol\":13640:13888  function getUserAvailable(address userAddress)... */\n    tag_6:\n      tag_36\n      tag_49\n      calldatasize\n      0x04\n      tag_45\n      jump\t// in\n    tag_49:\n      tag_50\n      jump\t// in\n        /* \"BCStaking.sol\":739:786  uint256 public minimumStakeValue = 200 * 10**18 */\n    tag_7:\n      tag_36\n      sload(0x06)\n      dup2\n      jump\n        /* \"BCStaking.sol\":475:517  uint256 public constant TIME_STEP = 1 days */\n    tag_8:\n      tag_36\n        /* \"BCStaking.sol\":511:517  1 days */\n      0x015180\n        /* \"BCStaking.sol\":475:517  uint256 public constant TIME_STEP = 1 days */\n      dup2\n      jump\n        /* \"BCStaking.sol\":13298:13459  function getUserReferrer(address userAddress)... */\n    tag_9:\n      tag_58\n      tag_59\n      calldatasize\n      0x04\n      tag_45\n      jump\t// in\n    tag_59:\n      sub(shl(0xa0, 0x01), 0x01)\n        /* \"BCStaking.sol\":13424:13442  users[userAddress] */\n      swap1\n      dup2\n      and\n        /* \"BCStaking.sol\":13392:13399  address */\n      0x00\n        /* \"BCStaking.sol\":13424:13442  users[userAddress] */\n      swap1\n      dup2\n      mstore\n        /* \"BCStaking.sol\":13424:13429  users */\n      0x07\n        /* \"BCStaking.sol\":13424:13442  users[userAddress] */\n      0x20\n      mstore\n      0x40\n      swap1\n      keccak256\n        /* \"BCStaking.sol\":13424:13451  users[userAddress].referrer */\n      0x04\n      add\n      sload\n      and\n      swap1\n        /* \"BCStaking.sol\":13298:13459  function getUserReferrer(address userAddress)... */\n      jump\n    tag_58:\n      mload(0x40)\n      sub(shl(0xa0, 0x01), 0x01)\n        /* \"#utility.yul\":729:761   */\n      swap1\n      swap2\n      and\n        /* \"#utility.yul\":711:762   */\n      dup2\n      mstore\n        /* \"#utility.yul\":699:701   */\n      0x20\n        /* \"#utility.yul\":684:702   */\n      add\n        /* \"BCStaking.sol\":13298:13459  function getUserReferrer(address userAddress)... */\n      tag_38\n        /* \"#utility.yul\":565:768   */\n      jump\n        /* \"BCStaking.sol\":421:468  uint256 public constant REFERRAL_PERCENTS = 120 */\n    tag_10:\n      tag_36\n        /* \"BCStaking.sol\":465:468  120 */\n      0x78\n        /* \"BCStaking.sol\":421:468  uint256 public constant REFERRAL_PERCENTS = 120 */\n      dup2\n      jump\n        /* \"BCStaking.sol\":664:693  uint256 public totalWithdrawn */\n    tag_11:\n      tag_36\n      sload(0x04)\n      dup2\n      jump\n        /* \"BCStaking.sol\":15397:15554  function setMinimumStakeValue(uint256 _minimumStakeValue)... */\n    tag_12:\n      tag_69\n      tag_70\n      calldatasize\n      0x04\n      tag_71\n      jump\t// in\n    tag_70:\n      tag_72\n      jump\t// in\n    tag_69:\n      stop\n        /* \"BCStaking.sol\":3947:7252  function claim() public {... */\n    tag_13:\n      tag_69\n      tag_74\n      jump\t// in\n        /* \"@openzeppelin/contracts/access/Ownable.sol\":1668:1769  function renounceOwnership() public virtual onlyOwner {... */\n    tag_14:\n      tag_69\n      tag_76\n      jump\t// in\n        /* \"BCStaking.sol\":14627:14984  function getUserTotalDeposits(address userAddress)... */\n    tag_15:\n      tag_36\n      tag_78\n      calldatasize\n      0x04\n      tag_45\n      jump\t// in\n    tag_78:\n      tag_79\n      jump\t// in\n        /* \"BCStaking.sol\":631:657  uint256 public totalStaked */\n    tag_16:\n      tag_36\n      sload(0x03)\n      dup2\n      jump\n        /* \"@openzeppelin/contracts/access/Ownable.sol\":1036:1121  function owner() public view virtual returns (address) {... */\n    tag_17:\n        /* \"@openzeppelin/contracts/access/Ownable.sol\":1082:1089  address */\n      0x00\n        /* \"@openzeppelin/contracts/access/Ownable.sol\":1108:1114  _owner */\n      sload\n      sub(shl(0xa0, 0x01), 0x01)\n      and\n        /* \"@openzeppelin/contracts/access/Ownable.sol\":1036:1121  function owner() public view virtual returns (address) {... */\n      jump(tag_58)\n        /* \"BCStaking.sol\":14443:14619  function getUserAmountOfDeposits(address userAddress)... */\n    tag_18:\n      tag_36\n      tag_88\n      calldatasize\n      0x04\n      tag_45\n      jump\t// in\n    tag_88:\n      sub(shl(0xa0, 0x01), 0x01)\n        /* \"BCStaking.sol\":14577:14595  users[userAddress] */\n      and\n        /* \"BCStaking.sol\":14545:14552  uint256 */\n      0x00\n        /* \"BCStaking.sol\":14577:14595  users[userAddress] */\n      swap1\n      dup2\n      mstore\n        /* \"BCStaking.sol\":14577:14582  users */\n      0x07\n        /* \"BCStaking.sol\":14577:14595  users[userAddress] */\n      0x20\n      mstore\n      0x40\n      swap1\n      keccak256\n        /* \"BCStaking.sol\":14577:14611  users[userAddress].deposits.length */\n      sload\n      swap1\n        /* \"BCStaking.sol\":14443:14619  function getUserAmountOfDeposits(address userAddress)... */\n      jump\n        /* \"BCStaking.sol\":376:414  uint256 public constant DAILY_ROI = 15 */\n    tag_19:\n      tag_36\n        /* \"BCStaking.sol\":412:414  15 */\n      0x0f\n        /* \"BCStaking.sol\":376:414  uint256 public constant DAILY_ROI = 15 */\n      dup2\n      jump\n        /* \"BCStaking.sol\":1742:3939  function stake(address referrer, uint256 amount) public {... */\n    tag_20:\n      tag_69\n      tag_95\n      calldatasize\n      0x04\n      tag_96\n      jump\t// in\n    tag_95:\n      tag_97\n      jump\t// in\n        /* \"BCStaking.sol\":599:624  uint256 public totalUsers */\n    tag_21:\n      tag_36\n      sload(0x02)\n      dup2\n      jump\n        /* \"BCStaking.sol\":13896:14435  function getUserDepositInfo(address userAddress, uint256 index)... */\n    tag_22:\n      tag_101\n      tag_102\n      calldatasize\n      0x04\n      tag_96\n      jump\t// in\n    tag_102:\n      tag_103\n      jump\t// in\n    tag_101:\n      0x40\n      dup1\n      mload\n        /* \"#utility.yul\":1470:1495   */\n      swap6\n      dup7\n      mstore\n        /* \"#utility.yul\":1526:1528   */\n      0x20\n        /* \"#utility.yul\":1511:1529   */\n      dup7\n      add\n        /* \"#utility.yul\":1504:1538   */\n      swap5\n      swap1\n      swap5\n      mstore\n        /* \"#utility.yul\":1554:1572   */\n      swap3\n      dup5\n      add\n        /* \"#utility.yul\":1547:1581   */\n      swap2\n      swap1\n      swap2\n      mstore\n        /* \"#utility.yul\":1612:1614   */\n      0x60\n        /* \"#utility.yul\":1597:1615   */\n      dup4\n      add\n        /* \"#utility.yul\":1590:1624   */\n      mstore\n        /* \"#utility.yul\":1668:1682   */\n      iszero\n        /* \"#utility.yul\":1661:1683   */\n      iszero\n        /* \"#utility.yul\":1655:1658   */\n      0x80\n        /* \"#utility.yul\":1640:1659   */\n      dup3\n      add\n        /* \"#utility.yul\":1633:1684   */\n      mstore\n        /* \"#utility.yul\":1457:1460   */\n      0xa0\n        /* \"#utility.yul\":1442:1461   */\n      add\n        /* \"BCStaking.sol\":13896:14435  function getUserDepositInfo(address userAddress, uint256 index)... */\n      tag_38\n        /* \"#utility.yul\":1217:1690   */\n      jump\n        /* \"BCStaking.sol\":13119:13290  function getUserReferralCount(address userAddress)... */\n    tag_23:\n      tag_36\n      tag_107\n      calldatasize\n      0x04\n      tag_45\n      jump\t// in\n    tag_107:\n      sub(shl(0xa0, 0x01), 0x01)\n        /* \"BCStaking.sol\":13250:13268  users[userAddress] */\n      and\n        /* \"BCStaking.sol\":13218:13225  uint256 */\n      0x00\n        /* \"BCStaking.sol\":13250:13268  users[userAddress] */\n      swap1\n      dup2\n      mstore\n        /* \"BCStaking.sol\":13250:13255  users */\n      0x07\n        /* \"BCStaking.sol\":13250:13268  users[userAddress] */\n      0x20\n      mstore\n      0x40\n      swap1\n      keccak256\n        /* \"BCStaking.sol\":13250:13282  users[userAddress].referralCount */\n      0x03\n      add\n      sload\n      swap1\n        /* \"BCStaking.sol\":13119:13290  function getUserReferralCount(address userAddress)... */\n      jump\n        /* \"BCStaking.sol\":700:732  uint256 public totalDepositCount */\n    tag_24:\n      tag_36\n      sload(0x05)\n      dup2\n      jump\n        /* \"BCStaking.sol\":13467:13632  function getUserCheckpoint(address userAddress)... */\n    tag_25:\n      tag_36\n      tag_114\n      calldatasize\n      0x04\n      tag_45\n      jump\t// in\n    tag_114:\n      sub(shl(0xa0, 0x01), 0x01)\n        /* \"BCStaking.sol\":13595:13613  users[userAddress] */\n      and\n        /* \"BCStaking.sol\":13563:13570  uint256 */\n      0x00\n        /* \"BCStaking.sol\":13595:13613  users[userAddress] */\n      swap1\n      dup2\n      mstore\n        /* \"BCStaking.sol\":13595:13600  users */\n      0x07\n        /* \"BCStaking.sol\":13595:13613  users[userAddress] */\n      0x20\n      mstore\n      0x40\n      swap1\n      keccak256\n        /* \"BCStaking.sol\":13595:13624  users[userAddress].checkpoint */\n      0x01\n      add\n      sload\n      swap1\n        /* \"BCStaking.sol\":13467:13632  function getUserCheckpoint(address userAddress)... */\n      jump\n        /* \"BCStaking.sol\":12948:13111  function getUserReferralBonus(address userAddress)... */\n    tag_26:\n      tag_36\n      tag_118\n      calldatasize\n      0x04\n      tag_45\n      jump\t// in\n    tag_118:\n      sub(shl(0xa0, 0x01), 0x01)\n        /* \"BCStaking.sol\":13079:13097  users[userAddress] */\n      and\n        /* \"BCStaking.sol\":13047:13054  uint256 */\n      0x00\n        /* \"BCStaking.sol\":13079:13097  users[userAddress] */\n      swap1\n      dup2\n      mstore\n        /* \"BCStaking.sol\":13079:13084  users */\n      0x07\n        /* \"BCStaking.sol\":13079:13097  users[userAddress] */\n      0x20\n      mstore\n      0x40\n      swap1\n      keccak256\n        /* \"BCStaking.sol\":13079:13103  users[userAddress].bonus */\n      0x02\n      add\n      sload\n      swap1\n        /* \"BCStaking.sol\":12948:13111  function getUserReferralBonus(address userAddress)... */\n      jump\n        /* \"@openzeppelin/contracts/access/Ownable.sol\":1918:2116  function transferOwnership(address newOwner) public virtual onlyOwner {... */\n    tag_27:\n      tag_69\n      tag_122\n      calldatasize\n      0x04\n      tag_45\n      jump\t// in\n    tag_122:\n      tag_123\n      jump\t// in\n        /* \"BCStaking.sol\":7260:10502  function compound() public onlyhodler {... */\n    tag_28:\n      tag_69\n      tag_125\n      jump\t// in\n        /* \"BCStaking.sol\":14992:15353  function getUserTotalWithdrawn(address userAddress)... */\n    tag_29:\n      tag_36\n      tag_127\n      calldatasize\n      0x04\n      tag_45\n      jump\t// in\n    tag_127:\n      tag_128\n      jump\t// in\n        /* \"BCStaking.sol\":10510:12940  function getUserDividends(address userAddress)... */\n    tag_46:\n      sub(shl(0xa0, 0x01), 0x01)\n        /* \"BCStaking.sol\":10650:10668  users[userAddress] */\n      dup2\n      and\n        /* \"BCStaking.sol\":10605:10612  uint256 */\n      0x00\n        /* \"BCStaking.sol\":10650:10668  users[userAddress] */\n      swap1\n      dup2\n      mstore\n        /* \"BCStaking.sol\":10650:10655  users */\n      0x07\n        /* \"BCStaking.sol\":10650:10668  users[userAddress] */\n      0x20\n      mstore\n      0x40\n      dup2\n      keccak256\n        /* \"BCStaking.sol\":10605:10612  uint256 */\n      dup2\n      dup1\n      dup1\n        /* \"BCStaking.sol\":10744:12899  for (uint256 i = 0; i < user.deposits.length; i++) {... */\n    tag_131:\n        /* \"BCStaking.sol\":10768:10788  user.deposits.length */\n      dup4\n      sload\n        /* \"BCStaking.sol\":10764:10788  i < user.deposits.length */\n      dup2\n      lt\n        /* \"BCStaking.sol\":10744:12899  for (uint256 i = 0; i < user.deposits.length; i++) {... */\n      iszero\n      tag_132\n      jumpi\n        /* \"BCStaking.sol\":10814:10818  user */\n      dup4\n        /* \"BCStaking.sol\":10814:10827  user.deposits */\n      0x00\n      add\n        /* \"BCStaking.sol\":10828:10829  i */\n      dup2\n        /* \"BCStaking.sol\":10814:10830  user.deposits[i] */\n      dup2\n      sload\n      dup2\n      lt\n      tag_135\n      jumpi\n      tag_135\n      tag_136\n      jump\t// in\n    tag_135:\n      0x00\n      swap2\n      dup3\n      mstore\n      0x20\n      swap1\n      swap2\n      keccak256\n        /* \"BCStaking.sol\":10814:10836  user.deposits[i].ended */\n      0x04\n        /* \"BCStaking.sol\":10814:10830  user.deposits[i] */\n      0x05\n      swap1\n      swap3\n      mul\n      add\n        /* \"BCStaking.sol\":10814:10836  user.deposits[i].ended */\n      add\n      sload\n      0xff\n      and\n        /* \"BCStaking.sol\":10810:12888  if (user.deposits[i].ended == false) {... */\n      tag_138\n      jumpi\n        /* \"BCStaking.sol\":10897:10912  block.timestamp */\n      timestamp\n        /* \"BCStaking.sol\":10870:10874  user */\n      dup5\n        /* \"BCStaking.sol\":10870:10883  user.deposits */\n      0x00\n      add\n        /* \"BCStaking.sol\":10884:10885  i */\n      dup3\n        /* \"BCStaking.sol\":10870:10886  user.deposits[i] */\n      dup2\n      sload\n      dup2\n      lt\n      tag_140\n      jumpi\n      tag_140\n      tag_136\n      jump\t// in\n    tag_140:\n      swap1\n      0x00\n      mstore\n      keccak256(0x00, 0x20)\n      swap1\n      0x05\n      mul\n      add\n        /* \"BCStaking.sol\":10870:10894  user.deposits[i].endTime */\n      0x03\n      add\n      sload\n        /* \"BCStaking.sol\":10870:10912  user.deposits[i].endTime > block.timestamp */\n      gt\n        /* \"BCStaking.sol\":10866:12808  if (user.deposits[i].endTime > block.timestamp) {... */\n      iszero\n      tag_142\n      jumpi\n        /* \"BCStaking.sol\":10970:10974  user */\n      dup4\n        /* \"BCStaking.sol\":10970:10985  user.checkpoint */\n      0x01\n      add\n      sload\n        /* \"BCStaking.sol\":10941:10945  user */\n      dup5\n        /* \"BCStaking.sol\":10941:10954  user.deposits */\n      0x00\n      add\n        /* \"BCStaking.sol\":10955:10956  i */\n      dup3\n        /* \"BCStaking.sol\":10941:10957  user.deposits[i] */\n      dup2\n      sload\n      dup2\n      lt\n      tag_144\n      jumpi\n      tag_144\n      tag_136\n      jump\t// in\n    tag_144:\n      swap1\n      0x00\n      mstore\n      keccak256(0x00, 0x20)\n      swap1\n      0x05\n      mul\n      add\n        /* \"BCStaking.sol\":10941:10967  user.deposits[i].startTime */\n      0x02\n      add\n      sload\n        /* \"BCStaking.sol\":10941:10985  user.deposits[i].startTime > user.checkpoint */\n      gt\n        /* \"BCStaking.sol\":10937:11796  if (user.deposits[i].startTime > user.checkpoint) {... */\n      iszero\n      tag_146\n      jumpi\n        /* \"BCStaking.sol\":11026:11400  (... */\n      tag_147\n        /* \"BCStaking.sol\":511:517  1 days */\n      0x015180\n        /* \"BCStaking.sol\":11026:11355  (... */\n      tag_155\n        /* \"BCStaking.sol\":11277:11324  block.timestamp.sub(user.deposits[i].startTime) */\n      tag_149\n        /* \"BCStaking.sol\":11297:11301  user */\n      dup8\n        /* \"BCStaking.sol\":11297:11310  user.deposits */\n      0x00\n      add\n        /* \"BCStaking.sol\":11311:11312  i */\n      dup6\n        /* \"BCStaking.sol\":11297:11313  user.deposits[i] */\n      dup2\n      sload\n      dup2\n      lt\n      tag_151\n      jumpi\n      tag_151\n      tag_136\n      jump\t// in\n    tag_151:\n      swap1\n      0x00\n      mstore\n      keccak256(0x00, 0x20)\n      swap1\n      0x05\n      mul\n      add\n        /* \"BCStaking.sol\":11297:11323  user.deposits[i].startTime */\n      0x02\n      add\n      sload\n        /* \"BCStaking.sol\":11277:11292  block.timestamp */\n      timestamp\n        /* \"BCStaking.sol\":11277:11296  block.timestamp.sub */\n      tag_153\n      swap1\n        /* \"BCStaking.sol\":11277:11324  block.timestamp.sub(user.deposits[i].startTime) */\n      swap2\n      swap1\n      0xffffffff\n      and\n      jump\t// in\n    tag_149:\n        /* \"BCStaking.sol\":11057:11181  user.deposits[i].amount.mul(DAILY_ROI).div(... */\n      tag_154\n        /* \"BCStaking.sol\":365:369  1000 */\n      0x03e8\n        /* \"BCStaking.sol\":11057:11095  user.deposits[i].amount.mul(DAILY_ROI) */\n      tag_155\n        /* \"BCStaking.sol\":412:414  15 */\n      0x0f\n        /* \"BCStaking.sol\":11057:11061  user */\n      dup12\n        /* \"BCStaking.sol\":11057:11070  user.deposits */\n      0x00\n      add\n        /* \"BCStaking.sol\":11071:11072  i */\n      dup10\n        /* \"BCStaking.sol\":11057:11073  user.deposits[i] */\n      dup2\n      sload\n      dup2\n      lt\n      tag_157\n      jumpi\n      tag_157\n      tag_136\n      jump\t// in\n    tag_157:\n      0x00\n      swap2\n      dup3\n      mstore\n      0x20\n      swap1\n      swap2\n      keccak256\n      0x05\n      swap1\n      swap2\n      mul\n      add\n        /* \"BCStaking.sol\":11057:11080  user.deposits[i].amount */\n      sload\n      swap1\n        /* \"BCStaking.sol\":11057:11084  user.deposits[i].amount.mul */\n      tag_159\n        /* \"BCStaking.sol\":11057:11095  user.deposits[i].amount.mul(DAILY_ROI) */\n      jump\t// in\n    tag_155:\n        /* \"BCStaking.sol\":11057:11099  user.deposits[i].amount.mul(DAILY_ROI).div */\n      swap1\n      tag_160\n        /* \"BCStaking.sol\":11057:11181  user.deposits[i].amount.mul(DAILY_ROI).div(... */\n      jump\t// in\n    tag_154:\n        /* \"BCStaking.sol\":11026:11242  (... */\n      swap1\n      tag_159\n        /* \"BCStaking.sol\":11026:11355  (... */\n      jump\t// in\n        /* \"BCStaking.sol\":11026:11400  (... */\n    tag_147:\n        /* \"BCStaking.sol\":11014:11400  dividends = (... */\n      swap2\n      pop\n        /* \"BCStaking.sol\":10866:12808  if (user.deposits[i].endTime > block.timestamp) {... */\n      jump(tag_189)\n        /* \"BCStaking.sol\":10937:11796  if (user.deposits[i].startTime > user.checkpoint) {... */\n    tag_146:\n        /* \"BCStaking.sol\":11469:11772  (... */\n      tag_147\n        /* \"BCStaking.sol\":511:517  1 days */\n      0x015180\n        /* \"BCStaking.sol\":11469:11693  (... */\n      tag_155\n        /* \"BCStaking.sol\":11656:11692  block.timestamp.sub(user.checkpoint) */\n      tag_149\n        /* \"BCStaking.sol\":11676:11680  user */\n      dup8\n        /* \"BCStaking.sol\":11676:11691  user.checkpoint */\n      0x01\n      add\n      sload\n        /* \"BCStaking.sol\":11656:11671  block.timestamp */\n      timestamp\n        /* \"BCStaking.sol\":11656:11675  block.timestamp.sub */\n      tag_153\n      swap1\n        /* \"BCStaking.sol\":11656:11692  block.timestamp.sub(user.checkpoint) */\n      swap2\n      swap1\n      0xffffffff\n      and\n      jump\t// in\n        /* \"BCStaking.sol\":10866:12808  if (user.deposits[i].endTime > block.timestamp) {... */\n    tag_142:\n        /* \"BCStaking.sol\":11877:11881  user */\n      dup4\n        /* \"BCStaking.sol\":11877:11892  user.checkpoint */\n      0x01\n      add\n      sload\n        /* \"BCStaking.sol\":11848:11852  user */\n      dup5\n        /* \"BCStaking.sol\":11848:11861  user.deposits */\n      0x00\n      add\n        /* \"BCStaking.sol\":11862:11863  i */\n      dup3\n        /* \"BCStaking.sol\":11848:11864  user.deposits[i] */\n      dup2\n      sload\n      dup2\n      lt\n      tag_172\n      jumpi\n      tag_172\n      tag_136\n      jump\t// in\n    tag_172:\n      swap1\n      0x00\n      mstore\n      keccak256(0x00, 0x20)\n      swap1\n      0x05\n      mul\n      add\n        /* \"BCStaking.sol\":11848:11874  user.deposits[i].startTime */\n      0x02\n      add\n      sload\n        /* \"BCStaking.sol\":11848:11892  user.deposits[i].startTime > user.checkpoint */\n      gt\n        /* \"BCStaking.sol\":11844:12789  if (user.deposits[i].startTime > user.checkpoint) {... */\n      iszero\n      tag_174\n      jumpi\n        /* \"BCStaking.sol\":11933:12388  (... */\n      tag_147\n        /* \"BCStaking.sol\":511:517  1 days */\n      0x015180\n        /* \"BCStaking.sol\":11933:12343  (... */\n      tag_155\n        /* \"BCStaking.sol\":12184:12312  user.deposits[i].endTime.sub(... */\n      tag_149\n        /* \"BCStaking.sol\":12251:12255  user */\n      dup8\n        /* \"BCStaking.sol\":12251:12264  user.deposits */\n      0x00\n      add\n        /* \"BCStaking.sol\":12265:12266  i */\n      dup6\n        /* \"BCStaking.sol\":12251:12267  user.deposits[i] */\n      dup2\n      sload\n      dup2\n      lt\n      tag_179\n      jumpi\n      tag_179\n      tag_136\n      jump\t// in\n    tag_179:\n      swap1\n      0x00\n      mstore\n      keccak256(0x00, 0x20)\n      swap1\n      0x05\n      mul\n      add\n        /* \"BCStaking.sol\":12251:12277  user.deposits[i].startTime */\n      0x02\n      add\n      sload\n        /* \"BCStaking.sol\":12184:12188  user */\n      dup9\n        /* \"BCStaking.sol\":12184:12197  user.deposits */\n      0x00\n      add\n        /* \"BCStaking.sol\":12198:12199  i */\n      dup7\n        /* \"BCStaking.sol\":12184:12200  user.deposits[i] */\n      dup2\n      sload\n      dup2\n      lt\n      tag_182\n      jumpi\n      tag_182\n      tag_136\n      jump\t// in\n    tag_182:\n      swap1\n      0x00\n      mstore\n      keccak256(0x00, 0x20)\n      swap1\n      0x05\n      mul\n      add\n        /* \"BCStaking.sol\":12184:12208  user.deposits[i].endTime */\n      0x03\n      add\n      sload\n        /* \"BCStaking.sol\":12184:12212  user.deposits[i].endTime.sub */\n      tag_153\n      swap1\n        /* \"BCStaking.sol\":12184:12312  user.deposits[i].endTime.sub(... */\n      swap2\n      swap1\n      0xffffffff\n      and\n      jump\t// in\n        /* \"BCStaking.sol\":11844:12789  if (user.deposits[i].startTime > user.checkpoint) {... */\n    tag_174:\n        /* \"BCStaking.sol\":12457:12765  (... */\n      tag_190\n        /* \"BCStaking.sol\":511:517  1 days */\n      0x015180\n        /* \"BCStaking.sol\":12457:12720  (... */\n      tag_155\n        /* \"BCStaking.sol\":12674:12719  user.deposits[i].endTime.sub(user.checkpoint) */\n      tag_149\n        /* \"BCStaking.sol\":12703:12707  user */\n      dup8\n        /* \"BCStaking.sol\":12703:12718  user.checkpoint */\n      0x01\n      add\n      sload\n        /* \"BCStaking.sol\":12674:12678  user */\n      dup9\n        /* \"BCStaking.sol\":12674:12687  user.deposits */\n      0x00\n      add\n        /* \"BCStaking.sol\":12688:12689  i */\n      dup7\n        /* \"BCStaking.sol\":12674:12690  user.deposits[i] */\n      dup2\n      sload\n      dup2\n      lt\n      tag_182\n      jumpi\n      tag_182\n      tag_136\n      jump\t// in\n        /* \"BCStaking.sol\":12457:12765  (... */\n    tag_190:\n        /* \"BCStaking.sol\":12445:12765  dividends = (... */\n      swap2\n      pop\n        /* \"BCStaking.sol\":11844:12789  if (user.deposits[i].startTime > user.checkpoint) {... */\n    tag_189:\n        /* \"BCStaking.sol\":12843:12872  totalDividends.add(dividends) */\n      tag_201\n        /* \"BCStaking.sol\":12843:12857  totalDividends */\n      dup4\n        /* \"BCStaking.sol\":12862:12871  dividends */\n      dup4\n        /* \"BCStaking.sol\":12843:12861  totalDividends.add */\n      tag_202\n        /* \"BCStaking.sol\":12843:12872  totalDividends.add(dividends) */\n      jump\t// in\n    tag_201:\n        /* \"BCStaking.sol\":12826:12872  totalDividends = totalDividends.add(dividends) */\n      swap3\n      pop\n        /* \"BCStaking.sol\":10810:12888  if (user.deposits[i].ended == false) {... */\n    tag_138:\n        /* \"BCStaking.sol\":10790:10793  i++ */\n      dup1\n      tag_203\n      dup2\n      tag_204\n      jump\t// in\n    tag_203:\n      swap2\n      pop\n      pop\n        /* \"BCStaking.sol\":10744:12899  for (uint256 i = 0; i < user.deposits.length; i++) {... */\n      jump(tag_131)\n    tag_132:\n      pop\n        /* \"BCStaking.sol\":12918:12932  totalDividends */\n      swap1\n      swap5\n        /* \"BCStaking.sol\":10510:12940  function getUserDividends(address userAddress)... */\n      swap4\n      pop\n      pop\n      pop\n      pop\n      jump\t// out\n        /* \"BCStaking.sol\":13640:13888  function getUserAvailable(address userAddress)... */\n    tag_50:\n        /* \"BCStaking.sol\":13735:13742  uint256 */\n      0x00\n        /* \"BCStaking.sol\":13780:13880  getUserReferralBonus(userAddress).add(... */\n      tag_206\n        /* \"BCStaking.sol\":13836:13865  getUserDividends(userAddress) */\n      tag_207\n        /* \"BCStaking.sol\":13853:13864  userAddress */\n      dup4\n        /* \"BCStaking.sol\":13836:13852  getUserDividends */\n      tag_46\n        /* \"BCStaking.sol\":13836:13865  getUserDividends(userAddress) */\n      jump\t// in\n    tag_207:\n      sub(shl(0xa0, 0x01), 0x01)\n        /* \"BCStaking.sol\":13079:13097  users[userAddress] */\n      dup5\n      and\n        /* \"BCStaking.sol\":13047:13054  uint256 */\n      0x00\n        /* \"BCStaking.sol\":13079:13097  users[userAddress] */\n      swap1\n      dup2\n      mstore\n        /* \"BCStaking.sol\":13079:13084  users */\n      0x07\n        /* \"BCStaking.sol\":13079:13097  users[userAddress] */\n      0x20\n      mstore\n      0x40\n      swap1\n      keccak256\n        /* \"BCStaking.sol\":13079:13103  users[userAddress].bonus */\n      0x02\n      add\n      sload\n        /* \"BCStaking.sol\":13780:13817  getUserReferralBonus(userAddress).add */\n      swap1\n      tag_202\n        /* \"BCStaking.sol\":13780:13880  getUserReferralBonus(userAddress).add(... */\n      jump\t// in\n    tag_206:\n        /* \"BCStaking.sol\":13760:13880  return... */\n      swap3\n        /* \"BCStaking.sol\":13640:13888  function getUserAvailable(address userAddress)... */\n      swap2\n      pop\n      pop\n      jump\t// out\n        /* \"BCStaking.sol\":15397:15554  function setMinimumStakeValue(uint256 _minimumStakeValue)... */\n    tag_72:\n        /* \"@openzeppelin/contracts/access/Ownable.sol\":1082:1089  address */\n      0x00\n        /* \"@openzeppelin/contracts/access/Ownable.sol\":1108:1114  _owner */\n      sload\n      sub(shl(0xa0, 0x01), 0x01)\n      and\n        /* \"@openzeppelin/contracts/utils/Context.sol\":719:729  msg.sender */\n      caller\n        /* \"@openzeppelin/contracts/access/Ownable.sol\":1248:1271  owner() == _msgSender() */\n      eq\n        /* \"@openzeppelin/contracts/access/Ownable.sol\":1240:1308  require(owner() == _msgSender(), \"Ownable: caller is not the owner\") */\n      tag_214\n      jumpi\n      mload(0x40)\n      shl(0xe5, 0x461bcd)\n      dup2\n      mstore\n      0x04\n      add\n      tag_215\n      swap1\n      tag_216\n      jump\t// in\n    tag_215:\n      mload(0x40)\n      dup1\n      swap2\n      sub\n      swap1\n      revert\n    tag_214:\n        /* \"BCStaking.sol\":15508:15525  minimumStakeValue */\n      0x06\n        /* \"BCStaking.sol\":15508:15546  minimumStakeValue = _minimumStakeValue */\n      sstore\n        /* \"BCStaking.sol\":15397:15554  function setMinimumStakeValue(uint256 _minimumStakeValue)... */\n      jump\t// out\n        /* \"BCStaking.sol\":3947:7252  function claim() public {... */\n    tag_74:\n        /* \"BCStaking.sol\":4008:4018  msg.sender */\n      caller\n        /* \"BCStaking.sol\":3982:3999  User storage user */\n      0x00\n        /* \"BCStaking.sol\":4002:4019  users[msg.sender] */\n      swap1\n      dup2\n      mstore\n        /* \"BCStaking.sol\":4002:4007  users */\n      0x07\n        /* \"BCStaking.sol\":4002:4019  users[msg.sender] */\n      0x20\n      mstore\n      0x40\n      dup2\n      keccak256\n      swap1\n        /* \"BCStaking.sol\":3982:3999  User storage user */\n      dup1\n      dup1\n        /* \"BCStaking.sol\":4092:6513  for (uint256 i = 0; i < user.deposits.length; i++) {... */\n    tag_219:\n        /* \"BCStaking.sol\":4116:4136  user.deposits.length */\n      dup4\n      sload\n        /* \"BCStaking.sol\":4112:4136  i < user.deposits.length */\n      dup2\n      lt\n        /* \"BCStaking.sol\":4092:6513  for (uint256 i = 0; i < user.deposits.length; i++) {... */\n      iszero\n      tag_220\n      jumpi\n        /* \"BCStaking.sol\":4162:4166  user */\n      dup4\n        /* \"BCStaking.sol\":4162:4175  user.deposits */\n      0x00\n      add\n        /* \"BCStaking.sol\":4176:4177  i */\n      dup2\n        /* \"BCStaking.sol\":4162:4178  user.deposits[i] */\n      dup2\n      sload\n      dup2\n      lt\n      tag_223\n      jumpi\n      tag_223\n      tag_136\n      jump\t// in\n    tag_223:\n      0x00\n      swap2\n      dup3\n      mstore\n      0x20\n      swap1\n      swap2\n      keccak256\n        /* \"BCStaking.sol\":4162:4184  user.deposits[i].ended */\n      0x04\n        /* \"BCStaking.sol\":4162:4178  user.deposits[i] */\n      0x05\n      swap1\n      swap3\n      mul\n      add\n        /* \"BCStaking.sol\":4162:4184  user.deposits[i].ended */\n      add\n      sload\n      0xff\n      and\n        /* \"BCStaking.sol\":4158:6502  if (user.deposits[i].ended == false) {... */\n      tag_225\n      jumpi\n        /* \"BCStaking.sol\":4245:4260  block.timestamp */\n      timestamp\n        /* \"BCStaking.sol\":4218:4222  user */\n      dup5\n        /* \"BCStaking.sol\":4218:4231  user.deposits */\n      0x00\n      add\n        /* \"BCStaking.sol\":4232:4233  i */\n      dup3\n        /* \"BCStaking.sol\":4218:4234  user.deposits[i] */\n      dup2\n      sload\n      dup2\n      lt\n      tag_227\n      jumpi\n      tag_227\n      tag_136\n      jump\t// in\n    tag_227:\n      swap1\n      0x00\n      mstore\n      keccak256(0x00, 0x20)\n      swap1\n      0x05\n      mul\n      add\n        /* \"BCStaking.sol\":4218:4242  user.deposits[i].endTime */\n      0x03\n      add\n      sload\n        /* \"BCStaking.sol\":4218:4260  user.deposits[i].endTime > block.timestamp */\n      gt\n        /* \"BCStaking.sol\":4214:6268  if (user.deposits[i].endTime > block.timestamp) {... */\n      iszero\n      tag_229\n      jumpi\n        /* \"BCStaking.sol\":4318:4322  user */\n      dup4\n        /* \"BCStaking.sol\":4318:4333  user.checkpoint */\n      0x01\n      add\n      sload\n        /* \"BCStaking.sol\":4289:4293  user */\n      dup5\n        /* \"BCStaking.sol\":4289:4302  user.deposits */\n      0x00\n      add\n        /* \"BCStaking.sol\":4303:4304  i */\n      dup3\n        /* \"BCStaking.sol\":4289:4305  user.deposits[i] */\n      dup2\n      sload\n      dup2\n      lt\n      tag_231\n      jumpi\n      tag_231\n      tag_136\n      jump\t// in\n    tag_231:\n      swap1\n      0x00\n      mstore\n      keccak256(0x00, 0x20)\n      swap1\n      0x05\n      mul\n      add\n        /* \"BCStaking.sol\":4289:4315  user.deposits[i].startTime */\n      0x02\n      add\n      sload\n        /* \"BCStaking.sol\":4289:4333  user.deposits[i].startTime > user.checkpoint */\n      gt\n        /* \"BCStaking.sol\":4285:5144  if (user.deposits[i].startTime > user.checkpoint) {... */\n      iszero\n      tag_233\n      jumpi\n        /* \"BCStaking.sol\":4374:4748  (... */\n      tag_234\n        /* \"BCStaking.sol\":511:517  1 days */\n      0x015180\n        /* \"BCStaking.sol\":4374:4703  (... */\n      tag_155\n        /* \"BCStaking.sol\":4625:4672  block.timestamp.sub(user.deposits[i].startTime) */\n      tag_149\n        /* \"BCStaking.sol\":4645:4649  user */\n      dup8\n        /* \"BCStaking.sol\":4645:4658  user.deposits */\n      0x00\n      add\n        /* \"BCStaking.sol\":4659:4660  i */\n      dup6\n        /* \"BCStaking.sol\":4645:4661  user.deposits[i] */\n      dup2\n      sload\n      dup2\n      lt\n      tag_151\n      jumpi\n      tag_151\n      tag_136\n      jump\t// in\n        /* \"BCStaking.sol\":4374:4748  (... */\n    tag_234:\n        /* \"BCStaking.sol\":4362:4748  dividends = (... */\n      swap2\n      pop\n        /* \"BCStaking.sol\":4214:6268  if (user.deposits[i].endTime > block.timestamp) {... */\n      jump(tag_276)\n        /* \"BCStaking.sol\":4285:5144  if (user.deposits[i].startTime > user.checkpoint) {... */\n    tag_233:\n        /* \"BCStaking.sol\":4817:5120  (... */\n      tag_234\n        /* \"BCStaking.sol\":511:517  1 days */\n      0x015180\n        /* \"BCStaking.sol\":4817:5041  (... */\n      tag_155\n        /* \"BCStaking.sol\":5004:5040  block.timestamp.sub(user.checkpoint) */\n      tag_149\n        /* \"BCStaking.sol\":5024:5028  user */\n      dup8\n        /* \"BCStaking.sol\":5024:5039  user.checkpoint */\n      0x01\n      add\n      sload\n        /* \"BCStaking.sol\":5004:5019  block.timestamp */\n      timestamp\n        /* \"BCStaking.sol\":5004:5023  block.timestamp.sub */\n      tag_153\n      swap1\n        /* \"BCStaking.sol\":5004:5040  block.timestamp.sub(user.checkpoint) */\n      swap2\n      swap1\n      0xffffffff\n      and\n      jump\t// in\n        /* \"BCStaking.sol\":4214:6268  if (user.deposits[i].endTime > block.timestamp) {... */\n    tag_229:\n        /* \"BCStaking.sol\":5225:5229  user */\n      dup4\n        /* \"BCStaking.sol\":5225:5240  user.checkpoint */\n      0x01\n      add\n      sload\n        /* \"BCStaking.sol\":5196:5200  user */\n      dup5\n        /* \"BCStaking.sol\":5196:5209  user.deposits */\n      0x00\n      add\n        /* \"BCStaking.sol\":5210:5211  i */\n      dup3\n        /* \"BCStaking.sol\":5196:5212  user.deposits[i] */\n      dup2\n      sload\n      dup2\n      lt\n      tag_256\n      jumpi\n      tag_256\n      tag_136\n      jump\t// in\n    tag_256:\n      swap1\n      0x00\n      mstore\n      keccak256(0x00, 0x20)\n      swap1\n      0x05\n      mul\n      add\n        /* \"BCStaking.sol\":5196:5222  user.deposits[i].startTime */\n      0x02\n      add\n      sload\n        /* \"BCStaking.sol\":5196:5240  user.deposits[i].startTime > user.checkpoint */\n      gt\n        /* \"BCStaking.sol\":5192:6249  if (user.deposits[i].startTime > user.checkpoint) {... */\n      iszero\n      tag_258\n      jumpi\n        /* \"BCStaking.sol\":5281:5736  (... */\n      tag_259\n        /* \"BCStaking.sol\":511:517  1 days */\n      0x015180\n        /* \"BCStaking.sol\":5281:5691  (... */\n      tag_155\n        /* \"BCStaking.sol\":5532:5660  user.deposits[i].endTime.sub(... */\n      tag_149\n        /* \"BCStaking.sol\":5599:5603  user */\n      dup8\n        /* \"BCStaking.sol\":5599:5612  user.deposits */\n      0x00\n      add\n        /* \"BCStaking.sol\":5613:5614  i */\n      dup6\n        /* \"BCStaking.sol\":5599:5615  user.deposits[i] */\n      dup2\n      sload\n      dup2\n      lt\n      tag_179\n      jumpi\n      tag_179\n      tag_136\n      jump\t// in\n        /* \"BCStaking.sol\":5281:5736  (... */\n    tag_259:\n        /* \"BCStaking.sol\":5269:5736  dividends = (... */\n      swap2\n      pop\n        /* \"BCStaking.sol\":5788:5792  true */\n      0x01\n        /* \"BCStaking.sol\":5763:5767  user */\n      dup5\n        /* \"BCStaking.sol\":5763:5776  user.deposits */\n      0x00\n      add\n        /* \"BCStaking.sol\":5777:5778  i */\n      dup3\n        /* \"BCStaking.sol\":5763:5779  user.deposits[i] */\n      dup2\n      sload\n      dup2\n      lt\n      tag_274\n      jumpi\n      tag_274\n      tag_136\n      jump\t// in\n    tag_274:\n      0x00\n      swap2\n      dup3\n      mstore\n      0x20\n      swap1\n      swap2\n      keccak256\n      0x05\n      swap1\n      swap2\n      mul\n      add\n        /* \"BCStaking.sol\":5763:5785  user.deposits[i].ended */\n      0x04\n      add\n        /* \"BCStaking.sol\":5763:5792  user.deposits[i].ended = true */\n      dup1\n      sload\n      not(0xff)\n      and\n      swap2\n      iszero\n      iszero\n      swap2\n      swap1\n      swap2\n      or\n      swap1\n      sstore\n        /* \"BCStaking.sol\":5192:6249  if (user.deposits[i].startTime > user.checkpoint) {... */\n      jump(tag_276)\n    tag_258:\n        /* \"BCStaking.sol\":5861:6169  (... */\n      tag_277\n        /* \"BCStaking.sol\":511:517  1 days */\n      0x015180\n        /* \"BCStaking.sol\":5861:6124  (... */\n      tag_155\n        /* \"BCStaking.sol\":6078:6123  user.deposits[i].endTime.sub(user.checkpoint) */\n      tag_149\n        /* \"BCStaking.sol\":6107:6111  user */\n      dup8\n        /* \"BCStaking.sol\":6107:6122  user.checkpoint */\n      0x01\n      add\n      sload\n        /* \"BCStaking.sol\":6078:6082  user */\n      dup9\n        /* \"BCStaking.sol\":6078:6091  user.deposits */\n      0x00\n      add\n        /* \"BCStaking.sol\":6092:6093  i */\n      dup7\n        /* \"BCStaking.sol\":6078:6094  user.deposits[i] */\n      dup2\n      sload\n      dup2\n      lt\n      tag_182\n      jumpi\n      tag_182\n      tag_136\n      jump\t// in\n        /* \"BCStaking.sol\":5861:6169  (... */\n    tag_277:\n        /* \"BCStaking.sol\":5849:6169  dividends = (... */\n      swap2\n      pop\n        /* \"BCStaking.sol\":6221:6225  true */\n      0x01\n        /* \"BCStaking.sol\":6196:6200  user */\n      dup5\n        /* \"BCStaking.sol\":6196:6209  user.deposits */\n      0x00\n      add\n        /* \"BCStaking.sol\":6210:6211  i */\n      dup3\n        /* \"BCStaking.sol\":6196:6212  user.deposits[i] */\n      dup2\n      sload\n      dup2\n      lt\n      tag_289\n      jumpi\n      tag_289\n      tag_136\n      jump\t// in\n    tag_289:\n      0x00\n      swap2\n      dup3\n      mstore\n      0x20\n      swap1\n      swap2\n      keccak256\n      0x05\n      swap1\n      swap2\n      mul\n      add\n        /* \"BCStaking.sol\":6196:6218  user.deposits[i].ended */\n      0x04\n      add\n        /* \"BCStaking.sol\":6196:6225  user.deposits[i].ended = true */\n      dup1\n      sload\n      not(0xff)\n      and\n      swap2\n      iszero\n      iszero\n      swap2\n      swap1\n      swap2\n      or\n      swap1\n      sstore\n        /* \"BCStaking.sol\":5192:6249  if (user.deposits[i].startTime > user.checkpoint) {... */\n    tag_276:\n        /* \"BCStaking.sol\":6317:6398  user.deposits[i].withdrawn.add(... */\n      tag_291\n        /* \"BCStaking.sol\":6370:6379  dividends */\n      dup3\n        /* \"BCStaking.sol\":6317:6321  user */\n      dup6\n        /* \"BCStaking.sol\":6317:6330  user.deposits */\n      0x00\n      add\n        /* \"BCStaking.sol\":6331:6332  i */\n      dup4\n        /* \"BCStaking.sol\":6317:6333  user.deposits[i] */\n      dup2\n      sload\n      dup2\n      lt\n      tag_293\n      jumpi\n      tag_293\n      tag_136\n      jump\t// in\n    tag_293:\n      swap1\n      0x00\n      mstore\n      keccak256(0x00, 0x20)\n      swap1\n      0x05\n      mul\n      add\n        /* \"BCStaking.sol\":6317:6343  user.deposits[i].withdrawn */\n      0x01\n      add\n      sload\n        /* \"BCStaking.sol\":6317:6347  user.deposits[i].withdrawn.add */\n      tag_202\n      swap1\n        /* \"BCStaking.sol\":6317:6398  user.deposits[i].withdrawn.add(... */\n      swap2\n      swap1\n      0xffffffff\n      and\n      jump\t// in\n    tag_291:\n        /* \"BCStaking.sol\":6288:6292  user */\n      dup5\n        /* \"BCStaking.sol\":6288:6301  user.deposits */\n      0x00\n      add\n        /* \"BCStaking.sol\":6302:6303  i */\n      dup3\n        /* \"BCStaking.sol\":6288:6304  user.deposits[i] */\n      dup2\n      sload\n      dup2\n      lt\n      tag_296\n      jumpi\n      tag_296\n      tag_136\n      jump\t// in\n    tag_296:\n      0x00\n      swap2\n      dup3\n      mstore\n      0x20\n      swap1\n      swap2\n      keccak256\n        /* \"BCStaking.sol\":6288:6314  user.deposits[i].withdrawn */\n      0x01\n        /* \"BCStaking.sol\":6288:6304  user.deposits[i] */\n      0x05\n      swap1\n      swap3\n      mul\n      add\n        /* \"BCStaking.sol\":6288:6314  user.deposits[i].withdrawn */\n      add\n        /* \"BCStaking.sol\":6288:6398  user.deposits[i].withdrawn = user.deposits[i].withdrawn.add(... */\n      sstore\n        /* \"BCStaking.sol\":6460:6486  totalAmount.add(dividends) */\n      tag_298\n        /* \"BCStaking.sol\":6460:6471  totalAmount */\n      dup4\n        /* \"BCStaking.sol\":6476:6485  dividends */\n      dup4\n        /* \"BCStaking.sol\":6460:6475  totalAmount.add */\n      tag_202\n        /* \"BCStaking.sol\":6460:6486  totalAmount.add(dividends) */\n      jump\t// in\n    tag_298:\n        /* \"BCStaking.sol\":6446:6486  totalAmount = totalAmount.add(dividends) */\n      swap3\n      pop\n        /* \"BCStaking.sol\":4158:6502  if (user.deposits[i].ended == false) {... */\n    tag_225:\n        /* \"BCStaking.sol\":4138:4141  i++ */\n      dup1\n      tag_299\n      dup2\n      tag_204\n      jump\t// in\n    tag_299:\n      swap2\n      pop\n      pop\n        /* \"BCStaking.sol\":4092:6513  for (uint256 i = 0; i < user.deposits.length; i++) {... */\n      jump(tag_219)\n    tag_220:\n      pop\n        /* \"BCStaking.sol\":6570:6580  msg.sender */\n      caller\n        /* \"BCStaking.sol\":6525:6546  uint256 referralBonus */\n      0x00\n        /* \"BCStaking.sol\":13079:13097  users[userAddress] */\n      swap1\n      dup2\n      mstore\n        /* \"BCStaking.sol\":13079:13084  users */\n      0x07\n        /* \"BCStaking.sol\":13079:13097  users[userAddress] */\n      0x20\n      mstore\n      0x40\n      swap1\n      keccak256\n        /* \"BCStaking.sol\":13079:13103  users[userAddress].bonus */\n      0x02\n      add\n      sload\n        /* \"BCStaking.sol\":6596:6613  referralBonus > 0 */\n      dup1\n      iszero\n        /* \"BCStaking.sol\":6592:6715  if (referralBonus > 0) {... */\n      tag_301\n      jumpi\n        /* \"BCStaking.sol\":6644:6674  totalAmount.add(referralBonus) */\n      tag_302\n        /* \"BCStaking.sol\":6644:6655  totalAmount */\n      dup4\n        /* \"BCStaking.sol\":6660:6673  referralBonus */\n      dup3\n        /* \"BCStaking.sol\":6644:6659  totalAmount.add */\n      tag_202\n        /* \"BCStaking.sol\":6644:6674  totalAmount.add(referralBonus) */\n      jump\t// in\n    tag_302:\n        /* \"BCStaking.sol\":6702:6703  0 */\n      0x00\n        /* \"BCStaking.sol\":6689:6699  user.bonus */\n      0x02\n      dup7\n      add\n        /* \"BCStaking.sol\":6689:6703  user.bonus = 0 */\n      sstore\n        /* \"BCStaking.sol\":6630:6674  totalAmount = totalAmount.add(referralBonus) */\n      swap3\n      pop\n        /* \"BCStaking.sol\":6592:6715  if (referralBonus > 0) {... */\n    tag_301:\n        /* \"BCStaking.sol\":6749:6750  0 */\n      0x00\n        /* \"BCStaking.sol\":6735:6746  totalAmount */\n      dup4\n        /* \"BCStaking.sol\":6735:6750  totalAmount > 0 */\n      gt\n        /* \"BCStaking.sol\":6727:6776  require(totalAmount > 0, \"User has no dividends\") */\n      tag_303\n      jumpi\n      mload(0x40)\n      shl(0xe5, 0x461bcd)\n      dup2\n      mstore\n        /* \"#utility.yul\":2662:2664   */\n      0x20\n        /* \"BCStaking.sol\":6727:6776  require(totalAmount > 0, \"User has no dividends\") */\n      0x04\n      dup3\n      add\n        /* \"#utility.yul\":2644:2665   */\n      mstore\n        /* \"#utility.yul\":2701:2703   */\n      0x15\n        /* \"#utility.yul\":2681:2699   */\n      0x24\n      dup3\n      add\n        /* \"#utility.yul\":2674:2704   */\n      mstore\n      shl(0x58, 0x5573657220686173206e6f206469766964656e6473)\n        /* \"#utility.yul\":2720:2738   */\n      0x44\n      dup3\n      add\n        /* \"#utility.yul\":2713:2764   */\n      mstore\n        /* \"#utility.yul\":2781:2799   */\n      0x64\n      add\n        /* \"BCStaking.sol\":6727:6776  require(totalAmount > 0, \"User has no dividends\") */\n      tag_215\n        /* \"#utility.yul\":2460:2805   */\n      jump\n        /* \"BCStaking.sol\":6727:6776  require(totalAmount > 0, \"User has no dividends\") */\n    tag_303:\n        /* \"BCStaking.sol\":6815:6817  BC */\n      sload(0x01)\n        /* \"BCStaking.sol\":6815:6842  BC.balanceOf(address(this)) */\n      mload(0x40)\n      shl(0xe0, 0x70a08231)\n      dup2\n      mstore\n        /* \"BCStaking.sol\":6836:6840  this */\n      address\n        /* \"BCStaking.sol\":6815:6842  BC.balanceOf(address(this)) */\n      0x04\n      dup3\n      add\n        /* \"#utility.yul\":711:762   */\n      mstore\n        /* \"BCStaking.sol\":6789:6812  uint256 contractBalance */\n      0x00\n      swap2\n      sub(shl(0xa0, 0x01), 0x01)\n        /* \"BCStaking.sol\":6815:6817  BC */\n      and\n      swap1\n        /* \"BCStaking.sol\":6815:6827  BC.balanceOf */\n      0x70a08231\n      swap1\n        /* \"#utility.yul\":684:702   */\n      0x24\n      add\n        /* \"BCStaking.sol\":6815:6842  BC.balanceOf(address(this)) */\n      0x20\n      mload(0x40)\n      dup1\n      dup4\n      sub\n      dup2\n      dup7\n      gas\n      staticcall\n      iszero\n      dup1\n      iszero\n      tag_308\n      jumpi\n      returndatasize\n      0x00\n      dup1\n      returndatacopy\n      revert(0x00, returndatasize)\n    tag_308:\n      pop\n      pop\n      pop\n      pop\n      mload(0x40)\n      returndatasize\n      not(0x1f)\n      0x1f\n      dup3\n      add\n      and\n      dup3\n      add\n      dup1\n      0x40\n      mstore\n      pop\n      dup2\n      add\n      swap1\n      tag_309\n      swap2\n      swap1\n      tag_310\n      jump\t// in\n    tag_309:\n        /* \"BCStaking.sol\":6789:6842  uint256 contractBalance = BC.balanceOf(address(this)) */\n      swap1\n      pop\n        /* \"BCStaking.sol\":6875:6886  totalAmount */\n      dup4\n        /* \"BCStaking.sol\":6857:6872  contractBalance */\n      dup2\n        /* \"BCStaking.sol\":6857:6886  contractBalance < totalAmount */\n      lt\n        /* \"BCStaking.sol\":6853:6944  if (contractBalance < totalAmount) {... */\n      iszero\n      tag_311\n      jumpi\n        /* \"BCStaking.sol\":6917:6932  contractBalance */\n      dup1\n        /* \"BCStaking.sol\":6903:6932  totalAmount = contractBalance */\n      swap4\n      pop\n        /* \"BCStaking.sol\":6853:6944  if (contractBalance < totalAmount) {... */\n    tag_311:\n        /* \"BCStaking.sol\":6974:6989  block.timestamp */\n      timestamp\n        /* \"BCStaking.sol\":6956:6971  user.checkpoint */\n      0x01\n      dup7\n      dup2\n      add\n        /* \"BCStaking.sol\":6956:6989  user.checkpoint = block.timestamp */\n      swap2\n      swap1\n      swap2\n      sstore\n        /* \"BCStaking.sol\":7024:7026  BC */\n      sload\n        /* \"BCStaking.sol\":7024:7060  BC.transfer(msg.sender, totalAmount) */\n      mload(0x40)\n      shl(0xe0, 0xa9059cbb)\n      dup2\n      mstore\n        /* \"BCStaking.sol\":7036:7046  msg.sender */\n      caller\n        /* \"BCStaking.sol\":7024:7060  BC.transfer(msg.sender, totalAmount) */\n      0x04\n      dup3\n      add\n        /* \"#utility.yul\":3173:3224   */\n      mstore\n        /* \"#utility.yul\":3240:3258   */\n      0x24\n      dup2\n      add\n        /* \"#utility.yul\":3233:3267   */\n      dup7\n      swap1\n      mstore\n      sub(shl(0xa0, 0x01), 0x01)\n        /* \"BCStaking.sol\":7024:7026  BC */\n      swap1\n      swap2\n      and\n      swap1\n        /* \"BCStaking.sol\":7024:7035  BC.transfer */\n      0xa9059cbb\n      swap1\n        /* \"#utility.yul\":3146:3164   */\n      0x44\n      add\n        /* \"BCStaking.sol\":7024:7060  BC.transfer(msg.sender, totalAmount) */\n      0x20\n      mload(0x40)\n      dup1\n      dup4\n      sub\n      dup2\n      0x00\n      dup8\n      gas\n      call\n      iszero\n      dup1\n      iszero\n      tag_315\n      jumpi\n      returndatasize\n      0x00\n      dup1\n      returndatacopy\n      revert(0x00, returndatasize)\n    tag_315:\n      pop\n      pop\n      pop\n      pop\n      mload(0x40)\n      returndatasize\n      not(0x1f)\n      0x1f\n      dup3\n      add\n      and\n      dup3\n      add\n      dup1\n      0x40\n      mstore\n      pop\n      dup2\n      add\n      swap1\n      tag_316\n      swap2\n      swap1\n      tag_317\n      jump\t// in\n    tag_316:\n        /* \"BCStaking.sol\":7002:7131  require(... */\n      tag_318\n      jumpi\n      mload(0x40)\n      shl(0xe5, 0x461bcd)\n      dup2\n      mstore\n        /* \"#utility.yul\":3762:3764   */\n      0x20\n        /* \"BCStaking.sol\":7002:7131  require(... */\n      0x04\n      dup3\n      add\n        /* \"#utility.yul\":3744:3765   */\n      mstore\n        /* \"#utility.yul\":3801:3803   */\n      0x2b\n        /* \"#utility.yul\":3781:3799   */\n      0x24\n      dup3\n      add\n        /* \"#utility.yul\":3774:3804   */\n      mstore\n        /* \"#utility.yul\":3840:3874   */\n      0x436c61696d206661696c65642064756520746f206661696c656420616d6f756e\n        /* \"#utility.yul\":3820:3838   */\n      0x44\n      dup3\n      add\n        /* \"#utility.yul\":3813:3875   */\n      mstore\n      shl(0xa9, 0x3a103a3930b739b332b917)\n        /* \"#utility.yul\":3891:3909   */\n      0x64\n      dup3\n      add\n        /* \"#utility.yul\":3884:3925   */\n      mstore\n        /* \"#utility.yul\":3942:3961   */\n      0x84\n      add\n        /* \"BCStaking.sol\":7002:7131  require(... */\n      tag_215\n        /* \"#utility.yul\":3560:3967   */\n      jump\n        /* \"BCStaking.sol\":7002:7131  require(... */\n    tag_318:\n        /* \"BCStaking.sol\":7161:7175  totalWithdrawn */\n      sload(0x04)\n        /* \"BCStaking.sol\":7161:7192  totalWithdrawn.add(totalAmount) */\n      tag_321\n      swap1\n        /* \"BCStaking.sol\":7180:7191  totalAmount */\n      dup6\n        /* \"BCStaking.sol\":7161:7179  totalWithdrawn.add */\n      tag_202\n        /* \"BCStaking.sol\":7161:7192  totalWithdrawn.add(totalAmount) */\n      jump\t// in\n    tag_321:\n        /* \"BCStaking.sol\":7144:7158  totalWithdrawn */\n      0x04\n        /* \"BCStaking.sol\":7144:7192  totalWithdrawn = totalWithdrawn.add(totalAmount) */\n      sstore\n        /* \"BCStaking.sol\":7210:7244  Withdrawn(msg.sender, totalAmount) */\n      mload(0x40)\n        /* \"#utility.yul\":160:185   */\n      dup5\n      dup2\n      mstore\n        /* \"BCStaking.sol\":7220:7230  msg.sender */\n      caller\n      swap1\n        /* \"BCStaking.sol\":7210:7244  Withdrawn(msg.sender, totalAmount) */\n      0x7084f5476618d8e60b11ef0d7d3f06914655adb8793e28ff7f018d4c76d505d5\n      swap1\n        /* \"#utility.yul\":148:150   */\n      0x20\n        /* \"#utility.yul\":133:151   */\n      add\n        /* \"BCStaking.sol\":7210:7244  Withdrawn(msg.sender, totalAmount) */\n      mload(0x40)\n      dup1\n      swap2\n      sub\n      swap1\n      log2\n        /* \"BCStaking.sol\":3971:7252  {... */\n      pop\n      pop\n      pop\n      pop\n      pop\n        /* \"BCStaking.sol\":3947:7252  function claim() public {... */\n      jump\t// out\n        /* \"@openzeppelin/contracts/access/Ownable.sol\":1668:1769  function renounceOwnership() public virtual onlyOwner {... */\n    tag_76:\n        /* \"@openzeppelin/contracts/access/Ownable.sol\":1082:1089  address */\n      0x00\n        /* \"@openzeppelin/contracts/access/Ownable.sol\":1108:1114  _owner */\n      sload\n      sub(shl(0xa0, 0x01), 0x01)\n      and\n        /* \"@openzeppelin/contracts/utils/Context.sol\":719:729  msg.sender */\n      caller\n        /* \"@openzeppelin/contracts/access/Ownable.sol\":1248:1271  owner() == _msgSender() */\n      eq\n        /* \"@openzeppelin/contracts/access/Ownable.sol\":1240:1308  require(owner() == _msgSender(), \"Ownable: caller is not the owner\") */\n      tag_326\n      jumpi\n      mload(0x40)\n      shl(0xe5, 0x461bcd)\n      dup2\n      mstore\n      0x04\n      add\n      tag_215\n      swap1\n      tag_216\n      jump\t// in\n    tag_326:\n        /* \"@openzeppelin/contracts/access/Ownable.sol\":1732:1762  _transferOwnership(address(0)) */\n      tag_329\n        /* \"@openzeppelin/contracts/access/Ownable.sol\":1759:1760  0 */\n      0x00\n        /* \"@openzeppelin/contracts/access/Ownable.sol\":1732:1750  _transferOwnership */\n      tag_330\n        /* \"@openzeppelin/contracts/access/Ownable.sol\":1732:1762  _transferOwnership(address(0)) */\n      jump\t// in\n    tag_329:\n        /* \"@openzeppelin/contracts/access/Ownable.sol\":1668:1769  function renounceOwnership() public virtual onlyOwner {... */\n      jump\t// out\n        /* \"BCStaking.sol\":14627:14984  function getUserTotalDeposits(address userAddress)... */\n    tag_79:\n      sub(shl(0xa0, 0x01), 0x01)\n        /* \"BCStaking.sol\":14771:14789  users[userAddress] */\n      dup2\n      and\n        /* \"BCStaking.sol\":14726:14733  uint256 */\n      0x00\n        /* \"BCStaking.sol\":14771:14789  users[userAddress] */\n      swap1\n      dup2\n      mstore\n        /* \"BCStaking.sol\":14771:14776  users */\n      0x07\n        /* \"BCStaking.sol\":14771:14789  users[userAddress] */\n      0x20\n      mstore\n      0x40\n      dup2\n      keccak256\n        /* \"BCStaking.sol\":14726:14733  uint256 */\n      dup2\n      dup1\n        /* \"BCStaking.sol\":14829:14951  for (uint256 i = 0; i < user.deposits.length; i++) {... */\n    tag_332:\n        /* \"BCStaking.sol\":14853:14873  user.deposits.length */\n      dup3\n      sload\n        /* \"BCStaking.sol\":14849:14873  i < user.deposits.length */\n      dup2\n      lt\n        /* \"BCStaking.sol\":14829:14951  for (uint256 i = 0; i < user.deposits.length; i++) {... */\n      iszero\n      tag_333\n      jumpi\n        /* \"BCStaking.sol\":14904:14939  amount.add(user.deposits[i].amount) */\n      tag_335\n        /* \"BCStaking.sol\":14915:14919  user */\n      dup4\n        /* \"BCStaking.sol\":14915:14928  user.deposits */\n      0x00\n      add\n        /* \"BCStaking.sol\":14929:14930  i */\n      dup3\n        /* \"BCStaking.sol\":14915:14931  user.deposits[i] */\n      dup2\n      sload\n      dup2\n      lt\n      tag_337\n      jumpi\n      tag_337\n      tag_136\n      jump\t// in\n    tag_337:\n      0x00\n      swap2\n      dup3\n      mstore\n      0x20\n      swap1\n      swap2\n      keccak256\n      0x05\n      swap1\n      swap2\n      mul\n      add\n        /* \"BCStaking.sol\":14915:14938  user.deposits[i].amount */\n      sload\n        /* \"BCStaking.sol\":14904:14910  amount */\n      dup4\n      swap1\n        /* \"BCStaking.sol\":14904:14914  amount.add */\n      tag_202\n        /* \"BCStaking.sol\":14904:14939  amount.add(user.deposits[i].amount) */\n      jump\t// in\n    tag_335:\n        /* \"BCStaking.sol\":14895:14939  amount = amount.add(user.deposits[i].amount) */\n      swap2\n      pop\n        /* \"BCStaking.sol\":14875:14878  i++ */\n      dup1\n      tag_339\n      dup2\n      tag_204\n      jump\t// in\n    tag_339:\n      swap2\n      pop\n      pop\n        /* \"BCStaking.sol\":14829:14951  for (uint256 i = 0; i < user.deposits.length; i++) {... */\n      jump(tag_332)\n    tag_333:\n      pop\n        /* \"BCStaking.sol\":14970:14976  amount */\n      swap4\n        /* \"BCStaking.sol\":14627:14984  function getUserTotalDeposits(address userAddress)... */\n      swap3\n      pop\n      pop\n      pop\n      jump\t// out\n        /* \"BCStaking.sol\":1742:3939  function stake(address referrer, uint256 amount) public {... */\n    tag_97:\n        /* \"BCStaking.sol\":1841:1858  minimumStakeValue */\n      sload(0x06)\n        /* \"BCStaking.sol\":1831:1837  amount */\n      dup2\n        /* \"BCStaking.sol\":1831:1858  amount >= minimumStakeValue */\n      lt\n      iszero\n        /* \"BCStaking.sol\":1809:1922  require(... */\n      tag_343\n      jumpi\n      mload(0x40)\n      shl(0xe5, 0x461bcd)\n      dup2\n      mstore\n        /* \"#utility.yul\":4174:4176   */\n      0x20\n        /* \"BCStaking.sol\":1809:1922  require(... */\n      0x04\n      dup3\n      add\n        /* \"#utility.yul\":4156:4177   */\n      mstore\n        /* \"#utility.yul\":4213:4215   */\n      0x24\n        /* \"#utility.yul\":4193:4211   */\n      dup1\n      dup3\n      add\n        /* \"#utility.yul\":4186:4216   */\n      mstore\n        /* \"#utility.yul\":4252:4286   */\n      0x416d6f756e742069732062656c6f77206d696e696d756d207374616b65207661\n        /* \"#utility.yul\":4232:4250   */\n      0x44\n      dup3\n      add\n        /* \"#utility.yul\":4225:4287   */\n      mstore\n      shl(0xe1, 0x363ab297)\n        /* \"#utility.yul\":4303:4321   */\n      0x64\n      dup3\n      add\n        /* \"#utility.yul\":4296:4330   */\n      mstore\n        /* \"#utility.yul\":4347:4366   */\n      0x84\n      add\n        /* \"BCStaking.sol\":1809:1922  require(... */\n      tag_215\n        /* \"#utility.yul\":3972:4372   */\n      jump\n        /* \"BCStaking.sol\":1809:1922  require(... */\n    tag_343:\n        /* \"BCStaking.sol\":1957:1959  BC */\n      sload(0x01)\n        /* \"BCStaking.sol\":1957:1981  BC.balanceOf(msg.sender) */\n      mload(0x40)\n      shl(0xe0, 0x70a08231)\n      dup2\n      mstore\n        /* \"BCStaking.sol\":1970:1980  msg.sender */\n      caller\n        /* \"BCStaking.sol\":1957:1981  BC.balanceOf(msg.sender) */\n      0x04\n      dup3\n      add\n        /* \"#utility.yul\":711:762   */\n      mstore\n        /* \"BCStaking.sol\":1985:1991  amount */\n      dup3\n      swap2\n      sub(shl(0xa0, 0x01), 0x01)\n        /* \"BCStaking.sol\":1957:1959  BC */\n      and\n      swap1\n        /* \"BCStaking.sol\":1957:1969  BC.balanceOf */\n      0x70a08231\n      swap1\n        /* \"#utility.yul\":684:702   */\n      0x24\n      add\n        /* \"BCStaking.sol\":1957:1981  BC.balanceOf(msg.sender) */\n      0x20\n      mload(0x40)\n      dup1\n      dup4\n      sub\n      dup2\n      dup7\n      gas\n      staticcall\n      iszero\n      dup1\n      iszero\n      tag_348\n      jumpi\n      returndatasize\n      0x00\n      dup1\n      returndatacopy\n      revert(0x00, returndatasize)\n    tag_348:\n      pop\n      pop\n      pop\n      pop\n      mload(0x40)\n      returndatasize\n      not(0x1f)\n      0x1f\n      dup3\n      add\n      and\n      dup3\n      add\n      dup1\n      0x40\n      mstore\n      pop\n      dup2\n      add\n      swap1\n      tag_349\n      swap2\n      swap1\n      tag_310\n      jump\t// in\n    tag_349:\n        /* \"BCStaking.sol\":1957:1991  BC.balanceOf(msg.sender) >= amount */\n      lt\n      iszero\n        /* \"BCStaking.sol\":1935:2052  require(... */\n      tag_350\n      jumpi\n      mload(0x40)\n      shl(0xe5, 0x461bcd)\n      dup2\n      mstore\n        /* \"#utility.yul\":4579:4581   */\n      0x20\n        /* \"BCStaking.sol\":1935:2052  require(... */\n      0x04\n      dup3\n      add\n        /* \"#utility.yul\":4561:4582   */\n      mstore\n        /* \"#utility.yul\":4618:4620   */\n      0x21\n        /* \"#utility.yul\":4598:4616   */\n      0x24\n      dup3\n      add\n        /* \"#utility.yul\":4591:4621   */\n      mstore\n        /* \"#utility.yul\":4657:4691   */\n      0x4d757374206861766520656e6f7567682062616c616e636520746f207374616b\n        /* \"#utility.yul\":4637:4655   */\n      0x44\n      dup3\n      add\n        /* \"#utility.yul\":4630:4692   */\n      mstore\n      shl(0xf8, 0x65)\n        /* \"#utility.yul\":4708:4726   */\n      0x64\n      dup3\n      add\n        /* \"#utility.yul\":4701:4732   */\n      mstore\n        /* \"#utility.yul\":4749:4768   */\n      0x84\n      add\n        /* \"BCStaking.sol\":1935:2052  require(... */\n      tag_215\n        /* \"#utility.yul\":4377:4774   */\n      jump\n        /* \"BCStaking.sol\":1935:2052  require(... */\n    tag_350:\n        /* \"BCStaking.sol\":2087:2089  BC */\n      sload(0x01)\n        /* \"BCStaking.sol\":2087:2137  BC.transferFrom(msg.sender, address(this), amount) */\n      mload(0x40)\n      shl(0xe0, 0x23b872dd)\n      dup2\n      mstore\n        /* \"BCStaking.sol\":2103:2113  msg.sender */\n      caller\n        /* \"BCStaking.sol\":2087:2137  BC.transferFrom(msg.sender, address(this), amount) */\n      0x04\n      dup3\n      add\n        /* \"#utility.yul\":5019:5053   */\n      mstore\n        /* \"BCStaking.sol\":2123:2127  this */\n      address\n        /* \"#utility.yul\":5069:5087   */\n      0x24\n      dup3\n      add\n        /* \"#utility.yul\":5062:5105   */\n      mstore\n        /* \"#utility.yul\":5121:5139   */\n      0x44\n      dup2\n      add\n        /* \"#utility.yul\":5114:5148   */\n      dup4\n      swap1\n      mstore\n      sub(shl(0xa0, 0x01), 0x01)\n        /* \"BCStaking.sol\":2087:2089  BC */\n      swap1\n      swap2\n      and\n      swap1\n        /* \"BCStaking.sol\":2087:2102  BC.transferFrom */\n      0x23b872dd\n      swap1\n        /* \"#utility.yul\":4954:4972   */\n      0x64\n      add\n        /* \"BCStaking.sol\":2087:2137  BC.transferFrom(msg.sender, address(this), amount) */\n      0x20\n      mload(0x40)\n      dup1\n      dup4\n      sub\n      dup2\n      0x00\n      dup8\n      gas\n      call\n      iszero\n      dup1\n      iszero\n      tag_356\n      jumpi\n      returndatasize\n      0x00\n      dup1\n      returndatacopy\n      revert(0x00, returndatasize)\n    tag_356:\n      pop\n      pop\n      pop\n      pop\n      mload(0x40)\n      returndatasize\n      not(0x1f)\n      0x1f\n      dup3\n      add\n      and\n      dup3\n      add\n      dup1\n      0x40\n      mstore\n      pop\n      dup2\n      add\n      swap1\n      tag_357\n      swap2\n      swap1\n      tag_317\n      jump\t// in\n    tag_357:\n        /* \"BCStaking.sol\":2065:2208  require(... */\n      tag_358\n      jumpi\n      mload(0x40)\n      shl(0xe5, 0x461bcd)\n      dup2\n      mstore\n        /* \"#utility.yul\":5361:5363   */\n      0x20\n        /* \"BCStaking.sol\":2065:2208  require(... */\n      0x04\n      dup3\n      add\n        /* \"#utility.yul\":5343:5364   */\n      mstore\n        /* \"#utility.yul\":5400:5402   */\n      0x2b\n        /* \"#utility.yul\":5380:5398   */\n      0x24\n      dup3\n      add\n        /* \"#utility.yul\":5373:5403   */\n      mstore\n        /* \"#utility.yul\":5439:5473   */\n      0x5374616b65206661696c65642064756520746f206661696c656420616d6f756e\n        /* \"#utility.yul\":5419:5437   */\n      0x44\n      dup3\n      add\n        /* \"#utility.yul\":5412:5474   */\n      mstore\n      shl(0xa9, 0x3a103a3930b739b332b917)\n        /* \"#utility.yul\":5490:5508   */\n      0x64\n      dup3\n      add\n        /* \"#utility.yul\":5483:5524   */\n      mstore\n        /* \"#utility.yul\":5541:5560   */\n      0x84\n      add\n        /* \"BCStaking.sol\":2065:2208  require(... */\n      tag_215\n        /* \"#utility.yul\":5159:5566   */\n      jump\n        /* \"BCStaking.sol\":2065:2208  require(... */\n    tag_358:\n        /* \"BCStaking.sol\":2247:2257  msg.sender */\n      caller\n        /* \"BCStaking.sol\":2221:2238  User storage user */\n      0x00\n        /* \"BCStaking.sol\":2241:2258  users[msg.sender] */\n      swap1\n      dup2\n      mstore\n        /* \"BCStaking.sol\":2241:2246  users */\n      0x07\n        /* \"BCStaking.sol\":2241:2258  users[msg.sender] */\n      0x20\n      mstore\n      0x40\n      swap1\n      keccak256\n        /* \"BCStaking.sol\":2289:2302  user.referrer */\n      0x04\n      dup2\n      add\n      sload\n      sub(shl(0xa0, 0x01), 0x01)\n      and\n        /* \"BCStaking.sol\":2289:2316  user.referrer == address(0) */\n      iszero\n        /* \"BCStaking.sol\":2289:2368  user.referrer == address(0) &&... */\n      dup1\n      iszero\n      tag_361\n      jumpi\n      pop\n      sub(shl(0xa0, 0x01), 0x01)\n        /* \"BCStaking.sol\":2333:2348  users[referrer] */\n      dup4\n      and\n        /* \"BCStaking.sol\":2367:2368  0 */\n      0x00\n        /* \"BCStaking.sol\":2333:2348  users[referrer] */\n      swap1\n      dup2\n      mstore\n        /* \"BCStaking.sol\":2333:2338  users */\n      0x07\n        /* \"BCStaking.sol\":2333:2348  users[referrer] */\n      0x20\n      mstore\n      0x40\n      swap1\n      keccak256\n        /* \"BCStaking.sol\":2333:2364  users[referrer].deposits.length */\n      sload\n        /* \"BCStaking.sol\":2333:2368  users[referrer].deposits.length > 0 */\n      iszero\n      iszero\n        /* \"BCStaking.sol\":2289:2368  user.referrer == address(0) &&... */\n    tag_361:\n        /* \"BCStaking.sol\":2289:2394  user.referrer == address(0) &&... */\n      dup1\n      iszero\n      tag_362\n      jumpi\n      pop\n      sub(shl(0xa0, 0x01), 0x01)\n        /* \"BCStaking.sol\":2372:2394  referrer != msg.sender */\n      dup4\n      and\n        /* \"BCStaking.sol\":2384:2394  msg.sender */\n      caller\n        /* \"BCStaking.sol\":2372:2394  referrer != msg.sender */\n      eq\n      iszero\n        /* \"BCStaking.sol\":2289:2394  user.referrer == address(0) &&... */\n    tag_362:\n        /* \"BCStaking.sol\":2271:2457  if (... */\n      iszero\n      tag_363\n      jumpi\n        /* \"BCStaking.sol\":2421:2434  user.referrer */\n      0x04\n      dup2\n      add\n        /* \"BCStaking.sol\":2421:2445  user.referrer = referrer */\n      dup1\n      sload\n      not(sub(shl(0xa0, 0x01), 0x01))\n      and\n      sub(shl(0xa0, 0x01), 0x01)\n      dup6\n      and\n      or\n      swap1\n      sstore\n        /* \"BCStaking.sol\":2271:2457  if (... */\n    tag_363:\n        /* \"BCStaking.sol\":2473:2486  user.referrer */\n      0x04\n      dup2\n      add\n      sload\n      sub(shl(0xa0, 0x01), 0x01)\n      and\n        /* \"BCStaking.sol\":2473:2500  user.referrer != address(0) */\n      iszero\n        /* \"BCStaking.sol\":2469:2879  if (user.referrer != address(0)) {... */\n      tag_364\n      jumpi\n        /* \"BCStaking.sol\":2534:2547  user.referrer */\n      0x04\n      dup2\n      add\n      sload\n      sub(shl(0xa0, 0x01), 0x01)\n      and\n        /* \"BCStaking.sol\":2568:2588  upline != address(0) */\n      dup1\n      iszero\n        /* \"BCStaking.sol\":2564:2868  if (upline != address(0)) {... */\n      tag_365\n      jumpi\n        /* \"BCStaking.sol\":2609:2624  uint256 _amount */\n      0x00\n        /* \"BCStaking.sol\":2627:2718  amount.mul(REFERRAL_PERCENTS).div(... */\n      tag_366\n        /* \"BCStaking.sol\":365:369  1000 */\n      0x03e8\n        /* \"BCStaking.sol\":2627:2656  amount.mul(REFERRAL_PERCENTS) */\n      tag_155\n        /* \"BCStaking.sol\":2627:2633  amount */\n      dup7\n        /* \"BCStaking.sol\":465:468  120 */\n      0x78\n        /* \"BCStaking.sol\":2627:2637  amount.mul */\n      tag_159\n        /* \"BCStaking.sol\":2627:2656  amount.mul(REFERRAL_PERCENTS) */\n      jump\t// in\n        /* \"BCStaking.sol\":2627:2718  amount.mul(REFERRAL_PERCENTS).div(... */\n    tag_366:\n      sub(shl(0xa0, 0x01), 0x01)\n        /* \"BCStaking.sol\":2759:2772  users[upline] */\n      dup4\n      and\n      0x00\n      swap1\n      dup2\n      mstore\n        /* \"BCStaking.sol\":2759:2764  users */\n      0x07\n        /* \"BCStaking.sol\":2759:2772  users[upline] */\n      0x20\n      mstore\n      0x40\n      swap1\n      keccak256\n        /* \"BCStaking.sol\":2759:2778  users[upline].bonus */\n      0x02\n      add\n      sload\n        /* \"BCStaking.sol\":2609:2718  uint256 _amount = amount.mul(REFERRAL_PERCENTS).div(... */\n      swap1\n      swap2\n      pop\n        /* \"BCStaking.sol\":2759:2791  users[upline].bonus.add(_amount) */\n      tag_368\n      swap1\n        /* \"BCStaking.sol\":2609:2718  uint256 _amount = amount.mul(REFERRAL_PERCENTS).div(... */\n      dup3\n        /* \"BCStaking.sol\":2759:2782  users[upline].bonus.add */\n      tag_202\n        /* \"BCStaking.sol\":2759:2791  users[upline].bonus.add(_amount) */\n      jump\t// in\n    tag_368:\n      sub(shl(0xa0, 0x01), 0x01)\n        /* \"BCStaking.sol\":2737:2750  users[upline] */\n      dup4\n      and\n      0x00\n      dup2\n      dup2\n      mstore\n        /* \"BCStaking.sol\":2737:2742  users */\n      0x07\n        /* \"BCStaking.sol\":2737:2750  users[upline] */\n      0x20\n      swap1\n      dup2\n      mstore\n      0x40\n      swap2\n      dup3\n      swap1\n      keccak256\n        /* \"BCStaking.sol\":2737:2756  users[upline].bonus */\n      0x02\n      add\n        /* \"BCStaking.sol\":2737:2791  users[upline].bonus = users[upline].bonus.add(_amount) */\n      swap4\n      swap1\n      swap4\n      sstore\n        /* \"BCStaking.sol\":2815:2852  RefBonus(upline, msg.sender, _amount) */\n      mload\n        /* \"#utility.yul\":160:185   */\n      dup4\n      dup2\n      mstore\n        /* \"BCStaking.sol\":2832:2842  msg.sender */\n      caller\n      swap3\n        /* \"BCStaking.sol\":2815:2852  RefBonus(upline, msg.sender, _amount) */\n      0x328838ddfc48ad5ae5531b1ad95dfb22b42ff1866853e474375ffef2c63d8e50\n      swap2\n        /* \"#utility.yul\":133:151   */\n      add\n        /* \"BCStaking.sol\":2815:2852  RefBonus(upline, msg.sender, _amount) */\n      mload(0x40)\n      dup1\n      swap2\n      sub\n      swap1\n      log3\n        /* \"BCStaking.sol\":2590:2868  {... */\n      pop\n        /* \"BCStaking.sol\":2564:2868  if (upline != address(0)) {... */\n    tag_365:\n        /* \"BCStaking.sol\":2502:2879  {... */\n      pop\n        /* \"BCStaking.sol\":2469:2879  if (user.referrer != address(0)) {... */\n    tag_364:\n        /* \"BCStaking.sol\":2895:2915  user.deposits.length */\n      dup1\n      sload\n        /* \"BCStaking.sol\":2891:3065  if (user.deposits.length == 0) {... */\n      tag_370\n      jumpi\n        /* \"BCStaking.sol\":2955:2970  block.timestamp */\n      timestamp\n        /* \"BCStaking.sol\":2937:2952  user.checkpoint */\n      0x01\n      dup1\n      dup4\n      add\n        /* \"BCStaking.sol\":2937:2970  user.checkpoint = block.timestamp */\n      swap2\n      swap1\n      swap2\n      sstore\n        /* \"BCStaking.sol\":2998:3008  totalUsers */\n      sload(0x02)\n        /* \"BCStaking.sol\":2998:3015  totalUsers.add(1) */\n      tag_371\n      swap2\n        /* \"BCStaking.sol\":2998:3012  totalUsers.add */\n      tag_202\n        /* \"BCStaking.sol\":2998:3015  totalUsers.add(1) */\n      jump\t// in\n    tag_371:\n        /* \"BCStaking.sol\":2985:2995  totalUsers */\n      0x02\n        /* \"BCStaking.sol\":2985:3015  totalUsers = totalUsers.add(1) */\n      sstore\n        /* \"BCStaking.sol\":3035:3053  Newbie(msg.sender) */\n      mload(0x40)\n        /* \"BCStaking.sol\":3042:3052  msg.sender */\n      caller\n        /* \"#utility.yul\":711:762   */\n      dup2\n      mstore\n        /* \"BCStaking.sol\":3035:3053  Newbie(msg.sender) */\n      0x9fd565cd14c3c391679eb0cad12a14dcf7534e9d3462bcb9b67a098a9bbbc24a\n      swap1\n        /* \"#utility.yul\":699:701   */\n      0x20\n        /* \"#utility.yul\":684:702   */\n      add\n        /* \"BCStaking.sol\":3035:3053  Newbie(msg.sender) */\n      mload(0x40)\n      dup1\n      swap2\n      sub\n      swap1\n      log1\n        /* \"BCStaking.sol\":2891:3065  if (user.deposits.length == 0) {... */\n    tag_370:\n        /* \"BCStaking.sol\":3081:3094  user.referrer */\n      0x04\n      dup2\n      add\n      sload\n      sub(shl(0xa0, 0x01), 0x01)\n      and\n        /* \"BCStaking.sol\":3081:3108  user.referrer != address(0) */\n      iszero\n        /* \"BCStaking.sol\":3077:3779  if (user.referrer != address(0)) {... */\n      tag_373\n      jumpi\n        /* \"BCStaking.sol\":3162:3467  Deposit(... */\n      0x40\n      dup1\n      mload\n      0xa0\n      dup2\n      add\n      swap1\n      swap2\n      mstore\n        /* \"BCStaking.sol\":3125:3129  user */\n      dup2\n      swap1\n        /* \"BCStaking.sol\":3162:3467  Deposit(... */\n      dup1\n        /* \"BCStaking.sol\":3192:3303  amount.sub(... */\n      tag_374\n        /* \"BCStaking.sol\":3229:3280  amount.mul(REFERRAL_PERCENTS).div(PERCENTS_DIVIDER) */\n      tag_375\n        /* \"BCStaking.sol\":365:369  1000 */\n      0x03e8\n        /* \"BCStaking.sol\":3229:3258  amount.mul(REFERRAL_PERCENTS) */\n      tag_155\n        /* \"BCStaking.sol\":3229:3235  amount */\n      dup9\n        /* \"BCStaking.sol\":465:468  120 */\n      0x78\n        /* \"BCStaking.sol\":3229:3239  amount.mul */\n      tag_159\n        /* \"BCStaking.sol\":3229:3258  amount.mul(REFERRAL_PERCENTS) */\n      jump\t// in\n        /* \"BCStaking.sol\":3229:3280  amount.mul(REFERRAL_PERCENTS).div(PERCENTS_DIVIDER) */\n    tag_375:\n        /* \"BCStaking.sol\":3192:3198  amount */\n      dup7\n      swap1\n        /* \"BCStaking.sol\":3192:3202  amount.sub */\n      tag_153\n        /* \"BCStaking.sol\":3192:3303  amount.sub(... */\n      jump\t// in\n    tag_374:\n        /* \"BCStaking.sol\":3162:3467  Deposit(... */\n      dup2\n      mstore\n      0x20\n      add\n        /* \"BCStaking.sol\":3326:3327  0 */\n      0x00\n        /* \"BCStaking.sol\":3162:3467  Deposit(... */\n      dup2\n      mstore\n      0x20\n      add\n        /* \"BCStaking.sol\":3350:3365  block.timestamp */\n      timestamp\n        /* \"BCStaking.sol\":3162:3467  Deposit(... */\n      dup2\n      mstore\n      0x20\n      add\n        /* \"BCStaking.sol\":565:573  180 days */\n      0xed4e00\n        /* \"BCStaking.sol\":3388:3403  block.timestamp */\n      timestamp\n        /* \"BCStaking.sol\":3388:3420  block.timestamp + STAKING_PERIOD */\n      tag_377\n      swap2\n      swap1\n      tag_378\n      jump\t// in\n    tag_377:\n        /* \"BCStaking.sol\":3162:3467  Deposit(... */\n      dup2\n      mstore\n        /* \"BCStaking.sol\":3443:3448  false */\n      0x00\n        /* \"BCStaking.sol\":3162:3467  Deposit(... */\n      0x20\n      swap2\n      dup3\n      add\n      dup2\n      swap1\n      mstore\n        /* \"BCStaking.sol\":3125:3482  user.deposits.push(... */\n      dup4\n      sload\n        /* \"BCStaking.sol\":3162:3467  Deposit(... */\n      0x01\n        /* \"BCStaking.sol\":3125:3482  user.deposits.push(... */\n      dup1\n      dup3\n      add\n      dup7\n      sstore\n      swap5\n      dup3\n      mstore\n      swap1\n      dup3\n      swap1\n      keccak256\n      dup4\n      mload\n      0x05\n      swap1\n      swap3\n      mul\n      add\n      swap1\n      dup2\n      sstore\n      swap1\n      dup3\n      add\n      mload\n      swap3\n      dup2\n      add\n      swap3\n      swap1\n      swap3\n      sstore\n      0x40\n      dup2\n      add\n      mload\n      0x02\n      dup4\n      add\n      sstore\n      0x60\n      dup2\n      add\n      mload\n      0x03\n      dup4\n      add\n      sstore\n      0x80\n      add\n      mload\n      0x04\n      swap1\n      swap2\n      add\n      dup1\n      sload\n      not(0xff)\n      and\n      swap2\n      iszero\n      iszero\n      swap2\n      swap1\n      swap2\n      or\n      swap1\n      sstore\n        /* \"BCStaking.sol\":3077:3779  if (user.referrer != address(0)) {... */\n      jump(tag_380)\n    tag_373:\n        /* \"BCStaking.sol\":3515:3519  user */\n      dup1\n        /* \"BCStaking.sol\":3515:3528  user.deposits */\n      0x00\n      add\n        /* \"BCStaking.sol\":3552:3752  Deposit(... */\n      mload(0x40)\n      dup1\n      0xa0\n      add\n      0x40\n      mstore\n      dup1\n        /* \"BCStaking.sol\":3582:3588  amount */\n      dup5\n        /* \"BCStaking.sol\":3552:3752  Deposit(... */\n      dup2\n      mstore\n      0x20\n      add\n        /* \"BCStaking.sol\":3611:3612  0 */\n      0x00\n        /* \"BCStaking.sol\":3552:3752  Deposit(... */\n      dup2\n      mstore\n      0x20\n      add\n        /* \"BCStaking.sol\":3635:3650  block.timestamp */\n      timestamp\n        /* \"BCStaking.sol\":3552:3752  Deposit(... */\n      dup2\n      mstore\n      0x20\n      add\n        /* \"BCStaking.sol\":565:573  180 days */\n      0xed4e00\n        /* \"BCStaking.sol\":3673:3688  block.timestamp */\n      timestamp\n        /* \"BCStaking.sol\":3673:3705  block.timestamp + STAKING_PERIOD */\n      tag_381\n      swap2\n      swap1\n      tag_378\n      jump\t// in\n    tag_381:\n        /* \"BCStaking.sol\":3552:3752  Deposit(... */\n      dup2\n      mstore\n        /* \"BCStaking.sol\":3728:3733  false */\n      0x00\n        /* \"BCStaking.sol\":3552:3752  Deposit(... */\n      0x20\n      swap2\n      dup3\n      add\n      dup2\n      swap1\n      mstore\n        /* \"BCStaking.sol\":3515:3767  user.deposits.push(... */\n      dup4\n      sload\n        /* \"BCStaking.sol\":3552:3752  Deposit(... */\n      0x01\n        /* \"BCStaking.sol\":3515:3767  user.deposits.push(... */\n      dup1\n      dup3\n      add\n      dup7\n      sstore\n      swap5\n      dup3\n      mstore\n      swap1\n      dup3\n      swap1\n      keccak256\n      dup4\n      mload\n      0x05\n      swap1\n      swap3\n      mul\n      add\n      swap1\n      dup2\n      sstore\n      swap1\n      dup3\n      add\n      mload\n      swap3\n      dup2\n      add\n      swap3\n      swap1\n      swap3\n      sstore\n      0x40\n      dup2\n      add\n      mload\n      0x02\n      dup4\n      add\n      sstore\n      0x60\n      dup2\n      add\n      mload\n      0x03\n      dup4\n      add\n      sstore\n      0x80\n      add\n      mload\n      0x04\n      swap1\n      swap2\n      add\n      dup1\n      sload\n      not(0xff)\n      and\n      swap2\n      iszero\n      iszero\n      swap2\n      swap1\n      swap2\n      or\n      swap1\n      sstore\n        /* \"BCStaking.sol\":3077:3779  if (user.referrer != address(0)) {... */\n    tag_380:\n        /* \"BCStaking.sol\":3805:3816  totalStaked */\n      sload(0x03)\n        /* \"BCStaking.sol\":3805:3828  totalStaked.add(amount) */\n      tag_383\n      swap1\n        /* \"BCStaking.sol\":3821:3827  amount */\n      dup4\n        /* \"BCStaking.sol\":3805:3820  totalStaked.add */\n      tag_202\n        /* \"BCStaking.sol\":3805:3828  totalStaked.add(amount) */\n      jump\t// in\n    tag_383:\n        /* \"BCStaking.sol\":3791:3802  totalStaked */\n      0x03\n        /* \"BCStaking.sol\":3791:3828  totalStaked = totalStaked.add(amount) */\n      sstore\n        /* \"BCStaking.sol\":3859:3876  totalDepositCount */\n      sload(0x05)\n        /* \"BCStaking.sol\":3859:3883  totalDepositCount.add(1) */\n      tag_384\n      swap1\n        /* \"BCStaking.sol\":3881:3882  1 */\n      0x01\n        /* \"BCStaking.sol\":3859:3880  totalDepositCount.add */\n      tag_202\n        /* \"BCStaking.sol\":3859:3883  totalDepositCount.add(1) */\n      jump\t// in\n    tag_384:\n        /* \"BCStaking.sol\":3839:3856  totalDepositCount */\n      0x05\n        /* \"BCStaking.sol\":3839:3883  totalDepositCount = totalDepositCount.add(1) */\n      sstore\n        /* \"BCStaking.sol\":3901:3931  NewDeposit(msg.sender, amount) */\n      mload(0x40)\n        /* \"#utility.yul\":160:185   */\n      dup3\n      dup2\n      mstore\n        /* \"BCStaking.sol\":3912:3922  msg.sender */\n      caller\n      swap1\n        /* \"BCStaking.sol\":3901:3931  NewDeposit(msg.sender, amount) */\n      0x2cb77763bc1e8490c1a904905c4d74b4269919aca114464f4bb4d911e60de364\n      swap1\n        /* \"#utility.yul\":148:150   */\n      0x20\n        /* \"#utility.yul\":133:151   */\n      add\n        /* \"BCStaking.sol\":3901:3931  NewDeposit(msg.sender, amount) */\n      mload(0x40)\n      dup1\n      swap2\n      sub\n      swap1\n      log2\n        /* \"BCStaking.sol\":1798:3939  {... */\n      pop\n        /* \"BCStaking.sol\":1742:3939  function stake(address referrer, uint256 amount) public {... */\n      pop\n      pop\n      jump\t// out\n        /* \"BCStaking.sol\":13896:14435  function getUserDepositInfo(address userAddress, uint256 index)... */\n    tag_103:\n      sub(shl(0xa0, 0x01), 0x01)\n        /* \"BCStaking.sol\":14162:14180  users[userAddress] */\n      dup3\n      and\n        /* \"BCStaking.sol\":14022:14029  uint256 */\n      0x00\n        /* \"BCStaking.sol\":14162:14180  users[userAddress] */\n      swap1\n      dup2\n      mstore\n        /* \"BCStaking.sol\":14162:14167  users */\n      0x07\n        /* \"BCStaking.sol\":14162:14180  users[userAddress] */\n      0x20\n      mstore\n      0x40\n      dup2\n      keccak256\n        /* \"BCStaking.sol\":14215:14235  user.deposits[index] */\n      dup1\n      sload\n        /* \"BCStaking.sol\":14022:14029  uint256 */\n      dup3\n      swap2\n      dup3\n      swap2\n      dup3\n      swap2\n      dup3\n      swap2\n        /* \"BCStaking.sol\":14162:14180  users[userAddress] */\n      dup2\n      swap1\n        /* \"BCStaking.sol\":14229:14234  index */\n      dup9\n      swap1\n        /* \"BCStaking.sol\":14215:14235  user.deposits[index] */\n      dup2\n      lt\n      tag_388\n      jumpi\n      tag_388\n      tag_136\n      jump\t// in\n    tag_388:\n      swap1\n      0x00\n      mstore\n      keccak256(0x00, 0x20)\n      swap1\n      0x05\n      mul\n      add\n        /* \"BCStaking.sol\":14215:14242  user.deposits[index].amount */\n      0x00\n      add\n      sload\n        /* \"BCStaking.sol\":14257:14261  user */\n      dup2\n        /* \"BCStaking.sol\":14257:14270  user.deposits */\n      0x00\n      add\n        /* \"BCStaking.sol\":14271:14276  index */\n      dup9\n        /* \"BCStaking.sol\":14257:14277  user.deposits[index] */\n      dup2\n      sload\n      dup2\n      lt\n      tag_391\n      jumpi\n      tag_391\n      tag_136\n      jump\t// in\n    tag_391:\n      swap1\n      0x00\n      mstore\n      keccak256(0x00, 0x20)\n      swap1\n      0x05\n      mul\n      add\n        /* \"BCStaking.sol\":14257:14287  user.deposits[index].withdrawn */\n      0x01\n      add\n      sload\n        /* \"BCStaking.sol\":14302:14306  user */\n      dup3\n        /* \"BCStaking.sol\":14302:14315  user.deposits */\n      0x00\n      add\n        /* \"BCStaking.sol\":14316:14321  index */\n      dup10\n        /* \"BCStaking.sol\":14302:14322  user.deposits[index] */\n      dup2\n      sload\n      dup2\n      lt\n      tag_394\n      jumpi\n      tag_394\n      tag_136\n      jump\t// in\n    tag_394:\n      swap1\n      0x00\n      mstore\n      keccak256(0x00, 0x20)\n      swap1\n      0x05\n      mul\n      add\n        /* \"BCStaking.sol\":14302:14332  user.deposits[index].startTime */\n      0x02\n      add\n      sload\n        /* \"BCStaking.sol\":14347:14351  user */\n      dup4\n        /* \"BCStaking.sol\":14347:14360  user.deposits */\n      0x00\n      add\n        /* \"BCStaking.sol\":14361:14366  index */\n      dup11\n        /* \"BCStaking.sol\":14347:14367  user.deposits[index] */\n      dup2\n      sload\n      dup2\n      lt\n      tag_397\n      jumpi\n      tag_397\n      tag_136\n      jump\t// in\n    tag_397:\n      swap1\n      0x00\n      mstore\n      keccak256(0x00, 0x20)\n      swap1\n      0x05\n      mul\n      add\n        /* \"BCStaking.sol\":14347:14375  user.deposits[index].endTime */\n      0x03\n      add\n      sload\n        /* \"BCStaking.sol\":14390:14394  user */\n      dup5\n        /* \"BCStaking.sol\":14390:14403  user.deposits */\n      0x00\n      add\n        /* \"BCStaking.sol\":14404:14409  index */\n      dup12\n        /* \"BCStaking.sol\":14390:14410  user.deposits[index] */\n      dup2\n      sload\n      dup2\n      lt\n      tag_400\n      jumpi\n      tag_400\n      tag_136\n      jump\t// in\n    tag_400:\n      0x00\n      swap2\n      dup3\n      mstore\n      0x20\n      swap1\n      swap2\n      keccak256\n      0x05\n      swap1\n      swap2\n      mul\n      add\n        /* \"BCStaking.sol\":14390:14416  user.deposits[index].ended */\n      0x04\n      add\n      sload\n        /* \"BCStaking.sol\":14193:14427  return (... */\n      swap4\n      swap13\n      swap3\n      swap12\n      pop\n      swap1\n      swap10\n      pop\n      swap8\n      pop\n        /* \"BCStaking.sol\":14390:14416  user.deposits[index].ended */\n      0xff\n      swap1\n      swap2\n      and\n      swap6\n      pop\n        /* \"BCStaking.sol\":13896:14435  function getUserDepositInfo(address userAddress, uint256 index)... */\n      swap4\n      pop\n      pop\n      pop\n      pop\n      jump\t// out\n        /* \"@openzeppelin/contracts/access/Ownable.sol\":1918:2116  function transferOwnership(address newOwner) public virtual onlyOwner {... */\n    tag_123:\n        /* \"@openzeppelin/contracts/access/Ownable.sol\":1082:1089  address */\n      0x00\n        /* \"@openzeppelin/contracts/access/Ownable.sol\":1108:1114  _owner */\n      sload\n      sub(shl(0xa0, 0x01), 0x01)\n      and\n        /* \"@openzeppelin/contracts/utils/Context.sol\":719:729  msg.sender */\n      caller\n        /* \"@openzeppelin/contracts/access/Ownable.sol\":1248:1271  owner() == _msgSender() */\n      eq\n        /* \"@openzeppelin/contracts/access/Ownable.sol\":1240:1308  require(owner() == _msgSender(), \"Ownable: caller is not the owner\") */\n      tag_408\n      jumpi\n      mload(0x40)\n      shl(0xe5, 0x461bcd)\n      dup2\n      mstore\n      0x04\n      add\n      tag_215\n      swap1\n      tag_216\n      jump\t// in\n    tag_408:\n      sub(shl(0xa0, 0x01), 0x01)\n        /* \"@openzeppelin/contracts/access/Ownable.sol\":2006:2028  newOwner != address(0) */\n      dup2\n      and\n        /* \"@openzeppelin/contracts/access/Ownable.sol\":1998:2071  require(newOwner != address(0), \"Ownable: new owner is the zero address\") */\n      tag_411\n      jumpi\n      mload(0x40)\n      shl(0xe5, 0x461bcd)\n      dup2\n      mstore\n        /* \"#utility.yul\":5906:5908   */\n      0x20\n        /* \"@openzeppelin/contracts/access/Ownable.sol\":1998:2071  require(newOwner != address(0), \"Ownable: new owner is the zero address\") */\n      0x04\n      dup3\n      add\n        /* \"#utility.yul\":5888:5909   */\n      mstore\n        /* \"#utility.yul\":5945:5947   */\n      0x26\n        /* \"#utility.yul\":5925:5943   */\n      0x24\n      dup3\n      add\n        /* \"#utility.yul\":5918:5948   */\n      mstore\n        /* \"#utility.yul\":5984:6018   */\n      0x4f776e61626c653a206e6577206f776e657220697320746865207a65726f2061\n        /* \"#utility.yul\":5964:5982   */\n      0x44\n      dup3\n      add\n        /* \"#utility.yul\":5957:6019   */\n      mstore\n      shl(0xd0, 0x646472657373)\n        /* \"#utility.yul\":6035:6053   */\n      0x64\n      dup3\n      add\n        /* \"#utility.yul\":6028:6064   */\n      mstore\n        /* \"#utility.yul\":6081:6100   */\n      0x84\n      add\n        /* \"@openzeppelin/contracts/access/Ownable.sol\":1998:2071  require(newOwner != address(0), \"Ownable: new owner is the zero address\") */\n      tag_215\n        /* \"#utility.yul\":5704:6106   */\n      jump\n        /* \"@openzeppelin/contracts/access/Ownable.sol\":1998:2071  require(newOwner != address(0), \"Ownable: new owner is the zero address\") */\n    tag_411:\n        /* \"@openzeppelin/contracts/access/Ownable.sol\":2081:2109  _transferOwnership(newOwner) */\n      tag_414\n        /* \"@openzeppelin/contracts/access/Ownable.sol\":2100:2108  newOwner */\n      dup2\n        /* \"@openzeppelin/contracts/access/Ownable.sol\":2081:2099  _transferOwnership */\n      tag_330\n        /* \"@openzeppelin/contracts/access/Ownable.sol\":2081:2109  _transferOwnership(newOwner) */\n      jump\t// in\n    tag_414:\n        /* \"@openzeppelin/contracts/access/Ownable.sol\":1918:2116  function transferOwnership(address newOwner) public virtual onlyOwner {... */\n      pop\n      jump\t// out\n        /* \"BCStaking.sol\":7260:10502  function compound() public onlyhodler {... */\n    tag_125:\n        /* \"BCStaking.sol\":1243:1244  0 */\n      0x00\n        /* \"BCStaking.sol\":1212:1240  getUserDividends(msg.sender) */\n      tag_416\n        /* \"BCStaking.sol\":1229:1239  msg.sender */\n      caller\n        /* \"BCStaking.sol\":1212:1228  getUserDividends */\n      tag_46\n        /* \"BCStaking.sol\":1212:1240  getUserDividends(msg.sender) */\n      jump\t// in\n    tag_416:\n        /* \"BCStaking.sol\":1212:1244  getUserDividends(msg.sender) > 0 */\n      gt\n        /* \"BCStaking.sol\":1204:1259  require(getUserDividends(msg.sender) > 0, \"Not Holder\") */\n      tag_417\n      jumpi\n      mload(0x40)\n      shl(0xe5, 0x461bcd)\n      dup2\n      mstore\n        /* \"#utility.yul\":6313:6315   */\n      0x20\n        /* \"BCStaking.sol\":1204:1259  require(getUserDividends(msg.sender) > 0, \"Not Holder\") */\n      0x04\n      dup3\n      add\n        /* \"#utility.yul\":6295:6316   */\n      mstore\n        /* \"#utility.yul\":6352:6354   */\n      0x0a\n        /* \"#utility.yul\":6332:6350   */\n      0x24\n      dup3\n      add\n        /* \"#utility.yul\":6325:6355   */\n      mstore\n      shl(0xb1, 0x2737ba102437b63232b9)\n        /* \"#utility.yul\":6371:6389   */\n      0x44\n      dup3\n      add\n        /* \"#utility.yul\":6364:6404   */\n      mstore\n        /* \"#utility.yul\":6421:6439   */\n      0x64\n      add\n        /* \"BCStaking.sol\":1204:1259  require(getUserDividends(msg.sender) > 0, \"Not Holder\") */\n      tag_215\n        /* \"#utility.yul\":6111:6445   */\n      jump\n        /* \"BCStaking.sol\":1204:1259  require(getUserDividends(msg.sender) > 0, \"Not Holder\") */\n    tag_417:\n        /* \"BCStaking.sol\":7335:7345  msg.sender */\n      caller\n        /* \"BCStaking.sol\":7309:7326  User storage user */\n      0x00\n        /* \"BCStaking.sol\":7329:7346  users[msg.sender] */\n      dup2\n      dup2\n      mstore\n        /* \"BCStaking.sol\":7329:7334  users */\n      0x07\n        /* \"BCStaking.sol\":7329:7346  users[msg.sender] */\n      0x20\n      mstore\n      0x40\n      dup2\n      keccak256\n      swap2\n        /* \"BCStaking.sol\":7406:7434  getUserDividends(msg.sender) */\n      tag_421\n      swap1\n        /* \"BCStaking.sol\":7406:7422  getUserDividends */\n      tag_46\n        /* \"BCStaking.sol\":7406:7434  getUserDividends(msg.sender) */\n      jump\t// in\n    tag_421:\n        /* \"BCStaking.sol\":7385:7434  uint256 _dividends = getUserDividends(msg.sender) */\n      swap1\n      pop\n        /* \"BCStaking.sol\":7486:7505  uint256 totalAmount */\n      0x00\n        /* \"BCStaking.sol\":7516:7533  uint256 dividends */\n      dup1\n        /* \"BCStaking.sol\":7546:7550  user */\n      dup4\n        /* \"BCStaking.sol\":7546:7559  user.deposits */\n      0x00\n      add\n        /* \"BCStaking.sol\":7579:7759  Deposit(... */\n      mload(0x40)\n      dup1\n      0xa0\n      add\n      0x40\n      mstore\n      dup1\n        /* \"BCStaking.sol\":7605:7615  _dividends */\n      dup6\n        /* \"BCStaking.sol\":7579:7759  Deposit(... */\n      dup2\n      mstore\n      0x20\n      add\n        /* \"BCStaking.sol\":7634:7635  0 */\n      0x00\n        /* \"BCStaking.sol\":7579:7759  Deposit(... */\n      dup2\n      mstore\n      0x20\n      add\n        /* \"BCStaking.sol\":7654:7669  block.timestamp */\n      timestamp\n        /* \"BCStaking.sol\":7579:7759  Deposit(... */\n      dup2\n      mstore\n      0x20\n      add\n        /* \"BCStaking.sol\":565:573  180 days */\n      0xed4e00\n        /* \"BCStaking.sol\":7688:7703  block.timestamp */\n      timestamp\n        /* \"BCStaking.sol\":7688:7720  block.timestamp + STAKING_PERIOD */\n      tag_422\n      swap2\n      swap1\n      tag_378\n      jump\t// in\n    tag_422:\n        /* \"BCStaking.sol\":7579:7759  Deposit(... */\n      dup2\n      mstore\n        /* \"BCStaking.sol\":7739:7744  false */\n      0x00\n        /* \"BCStaking.sol\":7579:7759  Deposit(... */\n      0x20\n      swap2\n      dup3\n      add\n      dup2\n      swap1\n      mstore\n        /* \"BCStaking.sol\":7546:7770  user.deposits.push(... */\n      dup4\n      sload\n        /* \"BCStaking.sol\":7579:7759  Deposit(... */\n      0x01\n        /* \"BCStaking.sol\":7546:7770  user.deposits.push(... */\n      dup1\n      dup3\n      add\n      dup7\n      sstore\n      swap5\n      dup3\n      mstore\n      dup3\n      dup3\n      keccak256\n      dup5\n      mload\n      0x05\n      swap1\n      swap3\n      mul\n      add\n      swap1\n      dup2\n      sstore\n      swap2\n      dup4\n      add\n      mload\n      swap4\n      dup3\n      add\n      swap4\n      swap1\n      swap4\n      sstore\n      0x40\n      dup3\n      add\n      mload\n      0x02\n      dup3\n      add\n      sstore\n      0x60\n      dup3\n      add\n      mload\n      0x03\n      dup3\n      add\n      sstore\n      0x80\n      swap1\n      swap2\n      add\n      mload\n      0x04\n      swap1\n      swap2\n      add\n      dup1\n      sload\n      not(0xff)\n      and\n      swap2\n      iszero\n      iszero\n      swap2\n      swap1\n      swap2\n      or\n      swap1\n      sstore\n        /* \"BCStaking.sol\":7783:10204  for (uint256 i = 0; i < user.deposits.length; i++) {... */\n    tag_424:\n        /* \"BCStaking.sol\":7807:7827  user.deposits.length */\n      dup5\n      sload\n        /* \"BCStaking.sol\":7803:7827  i < user.deposits.length */\n      dup2\n      lt\n        /* \"BCStaking.sol\":7783:10204  for (uint256 i = 0; i < user.deposits.length; i++) {... */\n      iszero\n      tag_425\n      jumpi\n        /* \"BCStaking.sol\":7853:7857  user */\n      dup5\n        /* \"BCStaking.sol\":7853:7866  user.deposits */\n      0x00\n      add\n        /* \"BCStaking.sol\":7867:7868  i */\n      dup2\n        /* \"BCStaking.sol\":7853:7869  user.deposits[i] */\n      dup2\n      sload\n      dup2\n      lt\n      tag_428\n      jumpi\n      tag_428\n      tag_136\n      jump\t// in\n    tag_428:\n      0x00\n      swap2\n      dup3\n      mstore\n      0x20\n      swap1\n      swap2\n      keccak256\n        /* \"BCStaking.sol\":7853:7875  user.deposits[i].ended */\n      0x04\n        /* \"BCStaking.sol\":7853:7869  user.deposits[i] */\n      0x05\n      swap1\n      swap3\n      mul\n      add\n        /* \"BCStaking.sol\":7853:7875  user.deposits[i].ended */\n      add\n      sload\n      0xff\n      and\n        /* \"BCStaking.sol\":7849:10193  if (user.deposits[i].ended == false) {... */\n      tag_430\n      jumpi\n        /* \"BCStaking.sol\":7936:7951  block.timestamp */\n      timestamp\n        /* \"BCStaking.sol\":7909:7913  user */\n      dup6\n        /* \"BCStaking.sol\":7909:7922  user.deposits */\n      0x00\n      add\n        /* \"BCStaking.sol\":7923:7924  i */\n      dup3\n        /* \"BCStaking.sol\":7909:7925  user.deposits[i] */\n      dup2\n      sload\n      dup2\n      lt\n      tag_432\n      jumpi\n      tag_432\n      tag_136\n      jump\t// in\n    tag_432:\n      swap1\n      0x00\n      mstore\n      keccak256(0x00, 0x20)\n      swap1\n      0x05\n      mul\n      add\n        /* \"BCStaking.sol\":7909:7933  user.deposits[i].endTime */\n      0x03\n      add\n      sload\n        /* \"BCStaking.sol\":7909:7951  user.deposits[i].endTime > block.timestamp */\n      gt\n        /* \"BCStaking.sol\":7905:9959  if (user.deposits[i].endTime > block.timestamp) {... */\n      iszero\n      tag_434\n      jumpi\n        /* \"BCStaking.sol\":8009:8013  user */\n      dup5\n        /* \"BCStaking.sol\":8009:8024  user.checkpoint */\n      0x01\n      add\n      sload\n        /* \"BCStaking.sol\":7980:7984  user */\n      dup6\n        /* \"BCStaking.sol\":7980:7993  user.deposits */\n      0x00\n      add\n        /* \"BCStaking.sol\":7994:7995  i */\n      dup3\n        /* \"BCStaking.sol\":7980:7996  user.deposits[i] */\n      dup2\n      sload\n      dup2\n      lt\n      tag_436\n      jumpi\n      tag_436\n      tag_136\n      jump\t// in\n    tag_436:\n      swap1\n      0x00\n      mstore\n      keccak256(0x00, 0x20)\n      swap1\n      0x05\n      mul\n      add\n        /* \"BCStaking.sol\":7980:8006  user.deposits[i].startTime */\n      0x02\n      add\n      sload\n        /* \"BCStaking.sol\":7980:8024  user.deposits[i].startTime > user.checkpoint */\n      gt\n        /* \"BCStaking.sol\":7976:8835  if (user.deposits[i].startTime > user.checkpoint) {... */\n      iszero\n      tag_438\n      jumpi\n        /* \"BCStaking.sol\":8065:8439  (... */\n      tag_439\n        /* \"BCStaking.sol\":511:517  1 days */\n      0x015180\n        /* \"BCStaking.sol\":8065:8394  (... */\n      tag_155\n        /* \"BCStaking.sol\":8316:8363  block.timestamp.sub(user.deposits[i].startTime) */\n      tag_441\n        /* \"BCStaking.sol\":8336:8340  user */\n      dup9\n        /* \"BCStaking.sol\":8336:8349  user.deposits */\n      0x00\n      add\n        /* \"BCStaking.sol\":8350:8351  i */\n      dup6\n        /* \"BCStaking.sol\":8336:8352  user.deposits[i] */\n      dup2\n      sload\n      dup2\n      lt\n      tag_151\n      jumpi\n      tag_151\n      tag_136\n      jump\t// in\n        /* \"BCStaking.sol\":8316:8363  block.timestamp.sub(user.deposits[i].startTime) */\n    tag_441:\n        /* \"BCStaking.sol\":8096:8220  user.deposits[i].amount.mul(DAILY_ROI).div(... */\n      tag_154\n        /* \"BCStaking.sol\":365:369  1000 */\n      0x03e8\n        /* \"BCStaking.sol\":8096:8134  user.deposits[i].amount.mul(DAILY_ROI) */\n      tag_155\n        /* \"BCStaking.sol\":412:414  15 */\n      0x0f\n        /* \"BCStaking.sol\":8096:8100  user */\n      dup13\n        /* \"BCStaking.sol\":8096:8109  user.deposits */\n      0x00\n      add\n        /* \"BCStaking.sol\":8110:8111  i */\n      dup10\n        /* \"BCStaking.sol\":8096:8112  user.deposits[i] */\n      dup2\n      sload\n      dup2\n      lt\n      tag_157\n      jumpi\n      tag_157\n      tag_136\n      jump\t// in\n        /* \"BCStaking.sol\":8065:8439  (... */\n    tag_439:\n        /* \"BCStaking.sol\":8053:8439  dividends = (... */\n      swap2\n      pop\n        /* \"BCStaking.sol\":7905:9959  if (user.deposits[i].endTime > block.timestamp) {... */\n      jump(tag_481)\n        /* \"BCStaking.sol\":7976:8835  if (user.deposits[i].startTime > user.checkpoint) {... */\n    tag_438:\n        /* \"BCStaking.sol\":8508:8811  (... */\n      tag_439\n        /* \"BCStaking.sol\":511:517  1 days */\n      0x015180\n        /* \"BCStaking.sol\":8508:8732  (... */\n      tag_155\n        /* \"BCStaking.sol\":8695:8731  block.timestamp.sub(user.checkpoint) */\n      tag_441\n        /* \"BCStaking.sol\":8715:8719  user */\n      dup9\n        /* \"BCStaking.sol\":8715:8730  user.checkpoint */\n      0x01\n      add\n      sload\n        /* \"BCStaking.sol\":8695:8710  block.timestamp */\n      timestamp\n        /* \"BCStaking.sol\":8695:8714  block.timestamp.sub */\n      tag_153\n      swap1\n        /* \"BCStaking.sol\":8695:8731  block.timestamp.sub(user.checkpoint) */\n      swap2\n      swap1\n      0xffffffff\n      and\n      jump\t// in\n        /* \"BCStaking.sol\":7905:9959  if (user.deposits[i].endTime > block.timestamp) {... */\n    tag_434:\n        /* \"BCStaking.sol\":8916:8920  user */\n      dup5\n        /* \"BCStaking.sol\":8916:8931  user.checkpoint */\n      0x01\n      add\n      sload\n        /* \"BCStaking.sol\":8887:8891  user */\n      dup6\n        /* \"BCStaking.sol\":8887:8900  user.deposits */\n      0x00\n      add\n        /* \"BCStaking.sol\":8901:8902  i */\n      dup3\n        /* \"BCStaking.sol\":8887:8903  user.deposits[i] */\n      dup2\n      sload\n      dup2\n      lt\n      tag_461\n      jumpi\n      tag_461\n      tag_136\n      jump\t// in\n    tag_461:\n      swap1\n      0x00\n      mstore\n      keccak256(0x00, 0x20)\n      swap1\n      0x05\n      mul\n      add\n        /* \"BCStaking.sol\":8887:8913  user.deposits[i].startTime */\n      0x02\n      add\n      sload\n        /* \"BCStaking.sol\":8887:8931  user.deposits[i].startTime > user.checkpoint */\n      gt\n        /* \"BCStaking.sol\":8883:9940  if (user.deposits[i].startTime > user.checkpoint) {... */\n      iszero\n      tag_463\n      jumpi\n        /* \"BCStaking.sol\":8972:9427  (... */\n      tag_464\n        /* \"BCStaking.sol\":511:517  1 days */\n      0x015180\n        /* \"BCStaking.sol\":8972:9382  (... */\n      tag_155\n        /* \"BCStaking.sol\":9223:9351  user.deposits[i].endTime.sub(... */\n      tag_441\n        /* \"BCStaking.sol\":9290:9294  user */\n      dup9\n        /* \"BCStaking.sol\":9290:9303  user.deposits */\n      0x00\n      add\n        /* \"BCStaking.sol\":9304:9305  i */\n      dup6\n        /* \"BCStaking.sol\":9290:9306  user.deposits[i] */\n      dup2\n      sload\n      dup2\n      lt\n      tag_468\n      jumpi\n      tag_468\n      tag_136\n      jump\t// in\n    tag_468:\n      swap1\n      0x00\n      mstore\n      keccak256(0x00, 0x20)\n      swap1\n      0x05\n      mul\n      add\n        /* \"BCStaking.sol\":9290:9316  user.deposits[i].startTime */\n      0x02\n      add\n      sload\n        /* \"BCStaking.sol\":9223:9227  user */\n      dup10\n        /* \"BCStaking.sol\":9223:9236  user.deposits */\n      0x00\n      add\n        /* \"BCStaking.sol\":9237:9238  i */\n      dup7\n        /* \"BCStaking.sol\":9223:9239  user.deposits[i] */\n      dup2\n      sload\n      dup2\n      lt\n      tag_182\n      jumpi\n      tag_182\n      tag_136\n      jump\t// in\n        /* \"BCStaking.sol\":8972:9427  (... */\n    tag_464:\n        /* \"BCStaking.sol\":8960:9427  dividends = (... */\n      swap2\n      pop\n        /* \"BCStaking.sol\":9479:9483  true */\n      0x01\n        /* \"BCStaking.sol\":9454:9458  user */\n      dup6\n        /* \"BCStaking.sol\":9454:9467  user.deposits */\n      0x00\n      add\n        /* \"BCStaking.sol\":9468:9469  i */\n      dup3\n        /* \"BCStaking.sol\":9454:9470  user.deposits[i] */\n      dup2\n      sload\n      dup2\n      lt\n      tag_479\n      jumpi\n      tag_479\n      tag_136\n      jump\t// in\n    tag_479:\n      0x00\n      swap2\n      dup3\n      mstore\n      0x20\n      swap1\n      swap2\n      keccak256\n      0x05\n      swap1\n      swap2\n      mul\n      add\n        /* \"BCStaking.sol\":9454:9476  user.deposits[i].ended */\n      0x04\n      add\n        /* \"BCStaking.sol\":9454:9483  user.deposits[i].ended = true */\n      dup1\n      sload\n      not(0xff)\n      and\n      swap2\n      iszero\n      iszero\n      swap2\n      swap1\n      swap2\n      or\n      swap1\n      sstore\n        /* \"BCStaking.sol\":8883:9940  if (user.deposits[i].startTime > user.checkpoint) {... */\n      jump(tag_481)\n    tag_463:\n        /* \"BCStaking.sol\":9552:9860  (... */\n      tag_482\n        /* \"BCStaking.sol\":511:517  1 days */\n      0x015180\n        /* \"BCStaking.sol\":9552:9815  (... */\n      tag_155\n        /* \"BCStaking.sol\":9769:9814  user.deposits[i].endTime.sub(user.checkpoint) */\n      tag_441\n        /* \"BCStaking.sol\":9798:9802  user */\n      dup9\n        /* \"BCStaking.sol\":9798:9813  user.checkpoint */\n      0x01\n      add\n      sload\n        /* \"BCStaking.sol\":9769:9773  user */\n      dup10\n        /* \"BCStaking.sol\":9769:9782  user.deposits */\n      0x00\n      add\n        /* \"BCStaking.sol\":9783:9784  i */\n      dup7\n        /* \"BCStaking.sol\":9769:9785  user.deposits[i] */\n      dup2\n      sload\n      dup2\n      lt\n      tag_182\n      jumpi\n      tag_182\n      tag_136\n      jump\t// in\n        /* \"BCStaking.sol\":9552:9860  (... */\n    tag_482:\n        /* \"BCStaking.sol\":9540:9860  dividends = (... */\n      swap2\n      pop\n        /* \"BCStaking.sol\":9912:9916  true */\n      0x01\n        /* \"BCStaking.sol\":9887:9891  user */\n      dup6\n        /* \"BCStaking.sol\":9887:9900  user.deposits */\n      0x00\n      add\n        /* \"BCStaking.sol\":9901:9902  i */\n      dup3\n        /* \"BCStaking.sol\":9887:9903  user.deposits[i] */\n      dup2\n      sload\n      dup2\n      lt\n      tag_494\n      jumpi\n      tag_494\n      tag_136\n      jump\t// in\n    tag_494:\n      0x00\n      swap2\n      dup3\n      mstore\n      0x20\n      swap1\n      swap2\n      keccak256\n      0x05\n      swap1\n      swap2\n      mul\n      add\n        /* \"BCStaking.sol\":9887:9909  user.deposits[i].ended */\n      0x04\n      add\n        /* \"BCStaking.sol\":9887:9916  user.deposits[i].ended = true */\n      dup1\n      sload\n      not(0xff)\n      and\n      swap2\n      iszero\n      iszero\n      swap2\n      swap1\n      swap2\n      or\n      swap1\n      sstore\n        /* \"BCStaking.sol\":8883:9940  if (user.deposits[i].startTime > user.checkpoint) {... */\n    tag_481:\n        /* \"BCStaking.sol\":10008:10089  user.deposits[i].withdrawn.add(... */\n      tag_496\n        /* \"BCStaking.sol\":10061:10070  dividends */\n      dup3\n        /* \"BCStaking.sol\":10008:10012  user */\n      dup7\n        /* \"BCStaking.sol\":10008:10021  user.deposits */\n      0x00\n      add\n        /* \"BCStaking.sol\":10022:10023  i */\n      dup4\n        /* \"BCStaking.sol\":10008:10024  user.deposits[i] */\n      dup2\n      sload\n      dup2\n      lt\n      tag_293\n      jumpi\n      tag_293\n      tag_136\n      jump\t// in\n        /* \"BCStaking.sol\":10008:10089  user.deposits[i].withdrawn.add(... */\n    tag_496:\n        /* \"BCStaking.sol\":9979:9983  user */\n      dup6\n        /* \"BCStaking.sol\":9979:9992  user.deposits */\n      0x00\n      add\n        /* \"BCStaking.sol\":9993:9994  i */\n      dup3\n        /* \"BCStaking.sol\":9979:9995  user.deposits[i] */\n      dup2\n      sload\n      dup2\n      lt\n      tag_501\n      jumpi\n      tag_501\n      tag_136\n      jump\t// in\n    tag_501:\n      0x00\n      swap2\n      dup3\n      mstore\n      0x20\n      swap1\n      swap2\n      keccak256\n        /* \"BCStaking.sol\":9979:10005  user.deposits[i].withdrawn */\n      0x01\n        /* \"BCStaking.sol\":9979:9995  user.deposits[i] */\n      0x05\n      swap1\n      swap3\n      mul\n      add\n        /* \"BCStaking.sol\":9979:10005  user.deposits[i].withdrawn */\n      add\n        /* \"BCStaking.sol\":9979:10089  user.deposits[i].withdrawn = user.deposits[i].withdrawn.add(... */\n      sstore\n        /* \"BCStaking.sol\":10151:10177  totalAmount.add(dividends) */\n      tag_503\n        /* \"BCStaking.sol\":10151:10162  totalAmount */\n      dup4\n        /* \"BCStaking.sol\":10167:10176  dividends */\n      dup4\n        /* \"BCStaking.sol\":10151:10166  totalAmount.add */\n      tag_202\n        /* \"BCStaking.sol\":10151:10177  totalAmount.add(dividends) */\n      jump\t// in\n    tag_503:\n        /* \"BCStaking.sol\":10137:10177  totalAmount = totalAmount.add(dividends) */\n      swap3\n      pop\n        /* \"BCStaking.sol\":7849:10193  if (user.deposits[i].ended == false) {... */\n    tag_430:\n        /* \"BCStaking.sol\":7829:7832  i++ */\n      dup1\n      tag_504\n      dup2\n      tag_204\n      jump\t// in\n    tag_504:\n      swap2\n      pop\n      pop\n        /* \"BCStaking.sol\":7783:10204  for (uint256 i = 0; i < user.deposits.length; i++) {... */\n      jump(tag_424)\n    tag_425:\n      pop\n        /* \"BCStaking.sol\":10234:10249  block.timestamp */\n      timestamp\n        /* \"BCStaking.sol\":10216:10231  user.checkpoint */\n      0x01\n      dup6\n      add\n        /* \"BCStaking.sol\":10216:10249  user.checkpoint = block.timestamp */\n      sstore\n        /* \"BCStaking.sol\":10276:10287  totalStaked */\n      sload(0x03)\n        /* \"BCStaking.sol\":10276:10303  totalStaked.add(_dividends) */\n      tag_505\n      swap1\n        /* \"BCStaking.sol\":10292:10302  _dividends */\n      dup5\n        /* \"BCStaking.sol\":10276:10291  totalStaked.add */\n      tag_202\n        /* \"BCStaking.sol\":10276:10303  totalStaked.add(_dividends) */\n      jump\t// in\n    tag_505:\n        /* \"BCStaking.sol\":10262:10273  totalStaked */\n      0x03\n        /* \"BCStaking.sol\":10262:10303  totalStaked = totalStaked.add(_dividends) */\n      sstore\n        /* \"BCStaking.sol\":10334:10351  totalDepositCount */\n      sload(0x05)\n        /* \"BCStaking.sol\":10334:10358  totalDepositCount.add(1) */\n      tag_506\n      swap1\n        /* \"BCStaking.sol\":10356:10357  1 */\n      0x01\n        /* \"BCStaking.sol\":10334:10355  totalDepositCount.add */\n      tag_202\n        /* \"BCStaking.sol\":10334:10358  totalDepositCount.add(1) */\n      jump\t// in\n    tag_506:\n        /* \"BCStaking.sol\":10314:10331  totalDepositCount */\n      0x05\n        /* \"BCStaking.sol\":10314:10358  totalDepositCount = totalDepositCount.add(1) */\n      sstore\n        /* \"BCStaking.sol\":10386:10400  totalWithdrawn */\n      sload(0x04)\n        /* \"BCStaking.sol\":10386:10417  totalWithdrawn.add(totalAmount) */\n      tag_507\n      swap1\n        /* \"BCStaking.sol\":10405:10416  totalAmount */\n      dup4\n        /* \"BCStaking.sol\":10386:10404  totalWithdrawn.add */\n      tag_202\n        /* \"BCStaking.sol\":10386:10417  totalWithdrawn.add(totalAmount) */\n      jump\t// in\n    tag_507:\n        /* \"BCStaking.sol\":10369:10383  totalWithdrawn */\n      0x04\n        /* \"BCStaking.sol\":10369:10417  totalWithdrawn = totalWithdrawn.add(totalAmount) */\n      sstore\n        /* \"BCStaking.sol\":10456:10494  onReinvestment(msg.sender, _dividends) */\n      mload(0x40)\n        /* \"#utility.yul\":160:185   */\n      dup4\n      dup2\n      mstore\n        /* \"BCStaking.sol\":10471:10481  msg.sender */\n      caller\n      swap1\n        /* \"BCStaking.sol\":10456:10494  onReinvestment(msg.sender, _dividends) */\n      0x5d511c2070e5a2dbcc6fbfbb3fd6704a11ab5fa74b793b81aacece2c7cc29405\n      swap1\n        /* \"#utility.yul\":148:150   */\n      0x20\n        /* \"#utility.yul\":133:151   */\n      add\n        /* \"BCStaking.sol\":10456:10494  onReinvestment(msg.sender, _dividends) */\n      mload(0x40)\n      dup1\n      swap2\n      sub\n      swap1\n      log2\n        /* \"BCStaking.sol\":7298:10502  {... */\n      pop\n      pop\n      pop\n      pop\n        /* \"BCStaking.sol\":7260:10502  function compound() public onlyhodler {... */\n      jump\t// out\n        /* \"BCStaking.sol\":14992:15353  function getUserTotalWithdrawn(address userAddress)... */\n    tag_128:\n      sub(shl(0xa0, 0x01), 0x01)\n        /* \"BCStaking.sol\":15137:15155  users[userAddress] */\n      dup2\n      and\n        /* \"BCStaking.sol\":15092:15099  uint256 */\n      0x00\n        /* \"BCStaking.sol\":15137:15155  users[userAddress] */\n      swap1\n      dup2\n      mstore\n        /* \"BCStaking.sol\":15137:15142  users */\n      0x07\n        /* \"BCStaking.sol\":15137:15155  users[userAddress] */\n      0x20\n      mstore\n      0x40\n      dup2\n      keccak256\n        /* \"BCStaking.sol\":15092:15099  uint256 */\n      dup2\n      dup1\n        /* \"BCStaking.sol\":15195:15320  for (uint256 i = 0; i < user.deposits.length; i++) {... */\n    tag_510:\n        /* \"BCStaking.sol\":15219:15239  user.deposits.length */\n      dup3\n      sload\n        /* \"BCStaking.sol\":15215:15239  i < user.deposits.length */\n      dup2\n      lt\n        /* \"BCStaking.sol\":15195:15320  for (uint256 i = 0; i < user.deposits.length; i++) {... */\n      iszero\n      tag_333\n      jumpi\n        /* \"BCStaking.sol\":15270:15308  amount.add(user.deposits[i].withdrawn) */\n      tag_513\n        /* \"BCStaking.sol\":15281:15285  user */\n      dup4\n        /* \"BCStaking.sol\":15281:15294  user.deposits */\n      0x00\n      add\n        /* \"BCStaking.sol\":15295:15296  i */\n      dup3\n        /* \"BCStaking.sol\":15281:15297  user.deposits[i] */\n      dup2\n      sload\n      dup2\n      lt\n      tag_515\n      jumpi\n      tag_515\n      tag_136\n      jump\t// in\n    tag_515:\n      swap1\n      0x00\n      mstore\n      keccak256(0x00, 0x20)\n      swap1\n      0x05\n      mul\n      add\n        /* \"BCStaking.sol\":15281:15307  user.deposits[i].withdrawn */\n      0x01\n      add\n      sload\n        /* \"BCStaking.sol\":15270:15276  amount */\n      dup4\n        /* \"BCStaking.sol\":15270:15280  amount.add */\n      tag_202\n      swap1\n        /* \"BCStaking.sol\":15270:15308  amount.add(user.deposits[i].withdrawn) */\n      swap2\n      swap1\n      0xffffffff\n      and\n      jump\t// in\n    tag_513:\n        /* \"BCStaking.sol\":15261:15308  amount = amount.add(user.deposits[i].withdrawn) */\n      swap2\n      pop\n        /* \"BCStaking.sol\":15241:15244  i++ */\n      dup1\n      tag_517\n      dup2\n      tag_204\n      jump\t// in\n    tag_517:\n      swap2\n      pop\n      pop\n        /* \"BCStaking.sol\":15195:15320  for (uint256 i = 0; i < user.deposits.length; i++) {... */\n      jump(tag_510)\n        /* \"@openzeppelin/contracts/utils/math/SafeMath.sol\":3122:3218  function sub(uint256 a, uint256 b) internal pure returns (uint256) {... */\n    tag_153:\n        /* \"@openzeppelin/contracts/utils/math/SafeMath.sol\":3180:3187  uint256 */\n      0x00\n        /* \"@openzeppelin/contracts/utils/math/SafeMath.sol\":3206:3211  a - b */\n      tag_519\n        /* \"@openzeppelin/contracts/utils/math/SafeMath.sol\":3210:3211  b */\n      dup3\n        /* \"@openzeppelin/contracts/utils/math/SafeMath.sol\":3206:3207  a */\n      dup5\n        /* \"@openzeppelin/contracts/utils/math/SafeMath.sol\":3206:3211  a - b */\n      tag_520\n      jump\t// in\n    tag_519:\n        /* \"@openzeppelin/contracts/utils/math/SafeMath.sol\":3199:3211  return a - b */\n      swap4\n        /* \"@openzeppelin/contracts/utils/math/SafeMath.sol\":3122:3218  function sub(uint256 a, uint256 b) internal pure returns (uint256) {... */\n      swap3\n      pop\n      pop\n      pop\n      jump\t// out\n        /* \"@openzeppelin/contracts/utils/math/SafeMath.sol\":3465:3561  function mul(uint256 a, uint256 b) internal pure returns (uint256) {... */\n    tag_159:\n        /* \"@openzeppelin/contracts/utils/math/SafeMath.sol\":3523:3530  uint256 */\n      0x00\n        /* \"@openzeppelin/contracts/utils/math/SafeMath.sol\":3549:3554  a * b */\n      tag_519\n        /* \"@openzeppelin/contracts/utils/math/SafeMath.sol\":3553:3554  b */\n      dup3\n        /* \"@openzeppelin/contracts/utils/math/SafeMath.sol\":3549:3550  a */\n      dup5\n        /* \"@openzeppelin/contracts/utils/math/SafeMath.sol\":3549:3554  a * b */\n      tag_523\n      jump\t// in\n        /* \"@openzeppelin/contracts/utils/math/SafeMath.sol\":3850:3946  function div(uint256 a, uint256 b) internal pure returns (uint256) {... */\n    tag_160:\n        /* \"@openzeppelin/contracts/utils/math/SafeMath.sol\":3908:3915  uint256 */\n      0x00\n        /* \"@openzeppelin/contracts/utils/math/SafeMath.sol\":3934:3939  a / b */\n      tag_519\n        /* \"@openzeppelin/contracts/utils/math/SafeMath.sol\":3938:3939  b */\n      dup3\n        /* \"@openzeppelin/contracts/utils/math/SafeMath.sol\":3934:3935  a */\n      dup5\n        /* \"@openzeppelin/contracts/utils/math/SafeMath.sol\":3934:3939  a / b */\n      tag_526\n      jump\t// in\n        /* \"@openzeppelin/contracts/utils/math/SafeMath.sol\":2755:2851  function add(uint256 a, uint256 b) internal pure returns (uint256) {... */\n    tag_202:\n        /* \"@openzeppelin/contracts/utils/math/SafeMath.sol\":2813:2820  uint256 */\n      0x00\n        /* \"@openzeppelin/contracts/utils/math/SafeMath.sol\":2839:2844  a + b */\n      tag_519\n        /* \"@openzeppelin/contracts/utils/math/SafeMath.sol\":2843:2844  b */\n      dup3\n        /* \"@openzeppelin/contracts/utils/math/SafeMath.sol\":2839:2840  a */\n      dup5\n        /* \"@openzeppelin/contracts/utils/math/SafeMath.sol\":2839:2844  a + b */\n      tag_378\n      jump\t// in\n        /* \"@openzeppelin/contracts/access/Ownable.sol\":2270:2457  function _transferOwnership(address newOwner) internal virtual {... */\n    tag_330:\n        /* \"@openzeppelin/contracts/access/Ownable.sol\":2343:2359  address oldOwner */\n      0x00\n        /* \"@openzeppelin/contracts/access/Ownable.sol\":2362:2368  _owner */\n      dup1\n      sload\n      sub(shl(0xa0, 0x01), 0x01)\n        /* \"@openzeppelin/contracts/access/Ownable.sol\":2378:2395  _owner = newOwner */\n      dup4\n      dup2\n      and\n      not(sub(shl(0xa0, 0x01), 0x01))\n      dup4\n      and\n      dup2\n      or\n      dup5\n      sstore\n        /* \"@openzeppelin/contracts/access/Ownable.sol\":2410:2450  OwnershipTransferred(oldOwner, newOwner) */\n      mload(0x40)\n        /* \"@openzeppelin/contracts/access/Ownable.sol\":2362:2368  _owner */\n      swap2\n      swap1\n      swap3\n      and\n      swap3\n      dup4\n      swap2\n        /* \"@openzeppelin/contracts/access/Ownable.sol\":2410:2450  OwnershipTransferred(oldOwner, newOwner) */\n      0x8be0079c531659141344cd1fd0a4f28419497f9722a3daafe3b4186f6b6457e0\n      swap2\n        /* \"@openzeppelin/contracts/access/Ownable.sol\":2343:2359  address oldOwner */\n      swap1\n        /* \"@openzeppelin/contracts/access/Ownable.sol\":2410:2450  OwnershipTransferred(oldOwner, newOwner) */\n      log3\n        /* \"@openzeppelin/contracts/access/Ownable.sol\":2333:2457  {... */\n      pop\n        /* \"@openzeppelin/contracts/access/Ownable.sol\":2270:2457  function _transferOwnership(address newOwner) internal virtual {... */\n      pop\n      jump\t// out\n        /* \"#utility.yul\":196:369   */\n    tag_531:\n        /* \"#utility.yul\":264:284   */\n      dup1\n      calldataload\n      sub(shl(0xa0, 0x01), 0x01)\n        /* \"#utility.yul\":313:344   */\n      dup2\n      and\n        /* \"#utility.yul\":303:345   */\n      dup2\n      eq\n        /* \"#utility.yul\":293:363   */\n      tag_536\n      jumpi\n        /* \"#utility.yul\":359:360   */\n      0x00\n        /* \"#utility.yul\":356:357   */\n      dup1\n        /* \"#utility.yul\":349:361   */\n      revert\n        /* \"#utility.yul\":293:363   */\n    tag_536:\n        /* \"#utility.yul\":196:369   */\n      swap2\n      swap1\n      pop\n      jump\t// out\n        /* \"#utility.yul\":374:560   */\n    tag_45:\n        /* \"#utility.yul\":433:439   */\n      0x00\n        /* \"#utility.yul\":486:488   */\n      0x20\n        /* \"#utility.yul\":474:483   */\n      dup3\n        /* \"#utility.yul\":465:472   */\n      dup5\n        /* \"#utility.yul\":461:484   */\n      sub\n        /* \"#utility.yul\":457:489   */\n      slt\n        /* \"#utility.yul\":454:506   */\n      iszero\n      tag_538\n      jumpi\n        /* \"#utility.yul\":502:503   */\n      0x00\n        /* \"#utility.yul\":499:500   */\n      dup1\n        /* \"#utility.yul\":492:504   */\n      revert\n        /* \"#utility.yul\":454:506   */\n    tag_538:\n        /* \"#utility.yul\":525:554   */\n      tag_519\n        /* \"#utility.yul\":544:553   */\n      dup3\n        /* \"#utility.yul\":525:554   */\n      tag_531\n      jump\t// in\n        /* \"#utility.yul\":773:953   */\n    tag_71:\n        /* \"#utility.yul\":832:838   */\n      0x00\n        /* \"#utility.yul\":885:887   */\n      0x20\n        /* \"#utility.yul\":873:882   */\n      dup3\n        /* \"#utility.yul\":864:871   */\n      dup5\n        /* \"#utility.yul\":860:883   */\n      sub\n        /* \"#utility.yul\":856:888   */\n      slt\n        /* \"#utility.yul\":853:905   */\n      iszero\n      tag_542\n      jumpi\n        /* \"#utility.yul\":901:902   */\n      0x00\n        /* \"#utility.yul\":898:899   */\n      dup1\n        /* \"#utility.yul\":891:903   */\n      revert\n        /* \"#utility.yul\":853:905   */\n    tag_542:\n      pop\n        /* \"#utility.yul\":924:947   */\n      calldataload\n      swap2\n        /* \"#utility.yul\":773:953   */\n      swap1\n      pop\n      jump\t// out\n        /* \"#utility.yul\":958:1212   */\n    tag_96:\n        /* \"#utility.yul\":1026:1032   */\n      0x00\n        /* \"#utility.yul\":1034:1040   */\n      dup1\n        /* \"#utility.yul\":1087:1089   */\n      0x40\n        /* \"#utility.yul\":1075:1084   */\n      dup4\n        /* \"#utility.yul\":1066:1073   */\n      dup6\n        /* \"#utility.yul\":1062:1085   */\n      sub\n        /* \"#utility.yul\":1058:1090   */\n      slt\n        /* \"#utility.yul\":1055:1107   */\n      iszero\n      tag_544\n      jumpi\n        /* \"#utility.yul\":1103:1104   */\n      0x00\n        /* \"#utility.yul\":1100:1101   */\n      dup1\n        /* \"#utility.yul\":1093:1105   */\n      revert\n        /* \"#utility.yul\":1055:1107   */\n    tag_544:\n        /* \"#utility.yul\":1126:1155   */\n      tag_545\n        /* \"#utility.yul\":1145:1154   */\n      dup4\n        /* \"#utility.yul\":1126:1155   */\n      tag_531\n      jump\t// in\n    tag_545:\n        /* \"#utility.yul\":1116:1155   */\n      swap5\n        /* \"#utility.yul\":1202:1204   */\n      0x20\n        /* \"#utility.yul\":1187:1205   */\n      swap4\n      swap1\n      swap4\n      add\n        /* \"#utility.yul\":1174:1206   */\n      calldataload\n      swap4\n      pop\n      pop\n      pop\n        /* \"#utility.yul\":958:1212   */\n      jump\t// out\n        /* \"#utility.yul\":1695:1822   */\n    tag_136:\n        /* \"#utility.yul\":1756:1766   */\n      0x4e487b71\n        /* \"#utility.yul\":1751:1754   */\n      0xe0\n        /* \"#utility.yul\":1747:1767   */\n      shl\n        /* \"#utility.yul\":1744:1745   */\n      0x00\n        /* \"#utility.yul\":1737:1768   */\n      mstore\n        /* \"#utility.yul\":1787:1791   */\n      0x32\n        /* \"#utility.yul\":1784:1785   */\n      0x04\n        /* \"#utility.yul\":1777:1792   */\n      mstore\n        /* \"#utility.yul\":1811:1815   */\n      0x24\n        /* \"#utility.yul\":1808:1809   */\n      0x00\n        /* \"#utility.yul\":1801:1816   */\n      revert\n        /* \"#utility.yul\":1827:1954   */\n    tag_532:\n        /* \"#utility.yul\":1888:1898   */\n      0x4e487b71\n        /* \"#utility.yul\":1883:1886   */\n      0xe0\n        /* \"#utility.yul\":1879:1899   */\n      shl\n        /* \"#utility.yul\":1876:1877   */\n      0x00\n        /* \"#utility.yul\":1869:1900   */\n      mstore\n        /* \"#utility.yul\":1919:1923   */\n      0x11\n        /* \"#utility.yul\":1916:1917   */\n      0x04\n        /* \"#utility.yul\":1909:1924   */\n      mstore\n        /* \"#utility.yul\":1943:1947   */\n      0x24\n        /* \"#utility.yul\":1940:1941   */\n      0x00\n        /* \"#utility.yul\":1933:1948   */\n      revert\n        /* \"#utility.yul\":1959:2094   */\n    tag_204:\n        /* \"#utility.yul\":1998:2001   */\n      0x00\n      not(0x00)\n        /* \"#utility.yul\":2019:2036   */\n      dup3\n      eq\n        /* \"#utility.yul\":2016:2059   */\n      iszero\n      tag_551\n      jumpi\n        /* \"#utility.yul\":2039:2057   */\n      tag_551\n      tag_532\n      jump\t// in\n    tag_551:\n      pop\n        /* \"#utility.yul\":2086:2087   */\n      0x01\n        /* \"#utility.yul\":2075:2088   */\n      add\n      swap1\n        /* \"#utility.yul\":1959:2094   */\n      jump\t// out\n        /* \"#utility.yul\":2099:2455   */\n    tag_216:\n        /* \"#utility.yul\":2301:2303   */\n      0x20\n        /* \"#utility.yul\":2283:2304   */\n      dup1\n      dup3\n      mstore\n        /* \"#utility.yul\":2320:2338   */\n      dup2\n      dup2\n      add\n        /* \"#utility.yul\":2313:2343   */\n      mstore\n        /* \"#utility.yul\":2379:2413   */\n      0x4f776e61626c653a2063616c6c6572206973206e6f7420746865206f776e6572\n        /* \"#utility.yul\":2374:2376   */\n      0x40\n        /* \"#utility.yul\":2359:2377   */\n      dup3\n      add\n        /* \"#utility.yul\":2352:2414   */\n      mstore\n        /* \"#utility.yul\":2446:2448   */\n      0x60\n        /* \"#utility.yul\":2431:2449   */\n      add\n      swap1\n        /* \"#utility.yul\":2099:2455   */\n      jump\t// out\n        /* \"#utility.yul\":2810:2994   */\n    tag_310:\n        /* \"#utility.yul\":2880:2886   */\n      0x00\n        /* \"#utility.yul\":2933:2935   */\n      0x20\n        /* \"#utility.yul\":2921:2930   */\n      dup3\n        /* \"#utility.yul\":2912:2919   */\n      dup5\n        /* \"#utility.yul\":2908:2931   */\n      sub\n        /* \"#utility.yul\":2904:2936   */\n      slt\n        /* \"#utility.yul\":2901:2953   */\n      iszero\n      tag_555\n      jumpi\n        /* \"#utility.yul\":2949:2950   */\n      0x00\n        /* \"#utility.yul\":2946:2947   */\n      dup1\n        /* \"#utility.yul\":2939:2951   */\n      revert\n        /* \"#utility.yul\":2901:2953   */\n    tag_555:\n      pop\n        /* \"#utility.yul\":2972:2988   */\n      mload\n      swap2\n        /* \"#utility.yul\":2810:2994   */\n      swap1\n      pop\n      jump\t// out\n        /* \"#utility.yul\":3278:3555   */\n    tag_317:\n        /* \"#utility.yul\":3345:3351   */\n      0x00\n        /* \"#utility.yul\":3398:3400   */\n      0x20\n        /* \"#utility.yul\":3386:3395   */\n      dup3\n        /* \"#utility.yul\":3377:3384   */\n      dup5\n        /* \"#utility.yul\":3373:3396   */\n      sub\n        /* \"#utility.yul\":3369:3401   */\n      slt\n        /* \"#utility.yul\":3366:3418   */\n      iszero\n      tag_558\n      jumpi\n        /* \"#utility.yul\":3414:3415   */\n      0x00\n        /* \"#utility.yul\":3411:3412   */\n      dup1\n        /* \"#utility.yul\":3404:3416   */\n      revert\n        /* \"#utility.yul\":3366:3418   */\n    tag_558:\n        /* \"#utility.yul\":3446:3455   */\n      dup2\n        /* \"#utility.yul\":3440:3456   */\n      mload\n        /* \"#utility.yul\":3499:3504   */\n      dup1\n        /* \"#utility.yul\":3492:3505   */\n      iszero\n        /* \"#utility.yul\":3485:3506   */\n      iszero\n        /* \"#utility.yul\":3478:3483   */\n      dup2\n        /* \"#utility.yul\":3475:3507   */\n      eq\n        /* \"#utility.yul\":3465:3525   */\n      tag_519\n      jumpi\n        /* \"#utility.yul\":3521:3522   */\n      0x00\n        /* \"#utility.yul\":3518:3519   */\n      dup1\n        /* \"#utility.yul\":3511:3523   */\n      revert\n        /* \"#utility.yul\":5571:5699   */\n    tag_378:\n        /* \"#utility.yul\":5611:5614   */\n      0x00\n        /* \"#utility.yul\":5642:5643   */\n      dup3\n        /* \"#utility.yul\":5638:5644   */\n      not\n        /* \"#utility.yul\":5635:5636   */\n      dup3\n        /* \"#utility.yul\":5632:5645   */\n      gt\n        /* \"#utility.yul\":5629:5668   */\n      iszero\n      tag_567\n      jumpi\n        /* \"#utility.yul\":5648:5666   */\n      tag_567\n      tag_532\n      jump\t// in\n    tag_567:\n      pop\n        /* \"#utility.yul\":5684:5693   */\n      add\n      swap1\n        /* \"#utility.yul\":5571:5699   */\n      jump\t// out\n        /* \"#utility.yul\":6450:6575   */\n    tag_520:\n        /* \"#utility.yul\":6490:6494   */\n      0x00\n        /* \"#utility.yul\":6518:6519   */\n      dup3\n        /* \"#utility.yul\":6515:6516   */\n      dup3\n        /* \"#utility.yul\":6512:6520   */\n      lt\n        /* \"#utility.yul\":6509:6543   */\n      iszero\n      tag_572\n      jumpi\n        /* \"#utility.yul\":6523:6541   */\n      tag_572\n      tag_532\n      jump\t// in\n    tag_572:\n      pop\n        /* \"#utility.yul\":6560:6569   */\n      sub\n      swap1\n        /* \"#utility.yul\":6450:6575   */\n      jump\t// out\n        /* \"#utility.yul\":6580:6748   */\n    tag_523:\n        /* \"#utility.yul\":6620:6627   */\n      0x00\n        /* \"#utility.yul\":6686:6687   */\n      dup2\n        /* \"#utility.yul\":6682:6683   */\n      0x00\n        /* \"#utility.yul\":6678:6684   */\n      not\n        /* \"#utility.yul\":6674:6688   */\n      div\n        /* \"#utility.yul\":6671:6672   */\n      dup4\n        /* \"#utility.yul\":6668:6689   */\n      gt\n        /* \"#utility.yul\":6663:6664   */\n      dup3\n        /* \"#utility.yul\":6656:6665   */\n      iszero\n        /* \"#utility.yul\":6649:6666   */\n      iszero\n        /* \"#utility.yul\":6645:6690   */\n      and\n        /* \"#utility.yul\":6642:6713   */\n      iszero\n      tag_575\n      jumpi\n        /* \"#utility.yul\":6693:6711   */\n      tag_575\n      tag_532\n      jump\t// in\n    tag_575:\n      pop\n        /* \"#utility.yul\":6733:6742   */\n      mul\n      swap1\n        /* \"#utility.yul\":6580:6748   */\n      jump\t// out\n        /* \"#utility.yul\":6753:6970   */\n    tag_526:\n        /* \"#utility.yul\":6793:6794   */\n      0x00\n        /* \"#utility.yul\":6819:6820   */\n      dup3\n        /* \"#utility.yul\":6809:6941   */\n      tag_577\n      jumpi\n        /* \"#utility.yul\":6863:6873   */\n      0x4e487b71\n        /* \"#utility.yul\":6858:6861   */\n      0xe0\n        /* \"#utility.yul\":6854:6874   */\n      shl\n        /* \"#utility.yul\":6851:6852   */\n      0x00\n        /* \"#utility.yul\":6844:6875   */\n      mstore\n        /* \"#utility.yul\":6898:6902   */\n      0x12\n        /* \"#utility.yul\":6895:6896   */\n      0x04\n        /* \"#utility.yul\":6888:6903   */\n      mstore\n        /* \"#utility.yul\":6926:6930   */\n      0x24\n        /* \"#utility.yul\":6923:6924   */\n      0x00\n        /* \"#utility.yul\":6916:6931   */\n      revert\n        /* \"#utility.yul\":6809:6941   */\n    tag_577:\n      pop\n        /* \"#utility.yul\":6955:6964   */\n      div\n      swap1\n        /* \"#utility.yul\":6753:6970   */\n      jump\t// out\n\n    auxdata: 0xa264697066735822122054f24537b5b6deaa166f330aadbe15f903521b91aa79d998c07fe4dbae3c0edb64736f6c634300080a0033\n}\n",
				"bytecode": {
					"linkReferences": {},
					"object": "6080604052680ad78ebc5ac620000060065534801561001d57600080fd5b50604051611a60380380611a6083398101604081905261003c916100ba565b6100453361006a565b600180546001600160a01b0319166001600160a01b03929092169190911790556100ea565b600080546001600160a01b038381166001600160a01b0319831681178455604051919092169283917f8be0079c531659141344cd1fd0a4f28419497f9722a3daafe3b4186f6b6457e09190a35050565b6000602082840312156100cc57600080fd5b81516001600160a01b03811681146100e357600080fd5b9392505050565b611967806100f96000396000f3fe608060405234801561001057600080fd5b50600436106101a95760003560e01c8063817b1cd2116100f9578063c8a22eb411610097578063e85abe0911610071578063e85abe09146103a2578063f2fde38b146103ce578063f69e2046146103e1578063fb4cb32b146103e957600080fd5b8063c8a22eb414610341578063d63438671461036d578063d7ffca911461037657600080fd5b8063ab8a3c6b116100d3578063ab8a3c6b146102e0578063adc9772e146102e8578063bff1f9e1146102fb578063c0806b031461030457600080fd5b8063817b1cd21461029d5780638da5cb5b146102a6578063a8aeb6c2146102b757600080fd5b806336144c9a116101665780634be4d790116101405780634be4d790146102655780634e71d92d1461027a578063715018a6146102825780637e3abeea1461028a57600080fd5b806336144c9a1461020d57806344038f90146102545780634b3197131461025c57600080fd5b80630104db1b146101ae57806301c234a8146101cb578063040a772e146101d4578063153ab9df146101e757806318e1fbfc146101fa57806332bc298c14610203575b600080fd5b6101b862ed4e0081565b6040519081526020015b60405180910390f35b6101b86103e881565b6101b86101e23660046117ac565b6103fc565b6101b86101f53660046117ac565b61064d565b6101b860065481565b6101b86201518081565b61023c61021b3660046117ac565b6001600160a01b039081166000908152600760205260409020600401541690565b6040516001600160a01b0390911681526020016101c2565b6101b8607881565b6101b860045481565b6102786102733660046117c7565b610683565b005b6102786106bb565b610278610b43565b6101b86102983660046117ac565b610b79565b6101b860035481565b6000546001600160a01b031661023c565b6101b86102c53660046117ac565b6001600160a01b031660009081526007602052604090205490565b6101b8600f81565b6102786102f63660046117e0565b610be9565b6101b860025481565b6103176103123660046117e0565b611118565b6040805195865260208601949094529284019190915260608301521515608082015260a0016101c2565b6101b861034f3660046117ac565b6001600160a01b031660009081526007602052604090206003015490565b6101b860055481565b6101b86103843660046117ac565b6001600160a01b031660009081526007602052604090206001015490565b6101b86103b03660046117ac565b6001600160a01b031660009081526007602052604090206002015490565b6102786103dc3660046117ac565b611214565b6102786112af565b6101b86103f73660046117ac565b611698565b6001600160a01b03811660009081526007602052604081208180805b8354811015610643578360000181815481106104365761043661180a565b600091825260209091206004600590920201015460ff1661063157428460000182815481106104675761046761180a565b906000526020600020906005020160030154111561055f5783600101548460000182815481106104995761049961180a565b906000526020600020906005020160020154111561053e576105376201518061052b6104f48760000185815481106104d3576104d361180a565b9060005260206000209060050201600201544261170990919063ffffffff16565b6105316103e861052b600f8b60000189815481106105145761051461180a565b60009182526020909120600590910201549061171c565b90611728565b9061171c565b9150610624565b6105376201518061052b6104f487600101544261170990919063ffffffff16565b83600101548460000182815481106105795761057961180a565b90600052602060002090600502016002015411156105fa576105376201518061052b6104f48760000185815481106105b3576105b361180a565b9060005260206000209060050201600201548860000186815481106105da576105da61180a565b90600052602060002090600502016003015461170990919063ffffffff16565b6106216201518061052b6104f487600101548860000186815481106105da576105da61180a565b91505b61062e8383611734565b92505b8061063b81611836565b915050610418565b5090949350505050565b600061067d61065b836103fc565b6001600160a01b03841660009081526007602052604090206002015490611734565b92915050565b6000546001600160a01b031633146106b65760405162461bcd60e51b81526004016106ad90611851565b60405180910390fd5b600655565b3360009081526007602052604081209080805b8354811015610929578360000181815481106106ec576106ec61180a565b600091825260209091206004600590920201015460ff16610917574284600001828154811061071d5761071d61180a565b90600052602060002090600502016003015411156107b157836001015484600001828154811061074f5761074f61180a565b9060005260206000209060050201600201541115610790576107896201518061052b6104f48760000185815481106104d3576104d361180a565b91506108a8565b6107896201518061052b6104f487600101544261170990919063ffffffff16565b83600101548460000182815481106107cb576107cb61180a565b9060005260206000209060050201600201541115610845576108056201518061052b6104f48760000185815481106105b3576105b361180a565b9150600184600001828154811061081e5761081e61180a565b60009182526020909120600590910201600401805460ff19169115159190911790556108a8565b61086c6201518061052b6104f487600101548860000186815481106105da576105da61180a565b915060018460000182815481106108855761088561180a565b60009182526020909120600590910201600401805460ff19169115159190911790555b6108e1828560000183815481106108c1576108c161180a565b90600052602060002090600502016001015461173490919063ffffffff16565b8460000182815481106108f6576108f661180a565b60009182526020909120600160059092020101556109148383611734565b92505b8061092181611836565b9150506106ce565b503360009081526007602052604090206002015480156109575761094d8382611734565b6000600286015592505b6000831161099f5760405162461bcd60e51b81526020600482015260156024820152745573657220686173206e6f206469766964656e647360581b60448201526064016106ad565b6001546040516370a0823160e01b81523060048201526000916001600160a01b0316906370a0823190602401602060405180830381865afa1580156109e8573d6000803e3d6000fd5b505050506040513d601f19601f82011682018060405250810190610a0c9190611886565b905083811015610a1a578093505b426001868101919091555460405163a9059cbb60e01b8152336004820152602481018690526001600160a01b039091169063a9059cbb906044016020604051808303816000875af1158015610a73573d6000803e3d6000fd5b505050506040513d601f19601f82011682018060405250810190610a97919061189f565b610af75760405162461bcd60e51b815260206004820152602b60248201527f436c61696d206661696c65642064756520746f206661696c656420616d6f756e60448201526a3a103a3930b739b332b91760a91b60648201526084016106ad565b600454610b049085611734565b60045560405184815233907f7084f5476618d8e60b11ef0d7d3f06914655adb8793e28ff7f018d4c76d505d59060200160405180910390a25050505050565b6000546001600160a01b03163314610b6d5760405162461bcd60e51b81526004016106ad90611851565b610b776000611740565b565b6001600160a01b038116600090815260076020526040812081805b8254811015610be157610bcd836000018281548110610bb557610bb561180a565b60009182526020909120600590910201548390611734565b915080610bd981611836565b915050610b94565b509392505050565b600654811015610c475760405162461bcd60e51b8152602060048201526024808201527f416d6f756e742069732062656c6f77206d696e696d756d207374616b65207661604482015263363ab29760e11b60648201526084016106ad565b6001546040516370a0823160e01b815233600482015282916001600160a01b0316906370a0823190602401602060405180830381865afa158015610c8f573d6000803e3d6000fd5b505050506040513d601f19601f82011682018060405250810190610cb39190611886565b1015610d0b5760405162461bcd60e51b815260206004820152602160248201527f4d757374206861766520656e6f7567682062616c616e636520746f207374616b6044820152606560f81b60648201526084016106ad565b6001546040516323b872dd60e01b8152336004820152306024820152604481018390526001600160a01b03909116906323b872dd906064016020604051808303816000875af1158015610d62573d6000803e3d6000fd5b505050506040513d601f19601f82011682018060405250810190610d86919061189f565b610de65760405162461bcd60e51b815260206004820152602b60248201527f5374616b65206661696c65642064756520746f206661696c656420616d6f756e60448201526a3a103a3930b739b332b91760a91b60648201526084016106ad565b33600090815260076020526040902060048101546001600160a01b0316158015610e2757506001600160a01b03831660009081526007602052604090205415155b8015610e3c57506001600160a01b0383163314155b15610e5f576004810180546001600160a01b0319166001600160a01b0385161790555b60048101546001600160a01b031615610f1a5760048101546001600160a01b03168015610f18576000610e996103e861052b86607861171c565b6001600160a01b038316600090815260076020526040902060020154909150610ec29082611734565b6001600160a01b038316600081815260076020908152604091829020600201939093555183815233927f328838ddfc48ad5ae5531b1ad95dfb22b42ff1866853e474375ffef2c63d8e50910160405180910390a3505b505b8054610f6d5742600180830191909155600254610f3691611734565b6002556040513381527f9fd565cd14c3c391679eb0cad12a14dcf7534e9d3462bcb9b67a098a9bbbc24a9060200160405180910390a15b60048101546001600160a01b03161561102d576040805160a08101909152819080610fa9610fa26103e861052b88607861171c565b8690611709565b81526020016000815260200142815260200162ed4e0042610fca91906118c1565b81526000602091820181905283546001808201865594825290829020835160059092020190815590820151928101929092556040810151600283015560608101516003830155608001516004909101805460ff19169115159190911790556110bd565b806000016040518060a001604052808481526020016000815260200142815260200162ed4e004261105e91906118c1565b81526000602091820181905283546001808201865594825290829020835160059092020190815590820151928101929092556040810151600283015560608101516003830155608001516004909101805460ff19169115159190911790555b6003546110ca9083611734565b6003556005546110db906001611734565b60055560405182815233907f2cb77763bc1e8490c1a904905c4d74b4269919aca114464f4bb4d911e60de3649060200160405180910390a2505050565b6001600160a01b03821660009081526007602052604081208054829182918291829181908890811061114c5761114c61180a565b9060005260206000209060050201600001548160000188815481106111735761117361180a565b90600052602060002090600502016001015482600001898154811061119a5761119a61180a565b906000526020600020906005020160020154836000018a815481106111c1576111c161180a565b906000526020600020906005020160030154846000018b815481106111e8576111e861180a565b6000918252602090912060059091020160040154939c929b50909950975060ff90911695509350505050565b6000546001600160a01b0316331461123e5760405162461bcd60e51b81526004016106ad90611851565b6001600160a01b0381166112a35760405162461bcd60e51b815260206004820152602660248201527f4f776e61626c653a206e6577206f776e657220697320746865207a65726f206160448201526564647265737360d01b60648201526084016106ad565b6112ac81611740565b50565b60006112ba336103fc565b116112f45760405162461bcd60e51b815260206004820152600a6024820152692737ba102437b63232b960b11b60448201526064016106ad565b3360008181526007602052604081209161130d906103fc565b9050600080836000016040518060a001604052808581526020016000815260200142815260200162ed4e004261134391906118c1565b8152600060209182018190528354600180820186559482528282208451600590920201908155918301519382019390935560408201516002820155606082015160038201556080909101516004909101805460ff19169115159190911790555b8454811015611625578460000181815481106113c1576113c161180a565b600091825260209091206004600590920201015460ff1661161357428560000182815481106113f2576113f261180a565b90600052602060002090600502016003015411156114a65784600101548560000182815481106114245761142461180a565b90600052602060002090600502016002015411156114855761147e6201518061052b61145e8860000185815481106104d3576104d361180a565b6105316103e861052b600f8c60000189815481106105145761051461180a565b91506115c4565b61147e6201518061052b61145e88600101544261170990919063ffffffff16565b84600101548560000182815481106114c0576114c061180a565b9060005260206000209060050201600201541115611561576115216201518061052b61145e8860000185815481106114fa576114fa61180a565b9060005260206000209060050201600201548960000186815481106105da576105da61180a565b9150600185600001828154811061153a5761153a61180a565b60009182526020909120600590910201600401805460ff19169115159190911790556115c4565b6115886201518061052b61145e88600101548960000186815481106105da576105da61180a565b915060018560000182815481106115a1576115a161180a565b60009182526020909120600590910201600401805460ff19169115159190911790555b6115dd828660000183815481106108c1576108c161180a565b8560000182815481106115f2576115f261180a565b60009182526020909120600160059092020101556116108383611734565b92505b8061161d81611836565b9150506113a3565b504260018501556003546116399084611734565b60035560055461164a906001611734565b60055560045461165a9083611734565b60045560405183815233907f5d511c2070e5a2dbcc6fbfbb3fd6704a11ab5fa74b793b81aacece2c7cc294059060200160405180910390a250505050565b6001600160a01b038116600090815260076020526040812081805b8254811015610be1576116f58360000182815481106116d4576116d461180a565b9060005260206000209060050201600101548361173490919063ffffffff16565b91508061170181611836565b9150506116b3565b600061171582846118d9565b9392505050565b600061171582846118f0565b6000611715828461190f565b600061171582846118c1565b600080546001600160a01b038381166001600160a01b0319831681178455604051919092169283917f8be0079c531659141344cd1fd0a4f28419497f9722a3daafe3b4186f6b6457e09190a35050565b80356001600160a01b03811681146117a757600080fd5b919050565b6000602082840312156117be57600080fd5b61171582611790565b6000602082840312156117d957600080fd5b5035919050565b600080604083850312156117f357600080fd5b6117fc83611790565b946020939093013593505050565b634e487b7160e01b600052603260045260246000fd5b634e487b7160e01b600052601160045260246000fd5b600060001982141561184a5761184a611820565b5060010190565b6020808252818101527f4f776e61626c653a2063616c6c6572206973206e6f7420746865206f776e6572604082015260600190565b60006020828403121561189857600080fd5b5051919050565b6000602082840312156118b157600080fd5b8151801515811461171557600080fd5b600082198211156118d4576118d4611820565b500190565b6000828210156118eb576118eb611820565b500390565b600081600019048311821515161561190a5761190a611820565b500290565b60008261192c57634e487b7160e01b600052601260045260246000fd5b50049056fea264697066735822122054f24537b5b6deaa166f330aadbe15f903521b91aa79d998c07fe4dbae3c0edb64736f6c634300080a0033",
					"opcodes": "PUSH1 0x80 PUSH1 0x40 MSTORE PUSH9 0xAD78EBC5AC6200000 PUSH1 0x6 SSTORE CALLVALUE DUP1 ISZERO PUSH2 0x1D JUMPI PUSH1 0x0 DUP1 REVERT JUMPDEST POP PUSH1 0x40 MLOAD PUSH2 0x1A60 CODESIZE SUB DUP1 PUSH2 0x1A60 DUP4 CODECOPY DUP2 ADD PUSH1 0x40 DUP2 SWAP1 MSTORE PUSH2 0x3C SWAP2 PUSH2 0xBA JUMP JUMPDEST PUSH2 0x45 CALLER PUSH2 0x6A JUMP JUMPDEST PUSH1 0x1 DUP1 SLOAD PUSH1 0x1 PUSH1 0x1 PUSH1 0xA0 SHL SUB NOT AND PUSH1 0x1 PUSH1 0x1 PUSH1 0xA0 SHL SUB SWAP3 SWAP1 SWAP3 AND SWAP2 SWAP1 SWAP2 OR SWAP1 SSTORE PUSH2 0xEA JUMP JUMPDEST PUSH1 0x0 DUP1 SLOAD PUSH1 0x1 PUSH1 0x1 PUSH1 0xA0 SHL SUB DUP4 DUP2 AND PUSH1 0x1 PUSH1 0x1 PUSH1 0xA0 SHL SUB NOT DUP4 AND DUP2 OR DUP5 SSTORE PUSH1 0x40 MLOAD SWAP2 SWAP1 SWAP3 AND SWAP3 DUP4 SWAP2 PUSH32 0x8BE0079C531659141344CD1FD0A4F28419497F9722A3DAAFE3B4186F6B6457E0 SWAP2 SWAP1 LOG3 POP POP JUMP JUMPDEST PUSH1 0x0 PUSH1 0x20 DUP3 DUP5 SUB SLT ISZERO PUSH2 0xCC JUMPI PUSH1 0x0 DUP1 REVERT JUMPDEST DUP2 MLOAD PUSH1 0x1 PUSH1 0x1 PUSH1 0xA0 SHL SUB DUP2 AND DUP2 EQ PUSH2 0xE3 JUMPI PUSH1 0x0 DUP1 REVERT JUMPDEST SWAP4 SWAP3 POP POP POP JUMP JUMPDEST PUSH2 0x1967 DUP1 PUSH2 0xF9 PUSH1 0x0 CODECOPY PUSH1 0x0 RETURN INVALID PUSH1 0x80 PUSH1 0x40 MSTORE CALLVALUE DUP1 ISZERO PUSH2 0x10 JUMPI PUSH1 0x0 DUP1 REVERT JUMPDEST POP PUSH1 0x4 CALLDATASIZE LT PUSH2 0x1A9 JUMPI PUSH1 0x0 CALLDATALOAD PUSH1 0xE0 SHR DUP1 PUSH4 0x817B1CD2 GT PUSH2 0xF9 JUMPI DUP1 PUSH4 0xC8A22EB4 GT PUSH2 0x97 JUMPI DUP1 PUSH4 0xE85ABE09 GT PUSH2 0x71 JUMPI DUP1 PUSH4 0xE85ABE09 EQ PUSH2 0x3A2 JUMPI DUP1 PUSH4 0xF2FDE38B EQ PUSH2 0x3CE JUMPI DUP1 PUSH4 0xF69E2046 EQ PUSH2 0x3E1 JUMPI DUP1 PUSH4 0xFB4CB32B EQ PUSH2 0x3E9 JUMPI PUSH1 0x0 DUP1 REVERT JUMPDEST DUP1 PUSH4 0xC8A22EB4 EQ PUSH2 0x341 JUMPI DUP1 PUSH4 0xD6343867 EQ PUSH2 0x36D JUMPI DUP1 PUSH4 0xD7FFCA91 EQ PUSH2 0x376 JUMPI PUSH1 0x0 DUP1 REVERT JUMPDEST DUP1 PUSH4 0xAB8A3C6B GT PUSH2 0xD3 JUMPI DUP1 PUSH4 0xAB8A3C6B EQ PUSH2 0x2E0 JUMPI DUP1 PUSH4 0xADC9772E EQ PUSH2 0x2E8 JUMPI DUP1 PUSH4 0xBFF1F9E1 EQ PUSH2 0x2FB JUMPI DUP1 PUSH4 0xC0806B03 EQ PUSH2 0x304 JUMPI PUSH1 0x0 DUP1 REVERT JUMPDEST DUP1 PUSH4 0x817B1CD2 EQ PUSH2 0x29D JUMPI DUP1 PUSH4 0x8DA5CB5B EQ PUSH2 0x2A6 JUMPI DUP1 PUSH4 0xA8AEB6C2 EQ PUSH2 0x2B7 JUMPI PUSH1 0x0 DUP1 REVERT JUMPDEST DUP1 PUSH4 0x36144C9A GT PUSH2 0x166 JUMPI DUP1 PUSH4 0x4BE4D790 GT PUSH2 0x140 JUMPI DUP1 PUSH4 0x4BE4D790 EQ PUSH2 0x265 JUMPI DUP1 PUSH4 0x4E71D92D EQ PUSH2 0x27A JUMPI DUP1 PUSH4 0x715018A6 EQ PUSH2 0x282 JUMPI DUP1 PUSH4 0x7E3ABEEA EQ PUSH2 0x28A JUMPI PUSH1 0x0 DUP1 REVERT JUMPDEST DUP1 PUSH4 0x36144C9A EQ PUSH2 0x20D JUMPI DUP1 PUSH4 0x44038F90 EQ PUSH2 0x254 JUMPI DUP1 PUSH4 0x4B319713 EQ PUSH2 0x25C JUMPI PUSH1 0x0 DUP1 REVERT JUMPDEST DUP1 PUSH4 0x104DB1B EQ PUSH2 0x1AE JUMPI DUP1 PUSH4 0x1C234A8 EQ PUSH2 0x1CB JUMPI DUP1 PUSH4 0x40A772E EQ PUSH2 0x1D4 JUMPI DUP1 PUSH4 0x153AB9DF EQ PUSH2 0x1E7 JUMPI DUP1 PUSH4 0x18E1FBFC EQ PUSH2 0x1FA JUMPI DUP1 PUSH4 0x32BC298C EQ PUSH2 0x203 JUMPI JUMPDEST PUSH1 0x0 DUP1 REVERT JUMPDEST PUSH2 0x1B8 PUSH3 0xED4E00 DUP2 JUMP JUMPDEST PUSH1 0x40 MLOAD SWAP1 DUP2 MSTORE PUSH1 0x20 ADD JUMPDEST PUSH1 0x40 MLOAD DUP1 SWAP2 SUB SWAP1 RETURN JUMPDEST PUSH2 0x1B8 PUSH2 0x3E8 DUP2 JUMP JUMPDEST PUSH2 0x1B8 PUSH2 0x1E2 CALLDATASIZE PUSH1 0x4 PUSH2 0x17AC JUMP JUMPDEST PUSH2 0x3FC JUMP JUMPDEST PUSH2 0x1B8 PUSH2 0x1F5 CALLDATASIZE PUSH1 0x4 PUSH2 0x17AC JUMP JUMPDEST PUSH2 0x64D JUMP JUMPDEST PUSH2 0x1B8 PUSH1 0x6 SLOAD DUP2 JUMP JUMPDEST PUSH2 0x1B8 PUSH3 0x15180 DUP2 JUMP JUMPDEST PUSH2 0x23C PUSH2 0x21B CALLDATASIZE PUSH1 0x4 PUSH2 0x17AC JUMP JUMPDEST PUSH1 0x1 PUSH1 0x1 PUSH1 0xA0 SHL SUB SWAP1 DUP2 AND PUSH1 0x0 SWAP1 DUP2 MSTORE PUSH1 0x7 PUSH1 0x20 MSTORE PUSH1 0x40 SWAP1 KECCAK256 PUSH1 0x4 ADD SLOAD AND SWAP1 JUMP JUMPDEST PUSH1 0x40 MLOAD PUSH1 0x1 PUSH1 0x1 PUSH1 0xA0 SHL SUB SWAP1 SWAP2 AND DUP2 MSTORE PUSH1 0x20 ADD PUSH2 0x1C2 JUMP JUMPDEST PUSH2 0x1B8 PUSH1 0x78 DUP2 JUMP JUMPDEST PUSH2 0x1B8 PUSH1 0x4 SLOAD DUP2 JUMP JUMPDEST PUSH2 0x278 PUSH2 0x273 CALLDATASIZE PUSH1 0x4 PUSH2 0x17C7 JUMP JUMPDEST PUSH2 0x683 JUMP JUMPDEST STOP JUMPDEST PUSH2 0x278 PUSH2 0x6BB JUMP JUMPDEST PUSH2 0x278 PUSH2 0xB43 JUMP JUMPDEST PUSH2 0x1B8 PUSH2 0x298 CALLDATASIZE PUSH1 0x4 PUSH2 0x17AC JUMP JUMPDEST PUSH2 0xB79 JUMP JUMPDEST PUSH2 0x1B8 PUSH1 0x3 SLOAD DUP2 JUMP JUMPDEST PUSH1 0x0 SLOAD PUSH1 0x1 PUSH1 0x1 PUSH1 0xA0 SHL SUB AND PUSH2 0x23C JUMP JUMPDEST PUSH2 0x1B8 PUSH2 0x2C5 CALLDATASIZE PUSH1 0x4 PUSH2 0x17AC JUMP JUMPDEST PUSH1 0x1 PUSH1 0x1 PUSH1 0xA0 SHL SUB AND PUSH1 0x0 SWAP1 DUP2 MSTORE PUSH1 0x7 PUSH1 0x20 MSTORE PUSH1 0x40 SWAP1 KECCAK256 SLOAD SWAP1 JUMP JUMPDEST PUSH2 0x1B8 PUSH1 0xF DUP2 JUMP JUMPDEST PUSH2 0x278 PUSH2 0x2F6 CALLDATASIZE PUSH1 0x4 PUSH2 0x17E0 JUMP JUMPDEST PUSH2 0xBE9 JUMP JUMPDEST PUSH2 0x1B8 PUSH1 0x2 SLOAD DUP2 JUMP JUMPDEST PUSH2 0x317 PUSH2 0x312 CALLDATASIZE PUSH1 0x4 PUSH2 0x17E0 JUMP JUMPDEST PUSH2 0x1118 JUMP JUMPDEST PUSH1 0x40 DUP1 MLOAD SWAP6 DUP7 MSTORE PUSH1 0x20 DUP7 ADD SWAP5 SWAP1 SWAP5 MSTORE SWAP3 DUP5 ADD SWAP2 SWAP1 SWAP2 MSTORE PUSH1 0x60 DUP4 ADD MSTORE ISZERO ISZERO PUSH1 0x80 DUP3 ADD MSTORE PUSH1 0xA0 ADD PUSH2 0x1C2 JUMP JUMPDEST PUSH2 0x1B8 PUSH2 0x34F CALLDATASIZE PUSH1 0x4 PUSH2 0x17AC JUMP JUMPDEST PUSH1 0x1 PUSH1 0x1 PUSH1 0xA0 SHL SUB AND PUSH1 0x0 SWAP1 DUP2 MSTORE PUSH1 0x7 PUSH1 0x20 MSTORE PUSH1 0x40 SWAP1 KECCAK256 PUSH1 0x3 ADD SLOAD SWAP1 JUMP JUMPDEST PUSH2 0x1B8 PUSH1 0x5 SLOAD DUP2 JUMP JUMPDEST PUSH2 0x1B8 PUSH2 0x384 CALLDATASIZE PUSH1 0x4 PUSH2 0x17AC JUMP JUMPDEST PUSH1 0x1 PUSH1 0x1 PUSH1 0xA0 SHL SUB AND PUSH1 0x0 SWAP1 DUP2 MSTORE PUSH1 0x7 PUSH1 0x20 MSTORE PUSH1 0x40 SWAP1 KECCAK256 PUSH1 0x1 ADD SLOAD SWAP1 JUMP JUMPDEST PUSH2 0x1B8 PUSH2 0x3B0 CALLDATASIZE PUSH1 0x4 PUSH2 0x17AC JUMP JUMPDEST PUSH1 0x1 PUSH1 0x1 PUSH1 0xA0 SHL SUB AND PUSH1 0x0 SWAP1 DUP2 MSTORE PUSH1 0x7 PUSH1 0x20 MSTORE PUSH1 0x40 SWAP1 KECCAK256 PUSH1 0x2 ADD SLOAD SWAP1 JUMP JUMPDEST PUSH2 0x278 PUSH2 0x3DC CALLDATASIZE PUSH1 0x4 PUSH2 0x17AC JUMP JUMPDEST PUSH2 0x1214 JUMP JUMPDEST PUSH2 0x278 PUSH2 0x12AF JUMP JUMPDEST PUSH2 0x1B8 PUSH2 0x3F7 CALLDATASIZE PUSH1 0x4 PUSH2 0x17AC JUMP JUMPDEST PUSH2 0x1698 JUMP JUMPDEST PUSH1 0x1 PUSH1 0x1 PUSH1 0xA0 SHL SUB DUP2 AND PUSH1 0x0 SWAP1 DUP2 MSTORE PUSH1 0x7 PUSH1 0x20 MSTORE PUSH1 0x40 DUP2 KECCAK256 DUP2 DUP1 DUP1 JUMPDEST DUP4 SLOAD DUP2 LT ISZERO PUSH2 0x643 JUMPI DUP4 PUSH1 0x0 ADD DUP2 DUP2 SLOAD DUP2 LT PUSH2 0x436 JUMPI PUSH2 0x436 PUSH2 0x180A JUMP JUMPDEST PUSH1 0x0 SWAP2 DUP3 MSTORE PUSH1 0x20 SWAP1 SWAP2 KECCAK256 PUSH1 0x4 PUSH1 0x5 SWAP1 SWAP3 MUL ADD ADD SLOAD PUSH1 0xFF AND PUSH2 0x631 JUMPI TIMESTAMP DUP5 PUSH1 0x0 ADD DUP3 DUP2 SLOAD DUP2 LT PUSH2 0x467 JUMPI PUSH2 0x467 PUSH2 0x180A JUMP JUMPDEST SWAP1 PUSH1 0x0 MSTORE PUSH1 0x20 PUSH1 0x0 KECCAK256 SWAP1 PUSH1 0x5 MUL ADD PUSH1 0x3 ADD SLOAD GT ISZERO PUSH2 0x55F JUMPI DUP4 PUSH1 0x1 ADD SLOAD DUP5 PUSH1 0x0 ADD DUP3 DUP2 SLOAD DUP2 LT PUSH2 0x499 JUMPI PUSH2 0x499 PUSH2 0x180A JUMP JUMPDEST SWAP1 PUSH1 0x0 MSTORE PUSH1 0x20 PUSH1 0x0 KECCAK256 SWAP1 PUSH1 0x5 MUL ADD PUSH1 0x2 ADD SLOAD GT ISZERO PUSH2 0x53E JUMPI PUSH2 0x537 PUSH3 0x15180 PUSH2 0x52B PUSH2 0x4F4 DUP8 PUSH1 0x0 ADD DUP6 DUP2 SLOAD DUP2 LT PUSH2 0x4D3 JUMPI PUSH2 0x4D3 PUSH2 0x180A JUMP JUMPDEST SWAP1 PUSH1 0x0 MSTORE PUSH1 0x20 PUSH1 0x0 KECCAK256 SWAP1 PUSH1 0x5 MUL ADD PUSH1 0x2 ADD SLOAD TIMESTAMP PUSH2 0x1709 SWAP1 SWAP2 SWAP1 PUSH4 0xFFFFFFFF AND JUMP JUMPDEST PUSH2 0x531 PUSH2 0x3E8 PUSH2 0x52B PUSH1 0xF DUP12 PUSH1 0x0 ADD DUP10 DUP2 SLOAD DUP2 LT PUSH2 0x514 JUMPI PUSH2 0x514 PUSH2 0x180A JUMP JUMPDEST PUSH1 0x0 SWAP2 DUP3 MSTORE PUSH1 0x20 SWAP1 SWAP2 KECCAK256 PUSH1 0x5 SWAP1 SWAP2 MUL ADD SLOAD SWAP1 PUSH2 0x171C JUMP JUMPDEST SWAP1 PUSH2 0x1728 JUMP JUMPDEST SWAP1 PUSH2 0x171C JUMP JUMPDEST SWAP2 POP PUSH2 0x624 JUMP JUMPDEST PUSH2 0x537 PUSH3 0x15180 PUSH2 0x52B PUSH2 0x4F4 DUP8 PUSH1 0x1 ADD SLOAD TIMESTAMP PUSH2 0x1709 SWAP1 SWAP2 SWAP1 PUSH4 0xFFFFFFFF AND JUMP JUMPDEST DUP4 PUSH1 0x1 ADD SLOAD DUP5 PUSH1 0x0 ADD DUP3 DUP2 SLOAD DUP2 LT PUSH2 0x579 JUMPI PUSH2 0x579 PUSH2 0x180A JUMP JUMPDEST SWAP1 PUSH1 0x0 MSTORE PUSH1 0x20 PUSH1 0x0 KECCAK256 SWAP1 PUSH1 0x5 MUL ADD PUSH1 0x2 ADD SLOAD GT ISZERO PUSH2 0x5FA JUMPI PUSH2 0x537 PUSH3 0x15180 PUSH2 0x52B PUSH2 0x4F4 DUP8 PUSH1 0x0 ADD DUP6 DUP2 SLOAD DUP2 LT PUSH2 0x5B3 JUMPI PUSH2 0x5B3 PUSH2 0x180A JUMP JUMPDEST SWAP1 PUSH1 0x0 MSTORE PUSH1 0x20 PUSH1 0x0 KECCAK256 SWAP1 PUSH1 0x5 MUL ADD PUSH1 0x2 ADD SLOAD DUP9 PUSH1 0x0 ADD DUP7 DUP2 SLOAD DUP2 LT PUSH2 0x5DA JUMPI PUSH2 0x5DA PUSH2 0x180A JUMP JUMPDEST SWAP1 PUSH1 0x0 MSTORE PUSH1 0x20 PUSH1 0x0 KECCAK256 SWAP1 PUSH1 0x5 MUL ADD PUSH1 0x3 ADD SLOAD PUSH2 0x1709 SWAP1 SWAP2 SWAP1 PUSH4 0xFFFFFFFF AND JUMP JUMPDEST PUSH2 0x621 PUSH3 0x15180 PUSH2 0x52B PUSH2 0x4F4 DUP8 PUSH1 0x1 ADD SLOAD DUP9 PUSH1 0x0 ADD DUP7 DUP2 SLOAD DUP2 LT PUSH2 0x5DA JUMPI PUSH2 0x5DA PUSH2 0x180A JUMP JUMPDEST SWAP2 POP JUMPDEST PUSH2 0x62E DUP4 DUP4 PUSH2 0x1734 JUMP JUMPDEST SWAP3 POP JUMPDEST DUP1 PUSH2 0x63B DUP2 PUSH2 0x1836 JUMP JUMPDEST SWAP2 POP POP PUSH2 0x418 JUMP JUMPDEST POP SWAP1 SWAP5 SWAP4 POP POP POP POP JUMP JUMPDEST PUSH1 0x0 PUSH2 0x67D PUSH2 0x65B DUP4 PUSH2 0x3FC JUMP JUMPDEST PUSH1 0x1 PUSH1 0x1 PUSH1 0xA0 SHL SUB DUP5 AND PUSH1 0x0 SWAP1 DUP2 MSTORE PUSH1 0x7 PUSH1 0x20 MSTORE PUSH1 0x40 SWAP1 KECCAK256 PUSH1 0x2 ADD SLOAD SWAP1 PUSH2 0x1734 JUMP JUMPDEST SWAP3 SWAP2 POP POP JUMP JUMPDEST PUSH1 0x0 SLOAD PUSH1 0x1 PUSH1 0x1 PUSH1 0xA0 SHL SUB AND CALLER EQ PUSH2 0x6B6 JUMPI PUSH1 0x40 MLOAD PUSH3 0x461BCD PUSH1 0xE5 SHL DUP2 MSTORE PUSH1 0x4 ADD PUSH2 0x6AD SWAP1 PUSH2 0x1851 JUMP JUMPDEST PUSH1 0x40 MLOAD DUP1 SWAP2 SUB SWAP1 REVERT JUMPDEST PUSH1 0x6 SSTORE JUMP JUMPDEST CALLER PUSH1 0x0 SWAP1 DUP2 MSTORE PUSH1 0x7 PUSH1 0x20 MSTORE PUSH1 0x40 DUP2 KECCAK256 SWAP1 DUP1 DUP1 JUMPDEST DUP4 SLOAD DUP2 LT ISZERO PUSH2 0x929 JUMPI DUP4 PUSH1 0x0 ADD DUP2 DUP2 SLOAD DUP2 LT PUSH2 0x6EC JUMPI PUSH2 0x6EC PUSH2 0x180A JUMP JUMPDEST PUSH1 0x0 SWAP2 DUP3 MSTORE PUSH1 0x20 SWAP1 SWAP2 KECCAK256 PUSH1 0x4 PUSH1 0x5 SWAP1 SWAP3 MUL ADD ADD SLOAD PUSH1 0xFF AND PUSH2 0x917 JUMPI TIMESTAMP DUP5 PUSH1 0x0 ADD DUP3 DUP2 SLOAD DUP2 LT PUSH2 0x71D JUMPI PUSH2 0x71D PUSH2 0x180A JUMP JUMPDEST SWAP1 PUSH1 0x0 MSTORE PUSH1 0x20 PUSH1 0x0 KECCAK256 SWAP1 PUSH1 0x5 MUL ADD PUSH1 0x3 ADD SLOAD GT ISZERO PUSH2 0x7B1 JUMPI DUP4 PUSH1 0x1 ADD SLOAD DUP5 PUSH1 0x0 ADD DUP3 DUP2 SLOAD DUP2 LT PUSH2 0x74F JUMPI PUSH2 0x74F PUSH2 0x180A JUMP JUMPDEST SWAP1 PUSH1 0x0 MSTORE PUSH1 0x20 PUSH1 0x0 KECCAK256 SWAP1 PUSH1 0x5 MUL ADD PUSH1 0x2 ADD SLOAD GT ISZERO PUSH2 0x790 JUMPI PUSH2 0x789 PUSH3 0x15180 PUSH2 0x52B PUSH2 0x4F4 DUP8 PUSH1 0x0 ADD DUP6 DUP2 SLOAD DUP2 LT PUSH2 0x4D3 JUMPI PUSH2 0x4D3 PUSH2 0x180A JUMP JUMPDEST SWAP2 POP PUSH2 0x8A8 JUMP JUMPDEST PUSH2 0x789 PUSH3 0x15180 PUSH2 0x52B PUSH2 0x4F4 DUP8 PUSH1 0x1 ADD SLOAD TIMESTAMP PUSH2 0x1709 SWAP1 SWAP2 SWAP1 PUSH4 0xFFFFFFFF AND JUMP JUMPDEST DUP4 PUSH1 0x1 ADD SLOAD DUP5 PUSH1 0x0 ADD DUP3 DUP2 SLOAD DUP2 LT PUSH2 0x7CB JUMPI PUSH2 0x7CB PUSH2 0x180A JUMP JUMPDEST SWAP1 PUSH1 0x0 MSTORE PUSH1 0x20 PUSH1 0x0 KECCAK256 SWAP1 PUSH1 0x5 MUL ADD PUSH1 0x2 ADD SLOAD GT ISZERO PUSH2 0x845 JUMPI PUSH2 0x805 PUSH3 0x15180 PUSH2 0x52B PUSH2 0x4F4 DUP8 PUSH1 0x0 ADD DUP6 DUP2 SLOAD DUP2 LT PUSH2 0x5B3 JUMPI PUSH2 0x5B3 PUSH2 0x180A JUMP JUMPDEST SWAP2 POP PUSH1 0x1 DUP5 PUSH1 0x0 ADD DUP3 DUP2 SLOAD DUP2 LT PUSH2 0x81E JUMPI PUSH2 0x81E PUSH2 0x180A JUMP JUMPDEST PUSH1 0x0 SWAP2 DUP3 MSTORE PUSH1 0x20 SWAP1 SWAP2 KECCAK256 PUSH1 0x5 SWAP1 SWAP2 MUL ADD PUSH1 0x4 ADD DUP1 SLOAD PUSH1 0xFF NOT AND SWAP2 ISZERO ISZERO SWAP2 SWAP1 SWAP2 OR SWAP1 SSTORE PUSH2 0x8A8 JUMP JUMPDEST PUSH2 0x86C PUSH3 0x15180 PUSH2 0x52B PUSH2 0x4F4 DUP8 PUSH1 0x1 ADD SLOAD DUP9 PUSH1 0x0 ADD DUP7 DUP2 SLOAD DUP2 LT PUSH2 0x5DA JUMPI PUSH2 0x5DA PUSH2 0x180A JUMP JUMPDEST SWAP2 POP PUSH1 0x1 DUP5 PUSH1 0x0 ADD DUP3 DUP2 SLOAD DUP2 LT PUSH2 0x885 JUMPI PUSH2 0x885 PUSH2 0x180A JUMP JUMPDEST PUSH1 0x0 SWAP2 DUP3 MSTORE PUSH1 0x20 SWAP1 SWAP2 KECCAK256 PUSH1 0x5 SWAP1 SWAP2 MUL ADD PUSH1 0x4 ADD DUP1 SLOAD PUSH1 0xFF NOT AND SWAP2 ISZERO ISZERO SWAP2 SWAP1 SWAP2 OR SWAP1 SSTORE JUMPDEST PUSH2 0x8E1 DUP3 DUP6 PUSH1 0x0 ADD DUP4 DUP2 SLOAD DUP2 LT PUSH2 0x8C1 JUMPI PUSH2 0x8C1 PUSH2 0x180A JUMP JUMPDEST SWAP1 PUSH1 0x0 MSTORE PUSH1 0x20 PUSH1 0x0 KECCAK256 SWAP1 PUSH1 0x5 MUL ADD PUSH1 0x1 ADD SLOAD PUSH2 0x1734 SWAP1 SWAP2 SWAP1 PUSH4 0xFFFFFFFF AND JUMP JUMPDEST DUP5 PUSH1 0x0 ADD DUP3 DUP2 SLOAD DUP2 LT PUSH2 0x8F6 JUMPI PUSH2 0x8F6 PUSH2 0x180A JUMP JUMPDEST PUSH1 0x0 SWAP2 DUP3 MSTORE PUSH1 0x20 SWAP1 SWAP2 KECCAK256 PUSH1 0x1 PUSH1 0x5 SWAP1 SWAP3 MUL ADD ADD SSTORE PUSH2 0x914 DUP4 DUP4 PUSH2 0x1734 JUMP JUMPDEST SWAP3 POP JUMPDEST DUP1 PUSH2 0x921 DUP2 PUSH2 0x1836 JUMP JUMPDEST SWAP2 POP POP PUSH2 0x6CE JUMP JUMPDEST POP CALLER PUSH1 0x0 SWAP1 DUP2 MSTORE PUSH1 0x7 PUSH1 0x20 MSTORE PUSH1 0x40 SWAP1 KECCAK256 PUSH1 0x2 ADD SLOAD DUP1 ISZERO PUSH2 0x957 JUMPI PUSH2 0x94D DUP4 DUP3 PUSH2 0x1734 JUMP JUMPDEST PUSH1 0x0 PUSH1 0x2 DUP7 ADD SSTORE SWAP3 POP JUMPDEST PUSH1 0x0 DUP4 GT PUSH2 0x99F JUMPI PUSH1 0x40 MLOAD PUSH3 0x461BCD PUSH1 0xE5 SHL DUP2 MSTORE PUSH1 0x20 PUSH1 0x4 DUP3 ADD MSTORE PUSH1 0x15 PUSH1 0x24 DUP3 ADD MSTORE PUSH21 0x5573657220686173206E6F206469766964656E6473 PUSH1 0x58 SHL PUSH1 0x44 DUP3 ADD MSTORE PUSH1 0x64 ADD PUSH2 0x6AD JUMP JUMPDEST PUSH1 0x1 SLOAD PUSH1 0x40 MLOAD PUSH4 0x70A08231 PUSH1 0xE0 SHL DUP2 MSTORE ADDRESS PUSH1 0x4 DUP3 ADD MSTORE PUSH1 0x0 SWAP2 PUSH1 0x1 PUSH1 0x1 PUSH1 0xA0 SHL SUB AND SWAP1 PUSH4 0x70A08231 SWAP1 PUSH1 0x24 ADD PUSH1 0x20 PUSH1 0x40 MLOAD DUP1 DUP4 SUB DUP2 DUP7 GAS STATICCALL ISZERO DUP1 ISZERO PUSH2 0x9E8 JUMPI RETURNDATASIZE PUSH1 0x0 DUP1 RETURNDATACOPY RETURNDATASIZE PUSH1 0x0 REVERT JUMPDEST POP POP POP POP PUSH1 0x40 MLOAD RETURNDATASIZE PUSH1 0x1F NOT PUSH1 0x1F DUP3 ADD AND DUP3 ADD DUP1 PUSH1 0x40 MSTORE POP DUP2 ADD SWAP1 PUSH2 0xA0C SWAP2 SWAP1 PUSH2 0x1886 JUMP JUMPDEST SWAP1 POP DUP4 DUP2 LT ISZERO PUSH2 0xA1A JUMPI DUP1 SWAP4 POP JUMPDEST TIMESTAMP PUSH1 0x1 DUP7 DUP2 ADD SWAP2 SWAP1 SWAP2 SSTORE SLOAD PUSH1 0x40 MLOAD PUSH4 0xA9059CBB PUSH1 0xE0 SHL DUP2 MSTORE CALLER PUSH1 0x4 DUP3 ADD MSTORE PUSH1 0x24 DUP2 ADD DUP7 SWAP1 MSTORE PUSH1 0x1 PUSH1 0x1 PUSH1 0xA0 SHL SUB SWAP1 SWAP2 AND SWAP1 PUSH4 0xA9059CBB SWAP1 PUSH1 0x44 ADD PUSH1 0x20 PUSH1 0x40 MLOAD DUP1 DUP4 SUB DUP2 PUSH1 0x0 DUP8 GAS CALL ISZERO DUP1 ISZERO PUSH2 0xA73 JUMPI RETURNDATASIZE PUSH1 0x0 DUP1 RETURNDATACOPY RETURNDATASIZE PUSH1 0x0 REVERT JUMPDEST POP POP POP POP PUSH1 0x40 MLOAD RETURNDATASIZE PUSH1 0x1F NOT PUSH1 0x1F DUP3 ADD AND DUP3 ADD DUP1 PUSH1 0x40 MSTORE POP DUP2 ADD SWAP1 PUSH2 0xA97 SWAP2 SWAP1 PUSH2 0x189F JUMP JUMPDEST PUSH2 0xAF7 JUMPI PUSH1 0x40 MLOAD PUSH3 0x461BCD PUSH1 0xE5 SHL DUP2 MSTORE PUSH1 0x20 PUSH1 0x4 DUP3 ADD MSTORE PUSH1 0x2B PUSH1 0x24 DUP3 ADD MSTORE PUSH32 0x436C61696D206661696C65642064756520746F206661696C656420616D6F756E PUSH1 0x44 DUP3 ADD MSTORE PUSH11 0x3A103A3930B739B332B917 PUSH1 0xA9 SHL PUSH1 0x64 DUP3 ADD MSTORE PUSH1 0x84 ADD PUSH2 0x6AD JUMP JUMPDEST PUSH1 0x4 SLOAD PUSH2 0xB04 SWAP1 DUP6 PUSH2 0x1734 JUMP JUMPDEST PUSH1 0x4 SSTORE PUSH1 0x40 MLOAD DUP5 DUP2 MSTORE CALLER SWAP1 PUSH32 0x7084F5476618D8E60B11EF0D7D3F06914655ADB8793E28FF7F018D4C76D505D5 SWAP1 PUSH1 0x20 ADD PUSH1 0x40 MLOAD DUP1 SWAP2 SUB SWAP1 LOG2 POP POP POP POP POP JUMP JUMPDEST PUSH1 0x0 SLOAD PUSH1 0x1 PUSH1 0x1 PUSH1 0xA0 SHL SUB AND CALLER EQ PUSH2 0xB6D JUMPI PUSH1 0x40 MLOAD PUSH3 0x461BCD PUSH1 0xE5 SHL DUP2 MSTORE PUSH1 0x4 ADD PUSH2 0x6AD SWAP1 PUSH2 0x1851 JUMP JUMPDEST PUSH2 0xB77 PUSH1 0x0 PUSH2 0x1740 JUMP JUMPDEST JUMP JUMPDEST PUSH1 0x1 PUSH1 0x1 PUSH1 0xA0 SHL SUB DUP2 AND PUSH1 0x0 SWAP1 DUP2 MSTORE PUSH1 0x7 PUSH1 0x20 MSTORE PUSH1 0x40 DUP2 KECCAK256 DUP2 DUP1 JUMPDEST DUP3 SLOAD DUP2 LT ISZERO PUSH2 0xBE1 JUMPI PUSH2 0xBCD DUP4 PUSH1 0x0 ADD DUP3 DUP2 SLOAD DUP2 LT PUSH2 0xBB5 JUMPI PUSH2 0xBB5 PUSH2 0x180A JUMP JUMPDEST PUSH1 0x0 SWAP2 DUP3 MSTORE PUSH1 0x20 SWAP1 SWAP2 KECCAK256 PUSH1 0x5 SWAP1 SWAP2 MUL ADD SLOAD DUP4 SWAP1 PUSH2 0x1734 JUMP JUMPDEST SWAP2 POP DUP1 PUSH2 0xBD9 DUP2 PUSH2 0x1836 JUMP JUMPDEST SWAP2 POP POP PUSH2 0xB94 JUMP JUMPDEST POP SWAP4 SWAP3 POP POP POP JUMP JUMPDEST PUSH1 0x6 SLOAD DUP2 LT ISZERO PUSH2 0xC47 JUMPI PUSH1 0x40 MLOAD PUSH3 0x461BCD PUSH1 0xE5 SHL DUP2 MSTORE PUSH1 0x20 PUSH1 0x4 DUP3 ADD MSTORE PUSH1 0x24 DUP1 DUP3 ADD MSTORE PUSH32 0x416D6F756E742069732062656C6F77206D696E696D756D207374616B65207661 PUSH1 0x44 DUP3 ADD MSTORE PUSH4 0x363AB297 PUSH1 0xE1 SHL PUSH1 0x64 DUP3 ADD MSTORE PUSH1 0x84 ADD PUSH2 0x6AD JUMP JUMPDEST PUSH1 0x1 SLOAD PUSH1 0x40 MLOAD PUSH4 0x70A08231 PUSH1 0xE0 SHL DUP2 MSTORE CALLER PUSH1 0x4 DUP3 ADD MSTORE DUP3 SWAP2 PUSH1 0x1 PUSH1 0x1 PUSH1 0xA0 SHL SUB AND SWAP1 PUSH4 0x70A08231 SWAP1 PUSH1 0x24 ADD PUSH1 0x20 PUSH1 0x40 MLOAD DUP1 DUP4 SUB DUP2 DUP7 GAS STATICCALL ISZERO DUP1 ISZERO PUSH2 0xC8F JUMPI RETURNDATASIZE PUSH1 0x0 DUP1 RETURNDATACOPY RETURNDATASIZE PUSH1 0x0 REVERT JUMPDEST POP POP POP POP PUSH1 0x40 MLOAD RETURNDATASIZE PUSH1 0x1F NOT PUSH1 0x1F DUP3 ADD AND DUP3 ADD DUP1 PUSH1 0x40 MSTORE POP DUP2 ADD SWAP1 PUSH2 0xCB3 SWAP2 SWAP1 PUSH2 0x1886 JUMP JUMPDEST LT ISZERO PUSH2 0xD0B JUMPI PUSH1 0x40 MLOAD PUSH3 0x461BCD PUSH1 0xE5 SHL DUP2 MSTORE PUSH1 0x20 PUSH1 0x4 DUP3 ADD MSTORE PUSH1 0x21 PUSH1 0x24 DUP3 ADD MSTORE PUSH32 0x4D757374206861766520656E6F7567682062616C616E636520746F207374616B PUSH1 0x44 DUP3 ADD MSTORE PUSH1 0x65 PUSH1 0xF8 SHL PUSH1 0x64 DUP3 ADD MSTORE PUSH1 0x84 ADD PUSH2 0x6AD JUMP JUMPDEST PUSH1 0x1 SLOAD PUSH1 0x40 MLOAD PUSH4 0x23B872DD PUSH1 0xE0 SHL DUP2 MSTORE CALLER PUSH1 0x4 DUP3 ADD MSTORE ADDRESS PUSH1 0x24 DUP3 ADD MSTORE PUSH1 0x44 DUP2 ADD DUP4 SWAP1 MSTORE PUSH1 0x1 PUSH1 0x1 PUSH1 0xA0 SHL SUB SWAP1 SWAP2 AND SWAP1 PUSH4 0x23B872DD SWAP1 PUSH1 0x64 ADD PUSH1 0x20 PUSH1 0x40 MLOAD DUP1 DUP4 SUB DUP2 PUSH1 0x0 DUP8 GAS CALL ISZERO DUP1 ISZERO PUSH2 0xD62 JUMPI RETURNDATASIZE PUSH1 0x0 DUP1 RETURNDATACOPY RETURNDATASIZE PUSH1 0x0 REVERT JUMPDEST POP POP POP POP PUSH1 0x40 MLOAD RETURNDATASIZE PUSH1 0x1F NOT PUSH1 0x1F DUP3 ADD AND DUP3 ADD DUP1 PUSH1 0x40 MSTORE POP DUP2 ADD SWAP1 PUSH2 0xD86 SWAP2 SWAP1 PUSH2 0x189F JUMP JUMPDEST PUSH2 0xDE6 JUMPI PUSH1 0x40 MLOAD PUSH3 0x461BCD PUSH1 0xE5 SHL DUP2 MSTORE PUSH1 0x20 PUSH1 0x4 DUP3 ADD MSTORE PUSH1 0x2B PUSH1 0x24 DUP3 ADD MSTORE PUSH32 0x5374616B65206661696C65642064756520746F206661696C656420616D6F756E PUSH1 0x44 DUP3 ADD MSTORE PUSH11 0x3A103A3930B739B332B917 PUSH1 0xA9 SHL PUSH1 0x64 DUP3 ADD MSTORE PUSH1 0x84 ADD PUSH2 0x6AD JUMP JUMPDEST CALLER PUSH1 0x0 SWAP1 DUP2 MSTORE PUSH1 0x7 PUSH1 0x20 MSTORE PUSH1 0x40 SWAP1 KECCAK256 PUSH1 0x4 DUP2 ADD SLOAD PUSH1 0x1 PUSH1 0x1 PUSH1 0xA0 SHL SUB AND ISZERO DUP1 ISZERO PUSH2 0xE27 JUMPI POP PUSH1 0x1 PUSH1 0x1 PUSH1 0xA0 SHL SUB DUP4 AND PUSH1 0x0 SWAP1 DUP2 MSTORE PUSH1 0x7 PUSH1 0x20 MSTORE PUSH1 0x40 SWAP1 KECCAK256 SLOAD ISZERO ISZERO JUMPDEST DUP1 ISZERO PUSH2 0xE3C JUMPI POP PUSH1 0x1 PUSH1 0x1 PUSH1 0xA0 SHL SUB DUP4 AND CALLER EQ ISZERO JUMPDEST ISZERO PUSH2 0xE5F JUMPI PUSH1 0x4 DUP2 ADD DUP1 SLOAD PUSH1 0x1 PUSH1 0x1 PUSH1 0xA0 SHL SUB NOT AND PUSH1 0x1 PUSH1 0x1 PUSH1 0xA0 SHL SUB DUP6 AND OR SWAP1 SSTORE JUMPDEST PUSH1 0x4 DUP2 ADD SLOAD PUSH1 0x1 PUSH1 0x1 PUSH1 0xA0 SHL SUB AND ISZERO PUSH2 0xF1A JUMPI PUSH1 0x4 DUP2 ADD SLOAD PUSH1 0x1 PUSH1 0x1 PUSH1 0xA0 SHL SUB AND DUP1 ISZERO PUSH2 0xF18 JUMPI PUSH1 0x0 PUSH2 0xE99 PUSH2 0x3E8 PUSH2 0x52B DUP7 PUSH1 0x78 PUSH2 0x171C JUMP JUMPDEST PUSH1 0x1 PUSH1 0x1 PUSH1 0xA0 SHL SUB DUP4 AND PUSH1 0x0 SWAP1 DUP2 MSTORE PUSH1 0x7 PUSH1 0x20 MSTORE PUSH1 0x40 SWAP1 KECCAK256 PUSH1 0x2 ADD SLOAD SWAP1 SWAP2 POP PUSH2 0xEC2 SWAP1 DUP3 PUSH2 0x1734 JUMP JUMPDEST PUSH1 0x1 PUSH1 0x1 PUSH1 0xA0 SHL SUB DUP4 AND PUSH1 0x0 DUP2 DUP2 MSTORE PUSH1 0x7 PUSH1 0x20 SWAP1 DUP2 MSTORE PUSH1 0x40 SWAP2 DUP3 SWAP1 KECCAK256 PUSH1 0x2 ADD SWAP4 SWAP1 SWAP4 SSTORE MLOAD DUP4 DUP2 MSTORE CALLER SWAP3 PUSH32 0x328838DDFC48AD5AE5531B1AD95DFB22B42FF1866853E474375FFEF2C63D8E50 SWAP2 ADD PUSH1 0x40 MLOAD DUP1 SWAP2 SUB SWAP1 LOG3 POP JUMPDEST POP JUMPDEST DUP1 SLOAD PUSH2 0xF6D JUMPI TIMESTAMP PUSH1 0x1 DUP1 DUP4 ADD SWAP2 SWAP1 SWAP2 SSTORE PUSH1 0x2 SLOAD PUSH2 0xF36 SWAP2 PUSH2 0x1734 JUMP JUMPDEST PUSH1 0x2 SSTORE PUSH1 0x40 MLOAD CALLER DUP2 MSTORE PUSH32 0x9FD565CD14C3C391679EB0CAD12A14DCF7534E9D3462BCB9B67A098A9BBBC24A SWAP1 PUSH1 0x20 ADD PUSH1 0x40 MLOAD DUP1 SWAP2 SUB SWAP1 LOG1 JUMPDEST PUSH1 0x4 DUP2 ADD SLOAD PUSH1 0x1 PUSH1 0x1 PUSH1 0xA0 SHL SUB AND ISZERO PUSH2 0x102D JUMPI PUSH1 0x40 DUP1 MLOAD PUSH1 0xA0 DUP2 ADD SWAP1 SWAP2 MSTORE DUP2 SWAP1 DUP1 PUSH2 0xFA9 PUSH2 0xFA2 PUSH2 0x3E8 PUSH2 0x52B DUP9 PUSH1 0x78 PUSH2 0x171C JUMP JUMPDEST DUP7 SWAP1 PUSH2 0x1709 JUMP JUMPDEST DUP2 MSTORE PUSH1 0x20 ADD PUSH1 0x0 DUP2 MSTORE PUSH1 0x20 ADD TIMESTAMP DUP2 MSTORE PUSH1 0x20 ADD PUSH3 0xED4E00 TIMESTAMP PUSH2 0xFCA SWAP2 SWAP1 PUSH2 0x18C1 JUMP JUMPDEST DUP2 MSTORE PUSH1 0x0 PUSH1 0x20 SWAP2 DUP3 ADD DUP2 SWAP1 MSTORE DUP4 SLOAD PUSH1 0x1 DUP1 DUP3 ADD DUP7 SSTORE SWAP5 DUP3 MSTORE SWAP1 DUP3 SWAP1 KECCAK256 DUP4 MLOAD PUSH1 0x5 SWAP1 SWAP3 MUL ADD SWAP1 DUP2 SSTORE SWAP1 DUP3 ADD MLOAD SWAP3 DUP2 ADD SWAP3 SWAP1 SWAP3 SSTORE PUSH1 0x40 DUP2 ADD MLOAD PUSH1 0x2 DUP4 ADD SSTORE PUSH1 0x60 DUP2 ADD MLOAD PUSH1 0x3 DUP4 ADD SSTORE PUSH1 0x80 ADD MLOAD PUSH1 0x4 SWAP1 SWAP2 ADD DUP1 SLOAD PUSH1 0xFF NOT AND SWAP2 ISZERO ISZERO SWAP2 SWAP1 SWAP2 OR SWAP1 SSTORE PUSH2 0x10BD JUMP JUMPDEST DUP1 PUSH1 0x0 ADD PUSH1 0x40 MLOAD DUP1 PUSH1 0xA0 ADD PUSH1 0x40 MSTORE DUP1 DUP5 DUP2 MSTORE PUSH1 0x20 ADD PUSH1 0x0 DUP2 MSTORE PUSH1 0x20 ADD TIMESTAMP DUP2 MSTORE PUSH1 0x20 ADD PUSH3 0xED4E00 TIMESTAMP PUSH2 0x105E SWAP2 SWAP1 PUSH2 0x18C1 JUMP JUMPDEST DUP2 MSTORE PUSH1 0x0 PUSH1 0x20 SWAP2 DUP3 ADD DUP2 SWAP1 MSTORE DUP4 SLOAD PUSH1 0x1 DUP1 DUP3 ADD DUP7 SSTORE SWAP5 DUP3 MSTORE SWAP1 DUP3 SWAP1 KECCAK256 DUP4 MLOAD PUSH1 0x5 SWAP1 SWAP3 MUL ADD SWAP1 DUP2 SSTORE SWAP1 DUP3 ADD MLOAD SWAP3 DUP2 ADD SWAP3 SWAP1 SWAP3 SSTORE PUSH1 0x40 DUP2 ADD MLOAD PUSH1 0x2 DUP4 ADD SSTORE PUSH1 0x60 DUP2 ADD MLOAD PUSH1 0x3 DUP4 ADD SSTORE PUSH1 0x80 ADD MLOAD PUSH1 0x4 SWAP1 SWAP2 ADD DUP1 SLOAD PUSH1 0xFF NOT AND SWAP2 ISZERO ISZERO SWAP2 SWAP1 SWAP2 OR SWAP1 SSTORE JUMPDEST PUSH1 0x3 SLOAD PUSH2 0x10CA SWAP1 DUP4 PUSH2 0x1734 JUMP JUMPDEST PUSH1 0x3 SSTORE PUSH1 0x5 SLOAD PUSH2 0x10DB SWAP1 PUSH1 0x1 PUSH2 0x1734 JUMP JUMPDEST PUSH1 0x5 SSTORE PUSH1 0x40 MLOAD DUP3 DUP2 MSTORE CALLER SWAP1 PUSH32 0x2CB77763BC1E8490C1A904905C4D74B4269919ACA114464F4BB4D911E60DE364 SWAP1 PUSH1 0x20 ADD PUSH1 0x40 MLOAD DUP1 SWAP2 SUB SWAP1 LOG2 POP POP POP JUMP JUMPDEST PUSH1 0x1 PUSH1 0x1 PUSH1 0xA0 SHL SUB DUP3 AND PUSH1 0x0 SWAP1 DUP2 MSTORE PUSH1 0x7 PUSH1 0x20 MSTORE PUSH1 0x40 DUP2 KECCAK256 DUP1 SLOAD DUP3 SWAP2 DUP3 SWAP2 DUP3 SWAP2 DUP3 SWAP2 DUP2 SWAP1 DUP9 SWAP1 DUP2 LT PUSH2 0x114C JUMPI PUSH2 0x114C PUSH2 0x180A JUMP JUMPDEST SWAP1 PUSH1 0x0 MSTORE PUSH1 0x20 PUSH1 0x0 KECCAK256 SWAP1 PUSH1 0x5 MUL ADD PUSH1 0x0 ADD SLOAD DUP2 PUSH1 0x0 ADD DUP9 DUP2 SLOAD DUP2 LT PUSH2 0x1173 JUMPI PUSH2 0x1173 PUSH2 0x180A JUMP JUMPDEST SWAP1 PUSH1 0x0 MSTORE PUSH1 0x20 PUSH1 0x0 KECCAK256 SWAP1 PUSH1 0x5 MUL ADD PUSH1 0x1 ADD SLOAD DUP3 PUSH1 0x0 ADD DUP10 DUP2 SLOAD DUP2 LT PUSH2 0x119A JUMPI PUSH2 0x119A PUSH2 0x180A JUMP JUMPDEST SWAP1 PUSH1 0x0 MSTORE PUSH1 0x20 PUSH1 0x0 KECCAK256 SWAP1 PUSH1 0x5 MUL ADD PUSH1 0x2 ADD SLOAD DUP4 PUSH1 0x0 ADD DUP11 DUP2 SLOAD DUP2 LT PUSH2 0x11C1 JUMPI PUSH2 0x11C1 PUSH2 0x180A JUMP JUMPDEST SWAP1 PUSH1 0x0 MSTORE PUSH1 0x20 PUSH1 0x0 KECCAK256 SWAP1 PUSH1 0x5 MUL ADD PUSH1 0x3 ADD SLOAD DUP5 PUSH1 0x0 ADD DUP12 DUP2 SLOAD DUP2 LT PUSH2 0x11E8 JUMPI PUSH2 0x11E8 PUSH2 0x180A JUMP JUMPDEST PUSH1 0x0 SWAP2 DUP3 MSTORE PUSH1 0x20 SWAP1 SWAP2 KECCAK256 PUSH1 0x5 SWAP1 SWAP2 MUL ADD PUSH1 0x4 ADD SLOAD SWAP4 SWAP13 SWAP3 SWAP12 POP SWAP1 SWAP10 POP SWAP8 POP PUSH1 0xFF SWAP1 SWAP2 AND SWAP6 POP SWAP4 POP POP POP POP JUMP JUMPDEST PUSH1 0x0 SLOAD PUSH1 0x1 PUSH1 0x1 PUSH1 0xA0 SHL SUB AND CALLER EQ PUSH2 0x123E JUMPI PUSH1 0x40 MLOAD PUSH3 0x461BCD PUSH1 0xE5 SHL DUP2 MSTORE PUSH1 0x4 ADD PUSH2 0x6AD SWAP1 PUSH2 0x1851 JUMP JUMPDEST PUSH1 0x1 PUSH1 0x1 PUSH1 0xA0 SHL SUB DUP2 AND PUSH2 0x12A3 JUMPI PUSH1 0x40 MLOAD PUSH3 0x461BCD PUSH1 0xE5 SHL DUP2 MSTORE PUSH1 0x20 PUSH1 0x4 DUP3 ADD MSTORE PUSH1 0x26 PUSH1 0x24 DUP3 ADD MSTORE PUSH32 0x4F776E61626C653A206E6577206F776E657220697320746865207A65726F2061 PUSH1 0x44 DUP3 ADD MSTORE PUSH6 0x646472657373 PUSH1 0xD0 SHL PUSH1 0x64 DUP3 ADD MSTORE PUSH1 0x84 ADD PUSH2 0x6AD JUMP JUMPDEST PUSH2 0x12AC DUP2 PUSH2 0x1740 JUMP JUMPDEST POP JUMP JUMPDEST PUSH1 0x0 PUSH2 0x12BA CALLER PUSH2 0x3FC JUMP JUMPDEST GT PUSH2 0x12F4 JUMPI PUSH1 0x40 MLOAD PUSH3 0x461BCD PUSH1 0xE5 SHL DUP2 MSTORE PUSH1 0x20 PUSH1 0x4 DUP3 ADD MSTORE PUSH1 0xA PUSH1 0x24 DUP3 ADD MSTORE PUSH10 0x2737BA102437B63232B9 PUSH1 0xB1 SHL PUSH1 0x44 DUP3 ADD MSTORE PUSH1 0x64 ADD PUSH2 0x6AD JUMP JUMPDEST CALLER PUSH1 0x0 DUP2 DUP2 MSTORE PUSH1 0x7 PUSH1 0x20 MSTORE PUSH1 0x40 DUP2 KECCAK256 SWAP2 PUSH2 0x130D SWAP1 PUSH2 0x3FC JUMP JUMPDEST SWAP1 POP PUSH1 0x0 DUP1 DUP4 PUSH1 0x0 ADD PUSH1 0x40 MLOAD DUP1 PUSH1 0xA0 ADD PUSH1 0x40 MSTORE DUP1 DUP6 DUP2 MSTORE PUSH1 0x20 ADD PUSH1 0x0 DUP2 MSTORE PUSH1 0x20 ADD TIMESTAMP DUP2 MSTORE PUSH1 0x20 ADD PUSH3 0xED4E00 TIMESTAMP PUSH2 0x1343 SWAP2 SWAP1 PUSH2 0x18C1 JUMP JUMPDEST DUP2 MSTORE PUSH1 0x0 PUSH1 0x20 SWAP2 DUP3 ADD DUP2 SWAP1 MSTORE DUP4 SLOAD PUSH1 0x1 DUP1 DUP3 ADD DUP7 SSTORE SWAP5 DUP3 MSTORE DUP3 DUP3 KECCAK256 DUP5 MLOAD PUSH1 0x5 SWAP1 SWAP3 MUL ADD SWAP1 DUP2 SSTORE SWAP2 DUP4 ADD MLOAD SWAP4 DUP3 ADD SWAP4 SWAP1 SWAP4 SSTORE PUSH1 0x40 DUP3 ADD MLOAD PUSH1 0x2 DUP3 ADD SSTORE PUSH1 0x60 DUP3 ADD MLOAD PUSH1 0x3 DUP3 ADD SSTORE PUSH1 0x80 SWAP1 SWAP2 ADD MLOAD PUSH1 0x4 SWAP1 SWAP2 ADD DUP1 SLOAD PUSH1 0xFF NOT AND SWAP2 ISZERO ISZERO SWAP2 SWAP1 SWAP2 OR SWAP1 SSTORE JUMPDEST DUP5 SLOAD DUP2 LT ISZERO PUSH2 0x1625 JUMPI DUP5 PUSH1 0x0 ADD DUP2 DUP2 SLOAD DUP2 LT PUSH2 0x13C1 JUMPI PUSH2 0x13C1 PUSH2 0x180A JUMP JUMPDEST PUSH1 0x0 SWAP2 DUP3 MSTORE PUSH1 0x20 SWAP1 SWAP2 KECCAK256 PUSH1 0x4 PUSH1 0x5 SWAP1 SWAP3 MUL ADD ADD SLOAD PUSH1 0xFF AND PUSH2 0x1613 JUMPI TIMESTAMP DUP6 PUSH1 0x0 ADD DUP3 DUP2 SLOAD DUP2 LT PUSH2 0x13F2 JUMPI PUSH2 0x13F2 PUSH2 0x180A JUMP JUMPDEST SWAP1 PUSH1 0x0 MSTORE PUSH1 0x20 PUSH1 0x0 KECCAK256 SWAP1 PUSH1 0x5 MUL ADD PUSH1 0x3 ADD SLOAD GT ISZERO PUSH2 0x14A6 JUMPI DUP5 PUSH1 0x1 ADD SLOAD DUP6 PUSH1 0x0 ADD DUP3 DUP2 SLOAD DUP2 LT PUSH2 0x1424 JUMPI PUSH2 0x1424 PUSH2 0x180A JUMP JUMPDEST SWAP1 PUSH1 0x0 MSTORE PUSH1 0x20 PUSH1 0x0 KECCAK256 SWAP1 PUSH1 0x5 MUL ADD PUSH1 0x2 ADD SLOAD GT ISZERO PUSH2 0x1485 JUMPI PUSH2 0x147E PUSH3 0x15180 PUSH2 0x52B PUSH2 0x145E DUP9 PUSH1 0x0 ADD DUP6 DUP2 SLOAD DUP2 LT PUSH2 0x4D3 JUMPI PUSH2 0x4D3 PUSH2 0x180A JUMP JUMPDEST PUSH2 0x531 PUSH2 0x3E8 PUSH2 0x52B PUSH1 0xF DUP13 PUSH1 0x0 ADD DUP10 DUP2 SLOAD DUP2 LT PUSH2 0x514 JUMPI PUSH2 0x514 PUSH2 0x180A JUMP JUMPDEST SWAP2 POP PUSH2 0x15C4 JUMP JUMPDEST PUSH2 0x147E PUSH3 0x15180 PUSH2 0x52B PUSH2 0x145E DUP9 PUSH1 0x1 ADD SLOAD TIMESTAMP PUSH2 0x1709 SWAP1 SWAP2 SWAP1 PUSH4 0xFFFFFFFF AND JUMP JUMPDEST DUP5 PUSH1 0x1 ADD SLOAD DUP6 PUSH1 0x0 ADD DUP3 DUP2 SLOAD DUP2 LT PUSH2 0x14C0 JUMPI PUSH2 0x14C0 PUSH2 0x180A JUMP JUMPDEST SWAP1 PUSH1 0x0 MSTORE PUSH1 0x20 PUSH1 0x0 KECCAK256 SWAP1 PUSH1 0x5 MUL ADD PUSH1 0x2 ADD SLOAD GT ISZERO PUSH2 0x1561 JUMPI PUSH2 0x1521 PUSH3 0x15180 PUSH2 0x52B PUSH2 0x145E DUP9 PUSH1 0x0 ADD DUP6 DUP2 SLOAD DUP2 LT PUSH2 0x14FA JUMPI PUSH2 0x14FA PUSH2 0x180A JUMP JUMPDEST SWAP1 PUSH1 0x0 MSTORE PUSH1 0x20 PUSH1 0x0 KECCAK256 SWAP1 PUSH1 0x5 MUL ADD PUSH1 0x2 ADD SLOAD DUP10 PUSH1 0x0 ADD DUP7 DUP2 SLOAD DUP2 LT PUSH2 0x5DA JUMPI PUSH2 0x5DA PUSH2 0x180A JUMP JUMPDEST SWAP2 POP PUSH1 0x1 DUP6 PUSH1 0x0 ADD DUP3 DUP2 SLOAD DUP2 LT PUSH2 0x153A JUMPI PUSH2 0x153A PUSH2 0x180A JUMP JUMPDEST PUSH1 0x0 SWAP2 DUP3 MSTORE PUSH1 0x20 SWAP1 SWAP2 KECCAK256 PUSH1 0x5 SWAP1 SWAP2 MUL ADD PUSH1 0x4 ADD DUP1 SLOAD PUSH1 0xFF NOT AND SWAP2 ISZERO ISZERO SWAP2 SWAP1 SWAP2 OR SWAP1 SSTORE PUSH2 0x15C4 JUMP JUMPDEST PUSH2 0x1588 PUSH3 0x15180 PUSH2 0x52B PUSH2 0x145E DUP9 PUSH1 0x1 ADD SLOAD DUP10 PUSH1 0x0 ADD DUP7 DUP2 SLOAD DUP2 LT PUSH2 0x5DA JUMPI PUSH2 0x5DA PUSH2 0x180A JUMP JUMPDEST SWAP2 POP PUSH1 0x1 DUP6 PUSH1 0x0 ADD DUP3 DUP2 SLOAD DUP2 LT PUSH2 0x15A1 JUMPI PUSH2 0x15A1 PUSH2 0x180A JUMP JUMPDEST PUSH1 0x0 SWAP2 DUP3 MSTORE PUSH1 0x20 SWAP1 SWAP2 KECCAK256 PUSH1 0x5 SWAP1 SWAP2 MUL ADD PUSH1 0x4 ADD DUP1 SLOAD PUSH1 0xFF NOT AND SWAP2 ISZERO ISZERO SWAP2 SWAP1 SWAP2 OR SWAP1 SSTORE JUMPDEST PUSH2 0x15DD DUP3 DUP7 PUSH1 0x0 ADD DUP4 DUP2 SLOAD DUP2 LT PUSH2 0x8C1 JUMPI PUSH2 0x8C1 PUSH2 0x180A JUMP JUMPDEST DUP6 PUSH1 0x0 ADD DUP3 DUP2 SLOAD DUP2 LT PUSH2 0x15F2 JUMPI PUSH2 0x15F2 PUSH2 0x180A JUMP JUMPDEST PUSH1 0x0 SWAP2 DUP3 MSTORE PUSH1 0x20 SWAP1 SWAP2 KECCAK256 PUSH1 0x1 PUSH1 0x5 SWAP1 SWAP3 MUL ADD ADD SSTORE PUSH2 0x1610 DUP4 DUP4 PUSH2 0x1734 JUMP JUMPDEST SWAP3 POP JUMPDEST DUP1 PUSH2 0x161D DUP2 PUSH2 0x1836 JUMP JUMPDEST SWAP2 POP POP PUSH2 0x13A3 JUMP JUMPDEST POP TIMESTAMP PUSH1 0x1 DUP6 ADD SSTORE PUSH1 0x3 SLOAD PUSH2 0x1639 SWAP1 DUP5 PUSH2 0x1734 JUMP JUMPDEST PUSH1 0x3 SSTORE PUSH1 0x5 SLOAD PUSH2 0x164A SWAP1 PUSH1 0x1 PUSH2 0x1734 JUMP JUMPDEST PUSH1 0x5 SSTORE PUSH1 0x4 SLOAD PUSH2 0x165A SWAP1 DUP4 PUSH2 0x1734 JUMP JUMPDEST PUSH1 0x4 SSTORE PUSH1 0x40 MLOAD DUP4 DUP2 MSTORE CALLER SWAP1 PUSH32 0x5D511C2070E5A2DBCC6FBFBB3FD6704A11AB5FA74B793B81AACECE2C7CC29405 SWAP1 PUSH1 0x20 ADD PUSH1 0x40 MLOAD DUP1 SWAP2 SUB SWAP1 LOG2 POP POP POP POP JUMP JUMPDEST PUSH1 0x1 PUSH1 0x1 PUSH1 0xA0 SHL SUB DUP2 AND PUSH1 0x0 SWAP1 DUP2 MSTORE PUSH1 0x7 PUSH1 0x20 MSTORE PUSH1 0x40 DUP2 KECCAK256 DUP2 DUP1 JUMPDEST DUP3 SLOAD DUP2 LT ISZERO PUSH2 0xBE1 JUMPI PUSH2 0x16F5 DUP4 PUSH1 0x0 ADD DUP3 DUP2 SLOAD DUP2 LT PUSH2 0x16D4 JUMPI PUSH2 0x16D4 PUSH2 0x180A JUMP JUMPDEST SWAP1 PUSH1 0x0 MSTORE PUSH1 0x20 PUSH1 0x0 KECCAK256 SWAP1 PUSH1 0x5 MUL ADD PUSH1 0x1 ADD SLOAD DUP4 PUSH2 0x1734 SWAP1 SWAP2 SWAP1 PUSH4 0xFFFFFFFF AND JUMP JUMPDEST SWAP2 POP DUP1 PUSH2 0x1701 DUP2 PUSH2 0x1836 JUMP JUMPDEST SWAP2 POP POP PUSH2 0x16B3 JUMP JUMPDEST PUSH1 0x0 PUSH2 0x1715 DUP3 DUP5 PUSH2 0x18D9 JUMP JUMPDEST SWAP4 SWAP3 POP POP POP JUMP JUMPDEST PUSH1 0x0 PUSH2 0x1715 DUP3 DUP5 PUSH2 0x18F0 JUMP JUMPDEST PUSH1 0x0 PUSH2 0x1715 DUP3 DUP5 PUSH2 0x190F JUMP JUMPDEST PUSH1 0x0 PUSH2 0x1715 DUP3 DUP5 PUSH2 0x18C1 JUMP JUMPDEST PUSH1 0x0 DUP1 SLOAD PUSH1 0x1 PUSH1 0x1 PUSH1 0xA0 SHL SUB DUP4 DUP2 AND PUSH1 0x1 PUSH1 0x1 PUSH1 0xA0 SHL SUB NOT DUP4 AND DUP2 OR DUP5 SSTORE PUSH1 0x40 MLOAD SWAP2 SWAP1 SWAP3 AND SWAP3 DUP4 SWAP2 PUSH32 0x8BE0079C531659141344CD1FD0A4F28419497F9722A3DAAFE3B4186F6B6457E0 SWAP2 SWAP1 LOG3 POP POP JUMP JUMPDEST DUP1 CALLDATALOAD PUSH1 0x1 PUSH1 0x1 PUSH1 0xA0 SHL SUB DUP2 AND DUP2 EQ PUSH2 0x17A7 JUMPI PUSH1 0x0 DUP1 REVERT JUMPDEST SWAP2 SWAP1 POP JUMP JUMPDEST PUSH1 0x0 PUSH1 0x20 DUP3 DUP5 SUB SLT ISZERO PUSH2 0x17BE JUMPI PUSH1 0x0 DUP1 REVERT JUMPDEST PUSH2 0x1715 DUP3 PUSH2 0x1790 JUMP JUMPDEST PUSH1 0x0 PUSH1 0x20 DUP3 DUP5 SUB SLT ISZERO PUSH2 0x17D9 JUMPI PUSH1 0x0 DUP1 REVERT JUMPDEST POP CALLDATALOAD SWAP2 SWAP1 POP JUMP JUMPDEST PUSH1 0x0 DUP1 PUSH1 0x40 DUP4 DUP6 SUB SLT ISZERO PUSH2 0x17F3 JUMPI PUSH1 0x0 DUP1 REVERT JUMPDEST PUSH2 0x17FC DUP4 PUSH2 0x1790 JUMP JUMPDEST SWAP5 PUSH1 0x20 SWAP4 SWAP1 SWAP4 ADD CALLDATALOAD SWAP4 POP POP POP JUMP JUMPDEST PUSH4 0x4E487B71 PUSH1 0xE0 SHL PUSH1 0x0 MSTORE PUSH1 0x32 PUSH1 0x4 MSTORE PUSH1 0x24 PUSH1 0x0 REVERT JUMPDEST PUSH4 0x4E487B71 PUSH1 0xE0 SHL PUSH1 0x0 MSTORE PUSH1 0x11 PUSH1 0x4 MSTORE PUSH1 0x24 PUSH1 0x0 REVERT JUMPDEST PUSH1 0x0 PUSH1 0x0 NOT DUP3 EQ ISZERO PUSH2 0x184A JUMPI PUSH2 0x184A PUSH2 0x1820 JUMP JUMPDEST POP PUSH1 0x1 ADD SWAP1 JUMP JUMPDEST PUSH1 0x20 DUP1 DUP3 MSTORE DUP2 DUP2 ADD MSTORE PUSH32 0x4F776E61626C653A2063616C6C6572206973206E6F7420746865206F776E6572 PUSH1 0x40 DUP3 ADD MSTORE PUSH1 0x60 ADD SWAP1 JUMP JUMPDEST PUSH1 0x0 PUSH1 0x20 DUP3 DUP5 SUB SLT ISZERO PUSH2 0x1898 JUMPI PUSH1 0x0 DUP1 REVERT JUMPDEST POP MLOAD SWAP2 SWAP1 POP JUMP JUMPDEST PUSH1 0x0 PUSH1 0x20 DUP3 DUP5 SUB SLT ISZERO PUSH2 0x18B1 JUMPI PUSH1 0x0 DUP1 REVERT JUMPDEST DUP2 MLOAD DUP1 ISZERO ISZERO DUP2 EQ PUSH2 0x1715 JUMPI PUSH1 0x0 DUP1 REVERT JUMPDEST PUSH1 0x0 DUP3 NOT DUP3 GT ISZERO PUSH2 0x18D4 JUMPI PUSH2 0x18D4 PUSH2 0x1820 JUMP JUMPDEST POP ADD SWAP1 JUMP JUMPDEST PUSH1 0x0 DUP3 DUP3 LT ISZERO PUSH2 0x18EB JUMPI PUSH2 0x18EB PUSH2 0x1820 JUMP JUMPDEST POP SUB SWAP1 JUMP JUMPDEST PUSH1 0x0 DUP2 PUSH1 0x0 NOT DIV DUP4 GT DUP3 ISZERO ISZERO AND ISZERO PUSH2 0x190A JUMPI PUSH2 0x190A PUSH2 0x1820 JUMP JUMPDEST POP MUL SWAP1 JUMP JUMPDEST PUSH1 0x0 DUP3 PUSH2 0x192C JUMPI PUSH4 0x4E487B71 PUSH1 0xE0 SHL PUSH1 0x0 MSTORE PUSH1 0x12 PUSH1 0x4 MSTORE PUSH1 0x24 PUSH1 0x0 REVERT JUMPDEST POP DIV SWAP1 JUMP INVALID LOG2 PUSH5 0x6970667358 0x22 SLT KECCAK256 SLOAD CALLCODE GASLIMIT CALLDATACOPY 0xB5 0xB6 0xDE 0xAA AND PUSH16 0x330AADBE15F903521B91AA79D998C07F 0xE4 0xDB 0xAE EXTCODECOPY 0xE 0xDB PUSH5 0x736F6C6343 STOP ADDMOD EXP STOP CALLER "
				},
				"gasEstimates": {
					"creation": {
						"codeDepositCost": "1300600",
						"executionCost": "infinite",
						"totalCost": "infinite"
					},
					"external": {
						"DAILY_ROI()": "229",
						"PERCENTS_DIVIDER()": "230",
						"REFERRAL_PERCENTS()": "252",
						"STAKING_PERIOD()": "208",
						"TIME_STEP()": "318",
						"claim()": "infinite",
						"compound()": "infinite",
						"getUserAmountOfDeposits(address)": "2616",
						"getUserAvailable(address)": "infinite",
						"getUserCheckpoint(address)": "2621",
						"getUserDepositInfo(address,uint256)": "22286",
						"getUserDividends(address)": "infinite",
						"getUserReferralBonus(address)": "2576",
						"getUserReferralCount(address)": "2577",
						"getUserReferrer(address)": "2619",
						"getUserTotalDeposits(address)": "infinite",
						"getUserTotalWithdrawn(address)": "infinite",
						"minimumStakeValue()": "2396",
						"owner()": "2399",
						"renounceOwnership()": "28203",
						"setMinimumStakeValue(uint256)": "24509",
						"stake(address,uint256)": "infinite",
						"totalDepositCount()": "2351",
						"totalStaked()": "2330",
						"totalUsers()": "2373",
						"totalWithdrawn()": "2374",
						"transferOwnership(address)": "28375"
					}
				},
				"methodIdentifiers": {
					"DAILY_ROI()": "ab8a3c6b",
					"PERCENTS_DIVIDER()": "01c234a8",
					"REFERRAL_PERCENTS()": "44038f90",
					"STAKING_PERIOD()": "0104db1b",
					"TIME_STEP()": "32bc298c",
					"claim()": "4e71d92d",
					"compound()": "f69e2046",
					"getUserAmountOfDeposits(address)": "a8aeb6c2",
					"getUserAvailable(address)": "153ab9df",
					"getUserCheckpoint(address)": "d7ffca91",
					"getUserDepositInfo(address,uint256)": "c0806b03",
					"getUserDividends(address)": "040a772e",
					"getUserReferralBonus(address)": "e85abe09",
					"getUserReferralCount(address)": "c8a22eb4",
					"getUserReferrer(address)": "36144c9a",
					"getUserTotalDeposits(address)": "7e3abeea",
					"getUserTotalWithdrawn(address)": "fb4cb32b",
					"minimumStakeValue()": "18e1fbfc",
					"owner()": "8da5cb5b",
					"renounceOwnership()": "715018a6",
					"setMinimumStakeValue(uint256)": "4be4d790",
					"stake(address,uint256)": "adc9772e",
					"totalDepositCount()": "d6343867",
					"totalStaked()": "817b1cd2",
					"totalUsers()": "bff1f9e1",
					"totalWithdrawn()": "4b319713",
					"transferOwnership(address)": "f2fde38b"
				}
			},
			"storageLayout": {
				"storage": [
					{
						"astId": 7,
						"contract": "BCStaking.sol:BillionCashStaking",
						"label": "_owner",
						"offset": 0,
						"slot": "0",
						"type": "t_address"
					},
					{
						"astId": 1155,
						"contract": "BCStaking.sol:BillionCashStaking",
						"label": "BC",
						"offset": 0,
						"slot": "1",
						"type": "t_contract(ERC20)690"
					},
					{
						"astId": 1157,
						"contract": "BCStaking.sol:BillionCashStaking",
						"label": "totalUsers",
						"offset": 0,
						"slot": "2",
						"type": "t_uint256"
					},
					{
						"astId": 1159,
						"contract": "BCStaking.sol:BillionCashStaking",
						"label": "totalStaked",
						"offset": 0,
						"slot": "3",
						"type": "t_uint256"
					},
					{
						"astId": 1161,
						"contract": "BCStaking.sol:BillionCashStaking",
						"label": "totalWithdrawn",
						"offset": 0,
						"slot": "4",
						"type": "t_uint256"
					},
					{
						"astId": 1163,
						"contract": "BCStaking.sol:BillionCashStaking",
						"label": "totalDepositCount",
						"offset": 0,
						"slot": "5",
						"type": "t_uint256"
					},
					{
						"astId": 1170,
						"contract": "BCStaking.sol:BillionCashStaking",
						"label": "minimumStakeValue",
						"offset": 0,
						"slot": "6",
						"type": "t_uint256"
					},
					{
						"astId": 1199,
						"contract": "BCStaking.sol:BillionCashStaking",
						"label": "users",
						"offset": 0,
						"slot": "7",
						"type": "t_mapping(t_address,t_struct(User)1194_storage)"
					}
				],
				"types": {
					"t_address": {
						"encoding": "inplace",
						"label": "address",
						"numberOfBytes": "20"
					},
					"t_array(t_struct(Deposit)1181_storage)dyn_storage": {
						"base": "t_struct(Deposit)1181_storage",
						"encoding": "dynamic_array",
						"label": "struct BillionCashStaking.Deposit[]",
						"numberOfBytes": "32"
					},
					"t_bool": {
						"encoding": "inplace",
						"label": "bool",
						"numberOfBytes": "1"
					},
					"t_contract(ERC20)690": {
						"encoding": "inplace",
						"label": "contract ERC20",
						"numberOfBytes": "20"
					},
					"t_mapping(t_address,t_struct(User)1194_storage)": {
						"encoding": "mapping",
						"key": "t_address",
						"label": "mapping(address => struct BillionCashStaking.User)",
						"numberOfBytes": "32",
						"value": "t_struct(User)1194_storage"
					},
					"t_struct(Deposit)1181_storage": {
						"encoding": "inplace",
						"label": "struct BillionCashStaking.Deposit",
						"members": [
							{
								"astId": 1172,
								"contract": "BCStaking.sol:BillionCashStaking",
								"label": "amount",
								"offset": 0,
								"slot": "0",
								"type": "t_uint256"
							},
							{
								"astId": 1174,
								"contract": "BCStaking.sol:BillionCashStaking",
								"label": "withdrawn",
								"offset": 0,
								"slot": "1",
								"type": "t_uint256"
							},
							{
								"astId": 1176,
								"contract": "BCStaking.sol:BillionCashStaking",
								"label": "startTime",
								"offset": 0,
								"slot": "2",
								"type": "t_uint256"
							},
							{
								"astId": 1178,
								"contract": "BCStaking.sol:BillionCashStaking",
								"label": "endTime",
								"offset": 0,
								"slot": "3",
								"type": "t_uint256"
							},
							{
								"astId": 1180,
								"contract": "BCStaking.sol:BillionCashStaking",
								"label": "ended",
								"offset": 0,
								"slot": "4",
								"type": "t_bool"
							}
						],
						"numberOfBytes": "160"
					},
					"t_struct(User)1194_storage": {
						"encoding": "inplace",
						"label": "struct BillionCashStaking.User",
						"members": [
							{
								"astId": 1185,
								"contract": "BCStaking.sol:BillionCashStaking",
								"label": "deposits",
								"offset": 0,
								"slot": "0",
								"type": "t_array(t_struct(Deposit)1181_storage)dyn_storage"
							},
							{
								"astId": 1187,
								"contract": "BCStaking.sol:BillionCashStaking",
								"label": "checkpoint",
								"offset": 0,
								"slot": "1",
								"type": "t_uint256"
							},
							{
								"astId": 1189,
								"contract": "BCStaking.sol:BillionCashStaking",
								"label": "bonus",
								"offset": 0,
								"slot": "2",
								"type": "t_uint256"
							},
							{
								"astId": 1191,
								"contract": "BCStaking.sol:BillionCashStaking",
								"label": "referralCount",
								"offset": 0,
								"slot": "3",
								"type": "t_uint256"
							},
							{
								"astId": 1193,
								"contract": "BCStaking.sol:BillionCashStaking",
								"label": "referrer",
								"offset": 0,
								"slot": "4",
								"type": "t_address"
							}
						],
						"numberOfBytes": "160"
					},
					"t_uint256": {
						"encoding": "inplace",
						"label": "uint256",
						"numberOfBytes": "32"
					}
				}
			},
			"userdoc": {
				"kind": "user",
				"methods": {},
				"version": 1
			}
		}
	}
}