{
	"BCStaking.sol": {
		"BillionCashStaking": {
			"abi": [
				{
					"inputs": [
						{
							"internalType": "contract ERC20",
							"name": "_token",
							"type": "address"
						}
					],
					"stateMutability": "nonpayable",
					"type": "constructor"
				},
				{
					"anonymous": false,
					"inputs": [
						{
							"indexed": true,
							"internalType": "address",
							"name": "user",
							"type": "address"
						},
						{
							"indexed": false,
							"internalType": "uint256",
							"name": "amount",
							"type": "uint256"
						}
					],
					"name": "NewDeposit",
					"type": "event"
				},
				{
					"anonymous": false,
					"inputs": [
						{
							"indexed": false,
							"internalType": "address",
							"name": "user",
							"type": "address"
						}
					],
					"name": "Newbie",
					"type": "event"
				},
				{
					"anonymous": false,
					"inputs": [
						{
							"indexed": true,
							"internalType": "address",
							"name": "previousOwner",
							"type": "address"
						},
						{
							"indexed": true,
							"internalType": "address",
							"name": "newOwner",
							"type": "address"
						}
					],
					"name": "OwnershipTransferred",
					"type": "event"
				},
				{
					"anonymous": false,
					"inputs": [
						{
							"indexed": true,
							"internalType": "address",
							"name": "referrer",
							"type": "address"
						},
						{
							"indexed": true,
							"internalType": "address",
							"name": "referral",
							"type": "address"
						},
						{
							"indexed": false,
							"internalType": "uint256",
							"name": "amount",
							"type": "uint256"
						}
					],
					"name": "RefBonus",
					"type": "event"
				},
				{
					"anonymous": false,
					"inputs": [
						{
							"indexed": true,
							"internalType": "address",
							"name": "user",
							"type": "address"
						},
						{
							"indexed": false,
							"internalType": "uint256",
							"name": "amount",
							"type": "uint256"
						}
					],
					"name": "Withdrawn",
					"type": "event"
				},
				{
					"anonymous": false,
					"inputs": [
						{
							"indexed": true,
							"internalType": "address",
							"name": "user",
							"type": "address"
						},
						{
							"indexed": false,
							"internalType": "uint256",
							"name": "reinvestAmount",
							"type": "uint256"
						}
					],
					"name": "onReinvestment",
					"type": "event"
				},
				{
					"inputs": [],
					"name": "PERCENTS_DAILY",
					"outputs": [
						{
							"internalType": "uint256",
							"name": "",
							"type": "uint256"
						}
					],
					"stateMutability": "view",
					"type": "function"
				},
				{
					"inputs": [],
					"name": "PERCENTS_DIVIDER",
					"outputs": [
						{
							"internalType": "uint256",
							"name": "",
							"type": "uint256"
						}
					],
					"stateMutability": "view",
					"type": "function"
				},
				{
					"inputs": [],
					"name": "REFERRAL_PERCENTS",
					"outputs": [
						{
							"internalType": "uint256",
							"name": "",
							"type": "uint256"
						}
					],
					"stateMutability": "view",
					"type": "function"
				},
				{
					"inputs": [],
					"name": "STAKING_PERIOD",
					"outputs": [
						{
							"internalType": "uint256",
							"name": "",
							"type": "uint256"
						}
					],
					"stateMutability": "view",
					"type": "function"
				},
				{
					"inputs": [],
					"name": "TIME_STEP",
					"outputs": [
						{
							"internalType": "uint256",
							"name": "",
							"type": "uint256"
						}
					],
					"stateMutability": "view",
					"type": "function"
				},
				{
					"inputs": [],
					"name": "claim",
					"outputs": [],
					"stateMutability": "nonpayable",
					"type": "function"
				},
				{
					"inputs": [],
					"name": "compound",
					"outputs": [],
					"stateMutability": "nonpayable",
					"type": "function"
				},
				{
					"inputs": [
						{
							"internalType": "address",
							"name": "userAddress",
							"type": "address"
						}
					],
					"name": "getUserAmountOfDeposits",
					"outputs": [
						{
							"internalType": "uint256",
							"name": "",
							"type": "uint256"
						}
					],
					"stateMutability": "view",
					"type": "function"
				},
				{
					"inputs": [
						{
							"internalType": "address",
							"name": "userAddress",
							"type": "address"
						}
					],
					"name": "getUserAvailable",
					"outputs": [
						{
							"internalType": "uint256",
							"name": "",
							"type": "uint256"
						}
					],
					"stateMutability": "view",
					"type": "function"
				},
				{
					"inputs": [
						{
							"internalType": "address",
							"name": "userAddress",
							"type": "address"
						}
					],
					"name": "getUserCheckpoint",
					"outputs": [
						{
							"internalType": "uint256",
							"name": "",
							"type": "uint256"
						}
					],
					"stateMutability": "view",
					"type": "function"
				},
				{
					"inputs": [
						{
							"internalType": "address",
							"name": "userAddress",
							"type": "address"
						},
						{
							"internalType": "uint256",
							"name": "index",
							"type": "uint256"
						}
					],
					"name": "getUserDepositInfo",
					"outputs": [
						{
							"internalType": "uint256",
							"name": "",
							"type": "uint256"
						},
						{
							"internalType": "uint256",
							"name": "",
							"type": "uint256"
						},
						{
							"internalType": "uint256",
							"name": "",
							"type": "uint256"
						},
						{
							"internalType": "uint256",
							"name": "",
							"type": "uint256"
						},
						{
							"internalType": "bool",
							"name": "",
							"type": "bool"
						}
					],
					"stateMutability": "view",
					"type": "function"
				},
				{
					"inputs": [
						{
							"internalType": "address",
							"name": "userAddress",
							"type": "address"
						}
					],
					"name": "getUserDividends",
					"outputs": [
						{
							"internalType": "uint256",
							"name": "",
							"type": "uint256"
						}
					],
					"stateMutability": "view",
					"type": "function"
				},
				{
					"inputs": [
						{
							"internalType": "address",
							"name": "userAddress",
							"type": "address"
						}
					],
					"name": "getUserReferralBonus",
					"outputs": [
						{
							"internalType": "uint256",
							"name": "",
							"type": "uint256"
						}
					],
					"stateMutability": "view",
					"type": "function"
				},
				{
					"inputs": [
						{
							"internalType": "address",
							"name": "userAddress",
							"type": "address"
						}
					],
					"name": "getUserReferralCount",
					"outputs": [
						{
							"internalType": "uint256",
							"name": "",
							"type": "uint256"
						}
					],
					"stateMutability": "view",
					"type": "function"
				},
				{
					"inputs": [
						{
							"internalType": "address",
							"name": "userAddress",
							"type": "address"
						}
					],
					"name": "getUserReferrer",
					"outputs": [
						{
							"internalType": "address",
							"name": "",
							"type": "address"
						}
					],
					"stateMutability": "view",
					"type": "function"
				},
				{
					"inputs": [
						{
							"internalType": "address",
							"name": "userAddress",
							"type": "address"
						}
					],
					"name": "getUserTotalDeposits",
					"outputs": [
						{
							"internalType": "uint256",
							"name": "",
							"type": "uint256"
						}
					],
					"stateMutability": "view",
					"type": "function"
				},
				{
					"inputs": [
						{
							"internalType": "address",
							"name": "userAddress",
							"type": "address"
						}
					],
					"name": "getUserTotalWithdrawn",
					"outputs": [
						{
							"internalType": "uint256",
							"name": "",
							"type": "uint256"
						}
					],
					"stateMutability": "view",
					"type": "function"
				},
				{
					"inputs": [
						{
							"internalType": "address",
							"name": "userAddress",
							"type": "address"
						}
					],
					"name": "isActive",
					"outputs": [
						{
							"internalType": "bool",
							"name": "",
							"type": "bool"
						}
					],
					"stateMutability": "view",
					"type": "function"
				},
				{
					"inputs": [],
					"name": "owner",
					"outputs": [
						{
							"internalType": "address",
							"name": "",
							"type": "address"
						}
					],
					"stateMutability": "view",
					"type": "function"
				},
				{
					"inputs": [],
					"name": "renounceOwnership",
					"outputs": [],
					"stateMutability": "nonpayable",
					"type": "function"
				},
				{
					"inputs": [
						{
							"internalType": "address",
							"name": "referrer",
							"type": "address"
						},
						{
							"internalType": "uint256",
							"name": "amount",
							"type": "uint256"
						}
					],
					"name": "stake",
					"outputs": [],
					"stateMutability": "nonpayable",
					"type": "function"
				},
				{
					"inputs": [],
					"name": "totalDepositCount",
					"outputs": [
						{
							"internalType": "uint256",
							"name": "",
							"type": "uint256"
						}
					],
					"stateMutability": "view",
					"type": "function"
				},
				{
					"inputs": [],
					"name": "totalStaked",
					"outputs": [
						{
							"internalType": "uint256",
							"name": "",
							"type": "uint256"
						}
					],
					"stateMutability": "view",
					"type": "function"
				},
				{
					"inputs": [],
					"name": "totalUsers",
					"outputs": [
						{
							"internalType": "uint256",
							"name": "",
							"type": "uint256"
						}
					],
					"stateMutability": "view",
					"type": "function"
				},
				{
					"inputs": [],
					"name": "totalWithdrawn",
					"outputs": [
						{
							"internalType": "uint256",
							"name": "",
							"type": "uint256"
						}
					],
					"stateMutability": "view",
					"type": "function"
				},
				{
					"inputs": [
						{
							"internalType": "address",
							"name": "newOwner",
							"type": "address"
						}
					],
					"name": "transferOwnership",
					"outputs": [],
					"stateMutability": "nonpayable",
					"type": "function"
				}
			],
			"devdoc": {
				"kind": "dev",
				"methods": {
					"owner()": {
						"details": "Returns the address of the current owner."
					},
					"renounceOwnership()": {
						"details": "Leaves the contract without owner. It will not be possible to call `onlyOwner` functions anymore. Can only be called by the current owner. NOTE: Renouncing ownership will leave the contract without an owner, thereby removing any functionality that is only available to the owner."
					},
					"transferOwnership(address)": {
						"details": "Transfers ownership of the contract to a new account (`newOwner`). Can only be called by the current owner."
					}
				},
				"version": 1
			},
			"evm": {
				"assembly": "    /* \"BCStaking.sol\":241:15442  contract BillionCashStaking is Ownable {... */\n  mstore(0x40, 0x80)\n    /* \"BCStaking.sol\":1590:1685  constructor(ERC20 _token) {... */\n  callvalue\n  dup1\n  iszero\n  tag_1\n  jumpi\n  0x00\n  dup1\n  revert\ntag_1:\n  pop\n  mload(0x40)\n  sub(codesize, bytecodeSize)\n  dup1\n  bytecodeSize\n  dup4\n  codecopy\n  dup2\n  add\n  0x40\n  dup2\n  swap1\n  mstore\n  tag_2\n  swap2\n  tag_3\n  jump\t// in\ntag_2:\n    /* \"@openzeppelin/contracts/access/Ownable.sol\":921:953  _transferOwnership(_msgSender()) */\n  tag_7\n    /* \"@openzeppelin/contracts/utils/Context.sol\":719:729  msg.sender */\n  caller\n    /* \"@openzeppelin/contracts/access/Ownable.sol\":921:939  _transferOwnership */\n  tag_10\n    /* \"@openzeppelin/contracts/access/Ownable.sol\":921:953  _transferOwnership(_msgSender()) */\n  jump\t// in\ntag_7:\n    /* \"BCStaking.sol\":1666:1668  BC */\n  0x01\n    /* \"BCStaking.sol\":1666:1677  BC = _token */\n  dup1\n  sload\n  not(sub(shl(0xa0, 0x01), 0x01))\n  and\n  sub(shl(0xa0, 0x01), 0x01)\n  swap3\n  swap1\n  swap3\n  and\n  swap2\n  swap1\n  swap2\n  or\n  swap1\n  sstore\n    /* \"BCStaking.sol\":241:15442  contract BillionCashStaking is Ownable {... */\n  jump(tag_15)\n    /* \"@openzeppelin/contracts/access/Ownable.sol\":2270:2457  function _transferOwnership(address newOwner) internal virtual {... */\ntag_10:\n    /* \"@openzeppelin/contracts/access/Ownable.sol\":2343:2359  address oldOwner */\n  0x00\n    /* \"@openzeppelin/contracts/access/Ownable.sol\":2362:2368  _owner */\n  dup1\n  sload\n  sub(shl(0xa0, 0x01), 0x01)\n    /* \"@openzeppelin/contracts/access/Ownable.sol\":2378:2395  _owner = newOwner */\n  dup4\n  dup2\n  and\n  not(sub(shl(0xa0, 0x01), 0x01))\n  dup4\n  and\n  dup2\n  or\n  dup5\n  sstore\n    /* \"@openzeppelin/contracts/access/Ownable.sol\":2410:2450  OwnershipTransferred(oldOwner, newOwner) */\n  mload(0x40)\n    /* \"@openzeppelin/contracts/access/Ownable.sol\":2362:2368  _owner */\n  swap2\n  swap1\n  swap3\n  and\n  swap3\n  dup4\n  swap2\n    /* \"@openzeppelin/contracts/access/Ownable.sol\":2410:2450  OwnershipTransferred(oldOwner, newOwner) */\n  0x8be0079c531659141344cd1fd0a4f28419497f9722a3daafe3b4186f6b6457e0\n  swap2\n    /* \"@openzeppelin/contracts/access/Ownable.sol\":2343:2359  address oldOwner */\n  swap1\n    /* \"@openzeppelin/contracts/access/Ownable.sol\":2410:2450  OwnershipTransferred(oldOwner, newOwner) */\n  log3\n    /* \"@openzeppelin/contracts/access/Ownable.sol\":2333:2457  {... */\n  pop\n    /* \"@openzeppelin/contracts/access/Ownable.sol\":2270:2457  function _transferOwnership(address newOwner) internal virtual {... */\n  pop\n  jump\t// out\n    /* \"#utility.yul\":14:317   */\ntag_3:\n    /* \"#utility.yul\":97:103   */\n  0x00\n    /* \"#utility.yul\":150:152   */\n  0x20\n    /* \"#utility.yul\":138:147   */\n  dup3\n    /* \"#utility.yul\":129:136   */\n  dup5\n    /* \"#utility.yul\":125:148   */\n  sub\n    /* \"#utility.yul\":121:153   */\n  slt\n    /* \"#utility.yul\":118:170   */\n  iszero\n  tag_17\n  jumpi\n    /* \"#utility.yul\":166:167   */\n  0x00\n    /* \"#utility.yul\":163:164   */\n  dup1\n    /* \"#utility.yul\":156:168   */\n  revert\n    /* \"#utility.yul\":118:170   */\ntag_17:\n    /* \"#utility.yul\":192:208   */\n  dup2\n  mload\n  sub(shl(0xa0, 0x01), 0x01)\n    /* \"#utility.yul\":237:268   */\n  dup2\n  and\n    /* \"#utility.yul\":227:269   */\n  dup2\n  eq\n    /* \"#utility.yul\":217:287   */\n  tag_18\n  jumpi\n    /* \"#utility.yul\":283:284   */\n  0x00\n    /* \"#utility.yul\":280:281   */\n  dup1\n    /* \"#utility.yul\":273:285   */\n  revert\n    /* \"#utility.yul\":217:287   */\ntag_18:\n    /* \"#utility.yul\":306:311   */\n  swap4\n    /* \"#utility.yul\":14:317   */\n  swap3\n  pop\n  pop\n  pop\n  jump\t// out\ntag_15:\n    /* \"BCStaking.sol\":241:15442  contract BillionCashStaking is Ownable {... */\n  dataSize(sub_0)\n  dup1\n  dataOffset(sub_0)\n  0x00\n  codecopy\n  0x00\n  return\nstop\n\nsub_0: assembly {\n        /* \"BCStaking.sol\":241:15442  contract BillionCashStaking is Ownable {... */\n      mstore(0x40, 0x80)\n      callvalue\n      dup1\n      iszero\n      tag_1\n      jumpi\n      0x00\n      dup1\n      revert\n    tag_1:\n      pop\n      jumpi(tag_2, lt(calldatasize, 0x04))\n      shr(0xe0, calldataload(0x00))\n      dup1\n      0x8da5cb5b\n      gt\n      tag_29\n      jumpi\n      dup1\n      0xc8a22eb4\n      gt\n      tag_30\n      jumpi\n      dup1\n      0xe85abe09\n      gt\n      tag_31\n      jumpi\n      dup1\n      0xe85abe09\n      eq\n      tag_25\n      jumpi\n      dup1\n      0xf2fde38b\n      eq\n      tag_26\n      jumpi\n      dup1\n      0xf69e2046\n      eq\n      tag_27\n      jumpi\n      dup1\n      0xfb4cb32b\n      eq\n      tag_28\n      jumpi\n      0x00\n      dup1\n      revert\n    tag_31:\n      dup1\n      0xc8a22eb4\n      eq\n      tag_22\n      jumpi\n      dup1\n      0xd6343867\n      eq\n      tag_23\n      jumpi\n      dup1\n      0xd7ffca91\n      eq\n      tag_24\n      jumpi\n      0x00\n      dup1\n      revert\n    tag_30:\n      dup1\n      0x8da5cb5b\n      eq\n      tag_16\n      jumpi\n      dup1\n      0x9f8a13d7\n      eq\n      tag_17\n      jumpi\n      dup1\n      0xa8aeb6c2\n      eq\n      tag_18\n      jumpi\n      dup1\n      0xadc9772e\n      eq\n      tag_19\n      jumpi\n      dup1\n      0xbff1f9e1\n      eq\n      tag_20\n      jumpi\n      dup1\n      0xc0806b03\n      eq\n      tag_21\n      jumpi\n      0x00\n      dup1\n      revert\n    tag_29:\n      dup1\n      0x36144c9a\n      gt\n      tag_32\n      jumpi\n      dup1\n      0x4e71d92d\n      gt\n      tag_33\n      jumpi\n      dup1\n      0x4e71d92d\n      eq\n      tag_12\n      jumpi\n      dup1\n      0x715018a6\n      eq\n      tag_13\n      jumpi\n      dup1\n      0x7e3abeea\n      eq\n      tag_14\n      jumpi\n      dup1\n      0x817b1cd2\n      eq\n      tag_15\n      jumpi\n      0x00\n      dup1\n      revert\n    tag_33:\n      dup1\n      0x36144c9a\n      eq\n      tag_9\n      jumpi\n      dup1\n      0x44038f90\n      eq\n      tag_10\n      jumpi\n      dup1\n      0x4b319713\n      eq\n      tag_11\n      jumpi\n      0x00\n      dup1\n      revert\n    tag_32:\n      dup1\n      0x0104db1b\n      eq\n      tag_3\n      jumpi\n      dup1\n      0x01c234a8\n      eq\n      tag_4\n      jumpi\n      dup1\n      0x040a772e\n      eq\n      tag_5\n      jumpi\n      dup1\n      0x141a2a3f\n      eq\n      tag_6\n      jumpi\n      dup1\n      0x153ab9df\n      eq\n      tag_7\n      jumpi\n      dup1\n      0x32bc298c\n      eq\n      tag_8\n      jumpi\n    tag_2:\n      0x00\n      dup1\n      revert\n        /* \"BCStaking.sol\":529:578  uint256 public constant STAKING_PERIOD = 180 days */\n    tag_3:\n      tag_34\n        /* \"BCStaking.sol\":570:578  180 days */\n      0xed4e00\n        /* \"BCStaking.sol\":529:578  uint256 public constant STAKING_PERIOD = 180 days */\n      dup2\n      jump\n    tag_34:\n      mload(0x40)\n        /* \"#utility.yul\":160:185   */\n      swap1\n      dup2\n      mstore\n        /* \"#utility.yul\":148:150   */\n      0x20\n        /* \"#utility.yul\":133:151   */\n      add\n        /* \"BCStaking.sol\":529:578  uint256 public constant STAKING_PERIOD = 180 days */\n    tag_36:\n      mload(0x40)\n      dup1\n      swap2\n      sub\n      swap1\n      return\n        /* \"BCStaking.sol\":322:369  uint256 public constant PERCENTS_DIVIDER = 1000 */\n    tag_4:\n      tag_34\n        /* \"BCStaking.sol\":365:369  1000 */\n      0x03e8\n        /* \"BCStaking.sol\":322:369  uint256 public constant PERCENTS_DIVIDER = 1000 */\n      dup2\n      jump\n        /* \"BCStaking.sol\":10062:12512  function getUserDividends(address userAddress)... */\n    tag_5:\n      tag_34\n      tag_42\n      calldatasize\n      0x04\n      tag_43\n      jump\t// in\n    tag_42:\n      tag_44\n      jump\t// in\n        /* \"BCStaking.sol\":376:419  uint256 public constant PERCENTS_DAILY = 15 */\n    tag_6:\n      tag_34\n        /* \"BCStaking.sol\":417:419  15 */\n      0x0f\n        /* \"BCStaking.sol\":376:419  uint256 public constant PERCENTS_DAILY = 15 */\n      dup2\n      jump\n        /* \"BCStaking.sol\":13212:13460  function getUserAvailable(address userAddress)... */\n    tag_7:\n      tag_34\n      tag_50\n      calldatasize\n      0x04\n      tag_43\n      jump\t// in\n    tag_50:\n      tag_51\n      jump\t// in\n        /* \"BCStaking.sol\":480:522  uint256 public constant TIME_STEP = 1 days */\n    tag_8:\n      tag_34\n        /* \"BCStaking.sol\":516:522  1 days */\n      0x015180\n        /* \"BCStaking.sol\":480:522  uint256 public constant TIME_STEP = 1 days */\n      dup2\n      jump\n        /* \"BCStaking.sol\":12870:13031  function getUserReferrer(address userAddress)... */\n    tag_9:\n      tag_56\n      tag_57\n      calldatasize\n      0x04\n      tag_43\n      jump\t// in\n    tag_57:\n      sub(shl(0xa0, 0x01), 0x01)\n        /* \"BCStaking.sol\":12996:13014  users[userAddress] */\n      swap1\n      dup2\n      and\n        /* \"BCStaking.sol\":12964:12971  address */\n      0x00\n        /* \"BCStaking.sol\":12996:13014  users[userAddress] */\n      swap1\n      dup2\n      mstore\n        /* \"BCStaking.sol\":12996:13001  users */\n      0x06\n        /* \"BCStaking.sol\":12996:13014  users[userAddress] */\n      0x20\n      mstore\n      0x40\n      swap1\n      keccak256\n        /* \"BCStaking.sol\":12996:13023  users[userAddress].referrer */\n      0x04\n      add\n      sload\n      and\n      swap1\n        /* \"BCStaking.sol\":12870:13031  function getUserReferrer(address userAddress)... */\n      jump\n    tag_56:\n      mload(0x40)\n      sub(shl(0xa0, 0x01), 0x01)\n        /* \"#utility.yul\":729:761   */\n      swap1\n      swap2\n      and\n        /* \"#utility.yul\":711:762   */\n      dup2\n      mstore\n        /* \"#utility.yul\":699:701   */\n      0x20\n        /* \"#utility.yul\":684:702   */\n      add\n        /* \"BCStaking.sol\":12870:13031  function getUserReferrer(address userAddress)... */\n      tag_36\n        /* \"#utility.yul\":565:768   */\n      jump\n        /* \"BCStaking.sol\":426:473  uint256 public constant REFERRAL_PERCENTS = 120 */\n    tag_10:\n      tag_34\n        /* \"BCStaking.sol\":470:473  120 */\n      0x78\n        /* \"BCStaking.sol\":426:473  uint256 public constant REFERRAL_PERCENTS = 120 */\n      dup2\n      jump\n        /* \"BCStaking.sol\":669:698  uint256 public totalWithdrawn */\n    tag_11:\n      tag_34\n      sload(0x04)\n      dup2\n      jump\n        /* \"BCStaking.sol\":3552:6784  function claim() public {... */\n    tag_12:\n      tag_67\n      tag_68\n      jump\t// in\n    tag_67:\n      stop\n        /* \"@openzeppelin/contracts/access/Ownable.sol\":1668:1769  function renounceOwnership() public virtual onlyOwner {... */\n    tag_13:\n      tag_67\n      tag_70\n      jump\t// in\n        /* \"BCStaking.sol\":14713:15070  function getUserTotalDeposits(address userAddress)... */\n    tag_14:\n      tag_34\n      tag_72\n      calldatasize\n      0x04\n      tag_43\n      jump\t// in\n    tag_72:\n      tag_73\n      jump\t// in\n        /* \"BCStaking.sol\":636:662  uint256 public totalStaked */\n    tag_15:\n      tag_34\n      sload(0x03)\n      dup2\n      jump\n        /* \"@openzeppelin/contracts/access/Ownable.sol\":1036:1121  function owner() public view virtual returns (address) {... */\n    tag_16:\n        /* \"@openzeppelin/contracts/access/Ownable.sol\":1082:1089  address */\n      0x00\n        /* \"@openzeppelin/contracts/access/Ownable.sol\":1108:1114  _owner */\n      sload\n      sub(shl(0xa0, 0x01), 0x01)\n      and\n        /* \"@openzeppelin/contracts/access/Ownable.sol\":1036:1121  function owner() public view virtual returns (address) {... */\n      jump(tag_56)\n        /* \"BCStaking.sol\":13468:13974  function isActive(address userAddress) public view returns (bool) {... */\n    tag_17:\n      tag_81\n      tag_82\n      calldatasize\n      0x04\n      tag_43\n      jump\t// in\n    tag_82:\n      tag_83\n      jump\t// in\n    tag_81:\n      mload(0x40)\n        /* \"#utility.yul\":938:952   */\n      swap1\n      iszero\n        /* \"#utility.yul\":931:953   */\n      iszero\n        /* \"#utility.yul\":913:954   */\n      dup2\n      mstore\n        /* \"#utility.yul\":901:903   */\n      0x20\n        /* \"#utility.yul\":886:904   */\n      add\n        /* \"BCStaking.sol\":13468:13974  function isActive(address userAddress) public view returns (bool) {... */\n      tag_36\n        /* \"#utility.yul\":773:960   */\n      jump\n        /* \"BCStaking.sol\":14529:14705  function getUserAmountOfDeposits(address userAddress)... */\n    tag_18:\n      tag_34\n      tag_87\n      calldatasize\n      0x04\n      tag_43\n      jump\t// in\n    tag_87:\n      sub(shl(0xa0, 0x01), 0x01)\n        /* \"BCStaking.sol\":14663:14681  users[userAddress] */\n      and\n        /* \"BCStaking.sol\":14631:14638  uint256 */\n      0x00\n        /* \"BCStaking.sol\":14663:14681  users[userAddress] */\n      swap1\n      dup2\n      mstore\n        /* \"BCStaking.sol\":14663:14668  users */\n      0x06\n        /* \"BCStaking.sol\":14663:14681  users[userAddress] */\n      0x20\n      mstore\n      0x40\n      swap1\n      keccak256\n        /* \"BCStaking.sol\":14663:14697  users[userAddress].deposits.length */\n      sload\n      swap1\n        /* \"BCStaking.sol\":14529:14705  function getUserAmountOfDeposits(address userAddress)... */\n      jump\n        /* \"BCStaking.sol\":1693:3544  function stake(address referrer, uint256 amount) public {... */\n    tag_19:\n      tag_67\n      tag_91\n      calldatasize\n      0x04\n      tag_92\n      jump\t// in\n    tag_91:\n      tag_93\n      jump\t// in\n        /* \"BCStaking.sol\":604:629  uint256 public totalUsers */\n    tag_20:\n      tag_34\n      sload(0x02)\n      dup2\n      jump\n        /* \"BCStaking.sol\":13982:14521  function getUserDepositInfo(address userAddress, uint256 index)... */\n    tag_21:\n      tag_97\n      tag_98\n      calldatasize\n      0x04\n      tag_92\n      jump\t// in\n    tag_98:\n      tag_99\n      jump\t// in\n    tag_97:\n      0x40\n      dup1\n      mload\n        /* \"#utility.yul\":1477:1502   */\n      swap6\n      dup7\n      mstore\n        /* \"#utility.yul\":1533:1535   */\n      0x20\n        /* \"#utility.yul\":1518:1536   */\n      dup7\n      add\n        /* \"#utility.yul\":1511:1545   */\n      swap5\n      swap1\n      swap5\n      mstore\n        /* \"#utility.yul\":1561:1579   */\n      swap3\n      dup5\n      add\n        /* \"#utility.yul\":1554:1588   */\n      swap2\n      swap1\n      swap2\n      mstore\n        /* \"#utility.yul\":1619:1621   */\n      0x60\n        /* \"#utility.yul\":1604:1622   */\n      dup4\n      add\n        /* \"#utility.yul\":1597:1631   */\n      mstore\n        /* \"#utility.yul\":1675:1689   */\n      iszero\n        /* \"#utility.yul\":1668:1690   */\n      iszero\n        /* \"#utility.yul\":1662:1665   */\n      0x80\n        /* \"#utility.yul\":1647:1666   */\n      dup3\n      add\n        /* \"#utility.yul\":1640:1691   */\n      mstore\n        /* \"#utility.yul\":1464:1467   */\n      0xa0\n        /* \"#utility.yul\":1449:1468   */\n      add\n        /* \"BCStaking.sol\":13982:14521  function getUserDepositInfo(address userAddress, uint256 index)... */\n      tag_36\n        /* \"#utility.yul\":1224:1697   */\n      jump\n        /* \"BCStaking.sol\":12691:12862  function getUserReferralCount(address userAddress)... */\n    tag_22:\n      tag_34\n      tag_103\n      calldatasize\n      0x04\n      tag_43\n      jump\t// in\n    tag_103:\n      sub(shl(0xa0, 0x01), 0x01)\n        /* \"BCStaking.sol\":12822:12840  users[userAddress] */\n      and\n        /* \"BCStaking.sol\":12790:12797  uint256 */\n      0x00\n        /* \"BCStaking.sol\":12822:12840  users[userAddress] */\n      swap1\n      dup2\n      mstore\n        /* \"BCStaking.sol\":12822:12827  users */\n      0x06\n        /* \"BCStaking.sol\":12822:12840  users[userAddress] */\n      0x20\n      mstore\n      0x40\n      swap1\n      keccak256\n        /* \"BCStaking.sol\":12822:12854  users[userAddress].referralCount */\n      0x03\n      add\n      sload\n      swap1\n        /* \"BCStaking.sol\":12691:12862  function getUserReferralCount(address userAddress)... */\n      jump\n        /* \"BCStaking.sol\":705:737  uint256 public totalDepositCount */\n    tag_23:\n      tag_34\n      sload(0x05)\n      dup2\n      jump\n        /* \"BCStaking.sol\":13039:13204  function getUserCheckpoint(address userAddress)... */\n    tag_24:\n      tag_34\n      tag_110\n      calldatasize\n      0x04\n      tag_43\n      jump\t// in\n    tag_110:\n      sub(shl(0xa0, 0x01), 0x01)\n        /* \"BCStaking.sol\":13167:13185  users[userAddress] */\n      and\n        /* \"BCStaking.sol\":13135:13142  uint256 */\n      0x00\n        /* \"BCStaking.sol\":13167:13185  users[userAddress] */\n      swap1\n      dup2\n      mstore\n        /* \"BCStaking.sol\":13167:13172  users */\n      0x06\n        /* \"BCStaking.sol\":13167:13185  users[userAddress] */\n      0x20\n      mstore\n      0x40\n      swap1\n      keccak256\n        /* \"BCStaking.sol\":13167:13196  users[userAddress].checkpoint */\n      0x01\n      add\n      sload\n      swap1\n        /* \"BCStaking.sol\":13039:13204  function getUserCheckpoint(address userAddress)... */\n      jump\n        /* \"BCStaking.sol\":12520:12683  function getUserReferralBonus(address userAddress)... */\n    tag_25:\n      tag_34\n      tag_114\n      calldatasize\n      0x04\n      tag_43\n      jump\t// in\n    tag_114:\n      sub(shl(0xa0, 0x01), 0x01)\n        /* \"BCStaking.sol\":12651:12669  users[userAddress] */\n      and\n        /* \"BCStaking.sol\":12619:12626  uint256 */\n      0x00\n        /* \"BCStaking.sol\":12651:12669  users[userAddress] */\n      swap1\n      dup2\n      mstore\n        /* \"BCStaking.sol\":12651:12656  users */\n      0x06\n        /* \"BCStaking.sol\":12651:12669  users[userAddress] */\n      0x20\n      mstore\n      0x40\n      swap1\n      keccak256\n        /* \"BCStaking.sol\":12651:12675  users[userAddress].bonus */\n      0x02\n      add\n      sload\n      swap1\n        /* \"BCStaking.sol\":12520:12683  function getUserReferralBonus(address userAddress)... */\n      jump\n        /* \"@openzeppelin/contracts/access/Ownable.sol\":1918:2116  function transferOwnership(address newOwner) public virtual onlyOwner {... */\n    tag_26:\n      tag_67\n      tag_118\n      calldatasize\n      0x04\n      tag_43\n      jump\t// in\n    tag_118:\n      tag_119\n      jump\t// in\n        /* \"BCStaking.sol\":6792:10054  function compound() public onlyhodler {... */\n    tag_27:\n      tag_67\n      tag_121\n      jump\t// in\n        /* \"BCStaking.sol\":15078:15439  function getUserTotalWithdrawn(address userAddress)... */\n    tag_28:\n      tag_34\n      tag_123\n      calldatasize\n      0x04\n      tag_43\n      jump\t// in\n    tag_123:\n      tag_124\n      jump\t// in\n        /* \"BCStaking.sol\":10062:12512  function getUserDividends(address userAddress)... */\n    tag_44:\n      sub(shl(0xa0, 0x01), 0x01)\n        /* \"BCStaking.sol\":10202:10220  users[userAddress] */\n      dup2\n      and\n        /* \"BCStaking.sol\":10157:10164  uint256 */\n      0x00\n        /* \"BCStaking.sol\":10202:10220  users[userAddress] */\n      swap1\n      dup2\n      mstore\n        /* \"BCStaking.sol\":10202:10207  users */\n      0x06\n        /* \"BCStaking.sol\":10202:10220  users[userAddress] */\n      0x20\n      mstore\n      0x40\n      dup2\n      keccak256\n        /* \"BCStaking.sol\":10157:10164  uint256 */\n      dup2\n      dup1\n      dup1\n        /* \"BCStaking.sol\":10296:12471  for (uint256 i = 0; i < user.deposits.length; i++) {... */\n    tag_127:\n        /* \"BCStaking.sol\":10320:10340  user.deposits.length */\n      dup4\n      sload\n        /* \"BCStaking.sol\":10316:10340  i < user.deposits.length */\n      dup2\n      lt\n        /* \"BCStaking.sol\":10296:12471  for (uint256 i = 0; i < user.deposits.length; i++) {... */\n      iszero\n      tag_128\n      jumpi\n        /* \"BCStaking.sol\":10366:10370  user */\n      dup4\n        /* \"BCStaking.sol\":10366:10379  user.deposits */\n      0x00\n      add\n        /* \"BCStaking.sol\":10380:10381  i */\n      dup2\n        /* \"BCStaking.sol\":10366:10382  user.deposits[i] */\n      dup2\n      sload\n      dup2\n      lt\n      tag_131\n      jumpi\n      tag_131\n      tag_132\n      jump\t// in\n    tag_131:\n      0x00\n      swap2\n      dup3\n      mstore\n      0x20\n      swap1\n      swap2\n      keccak256\n        /* \"BCStaking.sol\":10366:10388  user.deposits[i].ended */\n      0x04\n        /* \"BCStaking.sol\":10366:10382  user.deposits[i] */\n      0x05\n      swap1\n      swap3\n      mul\n      add\n        /* \"BCStaking.sol\":10366:10388  user.deposits[i].ended */\n      add\n      sload\n      0xff\n      and\n        /* \"BCStaking.sol\":10362:12460  if (user.deposits[i].ended == false) {... */\n      tag_134\n      jumpi\n        /* \"BCStaking.sol\":10449:10464  block.timestamp */\n      timestamp\n        /* \"BCStaking.sol\":10422:10426  user */\n      dup5\n        /* \"BCStaking.sol\":10422:10435  user.deposits */\n      0x00\n      add\n        /* \"BCStaking.sol\":10436:10437  i */\n      dup3\n        /* \"BCStaking.sol\":10422:10438  user.deposits[i] */\n      dup2\n      sload\n      dup2\n      lt\n      tag_136\n      jumpi\n      tag_136\n      tag_132\n      jump\t// in\n    tag_136:\n      swap1\n      0x00\n      mstore\n      keccak256(0x00, 0x20)\n      swap1\n      0x05\n      mul\n      add\n        /* \"BCStaking.sol\":10422:10446  user.deposits[i].endTime */\n      0x03\n      add\n      sload\n        /* \"BCStaking.sol\":10422:10464  user.deposits[i].endTime > block.timestamp */\n      gt\n        /* \"BCStaking.sol\":10418:12380  if (user.deposits[i].endTime > block.timestamp) {... */\n      iszero\n      tag_138\n      jumpi\n        /* \"BCStaking.sol\":10522:10526  user */\n      dup4\n        /* \"BCStaking.sol\":10522:10537  user.checkpoint */\n      0x01\n      add\n      sload\n        /* \"BCStaking.sol\":10493:10497  user */\n      dup5\n        /* \"BCStaking.sol\":10493:10506  user.deposits */\n      0x00\n      add\n        /* \"BCStaking.sol\":10507:10508  i */\n      dup3\n        /* \"BCStaking.sol\":10493:10509  user.deposits[i] */\n      dup2\n      sload\n      dup2\n      lt\n      tag_140\n      jumpi\n      tag_140\n      tag_132\n      jump\t// in\n    tag_140:\n      swap1\n      0x00\n      mstore\n      keccak256(0x00, 0x20)\n      swap1\n      0x05\n      mul\n      add\n        /* \"BCStaking.sol\":10493:10519  user.deposits[i].startTime */\n      0x02\n      add\n      sload\n        /* \"BCStaking.sol\":10493:10537  user.deposits[i].startTime > user.checkpoint */\n      gt\n        /* \"BCStaking.sol\":10489:11358  if (user.deposits[i].startTime > user.checkpoint) {... */\n      iszero\n      tag_142\n      jumpi\n        /* \"BCStaking.sol\":10578:10957  (... */\n      tag_143\n        /* \"BCStaking.sol\":516:522  1 days */\n      0x015180\n        /* \"BCStaking.sol\":10578:10912  (... */\n      tag_151\n        /* \"BCStaking.sol\":10834:10881  block.timestamp.sub(user.deposits[i].startTime) */\n      tag_145\n        /* \"BCStaking.sol\":10854:10858  user */\n      dup8\n        /* \"BCStaking.sol\":10854:10867  user.deposits */\n      0x00\n      add\n        /* \"BCStaking.sol\":10868:10869  i */\n      dup6\n        /* \"BCStaking.sol\":10854:10870  user.deposits[i] */\n      dup2\n      sload\n      dup2\n      lt\n      tag_147\n      jumpi\n      tag_147\n      tag_132\n      jump\t// in\n    tag_147:\n      swap1\n      0x00\n      mstore\n      keccak256(0x00, 0x20)\n      swap1\n      0x05\n      mul\n      add\n        /* \"BCStaking.sol\":10854:10880  user.deposits[i].startTime */\n      0x02\n      add\n      sload\n        /* \"BCStaking.sol\":10834:10849  block.timestamp */\n      timestamp\n        /* \"BCStaking.sol\":10834:10853  block.timestamp.sub */\n      tag_149\n      swap1\n        /* \"BCStaking.sol\":10834:10881  block.timestamp.sub(user.deposits[i].startTime) */\n      swap2\n      swap1\n      0xffffffff\n      and\n      jump\t// in\n    tag_145:\n        /* \"BCStaking.sol\":10609:10738  user.deposits[i].amount.mul(PERCENTS_DAILY).div(... */\n      tag_150\n        /* \"BCStaking.sol\":365:369  1000 */\n      0x03e8\n        /* \"BCStaking.sol\":10609:10652  user.deposits[i].amount.mul(PERCENTS_DAILY) */\n      tag_151\n        /* \"BCStaking.sol\":417:419  15 */\n      0x0f\n        /* \"BCStaking.sol\":10609:10613  user */\n      dup12\n        /* \"BCStaking.sol\":10609:10622  user.deposits */\n      0x00\n      add\n        /* \"BCStaking.sol\":10623:10624  i */\n      dup10\n        /* \"BCStaking.sol\":10609:10625  user.deposits[i] */\n      dup2\n      sload\n      dup2\n      lt\n      tag_153\n      jumpi\n      tag_153\n      tag_132\n      jump\t// in\n    tag_153:\n      0x00\n      swap2\n      dup3\n      mstore\n      0x20\n      swap1\n      swap2\n      keccak256\n      0x05\n      swap1\n      swap2\n      mul\n      add\n        /* \"BCStaking.sol\":10609:10632  user.deposits[i].amount */\n      sload\n      swap1\n        /* \"BCStaking.sol\":10609:10636  user.deposits[i].amount.mul */\n      tag_155\n        /* \"BCStaking.sol\":10609:10652  user.deposits[i].amount.mul(PERCENTS_DAILY) */\n      jump\t// in\n    tag_151:\n        /* \"BCStaking.sol\":10609:10656  user.deposits[i].amount.mul(PERCENTS_DAILY).div */\n      swap1\n      tag_156\n        /* \"BCStaking.sol\":10609:10738  user.deposits[i].amount.mul(PERCENTS_DAILY).div(... */\n      jump\t// in\n    tag_150:\n        /* \"BCStaking.sol\":10578:10799  (... */\n      swap1\n      tag_155\n        /* \"BCStaking.sol\":10578:10912  (... */\n      jump\t// in\n        /* \"BCStaking.sol\":10578:10957  (... */\n    tag_143:\n        /* \"BCStaking.sol\":10566:10957  dividends = (... */\n      swap2\n      pop\n        /* \"BCStaking.sol\":10418:12380  if (user.deposits[i].endTime > block.timestamp) {... */\n      jump(tag_185)\n        /* \"BCStaking.sol\":10489:11358  if (user.deposits[i].startTime > user.checkpoint) {... */\n    tag_142:\n        /* \"BCStaking.sol\":11026:11334  (... */\n      tag_143\n        /* \"BCStaking.sol\":516:522  1 days */\n      0x015180\n        /* \"BCStaking.sol\":11026:11255  (... */\n      tag_151\n        /* \"BCStaking.sol\":11218:11254  block.timestamp.sub(user.checkpoint) */\n      tag_145\n        /* \"BCStaking.sol\":11238:11242  user */\n      dup8\n        /* \"BCStaking.sol\":11238:11253  user.checkpoint */\n      0x01\n      add\n      sload\n        /* \"BCStaking.sol\":11218:11233  block.timestamp */\n      timestamp\n        /* \"BCStaking.sol\":11218:11237  block.timestamp.sub */\n      tag_149\n      swap1\n        /* \"BCStaking.sol\":11218:11254  block.timestamp.sub(user.checkpoint) */\n      swap2\n      swap1\n      0xffffffff\n      and\n      jump\t// in\n        /* \"BCStaking.sol\":10418:12380  if (user.deposits[i].endTime > block.timestamp) {... */\n    tag_138:\n        /* \"BCStaking.sol\":11439:11443  user */\n      dup4\n        /* \"BCStaking.sol\":11439:11454  user.checkpoint */\n      0x01\n      add\n      sload\n        /* \"BCStaking.sol\":11410:11414  user */\n      dup5\n        /* \"BCStaking.sol\":11410:11423  user.deposits */\n      0x00\n      add\n        /* \"BCStaking.sol\":11424:11425  i */\n      dup3\n        /* \"BCStaking.sol\":11410:11426  user.deposits[i] */\n      dup2\n      sload\n      dup2\n      lt\n      tag_168\n      jumpi\n      tag_168\n      tag_132\n      jump\t// in\n    tag_168:\n      swap1\n      0x00\n      mstore\n      keccak256(0x00, 0x20)\n      swap1\n      0x05\n      mul\n      add\n        /* \"BCStaking.sol\":11410:11436  user.deposits[i].startTime */\n      0x02\n      add\n      sload\n        /* \"BCStaking.sol\":11410:11454  user.deposits[i].startTime > user.checkpoint */\n      gt\n        /* \"BCStaking.sol\":11406:12361  if (user.deposits[i].startTime > user.checkpoint) {... */\n      iszero\n      tag_170\n      jumpi\n        /* \"BCStaking.sol\":11495:11955  (... */\n      tag_143\n        /* \"BCStaking.sol\":516:522  1 days */\n      0x015180\n        /* \"BCStaking.sol\":11495:11910  (... */\n      tag_151\n        /* \"BCStaking.sol\":11751:11879  user.deposits[i].endTime.sub(... */\n      tag_145\n        /* \"BCStaking.sol\":11818:11822  user */\n      dup8\n        /* \"BCStaking.sol\":11818:11831  user.deposits */\n      0x00\n      add\n        /* \"BCStaking.sol\":11832:11833  i */\n      dup6\n        /* \"BCStaking.sol\":11818:11834  user.deposits[i] */\n      dup2\n      sload\n      dup2\n      lt\n      tag_175\n      jumpi\n      tag_175\n      tag_132\n      jump\t// in\n    tag_175:\n      swap1\n      0x00\n      mstore\n      keccak256(0x00, 0x20)\n      swap1\n      0x05\n      mul\n      add\n        /* \"BCStaking.sol\":11818:11844  user.deposits[i].startTime */\n      0x02\n      add\n      sload\n        /* \"BCStaking.sol\":11751:11755  user */\n      dup9\n        /* \"BCStaking.sol\":11751:11764  user.deposits */\n      0x00\n      add\n        /* \"BCStaking.sol\":11765:11766  i */\n      dup7\n        /* \"BCStaking.sol\":11751:11767  user.deposits[i] */\n      dup2\n      sload\n      dup2\n      lt\n      tag_178\n      jumpi\n      tag_178\n      tag_132\n      jump\t// in\n    tag_178:\n      swap1\n      0x00\n      mstore\n      keccak256(0x00, 0x20)\n      swap1\n      0x05\n      mul\n      add\n        /* \"BCStaking.sol\":11751:11775  user.deposits[i].endTime */\n      0x03\n      add\n      sload\n        /* \"BCStaking.sol\":11751:11779  user.deposits[i].endTime.sub */\n      tag_149\n      swap1\n        /* \"BCStaking.sol\":11751:11879  user.deposits[i].endTime.sub(... */\n      swap2\n      swap1\n      0xffffffff\n      and\n      jump\t// in\n        /* \"BCStaking.sol\":11406:12361  if (user.deposits[i].startTime > user.checkpoint) {... */\n    tag_170:\n        /* \"BCStaking.sol\":12024:12337  (... */\n      tag_186\n        /* \"BCStaking.sol\":516:522  1 days */\n      0x015180\n        /* \"BCStaking.sol\":12024:12292  (... */\n      tag_151\n        /* \"BCStaking.sol\":12246:12291  user.deposits[i].endTime.sub(user.checkpoint) */\n      tag_145\n        /* \"BCStaking.sol\":12275:12279  user */\n      dup8\n        /* \"BCStaking.sol\":12275:12290  user.checkpoint */\n      0x01\n      add\n      sload\n        /* \"BCStaking.sol\":12246:12250  user */\n      dup9\n        /* \"BCStaking.sol\":12246:12259  user.deposits */\n      0x00\n      add\n        /* \"BCStaking.sol\":12260:12261  i */\n      dup7\n        /* \"BCStaking.sol\":12246:12262  user.deposits[i] */\n      dup2\n      sload\n      dup2\n      lt\n      tag_178\n      jumpi\n      tag_178\n      tag_132\n      jump\t// in\n        /* \"BCStaking.sol\":12024:12337  (... */\n    tag_186:\n        /* \"BCStaking.sol\":12012:12337  dividends = (... */\n      swap2\n      pop\n        /* \"BCStaking.sol\":11406:12361  if (user.deposits[i].startTime > user.checkpoint) {... */\n    tag_185:\n        /* \"BCStaking.sol\":12415:12444  totalDividends.add(dividends) */\n      tag_197\n        /* \"BCStaking.sol\":12415:12429  totalDividends */\n      dup4\n        /* \"BCStaking.sol\":12434:12443  dividends */\n      dup4\n        /* \"BCStaking.sol\":12415:12433  totalDividends.add */\n      tag_198\n        /* \"BCStaking.sol\":12415:12444  totalDividends.add(dividends) */\n      jump\t// in\n    tag_197:\n        /* \"BCStaking.sol\":12398:12444  totalDividends = totalDividends.add(dividends) */\n      swap3\n      pop\n        /* \"BCStaking.sol\":10362:12460  if (user.deposits[i].ended == false) {... */\n    tag_134:\n        /* \"BCStaking.sol\":10342:10345  i++ */\n      dup1\n      tag_199\n      dup2\n      tag_200\n      jump\t// in\n    tag_199:\n      swap2\n      pop\n      pop\n        /* \"BCStaking.sol\":10296:12471  for (uint256 i = 0; i < user.deposits.length; i++) {... */\n      jump(tag_127)\n    tag_128:\n      pop\n        /* \"BCStaking.sol\":12490:12504  totalDividends */\n      swap1\n      swap5\n        /* \"BCStaking.sol\":10062:12512  function getUserDividends(address userAddress)... */\n      swap4\n      pop\n      pop\n      pop\n      pop\n      jump\t// out\n        /* \"BCStaking.sol\":13212:13460  function getUserAvailable(address userAddress)... */\n    tag_51:\n        /* \"BCStaking.sol\":13307:13314  uint256 */\n      0x00\n        /* \"BCStaking.sol\":13352:13452  getUserReferralBonus(userAddress).add(... */\n      tag_202\n        /* \"BCStaking.sol\":13408:13437  getUserDividends(userAddress) */\n      tag_203\n        /* \"BCStaking.sol\":13425:13436  userAddress */\n      dup4\n        /* \"BCStaking.sol\":13408:13424  getUserDividends */\n      tag_44\n        /* \"BCStaking.sol\":13408:13437  getUserDividends(userAddress) */\n      jump\t// in\n    tag_203:\n      sub(shl(0xa0, 0x01), 0x01)\n        /* \"BCStaking.sol\":12651:12669  users[userAddress] */\n      dup5\n      and\n        /* \"BCStaking.sol\":12619:12626  uint256 */\n      0x00\n        /* \"BCStaking.sol\":12651:12669  users[userAddress] */\n      swap1\n      dup2\n      mstore\n        /* \"BCStaking.sol\":12651:12656  users */\n      0x06\n        /* \"BCStaking.sol\":12651:12669  users[userAddress] */\n      0x20\n      mstore\n      0x40\n      swap1\n      keccak256\n        /* \"BCStaking.sol\":12651:12675  users[userAddress].bonus */\n      0x02\n      add\n      sload\n        /* \"BCStaking.sol\":13352:13389  getUserReferralBonus(userAddress).add */\n      swap1\n      tag_198\n        /* \"BCStaking.sol\":13352:13452  getUserReferralBonus(userAddress).add(... */\n      jump\t// in\n    tag_202:\n        /* \"BCStaking.sol\":13332:13452  return... */\n      swap3\n        /* \"BCStaking.sol\":13212:13460  function getUserAvailable(address userAddress)... */\n      swap2\n      pop\n      pop\n      jump\t// out\n        /* \"BCStaking.sol\":3552:6784  function claim() public {... */\n    tag_68:\n        /* \"BCStaking.sol\":3613:3623  msg.sender */\n      caller\n        /* \"BCStaking.sol\":3587:3604  User storage user */\n      0x00\n        /* \"BCStaking.sol\":3607:3624  users[msg.sender] */\n      swap1\n      dup2\n      mstore\n        /* \"BCStaking.sol\":3607:3612  users */\n      0x06\n        /* \"BCStaking.sol\":3607:3624  users[msg.sender] */\n      0x20\n      mstore\n      0x40\n      dup2\n      keccak256\n      swap1\n        /* \"BCStaking.sol\":3587:3604  User storage user */\n      dup1\n      dup1\n        /* \"BCStaking.sol\":3697:6138  for (uint256 i = 0; i < user.deposits.length; i++) {... */\n    tag_207:\n        /* \"BCStaking.sol\":3721:3741  user.deposits.length */\n      dup4\n      sload\n        /* \"BCStaking.sol\":3717:3741  i < user.deposits.length */\n      dup2\n      lt\n        /* \"BCStaking.sol\":3697:6138  for (uint256 i = 0; i < user.deposits.length; i++) {... */\n      iszero\n      tag_208\n      jumpi\n        /* \"BCStaking.sol\":3767:3771  user */\n      dup4\n        /* \"BCStaking.sol\":3767:3780  user.deposits */\n      0x00\n      add\n        /* \"BCStaking.sol\":3781:3782  i */\n      dup2\n        /* \"BCStaking.sol\":3767:3783  user.deposits[i] */\n      dup2\n      sload\n      dup2\n      lt\n      tag_211\n      jumpi\n      tag_211\n      tag_132\n      jump\t// in\n    tag_211:\n      0x00\n      swap2\n      dup3\n      mstore\n      0x20\n      swap1\n      swap2\n      keccak256\n        /* \"BCStaking.sol\":3767:3789  user.deposits[i].ended */\n      0x04\n        /* \"BCStaking.sol\":3767:3783  user.deposits[i] */\n      0x05\n      swap1\n      swap3\n      mul\n      add\n        /* \"BCStaking.sol\":3767:3789  user.deposits[i].ended */\n      add\n      sload\n      0xff\n      and\n        /* \"BCStaking.sol\":3763:6127  if (user.deposits[i].ended == false) {... */\n      tag_213\n      jumpi\n        /* \"BCStaking.sol\":3850:3865  block.timestamp */\n      timestamp\n        /* \"BCStaking.sol\":3823:3827  user */\n      dup5\n        /* \"BCStaking.sol\":3823:3836  user.deposits */\n      0x00\n      add\n        /* \"BCStaking.sol\":3837:3838  i */\n      dup3\n        /* \"BCStaking.sol\":3823:3839  user.deposits[i] */\n      dup2\n      sload\n      dup2\n      lt\n      tag_215\n      jumpi\n      tag_215\n      tag_132\n      jump\t// in\n    tag_215:\n      swap1\n      0x00\n      mstore\n      keccak256(0x00, 0x20)\n      swap1\n      0x05\n      mul\n      add\n        /* \"BCStaking.sol\":3823:3847  user.deposits[i].endTime */\n      0x03\n      add\n      sload\n        /* \"BCStaking.sol\":3823:3865  user.deposits[i].endTime > block.timestamp */\n      gt\n        /* \"BCStaking.sol\":3819:5893  if (user.deposits[i].endTime > block.timestamp) {... */\n      iszero\n      tag_217\n      jumpi\n        /* \"BCStaking.sol\":3923:3927  user */\n      dup4\n        /* \"BCStaking.sol\":3923:3938  user.checkpoint */\n      0x01\n      add\n      sload\n        /* \"BCStaking.sol\":3894:3898  user */\n      dup5\n        /* \"BCStaking.sol\":3894:3907  user.deposits */\n      0x00\n      add\n        /* \"BCStaking.sol\":3908:3909  i */\n      dup3\n        /* \"BCStaking.sol\":3894:3910  user.deposits[i] */\n      dup2\n      sload\n      dup2\n      lt\n      tag_219\n      jumpi\n      tag_219\n      tag_132\n      jump\t// in\n    tag_219:\n      swap1\n      0x00\n      mstore\n      keccak256(0x00, 0x20)\n      swap1\n      0x05\n      mul\n      add\n        /* \"BCStaking.sol\":3894:3920  user.deposits[i].startTime */\n      0x02\n      add\n      sload\n        /* \"BCStaking.sol\":3894:3938  user.deposits[i].startTime > user.checkpoint */\n      gt\n        /* \"BCStaking.sol\":3890:4759  if (user.deposits[i].startTime > user.checkpoint) {... */\n      iszero\n      tag_221\n      jumpi\n        /* \"BCStaking.sol\":3979:4358  (... */\n      tag_222\n        /* \"BCStaking.sol\":516:522  1 days */\n      0x015180\n        /* \"BCStaking.sol\":3979:4313  (... */\n      tag_151\n        /* \"BCStaking.sol\":4235:4282  block.timestamp.sub(user.deposits[i].startTime) */\n      tag_145\n        /* \"BCStaking.sol\":4255:4259  user */\n      dup8\n        /* \"BCStaking.sol\":4255:4268  user.deposits */\n      0x00\n      add\n        /* \"BCStaking.sol\":4269:4270  i */\n      dup6\n        /* \"BCStaking.sol\":4255:4271  user.deposits[i] */\n      dup2\n      sload\n      dup2\n      lt\n      tag_147\n      jumpi\n      tag_147\n      tag_132\n      jump\t// in\n        /* \"BCStaking.sol\":3979:4358  (... */\n    tag_222:\n        /* \"BCStaking.sol\":3967:4358  dividends = (... */\n      swap2\n      pop\n        /* \"BCStaking.sol\":3819:5893  if (user.deposits[i].endTime > block.timestamp) {... */\n      jump(tag_264)\n        /* \"BCStaking.sol\":3890:4759  if (user.deposits[i].startTime > user.checkpoint) {... */\n    tag_221:\n        /* \"BCStaking.sol\":4427:4735  (... */\n      tag_222\n        /* \"BCStaking.sol\":516:522  1 days */\n      0x015180\n        /* \"BCStaking.sol\":4427:4656  (... */\n      tag_151\n        /* \"BCStaking.sol\":4619:4655  block.timestamp.sub(user.checkpoint) */\n      tag_145\n        /* \"BCStaking.sol\":4639:4643  user */\n      dup8\n        /* \"BCStaking.sol\":4639:4654  user.checkpoint */\n      0x01\n      add\n      sload\n        /* \"BCStaking.sol\":4619:4634  block.timestamp */\n      timestamp\n        /* \"BCStaking.sol\":4619:4638  block.timestamp.sub */\n      tag_149\n      swap1\n        /* \"BCStaking.sol\":4619:4655  block.timestamp.sub(user.checkpoint) */\n      swap2\n      swap1\n      0xffffffff\n      and\n      jump\t// in\n        /* \"BCStaking.sol\":3819:5893  if (user.deposits[i].endTime > block.timestamp) {... */\n    tag_217:\n        /* \"BCStaking.sol\":4840:4844  user */\n      dup4\n        /* \"BCStaking.sol\":4840:4855  user.checkpoint */\n      0x01\n      add\n      sload\n        /* \"BCStaking.sol\":4811:4815  user */\n      dup5\n        /* \"BCStaking.sol\":4811:4824  user.deposits */\n      0x00\n      add\n        /* \"BCStaking.sol\":4825:4826  i */\n      dup3\n        /* \"BCStaking.sol\":4811:4827  user.deposits[i] */\n      dup2\n      sload\n      dup2\n      lt\n      tag_244\n      jumpi\n      tag_244\n      tag_132\n      jump\t// in\n    tag_244:\n      swap1\n      0x00\n      mstore\n      keccak256(0x00, 0x20)\n      swap1\n      0x05\n      mul\n      add\n        /* \"BCStaking.sol\":4811:4837  user.deposits[i].startTime */\n      0x02\n      add\n      sload\n        /* \"BCStaking.sol\":4811:4855  user.deposits[i].startTime > user.checkpoint */\n      gt\n        /* \"BCStaking.sol\":4807:5874  if (user.deposits[i].startTime > user.checkpoint) {... */\n      iszero\n      tag_246\n      jumpi\n        /* \"BCStaking.sol\":4896:5356  (... */\n      tag_247\n        /* \"BCStaking.sol\":516:522  1 days */\n      0x015180\n        /* \"BCStaking.sol\":4896:5311  (... */\n      tag_151\n        /* \"BCStaking.sol\":5152:5280  user.deposits[i].endTime.sub(... */\n      tag_145\n        /* \"BCStaking.sol\":5219:5223  user */\n      dup8\n        /* \"BCStaking.sol\":5219:5232  user.deposits */\n      0x00\n      add\n        /* \"BCStaking.sol\":5233:5234  i */\n      dup6\n        /* \"BCStaking.sol\":5219:5235  user.deposits[i] */\n      dup2\n      sload\n      dup2\n      lt\n      tag_175\n      jumpi\n      tag_175\n      tag_132\n      jump\t// in\n        /* \"BCStaking.sol\":4896:5356  (... */\n    tag_247:\n        /* \"BCStaking.sol\":4884:5356  dividends = (... */\n      swap2\n      pop\n        /* \"BCStaking.sol\":5408:5412  true */\n      0x01\n        /* \"BCStaking.sol\":5383:5387  user */\n      dup5\n        /* \"BCStaking.sol\":5383:5396  user.deposits */\n      0x00\n      add\n        /* \"BCStaking.sol\":5397:5398  i */\n      dup3\n        /* \"BCStaking.sol\":5383:5399  user.deposits[i] */\n      dup2\n      sload\n      dup2\n      lt\n      tag_262\n      jumpi\n      tag_262\n      tag_132\n      jump\t// in\n    tag_262:\n      0x00\n      swap2\n      dup3\n      mstore\n      0x20\n      swap1\n      swap2\n      keccak256\n      0x05\n      swap1\n      swap2\n      mul\n      add\n        /* \"BCStaking.sol\":5383:5405  user.deposits[i].ended */\n      0x04\n      add\n        /* \"BCStaking.sol\":5383:5412  user.deposits[i].ended = true */\n      dup1\n      sload\n      not(0xff)\n      and\n      swap2\n      iszero\n      iszero\n      swap2\n      swap1\n      swap2\n      or\n      swap1\n      sstore\n        /* \"BCStaking.sol\":4807:5874  if (user.deposits[i].startTime > user.checkpoint) {... */\n      jump(tag_264)\n    tag_246:\n        /* \"BCStaking.sol\":5481:5794  (... */\n      tag_265\n        /* \"BCStaking.sol\":516:522  1 days */\n      0x015180\n        /* \"BCStaking.sol\":5481:5749  (... */\n      tag_151\n        /* \"BCStaking.sol\":5703:5748  user.deposits[i].endTime.sub(user.checkpoint) */\n      tag_145\n        /* \"BCStaking.sol\":5732:5736  user */\n      dup8\n        /* \"BCStaking.sol\":5732:5747  user.checkpoint */\n      0x01\n      add\n      sload\n        /* \"BCStaking.sol\":5703:5707  user */\n      dup9\n        /* \"BCStaking.sol\":5703:5716  user.deposits */\n      0x00\n      add\n        /* \"BCStaking.sol\":5717:5718  i */\n      dup7\n        /* \"BCStaking.sol\":5703:5719  user.deposits[i] */\n      dup2\n      sload\n      dup2\n      lt\n      tag_178\n      jumpi\n      tag_178\n      tag_132\n      jump\t// in\n        /* \"BCStaking.sol\":5481:5794  (... */\n    tag_265:\n        /* \"BCStaking.sol\":5469:5794  dividends = (... */\n      swap2\n      pop\n        /* \"BCStaking.sol\":5846:5850  true */\n      0x01\n        /* \"BCStaking.sol\":5821:5825  user */\n      dup5\n        /* \"BCStaking.sol\":5821:5834  user.deposits */\n      0x00\n      add\n        /* \"BCStaking.sol\":5835:5836  i */\n      dup3\n        /* \"BCStaking.sol\":5821:5837  user.deposits[i] */\n      dup2\n      sload\n      dup2\n      lt\n      tag_277\n      jumpi\n      tag_277\n      tag_132\n      jump\t// in\n    tag_277:\n      0x00\n      swap2\n      dup3\n      mstore\n      0x20\n      swap1\n      swap2\n      keccak256\n      0x05\n      swap1\n      swap2\n      mul\n      add\n        /* \"BCStaking.sol\":5821:5843  user.deposits[i].ended */\n      0x04\n      add\n        /* \"BCStaking.sol\":5821:5850  user.deposits[i].ended = true */\n      dup1\n      sload\n      not(0xff)\n      and\n      swap2\n      iszero\n      iszero\n      swap2\n      swap1\n      swap2\n      or\n      swap1\n      sstore\n        /* \"BCStaking.sol\":4807:5874  if (user.deposits[i].startTime > user.checkpoint) {... */\n    tag_264:\n        /* \"BCStaking.sol\":5942:6023  user.deposits[i].withdrawn.add(... */\n      tag_279\n        /* \"BCStaking.sol\":5995:6004  dividends */\n      dup3\n        /* \"BCStaking.sol\":5942:5946  user */\n      dup6\n        /* \"BCStaking.sol\":5942:5955  user.deposits */\n      0x00\n      add\n        /* \"BCStaking.sol\":5956:5957  i */\n      dup4\n        /* \"BCStaking.sol\":5942:5958  user.deposits[i] */\n      dup2\n      sload\n      dup2\n      lt\n      tag_281\n      jumpi\n      tag_281\n      tag_132\n      jump\t// in\n    tag_281:\n      swap1\n      0x00\n      mstore\n      keccak256(0x00, 0x20)\n      swap1\n      0x05\n      mul\n      add\n        /* \"BCStaking.sol\":5942:5968  user.deposits[i].withdrawn */\n      0x01\n      add\n      sload\n        /* \"BCStaking.sol\":5942:5972  user.deposits[i].withdrawn.add */\n      tag_198\n      swap1\n        /* \"BCStaking.sol\":5942:6023  user.deposits[i].withdrawn.add(... */\n      swap2\n      swap1\n      0xffffffff\n      and\n      jump\t// in\n    tag_279:\n        /* \"BCStaking.sol\":5913:5917  user */\n      dup5\n        /* \"BCStaking.sol\":5913:5926  user.deposits */\n      0x00\n      add\n        /* \"BCStaking.sol\":5927:5928  i */\n      dup3\n        /* \"BCStaking.sol\":5913:5929  user.deposits[i] */\n      dup2\n      sload\n      dup2\n      lt\n      tag_284\n      jumpi\n      tag_284\n      tag_132\n      jump\t// in\n    tag_284:\n      0x00\n      swap2\n      dup3\n      mstore\n      0x20\n      swap1\n      swap2\n      keccak256\n        /* \"BCStaking.sol\":5913:5939  user.deposits[i].withdrawn */\n      0x01\n        /* \"BCStaking.sol\":5913:5929  user.deposits[i] */\n      0x05\n      swap1\n      swap3\n      mul\n      add\n        /* \"BCStaking.sol\":5913:5939  user.deposits[i].withdrawn */\n      add\n        /* \"BCStaking.sol\":5913:6023  user.deposits[i].withdrawn = user.deposits[i].withdrawn.add(... */\n      sstore\n        /* \"BCStaking.sol\":6085:6111  totalAmount.add(dividends) */\n      tag_286\n        /* \"BCStaking.sol\":6085:6096  totalAmount */\n      dup4\n        /* \"BCStaking.sol\":6101:6110  dividends */\n      dup4\n        /* \"BCStaking.sol\":6085:6100  totalAmount.add */\n      tag_198\n        /* \"BCStaking.sol\":6085:6111  totalAmount.add(dividends) */\n      jump\t// in\n    tag_286:\n        /* \"BCStaking.sol\":6071:6111  totalAmount = totalAmount.add(dividends) */\n      swap3\n      pop\n        /* \"BCStaking.sol\":3763:6127  if (user.deposits[i].ended == false) {... */\n    tag_213:\n        /* \"BCStaking.sol\":3743:3746  i++ */\n      dup1\n      tag_287\n      dup2\n      tag_200\n      jump\t// in\n    tag_287:\n      swap2\n      pop\n      pop\n        /* \"BCStaking.sol\":3697:6138  for (uint256 i = 0; i < user.deposits.length; i++) {... */\n      jump(tag_207)\n    tag_208:\n      pop\n        /* \"BCStaking.sol\":6195:6205  msg.sender */\n      caller\n        /* \"BCStaking.sol\":6150:6171  uint256 referralBonus */\n      0x00\n        /* \"BCStaking.sol\":12651:12669  users[userAddress] */\n      swap1\n      dup2\n      mstore\n        /* \"BCStaking.sol\":12651:12656  users */\n      0x06\n        /* \"BCStaking.sol\":12651:12669  users[userAddress] */\n      0x20\n      mstore\n      0x40\n      swap1\n      keccak256\n        /* \"BCStaking.sol\":12651:12675  users[userAddress].bonus */\n      0x02\n      add\n      sload\n        /* \"BCStaking.sol\":6221:6238  referralBonus > 0 */\n      dup1\n      iszero\n        /* \"BCStaking.sol\":6217:6340  if (referralBonus > 0) {... */\n      tag_289\n      jumpi\n        /* \"BCStaking.sol\":6269:6299  totalAmount.add(referralBonus) */\n      tag_290\n        /* \"BCStaking.sol\":6269:6280  totalAmount */\n      dup4\n        /* \"BCStaking.sol\":6285:6298  referralBonus */\n      dup3\n        /* \"BCStaking.sol\":6269:6284  totalAmount.add */\n      tag_198\n        /* \"BCStaking.sol\":6269:6299  totalAmount.add(referralBonus) */\n      jump\t// in\n    tag_290:\n        /* \"BCStaking.sol\":6327:6328  0 */\n      0x00\n        /* \"BCStaking.sol\":6314:6324  user.bonus */\n      0x02\n      dup7\n      add\n        /* \"BCStaking.sol\":6314:6328  user.bonus = 0 */\n      sstore\n        /* \"BCStaking.sol\":6255:6299  totalAmount = totalAmount.add(referralBonus) */\n      swap3\n      pop\n        /* \"BCStaking.sol\":6217:6340  if (referralBonus > 0) {... */\n    tag_289:\n        /* \"BCStaking.sol\":6374:6375  0 */\n      0x00\n        /* \"BCStaking.sol\":6360:6371  totalAmount */\n      dup4\n        /* \"BCStaking.sol\":6360:6375  totalAmount > 0 */\n      gt\n        /* \"BCStaking.sol\":6352:6401  require(totalAmount > 0, \"User has no dividends\") */\n      tag_291\n      jumpi\n      mload(0x40)\n      shl(0xe5, 0x461bcd)\n      dup2\n      mstore\n        /* \"#utility.yul\":2308:2310   */\n      0x20\n        /* \"BCStaking.sol\":6352:6401  require(totalAmount > 0, \"User has no dividends\") */\n      0x04\n      dup3\n      add\n        /* \"#utility.yul\":2290:2311   */\n      mstore\n        /* \"#utility.yul\":2347:2349   */\n      0x15\n        /* \"#utility.yul\":2327:2345   */\n      0x24\n      dup3\n      add\n        /* \"#utility.yul\":2320:2350   */\n      mstore\n      shl(0x58, 0x5573657220686173206e6f206469766964656e6473)\n        /* \"#utility.yul\":2366:2384   */\n      0x44\n      dup3\n      add\n        /* \"#utility.yul\":2359:2410   */\n      mstore\n        /* \"#utility.yul\":2427:2445   */\n      0x64\n      add\n        /* \"BCStaking.sol\":6352:6401  require(totalAmount > 0, \"User has no dividends\") */\n    tag_292:\n      mload(0x40)\n      dup1\n      swap2\n      sub\n      swap1\n      revert\n    tag_291:\n        /* \"BCStaking.sol\":6440:6442  BC */\n      sload(0x01)\n        /* \"BCStaking.sol\":6440:6467  BC.balanceOf(address(this)) */\n      mload(0x40)\n      shl(0xe0, 0x70a08231)\n      dup2\n      mstore\n        /* \"BCStaking.sol\":6461:6465  this */\n      address\n        /* \"BCStaking.sol\":6440:6467  BC.balanceOf(address(this)) */\n      0x04\n      dup3\n      add\n        /* \"#utility.yul\":711:762   */\n      mstore\n        /* \"BCStaking.sol\":6414:6437  uint256 contractBalance */\n      0x00\n      swap2\n      sub(shl(0xa0, 0x01), 0x01)\n        /* \"BCStaking.sol\":6440:6442  BC */\n      and\n      swap1\n        /* \"BCStaking.sol\":6440:6452  BC.balanceOf */\n      0x70a08231\n      swap1\n        /* \"#utility.yul\":684:702   */\n      0x24\n      add\n        /* \"BCStaking.sol\":6440:6467  BC.balanceOf(address(this)) */\n      0x20\n      mload(0x40)\n      dup1\n      dup4\n      sub\n      dup2\n      dup7\n      gas\n      staticcall\n      iszero\n      dup1\n      iszero\n      tag_296\n      jumpi\n      returndatasize\n      0x00\n      dup1\n      returndatacopy\n      revert(0x00, returndatasize)\n    tag_296:\n      pop\n      pop\n      pop\n      pop\n      mload(0x40)\n      returndatasize\n      not(0x1f)\n      0x1f\n      dup3\n      add\n      and\n      dup3\n      add\n      dup1\n      0x40\n      mstore\n      pop\n      dup2\n      add\n      swap1\n      tag_297\n      swap2\n      swap1\n      tag_298\n      jump\t// in\n    tag_297:\n        /* \"BCStaking.sol\":6414:6467  uint256 contractBalance = BC.balanceOf(address(this)) */\n      swap1\n      pop\n        /* \"BCStaking.sol\":6500:6511  totalAmount */\n      dup4\n        /* \"BCStaking.sol\":6482:6497  contractBalance */\n      dup2\n        /* \"BCStaking.sol\":6482:6511  contractBalance < totalAmount */\n      lt\n        /* \"BCStaking.sol\":6478:6569  if (contractBalance < totalAmount) {... */\n      iszero\n      tag_299\n      jumpi\n        /* \"BCStaking.sol\":6542:6557  contractBalance */\n      dup1\n        /* \"BCStaking.sol\":6528:6557  totalAmount = contractBalance */\n      swap4\n      pop\n        /* \"BCStaking.sol\":6478:6569  if (contractBalance < totalAmount) {... */\n    tag_299:\n        /* \"BCStaking.sol\":6599:6614  block.timestamp */\n      timestamp\n        /* \"BCStaking.sol\":6581:6596  user.checkpoint */\n      0x01\n      dup7\n      dup2\n      add\n        /* \"BCStaking.sol\":6581:6614  user.checkpoint = block.timestamp */\n      swap2\n      swap1\n      swap2\n      sstore\n        /* \"BCStaking.sol\":6627:6629  BC */\n      sload\n        /* \"BCStaking.sol\":6627:6663  BC.transfer(msg.sender, totalAmount) */\n      mload(0x40)\n      shl(0xe0, 0xa9059cbb)\n      dup2\n      mstore\n        /* \"BCStaking.sol\":6639:6649  msg.sender */\n      caller\n        /* \"BCStaking.sol\":6627:6663  BC.transfer(msg.sender, totalAmount) */\n      0x04\n      dup3\n      add\n        /* \"#utility.yul\":2819:2870   */\n      mstore\n        /* \"#utility.yul\":2886:2904   */\n      0x24\n      dup2\n      add\n        /* \"#utility.yul\":2879:2913   */\n      dup7\n      swap1\n      mstore\n      sub(shl(0xa0, 0x01), 0x01)\n        /* \"BCStaking.sol\":6627:6629  BC */\n      swap1\n      swap2\n      and\n      swap1\n        /* \"BCStaking.sol\":6627:6638  BC.transfer */\n      0xa9059cbb\n      swap1\n        /* \"#utility.yul\":2792:2810   */\n      0x44\n      add\n        /* \"BCStaking.sol\":6627:6663  BC.transfer(msg.sender, totalAmount) */\n      0x20\n      mload(0x40)\n      dup1\n      dup4\n      sub\n      dup2\n      0x00\n      dup8\n      gas\n      call\n      iszero\n      dup1\n      iszero\n      tag_303\n      jumpi\n      returndatasize\n      0x00\n      dup1\n      returndatacopy\n      revert(0x00, returndatasize)\n    tag_303:\n      pop\n      pop\n      pop\n      pop\n      mload(0x40)\n      returndatasize\n      not(0x1f)\n      0x1f\n      dup3\n      add\n      and\n      dup3\n      add\n      dup1\n      0x40\n      mstore\n      pop\n      dup2\n      add\n      swap1\n      tag_304\n      swap2\n      swap1\n      tag_305\n      jump\t// in\n    tag_304:\n      pop\n        /* \"BCStaking.sol\":6693:6707  totalWithdrawn */\n      sload(0x04)\n        /* \"BCStaking.sol\":6693:6724  totalWithdrawn.add(totalAmount) */\n      tag_306\n      swap1\n        /* \"BCStaking.sol\":6712:6723  totalAmount */\n      dup6\n        /* \"BCStaking.sol\":6693:6711  totalWithdrawn.add */\n      tag_198\n        /* \"BCStaking.sol\":6693:6724  totalWithdrawn.add(totalAmount) */\n      jump\t// in\n    tag_306:\n        /* \"BCStaking.sol\":6676:6690  totalWithdrawn */\n      0x04\n        /* \"BCStaking.sol\":6676:6724  totalWithdrawn = totalWithdrawn.add(totalAmount) */\n      sstore\n        /* \"BCStaking.sol\":6742:6776  Withdrawn(msg.sender, totalAmount) */\n      mload(0x40)\n        /* \"#utility.yul\":160:185   */\n      dup5\n      dup2\n      mstore\n        /* \"BCStaking.sol\":6752:6762  msg.sender */\n      caller\n      swap1\n        /* \"BCStaking.sol\":6742:6776  Withdrawn(msg.sender, totalAmount) */\n      0x7084f5476618d8e60b11ef0d7d3f06914655adb8793e28ff7f018d4c76d505d5\n      swap1\n        /* \"#utility.yul\":148:150   */\n      0x20\n        /* \"#utility.yul\":133:151   */\n      add\n        /* \"BCStaking.sol\":6742:6776  Withdrawn(msg.sender, totalAmount) */\n      mload(0x40)\n      dup1\n      swap2\n      sub\n      swap1\n      log2\n        /* \"BCStaking.sol\":3576:6784  {... */\n      pop\n      pop\n      pop\n      pop\n      pop\n        /* \"BCStaking.sol\":3552:6784  function claim() public {... */\n      jump\t// out\n        /* \"@openzeppelin/contracts/access/Ownable.sol\":1668:1769  function renounceOwnership() public virtual onlyOwner {... */\n    tag_70:\n        /* \"@openzeppelin/contracts/access/Ownable.sol\":1082:1089  address */\n      0x00\n        /* \"@openzeppelin/contracts/access/Ownable.sol\":1108:1114  _owner */\n      sload\n      sub(shl(0xa0, 0x01), 0x01)\n      and\n        /* \"@openzeppelin/contracts/utils/Context.sol\":719:729  msg.sender */\n      caller\n        /* \"@openzeppelin/contracts/access/Ownable.sol\":1248:1271  owner() == _msgSender() */\n      eq\n        /* \"@openzeppelin/contracts/access/Ownable.sol\":1240:1308  require(owner() == _msgSender(), \"Ownable: caller is not the owner\") */\n      tag_312\n      jumpi\n      mload(0x40)\n      shl(0xe5, 0x461bcd)\n      dup2\n      mstore\n        /* \"#utility.yul\":3408:3410   */\n      0x20\n        /* \"@openzeppelin/contracts/access/Ownable.sol\":1240:1308  require(owner() == _msgSender(), \"Ownable: caller is not the owner\") */\n      0x04\n      dup3\n      add\n        /* \"#utility.yul\":3390:3411   */\n      dup2\n      swap1\n      mstore\n        /* \"#utility.yul\":3427:3445   */\n      0x24\n      dup3\n      add\n        /* \"#utility.yul\":3420:3450   */\n      mstore\n        /* \"#utility.yul\":3486:3520   */\n      0x4f776e61626c653a2063616c6c6572206973206e6f7420746865206f776e6572\n        /* \"#utility.yul\":3466:3484   */\n      0x44\n      dup3\n      add\n        /* \"#utility.yul\":3459:3521   */\n      mstore\n        /* \"#utility.yul\":3538:3556   */\n      0x64\n      add\n        /* \"@openzeppelin/contracts/access/Ownable.sol\":1240:1308  require(owner() == _msgSender(), \"Ownable: caller is not the owner\") */\n      tag_292\n        /* \"#utility.yul\":3206:3562   */\n      jump\n        /* \"@openzeppelin/contracts/access/Ownable.sol\":1240:1308  require(owner() == _msgSender(), \"Ownable: caller is not the owner\") */\n    tag_312:\n        /* \"@openzeppelin/contracts/access/Ownable.sol\":1732:1762  _transferOwnership(address(0)) */\n      tag_316\n        /* \"@openzeppelin/contracts/access/Ownable.sol\":1759:1760  0 */\n      0x00\n        /* \"@openzeppelin/contracts/access/Ownable.sol\":1732:1750  _transferOwnership */\n      tag_317\n        /* \"@openzeppelin/contracts/access/Ownable.sol\":1732:1762  _transferOwnership(address(0)) */\n      jump\t// in\n    tag_316:\n        /* \"@openzeppelin/contracts/access/Ownable.sol\":1668:1769  function renounceOwnership() public virtual onlyOwner {... */\n      jump\t// out\n        /* \"BCStaking.sol\":14713:15070  function getUserTotalDeposits(address userAddress)... */\n    tag_73:\n      sub(shl(0xa0, 0x01), 0x01)\n        /* \"BCStaking.sol\":14857:14875  users[userAddress] */\n      dup2\n      and\n        /* \"BCStaking.sol\":14812:14819  uint256 */\n      0x00\n        /* \"BCStaking.sol\":14857:14875  users[userAddress] */\n      swap1\n      dup2\n      mstore\n        /* \"BCStaking.sol\":14857:14862  users */\n      0x06\n        /* \"BCStaking.sol\":14857:14875  users[userAddress] */\n      0x20\n      mstore\n      0x40\n      dup2\n      keccak256\n        /* \"BCStaking.sol\":14812:14819  uint256 */\n      dup2\n      dup1\n        /* \"BCStaking.sol\":14915:15037  for (uint256 i = 0; i < user.deposits.length; i++) {... */\n    tag_319:\n        /* \"BCStaking.sol\":14939:14959  user.deposits.length */\n      dup3\n      sload\n        /* \"BCStaking.sol\":14935:14959  i < user.deposits.length */\n      dup2\n      lt\n        /* \"BCStaking.sol\":14915:15037  for (uint256 i = 0; i < user.deposits.length; i++) {... */\n      iszero\n      tag_320\n      jumpi\n        /* \"BCStaking.sol\":14990:15025  amount.add(user.deposits[i].amount) */\n      tag_322\n        /* \"BCStaking.sol\":15001:15005  user */\n      dup4\n        /* \"BCStaking.sol\":15001:15014  user.deposits */\n      0x00\n      add\n        /* \"BCStaking.sol\":15015:15016  i */\n      dup3\n        /* \"BCStaking.sol\":15001:15017  user.deposits[i] */\n      dup2\n      sload\n      dup2\n      lt\n      tag_324\n      jumpi\n      tag_324\n      tag_132\n      jump\t// in\n    tag_324:\n      0x00\n      swap2\n      dup3\n      mstore\n      0x20\n      swap1\n      swap2\n      keccak256\n      0x05\n      swap1\n      swap2\n      mul\n      add\n        /* \"BCStaking.sol\":15001:15024  user.deposits[i].amount */\n      sload\n        /* \"BCStaking.sol\":14990:14996  amount */\n      dup4\n      swap1\n        /* \"BCStaking.sol\":14990:15000  amount.add */\n      tag_198\n        /* \"BCStaking.sol\":14990:15025  amount.add(user.deposits[i].amount) */\n      jump\t// in\n    tag_322:\n        /* \"BCStaking.sol\":14981:15025  amount = amount.add(user.deposits[i].amount) */\n      swap2\n      pop\n        /* \"BCStaking.sol\":14961:14964  i++ */\n      dup1\n      tag_326\n      dup2\n      tag_200\n      jump\t// in\n    tag_326:\n      swap2\n      pop\n      pop\n        /* \"BCStaking.sol\":14915:15037  for (uint256 i = 0; i < user.deposits.length; i++) {... */\n      jump(tag_319)\n    tag_320:\n      pop\n        /* \"BCStaking.sol\":15056:15062  amount */\n      swap4\n        /* \"BCStaking.sol\":14713:15070  function getUserTotalDeposits(address userAddress)... */\n      swap3\n      pop\n      pop\n      pop\n      jump\t// out\n        /* \"BCStaking.sol\":13468:13974  function isActive(address userAddress) public view returns (bool) {... */\n    tag_83:\n      sub(shl(0xa0, 0x01), 0x01)\n        /* \"BCStaking.sol\":13565:13583  users[userAddress] */\n      dup2\n      and\n        /* \"BCStaking.sol\":13528:13532  bool */\n      0x00\n        /* \"BCStaking.sol\":13565:13583  users[userAddress] */\n      swap1\n      dup2\n      mstore\n        /* \"BCStaking.sol\":13565:13570  users */\n      0x06\n        /* \"BCStaking.sol\":13565:13583  users[userAddress] */\n      0x20\n      mstore\n      0x40\n      dup2\n      keccak256\n        /* \"BCStaking.sol\":13600:13620  user.deposits.length */\n      dup1\n      sload\n        /* \"BCStaking.sol\":13600:13624  user.deposits.length > 0 */\n      iszero\n        /* \"BCStaking.sol\":13596:13967  if (user.deposits.length > 0) {... */\n      tag_341\n      jumpi\n        /* \"BCStaking.sol\":13746:13766  user.deposits.length */\n      dup1\n      sload\n        /* \"BCStaking.sol\":13732:13796  user.deposits[user.deposits.length - 1].amount.mul(365).div(100) */\n      tag_330\n      swap1\n        /* \"BCStaking.sol\":13792:13795  100 */\n      0x64\n      swap1\n        /* \"BCStaking.sol\":13732:13787  user.deposits[user.deposits.length - 1].amount.mul(365) */\n      tag_151\n      swap1\n        /* \"BCStaking.sol\":13783:13786  365 */\n      0x016d\n      swap1\n        /* \"BCStaking.sol\":13732:13736  user */\n      dup6\n      swap1\n        /* \"BCStaking.sol\":13746:13770  user.deposits.length - 1 */\n      tag_332\n      swap1\n        /* \"BCStaking.sol\":13769:13770  1 */\n      0x01\n      swap1\n        /* \"BCStaking.sol\":13746:13770  user.deposits.length - 1 */\n      tag_333\n      jump\t// in\n    tag_332:\n        /* \"BCStaking.sol\":13732:13771  user.deposits[user.deposits.length - 1] */\n      dup2\n      sload\n      dup2\n      lt\n      tag_153\n      jumpi\n      tag_153\n      tag_132\n      jump\t// in\n        /* \"BCStaking.sol\":13732:13796  user.deposits[user.deposits.length - 1].amount.mul(365).div(100) */\n    tag_330:\n        /* \"BCStaking.sol\":13677:13697  user.deposits.length */\n      dup2\n      sload\n        /* \"BCStaking.sol\":13663:13667  user */\n      dup3\n      swap1\n        /* \"BCStaking.sol\":13677:13701  user.deposits.length - 1 */\n      tag_337\n      swap1\n        /* \"BCStaking.sol\":13700:13701  1 */\n      0x01\n      swap1\n        /* \"BCStaking.sol\":13677:13701  user.deposits.length - 1 */\n      tag_333\n      jump\t// in\n    tag_337:\n        /* \"BCStaking.sol\":13663:13702  user.deposits[user.deposits.length - 1] */\n      dup2\n      sload\n      dup2\n      lt\n      tag_339\n      jumpi\n      tag_339\n      tag_132\n      jump\t// in\n    tag_339:\n      swap1\n      0x00\n      mstore\n      keccak256(0x00, 0x20)\n      swap1\n      0x05\n      mul\n      add\n        /* \"BCStaking.sol\":13663:13712  user.deposits[user.deposits.length - 1].withdrawn */\n      0x01\n      add\n      sload\n        /* \"BCStaking.sol\":13663:13796  user.deposits[user.deposits.length - 1].withdrawn <... */\n      lt\n        /* \"BCStaking.sol\":13641:13911  if (... */\n      iszero\n      tag_341\n      jumpi\n      pop\n        /* \"BCStaking.sol\":13838:13842  true */\n      0x01\n      swap3\n        /* \"BCStaking.sol\":13468:13974  function isActive(address userAddress) public view returns (bool) {... */\n      swap2\n      pop\n      pop\n      jump\t// out\n        /* \"BCStaking.sol\":13641:13911  if (... */\n    tag_341:\n      pop\n        /* \"BCStaking.sol\":13890:13895  false */\n      0x00\n      swap3\n        /* \"BCStaking.sol\":13468:13974  function isActive(address userAddress) public view returns (bool) {... */\n      swap2\n      pop\n      pop\n      jump\t// out\n        /* \"BCStaking.sol\":1693:3544  function stake(address referrer, uint256 amount) public {... */\n    tag_93:\n        /* \"BCStaking.sol\":1760:1762  BC */\n      sload(0x01)\n        /* \"BCStaking.sol\":1760:1810  BC.transferFrom(msg.sender, address(this), amount) */\n      mload(0x40)\n      shl(0xe0, 0x23b872dd)\n      dup2\n      mstore\n        /* \"BCStaking.sol\":1776:1786  msg.sender */\n      caller\n        /* \"BCStaking.sol\":1760:1810  BC.transferFrom(msg.sender, address(this), amount) */\n      0x04\n      dup3\n      add\n        /* \"#utility.yul\":3937:3971   */\n      mstore\n        /* \"BCStaking.sol\":1796:1800  this */\n      address\n        /* \"#utility.yul\":3987:4005   */\n      0x24\n      dup3\n      add\n        /* \"#utility.yul\":3980:4023   */\n      mstore\n        /* \"#utility.yul\":4039:4057   */\n      0x44\n      dup2\n      add\n        /* \"#utility.yul\":4032:4066   */\n      dup4\n      swap1\n      mstore\n      sub(shl(0xa0, 0x01), 0x01)\n        /* \"BCStaking.sol\":1760:1762  BC */\n      swap1\n      swap2\n      and\n      swap1\n        /* \"BCStaking.sol\":1760:1775  BC.transferFrom */\n      0x23b872dd\n      swap1\n        /* \"#utility.yul\":3872:3890   */\n      0x64\n      add\n        /* \"BCStaking.sol\":1760:1810  BC.transferFrom(msg.sender, address(this), amount) */\n      0x20\n      mload(0x40)\n      dup1\n      dup4\n      sub\n      dup2\n      0x00\n      dup8\n      gas\n      call\n      iszero\n      dup1\n      iszero\n      tag_349\n      jumpi\n      returndatasize\n      0x00\n      dup1\n      returndatacopy\n      revert(0x00, returndatasize)\n    tag_349:\n      pop\n      pop\n      pop\n      pop\n      mload(0x40)\n      returndatasize\n      not(0x1f)\n      0x1f\n      dup3\n      add\n      and\n      dup3\n      add\n      dup1\n      0x40\n      mstore\n      pop\n      dup2\n      add\n      swap1\n      tag_350\n      swap2\n      swap1\n      tag_305\n      jump\t// in\n    tag_350:\n      pop\n        /* \"BCStaking.sol\":1849:1859  msg.sender */\n      caller\n        /* \"BCStaking.sol\":1823:1840  User storage user */\n      0x00\n        /* \"BCStaking.sol\":1843:1860  users[msg.sender] */\n      swap1\n      dup2\n      mstore\n        /* \"BCStaking.sol\":1843:1848  users */\n      0x06\n        /* \"BCStaking.sol\":1843:1860  users[msg.sender] */\n      0x20\n      mstore\n      0x40\n      dup1\n      dup3\n      keccak256\n      sub(shl(0xa0, 0x01), 0x01)\n        /* \"BCStaking.sol\":1938:1953  users[referrer] */\n      dup6\n      and\n      dup4\n      mstore\n      swap2\n      keccak256\n        /* \"BCStaking.sol\":1938:1969  users[referrer].deposits.length */\n      sload\n        /* \"BCStaking.sol\":1938:1973  users[referrer].deposits.length > 0 */\n      iszero\n      dup1\n      iszero\n      swap1\n        /* \"BCStaking.sol\":1938:1999  users[referrer].deposits.length > 0 && referrer != msg.sender */\n      tag_351\n      jumpi\n      pop\n      sub(shl(0xa0, 0x01), 0x01)\n        /* \"BCStaking.sol\":1977:1999  referrer != msg.sender */\n      dup4\n      and\n        /* \"BCStaking.sol\":1989:1999  msg.sender */\n      caller\n        /* \"BCStaking.sol\":1977:1999  referrer != msg.sender */\n      eq\n      iszero\n        /* \"BCStaking.sol\":1938:1999  users[referrer].deposits.length > 0 && referrer != msg.sender */\n    tag_351:\n        /* \"BCStaking.sol\":1873:2062  if (... */\n      iszero\n      tag_352\n      jumpi\n        /* \"BCStaking.sol\":2026:2039  user.referrer */\n      0x04\n      dup2\n      add\n        /* \"BCStaking.sol\":2026:2050  user.referrer = referrer */\n      dup1\n      sload\n      not(sub(shl(0xa0, 0x01), 0x01))\n      and\n      sub(shl(0xa0, 0x01), 0x01)\n      dup6\n      and\n      or\n      swap1\n      sstore\n        /* \"BCStaking.sol\":1873:2062  if (... */\n    tag_352:\n        /* \"BCStaking.sol\":2078:2091  user.referrer */\n      0x04\n      dup2\n      add\n      sload\n      sub(shl(0xa0, 0x01), 0x01)\n      and\n        /* \"BCStaking.sol\":2078:2105  user.referrer != address(0) */\n      iszero\n        /* \"BCStaking.sol\":2074:2484  if (user.referrer != address(0)) {... */\n      tag_353\n      jumpi\n        /* \"BCStaking.sol\":2139:2152  user.referrer */\n      0x04\n      dup2\n      add\n      sload\n      sub(shl(0xa0, 0x01), 0x01)\n      and\n        /* \"BCStaking.sol\":2173:2193  upline != address(0) */\n      dup1\n      iszero\n        /* \"BCStaking.sol\":2169:2473  if (upline != address(0)) {... */\n      tag_354\n      jumpi\n        /* \"BCStaking.sol\":2214:2229  uint256 _amount */\n      0x00\n        /* \"BCStaking.sol\":2232:2323  amount.mul(REFERRAL_PERCENTS).div(... */\n      tag_355\n        /* \"BCStaking.sol\":365:369  1000 */\n      0x03e8\n        /* \"BCStaking.sol\":2232:2261  amount.mul(REFERRAL_PERCENTS) */\n      tag_151\n        /* \"BCStaking.sol\":2232:2238  amount */\n      dup7\n        /* \"BCStaking.sol\":470:473  120 */\n      0x78\n        /* \"BCStaking.sol\":2232:2242  amount.mul */\n      tag_155\n        /* \"BCStaking.sol\":2232:2261  amount.mul(REFERRAL_PERCENTS) */\n      jump\t// in\n        /* \"BCStaking.sol\":2232:2323  amount.mul(REFERRAL_PERCENTS).div(... */\n    tag_355:\n      sub(shl(0xa0, 0x01), 0x01)\n        /* \"BCStaking.sol\":2364:2377  users[upline] */\n      dup4\n      and\n      0x00\n      swap1\n      dup2\n      mstore\n        /* \"BCStaking.sol\":2364:2369  users */\n      0x06\n        /* \"BCStaking.sol\":2364:2377  users[upline] */\n      0x20\n      mstore\n      0x40\n      swap1\n      keccak256\n        /* \"BCStaking.sol\":2364:2383  users[upline].bonus */\n      0x02\n      add\n      sload\n        /* \"BCStaking.sol\":2214:2323  uint256 _amount = amount.mul(REFERRAL_PERCENTS).div(... */\n      swap1\n      swap2\n      pop\n        /* \"BCStaking.sol\":2364:2396  users[upline].bonus.add(_amount) */\n      tag_357\n      swap1\n        /* \"BCStaking.sol\":2214:2323  uint256 _amount = amount.mul(REFERRAL_PERCENTS).div(... */\n      dup3\n        /* \"BCStaking.sol\":2364:2387  users[upline].bonus.add */\n      tag_198\n        /* \"BCStaking.sol\":2364:2396  users[upline].bonus.add(_amount) */\n      jump\t// in\n    tag_357:\n      sub(shl(0xa0, 0x01), 0x01)\n        /* \"BCStaking.sol\":2342:2355  users[upline] */\n      dup4\n      and\n      0x00\n      dup2\n      dup2\n      mstore\n        /* \"BCStaking.sol\":2342:2347  users */\n      0x06\n        /* \"BCStaking.sol\":2342:2355  users[upline] */\n      0x20\n      swap1\n      dup2\n      mstore\n      0x40\n      swap2\n      dup3\n      swap1\n      keccak256\n        /* \"BCStaking.sol\":2342:2361  users[upline].bonus */\n      0x02\n      add\n        /* \"BCStaking.sol\":2342:2396  users[upline].bonus = users[upline].bonus.add(_amount) */\n      swap4\n      swap1\n      swap4\n      sstore\n        /* \"BCStaking.sol\":2420:2457  RefBonus(upline, msg.sender, _amount) */\n      mload\n        /* \"#utility.yul\":160:185   */\n      dup4\n      dup2\n      mstore\n        /* \"BCStaking.sol\":2437:2447  msg.sender */\n      caller\n      swap3\n        /* \"BCStaking.sol\":2420:2457  RefBonus(upline, msg.sender, _amount) */\n      0x328838ddfc48ad5ae5531b1ad95dfb22b42ff1866853e474375ffef2c63d8e50\n      swap2\n        /* \"#utility.yul\":133:151   */\n      add\n        /* \"BCStaking.sol\":2420:2457  RefBonus(upline, msg.sender, _amount) */\n      mload(0x40)\n      dup1\n      swap2\n      sub\n      swap1\n      log3\n        /* \"BCStaking.sol\":2195:2473  {... */\n      pop\n        /* \"BCStaking.sol\":2169:2473  if (upline != address(0)) {... */\n    tag_354:\n        /* \"BCStaking.sol\":2107:2484  {... */\n      pop\n        /* \"BCStaking.sol\":2074:2484  if (user.referrer != address(0)) {... */\n    tag_353:\n        /* \"BCStaking.sol\":2500:2520  user.deposits.length */\n      dup1\n      sload\n        /* \"BCStaking.sol\":2496:2670  if (user.deposits.length == 0) {... */\n      tag_359\n      jumpi\n        /* \"BCStaking.sol\":2560:2575  block.timestamp */\n      timestamp\n        /* \"BCStaking.sol\":2542:2557  user.checkpoint */\n      0x01\n      dup1\n      dup4\n      add\n        /* \"BCStaking.sol\":2542:2575  user.checkpoint = block.timestamp */\n      swap2\n      swap1\n      swap2\n      sstore\n        /* \"BCStaking.sol\":2603:2613  totalUsers */\n      sload(0x02)\n        /* \"BCStaking.sol\":2603:2620  totalUsers.add(1) */\n      tag_360\n      swap2\n        /* \"BCStaking.sol\":2603:2617  totalUsers.add */\n      tag_198\n        /* \"BCStaking.sol\":2603:2620  totalUsers.add(1) */\n      jump\t// in\n    tag_360:\n        /* \"BCStaking.sol\":2590:2600  totalUsers */\n      0x02\n        /* \"BCStaking.sol\":2590:2620  totalUsers = totalUsers.add(1) */\n      sstore\n        /* \"BCStaking.sol\":2640:2658  Newbie(msg.sender) */\n      mload(0x40)\n        /* \"BCStaking.sol\":2647:2657  msg.sender */\n      caller\n        /* \"#utility.yul\":711:762   */\n      dup2\n      mstore\n        /* \"BCStaking.sol\":2640:2658  Newbie(msg.sender) */\n      0x9fd565cd14c3c391679eb0cad12a14dcf7534e9d3462bcb9b67a098a9bbbc24a\n      swap1\n        /* \"#utility.yul\":699:701   */\n      0x20\n        /* \"#utility.yul\":684:702   */\n      add\n        /* \"BCStaking.sol\":2640:2658  Newbie(msg.sender) */\n      mload(0x40)\n      dup1\n      swap2\n      sub\n      swap1\n      log1\n        /* \"BCStaking.sol\":2496:2670  if (user.deposits.length == 0) {... */\n    tag_359:\n        /* \"BCStaking.sol\":2686:2699  user.referrer */\n      0x04\n      dup2\n      add\n      sload\n      sub(shl(0xa0, 0x01), 0x01)\n      and\n        /* \"BCStaking.sol\":2686:2713  user.referrer != address(0) */\n      iszero\n        /* \"BCStaking.sol\":2682:3384  if (user.referrer != address(0)) {... */\n      tag_362\n      jumpi\n        /* \"BCStaking.sol\":2767:3072  Deposit(... */\n      0x40\n      dup1\n      mload\n      0xa0\n      dup2\n      add\n      swap1\n      swap2\n      mstore\n        /* \"BCStaking.sol\":2730:2734  user */\n      dup2\n      swap1\n        /* \"BCStaking.sol\":2767:3072  Deposit(... */\n      dup1\n        /* \"BCStaking.sol\":2797:2908  amount.sub(... */\n      tag_363\n        /* \"BCStaking.sol\":2834:2885  amount.mul(REFERRAL_PERCENTS).div(PERCENTS_DIVIDER) */\n      tag_364\n        /* \"BCStaking.sol\":365:369  1000 */\n      0x03e8\n        /* \"BCStaking.sol\":2834:2863  amount.mul(REFERRAL_PERCENTS) */\n      tag_151\n        /* \"BCStaking.sol\":2834:2840  amount */\n      dup9\n        /* \"BCStaking.sol\":470:473  120 */\n      0x78\n        /* \"BCStaking.sol\":2834:2844  amount.mul */\n      tag_155\n        /* \"BCStaking.sol\":2834:2863  amount.mul(REFERRAL_PERCENTS) */\n      jump\t// in\n        /* \"BCStaking.sol\":2834:2885  amount.mul(REFERRAL_PERCENTS).div(PERCENTS_DIVIDER) */\n    tag_364:\n        /* \"BCStaking.sol\":2797:2803  amount */\n      dup7\n      swap1\n        /* \"BCStaking.sol\":2797:2807  amount.sub */\n      tag_149\n        /* \"BCStaking.sol\":2797:2908  amount.sub(... */\n      jump\t// in\n    tag_363:\n        /* \"BCStaking.sol\":2767:3072  Deposit(... */\n      dup2\n      mstore\n      0x20\n      add\n        /* \"BCStaking.sol\":2931:2932  0 */\n      0x00\n        /* \"BCStaking.sol\":2767:3072  Deposit(... */\n      dup2\n      mstore\n      0x20\n      add\n        /* \"BCStaking.sol\":2955:2970  block.timestamp */\n      timestamp\n        /* \"BCStaking.sol\":2767:3072  Deposit(... */\n      dup2\n      mstore\n      0x20\n      add\n        /* \"BCStaking.sol\":570:578  180 days */\n      0xed4e00\n        /* \"BCStaking.sol\":2993:3008  block.timestamp */\n      timestamp\n        /* \"BCStaking.sol\":2993:3025  block.timestamp + STAKING_PERIOD */\n      tag_366\n      swap2\n      swap1\n      tag_367\n      jump\t// in\n    tag_366:\n        /* \"BCStaking.sol\":2767:3072  Deposit(... */\n      dup2\n      mstore\n        /* \"BCStaking.sol\":3048:3053  false */\n      0x00\n        /* \"BCStaking.sol\":2767:3072  Deposit(... */\n      0x20\n      swap2\n      dup3\n      add\n      dup2\n      swap1\n      mstore\n        /* \"BCStaking.sol\":2730:3087  user.deposits.push(... */\n      dup4\n      sload\n        /* \"BCStaking.sol\":2767:3072  Deposit(... */\n      0x01\n        /* \"BCStaking.sol\":2730:3087  user.deposits.push(... */\n      dup1\n      dup3\n      add\n      dup7\n      sstore\n      swap5\n      dup3\n      mstore\n      swap1\n      dup3\n      swap1\n      keccak256\n      dup4\n      mload\n      0x05\n      swap1\n      swap3\n      mul\n      add\n      swap1\n      dup2\n      sstore\n      swap1\n      dup3\n      add\n      mload\n      swap3\n      dup2\n      add\n      swap3\n      swap1\n      swap3\n      sstore\n      0x40\n      dup2\n      add\n      mload\n      0x02\n      dup4\n      add\n      sstore\n      0x60\n      dup2\n      add\n      mload\n      0x03\n      dup4\n      add\n      sstore\n      0x80\n      add\n      mload\n      0x04\n      swap1\n      swap2\n      add\n      dup1\n      sload\n      not(0xff)\n      and\n      swap2\n      iszero\n      iszero\n      swap2\n      swap1\n      swap2\n      or\n      swap1\n      sstore\n        /* \"BCStaking.sol\":2682:3384  if (user.referrer != address(0)) {... */\n      jump(tag_369)\n    tag_362:\n        /* \"BCStaking.sol\":3120:3124  user */\n      dup1\n        /* \"BCStaking.sol\":3120:3133  user.deposits */\n      0x00\n      add\n        /* \"BCStaking.sol\":3157:3357  Deposit(... */\n      mload(0x40)\n      dup1\n      0xa0\n      add\n      0x40\n      mstore\n      dup1\n        /* \"BCStaking.sol\":3187:3193  amount */\n      dup5\n        /* \"BCStaking.sol\":3157:3357  Deposit(... */\n      dup2\n      mstore\n      0x20\n      add\n        /* \"BCStaking.sol\":3216:3217  0 */\n      0x00\n        /* \"BCStaking.sol\":3157:3357  Deposit(... */\n      dup2\n      mstore\n      0x20\n      add\n        /* \"BCStaking.sol\":3240:3255  block.timestamp */\n      timestamp\n        /* \"BCStaking.sol\":3157:3357  Deposit(... */\n      dup2\n      mstore\n      0x20\n      add\n        /* \"BCStaking.sol\":570:578  180 days */\n      0xed4e00\n        /* \"BCStaking.sol\":3278:3293  block.timestamp */\n      timestamp\n        /* \"BCStaking.sol\":3278:3310  block.timestamp + STAKING_PERIOD */\n      tag_370\n      swap2\n      swap1\n      tag_367\n      jump\t// in\n    tag_370:\n        /* \"BCStaking.sol\":3157:3357  Deposit(... */\n      dup2\n      mstore\n        /* \"BCStaking.sol\":3333:3338  false */\n      0x00\n        /* \"BCStaking.sol\":3157:3357  Deposit(... */\n      0x20\n      swap2\n      dup3\n      add\n      dup2\n      swap1\n      mstore\n        /* \"BCStaking.sol\":3120:3372  user.deposits.push(... */\n      dup4\n      sload\n        /* \"BCStaking.sol\":3157:3357  Deposit(... */\n      0x01\n        /* \"BCStaking.sol\":3120:3372  user.deposits.push(... */\n      dup1\n      dup3\n      add\n      dup7\n      sstore\n      swap5\n      dup3\n      mstore\n      swap1\n      dup3\n      swap1\n      keccak256\n      dup4\n      mload\n      0x05\n      swap1\n      swap3\n      mul\n      add\n      swap1\n      dup2\n      sstore\n      swap1\n      dup3\n      add\n      mload\n      swap3\n      dup2\n      add\n      swap3\n      swap1\n      swap3\n      sstore\n      0x40\n      dup2\n      add\n      mload\n      0x02\n      dup4\n      add\n      sstore\n      0x60\n      dup2\n      add\n      mload\n      0x03\n      dup4\n      add\n      sstore\n      0x80\n      add\n      mload\n      0x04\n      swap1\n      swap2\n      add\n      dup1\n      sload\n      not(0xff)\n      and\n      swap2\n      iszero\n      iszero\n      swap2\n      swap1\n      swap2\n      or\n      swap1\n      sstore\n        /* \"BCStaking.sol\":2682:3384  if (user.referrer != address(0)) {... */\n    tag_369:\n        /* \"BCStaking.sol\":3410:3421  totalStaked */\n      sload(0x03)\n        /* \"BCStaking.sol\":3410:3433  totalStaked.add(amount) */\n      tag_372\n      swap1\n        /* \"BCStaking.sol\":3426:3432  amount */\n      dup4\n        /* \"BCStaking.sol\":3410:3425  totalStaked.add */\n      tag_198\n        /* \"BCStaking.sol\":3410:3433  totalStaked.add(amount) */\n      jump\t// in\n    tag_372:\n        /* \"BCStaking.sol\":3396:3407  totalStaked */\n      0x03\n        /* \"BCStaking.sol\":3396:3433  totalStaked = totalStaked.add(amount) */\n      sstore\n        /* \"BCStaking.sol\":3464:3481  totalDepositCount */\n      sload(0x05)\n        /* \"BCStaking.sol\":3464:3488  totalDepositCount.add(1) */\n      tag_373\n      swap1\n        /* \"BCStaking.sol\":3486:3487  1 */\n      0x01\n        /* \"BCStaking.sol\":3464:3485  totalDepositCount.add */\n      tag_198\n        /* \"BCStaking.sol\":3464:3488  totalDepositCount.add(1) */\n      jump\t// in\n    tag_373:\n        /* \"BCStaking.sol\":3444:3461  totalDepositCount */\n      0x05\n        /* \"BCStaking.sol\":3444:3488  totalDepositCount = totalDepositCount.add(1) */\n      sstore\n        /* \"BCStaking.sol\":3506:3536  NewDeposit(msg.sender, amount) */\n      mload(0x40)\n        /* \"#utility.yul\":160:185   */\n      dup3\n      dup2\n      mstore\n        /* \"BCStaking.sol\":3517:3527  msg.sender */\n      caller\n      swap1\n        /* \"BCStaking.sol\":3506:3536  NewDeposit(msg.sender, amount) */\n      0x2cb77763bc1e8490c1a904905c4d74b4269919aca114464f4bb4d911e60de364\n      swap1\n        /* \"#utility.yul\":148:150   */\n      0x20\n        /* \"#utility.yul\":133:151   */\n      add\n        /* \"BCStaking.sol\":3506:3536  NewDeposit(msg.sender, amount) */\n      mload(0x40)\n      dup1\n      swap2\n      sub\n      swap1\n      log2\n        /* \"BCStaking.sol\":1749:3544  {... */\n      pop\n        /* \"BCStaking.sol\":1693:3544  function stake(address referrer, uint256 amount) public {... */\n      pop\n      pop\n      jump\t// out\n        /* \"BCStaking.sol\":13982:14521  function getUserDepositInfo(address userAddress, uint256 index)... */\n    tag_99:\n      sub(shl(0xa0, 0x01), 0x01)\n        /* \"BCStaking.sol\":14248:14266  users[userAddress] */\n      dup3\n      and\n        /* \"BCStaking.sol\":14108:14115  uint256 */\n      0x00\n        /* \"BCStaking.sol\":14248:14266  users[userAddress] */\n      swap1\n      dup2\n      mstore\n        /* \"BCStaking.sol\":14248:14253  users */\n      0x06\n        /* \"BCStaking.sol\":14248:14266  users[userAddress] */\n      0x20\n      mstore\n      0x40\n      dup2\n      keccak256\n        /* \"BCStaking.sol\":14301:14321  user.deposits[index] */\n      dup1\n      sload\n        /* \"BCStaking.sol\":14108:14115  uint256 */\n      dup3\n      swap2\n      dup3\n      swap2\n      dup3\n      swap2\n      dup3\n      swap2\n        /* \"BCStaking.sol\":14248:14266  users[userAddress] */\n      dup2\n      swap1\n        /* \"BCStaking.sol\":14315:14320  index */\n      dup9\n      swap1\n        /* \"BCStaking.sol\":14301:14321  user.deposits[index] */\n      dup2\n      lt\n      tag_377\n      jumpi\n      tag_377\n      tag_132\n      jump\t// in\n    tag_377:\n      swap1\n      0x00\n      mstore\n      keccak256(0x00, 0x20)\n      swap1\n      0x05\n      mul\n      add\n        /* \"BCStaking.sol\":14301:14328  user.deposits[index].amount */\n      0x00\n      add\n      sload\n        /* \"BCStaking.sol\":14343:14347  user */\n      dup2\n        /* \"BCStaking.sol\":14343:14356  user.deposits */\n      0x00\n      add\n        /* \"BCStaking.sol\":14357:14362  index */\n      dup9\n        /* \"BCStaking.sol\":14343:14363  user.deposits[index] */\n      dup2\n      sload\n      dup2\n      lt\n      tag_380\n      jumpi\n      tag_380\n      tag_132\n      jump\t// in\n    tag_380:\n      swap1\n      0x00\n      mstore\n      keccak256(0x00, 0x20)\n      swap1\n      0x05\n      mul\n      add\n        /* \"BCStaking.sol\":14343:14373  user.deposits[index].withdrawn */\n      0x01\n      add\n      sload\n        /* \"BCStaking.sol\":14388:14392  user */\n      dup3\n        /* \"BCStaking.sol\":14388:14401  user.deposits */\n      0x00\n      add\n        /* \"BCStaking.sol\":14402:14407  index */\n      dup10\n        /* \"BCStaking.sol\":14388:14408  user.deposits[index] */\n      dup2\n      sload\n      dup2\n      lt\n      tag_383\n      jumpi\n      tag_383\n      tag_132\n      jump\t// in\n    tag_383:\n      swap1\n      0x00\n      mstore\n      keccak256(0x00, 0x20)\n      swap1\n      0x05\n      mul\n      add\n        /* \"BCStaking.sol\":14388:14418  user.deposits[index].startTime */\n      0x02\n      add\n      sload\n        /* \"BCStaking.sol\":14433:14437  user */\n      dup4\n        /* \"BCStaking.sol\":14433:14446  user.deposits */\n      0x00\n      add\n        /* \"BCStaking.sol\":14447:14452  index */\n      dup11\n        /* \"BCStaking.sol\":14433:14453  user.deposits[index] */\n      dup2\n      sload\n      dup2\n      lt\n      tag_386\n      jumpi\n      tag_386\n      tag_132\n      jump\t// in\n    tag_386:\n      swap1\n      0x00\n      mstore\n      keccak256(0x00, 0x20)\n      swap1\n      0x05\n      mul\n      add\n        /* \"BCStaking.sol\":14433:14461  user.deposits[index].endTime */\n      0x03\n      add\n      sload\n        /* \"BCStaking.sol\":14476:14480  user */\n      dup5\n        /* \"BCStaking.sol\":14476:14489  user.deposits */\n      0x00\n      add\n        /* \"BCStaking.sol\":14490:14495  index */\n      dup12\n        /* \"BCStaking.sol\":14476:14496  user.deposits[index] */\n      dup2\n      sload\n      dup2\n      lt\n      tag_389\n      jumpi\n      tag_389\n      tag_132\n      jump\t// in\n    tag_389:\n      0x00\n      swap2\n      dup3\n      mstore\n      0x20\n      swap1\n      swap2\n      keccak256\n      0x05\n      swap1\n      swap2\n      mul\n      add\n        /* \"BCStaking.sol\":14476:14502  user.deposits[index].ended */\n      0x04\n      add\n      sload\n        /* \"BCStaking.sol\":14279:14513  return (... */\n      swap4\n      swap13\n      swap3\n      swap12\n      pop\n      swap1\n      swap10\n      pop\n      swap8\n      pop\n        /* \"BCStaking.sol\":14476:14502  user.deposits[index].ended */\n      0xff\n      swap1\n      swap2\n      and\n      swap6\n      pop\n        /* \"BCStaking.sol\":13982:14521  function getUserDepositInfo(address userAddress, uint256 index)... */\n      swap4\n      pop\n      pop\n      pop\n      pop\n      jump\t// out\n        /* \"@openzeppelin/contracts/access/Ownable.sol\":1918:2116  function transferOwnership(address newOwner) public virtual onlyOwner {... */\n    tag_119:\n        /* \"@openzeppelin/contracts/access/Ownable.sol\":1082:1089  address */\n      0x00\n        /* \"@openzeppelin/contracts/access/Ownable.sol\":1108:1114  _owner */\n      sload\n      sub(shl(0xa0, 0x01), 0x01)\n      and\n        /* \"@openzeppelin/contracts/utils/Context.sol\":719:729  msg.sender */\n      caller\n        /* \"@openzeppelin/contracts/access/Ownable.sol\":1248:1271  owner() == _msgSender() */\n      eq\n        /* \"@openzeppelin/contracts/access/Ownable.sol\":1240:1308  require(owner() == _msgSender(), \"Ownable: caller is not the owner\") */\n      tag_397\n      jumpi\n      mload(0x40)\n      shl(0xe5, 0x461bcd)\n      dup2\n      mstore\n        /* \"#utility.yul\":3408:3410   */\n      0x20\n        /* \"@openzeppelin/contracts/access/Ownable.sol\":1240:1308  require(owner() == _msgSender(), \"Ownable: caller is not the owner\") */\n      0x04\n      dup3\n      add\n        /* \"#utility.yul\":3390:3411   */\n      dup2\n      swap1\n      mstore\n        /* \"#utility.yul\":3427:3445   */\n      0x24\n      dup3\n      add\n        /* \"#utility.yul\":3420:3450   */\n      mstore\n        /* \"#utility.yul\":3486:3520   */\n      0x4f776e61626c653a2063616c6c6572206973206e6f7420746865206f776e6572\n        /* \"#utility.yul\":3466:3484   */\n      0x44\n      dup3\n      add\n        /* \"#utility.yul\":3459:3521   */\n      mstore\n        /* \"#utility.yul\":3538:3556   */\n      0x64\n      add\n        /* \"@openzeppelin/contracts/access/Ownable.sol\":1240:1308  require(owner() == _msgSender(), \"Ownable: caller is not the owner\") */\n      tag_292\n        /* \"#utility.yul\":3206:3562   */\n      jump\n        /* \"@openzeppelin/contracts/access/Ownable.sol\":1240:1308  require(owner() == _msgSender(), \"Ownable: caller is not the owner\") */\n    tag_397:\n      sub(shl(0xa0, 0x01), 0x01)\n        /* \"@openzeppelin/contracts/access/Ownable.sol\":2006:2028  newOwner != address(0) */\n      dup2\n      and\n        /* \"@openzeppelin/contracts/access/Ownable.sol\":1998:2071  require(newOwner != address(0), \"Ownable: new owner is the zero address\") */\n      tag_400\n      jumpi\n      mload(0x40)\n      shl(0xe5, 0x461bcd)\n      dup2\n      mstore\n        /* \"#utility.yul\":4412:4414   */\n      0x20\n        /* \"@openzeppelin/contracts/access/Ownable.sol\":1998:2071  require(newOwner != address(0), \"Ownable: new owner is the zero address\") */\n      0x04\n      dup3\n      add\n        /* \"#utility.yul\":4394:4415   */\n      mstore\n        /* \"#utility.yul\":4451:4453   */\n      0x26\n        /* \"#utility.yul\":4431:4449   */\n      0x24\n      dup3\n      add\n        /* \"#utility.yul\":4424:4454   */\n      mstore\n        /* \"#utility.yul\":4490:4524   */\n      0x4f776e61626c653a206e6577206f776e657220697320746865207a65726f2061\n        /* \"#utility.yul\":4470:4488   */\n      0x44\n      dup3\n      add\n        /* \"#utility.yul\":4463:4525   */\n      mstore\n      shl(0xd0, 0x646472657373)\n        /* \"#utility.yul\":4541:4559   */\n      0x64\n      dup3\n      add\n        /* \"#utility.yul\":4534:4570   */\n      mstore\n        /* \"#utility.yul\":4587:4606   */\n      0x84\n      add\n        /* \"@openzeppelin/contracts/access/Ownable.sol\":1998:2071  require(newOwner != address(0), \"Ownable: new owner is the zero address\") */\n      tag_292\n        /* \"#utility.yul\":4210:4612   */\n      jump\n        /* \"@openzeppelin/contracts/access/Ownable.sol\":1998:2071  require(newOwner != address(0), \"Ownable: new owner is the zero address\") */\n    tag_400:\n        /* \"@openzeppelin/contracts/access/Ownable.sol\":2081:2109  _transferOwnership(newOwner) */\n      tag_403\n        /* \"@openzeppelin/contracts/access/Ownable.sol\":2100:2108  newOwner */\n      dup2\n        /* \"@openzeppelin/contracts/access/Ownable.sol\":2081:2099  _transferOwnership */\n      tag_317\n        /* \"@openzeppelin/contracts/access/Ownable.sol\":2081:2109  _transferOwnership(newOwner) */\n      jump\t// in\n    tag_403:\n        /* \"@openzeppelin/contracts/access/Ownable.sol\":1918:2116  function transferOwnership(address newOwner) public virtual onlyOwner {... */\n      pop\n      jump\t// out\n        /* \"BCStaking.sol\":6792:10054  function compound() public onlyhodler {... */\n    tag_121:\n        /* \"BCStaking.sol\":1194:1195  0 */\n      0x00\n        /* \"BCStaking.sol\":1163:1191  getUserDividends(msg.sender) */\n      tag_405\n        /* \"BCStaking.sol\":1180:1190  msg.sender */\n      caller\n        /* \"BCStaking.sol\":1163:1179  getUserDividends */\n      tag_44\n        /* \"BCStaking.sol\":1163:1191  getUserDividends(msg.sender) */\n      jump\t// in\n    tag_405:\n        /* \"BCStaking.sol\":1163:1195  getUserDividends(msg.sender) > 0 */\n      gt\n        /* \"BCStaking.sol\":1155:1210  require(getUserDividends(msg.sender) > 0, \"Not Holder\") */\n      tag_406\n      jumpi\n      mload(0x40)\n      shl(0xe5, 0x461bcd)\n      dup2\n      mstore\n        /* \"#utility.yul\":4819:4821   */\n      0x20\n        /* \"BCStaking.sol\":1155:1210  require(getUserDividends(msg.sender) > 0, \"Not Holder\") */\n      0x04\n      dup3\n      add\n        /* \"#utility.yul\":4801:4822   */\n      mstore\n        /* \"#utility.yul\":4858:4860   */\n      0x0a\n        /* \"#utility.yul\":4838:4856   */\n      0x24\n      dup3\n      add\n        /* \"#utility.yul\":4831:4861   */\n      mstore\n      shl(0xb1, 0x2737ba102437b63232b9)\n        /* \"#utility.yul\":4877:4895   */\n      0x44\n      dup3\n      add\n        /* \"#utility.yul\":4870:4910   */\n      mstore\n        /* \"#utility.yul\":4927:4945   */\n      0x64\n      add\n        /* \"BCStaking.sol\":1155:1210  require(getUserDividends(msg.sender) > 0, \"Not Holder\") */\n      tag_292\n        /* \"#utility.yul\":4617:4951   */\n      jump\n        /* \"BCStaking.sol\":1155:1210  require(getUserDividends(msg.sender) > 0, \"Not Holder\") */\n    tag_406:\n        /* \"BCStaking.sol\":6867:6877  msg.sender */\n      caller\n        /* \"BCStaking.sol\":6841:6858  User storage user */\n      0x00\n        /* \"BCStaking.sol\":6861:6878  users[msg.sender] */\n      dup2\n      dup2\n      mstore\n        /* \"BCStaking.sol\":6861:6866  users */\n      0x06\n        /* \"BCStaking.sol\":6861:6878  users[msg.sender] */\n      0x20\n      mstore\n      0x40\n      dup2\n      keccak256\n      swap2\n        /* \"BCStaking.sol\":6938:6966  getUserDividends(msg.sender) */\n      tag_410\n      swap1\n        /* \"BCStaking.sol\":6938:6954  getUserDividends */\n      tag_44\n        /* \"BCStaking.sol\":6938:6966  getUserDividends(msg.sender) */\n      jump\t// in\n    tag_410:\n        /* \"BCStaking.sol\":6917:6966  uint256 _dividends = getUserDividends(msg.sender) */\n      swap1\n      pop\n        /* \"BCStaking.sol\":7018:7037  uint256 totalAmount */\n      0x00\n        /* \"BCStaking.sol\":7048:7065  uint256 dividends */\n      dup1\n        /* \"BCStaking.sol\":7078:7082  user */\n      dup4\n        /* \"BCStaking.sol\":7078:7091  user.deposits */\n      0x00\n      add\n        /* \"BCStaking.sol\":7111:7291  Deposit(... */\n      mload(0x40)\n      dup1\n      0xa0\n      add\n      0x40\n      mstore\n      dup1\n        /* \"BCStaking.sol\":7137:7147  _dividends */\n      dup6\n        /* \"BCStaking.sol\":7111:7291  Deposit(... */\n      dup2\n      mstore\n      0x20\n      add\n        /* \"BCStaking.sol\":7166:7167  0 */\n      0x00\n        /* \"BCStaking.sol\":7111:7291  Deposit(... */\n      dup2\n      mstore\n      0x20\n      add\n        /* \"BCStaking.sol\":7186:7201  block.timestamp */\n      timestamp\n        /* \"BCStaking.sol\":7111:7291  Deposit(... */\n      dup2\n      mstore\n      0x20\n      add\n        /* \"BCStaking.sol\":570:578  180 days */\n      0xed4e00\n        /* \"BCStaking.sol\":7220:7235  block.timestamp */\n      timestamp\n        /* \"BCStaking.sol\":7220:7252  block.timestamp + STAKING_PERIOD */\n      tag_411\n      swap2\n      swap1\n      tag_367\n      jump\t// in\n    tag_411:\n        /* \"BCStaking.sol\":7111:7291  Deposit(... */\n      dup2\n      mstore\n        /* \"BCStaking.sol\":7271:7276  false */\n      0x00\n        /* \"BCStaking.sol\":7111:7291  Deposit(... */\n      0x20\n      swap2\n      dup3\n      add\n      dup2\n      swap1\n      mstore\n        /* \"BCStaking.sol\":7078:7302  user.deposits.push(... */\n      dup4\n      sload\n        /* \"BCStaking.sol\":7111:7291  Deposit(... */\n      0x01\n        /* \"BCStaking.sol\":7078:7302  user.deposits.push(... */\n      dup1\n      dup3\n      add\n      dup7\n      sstore\n      swap5\n      dup3\n      mstore\n      dup3\n      dup3\n      keccak256\n      dup5\n      mload\n      0x05\n      swap1\n      swap3\n      mul\n      add\n      swap1\n      dup2\n      sstore\n      swap2\n      dup4\n      add\n      mload\n      swap4\n      dup3\n      add\n      swap4\n      swap1\n      swap4\n      sstore\n      0x40\n      dup3\n      add\n      mload\n      0x02\n      dup3\n      add\n      sstore\n      0x60\n      dup3\n      add\n      mload\n      0x03\n      dup3\n      add\n      sstore\n      0x80\n      swap1\n      swap2\n      add\n      mload\n      0x04\n      swap1\n      swap2\n      add\n      dup1\n      sload\n      not(0xff)\n      and\n      swap2\n      iszero\n      iszero\n      swap2\n      swap1\n      swap2\n      or\n      swap1\n      sstore\n        /* \"BCStaking.sol\":7315:9756  for (uint256 i = 0; i < user.deposits.length; i++) {... */\n    tag_413:\n        /* \"BCStaking.sol\":7339:7359  user.deposits.length */\n      dup5\n      sload\n        /* \"BCStaking.sol\":7335:7359  i < user.deposits.length */\n      dup2\n      lt\n        /* \"BCStaking.sol\":7315:9756  for (uint256 i = 0; i < user.deposits.length; i++) {... */\n      iszero\n      tag_414\n      jumpi\n        /* \"BCStaking.sol\":7385:7389  user */\n      dup5\n        /* \"BCStaking.sol\":7385:7398  user.deposits */\n      0x00\n      add\n        /* \"BCStaking.sol\":7399:7400  i */\n      dup2\n        /* \"BCStaking.sol\":7385:7401  user.deposits[i] */\n      dup2\n      sload\n      dup2\n      lt\n      tag_417\n      jumpi\n      tag_417\n      tag_132\n      jump\t// in\n    tag_417:\n      0x00\n      swap2\n      dup3\n      mstore\n      0x20\n      swap1\n      swap2\n      keccak256\n        /* \"BCStaking.sol\":7385:7407  user.deposits[i].ended */\n      0x04\n        /* \"BCStaking.sol\":7385:7401  user.deposits[i] */\n      0x05\n      swap1\n      swap3\n      mul\n      add\n        /* \"BCStaking.sol\":7385:7407  user.deposits[i].ended */\n      add\n      sload\n      0xff\n      and\n        /* \"BCStaking.sol\":7381:9745  if (user.deposits[i].ended == false) {... */\n      tag_419\n      jumpi\n        /* \"BCStaking.sol\":7468:7483  block.timestamp */\n      timestamp\n        /* \"BCStaking.sol\":7441:7445  user */\n      dup6\n        /* \"BCStaking.sol\":7441:7454  user.deposits */\n      0x00\n      add\n        /* \"BCStaking.sol\":7455:7456  i */\n      dup3\n        /* \"BCStaking.sol\":7441:7457  user.deposits[i] */\n      dup2\n      sload\n      dup2\n      lt\n      tag_421\n      jumpi\n      tag_421\n      tag_132\n      jump\t// in\n    tag_421:\n      swap1\n      0x00\n      mstore\n      keccak256(0x00, 0x20)\n      swap1\n      0x05\n      mul\n      add\n        /* \"BCStaking.sol\":7441:7465  user.deposits[i].endTime */\n      0x03\n      add\n      sload\n        /* \"BCStaking.sol\":7441:7483  user.deposits[i].endTime > block.timestamp */\n      gt\n        /* \"BCStaking.sol\":7437:9511  if (user.deposits[i].endTime > block.timestamp) {... */\n      iszero\n      tag_423\n      jumpi\n        /* \"BCStaking.sol\":7541:7545  user */\n      dup5\n        /* \"BCStaking.sol\":7541:7556  user.checkpoint */\n      0x01\n      add\n      sload\n        /* \"BCStaking.sol\":7512:7516  user */\n      dup6\n        /* \"BCStaking.sol\":7512:7525  user.deposits */\n      0x00\n      add\n        /* \"BCStaking.sol\":7526:7527  i */\n      dup3\n        /* \"BCStaking.sol\":7512:7528  user.deposits[i] */\n      dup2\n      sload\n      dup2\n      lt\n      tag_425\n      jumpi\n      tag_425\n      tag_132\n      jump\t// in\n    tag_425:\n      swap1\n      0x00\n      mstore\n      keccak256(0x00, 0x20)\n      swap1\n      0x05\n      mul\n      add\n        /* \"BCStaking.sol\":7512:7538  user.deposits[i].startTime */\n      0x02\n      add\n      sload\n        /* \"BCStaking.sol\":7512:7556  user.deposits[i].startTime > user.checkpoint */\n      gt\n        /* \"BCStaking.sol\":7508:8377  if (user.deposits[i].startTime > user.checkpoint) {... */\n      iszero\n      tag_427\n      jumpi\n        /* \"BCStaking.sol\":7597:7976  (... */\n      tag_428\n        /* \"BCStaking.sol\":516:522  1 days */\n      0x015180\n        /* \"BCStaking.sol\":7597:7931  (... */\n      tag_151\n        /* \"BCStaking.sol\":7853:7900  block.timestamp.sub(user.deposits[i].startTime) */\n      tag_430\n        /* \"BCStaking.sol\":7873:7877  user */\n      dup9\n        /* \"BCStaking.sol\":7873:7886  user.deposits */\n      0x00\n      add\n        /* \"BCStaking.sol\":7887:7888  i */\n      dup6\n        /* \"BCStaking.sol\":7873:7889  user.deposits[i] */\n      dup2\n      sload\n      dup2\n      lt\n      tag_147\n      jumpi\n      tag_147\n      tag_132\n      jump\t// in\n        /* \"BCStaking.sol\":7853:7900  block.timestamp.sub(user.deposits[i].startTime) */\n    tag_430:\n        /* \"BCStaking.sol\":7628:7757  user.deposits[i].amount.mul(PERCENTS_DAILY).div(... */\n      tag_150\n        /* \"BCStaking.sol\":365:369  1000 */\n      0x03e8\n        /* \"BCStaking.sol\":7628:7671  user.deposits[i].amount.mul(PERCENTS_DAILY) */\n      tag_151\n        /* \"BCStaking.sol\":417:419  15 */\n      0x0f\n        /* \"BCStaking.sol\":7628:7632  user */\n      dup13\n        /* \"BCStaking.sol\":7628:7641  user.deposits */\n      0x00\n      add\n        /* \"BCStaking.sol\":7642:7643  i */\n      dup10\n        /* \"BCStaking.sol\":7628:7644  user.deposits[i] */\n      dup2\n      sload\n      dup2\n      lt\n      tag_153\n      jumpi\n      tag_153\n      tag_132\n      jump\t// in\n        /* \"BCStaking.sol\":7597:7976  (... */\n    tag_428:\n        /* \"BCStaking.sol\":7585:7976  dividends = (... */\n      swap2\n      pop\n        /* \"BCStaking.sol\":7437:9511  if (user.deposits[i].endTime > block.timestamp) {... */\n      jump(tag_470)\n        /* \"BCStaking.sol\":7508:8377  if (user.deposits[i].startTime > user.checkpoint) {... */\n    tag_427:\n        /* \"BCStaking.sol\":8045:8353  (... */\n      tag_428\n        /* \"BCStaking.sol\":516:522  1 days */\n      0x015180\n        /* \"BCStaking.sol\":8045:8274  (... */\n      tag_151\n        /* \"BCStaking.sol\":8237:8273  block.timestamp.sub(user.checkpoint) */\n      tag_430\n        /* \"BCStaking.sol\":8257:8261  user */\n      dup9\n        /* \"BCStaking.sol\":8257:8272  user.checkpoint */\n      0x01\n      add\n      sload\n        /* \"BCStaking.sol\":8237:8252  block.timestamp */\n      timestamp\n        /* \"BCStaking.sol\":8237:8256  block.timestamp.sub */\n      tag_149\n      swap1\n        /* \"BCStaking.sol\":8237:8273  block.timestamp.sub(user.checkpoint) */\n      swap2\n      swap1\n      0xffffffff\n      and\n      jump\t// in\n        /* \"BCStaking.sol\":7437:9511  if (user.deposits[i].endTime > block.timestamp) {... */\n    tag_423:\n        /* \"BCStaking.sol\":8458:8462  user */\n      dup5\n        /* \"BCStaking.sol\":8458:8473  user.checkpoint */\n      0x01\n      add\n      sload\n        /* \"BCStaking.sol\":8429:8433  user */\n      dup6\n        /* \"BCStaking.sol\":8429:8442  user.deposits */\n      0x00\n      add\n        /* \"BCStaking.sol\":8443:8444  i */\n      dup3\n        /* \"BCStaking.sol\":8429:8445  user.deposits[i] */\n      dup2\n      sload\n      dup2\n      lt\n      tag_450\n      jumpi\n      tag_450\n      tag_132\n      jump\t// in\n    tag_450:\n      swap1\n      0x00\n      mstore\n      keccak256(0x00, 0x20)\n      swap1\n      0x05\n      mul\n      add\n        /* \"BCStaking.sol\":8429:8455  user.deposits[i].startTime */\n      0x02\n      add\n      sload\n        /* \"BCStaking.sol\":8429:8473  user.deposits[i].startTime > user.checkpoint */\n      gt\n        /* \"BCStaking.sol\":8425:9492  if (user.deposits[i].startTime > user.checkpoint) {... */\n      iszero\n      tag_452\n      jumpi\n        /* \"BCStaking.sol\":8514:8974  (... */\n      tag_453\n        /* \"BCStaking.sol\":516:522  1 days */\n      0x015180\n        /* \"BCStaking.sol\":8514:8929  (... */\n      tag_151\n        /* \"BCStaking.sol\":8770:8898  user.deposits[i].endTime.sub(... */\n      tag_430\n        /* \"BCStaking.sol\":8837:8841  user */\n      dup9\n        /* \"BCStaking.sol\":8837:8850  user.deposits */\n      0x00\n      add\n        /* \"BCStaking.sol\":8851:8852  i */\n      dup6\n        /* \"BCStaking.sol\":8837:8853  user.deposits[i] */\n      dup2\n      sload\n      dup2\n      lt\n      tag_457\n      jumpi\n      tag_457\n      tag_132\n      jump\t// in\n    tag_457:\n      swap1\n      0x00\n      mstore\n      keccak256(0x00, 0x20)\n      swap1\n      0x05\n      mul\n      add\n        /* \"BCStaking.sol\":8837:8863  user.deposits[i].startTime */\n      0x02\n      add\n      sload\n        /* \"BCStaking.sol\":8770:8774  user */\n      dup10\n        /* \"BCStaking.sol\":8770:8783  user.deposits */\n      0x00\n      add\n        /* \"BCStaking.sol\":8784:8785  i */\n      dup7\n        /* \"BCStaking.sol\":8770:8786  user.deposits[i] */\n      dup2\n      sload\n      dup2\n      lt\n      tag_178\n      jumpi\n      tag_178\n      tag_132\n      jump\t// in\n        /* \"BCStaking.sol\":8514:8974  (... */\n    tag_453:\n        /* \"BCStaking.sol\":8502:8974  dividends = (... */\n      swap2\n      pop\n        /* \"BCStaking.sol\":9026:9030  true */\n      0x01\n        /* \"BCStaking.sol\":9001:9005  user */\n      dup6\n        /* \"BCStaking.sol\":9001:9014  user.deposits */\n      0x00\n      add\n        /* \"BCStaking.sol\":9015:9016  i */\n      dup3\n        /* \"BCStaking.sol\":9001:9017  user.deposits[i] */\n      dup2\n      sload\n      dup2\n      lt\n      tag_468\n      jumpi\n      tag_468\n      tag_132\n      jump\t// in\n    tag_468:\n      0x00\n      swap2\n      dup3\n      mstore\n      0x20\n      swap1\n      swap2\n      keccak256\n      0x05\n      swap1\n      swap2\n      mul\n      add\n        /* \"BCStaking.sol\":9001:9023  user.deposits[i].ended */\n      0x04\n      add\n        /* \"BCStaking.sol\":9001:9030  user.deposits[i].ended = true */\n      dup1\n      sload\n      not(0xff)\n      and\n      swap2\n      iszero\n      iszero\n      swap2\n      swap1\n      swap2\n      or\n      swap1\n      sstore\n        /* \"BCStaking.sol\":8425:9492  if (user.deposits[i].startTime > user.checkpoint) {... */\n      jump(tag_470)\n    tag_452:\n        /* \"BCStaking.sol\":9099:9412  (... */\n      tag_471\n        /* \"BCStaking.sol\":516:522  1 days */\n      0x015180\n        /* \"BCStaking.sol\":9099:9367  (... */\n      tag_151\n        /* \"BCStaking.sol\":9321:9366  user.deposits[i].endTime.sub(user.checkpoint) */\n      tag_430\n        /* \"BCStaking.sol\":9350:9354  user */\n      dup9\n        /* \"BCStaking.sol\":9350:9365  user.checkpoint */\n      0x01\n      add\n      sload\n        /* \"BCStaking.sol\":9321:9325  user */\n      dup10\n        /* \"BCStaking.sol\":9321:9334  user.deposits */\n      0x00\n      add\n        /* \"BCStaking.sol\":9335:9336  i */\n      dup7\n        /* \"BCStaking.sol\":9321:9337  user.deposits[i] */\n      dup2\n      sload\n      dup2\n      lt\n      tag_178\n      jumpi\n      tag_178\n      tag_132\n      jump\t// in\n        /* \"BCStaking.sol\":9099:9412  (... */\n    tag_471:\n        /* \"BCStaking.sol\":9087:9412  dividends = (... */\n      swap2\n      pop\n        /* \"BCStaking.sol\":9464:9468  true */\n      0x01\n        /* \"BCStaking.sol\":9439:9443  user */\n      dup6\n        /* \"BCStaking.sol\":9439:9452  user.deposits */\n      0x00\n      add\n        /* \"BCStaking.sol\":9453:9454  i */\n      dup3\n        /* \"BCStaking.sol\":9439:9455  user.deposits[i] */\n      dup2\n      sload\n      dup2\n      lt\n      tag_483\n      jumpi\n      tag_483\n      tag_132\n      jump\t// in\n    tag_483:\n      0x00\n      swap2\n      dup3\n      mstore\n      0x20\n      swap1\n      swap2\n      keccak256\n      0x05\n      swap1\n      swap2\n      mul\n      add\n        /* \"BCStaking.sol\":9439:9461  user.deposits[i].ended */\n      0x04\n      add\n        /* \"BCStaking.sol\":9439:9468  user.deposits[i].ended = true */\n      dup1\n      sload\n      not(0xff)\n      and\n      swap2\n      iszero\n      iszero\n      swap2\n      swap1\n      swap2\n      or\n      swap1\n      sstore\n        /* \"BCStaking.sol\":8425:9492  if (user.deposits[i].startTime > user.checkpoint) {... */\n    tag_470:\n        /* \"BCStaking.sol\":9560:9641  user.deposits[i].withdrawn.add(... */\n      tag_485\n        /* \"BCStaking.sol\":9613:9622  dividends */\n      dup3\n        /* \"BCStaking.sol\":9560:9564  user */\n      dup7\n        /* \"BCStaking.sol\":9560:9573  user.deposits */\n      0x00\n      add\n        /* \"BCStaking.sol\":9574:9575  i */\n      dup4\n        /* \"BCStaking.sol\":9560:9576  user.deposits[i] */\n      dup2\n      sload\n      dup2\n      lt\n      tag_281\n      jumpi\n      tag_281\n      tag_132\n      jump\t// in\n        /* \"BCStaking.sol\":9560:9641  user.deposits[i].withdrawn.add(... */\n    tag_485:\n        /* \"BCStaking.sol\":9531:9535  user */\n      dup6\n        /* \"BCStaking.sol\":9531:9544  user.deposits */\n      0x00\n      add\n        /* \"BCStaking.sol\":9545:9546  i */\n      dup3\n        /* \"BCStaking.sol\":9531:9547  user.deposits[i] */\n      dup2\n      sload\n      dup2\n      lt\n      tag_490\n      jumpi\n      tag_490\n      tag_132\n      jump\t// in\n    tag_490:\n      0x00\n      swap2\n      dup3\n      mstore\n      0x20\n      swap1\n      swap2\n      keccak256\n        /* \"BCStaking.sol\":9531:9557  user.deposits[i].withdrawn */\n      0x01\n        /* \"BCStaking.sol\":9531:9547  user.deposits[i] */\n      0x05\n      swap1\n      swap3\n      mul\n      add\n        /* \"BCStaking.sol\":9531:9557  user.deposits[i].withdrawn */\n      add\n        /* \"BCStaking.sol\":9531:9641  user.deposits[i].withdrawn = user.deposits[i].withdrawn.add(... */\n      sstore\n        /* \"BCStaking.sol\":9703:9729  totalAmount.add(dividends) */\n      tag_492\n        /* \"BCStaking.sol\":9703:9714  totalAmount */\n      dup4\n        /* \"BCStaking.sol\":9719:9728  dividends */\n      dup4\n        /* \"BCStaking.sol\":9703:9718  totalAmount.add */\n      tag_198\n        /* \"BCStaking.sol\":9703:9729  totalAmount.add(dividends) */\n      jump\t// in\n    tag_492:\n        /* \"BCStaking.sol\":9689:9729  totalAmount = totalAmount.add(dividends) */\n      swap3\n      pop\n        /* \"BCStaking.sol\":7381:9745  if (user.deposits[i].ended == false) {... */\n    tag_419:\n        /* \"BCStaking.sol\":7361:7364  i++ */\n      dup1\n      tag_493\n      dup2\n      tag_200\n      jump\t// in\n    tag_493:\n      swap2\n      pop\n      pop\n        /* \"BCStaking.sol\":7315:9756  for (uint256 i = 0; i < user.deposits.length; i++) {... */\n      jump(tag_413)\n    tag_414:\n      pop\n        /* \"BCStaking.sol\":9786:9801  block.timestamp */\n      timestamp\n        /* \"BCStaking.sol\":9768:9783  user.checkpoint */\n      0x01\n      dup6\n      add\n        /* \"BCStaking.sol\":9768:9801  user.checkpoint = block.timestamp */\n      sstore\n        /* \"BCStaking.sol\":9828:9839  totalStaked */\n      sload(0x03)\n        /* \"BCStaking.sol\":9828:9855  totalStaked.add(_dividends) */\n      tag_494\n      swap1\n        /* \"BCStaking.sol\":9844:9854  _dividends */\n      dup5\n        /* \"BCStaking.sol\":9828:9843  totalStaked.add */\n      tag_198\n        /* \"BCStaking.sol\":9828:9855  totalStaked.add(_dividends) */\n      jump\t// in\n    tag_494:\n        /* \"BCStaking.sol\":9814:9825  totalStaked */\n      0x03\n        /* \"BCStaking.sol\":9814:9855  totalStaked = totalStaked.add(_dividends) */\n      sstore\n        /* \"BCStaking.sol\":9886:9903  totalDepositCount */\n      sload(0x05)\n        /* \"BCStaking.sol\":9886:9910  totalDepositCount.add(1) */\n      tag_495\n      swap1\n        /* \"BCStaking.sol\":9908:9909  1 */\n      0x01\n        /* \"BCStaking.sol\":9886:9907  totalDepositCount.add */\n      tag_198\n        /* \"BCStaking.sol\":9886:9910  totalDepositCount.add(1) */\n      jump\t// in\n    tag_495:\n        /* \"BCStaking.sol\":9866:9883  totalDepositCount */\n      0x05\n        /* \"BCStaking.sol\":9866:9910  totalDepositCount = totalDepositCount.add(1) */\n      sstore\n        /* \"BCStaking.sol\":9938:9952  totalWithdrawn */\n      sload(0x04)\n        /* \"BCStaking.sol\":9938:9969  totalWithdrawn.add(totalAmount) */\n      tag_496\n      swap1\n        /* \"BCStaking.sol\":9957:9968  totalAmount */\n      dup4\n        /* \"BCStaking.sol\":9938:9956  totalWithdrawn.add */\n      tag_198\n        /* \"BCStaking.sol\":9938:9969  totalWithdrawn.add(totalAmount) */\n      jump\t// in\n    tag_496:\n        /* \"BCStaking.sol\":9921:9935  totalWithdrawn */\n      0x04\n        /* \"BCStaking.sol\":9921:9969  totalWithdrawn = totalWithdrawn.add(totalAmount) */\n      sstore\n        /* \"BCStaking.sol\":10008:10046  onReinvestment(msg.sender, _dividends) */\n      mload(0x40)\n        /* \"#utility.yul\":160:185   */\n      dup4\n      dup2\n      mstore\n        /* \"BCStaking.sol\":10023:10033  msg.sender */\n      caller\n      swap1\n        /* \"BCStaking.sol\":10008:10046  onReinvestment(msg.sender, _dividends) */\n      0x5d511c2070e5a2dbcc6fbfbb3fd6704a11ab5fa74b793b81aacece2c7cc29405\n      swap1\n        /* \"#utility.yul\":148:150   */\n      0x20\n        /* \"#utility.yul\":133:151   */\n      add\n        /* \"BCStaking.sol\":10008:10046  onReinvestment(msg.sender, _dividends) */\n      mload(0x40)\n      dup1\n      swap2\n      sub\n      swap1\n      log2\n        /* \"BCStaking.sol\":6830:10054  {... */\n      pop\n      pop\n      pop\n      pop\n        /* \"BCStaking.sol\":6792:10054  function compound() public onlyhodler {... */\n      jump\t// out\n        /* \"BCStaking.sol\":15078:15439  function getUserTotalWithdrawn(address userAddress)... */\n    tag_124:\n      sub(shl(0xa0, 0x01), 0x01)\n        /* \"BCStaking.sol\":15223:15241  users[userAddress] */\n      dup2\n      and\n        /* \"BCStaking.sol\":15178:15185  uint256 */\n      0x00\n        /* \"BCStaking.sol\":15223:15241  users[userAddress] */\n      swap1\n      dup2\n      mstore\n        /* \"BCStaking.sol\":15223:15228  users */\n      0x06\n        /* \"BCStaking.sol\":15223:15241  users[userAddress] */\n      0x20\n      mstore\n      0x40\n      dup2\n      keccak256\n        /* \"BCStaking.sol\":15178:15185  uint256 */\n      dup2\n      dup1\n        /* \"BCStaking.sol\":15281:15406  for (uint256 i = 0; i < user.deposits.length; i++) {... */\n    tag_499:\n        /* \"BCStaking.sol\":15305:15325  user.deposits.length */\n      dup3\n      sload\n        /* \"BCStaking.sol\":15301:15325  i < user.deposits.length */\n      dup2\n      lt\n        /* \"BCStaking.sol\":15281:15406  for (uint256 i = 0; i < user.deposits.length; i++) {... */\n      iszero\n      tag_320\n      jumpi\n        /* \"BCStaking.sol\":15356:15394  amount.add(user.deposits[i].withdrawn) */\n      tag_502\n        /* \"BCStaking.sol\":15367:15371  user */\n      dup4\n        /* \"BCStaking.sol\":15367:15380  user.deposits */\n      0x00\n      add\n        /* \"BCStaking.sol\":15381:15382  i */\n      dup3\n        /* \"BCStaking.sol\":15367:15383  user.deposits[i] */\n      dup2\n      sload\n      dup2\n      lt\n      tag_504\n      jumpi\n      tag_504\n      tag_132\n      jump\t// in\n    tag_504:\n      swap1\n      0x00\n      mstore\n      keccak256(0x00, 0x20)\n      swap1\n      0x05\n      mul\n      add\n        /* \"BCStaking.sol\":15367:15393  user.deposits[i].withdrawn */\n      0x01\n      add\n      sload\n        /* \"BCStaking.sol\":15356:15362  amount */\n      dup4\n        /* \"BCStaking.sol\":15356:15366  amount.add */\n      tag_198\n      swap1\n        /* \"BCStaking.sol\":15356:15394  amount.add(user.deposits[i].withdrawn) */\n      swap2\n      swap1\n      0xffffffff\n      and\n      jump\t// in\n    tag_502:\n        /* \"BCStaking.sol\":15347:15394  amount = amount.add(user.deposits[i].withdrawn) */\n      swap2\n      pop\n        /* \"BCStaking.sol\":15327:15330  i++ */\n      dup1\n      tag_506\n      dup2\n      tag_200\n      jump\t// in\n    tag_506:\n      swap2\n      pop\n      pop\n        /* \"BCStaking.sol\":15281:15406  for (uint256 i = 0; i < user.deposits.length; i++) {... */\n      jump(tag_499)\n        /* \"@openzeppelin/contracts/utils/math/SafeMath.sol\":3122:3218  function sub(uint256 a, uint256 b) internal pure returns (uint256) {... */\n    tag_149:\n        /* \"@openzeppelin/contracts/utils/math/SafeMath.sol\":3180:3187  uint256 */\n      0x00\n        /* \"@openzeppelin/contracts/utils/math/SafeMath.sol\":3206:3211  a - b */\n      tag_508\n        /* \"@openzeppelin/contracts/utils/math/SafeMath.sol\":3210:3211  b */\n      dup3\n        /* \"@openzeppelin/contracts/utils/math/SafeMath.sol\":3206:3207  a */\n      dup5\n        /* \"@openzeppelin/contracts/utils/math/SafeMath.sol\":3206:3211  a - b */\n      tag_333\n      jump\t// in\n    tag_508:\n        /* \"@openzeppelin/contracts/utils/math/SafeMath.sol\":3199:3211  return a - b */\n      swap4\n        /* \"@openzeppelin/contracts/utils/math/SafeMath.sol\":3122:3218  function sub(uint256 a, uint256 b) internal pure returns (uint256) {... */\n      swap3\n      pop\n      pop\n      pop\n      jump\t// out\n        /* \"@openzeppelin/contracts/utils/math/SafeMath.sol\":3465:3561  function mul(uint256 a, uint256 b) internal pure returns (uint256) {... */\n    tag_155:\n        /* \"@openzeppelin/contracts/utils/math/SafeMath.sol\":3523:3530  uint256 */\n      0x00\n        /* \"@openzeppelin/contracts/utils/math/SafeMath.sol\":3549:3554  a * b */\n      tag_508\n        /* \"@openzeppelin/contracts/utils/math/SafeMath.sol\":3553:3554  b */\n      dup3\n        /* \"@openzeppelin/contracts/utils/math/SafeMath.sol\":3549:3550  a */\n      dup5\n        /* \"@openzeppelin/contracts/utils/math/SafeMath.sol\":3549:3554  a * b */\n      tag_511\n      jump\t// in\n        /* \"@openzeppelin/contracts/utils/math/SafeMath.sol\":3850:3946  function div(uint256 a, uint256 b) internal pure returns (uint256) {... */\n    tag_156:\n        /* \"@openzeppelin/contracts/utils/math/SafeMath.sol\":3908:3915  uint256 */\n      0x00\n        /* \"@openzeppelin/contracts/utils/math/SafeMath.sol\":3934:3939  a / b */\n      tag_508\n        /* \"@openzeppelin/contracts/utils/math/SafeMath.sol\":3938:3939  b */\n      dup3\n        /* \"@openzeppelin/contracts/utils/math/SafeMath.sol\":3934:3935  a */\n      dup5\n        /* \"@openzeppelin/contracts/utils/math/SafeMath.sol\":3934:3939  a / b */\n      tag_514\n      jump\t// in\n        /* \"@openzeppelin/contracts/utils/math/SafeMath.sol\":2755:2851  function add(uint256 a, uint256 b) internal pure returns (uint256) {... */\n    tag_198:\n        /* \"@openzeppelin/contracts/utils/math/SafeMath.sol\":2813:2820  uint256 */\n      0x00\n        /* \"@openzeppelin/contracts/utils/math/SafeMath.sol\":2839:2844  a + b */\n      tag_508\n        /* \"@openzeppelin/contracts/utils/math/SafeMath.sol\":2843:2844  b */\n      dup3\n        /* \"@openzeppelin/contracts/utils/math/SafeMath.sol\":2839:2840  a */\n      dup5\n        /* \"@openzeppelin/contracts/utils/math/SafeMath.sol\":2839:2844  a + b */\n      tag_367\n      jump\t// in\n        /* \"@openzeppelin/contracts/access/Ownable.sol\":2270:2457  function _transferOwnership(address newOwner) internal virtual {... */\n    tag_317:\n        /* \"@openzeppelin/contracts/access/Ownable.sol\":2343:2359  address oldOwner */\n      0x00\n        /* \"@openzeppelin/contracts/access/Ownable.sol\":2362:2368  _owner */\n      dup1\n      sload\n      sub(shl(0xa0, 0x01), 0x01)\n        /* \"@openzeppelin/contracts/access/Ownable.sol\":2378:2395  _owner = newOwner */\n      dup4\n      dup2\n      and\n      not(sub(shl(0xa0, 0x01), 0x01))\n      dup4\n      and\n      dup2\n      or\n      dup5\n      sstore\n        /* \"@openzeppelin/contracts/access/Ownable.sol\":2410:2450  OwnershipTransferred(oldOwner, newOwner) */\n      mload(0x40)\n        /* \"@openzeppelin/contracts/access/Ownable.sol\":2362:2368  _owner */\n      swap2\n      swap1\n      swap3\n      and\n      swap3\n      dup4\n      swap2\n        /* \"@openzeppelin/contracts/access/Ownable.sol\":2410:2450  OwnershipTransferred(oldOwner, newOwner) */\n      0x8be0079c531659141344cd1fd0a4f28419497f9722a3daafe3b4186f6b6457e0\n      swap2\n        /* \"@openzeppelin/contracts/access/Ownable.sol\":2343:2359  address oldOwner */\n      swap1\n        /* \"@openzeppelin/contracts/access/Ownable.sol\":2410:2450  OwnershipTransferred(oldOwner, newOwner) */\n      log3\n        /* \"@openzeppelin/contracts/access/Ownable.sol\":2333:2457  {... */\n      pop\n        /* \"@openzeppelin/contracts/access/Ownable.sol\":2270:2457  function _transferOwnership(address newOwner) internal virtual {... */\n      pop\n      jump\t// out\n        /* \"#utility.yul\":196:369   */\n    tag_519:\n        /* \"#utility.yul\":264:284   */\n      dup1\n      calldataload\n      sub(shl(0xa0, 0x01), 0x01)\n        /* \"#utility.yul\":313:344   */\n      dup2\n      and\n        /* \"#utility.yul\":303:345   */\n      dup2\n      eq\n        /* \"#utility.yul\":293:363   */\n      tag_524\n      jumpi\n        /* \"#utility.yul\":359:360   */\n      0x00\n        /* \"#utility.yul\":356:357   */\n      dup1\n        /* \"#utility.yul\":349:361   */\n      revert\n        /* \"#utility.yul\":293:363   */\n    tag_524:\n        /* \"#utility.yul\":196:369   */\n      swap2\n      swap1\n      pop\n      jump\t// out\n        /* \"#utility.yul\":374:560   */\n    tag_43:\n        /* \"#utility.yul\":433:439   */\n      0x00\n        /* \"#utility.yul\":486:488   */\n      0x20\n        /* \"#utility.yul\":474:483   */\n      dup3\n        /* \"#utility.yul\":465:472   */\n      dup5\n        /* \"#utility.yul\":461:484   */\n      sub\n        /* \"#utility.yul\":457:489   */\n      slt\n        /* \"#utility.yul\":454:506   */\n      iszero\n      tag_526\n      jumpi\n        /* \"#utility.yul\":502:503   */\n      0x00\n        /* \"#utility.yul\":499:500   */\n      dup1\n        /* \"#utility.yul\":492:504   */\n      revert\n        /* \"#utility.yul\":454:506   */\n    tag_526:\n        /* \"#utility.yul\":525:554   */\n      tag_508\n        /* \"#utility.yul\":544:553   */\n      dup3\n        /* \"#utility.yul\":525:554   */\n      tag_519\n      jump\t// in\n        /* \"#utility.yul\":965:1219   */\n    tag_92:\n        /* \"#utility.yul\":1033:1039   */\n      0x00\n        /* \"#utility.yul\":1041:1047   */\n      dup1\n        /* \"#utility.yul\":1094:1096   */\n      0x40\n        /* \"#utility.yul\":1082:1091   */\n      dup4\n        /* \"#utility.yul\":1073:1080   */\n      dup6\n        /* \"#utility.yul\":1069:1092   */\n      sub\n        /* \"#utility.yul\":1065:1097   */\n      slt\n        /* \"#utility.yul\":1062:1114   */\n      iszero\n      tag_531\n      jumpi\n        /* \"#utility.yul\":1110:1111   */\n      0x00\n        /* \"#utility.yul\":1107:1108   */\n      dup1\n        /* \"#utility.yul\":1100:1112   */\n      revert\n        /* \"#utility.yul\":1062:1114   */\n    tag_531:\n        /* \"#utility.yul\":1133:1162   */\n      tag_532\n        /* \"#utility.yul\":1152:1161   */\n      dup4\n        /* \"#utility.yul\":1133:1162   */\n      tag_519\n      jump\t// in\n    tag_532:\n        /* \"#utility.yul\":1123:1162   */\n      swap5\n        /* \"#utility.yul\":1209:1211   */\n      0x20\n        /* \"#utility.yul\":1194:1212   */\n      swap4\n      swap1\n      swap4\n      add\n        /* \"#utility.yul\":1181:1213   */\n      calldataload\n      swap4\n      pop\n      pop\n      pop\n        /* \"#utility.yul\":965:1219   */\n      jump\t// out\n        /* \"#utility.yul\":1702:1829   */\n    tag_132:\n        /* \"#utility.yul\":1763:1773   */\n      0x4e487b71\n        /* \"#utility.yul\":1758:1761   */\n      0xe0\n        /* \"#utility.yul\":1754:1774   */\n      shl\n        /* \"#utility.yul\":1751:1752   */\n      0x00\n        /* \"#utility.yul\":1744:1775   */\n      mstore\n        /* \"#utility.yul\":1794:1798   */\n      0x32\n        /* \"#utility.yul\":1791:1792   */\n      0x04\n        /* \"#utility.yul\":1784:1799   */\n      mstore\n        /* \"#utility.yul\":1818:1822   */\n      0x24\n        /* \"#utility.yul\":1815:1816   */\n      0x00\n        /* \"#utility.yul\":1808:1823   */\n      revert\n        /* \"#utility.yul\":1834:1961   */\n    tag_520:\n        /* \"#utility.yul\":1895:1905   */\n      0x4e487b71\n        /* \"#utility.yul\":1890:1893   */\n      0xe0\n        /* \"#utility.yul\":1886:1906   */\n      shl\n        /* \"#utility.yul\":1883:1884   */\n      0x00\n        /* \"#utility.yul\":1876:1907   */\n      mstore\n        /* \"#utility.yul\":1926:1930   */\n      0x11\n        /* \"#utility.yul\":1923:1924   */\n      0x04\n        /* \"#utility.yul\":1916:1931   */\n      mstore\n        /* \"#utility.yul\":1950:1954   */\n      0x24\n        /* \"#utility.yul\":1947:1948   */\n      0x00\n        /* \"#utility.yul\":1940:1955   */\n      revert\n        /* \"#utility.yul\":1966:2101   */\n    tag_200:\n        /* \"#utility.yul\":2005:2008   */\n      0x00\n      not(0x00)\n        /* \"#utility.yul\":2026:2043   */\n      dup3\n      eq\n        /* \"#utility.yul\":2023:2066   */\n      iszero\n      tag_538\n      jumpi\n        /* \"#utility.yul\":2046:2064   */\n      tag_538\n      tag_520\n      jump\t// in\n    tag_538:\n      pop\n        /* \"#utility.yul\":2093:2094   */\n      0x01\n        /* \"#utility.yul\":2082:2095   */\n      add\n      swap1\n        /* \"#utility.yul\":1966:2101   */\n      jump\t// out\n        /* \"#utility.yul\":2456:2640   */\n    tag_298:\n        /* \"#utility.yul\":2526:2532   */\n      0x00\n        /* \"#utility.yul\":2579:2581   */\n      0x20\n        /* \"#utility.yul\":2567:2576   */\n      dup3\n        /* \"#utility.yul\":2558:2565   */\n      dup5\n        /* \"#utility.yul\":2554:2577   */\n      sub\n        /* \"#utility.yul\":2550:2582   */\n      slt\n        /* \"#utility.yul\":2547:2599   */\n      iszero\n      tag_541\n      jumpi\n        /* \"#utility.yul\":2595:2596   */\n      0x00\n        /* \"#utility.yul\":2592:2593   */\n      dup1\n        /* \"#utility.yul\":2585:2597   */\n      revert\n        /* \"#utility.yul\":2547:2599   */\n    tag_541:\n      pop\n        /* \"#utility.yul\":2618:2634   */\n      mload\n      swap2\n        /* \"#utility.yul\":2456:2640   */\n      swap1\n      pop\n      jump\t// out\n        /* \"#utility.yul\":2924:3201   */\n    tag_305:\n        /* \"#utility.yul\":2991:2997   */\n      0x00\n        /* \"#utility.yul\":3044:3046   */\n      0x20\n        /* \"#utility.yul\":3032:3041   */\n      dup3\n        /* \"#utility.yul\":3023:3030   */\n      dup5\n        /* \"#utility.yul\":3019:3042   */\n      sub\n        /* \"#utility.yul\":3015:3047   */\n      slt\n        /* \"#utility.yul\":3012:3064   */\n      iszero\n      tag_544\n      jumpi\n        /* \"#utility.yul\":3060:3061   */\n      0x00\n        /* \"#utility.yul\":3057:3058   */\n      dup1\n        /* \"#utility.yul\":3050:3062   */\n      revert\n        /* \"#utility.yul\":3012:3064   */\n    tag_544:\n        /* \"#utility.yul\":3092:3101   */\n      dup2\n        /* \"#utility.yul\":3086:3102   */\n      mload\n        /* \"#utility.yul\":3145:3150   */\n      dup1\n        /* \"#utility.yul\":3138:3151   */\n      iszero\n        /* \"#utility.yul\":3131:3152   */\n      iszero\n        /* \"#utility.yul\":3124:3129   */\n      dup2\n        /* \"#utility.yul\":3121:3153   */\n      eq\n        /* \"#utility.yul\":3111:3171   */\n      tag_508\n      jumpi\n        /* \"#utility.yul\":3167:3168   */\n      0x00\n        /* \"#utility.yul\":3164:3165   */\n      dup1\n        /* \"#utility.yul\":3157:3169   */\n      revert\n        /* \"#utility.yul\":3567:3692   */\n    tag_333:\n        /* \"#utility.yul\":3607:3611   */\n      0x00\n        /* \"#utility.yul\":3635:3636   */\n      dup3\n        /* \"#utility.yul\":3632:3633   */\n      dup3\n        /* \"#utility.yul\":3629:3637   */\n      lt\n        /* \"#utility.yul\":3626:3660   */\n      iszero\n      tag_549\n      jumpi\n        /* \"#utility.yul\":3640:3658   */\n      tag_549\n      tag_520\n      jump\t// in\n    tag_549:\n      pop\n        /* \"#utility.yul\":3677:3686   */\n      sub\n      swap1\n        /* \"#utility.yul\":3567:3692   */\n      jump\t// out\n        /* \"#utility.yul\":4077:4205   */\n    tag_367:\n        /* \"#utility.yul\":4117:4120   */\n      0x00\n        /* \"#utility.yul\":4148:4149   */\n      dup3\n        /* \"#utility.yul\":4144:4150   */\n      not\n        /* \"#utility.yul\":4141:4142   */\n      dup3\n        /* \"#utility.yul\":4138:4151   */\n      gt\n        /* \"#utility.yul\":4135:4174   */\n      iszero\n      tag_553\n      jumpi\n        /* \"#utility.yul\":4154:4172   */\n      tag_553\n      tag_520\n      jump\t// in\n    tag_553:\n      pop\n        /* \"#utility.yul\":4190:4199   */\n      add\n      swap1\n        /* \"#utility.yul\":4077:4205   */\n      jump\t// out\n        /* \"#utility.yul\":4956:5124   */\n    tag_511:\n        /* \"#utility.yul\":4996:5003   */\n      0x00\n        /* \"#utility.yul\":5062:5063   */\n      dup2\n        /* \"#utility.yul\":5058:5059   */\n      0x00\n        /* \"#utility.yul\":5054:5060   */\n      not\n        /* \"#utility.yul\":5050:5064   */\n      div\n        /* \"#utility.yul\":5047:5048   */\n      dup4\n        /* \"#utility.yul\":5044:5065   */\n      gt\n        /* \"#utility.yul\":5039:5040   */\n      dup3\n        /* \"#utility.yul\":5032:5041   */\n      iszero\n        /* \"#utility.yul\":5025:5042   */\n      iszero\n        /* \"#utility.yul\":5021:5066   */\n      and\n        /* \"#utility.yul\":5018:5089   */\n      iszero\n      tag_558\n      jumpi\n        /* \"#utility.yul\":5069:5087   */\n      tag_558\n      tag_520\n      jump\t// in\n    tag_558:\n      pop\n        /* \"#utility.yul\":5109:5118   */\n      mul\n      swap1\n        /* \"#utility.yul\":4956:5124   */\n      jump\t// out\n        /* \"#utility.yul\":5129:5346   */\n    tag_514:\n        /* \"#utility.yul\":5169:5170   */\n      0x00\n        /* \"#utility.yul\":5195:5196   */\n      dup3\n        /* \"#utility.yul\":5185:5317   */\n      tag_560\n      jumpi\n        /* \"#utility.yul\":5239:5249   */\n      0x4e487b71\n        /* \"#utility.yul\":5234:5237   */\n      0xe0\n        /* \"#utility.yul\":5230:5250   */\n      shl\n        /* \"#utility.yul\":5227:5228   */\n      0x00\n        /* \"#utility.yul\":5220:5251   */\n      mstore\n        /* \"#utility.yul\":5274:5278   */\n      0x12\n        /* \"#utility.yul\":5271:5272   */\n      0x04\n        /* \"#utility.yul\":5264:5279   */\n      mstore\n        /* \"#utility.yul\":5302:5306   */\n      0x24\n        /* \"#utility.yul\":5299:5300   */\n      0x00\n        /* \"#utility.yul\":5292:5307   */\n      revert\n        /* \"#utility.yul\":5185:5317   */\n    tag_560:\n      pop\n        /* \"#utility.yul\":5331:5340   */\n      div\n      swap1\n        /* \"#utility.yul\":5129:5346   */\n      jump\t// out\n\n    auxdata: 0xa264697066735822122028b21e6828e56226c59a0c55f0c0f7e98962f79a0aaf0ef05d5c211ca2d35ad264736f6c634300080a0033\n}\n",
				"bytecode": {
					"linkReferences": {},
					"object": "608060405234801561001057600080fd5b506040516118b63803806118b683398101604081905261002f916100ad565b6100383361005d565b600180546001600160a01b0319166001600160a01b03929092169190911790556100dd565b600080546001600160a01b038381166001600160a01b0319831681178455604051919092169283917f8be0079c531659141344cd1fd0a4f28419497f9722a3daafe3b4186f6b6457e09190a35050565b6000602082840312156100bf57600080fd5b81516001600160a01b03811681146100d657600080fd5b9392505050565b6117ca806100ec6000396000f3fe608060405234801561001057600080fd5b506004361061018e5760003560e01c80638da5cb5b116100de578063c8a22eb411610097578063e85abe0911610071578063e85abe091461038e578063f2fde38b146103ba578063f69e2046146103cd578063fb4cb32b146103d557600080fd5b8063c8a22eb41461032d578063d634386714610359578063d7ffca911461036257600080fd5b80638da5cb5b146102775780639f8a13d714610288578063a8aeb6c2146102ab578063adc9772e146102d4578063bff1f9e1146102e7578063c0806b03146102f057600080fd5b806336144c9a1161014b5780634e71d92d116101255780634e71d92d14610249578063715018a6146102535780637e3abeea1461025b578063817b1cd21461026e57600080fd5b806336144c9a146101f157806344038f90146102385780634b3197131461024057600080fd5b80630104db1b1461019357806301c234a8146101b0578063040a772e146101b9578063141a2a3f146101cc578063153ab9df146101d457806332bc298c146101e7575b600080fd5b61019d62ed4e0081565b6040519081526020015b60405180910390f35b61019d6103e881565b61019d6101c736600461165d565b6103e8565b61019d600f81565b61019d6101e236600461165d565b610639565b61019d6201518081565b6102206101ff36600461165d565b6001600160a01b039081166000908152600660205260409020600401541690565b6040516001600160a01b0390911681526020016101a7565b61019d607881565b61019d60045481565b61025161066f565b005b610251610a9d565b61019d61026936600461165d565b610b03565b61019d60035481565b6000546001600160a01b0316610220565b61029b61029636600461165d565b610b73565b60405190151581526020016101a7565b61019d6102b936600461165d565b6001600160a01b031660009081526006602052604090205490565b6102516102e2366004611678565b610c0b565b61019d60025481565b6103036102fe366004611678565b610f99565b6040805195865260208601949094529284019190915260608301521515608082015260a0016101a7565b61019d61033b36600461165d565b6001600160a01b031660009081526006602052604090206003015490565b61019d60055481565b61019d61037036600461165d565b6001600160a01b031660009081526006602052604090206001015490565b61019d61039c36600461165d565b6001600160a01b031660009081526006602052604090206002015490565b6102516103c836600461165d565b611095565b610251611160565b61019d6103e336600461165d565b611549565b6001600160a01b03811660009081526006602052604081208180805b835481101561062f57836000018181548110610422576104226116a2565b600091825260209091206004600590920201015460ff1661061d5742846000018281548110610453576104536116a2565b906000526020600020906005020160030154111561054b578360010154846000018281548110610485576104856116a2565b906000526020600020906005020160020154111561052a57610523620151806105176104e08760000185815481106104bf576104bf6116a2565b906000526020600020906005020160020154426115ba90919063ffffffff16565b61051d6103e8610517600f8b6000018981548110610500576105006116a2565b6000918252602090912060059091020154906115cd565b906115d9565b906115cd565b9150610610565b610523620151806105176104e08760010154426115ba90919063ffffffff16565b8360010154846000018281548110610565576105656116a2565b90600052602060002090600502016002015411156105e657610523620151806105176104e087600001858154811061059f5761059f6116a2565b9060005260206000209060050201600201548860000186815481106105c6576105c66116a2565b9060005260206000209060050201600301546115ba90919063ffffffff16565b61060d620151806105176104e087600101548860000186815481106105c6576105c66116a2565b91505b61061a83836115e5565b92505b80610627816116ce565b915050610404565b5090949350505050565b6000610669610647836103e8565b6001600160a01b038416600090815260066020526040902060020154906115e5565b92915050565b3360009081526006602052604081209080805b83548110156108dd578360000181815481106106a0576106a06116a2565b600091825260209091206004600590920201015460ff166108cb57428460000182815481106106d1576106d16116a2565b9060005260206000209060050201600301541115610765578360010154846000018281548110610703576107036116a2565b90600052602060002090600502016002015411156107445761073d620151806105176104e08760000185815481106104bf576104bf6116a2565b915061085c565b61073d620151806105176104e08760010154426115ba90919063ffffffff16565b836001015484600001828154811061077f5761077f6116a2565b90600052602060002090600502016002015411156107f9576107b9620151806105176104e087600001858154811061059f5761059f6116a2565b915060018460000182815481106107d2576107d26116a2565b60009182526020909120600590910201600401805460ff191691151591909117905561085c565b610820620151806105176104e087600101548860000186815481106105c6576105c66116a2565b91506001846000018281548110610839576108396116a2565b60009182526020909120600590910201600401805460ff19169115159190911790555b61089582856000018381548110610875576108756116a2565b9060005260206000209060050201600101546115e590919063ffffffff16565b8460000182815481106108aa576108aa6116a2565b60009182526020909120600160059092020101556108c883836115e5565b92505b806108d5816116ce565b915050610682565b5033600090815260066020526040902060020154801561090b5761090183826115e5565b6000600286015592505b600083116109585760405162461bcd60e51b81526020600482015260156024820152745573657220686173206e6f206469766964656e647360581b60448201526064015b60405180910390fd5b6001546040516370a0823160e01b81523060048201526000916001600160a01b0316906370a0823190602401602060405180830381865afa1580156109a1573d6000803e3d6000fd5b505050506040513d601f19601f820116820180604052508101906109c591906116e9565b9050838110156109d3578093505b426001868101919091555460405163a9059cbb60e01b8152336004820152602481018690526001600160a01b039091169063a9059cbb906044016020604051808303816000875af1158015610a2c573d6000803e3d6000fd5b505050506040513d601f19601f82011682018060405250810190610a509190611702565b50600454610a5e90856115e5565b60045560405184815233907f7084f5476618d8e60b11ef0d7d3f06914655adb8793e28ff7f018d4c76d505d59060200160405180910390a25050505050565b6000546001600160a01b03163314610af75760405162461bcd60e51b815260206004820181905260248201527f4f776e61626c653a2063616c6c6572206973206e6f7420746865206f776e6572604482015260640161094f565b610b0160006115f1565b565b6001600160a01b038116600090815260066020526040812081805b8254811015610b6b57610b57836000018281548110610b3f57610b3f6116a2565b600091825260209091206005909102015483906115e5565b915080610b63816116ce565b915050610b1e565b509392505050565b6001600160a01b0381166000908152600660205260408120805415610c02578054610bc1906064906105179061016d908590610bb190600190611724565b81548110610500576105006116a2565b81548290610bd190600190611724565b81548110610be157610be16116a2565b9060005260206000209060050201600101541015610c025750600192915050565b50600092915050565b6001546040516323b872dd60e01b8152336004820152306024820152604481018390526001600160a01b03909116906323b872dd906064016020604051808303816000875af1158015610c62573d6000803e3d6000fd5b505050506040513d601f19601f82011682018060405250810190610c869190611702565b50336000908152600660205260408082206001600160a01b038516835291205415801590610cbd57506001600160a01b0383163314155b15610ce0576004810180546001600160a01b0319166001600160a01b0385161790555b60048101546001600160a01b031615610d9b5760048101546001600160a01b03168015610d99576000610d1a6103e86105178660786115cd565b6001600160a01b038316600090815260066020526040902060020154909150610d4390826115e5565b6001600160a01b038316600081815260066020908152604091829020600201939093555183815233927f328838ddfc48ad5ae5531b1ad95dfb22b42ff1866853e474375ffef2c63d8e50910160405180910390a3505b505b8054610dee5742600180830191909155600254610db7916115e5565b6002556040513381527f9fd565cd14c3c391679eb0cad12a14dcf7534e9d3462bcb9b67a098a9bbbc24a9060200160405180910390a15b60048101546001600160a01b031615610eae576040805160a08101909152819080610e2a610e236103e86105178860786115cd565b86906115ba565b81526020016000815260200142815260200162ed4e0042610e4b919061173b565b81526000602091820181905283546001808201865594825290829020835160059092020190815590820151928101929092556040810151600283015560608101516003830155608001516004909101805460ff1916911515919091179055610f3e565b806000016040518060a001604052808481526020016000815260200142815260200162ed4e0042610edf919061173b565b81526000602091820181905283546001808201865594825290829020835160059092020190815590820151928101929092556040810151600283015560608101516003830155608001516004909101805460ff19169115159190911790555b600354610f4b90836115e5565b600355600554610f5c9060016115e5565b60055560405182815233907f2cb77763bc1e8490c1a904905c4d74b4269919aca114464f4bb4d911e60de3649060200160405180910390a2505050565b6001600160a01b038216600090815260066020526040812080548291829182918291819088908110610fcd57610fcd6116a2565b906000526020600020906005020160000154816000018881548110610ff457610ff46116a2565b90600052602060002090600502016001015482600001898154811061101b5761101b6116a2565b906000526020600020906005020160020154836000018a81548110611042576110426116a2565b906000526020600020906005020160030154846000018b81548110611069576110696116a2565b6000918252602090912060059091020160040154939c929b50909950975060ff90911695509350505050565b6000546001600160a01b031633146110ef5760405162461bcd60e51b815260206004820181905260248201527f4f776e61626c653a2063616c6c6572206973206e6f7420746865206f776e6572604482015260640161094f565b6001600160a01b0381166111545760405162461bcd60e51b815260206004820152602660248201527f4f776e61626c653a206e6577206f776e657220697320746865207a65726f206160448201526564647265737360d01b606482015260840161094f565b61115d816115f1565b50565b600061116b336103e8565b116111a55760405162461bcd60e51b815260206004820152600a6024820152692737ba102437b63232b960b11b604482015260640161094f565b336000818152600660205260408120916111be906103e8565b9050600080836000016040518060a001604052808581526020016000815260200142815260200162ed4e00426111f4919061173b565b8152600060209182018190528354600180820186559482528282208451600590920201908155918301519382019390935560408201516002820155606082015160038201556080909101516004909101805460ff19169115159190911790555b84548110156114d657846000018181548110611272576112726116a2565b600091825260209091206004600590920201015460ff166114c457428560000182815481106112a3576112a36116a2565b90600052602060002090600502016003015411156113575784600101548560000182815481106112d5576112d56116a2565b90600052602060002090600502016002015411156113365761132f6201518061051761130f8860000185815481106104bf576104bf6116a2565b61051d6103e8610517600f8c6000018981548110610500576105006116a2565b9150611475565b61132f6201518061051761130f8860010154426115ba90919063ffffffff16565b8460010154856000018281548110611371576113716116a2565b9060005260206000209060050201600201541115611412576113d26201518061051761130f8860000185815481106113ab576113ab6116a2565b9060005260206000209060050201600201548960000186815481106105c6576105c66116a2565b915060018560000182815481106113eb576113eb6116a2565b60009182526020909120600590910201600401805460ff1916911515919091179055611475565b6114396201518061051761130f88600101548960000186815481106105c6576105c66116a2565b91506001856000018281548110611452576114526116a2565b60009182526020909120600590910201600401805460ff19169115159190911790555b61148e82866000018381548110610875576108756116a2565b8560000182815481106114a3576114a36116a2565b60009182526020909120600160059092020101556114c183836115e5565b92505b806114ce816116ce565b915050611254565b504260018501556003546114ea90846115e5565b6003556005546114fb9060016115e5565b60055560045461150b90836115e5565b60045560405183815233907f5d511c2070e5a2dbcc6fbfbb3fd6704a11ab5fa74b793b81aacece2c7cc294059060200160405180910390a250505050565b6001600160a01b038116600090815260066020526040812081805b8254811015610b6b576115a6836000018281548110611585576115856116a2565b906000526020600020906005020160010154836115e590919063ffffffff16565b9150806115b2816116ce565b915050611564565b60006115c68284611724565b9392505050565b60006115c68284611753565b60006115c68284611772565b60006115c6828461173b565b600080546001600160a01b038381166001600160a01b0319831681178455604051919092169283917f8be0079c531659141344cd1fd0a4f28419497f9722a3daafe3b4186f6b6457e09190a35050565b80356001600160a01b038116811461165857600080fd5b919050565b60006020828403121561166f57600080fd5b6115c682611641565b6000806040838503121561168b57600080fd5b61169483611641565b946020939093013593505050565b634e487b7160e01b600052603260045260246000fd5b634e487b7160e01b600052601160045260246000fd5b60006000198214156116e2576116e26116b8565b5060010190565b6000602082840312156116fb57600080fd5b5051919050565b60006020828403121561171457600080fd5b815180151581146115c657600080fd5b600082821015611736576117366116b8565b500390565b6000821982111561174e5761174e6116b8565b500190565b600081600019048311821515161561176d5761176d6116b8565b500290565b60008261178f57634e487b7160e01b600052601260045260246000fd5b50049056fea264697066735822122028b21e6828e56226c59a0c55f0c0f7e98962f79a0aaf0ef05d5c211ca2d35ad264736f6c634300080a0033",
					"opcodes": "PUSH1 0x80 PUSH1 0x40 MSTORE CALLVALUE DUP1 ISZERO PUSH2 0x10 JUMPI PUSH1 0x0 DUP1 REVERT JUMPDEST POP PUSH1 0x40 MLOAD PUSH2 0x18B6 CODESIZE SUB DUP1 PUSH2 0x18B6 DUP4 CODECOPY DUP2 ADD PUSH1 0x40 DUP2 SWAP1 MSTORE PUSH2 0x2F SWAP2 PUSH2 0xAD JUMP JUMPDEST PUSH2 0x38 CALLER PUSH2 0x5D JUMP JUMPDEST PUSH1 0x1 DUP1 SLOAD PUSH1 0x1 PUSH1 0x1 PUSH1 0xA0 SHL SUB NOT AND PUSH1 0x1 PUSH1 0x1 PUSH1 0xA0 SHL SUB SWAP3 SWAP1 SWAP3 AND SWAP2 SWAP1 SWAP2 OR SWAP1 SSTORE PUSH2 0xDD JUMP JUMPDEST PUSH1 0x0 DUP1 SLOAD PUSH1 0x1 PUSH1 0x1 PUSH1 0xA0 SHL SUB DUP4 DUP2 AND PUSH1 0x1 PUSH1 0x1 PUSH1 0xA0 SHL SUB NOT DUP4 AND DUP2 OR DUP5 SSTORE PUSH1 0x40 MLOAD SWAP2 SWAP1 SWAP3 AND SWAP3 DUP4 SWAP2 PUSH32 0x8BE0079C531659141344CD1FD0A4F28419497F9722A3DAAFE3B4186F6B6457E0 SWAP2 SWAP1 LOG3 POP POP JUMP JUMPDEST PUSH1 0x0 PUSH1 0x20 DUP3 DUP5 SUB SLT ISZERO PUSH2 0xBF JUMPI PUSH1 0x0 DUP1 REVERT JUMPDEST DUP2 MLOAD PUSH1 0x1 PUSH1 0x1 PUSH1 0xA0 SHL SUB DUP2 AND DUP2 EQ PUSH2 0xD6 JUMPI PUSH1 0x0 DUP1 REVERT JUMPDEST SWAP4 SWAP3 POP POP POP JUMP JUMPDEST PUSH2 0x17CA DUP1 PUSH2 0xEC PUSH1 0x0 CODECOPY PUSH1 0x0 RETURN INVALID PUSH1 0x80 PUSH1 0x40 MSTORE CALLVALUE DUP1 ISZERO PUSH2 0x10 JUMPI PUSH1 0x0 DUP1 REVERT JUMPDEST POP PUSH1 0x4 CALLDATASIZE LT PUSH2 0x18E JUMPI PUSH1 0x0 CALLDATALOAD PUSH1 0xE0 SHR DUP1 PUSH4 0x8DA5CB5B GT PUSH2 0xDE JUMPI DUP1 PUSH4 0xC8A22EB4 GT PUSH2 0x97 JUMPI DUP1 PUSH4 0xE85ABE09 GT PUSH2 0x71 JUMPI DUP1 PUSH4 0xE85ABE09 EQ PUSH2 0x38E JUMPI DUP1 PUSH4 0xF2FDE38B EQ PUSH2 0x3BA JUMPI DUP1 PUSH4 0xF69E2046 EQ PUSH2 0x3CD JUMPI DUP1 PUSH4 0xFB4CB32B EQ PUSH2 0x3D5 JUMPI PUSH1 0x0 DUP1 REVERT JUMPDEST DUP1 PUSH4 0xC8A22EB4 EQ PUSH2 0x32D JUMPI DUP1 PUSH4 0xD6343867 EQ PUSH2 0x359 JUMPI DUP1 PUSH4 0xD7FFCA91 EQ PUSH2 0x362 JUMPI PUSH1 0x0 DUP1 REVERT JUMPDEST DUP1 PUSH4 0x8DA5CB5B EQ PUSH2 0x277 JUMPI DUP1 PUSH4 0x9F8A13D7 EQ PUSH2 0x288 JUMPI DUP1 PUSH4 0xA8AEB6C2 EQ PUSH2 0x2AB JUMPI DUP1 PUSH4 0xADC9772E EQ PUSH2 0x2D4 JUMPI DUP1 PUSH4 0xBFF1F9E1 EQ PUSH2 0x2E7 JUMPI DUP1 PUSH4 0xC0806B03 EQ PUSH2 0x2F0 JUMPI PUSH1 0x0 DUP1 REVERT JUMPDEST DUP1 PUSH4 0x36144C9A GT PUSH2 0x14B JUMPI DUP1 PUSH4 0x4E71D92D GT PUSH2 0x125 JUMPI DUP1 PUSH4 0x4E71D92D EQ PUSH2 0x249 JUMPI DUP1 PUSH4 0x715018A6 EQ PUSH2 0x253 JUMPI DUP1 PUSH4 0x7E3ABEEA EQ PUSH2 0x25B JUMPI DUP1 PUSH4 0x817B1CD2 EQ PUSH2 0x26E JUMPI PUSH1 0x0 DUP1 REVERT JUMPDEST DUP1 PUSH4 0x36144C9A EQ PUSH2 0x1F1 JUMPI DUP1 PUSH4 0x44038F90 EQ PUSH2 0x238 JUMPI DUP1 PUSH4 0x4B319713 EQ PUSH2 0x240 JUMPI PUSH1 0x0 DUP1 REVERT JUMPDEST DUP1 PUSH4 0x104DB1B EQ PUSH2 0x193 JUMPI DUP1 PUSH4 0x1C234A8 EQ PUSH2 0x1B0 JUMPI DUP1 PUSH4 0x40A772E EQ PUSH2 0x1B9 JUMPI DUP1 PUSH4 0x141A2A3F EQ PUSH2 0x1CC JUMPI DUP1 PUSH4 0x153AB9DF EQ PUSH2 0x1D4 JUMPI DUP1 PUSH4 0x32BC298C EQ PUSH2 0x1E7 JUMPI JUMPDEST PUSH1 0x0 DUP1 REVERT JUMPDEST PUSH2 0x19D PUSH3 0xED4E00 DUP2 JUMP JUMPDEST PUSH1 0x40 MLOAD SWAP1 DUP2 MSTORE PUSH1 0x20 ADD JUMPDEST PUSH1 0x40 MLOAD DUP1 SWAP2 SUB SWAP1 RETURN JUMPDEST PUSH2 0x19D PUSH2 0x3E8 DUP2 JUMP JUMPDEST PUSH2 0x19D PUSH2 0x1C7 CALLDATASIZE PUSH1 0x4 PUSH2 0x165D JUMP JUMPDEST PUSH2 0x3E8 JUMP JUMPDEST PUSH2 0x19D PUSH1 0xF DUP2 JUMP JUMPDEST PUSH2 0x19D PUSH2 0x1E2 CALLDATASIZE PUSH1 0x4 PUSH2 0x165D JUMP JUMPDEST PUSH2 0x639 JUMP JUMPDEST PUSH2 0x19D PUSH3 0x15180 DUP2 JUMP JUMPDEST PUSH2 0x220 PUSH2 0x1FF CALLDATASIZE PUSH1 0x4 PUSH2 0x165D JUMP JUMPDEST PUSH1 0x1 PUSH1 0x1 PUSH1 0xA0 SHL SUB SWAP1 DUP2 AND PUSH1 0x0 SWAP1 DUP2 MSTORE PUSH1 0x6 PUSH1 0x20 MSTORE PUSH1 0x40 SWAP1 KECCAK256 PUSH1 0x4 ADD SLOAD AND SWAP1 JUMP JUMPDEST PUSH1 0x40 MLOAD PUSH1 0x1 PUSH1 0x1 PUSH1 0xA0 SHL SUB SWAP1 SWAP2 AND DUP2 MSTORE PUSH1 0x20 ADD PUSH2 0x1A7 JUMP JUMPDEST PUSH2 0x19D PUSH1 0x78 DUP2 JUMP JUMPDEST PUSH2 0x19D PUSH1 0x4 SLOAD DUP2 JUMP JUMPDEST PUSH2 0x251 PUSH2 0x66F JUMP JUMPDEST STOP JUMPDEST PUSH2 0x251 PUSH2 0xA9D JUMP JUMPDEST PUSH2 0x19D PUSH2 0x269 CALLDATASIZE PUSH1 0x4 PUSH2 0x165D JUMP JUMPDEST PUSH2 0xB03 JUMP JUMPDEST PUSH2 0x19D PUSH1 0x3 SLOAD DUP2 JUMP JUMPDEST PUSH1 0x0 SLOAD PUSH1 0x1 PUSH1 0x1 PUSH1 0xA0 SHL SUB AND PUSH2 0x220 JUMP JUMPDEST PUSH2 0x29B PUSH2 0x296 CALLDATASIZE PUSH1 0x4 PUSH2 0x165D JUMP JUMPDEST PUSH2 0xB73 JUMP JUMPDEST PUSH1 0x40 MLOAD SWAP1 ISZERO ISZERO DUP2 MSTORE PUSH1 0x20 ADD PUSH2 0x1A7 JUMP JUMPDEST PUSH2 0x19D PUSH2 0x2B9 CALLDATASIZE PUSH1 0x4 PUSH2 0x165D JUMP JUMPDEST PUSH1 0x1 PUSH1 0x1 PUSH1 0xA0 SHL SUB AND PUSH1 0x0 SWAP1 DUP2 MSTORE PUSH1 0x6 PUSH1 0x20 MSTORE PUSH1 0x40 SWAP1 KECCAK256 SLOAD SWAP1 JUMP JUMPDEST PUSH2 0x251 PUSH2 0x2E2 CALLDATASIZE PUSH1 0x4 PUSH2 0x1678 JUMP JUMPDEST PUSH2 0xC0B JUMP JUMPDEST PUSH2 0x19D PUSH1 0x2 SLOAD DUP2 JUMP JUMPDEST PUSH2 0x303 PUSH2 0x2FE CALLDATASIZE PUSH1 0x4 PUSH2 0x1678 JUMP JUMPDEST PUSH2 0xF99 JUMP JUMPDEST PUSH1 0x40 DUP1 MLOAD SWAP6 DUP7 MSTORE PUSH1 0x20 DUP7 ADD SWAP5 SWAP1 SWAP5 MSTORE SWAP3 DUP5 ADD SWAP2 SWAP1 SWAP2 MSTORE PUSH1 0x60 DUP4 ADD MSTORE ISZERO ISZERO PUSH1 0x80 DUP3 ADD MSTORE PUSH1 0xA0 ADD PUSH2 0x1A7 JUMP JUMPDEST PUSH2 0x19D PUSH2 0x33B CALLDATASIZE PUSH1 0x4 PUSH2 0x165D JUMP JUMPDEST PUSH1 0x1 PUSH1 0x1 PUSH1 0xA0 SHL SUB AND PUSH1 0x0 SWAP1 DUP2 MSTORE PUSH1 0x6 PUSH1 0x20 MSTORE PUSH1 0x40 SWAP1 KECCAK256 PUSH1 0x3 ADD SLOAD SWAP1 JUMP JUMPDEST PUSH2 0x19D PUSH1 0x5 SLOAD DUP2 JUMP JUMPDEST PUSH2 0x19D PUSH2 0x370 CALLDATASIZE PUSH1 0x4 PUSH2 0x165D JUMP JUMPDEST PUSH1 0x1 PUSH1 0x1 PUSH1 0xA0 SHL SUB AND PUSH1 0x0 SWAP1 DUP2 MSTORE PUSH1 0x6 PUSH1 0x20 MSTORE PUSH1 0x40 SWAP1 KECCAK256 PUSH1 0x1 ADD SLOAD SWAP1 JUMP JUMPDEST PUSH2 0x19D PUSH2 0x39C CALLDATASIZE PUSH1 0x4 PUSH2 0x165D JUMP JUMPDEST PUSH1 0x1 PUSH1 0x1 PUSH1 0xA0 SHL SUB AND PUSH1 0x0 SWAP1 DUP2 MSTORE PUSH1 0x6 PUSH1 0x20 MSTORE PUSH1 0x40 SWAP1 KECCAK256 PUSH1 0x2 ADD SLOAD SWAP1 JUMP JUMPDEST PUSH2 0x251 PUSH2 0x3C8 CALLDATASIZE PUSH1 0x4 PUSH2 0x165D JUMP JUMPDEST PUSH2 0x1095 JUMP JUMPDEST PUSH2 0x251 PUSH2 0x1160 JUMP JUMPDEST PUSH2 0x19D PUSH2 0x3E3 CALLDATASIZE PUSH1 0x4 PUSH2 0x165D JUMP JUMPDEST PUSH2 0x1549 JUMP JUMPDEST PUSH1 0x1 PUSH1 0x1 PUSH1 0xA0 SHL SUB DUP2 AND PUSH1 0x0 SWAP1 DUP2 MSTORE PUSH1 0x6 PUSH1 0x20 MSTORE PUSH1 0x40 DUP2 KECCAK256 DUP2 DUP1 DUP1 JUMPDEST DUP4 SLOAD DUP2 LT ISZERO PUSH2 0x62F JUMPI DUP4 PUSH1 0x0 ADD DUP2 DUP2 SLOAD DUP2 LT PUSH2 0x422 JUMPI PUSH2 0x422 PUSH2 0x16A2 JUMP JUMPDEST PUSH1 0x0 SWAP2 DUP3 MSTORE PUSH1 0x20 SWAP1 SWAP2 KECCAK256 PUSH1 0x4 PUSH1 0x5 SWAP1 SWAP3 MUL ADD ADD SLOAD PUSH1 0xFF AND PUSH2 0x61D JUMPI TIMESTAMP DUP5 PUSH1 0x0 ADD DUP3 DUP2 SLOAD DUP2 LT PUSH2 0x453 JUMPI PUSH2 0x453 PUSH2 0x16A2 JUMP JUMPDEST SWAP1 PUSH1 0x0 MSTORE PUSH1 0x20 PUSH1 0x0 KECCAK256 SWAP1 PUSH1 0x5 MUL ADD PUSH1 0x3 ADD SLOAD GT ISZERO PUSH2 0x54B JUMPI DUP4 PUSH1 0x1 ADD SLOAD DUP5 PUSH1 0x0 ADD DUP3 DUP2 SLOAD DUP2 LT PUSH2 0x485 JUMPI PUSH2 0x485 PUSH2 0x16A2 JUMP JUMPDEST SWAP1 PUSH1 0x0 MSTORE PUSH1 0x20 PUSH1 0x0 KECCAK256 SWAP1 PUSH1 0x5 MUL ADD PUSH1 0x2 ADD SLOAD GT ISZERO PUSH2 0x52A JUMPI PUSH2 0x523 PUSH3 0x15180 PUSH2 0x517 PUSH2 0x4E0 DUP8 PUSH1 0x0 ADD DUP6 DUP2 SLOAD DUP2 LT PUSH2 0x4BF JUMPI PUSH2 0x4BF PUSH2 0x16A2 JUMP JUMPDEST SWAP1 PUSH1 0x0 MSTORE PUSH1 0x20 PUSH1 0x0 KECCAK256 SWAP1 PUSH1 0x5 MUL ADD PUSH1 0x2 ADD SLOAD TIMESTAMP PUSH2 0x15BA SWAP1 SWAP2 SWAP1 PUSH4 0xFFFFFFFF AND JUMP JUMPDEST PUSH2 0x51D PUSH2 0x3E8 PUSH2 0x517 PUSH1 0xF DUP12 PUSH1 0x0 ADD DUP10 DUP2 SLOAD DUP2 LT PUSH2 0x500 JUMPI PUSH2 0x500 PUSH2 0x16A2 JUMP JUMPDEST PUSH1 0x0 SWAP2 DUP3 MSTORE PUSH1 0x20 SWAP1 SWAP2 KECCAK256 PUSH1 0x5 SWAP1 SWAP2 MUL ADD SLOAD SWAP1 PUSH2 0x15CD JUMP JUMPDEST SWAP1 PUSH2 0x15D9 JUMP JUMPDEST SWAP1 PUSH2 0x15CD JUMP JUMPDEST SWAP2 POP PUSH2 0x610 JUMP JUMPDEST PUSH2 0x523 PUSH3 0x15180 PUSH2 0x517 PUSH2 0x4E0 DUP8 PUSH1 0x1 ADD SLOAD TIMESTAMP PUSH2 0x15BA SWAP1 SWAP2 SWAP1 PUSH4 0xFFFFFFFF AND JUMP JUMPDEST DUP4 PUSH1 0x1 ADD SLOAD DUP5 PUSH1 0x0 ADD DUP3 DUP2 SLOAD DUP2 LT PUSH2 0x565 JUMPI PUSH2 0x565 PUSH2 0x16A2 JUMP JUMPDEST SWAP1 PUSH1 0x0 MSTORE PUSH1 0x20 PUSH1 0x0 KECCAK256 SWAP1 PUSH1 0x5 MUL ADD PUSH1 0x2 ADD SLOAD GT ISZERO PUSH2 0x5E6 JUMPI PUSH2 0x523 PUSH3 0x15180 PUSH2 0x517 PUSH2 0x4E0 DUP8 PUSH1 0x0 ADD DUP6 DUP2 SLOAD DUP2 LT PUSH2 0x59F JUMPI PUSH2 0x59F PUSH2 0x16A2 JUMP JUMPDEST SWAP1 PUSH1 0x0 MSTORE PUSH1 0x20 PUSH1 0x0 KECCAK256 SWAP1 PUSH1 0x5 MUL ADD PUSH1 0x2 ADD SLOAD DUP9 PUSH1 0x0 ADD DUP7 DUP2 SLOAD DUP2 LT PUSH2 0x5C6 JUMPI PUSH2 0x5C6 PUSH2 0x16A2 JUMP JUMPDEST SWAP1 PUSH1 0x0 MSTORE PUSH1 0x20 PUSH1 0x0 KECCAK256 SWAP1 PUSH1 0x5 MUL ADD PUSH1 0x3 ADD SLOAD PUSH2 0x15BA SWAP1 SWAP2 SWAP1 PUSH4 0xFFFFFFFF AND JUMP JUMPDEST PUSH2 0x60D PUSH3 0x15180 PUSH2 0x517 PUSH2 0x4E0 DUP8 PUSH1 0x1 ADD SLOAD DUP9 PUSH1 0x0 ADD DUP7 DUP2 SLOAD DUP2 LT PUSH2 0x5C6 JUMPI PUSH2 0x5C6 PUSH2 0x16A2 JUMP JUMPDEST SWAP2 POP JUMPDEST PUSH2 0x61A DUP4 DUP4 PUSH2 0x15E5 JUMP JUMPDEST SWAP3 POP JUMPDEST DUP1 PUSH2 0x627 DUP2 PUSH2 0x16CE JUMP JUMPDEST SWAP2 POP POP PUSH2 0x404 JUMP JUMPDEST POP SWAP1 SWAP5 SWAP4 POP POP POP POP JUMP JUMPDEST PUSH1 0x0 PUSH2 0x669 PUSH2 0x647 DUP4 PUSH2 0x3E8 JUMP JUMPDEST PUSH1 0x1 PUSH1 0x1 PUSH1 0xA0 SHL SUB DUP5 AND PUSH1 0x0 SWAP1 DUP2 MSTORE PUSH1 0x6 PUSH1 0x20 MSTORE PUSH1 0x40 SWAP1 KECCAK256 PUSH1 0x2 ADD SLOAD SWAP1 PUSH2 0x15E5 JUMP JUMPDEST SWAP3 SWAP2 POP POP JUMP JUMPDEST CALLER PUSH1 0x0 SWAP1 DUP2 MSTORE PUSH1 0x6 PUSH1 0x20 MSTORE PUSH1 0x40 DUP2 KECCAK256 SWAP1 DUP1 DUP1 JUMPDEST DUP4 SLOAD DUP2 LT ISZERO PUSH2 0x8DD JUMPI DUP4 PUSH1 0x0 ADD DUP2 DUP2 SLOAD DUP2 LT PUSH2 0x6A0 JUMPI PUSH2 0x6A0 PUSH2 0x16A2 JUMP JUMPDEST PUSH1 0x0 SWAP2 DUP3 MSTORE PUSH1 0x20 SWAP1 SWAP2 KECCAK256 PUSH1 0x4 PUSH1 0x5 SWAP1 SWAP3 MUL ADD ADD SLOAD PUSH1 0xFF AND PUSH2 0x8CB JUMPI TIMESTAMP DUP5 PUSH1 0x0 ADD DUP3 DUP2 SLOAD DUP2 LT PUSH2 0x6D1 JUMPI PUSH2 0x6D1 PUSH2 0x16A2 JUMP JUMPDEST SWAP1 PUSH1 0x0 MSTORE PUSH1 0x20 PUSH1 0x0 KECCAK256 SWAP1 PUSH1 0x5 MUL ADD PUSH1 0x3 ADD SLOAD GT ISZERO PUSH2 0x765 JUMPI DUP4 PUSH1 0x1 ADD SLOAD DUP5 PUSH1 0x0 ADD DUP3 DUP2 SLOAD DUP2 LT PUSH2 0x703 JUMPI PUSH2 0x703 PUSH2 0x16A2 JUMP JUMPDEST SWAP1 PUSH1 0x0 MSTORE PUSH1 0x20 PUSH1 0x0 KECCAK256 SWAP1 PUSH1 0x5 MUL ADD PUSH1 0x2 ADD SLOAD GT ISZERO PUSH2 0x744 JUMPI PUSH2 0x73D PUSH3 0x15180 PUSH2 0x517 PUSH2 0x4E0 DUP8 PUSH1 0x0 ADD DUP6 DUP2 SLOAD DUP2 LT PUSH2 0x4BF JUMPI PUSH2 0x4BF PUSH2 0x16A2 JUMP JUMPDEST SWAP2 POP PUSH2 0x85C JUMP JUMPDEST PUSH2 0x73D PUSH3 0x15180 PUSH2 0x517 PUSH2 0x4E0 DUP8 PUSH1 0x1 ADD SLOAD TIMESTAMP PUSH2 0x15BA SWAP1 SWAP2 SWAP1 PUSH4 0xFFFFFFFF AND JUMP JUMPDEST DUP4 PUSH1 0x1 ADD SLOAD DUP5 PUSH1 0x0 ADD DUP3 DUP2 SLOAD DUP2 LT PUSH2 0x77F JUMPI PUSH2 0x77F PUSH2 0x16A2 JUMP JUMPDEST SWAP1 PUSH1 0x0 MSTORE PUSH1 0x20 PUSH1 0x0 KECCAK256 SWAP1 PUSH1 0x5 MUL ADD PUSH1 0x2 ADD SLOAD GT ISZERO PUSH2 0x7F9 JUMPI PUSH2 0x7B9 PUSH3 0x15180 PUSH2 0x517 PUSH2 0x4E0 DUP8 PUSH1 0x0 ADD DUP6 DUP2 SLOAD DUP2 LT PUSH2 0x59F JUMPI PUSH2 0x59F PUSH2 0x16A2 JUMP JUMPDEST SWAP2 POP PUSH1 0x1 DUP5 PUSH1 0x0 ADD DUP3 DUP2 SLOAD DUP2 LT PUSH2 0x7D2 JUMPI PUSH2 0x7D2 PUSH2 0x16A2 JUMP JUMPDEST PUSH1 0x0 SWAP2 DUP3 MSTORE PUSH1 0x20 SWAP1 SWAP2 KECCAK256 PUSH1 0x5 SWAP1 SWAP2 MUL ADD PUSH1 0x4 ADD DUP1 SLOAD PUSH1 0xFF NOT AND SWAP2 ISZERO ISZERO SWAP2 SWAP1 SWAP2 OR SWAP1 SSTORE PUSH2 0x85C JUMP JUMPDEST PUSH2 0x820 PUSH3 0x15180 PUSH2 0x517 PUSH2 0x4E0 DUP8 PUSH1 0x1 ADD SLOAD DUP9 PUSH1 0x0 ADD DUP7 DUP2 SLOAD DUP2 LT PUSH2 0x5C6 JUMPI PUSH2 0x5C6 PUSH2 0x16A2 JUMP JUMPDEST SWAP2 POP PUSH1 0x1 DUP5 PUSH1 0x0 ADD DUP3 DUP2 SLOAD DUP2 LT PUSH2 0x839 JUMPI PUSH2 0x839 PUSH2 0x16A2 JUMP JUMPDEST PUSH1 0x0 SWAP2 DUP3 MSTORE PUSH1 0x20 SWAP1 SWAP2 KECCAK256 PUSH1 0x5 SWAP1 SWAP2 MUL ADD PUSH1 0x4 ADD DUP1 SLOAD PUSH1 0xFF NOT AND SWAP2 ISZERO ISZERO SWAP2 SWAP1 SWAP2 OR SWAP1 SSTORE JUMPDEST PUSH2 0x895 DUP3 DUP6 PUSH1 0x0 ADD DUP4 DUP2 SLOAD DUP2 LT PUSH2 0x875 JUMPI PUSH2 0x875 PUSH2 0x16A2 JUMP JUMPDEST SWAP1 PUSH1 0x0 MSTORE PUSH1 0x20 PUSH1 0x0 KECCAK256 SWAP1 PUSH1 0x5 MUL ADD PUSH1 0x1 ADD SLOAD PUSH2 0x15E5 SWAP1 SWAP2 SWAP1 PUSH4 0xFFFFFFFF AND JUMP JUMPDEST DUP5 PUSH1 0x0 ADD DUP3 DUP2 SLOAD DUP2 LT PUSH2 0x8AA JUMPI PUSH2 0x8AA PUSH2 0x16A2 JUMP JUMPDEST PUSH1 0x0 SWAP2 DUP3 MSTORE PUSH1 0x20 SWAP1 SWAP2 KECCAK256 PUSH1 0x1 PUSH1 0x5 SWAP1 SWAP3 MUL ADD ADD SSTORE PUSH2 0x8C8 DUP4 DUP4 PUSH2 0x15E5 JUMP JUMPDEST SWAP3 POP JUMPDEST DUP1 PUSH2 0x8D5 DUP2 PUSH2 0x16CE JUMP JUMPDEST SWAP2 POP POP PUSH2 0x682 JUMP JUMPDEST POP CALLER PUSH1 0x0 SWAP1 DUP2 MSTORE PUSH1 0x6 PUSH1 0x20 MSTORE PUSH1 0x40 SWAP1 KECCAK256 PUSH1 0x2 ADD SLOAD DUP1 ISZERO PUSH2 0x90B JUMPI PUSH2 0x901 DUP4 DUP3 PUSH2 0x15E5 JUMP JUMPDEST PUSH1 0x0 PUSH1 0x2 DUP7 ADD SSTORE SWAP3 POP JUMPDEST PUSH1 0x0 DUP4 GT PUSH2 0x958 JUMPI PUSH1 0x40 MLOAD PUSH3 0x461BCD PUSH1 0xE5 SHL DUP2 MSTORE PUSH1 0x20 PUSH1 0x4 DUP3 ADD MSTORE PUSH1 0x15 PUSH1 0x24 DUP3 ADD MSTORE PUSH21 0x5573657220686173206E6F206469766964656E6473 PUSH1 0x58 SHL PUSH1 0x44 DUP3 ADD MSTORE PUSH1 0x64 ADD JUMPDEST PUSH1 0x40 MLOAD DUP1 SWAP2 SUB SWAP1 REVERT JUMPDEST PUSH1 0x1 SLOAD PUSH1 0x40 MLOAD PUSH4 0x70A08231 PUSH1 0xE0 SHL DUP2 MSTORE ADDRESS PUSH1 0x4 DUP3 ADD MSTORE PUSH1 0x0 SWAP2 PUSH1 0x1 PUSH1 0x1 PUSH1 0xA0 SHL SUB AND SWAP1 PUSH4 0x70A08231 SWAP1 PUSH1 0x24 ADD PUSH1 0x20 PUSH1 0x40 MLOAD DUP1 DUP4 SUB DUP2 DUP7 GAS STATICCALL ISZERO DUP1 ISZERO PUSH2 0x9A1 JUMPI RETURNDATASIZE PUSH1 0x0 DUP1 RETURNDATACOPY RETURNDATASIZE PUSH1 0x0 REVERT JUMPDEST POP POP POP POP PUSH1 0x40 MLOAD RETURNDATASIZE PUSH1 0x1F NOT PUSH1 0x1F DUP3 ADD AND DUP3 ADD DUP1 PUSH1 0x40 MSTORE POP DUP2 ADD SWAP1 PUSH2 0x9C5 SWAP2 SWAP1 PUSH2 0x16E9 JUMP JUMPDEST SWAP1 POP DUP4 DUP2 LT ISZERO PUSH2 0x9D3 JUMPI DUP1 SWAP4 POP JUMPDEST TIMESTAMP PUSH1 0x1 DUP7 DUP2 ADD SWAP2 SWAP1 SWAP2 SSTORE SLOAD PUSH1 0x40 MLOAD PUSH4 0xA9059CBB PUSH1 0xE0 SHL DUP2 MSTORE CALLER PUSH1 0x4 DUP3 ADD MSTORE PUSH1 0x24 DUP2 ADD DUP7 SWAP1 MSTORE PUSH1 0x1 PUSH1 0x1 PUSH1 0xA0 SHL SUB SWAP1 SWAP2 AND SWAP1 PUSH4 0xA9059CBB SWAP1 PUSH1 0x44 ADD PUSH1 0x20 PUSH1 0x40 MLOAD DUP1 DUP4 SUB DUP2 PUSH1 0x0 DUP8 GAS CALL ISZERO DUP1 ISZERO PUSH2 0xA2C JUMPI RETURNDATASIZE PUSH1 0x0 DUP1 RETURNDATACOPY RETURNDATASIZE PUSH1 0x0 REVERT JUMPDEST POP POP POP POP PUSH1 0x40 MLOAD RETURNDATASIZE PUSH1 0x1F NOT PUSH1 0x1F DUP3 ADD AND DUP3 ADD DUP1 PUSH1 0x40 MSTORE POP DUP2 ADD SWAP1 PUSH2 0xA50 SWAP2 SWAP1 PUSH2 0x1702 JUMP JUMPDEST POP PUSH1 0x4 SLOAD PUSH2 0xA5E SWAP1 DUP6 PUSH2 0x15E5 JUMP JUMPDEST PUSH1 0x4 SSTORE PUSH1 0x40 MLOAD DUP5 DUP2 MSTORE CALLER SWAP1 PUSH32 0x7084F5476618D8E60B11EF0D7D3F06914655ADB8793E28FF7F018D4C76D505D5 SWAP1 PUSH1 0x20 ADD PUSH1 0x40 MLOAD DUP1 SWAP2 SUB SWAP1 LOG2 POP POP POP POP POP JUMP JUMPDEST PUSH1 0x0 SLOAD PUSH1 0x1 PUSH1 0x1 PUSH1 0xA0 SHL SUB AND CALLER EQ PUSH2 0xAF7 JUMPI PUSH1 0x40 MLOAD PUSH3 0x461BCD PUSH1 0xE5 SHL DUP2 MSTORE PUSH1 0x20 PUSH1 0x4 DUP3 ADD DUP2 SWAP1 MSTORE PUSH1 0x24 DUP3 ADD MSTORE PUSH32 0x4F776E61626C653A2063616C6C6572206973206E6F7420746865206F776E6572 PUSH1 0x44 DUP3 ADD MSTORE PUSH1 0x64 ADD PUSH2 0x94F JUMP JUMPDEST PUSH2 0xB01 PUSH1 0x0 PUSH2 0x15F1 JUMP JUMPDEST JUMP JUMPDEST PUSH1 0x1 PUSH1 0x1 PUSH1 0xA0 SHL SUB DUP2 AND PUSH1 0x0 SWAP1 DUP2 MSTORE PUSH1 0x6 PUSH1 0x20 MSTORE PUSH1 0x40 DUP2 KECCAK256 DUP2 DUP1 JUMPDEST DUP3 SLOAD DUP2 LT ISZERO PUSH2 0xB6B JUMPI PUSH2 0xB57 DUP4 PUSH1 0x0 ADD DUP3 DUP2 SLOAD DUP2 LT PUSH2 0xB3F JUMPI PUSH2 0xB3F PUSH2 0x16A2 JUMP JUMPDEST PUSH1 0x0 SWAP2 DUP3 MSTORE PUSH1 0x20 SWAP1 SWAP2 KECCAK256 PUSH1 0x5 SWAP1 SWAP2 MUL ADD SLOAD DUP4 SWAP1 PUSH2 0x15E5 JUMP JUMPDEST SWAP2 POP DUP1 PUSH2 0xB63 DUP2 PUSH2 0x16CE JUMP JUMPDEST SWAP2 POP POP PUSH2 0xB1E JUMP JUMPDEST POP SWAP4 SWAP3 POP POP POP JUMP JUMPDEST PUSH1 0x1 PUSH1 0x1 PUSH1 0xA0 SHL SUB DUP2 AND PUSH1 0x0 SWAP1 DUP2 MSTORE PUSH1 0x6 PUSH1 0x20 MSTORE PUSH1 0x40 DUP2 KECCAK256 DUP1 SLOAD ISZERO PUSH2 0xC02 JUMPI DUP1 SLOAD PUSH2 0xBC1 SWAP1 PUSH1 0x64 SWAP1 PUSH2 0x517 SWAP1 PUSH2 0x16D SWAP1 DUP6 SWAP1 PUSH2 0xBB1 SWAP1 PUSH1 0x1 SWAP1 PUSH2 0x1724 JUMP JUMPDEST DUP2 SLOAD DUP2 LT PUSH2 0x500 JUMPI PUSH2 0x500 PUSH2 0x16A2 JUMP JUMPDEST DUP2 SLOAD DUP3 SWAP1 PUSH2 0xBD1 SWAP1 PUSH1 0x1 SWAP1 PUSH2 0x1724 JUMP JUMPDEST DUP2 SLOAD DUP2 LT PUSH2 0xBE1 JUMPI PUSH2 0xBE1 PUSH2 0x16A2 JUMP JUMPDEST SWAP1 PUSH1 0x0 MSTORE PUSH1 0x20 PUSH1 0x0 KECCAK256 SWAP1 PUSH1 0x5 MUL ADD PUSH1 0x1 ADD SLOAD LT ISZERO PUSH2 0xC02 JUMPI POP PUSH1 0x1 SWAP3 SWAP2 POP POP JUMP JUMPDEST POP PUSH1 0x0 SWAP3 SWAP2 POP POP JUMP JUMPDEST PUSH1 0x1 SLOAD PUSH1 0x40 MLOAD PUSH4 0x23B872DD PUSH1 0xE0 SHL DUP2 MSTORE CALLER PUSH1 0x4 DUP3 ADD MSTORE ADDRESS PUSH1 0x24 DUP3 ADD MSTORE PUSH1 0x44 DUP2 ADD DUP4 SWAP1 MSTORE PUSH1 0x1 PUSH1 0x1 PUSH1 0xA0 SHL SUB SWAP1 SWAP2 AND SWAP1 PUSH4 0x23B872DD SWAP1 PUSH1 0x64 ADD PUSH1 0x20 PUSH1 0x40 MLOAD DUP1 DUP4 SUB DUP2 PUSH1 0x0 DUP8 GAS CALL ISZERO DUP1 ISZERO PUSH2 0xC62 JUMPI RETURNDATASIZE PUSH1 0x0 DUP1 RETURNDATACOPY RETURNDATASIZE PUSH1 0x0 REVERT JUMPDEST POP POP POP POP PUSH1 0x40 MLOAD RETURNDATASIZE PUSH1 0x1F NOT PUSH1 0x1F DUP3 ADD AND DUP3 ADD DUP1 PUSH1 0x40 MSTORE POP DUP2 ADD SWAP1 PUSH2 0xC86 SWAP2 SWAP1 PUSH2 0x1702 JUMP JUMPDEST POP CALLER PUSH1 0x0 SWAP1 DUP2 MSTORE PUSH1 0x6 PUSH1 0x20 MSTORE PUSH1 0x40 DUP1 DUP3 KECCAK256 PUSH1 0x1 PUSH1 0x1 PUSH1 0xA0 SHL SUB DUP6 AND DUP4 MSTORE SWAP2 KECCAK256 SLOAD ISZERO DUP1 ISZERO SWAP1 PUSH2 0xCBD JUMPI POP PUSH1 0x1 PUSH1 0x1 PUSH1 0xA0 SHL SUB DUP4 AND CALLER EQ ISZERO JUMPDEST ISZERO PUSH2 0xCE0 JUMPI PUSH1 0x4 DUP2 ADD DUP1 SLOAD PUSH1 0x1 PUSH1 0x1 PUSH1 0xA0 SHL SUB NOT AND PUSH1 0x1 PUSH1 0x1 PUSH1 0xA0 SHL SUB DUP6 AND OR SWAP1 SSTORE JUMPDEST PUSH1 0x4 DUP2 ADD SLOAD PUSH1 0x1 PUSH1 0x1 PUSH1 0xA0 SHL SUB AND ISZERO PUSH2 0xD9B JUMPI PUSH1 0x4 DUP2 ADD SLOAD PUSH1 0x1 PUSH1 0x1 PUSH1 0xA0 SHL SUB AND DUP1 ISZERO PUSH2 0xD99 JUMPI PUSH1 0x0 PUSH2 0xD1A PUSH2 0x3E8 PUSH2 0x517 DUP7 PUSH1 0x78 PUSH2 0x15CD JUMP JUMPDEST PUSH1 0x1 PUSH1 0x1 PUSH1 0xA0 SHL SUB DUP4 AND PUSH1 0x0 SWAP1 DUP2 MSTORE PUSH1 0x6 PUSH1 0x20 MSTORE PUSH1 0x40 SWAP1 KECCAK256 PUSH1 0x2 ADD SLOAD SWAP1 SWAP2 POP PUSH2 0xD43 SWAP1 DUP3 PUSH2 0x15E5 JUMP JUMPDEST PUSH1 0x1 PUSH1 0x1 PUSH1 0xA0 SHL SUB DUP4 AND PUSH1 0x0 DUP2 DUP2 MSTORE PUSH1 0x6 PUSH1 0x20 SWAP1 DUP2 MSTORE PUSH1 0x40 SWAP2 DUP3 SWAP1 KECCAK256 PUSH1 0x2 ADD SWAP4 SWAP1 SWAP4 SSTORE MLOAD DUP4 DUP2 MSTORE CALLER SWAP3 PUSH32 0x328838DDFC48AD5AE5531B1AD95DFB22B42FF1866853E474375FFEF2C63D8E50 SWAP2 ADD PUSH1 0x40 MLOAD DUP1 SWAP2 SUB SWAP1 LOG3 POP JUMPDEST POP JUMPDEST DUP1 SLOAD PUSH2 0xDEE JUMPI TIMESTAMP PUSH1 0x1 DUP1 DUP4 ADD SWAP2 SWAP1 SWAP2 SSTORE PUSH1 0x2 SLOAD PUSH2 0xDB7 SWAP2 PUSH2 0x15E5 JUMP JUMPDEST PUSH1 0x2 SSTORE PUSH1 0x40 MLOAD CALLER DUP2 MSTORE PUSH32 0x9FD565CD14C3C391679EB0CAD12A14DCF7534E9D3462BCB9B67A098A9BBBC24A SWAP1 PUSH1 0x20 ADD PUSH1 0x40 MLOAD DUP1 SWAP2 SUB SWAP1 LOG1 JUMPDEST PUSH1 0x4 DUP2 ADD SLOAD PUSH1 0x1 PUSH1 0x1 PUSH1 0xA0 SHL SUB AND ISZERO PUSH2 0xEAE JUMPI PUSH1 0x40 DUP1 MLOAD PUSH1 0xA0 DUP2 ADD SWAP1 SWAP2 MSTORE DUP2 SWAP1 DUP1 PUSH2 0xE2A PUSH2 0xE23 PUSH2 0x3E8 PUSH2 0x517 DUP9 PUSH1 0x78 PUSH2 0x15CD JUMP JUMPDEST DUP7 SWAP1 PUSH2 0x15BA JUMP JUMPDEST DUP2 MSTORE PUSH1 0x20 ADD PUSH1 0x0 DUP2 MSTORE PUSH1 0x20 ADD TIMESTAMP DUP2 MSTORE PUSH1 0x20 ADD PUSH3 0xED4E00 TIMESTAMP PUSH2 0xE4B SWAP2 SWAP1 PUSH2 0x173B JUMP JUMPDEST DUP2 MSTORE PUSH1 0x0 PUSH1 0x20 SWAP2 DUP3 ADD DUP2 SWAP1 MSTORE DUP4 SLOAD PUSH1 0x1 DUP1 DUP3 ADD DUP7 SSTORE SWAP5 DUP3 MSTORE SWAP1 DUP3 SWAP1 KECCAK256 DUP4 MLOAD PUSH1 0x5 SWAP1 SWAP3 MUL ADD SWAP1 DUP2 SSTORE SWAP1 DUP3 ADD MLOAD SWAP3 DUP2 ADD SWAP3 SWAP1 SWAP3 SSTORE PUSH1 0x40 DUP2 ADD MLOAD PUSH1 0x2 DUP4 ADD SSTORE PUSH1 0x60 DUP2 ADD MLOAD PUSH1 0x3 DUP4 ADD SSTORE PUSH1 0x80 ADD MLOAD PUSH1 0x4 SWAP1 SWAP2 ADD DUP1 SLOAD PUSH1 0xFF NOT AND SWAP2 ISZERO ISZERO SWAP2 SWAP1 SWAP2 OR SWAP1 SSTORE PUSH2 0xF3E JUMP JUMPDEST DUP1 PUSH1 0x0 ADD PUSH1 0x40 MLOAD DUP1 PUSH1 0xA0 ADD PUSH1 0x40 MSTORE DUP1 DUP5 DUP2 MSTORE PUSH1 0x20 ADD PUSH1 0x0 DUP2 MSTORE PUSH1 0x20 ADD TIMESTAMP DUP2 MSTORE PUSH1 0x20 ADD PUSH3 0xED4E00 TIMESTAMP PUSH2 0xEDF SWAP2 SWAP1 PUSH2 0x173B JUMP JUMPDEST DUP2 MSTORE PUSH1 0x0 PUSH1 0x20 SWAP2 DUP3 ADD DUP2 SWAP1 MSTORE DUP4 SLOAD PUSH1 0x1 DUP1 DUP3 ADD DUP7 SSTORE SWAP5 DUP3 MSTORE SWAP1 DUP3 SWAP1 KECCAK256 DUP4 MLOAD PUSH1 0x5 SWAP1 SWAP3 MUL ADD SWAP1 DUP2 SSTORE SWAP1 DUP3 ADD MLOAD SWAP3 DUP2 ADD SWAP3 SWAP1 SWAP3 SSTORE PUSH1 0x40 DUP2 ADD MLOAD PUSH1 0x2 DUP4 ADD SSTORE PUSH1 0x60 DUP2 ADD MLOAD PUSH1 0x3 DUP4 ADD SSTORE PUSH1 0x80 ADD MLOAD PUSH1 0x4 SWAP1 SWAP2 ADD DUP1 SLOAD PUSH1 0xFF NOT AND SWAP2 ISZERO ISZERO SWAP2 SWAP1 SWAP2 OR SWAP1 SSTORE JUMPDEST PUSH1 0x3 SLOAD PUSH2 0xF4B SWAP1 DUP4 PUSH2 0x15E5 JUMP JUMPDEST PUSH1 0x3 SSTORE PUSH1 0x5 SLOAD PUSH2 0xF5C SWAP1 PUSH1 0x1 PUSH2 0x15E5 JUMP JUMPDEST PUSH1 0x5 SSTORE PUSH1 0x40 MLOAD DUP3 DUP2 MSTORE CALLER SWAP1 PUSH32 0x2CB77763BC1E8490C1A904905C4D74B4269919ACA114464F4BB4D911E60DE364 SWAP1 PUSH1 0x20 ADD PUSH1 0x40 MLOAD DUP1 SWAP2 SUB SWAP1 LOG2 POP POP POP JUMP JUMPDEST PUSH1 0x1 PUSH1 0x1 PUSH1 0xA0 SHL SUB DUP3 AND PUSH1 0x0 SWAP1 DUP2 MSTORE PUSH1 0x6 PUSH1 0x20 MSTORE PUSH1 0x40 DUP2 KECCAK256 DUP1 SLOAD DUP3 SWAP2 DUP3 SWAP2 DUP3 SWAP2 DUP3 SWAP2 DUP2 SWAP1 DUP9 SWAP1 DUP2 LT PUSH2 0xFCD JUMPI PUSH2 0xFCD PUSH2 0x16A2 JUMP JUMPDEST SWAP1 PUSH1 0x0 MSTORE PUSH1 0x20 PUSH1 0x0 KECCAK256 SWAP1 PUSH1 0x5 MUL ADD PUSH1 0x0 ADD SLOAD DUP2 PUSH1 0x0 ADD DUP9 DUP2 SLOAD DUP2 LT PUSH2 0xFF4 JUMPI PUSH2 0xFF4 PUSH2 0x16A2 JUMP JUMPDEST SWAP1 PUSH1 0x0 MSTORE PUSH1 0x20 PUSH1 0x0 KECCAK256 SWAP1 PUSH1 0x5 MUL ADD PUSH1 0x1 ADD SLOAD DUP3 PUSH1 0x0 ADD DUP10 DUP2 SLOAD DUP2 LT PUSH2 0x101B JUMPI PUSH2 0x101B PUSH2 0x16A2 JUMP JUMPDEST SWAP1 PUSH1 0x0 MSTORE PUSH1 0x20 PUSH1 0x0 KECCAK256 SWAP1 PUSH1 0x5 MUL ADD PUSH1 0x2 ADD SLOAD DUP4 PUSH1 0x0 ADD DUP11 DUP2 SLOAD DUP2 LT PUSH2 0x1042 JUMPI PUSH2 0x1042 PUSH2 0x16A2 JUMP JUMPDEST SWAP1 PUSH1 0x0 MSTORE PUSH1 0x20 PUSH1 0x0 KECCAK256 SWAP1 PUSH1 0x5 MUL ADD PUSH1 0x3 ADD SLOAD DUP5 PUSH1 0x0 ADD DUP12 DUP2 SLOAD DUP2 LT PUSH2 0x1069 JUMPI PUSH2 0x1069 PUSH2 0x16A2 JUMP JUMPDEST PUSH1 0x0 SWAP2 DUP3 MSTORE PUSH1 0x20 SWAP1 SWAP2 KECCAK256 PUSH1 0x5 SWAP1 SWAP2 MUL ADD PUSH1 0x4 ADD SLOAD SWAP4 SWAP13 SWAP3 SWAP12 POP SWAP1 SWAP10 POP SWAP8 POP PUSH1 0xFF SWAP1 SWAP2 AND SWAP6 POP SWAP4 POP POP POP POP JUMP JUMPDEST PUSH1 0x0 SLOAD PUSH1 0x1 PUSH1 0x1 PUSH1 0xA0 SHL SUB AND CALLER EQ PUSH2 0x10EF JUMPI PUSH1 0x40 MLOAD PUSH3 0x461BCD PUSH1 0xE5 SHL DUP2 MSTORE PUSH1 0x20 PUSH1 0x4 DUP3 ADD DUP2 SWAP1 MSTORE PUSH1 0x24 DUP3 ADD MSTORE PUSH32 0x4F776E61626C653A2063616C6C6572206973206E6F7420746865206F776E6572 PUSH1 0x44 DUP3 ADD MSTORE PUSH1 0x64 ADD PUSH2 0x94F JUMP JUMPDEST PUSH1 0x1 PUSH1 0x1 PUSH1 0xA0 SHL SUB DUP2 AND PUSH2 0x1154 JUMPI PUSH1 0x40 MLOAD PUSH3 0x461BCD PUSH1 0xE5 SHL DUP2 MSTORE PUSH1 0x20 PUSH1 0x4 DUP3 ADD MSTORE PUSH1 0x26 PUSH1 0x24 DUP3 ADD MSTORE PUSH32 0x4F776E61626C653A206E6577206F776E657220697320746865207A65726F2061 PUSH1 0x44 DUP3 ADD MSTORE PUSH6 0x646472657373 PUSH1 0xD0 SHL PUSH1 0x64 DUP3 ADD MSTORE PUSH1 0x84 ADD PUSH2 0x94F JUMP JUMPDEST PUSH2 0x115D DUP2 PUSH2 0x15F1 JUMP JUMPDEST POP JUMP JUMPDEST PUSH1 0x0 PUSH2 0x116B CALLER PUSH2 0x3E8 JUMP JUMPDEST GT PUSH2 0x11A5 JUMPI PUSH1 0x40 MLOAD PUSH3 0x461BCD PUSH1 0xE5 SHL DUP2 MSTORE PUSH1 0x20 PUSH1 0x4 DUP3 ADD MSTORE PUSH1 0xA PUSH1 0x24 DUP3 ADD MSTORE PUSH10 0x2737BA102437B63232B9 PUSH1 0xB1 SHL PUSH1 0x44 DUP3 ADD MSTORE PUSH1 0x64 ADD PUSH2 0x94F JUMP JUMPDEST CALLER PUSH1 0x0 DUP2 DUP2 MSTORE PUSH1 0x6 PUSH1 0x20 MSTORE PUSH1 0x40 DUP2 KECCAK256 SWAP2 PUSH2 0x11BE SWAP1 PUSH2 0x3E8 JUMP JUMPDEST SWAP1 POP PUSH1 0x0 DUP1 DUP4 PUSH1 0x0 ADD PUSH1 0x40 MLOAD DUP1 PUSH1 0xA0 ADD PUSH1 0x40 MSTORE DUP1 DUP6 DUP2 MSTORE PUSH1 0x20 ADD PUSH1 0x0 DUP2 MSTORE PUSH1 0x20 ADD TIMESTAMP DUP2 MSTORE PUSH1 0x20 ADD PUSH3 0xED4E00 TIMESTAMP PUSH2 0x11F4 SWAP2 SWAP1 PUSH2 0x173B JUMP JUMPDEST DUP2 MSTORE PUSH1 0x0 PUSH1 0x20 SWAP2 DUP3 ADD DUP2 SWAP1 MSTORE DUP4 SLOAD PUSH1 0x1 DUP1 DUP3 ADD DUP7 SSTORE SWAP5 DUP3 MSTORE DUP3 DUP3 KECCAK256 DUP5 MLOAD PUSH1 0x5 SWAP1 SWAP3 MUL ADD SWAP1 DUP2 SSTORE SWAP2 DUP4 ADD MLOAD SWAP4 DUP3 ADD SWAP4 SWAP1 SWAP4 SSTORE PUSH1 0x40 DUP3 ADD MLOAD PUSH1 0x2 DUP3 ADD SSTORE PUSH1 0x60 DUP3 ADD MLOAD PUSH1 0x3 DUP3 ADD SSTORE PUSH1 0x80 SWAP1 SWAP2 ADD MLOAD PUSH1 0x4 SWAP1 SWAP2 ADD DUP1 SLOAD PUSH1 0xFF NOT AND SWAP2 ISZERO ISZERO SWAP2 SWAP1 SWAP2 OR SWAP1 SSTORE JUMPDEST DUP5 SLOAD DUP2 LT ISZERO PUSH2 0x14D6 JUMPI DUP5 PUSH1 0x0 ADD DUP2 DUP2 SLOAD DUP2 LT PUSH2 0x1272 JUMPI PUSH2 0x1272 PUSH2 0x16A2 JUMP JUMPDEST PUSH1 0x0 SWAP2 DUP3 MSTORE PUSH1 0x20 SWAP1 SWAP2 KECCAK256 PUSH1 0x4 PUSH1 0x5 SWAP1 SWAP3 MUL ADD ADD SLOAD PUSH1 0xFF AND PUSH2 0x14C4 JUMPI TIMESTAMP DUP6 PUSH1 0x0 ADD DUP3 DUP2 SLOAD DUP2 LT PUSH2 0x12A3 JUMPI PUSH2 0x12A3 PUSH2 0x16A2 JUMP JUMPDEST SWAP1 PUSH1 0x0 MSTORE PUSH1 0x20 PUSH1 0x0 KECCAK256 SWAP1 PUSH1 0x5 MUL ADD PUSH1 0x3 ADD SLOAD GT ISZERO PUSH2 0x1357 JUMPI DUP5 PUSH1 0x1 ADD SLOAD DUP6 PUSH1 0x0 ADD DUP3 DUP2 SLOAD DUP2 LT PUSH2 0x12D5 JUMPI PUSH2 0x12D5 PUSH2 0x16A2 JUMP JUMPDEST SWAP1 PUSH1 0x0 MSTORE PUSH1 0x20 PUSH1 0x0 KECCAK256 SWAP1 PUSH1 0x5 MUL ADD PUSH1 0x2 ADD SLOAD GT ISZERO PUSH2 0x1336 JUMPI PUSH2 0x132F PUSH3 0x15180 PUSH2 0x517 PUSH2 0x130F DUP9 PUSH1 0x0 ADD DUP6 DUP2 SLOAD DUP2 LT PUSH2 0x4BF JUMPI PUSH2 0x4BF PUSH2 0x16A2 JUMP JUMPDEST PUSH2 0x51D PUSH2 0x3E8 PUSH2 0x517 PUSH1 0xF DUP13 PUSH1 0x0 ADD DUP10 DUP2 SLOAD DUP2 LT PUSH2 0x500 JUMPI PUSH2 0x500 PUSH2 0x16A2 JUMP JUMPDEST SWAP2 POP PUSH2 0x1475 JUMP JUMPDEST PUSH2 0x132F PUSH3 0x15180 PUSH2 0x517 PUSH2 0x130F DUP9 PUSH1 0x1 ADD SLOAD TIMESTAMP PUSH2 0x15BA SWAP1 SWAP2 SWAP1 PUSH4 0xFFFFFFFF AND JUMP JUMPDEST DUP5 PUSH1 0x1 ADD SLOAD DUP6 PUSH1 0x0 ADD DUP3 DUP2 SLOAD DUP2 LT PUSH2 0x1371 JUMPI PUSH2 0x1371 PUSH2 0x16A2 JUMP JUMPDEST SWAP1 PUSH1 0x0 MSTORE PUSH1 0x20 PUSH1 0x0 KECCAK256 SWAP1 PUSH1 0x5 MUL ADD PUSH1 0x2 ADD SLOAD GT ISZERO PUSH2 0x1412 JUMPI PUSH2 0x13D2 PUSH3 0x15180 PUSH2 0x517 PUSH2 0x130F DUP9 PUSH1 0x0 ADD DUP6 DUP2 SLOAD DUP2 LT PUSH2 0x13AB JUMPI PUSH2 0x13AB PUSH2 0x16A2 JUMP JUMPDEST SWAP1 PUSH1 0x0 MSTORE PUSH1 0x20 PUSH1 0x0 KECCAK256 SWAP1 PUSH1 0x5 MUL ADD PUSH1 0x2 ADD SLOAD DUP10 PUSH1 0x0 ADD DUP7 DUP2 SLOAD DUP2 LT PUSH2 0x5C6 JUMPI PUSH2 0x5C6 PUSH2 0x16A2 JUMP JUMPDEST SWAP2 POP PUSH1 0x1 DUP6 PUSH1 0x0 ADD DUP3 DUP2 SLOAD DUP2 LT PUSH2 0x13EB JUMPI PUSH2 0x13EB PUSH2 0x16A2 JUMP JUMPDEST PUSH1 0x0 SWAP2 DUP3 MSTORE PUSH1 0x20 SWAP1 SWAP2 KECCAK256 PUSH1 0x5 SWAP1 SWAP2 MUL ADD PUSH1 0x4 ADD DUP1 SLOAD PUSH1 0xFF NOT AND SWAP2 ISZERO ISZERO SWAP2 SWAP1 SWAP2 OR SWAP1 SSTORE PUSH2 0x1475 JUMP JUMPDEST PUSH2 0x1439 PUSH3 0x15180 PUSH2 0x517 PUSH2 0x130F DUP9 PUSH1 0x1 ADD SLOAD DUP10 PUSH1 0x0 ADD DUP7 DUP2 SLOAD DUP2 LT PUSH2 0x5C6 JUMPI PUSH2 0x5C6 PUSH2 0x16A2 JUMP JUMPDEST SWAP2 POP PUSH1 0x1 DUP6 PUSH1 0x0 ADD DUP3 DUP2 SLOAD DUP2 LT PUSH2 0x1452 JUMPI PUSH2 0x1452 PUSH2 0x16A2 JUMP JUMPDEST PUSH1 0x0 SWAP2 DUP3 MSTORE PUSH1 0x20 SWAP1 SWAP2 KECCAK256 PUSH1 0x5 SWAP1 SWAP2 MUL ADD PUSH1 0x4 ADD DUP1 SLOAD PUSH1 0xFF NOT AND SWAP2 ISZERO ISZERO SWAP2 SWAP1 SWAP2 OR SWAP1 SSTORE JUMPDEST PUSH2 0x148E DUP3 DUP7 PUSH1 0x0 ADD DUP4 DUP2 SLOAD DUP2 LT PUSH2 0x875 JUMPI PUSH2 0x875 PUSH2 0x16A2 JUMP JUMPDEST DUP6 PUSH1 0x0 ADD DUP3 DUP2 SLOAD DUP2 LT PUSH2 0x14A3 JUMPI PUSH2 0x14A3 PUSH2 0x16A2 JUMP JUMPDEST PUSH1 0x0 SWAP2 DUP3 MSTORE PUSH1 0x20 SWAP1 SWAP2 KECCAK256 PUSH1 0x1 PUSH1 0x5 SWAP1 SWAP3 MUL ADD ADD SSTORE PUSH2 0x14C1 DUP4 DUP4 PUSH2 0x15E5 JUMP JUMPDEST SWAP3 POP JUMPDEST DUP1 PUSH2 0x14CE DUP2 PUSH2 0x16CE JUMP JUMPDEST SWAP2 POP POP PUSH2 0x1254 JUMP JUMPDEST POP TIMESTAMP PUSH1 0x1 DUP6 ADD SSTORE PUSH1 0x3 SLOAD PUSH2 0x14EA SWAP1 DUP5 PUSH2 0x15E5 JUMP JUMPDEST PUSH1 0x3 SSTORE PUSH1 0x5 SLOAD PUSH2 0x14FB SWAP1 PUSH1 0x1 PUSH2 0x15E5 JUMP JUMPDEST PUSH1 0x5 SSTORE PUSH1 0x4 SLOAD PUSH2 0x150B SWAP1 DUP4 PUSH2 0x15E5 JUMP JUMPDEST PUSH1 0x4 SSTORE PUSH1 0x40 MLOAD DUP4 DUP2 MSTORE CALLER SWAP1 PUSH32 0x5D511C2070E5A2DBCC6FBFBB3FD6704A11AB5FA74B793B81AACECE2C7CC29405 SWAP1 PUSH1 0x20 ADD PUSH1 0x40 MLOAD DUP1 SWAP2 SUB SWAP1 LOG2 POP POP POP POP JUMP JUMPDEST PUSH1 0x1 PUSH1 0x1 PUSH1 0xA0 SHL SUB DUP2 AND PUSH1 0x0 SWAP1 DUP2 MSTORE PUSH1 0x6 PUSH1 0x20 MSTORE PUSH1 0x40 DUP2 KECCAK256 DUP2 DUP1 JUMPDEST DUP3 SLOAD DUP2 LT ISZERO PUSH2 0xB6B JUMPI PUSH2 0x15A6 DUP4 PUSH1 0x0 ADD DUP3 DUP2 SLOAD DUP2 LT PUSH2 0x1585 JUMPI PUSH2 0x1585 PUSH2 0x16A2 JUMP JUMPDEST SWAP1 PUSH1 0x0 MSTORE PUSH1 0x20 PUSH1 0x0 KECCAK256 SWAP1 PUSH1 0x5 MUL ADD PUSH1 0x1 ADD SLOAD DUP4 PUSH2 0x15E5 SWAP1 SWAP2 SWAP1 PUSH4 0xFFFFFFFF AND JUMP JUMPDEST SWAP2 POP DUP1 PUSH2 0x15B2 DUP2 PUSH2 0x16CE JUMP JUMPDEST SWAP2 POP POP PUSH2 0x1564 JUMP JUMPDEST PUSH1 0x0 PUSH2 0x15C6 DUP3 DUP5 PUSH2 0x1724 JUMP JUMPDEST SWAP4 SWAP3 POP POP POP JUMP JUMPDEST PUSH1 0x0 PUSH2 0x15C6 DUP3 DUP5 PUSH2 0x1753 JUMP JUMPDEST PUSH1 0x0 PUSH2 0x15C6 DUP3 DUP5 PUSH2 0x1772 JUMP JUMPDEST PUSH1 0x0 PUSH2 0x15C6 DUP3 DUP5 PUSH2 0x173B JUMP JUMPDEST PUSH1 0x0 DUP1 SLOAD PUSH1 0x1 PUSH1 0x1 PUSH1 0xA0 SHL SUB DUP4 DUP2 AND PUSH1 0x1 PUSH1 0x1 PUSH1 0xA0 SHL SUB NOT DUP4 AND DUP2 OR DUP5 SSTORE PUSH1 0x40 MLOAD SWAP2 SWAP1 SWAP3 AND SWAP3 DUP4 SWAP2 PUSH32 0x8BE0079C531659141344CD1FD0A4F28419497F9722A3DAAFE3B4186F6B6457E0 SWAP2 SWAP1 LOG3 POP POP JUMP JUMPDEST DUP1 CALLDATALOAD PUSH1 0x1 PUSH1 0x1 PUSH1 0xA0 SHL SUB DUP2 AND DUP2 EQ PUSH2 0x1658 JUMPI PUSH1 0x0 DUP1 REVERT JUMPDEST SWAP2 SWAP1 POP JUMP JUMPDEST PUSH1 0x0 PUSH1 0x20 DUP3 DUP5 SUB SLT ISZERO PUSH2 0x166F JUMPI PUSH1 0x0 DUP1 REVERT JUMPDEST PUSH2 0x15C6 DUP3 PUSH2 0x1641 JUMP JUMPDEST PUSH1 0x0 DUP1 PUSH1 0x40 DUP4 DUP6 SUB SLT ISZERO PUSH2 0x168B JUMPI PUSH1 0x0 DUP1 REVERT JUMPDEST PUSH2 0x1694 DUP4 PUSH2 0x1641 JUMP JUMPDEST SWAP5 PUSH1 0x20 SWAP4 SWAP1 SWAP4 ADD CALLDATALOAD SWAP4 POP POP POP JUMP JUMPDEST PUSH4 0x4E487B71 PUSH1 0xE0 SHL PUSH1 0x0 MSTORE PUSH1 0x32 PUSH1 0x4 MSTORE PUSH1 0x24 PUSH1 0x0 REVERT JUMPDEST PUSH4 0x4E487B71 PUSH1 0xE0 SHL PUSH1 0x0 MSTORE PUSH1 0x11 PUSH1 0x4 MSTORE PUSH1 0x24 PUSH1 0x0 REVERT JUMPDEST PUSH1 0x0 PUSH1 0x0 NOT DUP3 EQ ISZERO PUSH2 0x16E2 JUMPI PUSH2 0x16E2 PUSH2 0x16B8 JUMP JUMPDEST POP PUSH1 0x1 ADD SWAP1 JUMP JUMPDEST PUSH1 0x0 PUSH1 0x20 DUP3 DUP5 SUB SLT ISZERO PUSH2 0x16FB JUMPI PUSH1 0x0 DUP1 REVERT JUMPDEST POP MLOAD SWAP2 SWAP1 POP JUMP JUMPDEST PUSH1 0x0 PUSH1 0x20 DUP3 DUP5 SUB SLT ISZERO PUSH2 0x1714 JUMPI PUSH1 0x0 DUP1 REVERT JUMPDEST DUP2 MLOAD DUP1 ISZERO ISZERO DUP2 EQ PUSH2 0x15C6 JUMPI PUSH1 0x0 DUP1 REVERT JUMPDEST PUSH1 0x0 DUP3 DUP3 LT ISZERO PUSH2 0x1736 JUMPI PUSH2 0x1736 PUSH2 0x16B8 JUMP JUMPDEST POP SUB SWAP1 JUMP JUMPDEST PUSH1 0x0 DUP3 NOT DUP3 GT ISZERO PUSH2 0x174E JUMPI PUSH2 0x174E PUSH2 0x16B8 JUMP JUMPDEST POP ADD SWAP1 JUMP JUMPDEST PUSH1 0x0 DUP2 PUSH1 0x0 NOT DIV DUP4 GT DUP3 ISZERO ISZERO AND ISZERO PUSH2 0x176D JUMPI PUSH2 0x176D PUSH2 0x16B8 JUMP JUMPDEST POP MUL SWAP1 JUMP JUMPDEST PUSH1 0x0 DUP3 PUSH2 0x178F JUMPI PUSH4 0x4E487B71 PUSH1 0xE0 SHL PUSH1 0x0 MSTORE PUSH1 0x12 PUSH1 0x4 MSTORE PUSH1 0x24 PUSH1 0x0 REVERT JUMPDEST POP DIV SWAP1 JUMP INVALID LOG2 PUSH5 0x6970667358 0x22 SLT KECCAK256 0x28 0xB2 0x1E PUSH9 0x28E56226C59A0C55F0 0xC0 0xF7 0xE9 DUP10 PUSH3 0xF79A0A 0xAF 0xE CREATE 0x5D 0x5C 0x21 SHR LOG2 0xD3 GAS 0xD2 PUSH5 0x736F6C6343 STOP ADDMOD EXP STOP CALLER "
				},
				"gasEstimates": {
					"creation": {
						"codeDepositCost": "1218000",
						"executionCost": "infinite",
						"totalCost": "infinite"
					},
					"external": {
						"PERCENTS_DAILY()": "274",
						"PERCENTS_DIVIDER()": "230",
						"REFERRAL_PERCENTS()": "252",
						"STAKING_PERIOD()": "208",
						"TIME_STEP()": "318",
						"claim()": "infinite",
						"compound()": "infinite",
						"getUserAmountOfDeposits(address)": "2593",
						"getUserAvailable(address)": "infinite",
						"getUserCheckpoint(address)": "2621",
						"getUserDepositInfo(address,uint256)": "22308",
						"getUserDividends(address)": "infinite",
						"getUserReferralBonus(address)": "2576",
						"getUserReferralCount(address)": "2577",
						"getUserReferrer(address)": "2619",
						"getUserTotalDeposits(address)": "infinite",
						"getUserTotalWithdrawn(address)": "infinite",
						"isActive(address)": "infinite",
						"owner()": "2354",
						"renounceOwnership()": "28181",
						"stake(address,uint256)": "infinite",
						"totalDepositCount()": "2351",
						"totalStaked()": "2395",
						"totalUsers()": "2395",
						"totalWithdrawn()": "2374",
						"transferOwnership(address)": "28375"
					}
				},
				"methodIdentifiers": {
					"PERCENTS_DAILY()": "141a2a3f",
					"PERCENTS_DIVIDER()": "01c234a8",
					"REFERRAL_PERCENTS()": "44038f90",
					"STAKING_PERIOD()": "0104db1b",
					"TIME_STEP()": "32bc298c",
					"claim()": "4e71d92d",
					"compound()": "f69e2046",
					"getUserAmountOfDeposits(address)": "a8aeb6c2",
					"getUserAvailable(address)": "153ab9df",
					"getUserCheckpoint(address)": "d7ffca91",
					"getUserDepositInfo(address,uint256)": "c0806b03",
					"getUserDividends(address)": "040a772e",
					"getUserReferralBonus(address)": "e85abe09",
					"getUserReferralCount(address)": "c8a22eb4",
					"getUserReferrer(address)": "36144c9a",
					"getUserTotalDeposits(address)": "7e3abeea",
					"getUserTotalWithdrawn(address)": "fb4cb32b",
					"isActive(address)": "9f8a13d7",
					"owner()": "8da5cb5b",
					"renounceOwnership()": "715018a6",
					"stake(address,uint256)": "adc9772e",
					"totalDepositCount()": "d6343867",
					"totalStaked()": "817b1cd2",
					"totalUsers()": "bff1f9e1",
					"totalWithdrawn()": "4b319713",
					"transferOwnership(address)": "f2fde38b"
				}
			},
			"storageLayout": {
				"storage": [
					{
						"astId": 7,
						"contract": "BCStaking.sol:BillionCashStaking",
						"label": "_owner",
						"offset": 0,
						"slot": "0",
						"type": "t_address"
					},
					{
						"astId": 1155,
						"contract": "BCStaking.sol:BillionCashStaking",
						"label": "BC",
						"offset": 0,
						"slot": "1",
						"type": "t_contract(ERC20)690"
					},
					{
						"astId": 1157,
						"contract": "BCStaking.sol:BillionCashStaking",
						"label": "totalUsers",
						"offset": 0,
						"slot": "2",
						"type": "t_uint256"
					},
					{
						"astId": 1159,
						"contract": "BCStaking.sol:BillionCashStaking",
						"label": "totalStaked",
						"offset": 0,
						"slot": "3",
						"type": "t_uint256"
					},
					{
						"astId": 1161,
						"contract": "BCStaking.sol:BillionCashStaking",
						"label": "totalWithdrawn",
						"offset": 0,
						"slot": "4",
						"type": "t_uint256"
					},
					{
						"astId": 1163,
						"contract": "BCStaking.sol:BillionCashStaking",
						"label": "totalDepositCount",
						"offset": 0,
						"slot": "5",
						"type": "t_uint256"
					},
					{
						"astId": 1192,
						"contract": "BCStaking.sol:BillionCashStaking",
						"label": "users",
						"offset": 0,
						"slot": "6",
						"type": "t_mapping(t_address,t_struct(User)1187_storage)"
					}
				],
				"types": {
					"t_address": {
						"encoding": "inplace",
						"label": "address",
						"numberOfBytes": "20"
					},
					"t_array(t_struct(Deposit)1174_storage)dyn_storage": {
						"base": "t_struct(Deposit)1174_storage",
						"encoding": "dynamic_array",
						"label": "struct BillionCashStaking.Deposit[]",
						"numberOfBytes": "32"
					},
					"t_bool": {
						"encoding": "inplace",
						"label": "bool",
						"numberOfBytes": "1"
					},
					"t_contract(ERC20)690": {
						"encoding": "inplace",
						"label": "contract ERC20",
						"numberOfBytes": "20"
					},
					"t_mapping(t_address,t_struct(User)1187_storage)": {
						"encoding": "mapping",
						"key": "t_address",
						"label": "mapping(address => struct BillionCashStaking.User)",
						"numberOfBytes": "32",
						"value": "t_struct(User)1187_storage"
					},
					"t_struct(Deposit)1174_storage": {
						"encoding": "inplace",
						"label": "struct BillionCashStaking.Deposit",
						"members": [
							{
								"astId": 1165,
								"contract": "BCStaking.sol:BillionCashStaking",
								"label": "amount",
								"offset": 0,
								"slot": "0",
								"type": "t_uint256"
							},
							{
								"astId": 1167,
								"contract": "BCStaking.sol:BillionCashStaking",
								"label": "withdrawn",
								"offset": 0,
								"slot": "1",
								"type": "t_uint256"
							},
							{
								"astId": 1169,
								"contract": "BCStaking.sol:BillionCashStaking",
								"label": "startTime",
								"offset": 0,
								"slot": "2",
								"type": "t_uint256"
							},
							{
								"astId": 1171,
								"contract": "BCStaking.sol:BillionCashStaking",
								"label": "endTime",
								"offset": 0,
								"slot": "3",
								"type": "t_uint256"
							},
							{
								"astId": 1173,
								"contract": "BCStaking.sol:BillionCashStaking",
								"label": "ended",
								"offset": 0,
								"slot": "4",
								"type": "t_bool"
							}
						],
						"numberOfBytes": "160"
					},
					"t_struct(User)1187_storage": {
						"encoding": "inplace",
						"label": "struct BillionCashStaking.User",
						"members": [
							{
								"astId": 1178,
								"contract": "BCStaking.sol:BillionCashStaking",
								"label": "deposits",
								"offset": 0,
								"slot": "0",
								"type": "t_array(t_struct(Deposit)1174_storage)dyn_storage"
							},
							{
								"astId": 1180,
								"contract": "BCStaking.sol:BillionCashStaking",
								"label": "checkpoint",
								"offset": 0,
								"slot": "1",
								"type": "t_uint256"
							},
							{
								"astId": 1182,
								"contract": "BCStaking.sol:BillionCashStaking",
								"label": "bonus",
								"offset": 0,
								"slot": "2",
								"type": "t_uint256"
							},
							{
								"astId": 1184,
								"contract": "BCStaking.sol:BillionCashStaking",
								"label": "referralCount",
								"offset": 0,
								"slot": "3",
								"type": "t_uint256"
							},
							{
								"astId": 1186,
								"contract": "BCStaking.sol:BillionCashStaking",
								"label": "referrer",
								"offset": 0,
								"slot": "4",
								"type": "t_address"
							}
						],
						"numberOfBytes": "160"
					},
					"t_uint256": {
						"encoding": "inplace",
						"label": "uint256",
						"numberOfBytes": "32"
					}
				}
			},
			"userdoc": {
				"kind": "user",
				"methods": {},
				"version": 1
			}
		}
	}
}