{
	"BillionCash.sol": {
		"BillionCash": {
			"abi": [
				{
					"inputs": [
						{
							"internalType": "address",
							"name": "_adminAddress",
							"type": "address"
						},
						{
							"internalType": "address",
							"name": "_marketingWallet",
							"type": "address"
						},
						{
							"internalType": "address",
							"name": "_pancakeswap",
							"type": "address"
						}
					],
					"stateMutability": "nonpayable",
					"type": "constructor"
				},
				{
					"anonymous": false,
					"inputs": [
						{
							"indexed": true,
							"internalType": "address",
							"name": "owner",
							"type": "address"
						},
						{
							"indexed": true,
							"internalType": "address",
							"name": "spender",
							"type": "address"
						},
						{
							"indexed": false,
							"internalType": "uint256",
							"name": "value",
							"type": "uint256"
						}
					],
					"name": "Approval",
					"type": "event"
				},
				{
					"anonymous": false,
					"inputs": [
						{
							"indexed": true,
							"internalType": "address",
							"name": "previousOwner",
							"type": "address"
						},
						{
							"indexed": true,
							"internalType": "address",
							"name": "newOwner",
							"type": "address"
						}
					],
					"name": "OwnershipTransferred",
					"type": "event"
				},
				{
					"anonymous": false,
					"inputs": [
						{
							"indexed": true,
							"internalType": "address",
							"name": "from",
							"type": "address"
						},
						{
							"indexed": true,
							"internalType": "address",
							"name": "to",
							"type": "address"
						},
						{
							"indexed": false,
							"internalType": "uint256",
							"name": "value",
							"type": "uint256"
						}
					],
					"name": "Transfer",
					"type": "event"
				},
				{
					"inputs": [],
					"name": "FEE_PERCENT",
					"outputs": [
						{
							"internalType": "uint256",
							"name": "",
							"type": "uint256"
						}
					],
					"stateMutability": "view",
					"type": "function"
				},
				{
					"inputs": [],
					"name": "PERCENTS_DIVIDER",
					"outputs": [
						{
							"internalType": "uint256",
							"name": "",
							"type": "uint256"
						}
					],
					"stateMutability": "view",
					"type": "function"
				},
				{
					"inputs": [
						{
							"internalType": "address",
							"name": "",
							"type": "address"
						}
					],
					"name": "_BCTokenBalances",
					"outputs": [
						{
							"internalType": "uint256",
							"name": "",
							"type": "uint256"
						}
					],
					"stateMutability": "view",
					"type": "function"
				},
				{
					"inputs": [
						{
							"internalType": "address",
							"name": "",
							"type": "address"
						},
						{
							"internalType": "address",
							"name": "",
							"type": "address"
						}
					],
					"name": "_allowed",
					"outputs": [
						{
							"internalType": "uint256",
							"name": "",
							"type": "uint256"
						}
					],
					"stateMutability": "view",
					"type": "function"
				},
				{
					"inputs": [
						{
							"internalType": "address",
							"name": "owner",
							"type": "address"
						},
						{
							"internalType": "address",
							"name": "spender",
							"type": "address"
						}
					],
					"name": "allowance",
					"outputs": [
						{
							"internalType": "uint256",
							"name": "",
							"type": "uint256"
						}
					],
					"stateMutability": "view",
					"type": "function"
				},
				{
					"inputs": [
						{
							"internalType": "address",
							"name": "spender",
							"type": "address"
						},
						{
							"internalType": "uint256",
							"name": "value",
							"type": "uint256"
						}
					],
					"name": "approve",
					"outputs": [
						{
							"internalType": "bool",
							"name": "",
							"type": "bool"
						}
					],
					"stateMutability": "nonpayable",
					"type": "function"
				},
				{
					"inputs": [
						{
							"internalType": "address",
							"name": "owner",
							"type": "address"
						}
					],
					"name": "balanceOf",
					"outputs": [
						{
							"internalType": "uint256",
							"name": "",
							"type": "uint256"
						}
					],
					"stateMutability": "view",
					"type": "function"
				},
				{
					"inputs": [],
					"name": "decimals",
					"outputs": [
						{
							"internalType": "uint8",
							"name": "",
							"type": "uint8"
						}
					],
					"stateMutability": "pure",
					"type": "function"
				},
				{
					"inputs": [
						{
							"internalType": "address",
							"name": "spender",
							"type": "address"
						},
						{
							"internalType": "uint256",
							"name": "subtractedValue",
							"type": "uint256"
						}
					],
					"name": "decreaseAllowance",
					"outputs": [
						{
							"internalType": "bool",
							"name": "",
							"type": "bool"
						}
					],
					"stateMutability": "nonpayable",
					"type": "function"
				},
				{
					"inputs": [
						{
							"internalType": "address",
							"name": "spender",
							"type": "address"
						},
						{
							"internalType": "uint256",
							"name": "addedValue",
							"type": "uint256"
						}
					],
					"name": "increaseAllowance",
					"outputs": [
						{
							"internalType": "bool",
							"name": "",
							"type": "bool"
						}
					],
					"stateMutability": "nonpayable",
					"type": "function"
				},
				{
					"inputs": [],
					"name": "name",
					"outputs": [
						{
							"internalType": "string",
							"name": "",
							"type": "string"
						}
					],
					"stateMutability": "pure",
					"type": "function"
				},
				{
					"inputs": [],
					"name": "owner",
					"outputs": [
						{
							"internalType": "address",
							"name": "",
							"type": "address"
						}
					],
					"stateMutability": "view",
					"type": "function"
				},
				{
					"inputs": [],
					"name": "renounceOwnership",
					"outputs": [],
					"stateMutability": "nonpayable",
					"type": "function"
				},
				{
					"inputs": [
						{
							"internalType": "address payable",
							"name": "_devAddress",
							"type": "address"
						}
					],
					"name": "setDevAddress",
					"outputs": [],
					"stateMutability": "nonpayable",
					"type": "function"
				},
				{
					"inputs": [],
					"name": "symbol",
					"outputs": [
						{
							"internalType": "string",
							"name": "",
							"type": "string"
						}
					],
					"stateMutability": "pure",
					"type": "function"
				},
				{
					"inputs": [],
					"name": "totalSupply",
					"outputs": [
						{
							"internalType": "uint256",
							"name": "",
							"type": "uint256"
						}
					],
					"stateMutability": "view",
					"type": "function"
				},
				{
					"inputs": [
						{
							"internalType": "address",
							"name": "to",
							"type": "address"
						},
						{
							"internalType": "uint256",
							"name": "value",
							"type": "uint256"
						}
					],
					"name": "transfer",
					"outputs": [
						{
							"internalType": "bool",
							"name": "",
							"type": "bool"
						}
					],
					"stateMutability": "nonpayable",
					"type": "function"
				},
				{
					"inputs": [
						{
							"internalType": "address",
							"name": "from",
							"type": "address"
						},
						{
							"internalType": "address",
							"name": "to",
							"type": "address"
						},
						{
							"internalType": "uint256",
							"name": "value",
							"type": "uint256"
						}
					],
					"name": "transferFrom",
					"outputs": [
						{
							"internalType": "bool",
							"name": "",
							"type": "bool"
						}
					],
					"stateMutability": "nonpayable",
					"type": "function"
				},
				{
					"inputs": [
						{
							"internalType": "address",
							"name": "newOwner",
							"type": "address"
						}
					],
					"name": "transferOwnership",
					"outputs": [],
					"stateMutability": "nonpayable",
					"type": "function"
				}
			],
			"devdoc": {
				"kind": "dev",
				"methods": {
					"owner()": {
						"details": "Returns the address of the current owner."
					},
					"renounceOwnership()": {
						"details": "Leaves the contract without owner. It will not be possible to call `onlyOwner` functions anymore. Can only be called by the current owner. NOTE: Renouncing ownership will leave the contract without an owner, thereby removing any functionality that is only available to the owner."
					},
					"transferOwnership(address)": {
						"details": "Transfers ownership of the contract to a new account (`newOwner`). Can only be called by the current owner."
					}
				},
				"version": 1
			},
			"evm": {
				"assembly": "    /* \"BillionCash.sol\":186:5807  contract BillionCash is Ownable {... */\n  mstore(0x40, 0x80)\n    /* \"BillionCash.sol\":546:572  10**uint256(tokenDecimals) */\n  tag_1\n    /* \"BillionCash.sol\":506:508  18 */\n  0x12\n    /* \"BillionCash.sol\":546:548  10 */\n  0x0a\n    /* \"BillionCash.sol\":546:572  10**uint256(tokenDecimals) */\n  tag_2\n  jump\t// in\ntag_1:\n    /* \"BillionCash.sol\":538:572  50000 * 10**uint256(tokenDecimals) */\n  tag_3\n  swap1\n    /* \"BillionCash.sol\":538:543  50000 */\n  0xc350\n    /* \"BillionCash.sol\":538:572  50000 * 10**uint256(tokenDecimals) */\n  tag_4\n  jump\t// in\ntag_3:\n    /* \"BillionCash.sol\":515:572  uint256 _totalSupply = 50000 * 10**uint256(tokenDecimals) */\n  0x03\n  sstore\n    /* \"BillionCash.sol\":965:1255  constructor(... */\n  callvalue\n  dup1\n  iszero\n  tag_5\n  jumpi\n  0x00\n  dup1\n  revert\ntag_5:\n  pop\n  mload(0x40)\n  sub(codesize, bytecodeSize)\n  dup1\n  bytecodeSize\n  dup4\n  codecopy\n  dup2\n  add\n  0x40\n  dup2\n  swap1\n  mstore\n  tag_6\n  swap2\n  tag_7\n  jump\t// in\ntag_6:\n    /* \"@openzeppelin/contracts/access/Ownable.sol\":921:953  _transferOwnership(_msgSender()) */\n  tag_11\n    /* \"@openzeppelin/contracts/utils/Context.sol\":719:729  msg.sender */\n  caller\n    /* \"@openzeppelin/contracts/access/Ownable.sol\":921:939  _transferOwnership */\n  tag_14\n    /* \"@openzeppelin/contracts/access/Ownable.sol\":921:953  _transferOwnership(_msgSender()) */\n  jump\t// in\ntag_11:\n    /* \"BillionCash.sol\":1093:1105  adminAddress */\n  0x06\n    /* \"BillionCash.sol\":1093:1121  adminAddress = _adminAddress */\n  dup1\n  sload\n  sub(shl(0xa0, 0x01), 0x01)\n  dup1\n  dup7\n  and\n  not(sub(shl(0xa0, 0x01), 0x01))\n  swap3\n  dup4\n  and\n  dup2\n  or\n  swap1\n  swap4\n  sstore\n    /* \"BillionCash.sol\":1132:1147  marketingwallet */\n  0x05\n    /* \"BillionCash.sol\":1132:1166  marketingwallet = _marketingWallet */\n  dup1\n  sload\n  dup7\n  dup4\n  and\n  swap1\n  dup5\n  and\n  or\n  swap1\n  sstore\n    /* \"BillionCash.sol\":1177:1188  pancakeswap */\n  0x04\n    /* \"BillionCash.sol\":1177:1203  pancakeswap = _pancakeswap */\n  dup1\n  sload\n  swap2\n  dup6\n  and\n  swap2\n  swap1\n  swap3\n  and\n  or\n  swap1\n  sstore\n    /* \"BillionCash.sol\":1234:1246  _totalSupply */\n  sload(0x03)\n    /* \"BillionCash.sol\":1214:1247  _mint(adminAddress, _totalSupply) */\n  tag_16\n  swap2\n    /* \"BillionCash.sol\":1093:1121  adminAddress = _adminAddress */\n  swap1\n    /* \"BillionCash.sol\":1214:1219  _mint */\n  tag_17\n    /* \"BillionCash.sol\":1214:1247  _mint(adminAddress, _totalSupply) */\n  jump\t// in\ntag_16:\n    /* \"BillionCash.sol\":965:1255  constructor(... */\n  pop\n  pop\n  pop\n    /* \"BillionCash.sol\":186:5807  contract BillionCash is Ownable {... */\n  jump(tag_34)\n    /* \"@openzeppelin/contracts/access/Ownable.sol\":2270:2457  function _transferOwnership(address newOwner) internal virtual {... */\ntag_14:\n    /* \"@openzeppelin/contracts/access/Ownable.sol\":2343:2359  address oldOwner */\n  0x00\n    /* \"@openzeppelin/contracts/access/Ownable.sol\":2362:2368  _owner */\n  dup1\n  sload\n  sub(shl(0xa0, 0x01), 0x01)\n    /* \"@openzeppelin/contracts/access/Ownable.sol\":2378:2395  _owner = newOwner */\n  dup4\n  dup2\n  and\n  not(sub(shl(0xa0, 0x01), 0x01))\n  dup4\n  and\n  dup2\n  or\n  dup5\n  sstore\n    /* \"@openzeppelin/contracts/access/Ownable.sol\":2410:2450  OwnershipTransferred(oldOwner, newOwner) */\n  mload(0x40)\n    /* \"@openzeppelin/contracts/access/Ownable.sol\":2362:2368  _owner */\n  swap2\n  swap1\n  swap3\n  and\n  swap3\n  dup4\n  swap2\n    /* \"@openzeppelin/contracts/access/Ownable.sol\":2410:2450  OwnershipTransferred(oldOwner, newOwner) */\n  0x8be0079c531659141344cd1fd0a4f28419497f9722a3daafe3b4186f6b6457e0\n  swap2\n    /* \"@openzeppelin/contracts/access/Ownable.sol\":2343:2359  address oldOwner */\n  swap1\n    /* \"@openzeppelin/contracts/access/Ownable.sol\":2410:2450  OwnershipTransferred(oldOwner, newOwner) */\n  log3\n    /* \"@openzeppelin/contracts/access/Ownable.sol\":2333:2457  {... */\n  pop\n    /* \"@openzeppelin/contracts/access/Ownable.sol\":2270:2457  function _transferOwnership(address newOwner) internal virtual {... */\n  pop\n  jump\t// out\n    /* \"BillionCash.sol\":5455:5680  function _mint(address account, uint256 amount) internal {... */\ntag_17:\n    /* \"BillionCash.sol\":5531:5542  amount != 0 */\n  dup1\n    /* \"BillionCash.sol\":5523:5543  require(amount != 0) */\n  tag_22\n  jumpi\n  0x00\n  dup1\n  revert\ntag_22:\n  sub(shl(0xa0, 0x01), 0x01)\n    /* \"BillionCash.sol\":5582:5607  _BCTokenBalances[account] */\n  dup3\n  and\n  0x00\n  swap1\n  dup2\n  mstore\n    /* \"BillionCash.sol\":5582:5598  _BCTokenBalances */\n  0x01\n    /* \"BillionCash.sol\":5582:5607  _BCTokenBalances[account] */\n  0x20\n  swap1\n  dup2\n  mstore\n  0x40\n  swap1\n  swap2\n  keccak256\n  sload\n    /* \"BillionCash.sol\":5582:5619  _BCTokenBalances[account].add(amount) */\n  tag_23\n  swap2\n    /* \"BillionCash.sol\":5612:5618  amount */\n  dup4\n  swap1\n    /* \"BillionCash.sol\":5582:5611  _BCTokenBalances[account].add */\n  tag_0_100\n  tag_24\n  dup3\n  shl\n  or\n    /* \"BillionCash.sol\":5582:5619  _BCTokenBalances[account].add(amount) */\n  swap1\n  shr\n  jump\t// in\ntag_23:\n  sub(shl(0xa0, 0x01), 0x01)\n    /* \"BillionCash.sol\":5554:5579  _BCTokenBalances[account] */\n  dup4\n  and\n  0x00\n  dup2\n  dup2\n  mstore\n    /* \"BillionCash.sol\":5554:5570  _BCTokenBalances */\n  0x01\n    /* \"BillionCash.sol\":5554:5579  _BCTokenBalances[account] */\n  0x20\n  mstore\n  0x40\n  dup1\n  dup3\n  keccak256\n    /* \"BillionCash.sol\":5554:5619  _BCTokenBalances[account] = _BCTokenBalances[account].add(amount) */\n  swap4\n  swap1\n  swap4\n  sstore\n    /* \"BillionCash.sol\":5635:5672  Transfer(address(0), account, amount) */\n  swap2\n  mload\n    /* \"BillionCash.sol\":5554:5579  _BCTokenBalances[account] */\n  swap1\n  swap2\n  swap1\n    /* \"BillionCash.sol\":5635:5672  Transfer(address(0), account, amount) */\n  0xddf252ad1be2c89b69c2b068fc378daa952ba7f163c4a11628f55a4df523b3ef\n  swap1\n  tag_25\n  swap1\n    /* \"BillionCash.sol\":5665:5671  amount */\n  dup6\n    /* \"#utility.yul\":2404:2429   */\n  dup2\n  mstore\n    /* \"#utility.yul\":2392:2394   */\n  0x20\n    /* \"#utility.yul\":2377:2395   */\n  add\n  swap1\n    /* \"#utility.yul\":2258:2435   */\n  jump\n    /* \"BillionCash.sol\":5635:5672  Transfer(address(0), account, amount) */\ntag_25:\n  mload(0x40)\n  dup1\n  swap2\n  sub\n  swap1\n  log3\n    /* \"BillionCash.sol\":5455:5680  function _mint(address account, uint256 amount) internal {... */\n  pop\n  pop\n  jump\t// out\n    /* \"@openzeppelin/contracts/utils/math/SafeMath.sol\":2755:2851  function add(uint256 a, uint256 b) internal pure returns (uint256) {... */\ntag_24:\n    /* \"@openzeppelin/contracts/utils/math/SafeMath.sol\":2813:2820  uint256 */\n  0x00\n    /* \"@openzeppelin/contracts/utils/math/SafeMath.sol\":2839:2844  a + b */\n  tag_28\n    /* \"@openzeppelin/contracts/utils/math/SafeMath.sol\":2843:2844  b */\n  dup3\n    /* \"@openzeppelin/contracts/utils/math/SafeMath.sol\":2839:2840  a */\n  dup5\n    /* \"@openzeppelin/contracts/utils/math/SafeMath.sol\":2839:2844  a + b */\n  tag_29\n  jump\t// in\ntag_28:\n    /* \"@openzeppelin/contracts/utils/math/SafeMath.sol\":2832:2844  return a + b */\n  swap1\n  pop\n    /* \"@openzeppelin/contracts/utils/math/SafeMath.sol\":2755:2851  function add(uint256 a, uint256 b) internal pure returns (uint256) {... */\ntag_27:\n  swap3\n  swap2\n  pop\n  pop\n  jump\t// out\n    /* \"#utility.yul\":14:141   */\ntag_30:\n    /* \"#utility.yul\":75:85   */\n  0x4e487b71\n    /* \"#utility.yul\":70:73   */\n  0xe0\n    /* \"#utility.yul\":66:86   */\n  shl\n    /* \"#utility.yul\":63:64   */\n  0x00\n    /* \"#utility.yul\":56:87   */\n  mstore\n    /* \"#utility.yul\":106:110   */\n  0x11\n    /* \"#utility.yul\":103:104   */\n  0x04\n    /* \"#utility.yul\":96:111   */\n  mstore\n    /* \"#utility.yul\":130:134   */\n  0x24\n    /* \"#utility.yul\":127:128   */\n  0x00\n    /* \"#utility.yul\":120:135   */\n  revert\n    /* \"#utility.yul\":146:568   */\ntag_31:\n    /* \"#utility.yul\":235:236   */\n  0x01\n    /* \"#utility.yul\":278:283   */\n  dup2\n    /* \"#utility.yul\":235:236   */\n  dup2\n    /* \"#utility.yul\":292:562   */\ntag_37:\n    /* \"#utility.yul\":313:320   */\n  dup1\n    /* \"#utility.yul\":303:311   */\n  dup6\n    /* \"#utility.yul\":300:321   */\n  gt\n    /* \"#utility.yul\":292:562   */\n  iszero\n  tag_39\n  jumpi\n    /* \"#utility.yul\":372:376   */\n  dup2\n    /* \"#utility.yul\":368:369   */\n  0x00\n    /* \"#utility.yul\":364:370   */\n  not\n    /* \"#utility.yul\":360:377   */\n  div\n    /* \"#utility.yul\":354:358   */\n  dup3\n    /* \"#utility.yul\":351:378   */\n  gt\n    /* \"#utility.yul\":348:401   */\n  iszero\n  tag_41\n  jumpi\n    /* \"#utility.yul\":381:399   */\n  tag_41\n  tag_30\n  jump\t// in\ntag_41:\n    /* \"#utility.yul\":431:438   */\n  dup1\n    /* \"#utility.yul\":421:429   */\n  dup6\n    /* \"#utility.yul\":417:439   */\n  and\n    /* \"#utility.yul\":414:469   */\n  iszero\n  tag_42\n  jumpi\n    /* \"#utility.yul\":451:467   */\n  swap2\n  dup2\n  mul\n  swap2\n    /* \"#utility.yul\":414:469   */\ntag_42:\n    /* \"#utility.yul\":530:552   */\n  swap4\n  dup5\n  shr\n  swap4\n    /* \"#utility.yul\":490:505   */\n  swap1\n  dup1\n  mul\n  swap1\n    /* \"#utility.yul\":292:562   */\n  jump(tag_37)\ntag_39:\n    /* \"#utility.yul\":296:299   */\n  pop\n    /* \"#utility.yul\":146:568   */\n  swap3\n  pop\n  swap3\n  swap1\n  pop\n  jump\t// out\n    /* \"#utility.yul\":573:1379   */\ntag_32:\n    /* \"#utility.yul\":622:627   */\n  0x00\n    /* \"#utility.yul\":652:660   */\n  dup3\n    /* \"#utility.yul\":642:722   */\n  tag_44\n  jumpi\n  pop\n    /* \"#utility.yul\":693:694   */\n  0x01\n    /* \"#utility.yul\":707:712   */\n  jump(tag_27)\n    /* \"#utility.yul\":642:722   */\ntag_44:\n    /* \"#utility.yul\":741:745   */\n  dup2\n    /* \"#utility.yul\":731:807   */\n  tag_45\n  jumpi\n  pop\n    /* \"#utility.yul\":778:779   */\n  0x00\n    /* \"#utility.yul\":792:797   */\n  jump(tag_27)\n    /* \"#utility.yul\":731:807   */\ntag_45:\n    /* \"#utility.yul\":823:827   */\n  dup2\n    /* \"#utility.yul\":841:842   */\n  0x01\n    /* \"#utility.yul\":836:895   */\n  dup2\n  eq\n  tag_47\n  jumpi\n    /* \"#utility.yul\":909:910   */\n  0x02\n    /* \"#utility.yul\":904:1034   */\n  dup2\n  eq\n  tag_48\n  jumpi\n    /* \"#utility.yul\":816:1034   */\n  jump(tag_46)\n    /* \"#utility.yul\":836:895   */\ntag_47:\n    /* \"#utility.yul\":866:867   */\n  0x01\n    /* \"#utility.yul\":857:867   */\n  swap2\n  pop\n    /* \"#utility.yul\":880:885   */\n  pop\n  jump(tag_27)\n    /* \"#utility.yul\":904:1034   */\ntag_48:\n    /* \"#utility.yul\":941:944   */\n  0xff\n    /* \"#utility.yul\":931:939   */\n  dup5\n    /* \"#utility.yul\":928:945   */\n  gt\n    /* \"#utility.yul\":925:968   */\n  iszero\n  tag_50\n  jumpi\n    /* \"#utility.yul\":948:966   */\n  tag_50\n  tag_30\n  jump\t// in\ntag_50:\n  pop\n  pop\n    /* \"#utility.yul\":1004:1005   */\n  0x01\n    /* \"#utility.yul\":990:1006   */\n  dup3\n  shl\n    /* \"#utility.yul\":1019:1024   */\n  jump(tag_27)\n    /* \"#utility.yul\":816:1034   */\ntag_46:\n  pop\n    /* \"#utility.yul\":1118:1120   */\n  0x20\n    /* \"#utility.yul\":1108:1116   */\n  dup4\n    /* \"#utility.yul\":1105:1121   */\n  lt\n    /* \"#utility.yul\":1099:1102   */\n  0x0133\n    /* \"#utility.yul\":1093:1097   */\n  dup4\n    /* \"#utility.yul\":1090:1103   */\n  lt\n    /* \"#utility.yul\":1086:1122   */\n  and\n    /* \"#utility.yul\":1080:1082   */\n  0x4e\n    /* \"#utility.yul\":1070:1078   */\n  dup5\n    /* \"#utility.yul\":1067:1083   */\n  lt\n    /* \"#utility.yul\":1062:1064   */\n  0x0b\n    /* \"#utility.yul\":1056:1060   */\n  dup5\n    /* \"#utility.yul\":1053:1065   */\n  lt\n    /* \"#utility.yul\":1049:1084   */\n  and\n    /* \"#utility.yul\":1046:1123   */\n  or\n    /* \"#utility.yul\":1043:1202   */\n  iszero\n  tag_51\n  jumpi\n  pop\n    /* \"#utility.yul\":1155:1174   */\n  dup2\n  dup2\n  exp\n    /* \"#utility.yul\":1187:1192   */\n  jump(tag_27)\n    /* \"#utility.yul\":1043:1202   */\ntag_51:\n    /* \"#utility.yul\":1234:1268   */\n  tag_52\n    /* \"#utility.yul\":1259:1267   */\n  dup4\n    /* \"#utility.yul\":1253:1257   */\n  dup4\n    /* \"#utility.yul\":1234:1268   */\n  tag_31\n  jump\t// in\ntag_52:\n    /* \"#utility.yul\":1304:1310   */\n  dup1\n    /* \"#utility.yul\":1300:1301   */\n  0x00\n    /* \"#utility.yul\":1296:1302   */\n  not\n    /* \"#utility.yul\":1292:1311   */\n  div\n    /* \"#utility.yul\":1283:1290   */\n  dup3\n    /* \"#utility.yul\":1280:1312   */\n  gt\n    /* \"#utility.yul\":1277:1335   */\n  iszero\n  tag_54\n  jumpi\n    /* \"#utility.yul\":1315:1333   */\n  tag_54\n  tag_30\n  jump\t// in\ntag_54:\n    /* \"#utility.yul\":1353:1373   */\n  mul\n  swap4\n    /* \"#utility.yul\":573:1379   */\n  swap3\n  pop\n  pop\n  pop\n  jump\t// out\n    /* \"#utility.yul\":1384:1515   */\ntag_2:\n    /* \"#utility.yul\":1444:1449   */\n  0x00\n    /* \"#utility.yul\":1473:1509   */\n  tag_28\n    /* \"#utility.yul\":1500:1508   */\n  dup4\n    /* \"#utility.yul\":1494:1498   */\n  dup4\n    /* \"#utility.yul\":1473:1509   */\n  tag_32\n  jump\t// in\n    /* \"#utility.yul\":1520:1688   */\ntag_4:\n    /* \"#utility.yul\":1560:1567   */\n  0x00\n    /* \"#utility.yul\":1626:1627   */\n  dup2\n    /* \"#utility.yul\":1622:1623   */\n  0x00\n    /* \"#utility.yul\":1618:1624   */\n  not\n    /* \"#utility.yul\":1614:1628   */\n  div\n    /* \"#utility.yul\":1611:1612   */\n  dup4\n    /* \"#utility.yul\":1608:1629   */\n  gt\n    /* \"#utility.yul\":1603:1604   */\n  dup3\n    /* \"#utility.yul\":1596:1605   */\n  iszero\n    /* \"#utility.yul\":1589:1606   */\n  iszero\n    /* \"#utility.yul\":1585:1630   */\n  and\n    /* \"#utility.yul\":1582:1653   */\n  iszero\n  tag_59\n  jumpi\n    /* \"#utility.yul\":1633:1651   */\n  tag_59\n  tag_30\n  jump\t// in\ntag_59:\n  pop\n    /* \"#utility.yul\":1673:1682   */\n  mul\n  swap1\n    /* \"#utility.yul\":1520:1688   */\n  jump\t// out\n    /* \"#utility.yul\":1693:1870   */\ntag_33:\n    /* \"#utility.yul\":1772:1785   */\n  dup1\n  mload\n  sub(shl(0xa0, 0x01), 0x01)\n    /* \"#utility.yul\":1814:1845   */\n  dup2\n  and\n    /* \"#utility.yul\":1804:1846   */\n  dup2\n  eq\n    /* \"#utility.yul\":1794:1864   */\n  tag_61\n  jumpi\n    /* \"#utility.yul\":1860:1861   */\n  0x00\n    /* \"#utility.yul\":1857:1858   */\n  dup1\n    /* \"#utility.yul\":1850:1862   */\n  revert\n    /* \"#utility.yul\":1794:1864   */\ntag_61:\n    /* \"#utility.yul\":1693:1870   */\n  swap2\n  swap1\n  pop\n  jump\t// out\n    /* \"#utility.yul\":1875:2253   */\ntag_7:\n    /* \"#utility.yul\":1963:1969   */\n  0x00\n    /* \"#utility.yul\":1971:1977   */\n  dup1\n    /* \"#utility.yul\":1979:1985   */\n  0x00\n    /* \"#utility.yul\":2032:2034   */\n  0x60\n    /* \"#utility.yul\":2020:2029   */\n  dup5\n    /* \"#utility.yul\":2011:2018   */\n  dup7\n    /* \"#utility.yul\":2007:2030   */\n  sub\n    /* \"#utility.yul\":2003:2035   */\n  slt\n    /* \"#utility.yul\":2000:2052   */\n  iszero\n  tag_63\n  jumpi\n    /* \"#utility.yul\":2048:2049   */\n  0x00\n    /* \"#utility.yul\":2045:2046   */\n  dup1\n    /* \"#utility.yul\":2038:2050   */\n  revert\n    /* \"#utility.yul\":2000:2052   */\ntag_63:\n    /* \"#utility.yul\":2071:2111   */\n  tag_64\n    /* \"#utility.yul\":2101:2110   */\n  dup5\n    /* \"#utility.yul\":2071:2111   */\n  tag_33\n  jump\t// in\ntag_64:\n    /* \"#utility.yul\":2061:2111   */\n  swap3\n  pop\n    /* \"#utility.yul\":2130:2179   */\n  tag_65\n    /* \"#utility.yul\":2175:2177   */\n  0x20\n    /* \"#utility.yul\":2164:2173   */\n  dup6\n    /* \"#utility.yul\":2160:2178   */\n  add\n    /* \"#utility.yul\":2130:2179   */\n  tag_33\n  jump\t// in\ntag_65:\n    /* \"#utility.yul\":2120:2179   */\n  swap2\n  pop\n    /* \"#utility.yul\":2198:2247   */\n  tag_66\n    /* \"#utility.yul\":2243:2245   */\n  0x40\n    /* \"#utility.yul\":2232:2241   */\n  dup6\n    /* \"#utility.yul\":2228:2246   */\n  add\n    /* \"#utility.yul\":2198:2247   */\n  tag_33\n  jump\t// in\ntag_66:\n    /* \"#utility.yul\":2188:2247   */\n  swap1\n  pop\n    /* \"#utility.yul\":1875:2253   */\n  swap3\n  pop\n  swap3\n  pop\n  swap3\n  jump\t// out\n    /* \"#utility.yul\":2440:2568   */\ntag_29:\n    /* \"#utility.yul\":2480:2483   */\n  0x00\n    /* \"#utility.yul\":2511:2512   */\n  dup3\n    /* \"#utility.yul\":2507:2513   */\n  not\n    /* \"#utility.yul\":2504:2505   */\n  dup3\n    /* \"#utility.yul\":2501:2514   */\n  gt\n    /* \"#utility.yul\":2498:2537   */\n  iszero\n  tag_70\n  jumpi\n    /* \"#utility.yul\":2517:2535   */\n  tag_70\n  tag_30\n  jump\t// in\ntag_70:\n  pop\n    /* \"#utility.yul\":2553:2562   */\n  add\n  swap1\n    /* \"#utility.yul\":2440:2568   */\n  jump\t// out\ntag_34:\n    /* \"BillionCash.sol\":186:5807  contract BillionCash is Ownable {... */\n  dataSize(sub_0)\n  dup1\n  dataOffset(sub_0)\n  0x00\n  codecopy\n  0x00\n  return\nstop\n\nsub_0: assembly {\n        /* \"BillionCash.sol\":186:5807  contract BillionCash is Ownable {... */\n      mstore(0x40, 0x80)\n      callvalue\n      dup1\n      iszero\n      tag_1\n      jumpi\n      0x00\n      dup1\n      revert\n    tag_1:\n      pop\n      jumpi(tag_2, lt(calldatasize, 0x04))\n      shr(0xe0, calldataload(0x00))\n      dup1\n      0x7711c596\n      gt\n      tag_22\n      jumpi\n      dup1\n      0xba0fb861\n      gt\n      tag_23\n      jumpi\n      dup1\n      0xba0fb861\n      eq\n      tag_17\n      jumpi\n      dup1\n      0xd0d41fe1\n      eq\n      tag_18\n      jumpi\n      dup1\n      0xdd62ed3e\n      eq\n      tag_19\n      jumpi\n      dup1\n      0xeaf98d23\n      eq\n      tag_20\n      jumpi\n      dup1\n      0xf2fde38b\n      eq\n      tag_21\n      jumpi\n      0x00\n      dup1\n      revert\n    tag_23:\n      dup1\n      0x7711c596\n      eq\n      tag_12\n      jumpi\n      dup1\n      0x8da5cb5b\n      eq\n      tag_13\n      jumpi\n      dup1\n      0x95d89b41\n      eq\n      tag_14\n      jumpi\n      dup1\n      0xa457c2d7\n      eq\n      tag_15\n      jumpi\n      dup1\n      0xa9059cbb\n      eq\n      tag_16\n      jumpi\n      0x00\n      dup1\n      revert\n    tag_22:\n      dup1\n      0x23b872dd\n      gt\n      tag_24\n      jumpi\n      dup1\n      0x23b872dd\n      eq\n      tag_7\n      jumpi\n      dup1\n      0x313ce567\n      eq\n      tag_8\n      jumpi\n      dup1\n      0x39509351\n      eq\n      tag_9\n      jumpi\n      dup1\n      0x70a08231\n      eq\n      tag_10\n      jumpi\n      dup1\n      0x715018a6\n      eq\n      tag_11\n      jumpi\n      0x00\n      dup1\n      revert\n    tag_24:\n      dup1\n      0x01c234a8\n      eq\n      tag_3\n      jumpi\n      dup1\n      0x06fdde03\n      eq\n      tag_4\n      jumpi\n      dup1\n      0x095ea7b3\n      eq\n      tag_5\n      jumpi\n      dup1\n      0x18160ddd\n      eq\n      tag_6\n      jumpi\n    tag_2:\n      0x00\n      dup1\n      revert\n        /* \"BillionCash.sol\":662:709  uint256 public constant PERCENTS_DIVIDER = 1000 */\n    tag_3:\n      tag_25\n        /* \"BillionCash.sol\":705:709  1000 */\n      0x03e8\n        /* \"BillionCash.sol\":662:709  uint256 public constant PERCENTS_DIVIDER = 1000 */\n      dup2\n      jump\n    tag_25:\n      mload(0x40)\n        /* \"#utility.yul\":160:185   */\n      swap1\n      dup2\n      mstore\n        /* \"#utility.yul\":148:150   */\n      0x20\n        /* \"#utility.yul\":133:151   */\n      add\n        /* \"BillionCash.sol\":662:709  uint256 public constant PERCENTS_DIVIDER = 1000 */\n    tag_27:\n      mload(0x40)\n      dup1\n      swap2\n      sub\n      swap1\n      return\n        /* \"BillionCash.sol\":1263:1350  function name() public pure returns (string memory) {... */\n    tag_4:\n        /* \"BillionCash.sol\":1333:1342  tokenName */\n      0x40\n      dup1\n      mload\n      dup1\n      dup3\n      add\n      swap1\n      swap2\n      mstore\n      0x0b\n      dup2\n      mstore\n      shl(0xab, 0x084d2d8d8d2dedc86c2e6d)\n      0x20\n      dup3\n      add\n      mstore\n        /* \"BillionCash.sol\":1263:1350  function name() public pure returns (string memory) {... */\n    tag_29:\n      mload(0x40)\n      tag_27\n      swap2\n      swap1\n      tag_32\n      jump\t// in\n        /* \"BillionCash.sol\":3135:3377  function approve(address spender, uint256 value) public returns (bool) {... */\n    tag_5:\n      tag_33\n      tag_34\n      calldatasize\n      0x04\n      tag_35\n      jump\t// in\n    tag_34:\n      tag_36\n      jump\t// in\n    tag_33:\n      mload(0x40)\n        /* \"#utility.yul\":1419:1433   */\n      swap1\n      iszero\n        /* \"#utility.yul\":1412:1434   */\n      iszero\n        /* \"#utility.yul\":1394:1435   */\n      dup2\n      mstore\n        /* \"#utility.yul\":1382:1384   */\n      0x20\n        /* \"#utility.yul\":1367:1385   */\n      add\n        /* \"BillionCash.sol\":3135:3377  function approve(address spender, uint256 value) public returns (bool) {... */\n      tag_27\n        /* \"#utility.yul\":1254:1441   */\n      jump\n        /* \"BillionCash.sol\":1552:1643  function totalSupply() public view returns (uint256) {... */\n    tag_6:\n        /* \"BillionCash.sol\":1623:1635  _totalSupply */\n      sload(0x03)\n        /* \"BillionCash.sol\":1552:1643  function totalSupply() public view returns (uint256) {... */\n      jump(tag_25)\n        /* \"BillionCash.sol\":3385:4681  function transferFrom(... */\n    tag_7:\n      tag_33\n      tag_43\n      calldatasize\n      0x04\n      tag_44\n      jump\t// in\n    tag_43:\n      tag_45\n      jump\t// in\n        /* \"BillionCash.sol\":1457:1544  function decimals() public pure returns (uint8) {... */\n    tag_8:\n      mload(0x40)\n        /* \"BillionCash.sol\":506:508  18 */\n      0x12\n        /* \"#utility.yul\":2049:2085   */\n      dup2\n      mstore\n        /* \"#utility.yul\":2037:2039   */\n      0x20\n        /* \"#utility.yul\":2022:2040   */\n      add\n        /* \"BillionCash.sol\":1457:1544  function decimals() public pure returns (uint8) {... */\n      tag_27\n        /* \"#utility.yul\":1907:2091   */\n      jump\n        /* \"BillionCash.sol\":4689:5059  function increaseAllowance(address spender, uint256 addedValue)... */\n    tag_9:\n      tag_33\n      tag_52\n      calldatasize\n      0x04\n      tag_35\n      jump\t// in\n    tag_52:\n      tag_53\n      jump\t// in\n        /* \"BillionCash.sol\":1651:1764  function balanceOf(address owner) public view returns (uint256) {... */\n    tag_10:\n      tag_25\n      tag_56\n      calldatasize\n      0x04\n      tag_57\n      jump\t// in\n    tag_56:\n      sub(shl(0xa0, 0x01), 0x01)\n        /* \"BillionCash.sol\":1733:1756  _BCTokenBalances[owner] */\n      and\n        /* \"BillionCash.sol\":1706:1713  uint256 */\n      0x00\n        /* \"BillionCash.sol\":1733:1756  _BCTokenBalances[owner] */\n      swap1\n      dup2\n      mstore\n        /* \"BillionCash.sol\":1733:1749  _BCTokenBalances */\n      0x01\n        /* \"BillionCash.sol\":1733:1756  _BCTokenBalances[owner] */\n      0x20\n      mstore\n      0x40\n      swap1\n      keccak256\n      sload\n      swap1\n        /* \"BillionCash.sol\":1651:1764  function balanceOf(address owner) public view returns (uint256) {... */\n      jump\n        /* \"@openzeppelin/contracts/access/Ownable.sol\":1668:1769  function renounceOwnership() public virtual onlyOwner {... */\n    tag_11:\n      tag_60\n      tag_61\n      jump\t// in\n    tag_60:\n      stop\n        /* \"BillionCash.sol\":258:309  mapping(address => uint256) public _BCTokenBalances */\n    tag_12:\n      tag_25\n      tag_63\n      calldatasize\n      0x04\n      tag_57\n      jump\t// in\n    tag_63:\n      mstore(0x20, 0x01)\n      0x00\n      swap1\n      dup2\n      mstore\n      0x40\n      swap1\n      keccak256\n      sload\n      dup2\n      jump\n        /* \"@openzeppelin/contracts/access/Ownable.sol\":1036:1121  function owner() public view virtual returns (address) {... */\n    tag_13:\n        /* \"@openzeppelin/contracts/access/Ownable.sol\":1082:1089  address */\n      0x00\n        /* \"@openzeppelin/contracts/access/Ownable.sol\":1108:1114  _owner */\n      sload\n        /* \"@openzeppelin/contracts/access/Ownable.sol\":1036:1121  function owner() public view virtual returns (address) {... */\n      mload(0x40)\n      sub(shl(0xa0, 0x01), 0x01)\n        /* \"@openzeppelin/contracts/access/Ownable.sol\":1108:1114  _owner */\n      swap1\n      swap2\n      and\n        /* \"#utility.yul\":2494:2545   */\n      dup2\n      mstore\n        /* \"#utility.yul\":2482:2484   */\n      0x20\n        /* \"#utility.yul\":2467:2485   */\n      add\n        /* \"@openzeppelin/contracts/access/Ownable.sol\":1036:1121  function owner() public view virtual returns (address) {... */\n      tag_27\n        /* \"#utility.yul\":2348:2551   */\n      jump\n        /* \"BillionCash.sol\":1358:1449  function symbol() public pure returns (string memory) {... */\n    tag_14:\n        /* \"BillionCash.sol\":1430:1441  tokenSymbol */\n      0x40\n      dup1\n      mload\n      dup1\n      dup3\n      add\n      swap1\n      swap2\n      mstore\n      0x02\n      dup2\n      mstore\n      shl(0xf0, 0x4243)\n      0x20\n      dup3\n      add\n      mstore\n        /* \"BillionCash.sol\":1358:1449  function symbol() public pure returns (string memory) {... */\n      jump(tag_29)\n        /* \"BillionCash.sol\":5067:5447  function decreaseAllowance(address spender, uint256 subtractedValue)... */\n    tag_15:\n      tag_33\n      tag_74\n      calldatasize\n      0x04\n      tag_35\n      jump\t// in\n    tag_74:\n      tag_75\n      jump\t// in\n        /* \"BillionCash.sol\":1772:2956  function transfer(address to, uint256 value) public returns (bool) {... */\n    tag_16:\n      tag_33\n      tag_78\n      calldatasize\n      0x04\n      tag_35\n      jump\t// in\n    tag_78:\n      tag_79\n      jump\t// in\n        /* \"BillionCash.sol\":316:379  mapping(address => mapping(address => uint256)) public _allowed */\n    tag_17:\n      tag_25\n      tag_82\n      calldatasize\n      0x04\n      tag_83\n      jump\t// in\n    tag_82:\n      0x02\n      0x20\n      swap1\n      dup2\n      mstore\n      0x00\n      swap3\n      dup4\n      mstore\n      0x40\n      dup1\n      dup5\n      keccak256\n      swap1\n      swap2\n      mstore\n      swap1\n      dup3\n      mstore\n      swap1\n      keccak256\n      sload\n      dup2\n      jump\n        /* \"BillionCash.sol\":5688:5804  function setDevAddress(address payable _devAddress) external onlyOwner {... */\n    tag_18:\n      tag_60\n      tag_87\n      calldatasize\n      0x04\n      tag_57\n      jump\t// in\n    tag_87:\n      tag_89\n      jump\t// in\n        /* \"BillionCash.sol\":2964:3127  function allowance(address owner, address spender)... */\n    tag_19:\n      tag_25\n      tag_91\n      calldatasize\n      0x04\n      tag_83\n      jump\t// in\n    tag_91:\n      sub(shl(0xa0, 0x01), 0x01)\n        /* \"BillionCash.sol\":3095:3110  _allowed[owner] */\n      swap2\n      dup3\n      and\n        /* \"BillionCash.sol\":3063:3070  uint256 */\n      0x00\n        /* \"BillionCash.sol\":3095:3110  _allowed[owner] */\n      swap1\n      dup2\n      mstore\n        /* \"BillionCash.sol\":3095:3103  _allowed */\n      0x02\n        /* \"BillionCash.sol\":3095:3110  _allowed[owner] */\n      0x20\n      swap1\n      dup2\n      mstore\n      0x40\n      dup1\n      dup4\n      keccak256\n        /* \"BillionCash.sol\":3095:3119  _allowed[owner][spender] */\n      swap4\n      swap1\n      swap5\n      and\n      dup3\n      mstore\n      swap2\n      swap1\n      swap2\n      mstore\n      keccak256\n      sload\n      swap1\n        /* \"BillionCash.sol\":2964:3127  function allowance(address owner, address spender)... */\n      jump\n        /* \"BillionCash.sol\":716:756  uint256 public constant FEE_PERCENT = 50 */\n    tag_20:\n      tag_25\n        /* \"BillionCash.sol\":754:756  50 */\n      0x32\n        /* \"BillionCash.sol\":716:756  uint256 public constant FEE_PERCENT = 50 */\n      dup2\n      jump\n        /* \"@openzeppelin/contracts/access/Ownable.sol\":1918:2116  function transferOwnership(address newOwner) public virtual onlyOwner {... */\n    tag_21:\n      tag_60\n      tag_98\n      calldatasize\n      0x04\n      tag_57\n      jump\t// in\n    tag_98:\n      tag_99\n      jump\t// in\n        /* \"BillionCash.sol\":3135:3377  function approve(address spender, uint256 value) public returns (bool) {... */\n    tag_36:\n        /* \"BillionCash.sol\":3200:3204  bool */\n      0x00\n      sub(shl(0xa0, 0x01), 0x01)\n        /* \"BillionCash.sol\":3225:3246  spender != address(0) */\n      dup4\n      and\n        /* \"BillionCash.sol\":3217:3247  require(spender != address(0)) */\n      tag_103\n      jumpi\n      0x00\n      dup1\n      revert\n    tag_103:\n        /* \"BillionCash.sol\":3267:3277  msg.sender */\n      caller\n        /* \"BillionCash.sol\":3258:3278  _allowed[msg.sender] */\n      0x00\n      dup2\n      dup2\n      mstore\n        /* \"BillionCash.sol\":3258:3266  _allowed */\n      0x02\n        /* \"BillionCash.sol\":3258:3278  _allowed[msg.sender] */\n      0x20\n      swap1\n      dup2\n      mstore\n      0x40\n      dup1\n      dup4\n      keccak256\n      sub(shl(0xa0, 0x01), 0x01)\n        /* \"BillionCash.sol\":3258:3287  _allowed[msg.sender][spender] */\n      dup9\n      and\n      dup1\n      dup6\n      mstore\n      swap1\n      dup4\n      mstore\n      swap3\n      dup2\n      swap1\n      keccak256\n        /* \"BillionCash.sol\":3258:3295  _allowed[msg.sender][spender] = value */\n      dup7\n      swap1\n      sstore\n        /* \"BillionCash.sol\":3311:3347  Approval(msg.sender, spender, value) */\n      mload\n        /* \"#utility.yul\":160:185   */\n      dup6\n      dup2\n      mstore\n        /* \"BillionCash.sol\":3258:3287  _allowed[msg.sender][spender] */\n      swap2\n      swap3\n        /* \"BillionCash.sol\":3267:3277  msg.sender */\n      swap2\n        /* \"BillionCash.sol\":3311:3347  Approval(msg.sender, spender, value) */\n      0x8c5be1e5ebec7d5bd14f71427d1e84f3dd0314c0f7b2291e5b200ac8c7c3b925\n      swap2\n        /* \"#utility.yul\":133:151   */\n      add\n        /* \"BillionCash.sol\":3311:3347  Approval(msg.sender, spender, value) */\n    tag_104:\n      mload(0x40)\n      dup1\n      swap2\n      sub\n      swap1\n      log3\n      pop\n        /* \"BillionCash.sol\":3365:3369  true */\n      0x01\n        /* \"BillionCash.sol\":3135:3377  function approve(address spender, uint256 value) public returns (bool) {... */\n      swap3\n      swap2\n      pop\n      pop\n      jump\t// out\n        /* \"BillionCash.sol\":3385:4681  function transferFrom(... */\n    tag_45:\n      sub(shl(0xa0, 0x01), 0x01)\n        /* \"BillionCash.sol\":3532:3554  _BCTokenBalances[from] */\n      dup4\n      and\n        /* \"BillionCash.sol\":3498:3502  bool */\n      0x00\n        /* \"BillionCash.sol\":3532:3554  _BCTokenBalances[from] */\n      swap1\n      dup2\n      mstore\n        /* \"BillionCash.sol\":3532:3548  _BCTokenBalances */\n      0x01\n        /* \"BillionCash.sol\":3532:3554  _BCTokenBalances[from] */\n      0x20\n      mstore\n      0x40\n      dup2\n      keccak256\n      sload\n        /* \"BillionCash.sol\":3523:3554  value <= _BCTokenBalances[from] */\n      dup3\n      gt\n      iszero\n        /* \"BillionCash.sol\":3515:3555  require(value <= _BCTokenBalances[from]) */\n      tag_107\n      jumpi\n      0x00\n      dup1\n      revert\n    tag_107:\n      sub(shl(0xa0, 0x01), 0x01)\n        /* \"BillionCash.sol\":3583:3597  _allowed[from] */\n      dup5\n      and\n      0x00\n      swap1\n      dup2\n      mstore\n        /* \"BillionCash.sol\":3583:3591  _allowed */\n      0x02\n        /* \"BillionCash.sol\":3583:3597  _allowed[from] */\n      0x20\n      swap1\n      dup2\n      mstore\n      0x40\n      dup1\n      dup4\n      keccak256\n        /* \"BillionCash.sol\":3598:3608  msg.sender */\n      caller\n        /* \"BillionCash.sol\":3583:3609  _allowed[from][msg.sender] */\n      dup5\n      mstore\n      swap1\n      swap2\n      mstore\n      swap1\n      keccak256\n      sload\n        /* \"BillionCash.sol\":3574:3609  value <= _allowed[from][msg.sender] */\n      dup3\n      gt\n      iszero\n        /* \"BillionCash.sol\":3566:3610  require(value <= _allowed[from][msg.sender]) */\n      tag_108\n      jumpi\n      0x00\n      dup1\n      revert\n    tag_108:\n      sub(shl(0xa0, 0x01), 0x01)\n        /* \"BillionCash.sol\":3629:3645  to != address(0) */\n      dup4\n      and\n        /* \"BillionCash.sol\":3621:3646  require(to != address(0)) */\n      tag_109\n      jumpi\n      0x00\n      dup1\n      revert\n    tag_109:\n      sub(shl(0xa0, 0x01), 0x01)\n        /* \"BillionCash.sol\":3684:3706  _BCTokenBalances[from] */\n      dup5\n      and\n      0x00\n      swap1\n      dup2\n      mstore\n        /* \"BillionCash.sol\":3684:3700  _BCTokenBalances */\n      0x01\n        /* \"BillionCash.sol\":3684:3706  _BCTokenBalances[from] */\n      0x20\n      mstore\n      0x40\n      swap1\n      keccak256\n      sload\n        /* \"BillionCash.sol\":3684:3717  _BCTokenBalances[from].sub(value) */\n      tag_110\n      swap1\n        /* \"BillionCash.sol\":3711:3716  value */\n      dup4\n        /* \"BillionCash.sol\":3684:3710  _BCTokenBalances[from].sub */\n      tag_111\n        /* \"BillionCash.sol\":3684:3717  _BCTokenBalances[from].sub(value) */\n      jump\t// in\n    tag_110:\n      sub(shl(0xa0, 0x01), 0x01)\n        /* \"BillionCash.sol\":3659:3681  _BCTokenBalances[from] */\n      dup6\n      and\n      0x00\n      swap1\n      dup2\n      mstore\n        /* \"BillionCash.sol\":3659:3675  _BCTokenBalances */\n      0x01\n        /* \"BillionCash.sol\":3659:3681  _BCTokenBalances[from] */\n      0x20\n      mstore\n      0x40\n      dup2\n      keccak256\n        /* \"BillionCash.sol\":3659:3717  _BCTokenBalances[from] = _BCTokenBalances[from].sub(value) */\n      swap2\n      swap1\n      swap2\n      sstore\n        /* \"BillionCash.sol\":3754:3798  value.mul(FEE_PERCENT).div(PERCENTS_DIVIDER) */\n      tag_112\n        /* \"BillionCash.sol\":705:709  1000 */\n      0x03e8\n        /* \"BillionCash.sol\":3754:3776  value.mul(FEE_PERCENT) */\n      tag_113\n        /* \"BillionCash.sol\":3754:3759  value */\n      dup6\n        /* \"BillionCash.sol\":754:756  50 */\n      0x32\n        /* \"BillionCash.sol\":3754:3763  value.mul */\n      tag_114\n        /* \"BillionCash.sol\":3754:3776  value.mul(FEE_PERCENT) */\n      jump\t// in\n    tag_113:\n        /* \"BillionCash.sol\":3754:3780  value.mul(FEE_PERCENT).div */\n      swap1\n      tag_115\n        /* \"BillionCash.sol\":3754:3798  value.mul(FEE_PERCENT).div(PERCENTS_DIVIDER) */\n      jump\t// in\n    tag_112:\n        /* \"BillionCash.sol\":3730:3798  uint256 BCTokenForFee = value.mul(FEE_PERCENT).div(PERCENTS_DIVIDER) */\n      swap1\n      pop\n        /* \"BillionCash.sol\":3809:3833  uint256 tokensToTransfer */\n      0x00\n        /* \"BillionCash.sol\":3836:3940  value... */\n      tag_116\n        /* \"BillionCash.sol\":3730:3798  uint256 BCTokenForFee = value.mul(FEE_PERCENT).div(PERCENTS_DIVIDER) */\n      dup3\n        /* \"BillionCash.sol\":3836:3907  value... */\n      tag_118\n        /* \"BillionCash.sol\":3730:3798  uint256 BCTokenForFee = value.mul(FEE_PERCENT).div(PERCENTS_DIVIDER) */\n      dup2\n        /* \"BillionCash.sol\":3836:3907  value... */\n      dup2\n        /* \"BillionCash.sol\":3836:3841  value */\n      dup9\n        /* \"BillionCash.sol\":3730:3798  uint256 BCTokenForFee = value.mul(FEE_PERCENT).div(PERCENTS_DIVIDER) */\n      dup3\n        /* \"BillionCash.sol\":3836:3859  value... */\n      tag_111\n        /* \"BillionCash.sol\":3836:3874  value... */\n      jump\t// in\n    tag_118:\n        /* \"BillionCash.sol\":3836:3892  value... */\n      swap1\n      tag_111\n        /* \"BillionCash.sol\":3836:3907  value... */\n      jump\t// in\n        /* \"BillionCash.sol\":3836:3940  value... */\n    tag_116:\n      sub(shl(0xa0, 0x01), 0x01)\n        /* \"BillionCash.sol\":3976:3996  _BCTokenBalances[to] */\n      dup7\n      and\n      0x00\n      swap1\n      dup2\n      mstore\n        /* \"BillionCash.sol\":3976:3992  _BCTokenBalances */\n      0x01\n        /* \"BillionCash.sol\":3976:3996  _BCTokenBalances[to] */\n      0x20\n      mstore\n      0x40\n      swap1\n      keccak256\n      sload\n        /* \"BillionCash.sol\":3809:3940  uint256 tokensToTransfer = value... */\n      swap1\n      swap2\n      pop\n        /* \"BillionCash.sol\":3976:4018  _BCTokenBalances[to].add(tokensToTransfer) */\n      tag_119\n      swap1\n        /* \"BillionCash.sol\":3809:3940  uint256 tokensToTransfer = value... */\n      dup3\n        /* \"BillionCash.sol\":3976:4000  _BCTokenBalances[to].add */\n      tag_100\n        /* \"BillionCash.sol\":3976:4018  _BCTokenBalances[to].add(tokensToTransfer) */\n      jump\t// in\n    tag_119:\n      sub(shl(0xa0, 0x01), 0x01)\n        /* \"BillionCash.sol\":3953:3973  _BCTokenBalances[to] */\n      dup1\n      dup8\n      and\n      0x00\n      swap1\n      dup2\n      mstore\n        /* \"BillionCash.sol\":3953:3969  _BCTokenBalances */\n      0x01\n        /* \"BillionCash.sol\":3953:3973  _BCTokenBalances[to] */\n      0x20\n      mstore\n      0x40\n      dup1\n      dup3\n      keccak256\n        /* \"BillionCash.sol\":3953:4018  _BCTokenBalances[to] = _BCTokenBalances[to].add(tokensToTransfer) */\n      swap4\n      swap1\n      swap4\n      sstore\n        /* \"BillionCash.sol\":4079:4091  adminAddress */\n      sload(0x06)\n      swap1\n      swap2\n      and\n        /* \"BillionCash.sol\":4062:4092  _BCTokenBalances[adminAddress] */\n      dup2\n      mstore\n      keccak256\n      sload\n        /* \"BillionCash.sol\":4062:4135  _BCTokenBalances[adminAddress].add(... */\n      tag_120\n      swap1\n        /* \"BillionCash.sol\":4111:4124  BCTokenForFee */\n      dup4\n        /* \"BillionCash.sol\":4062:4096  _BCTokenBalances[adminAddress].add */\n      tag_100\n        /* \"BillionCash.sol\":4062:4135  _BCTokenBalances[adminAddress].add(... */\n      jump\t// in\n    tag_120:\n        /* \"BillionCash.sol\":4046:4058  adminAddress */\n      sload(0x06)\n      sub(shl(0xa0, 0x01), 0x01)\n      swap1\n      dup2\n      and\n        /* \"BillionCash.sol\":4029:4059  _BCTokenBalances[adminAddress] */\n      0x00\n      swap1\n      dup2\n      mstore\n        /* \"BillionCash.sol\":4029:4045  _BCTokenBalances */\n      0x01\n        /* \"BillionCash.sol\":4029:4059  _BCTokenBalances[adminAddress] */\n      0x20\n      mstore\n      0x40\n      dup1\n      dup3\n      keccak256\n        /* \"BillionCash.sol\":4029:4135  _BCTokenBalances[adminAddress] = _BCTokenBalances[adminAddress].add(... */\n      swap4\n      swap1\n      swap4\n      sstore\n        /* \"BillionCash.sol\":4199:4214  marketingwallet */\n      sload(0x05)\n      swap1\n      swap2\n      and\n        /* \"BillionCash.sol\":4182:4215  _BCTokenBalances[marketingwallet] */\n      dup2\n      mstore\n      keccak256\n      sload\n        /* \"BillionCash.sol\":4182:4258  _BCTokenBalances[marketingwallet].add(... */\n      tag_121\n      swap1\n        /* \"BillionCash.sol\":4234:4247  BCTokenForFee */\n      dup4\n        /* \"BillionCash.sol\":4182:4219  _BCTokenBalances[marketingwallet].add */\n      tag_100\n        /* \"BillionCash.sol\":4182:4258  _BCTokenBalances[marketingwallet].add(... */\n      jump\t// in\n    tag_121:\n        /* \"BillionCash.sol\":4163:4178  marketingwallet */\n      sload(0x05)\n      sub(shl(0xa0, 0x01), 0x01)\n      swap1\n      dup2\n      and\n        /* \"BillionCash.sol\":4146:4179  _BCTokenBalances[marketingwallet] */\n      0x00\n      swap1\n      dup2\n      mstore\n        /* \"BillionCash.sol\":4146:4162  _BCTokenBalances */\n      0x01\n        /* \"BillionCash.sol\":4146:4179  _BCTokenBalances[marketingwallet] */\n      0x20\n      mstore\n      0x40\n      dup1\n      dup3\n      keccak256\n        /* \"BillionCash.sol\":4146:4258  _BCTokenBalances[marketingwallet] = _BCTokenBalances[marketingwallet].add(... */\n      swap4\n      swap1\n      swap4\n      sstore\n        /* \"BillionCash.sol\":4318:4329  pancakeswap */\n      sload(0x04)\n      swap1\n      swap2\n      and\n        /* \"BillionCash.sol\":4301:4330  _BCTokenBalances[pancakeswap] */\n      dup2\n      mstore\n      keccak256\n      sload\n        /* \"BillionCash.sol\":4301:4373  _BCTokenBalances[pancakeswap].add(... */\n      tag_122\n      swap1\n        /* \"BillionCash.sol\":4349:4362  BCTokenForFee */\n      dup4\n        /* \"BillionCash.sol\":4301:4334  _BCTokenBalances[pancakeswap].add */\n      tag_100\n        /* \"BillionCash.sol\":4301:4373  _BCTokenBalances[pancakeswap].add(... */\n      jump\t// in\n    tag_122:\n        /* \"BillionCash.sol\":4286:4297  pancakeswap */\n      sload(0x04)\n      sub(shl(0xa0, 0x01), 0x01)\n      swap1\n      dup2\n      and\n        /* \"BillionCash.sol\":4269:4298  _BCTokenBalances[pancakeswap] */\n      0x00\n      swap1\n      dup2\n      mstore\n        /* \"BillionCash.sol\":4269:4285  _BCTokenBalances */\n      0x01\n        /* \"BillionCash.sol\":4269:4298  _BCTokenBalances[pancakeswap] */\n      0x20\n      swap1\n      dup2\n      mstore\n      0x40\n      dup1\n      dup4\n      keccak256\n        /* \"BillionCash.sol\":4269:4373  _BCTokenBalances[pancakeswap] = _BCTokenBalances[pancakeswap].add(... */\n      swap5\n      swap1\n      swap5\n      sstore\n        /* \"BillionCash.sol\":4413:4427  _allowed[from] */\n      swap2\n      dup10\n      and\n      dup2\n      mstore\n        /* \"BillionCash.sol\":4413:4421  _allowed */\n      0x02\n        /* \"BillionCash.sol\":4413:4427  _allowed[from] */\n      dup3\n      mstore\n      dup3\n      dup2\n      keccak256\n        /* \"BillionCash.sol\":4428:4438  msg.sender */\n      caller\n        /* \"BillionCash.sol\":4413:4439  _allowed[from][msg.sender] */\n      dup3\n      mstore\n      swap1\n      swap2\n      mstore\n      keccak256\n      sload\n        /* \"BillionCash.sol\":4413:4450  _allowed[from][msg.sender].sub(value) */\n      tag_123\n      swap1\n        /* \"BillionCash.sol\":4444:4449  value */\n      dup6\n        /* \"BillionCash.sol\":4413:4443  _allowed[from][msg.sender].sub */\n      tag_111\n        /* \"BillionCash.sol\":4413:4450  _allowed[from][msg.sender].sub(value) */\n      jump\t// in\n    tag_123:\n      sub(shl(0xa0, 0x01), 0x01)\n        /* \"BillionCash.sol\":4384:4398  _allowed[from] */\n      dup1\n      dup9\n      and\n      0x00\n      swap1\n      dup2\n      mstore\n        /* \"BillionCash.sol\":4384:4392  _allowed */\n      0x02\n        /* \"BillionCash.sol\":4384:4398  _allowed[from] */\n      0x20\n      swap1\n      dup2\n      mstore\n      0x40\n      dup1\n      dup4\n      keccak256\n        /* \"BillionCash.sol\":4399:4409  msg.sender */\n      caller\n        /* \"BillionCash.sol\":4384:4410  _allowed[from][msg.sender] */\n      dup1\n      dup6\n      mstore\n      swap3\n      mstore\n      swap2\n      dup3\n      swap1\n      keccak256\n        /* \"BillionCash.sol\":4384:4450  _allowed[from][msg.sender] = _allowed[from][msg.sender].sub(value) */\n      swap4\n      swap1\n      swap4\n      sstore\n        /* \"BillionCash.sol\":4489:4501  adminAddress */\n      sload(0x06)\n        /* \"BillionCash.sol\":4468:4517  Transfer(msg.sender, adminAddress, BCTokenForFee) */\n      swap1\n      mload\n        /* \"BillionCash.sol\":4489:4501  adminAddress */\n      swap2\n      and\n      swap2\n        /* \"BillionCash.sol\":4399:4409  msg.sender */\n      swap1\n      0x00\n      dup1\n      mload\n      0x20\n      data_ada389e1fc24a8587c776340efb91b36e675792ab631816100d55df0b5cf3cbc\n      dup4\n      codecopy\n      dup2\n      mload\n      swap2\n      mstore\n        /* \"BillionCash.sol\":4468:4517  Transfer(msg.sender, adminAddress, BCTokenForFee) */\n      swap1\n      tag_124\n      swap1\n        /* \"BillionCash.sol\":4503:4516  BCTokenForFee */\n      dup7\n        /* \"#utility.yul\":160:185   */\n      dup2\n      mstore\n        /* \"#utility.yul\":148:150   */\n      0x20\n        /* \"#utility.yul\":133:151   */\n      add\n      swap1\n        /* \"#utility.yul\":14:191   */\n      jump\n        /* \"BillionCash.sol\":4468:4517  Transfer(msg.sender, adminAddress, BCTokenForFee) */\n    tag_124:\n      mload(0x40)\n      dup1\n      swap2\n      sub\n      swap1\n      log3\n        /* \"BillionCash.sol\":4554:4569  marketingwallet */\n      sload(0x05)\n        /* \"BillionCash.sol\":4533:4585  Transfer(msg.sender, marketingwallet, BCTokenForFee) */\n      mload(0x40)\n        /* \"#utility.yul\":160:185   */\n      dup4\n      dup2\n      mstore\n      sub(shl(0xa0, 0x01), 0x01)\n        /* \"BillionCash.sol\":4554:4569  marketingwallet */\n      swap1\n      swap2\n      and\n      swap1\n        /* \"BillionCash.sol\":4542:4552  msg.sender */\n      caller\n      swap1\n      0x00\n      dup1\n      mload\n      0x20\n      data_ada389e1fc24a8587c776340efb91b36e675792ab631816100d55df0b5cf3cbc\n      dup4\n      codecopy\n      dup2\n      mload\n      swap2\n      mstore\n        /* \"BillionCash.sol\":4533:4585  Transfer(msg.sender, marketingwallet, BCTokenForFee) */\n      swap1\n        /* \"#utility.yul\":148:150   */\n      0x20\n        /* \"#utility.yul\":133:151   */\n      add\n        /* \"BillionCash.sol\":4533:4585  Transfer(msg.sender, marketingwallet, BCTokenForFee) */\n      mload(0x40)\n      dup1\n      swap2\n      sub\n      swap1\n      log3\n        /* \"BillionCash.sol\":4622:4633  pancakeswap */\n      sload(0x04)\n        /* \"BillionCash.sol\":4601:4649  Transfer(msg.sender, pancakeswap, BCTokenForFee) */\n      mload(0x40)\n        /* \"#utility.yul\":160:185   */\n      dup4\n      dup2\n      mstore\n      sub(shl(0xa0, 0x01), 0x01)\n        /* \"BillionCash.sol\":4622:4633  pancakeswap */\n      swap1\n      swap2\n      and\n      swap1\n        /* \"BillionCash.sol\":4610:4620  msg.sender */\n      caller\n      swap1\n      0x00\n      dup1\n      mload\n      0x20\n      data_ada389e1fc24a8587c776340efb91b36e675792ab631816100d55df0b5cf3cbc\n      dup4\n      codecopy\n      dup2\n      mload\n      swap2\n      mstore\n        /* \"BillionCash.sol\":4601:4649  Transfer(msg.sender, pancakeswap, BCTokenForFee) */\n      swap1\n        /* \"#utility.yul\":148:150   */\n      0x20\n        /* \"#utility.yul\":133:151   */\n      add\n        /* \"BillionCash.sol\":4601:4649  Transfer(msg.sender, pancakeswap, BCTokenForFee) */\n      mload(0x40)\n      dup1\n      swap2\n      sub\n      swap1\n      log3\n      pop\n        /* \"BillionCash.sol\":4669:4673  true */\n      0x01\n      swap6\n        /* \"BillionCash.sol\":3385:4681  function transferFrom(... */\n      swap5\n      pop\n      pop\n      pop\n      pop\n      pop\n      jump\t// out\n        /* \"BillionCash.sol\":4689:5059  function increaseAllowance(address spender, uint256 addedValue)... */\n    tag_53:\n        /* \"BillionCash.sol\":4787:4791  bool */\n      0x00\n      sub(shl(0xa0, 0x01), 0x01)\n        /* \"BillionCash.sol\":4817:4838  spender != address(0) */\n      dup4\n      and\n        /* \"BillionCash.sol\":4809:4839  require(spender != address(0)) */\n      tag_129\n      jumpi\n      0x00\n      dup1\n      revert\n    tag_129:\n        /* \"BillionCash.sol\":4906:4916  msg.sender */\n      caller\n        /* \"BillionCash.sol\":4897:4917  _allowed[msg.sender] */\n      0x00\n      swap1\n      dup2\n      mstore\n        /* \"BillionCash.sol\":4897:4905  _allowed */\n      0x02\n        /* \"BillionCash.sol\":4897:4917  _allowed[msg.sender] */\n      0x20\n      swap1\n      dup2\n      mstore\n      0x40\n      dup1\n      dup4\n      keccak256\n      sub(shl(0xa0, 0x01), 0x01)\n        /* \"BillionCash.sol\":4897:4926  _allowed[msg.sender][spender] */\n      dup8\n      and\n      dup5\n      mstore\n      swap1\n      swap2\n      mstore\n      swap1\n      keccak256\n      sload\n        /* \"BillionCash.sol\":4897:4942  _allowed[msg.sender][spender].add(addedValue) */\n      tag_130\n      swap1\n        /* \"BillionCash.sol\":4931:4941  addedValue */\n      dup4\n        /* \"BillionCash.sol\":4897:4930  _allowed[msg.sender][spender].add */\n      tag_100\n        /* \"BillionCash.sol\":4897:4942  _allowed[msg.sender][spender].add(addedValue) */\n      jump\t// in\n    tag_130:\n        /* \"BillionCash.sol\":4859:4869  msg.sender */\n      caller\n        /* \"BillionCash.sol\":4850:4870  _allowed[msg.sender] */\n      0x00\n      dup2\n      dup2\n      mstore\n        /* \"BillionCash.sol\":4850:4858  _allowed */\n      0x02\n        /* \"BillionCash.sol\":4850:4870  _allowed[msg.sender] */\n      0x20\n      swap1\n      dup2\n      mstore\n      0x40\n      dup1\n      dup4\n      keccak256\n      sub(shl(0xa0, 0x01), 0x01)\n        /* \"BillionCash.sol\":4850:4879  _allowed[msg.sender][spender] */\n      dup10\n      and\n      dup1\n      dup6\n      mstore\n      swap1\n      dup4\n      mstore\n      swap3\n      dup2\n      swap1\n      keccak256\n        /* \"BillionCash.sol\":4850:4953  _allowed[msg.sender][spender] = (... */\n      dup6\n      swap1\n      sstore\n        /* \"BillionCash.sol\":4969:5029  Approval(msg.sender, spender, _allowed[msg.sender][spender]) */\n      mload\n        /* \"#utility.yul\":160:185   */\n      swap4\n      dup5\n      mstore\n        /* \"BillionCash.sol\":4850:4879  _allowed[msg.sender][spender] */\n      swap1\n      swap3\n        /* \"BillionCash.sol\":4969:5029  Approval(msg.sender, spender, _allowed[msg.sender][spender]) */\n      0x8c5be1e5ebec7d5bd14f71427d1e84f3dd0314c0f7b2291e5b200ac8c7c3b925\n      swap2\n        /* \"#utility.yul\":133:151   */\n      add\n        /* \"BillionCash.sol\":4969:5029  Approval(msg.sender, spender, _allowed[msg.sender][spender]) */\n      tag_104\n        /* \"#utility.yul\":14:191   */\n      jump\n        /* \"@openzeppelin/contracts/access/Ownable.sol\":1668:1769  function renounceOwnership() public virtual onlyOwner {... */\n    tag_61:\n        /* \"@openzeppelin/contracts/access/Ownable.sol\":1082:1089  address */\n      0x00\n        /* \"@openzeppelin/contracts/access/Ownable.sol\":1108:1114  _owner */\n      sload\n      sub(shl(0xa0, 0x01), 0x01)\n      and\n        /* \"@openzeppelin/contracts/utils/Context.sol\":719:729  msg.sender */\n      caller\n        /* \"@openzeppelin/contracts/access/Ownable.sol\":1248:1271  owner() == _msgSender() */\n      eq\n        /* \"@openzeppelin/contracts/access/Ownable.sol\":1240:1308  require(owner() == _msgSender(), \"Ownable: caller is not the owner\") */\n      tag_137\n      jumpi\n      mload(0x40)\n      shl(0xe5, 0x461bcd)\n      dup2\n      mstore\n      0x04\n      add\n      tag_138\n      swap1\n      tag_139\n      jump\t// in\n    tag_138:\n      mload(0x40)\n      dup1\n      swap2\n      sub\n      swap1\n      revert\n    tag_137:\n        /* \"@openzeppelin/contracts/access/Ownable.sol\":1732:1762  _transferOwnership(address(0)) */\n      tag_141\n        /* \"@openzeppelin/contracts/access/Ownable.sol\":1759:1760  0 */\n      0x00\n        /* \"@openzeppelin/contracts/access/Ownable.sol\":1732:1750  _transferOwnership */\n      tag_142\n        /* \"@openzeppelin/contracts/access/Ownable.sol\":1732:1762  _transferOwnership(address(0)) */\n      jump\t// in\n    tag_141:\n        /* \"@openzeppelin/contracts/access/Ownable.sol\":1668:1769  function renounceOwnership() public virtual onlyOwner {... */\n      jump\t// out\n        /* \"BillionCash.sol\":5067:5447  function decreaseAllowance(address spender, uint256 subtractedValue)... */\n    tag_75:\n        /* \"BillionCash.sol\":5170:5174  bool */\n      0x00\n      sub(shl(0xa0, 0x01), 0x01)\n        /* \"BillionCash.sol\":5200:5221  spender != address(0) */\n      dup4\n      and\n        /* \"BillionCash.sol\":5192:5222  require(spender != address(0)) */\n      tag_146\n      jumpi\n      0x00\n      dup1\n      revert\n    tag_146:\n        /* \"BillionCash.sol\":5289:5299  msg.sender */\n      caller\n        /* \"BillionCash.sol\":5280:5300  _allowed[msg.sender] */\n      0x00\n      swap1\n      dup2\n      mstore\n        /* \"BillionCash.sol\":5280:5288  _allowed */\n      0x02\n        /* \"BillionCash.sol\":5280:5300  _allowed[msg.sender] */\n      0x20\n      swap1\n      dup2\n      mstore\n      0x40\n      dup1\n      dup4\n      keccak256\n      sub(shl(0xa0, 0x01), 0x01)\n        /* \"BillionCash.sol\":5280:5309  _allowed[msg.sender][spender] */\n      dup8\n      and\n      dup5\n      mstore\n      swap1\n      swap2\n      mstore\n      swap1\n      keccak256\n      sload\n        /* \"BillionCash.sol\":5280:5330  _allowed[msg.sender][spender].sub(subtractedValue) */\n      tag_130\n      swap1\n        /* \"BillionCash.sol\":5314:5329  subtractedValue */\n      dup4\n        /* \"BillionCash.sol\":5280:5313  _allowed[msg.sender][spender].sub */\n      tag_111\n        /* \"BillionCash.sol\":5280:5330  _allowed[msg.sender][spender].sub(subtractedValue) */\n      jump\t// in\n        /* \"BillionCash.sol\":1772:2956  function transfer(address to, uint256 value) public returns (bool) {... */\n    tag_79:\n        /* \"BillionCash.sol\":1884:1894  msg.sender */\n      caller\n        /* \"BillionCash.sol\":1833:1837  bool */\n      0x00\n        /* \"BillionCash.sol\":1867:1895  _BCTokenBalances[msg.sender] */\n      swap1\n      dup2\n      mstore\n        /* \"BillionCash.sol\":1867:1883  _BCTokenBalances */\n      0x01\n        /* \"BillionCash.sol\":1867:1895  _BCTokenBalances[msg.sender] */\n      0x20\n      mstore\n      0x40\n      dup2\n      keccak256\n      sload\n        /* \"BillionCash.sol\":1858:1895  value <= _BCTokenBalances[msg.sender] */\n      dup3\n      gt\n      iszero\n        /* \"BillionCash.sol\":1850:1896  require(value <= _BCTokenBalances[msg.sender]) */\n      tag_150\n      jumpi\n      0x00\n      dup1\n      revert\n    tag_150:\n      sub(shl(0xa0, 0x01), 0x01)\n        /* \"BillionCash.sol\":1915:1931  to != address(0) */\n      dup4\n      and\n        /* \"BillionCash.sol\":1907:1932  require(to != address(0)) */\n      tag_151\n      jumpi\n      0x00\n      dup1\n      revert\n    tag_151:\n        /* \"BillionCash.sol\":1945:1966  uint256 BCTokenForFee */\n      0x00\n        /* \"BillionCash.sol\":1969:2013  value.mul(FEE_PERCENT).div(PERCENTS_DIVIDER) */\n      tag_152\n        /* \"BillionCash.sol\":705:709  1000 */\n      0x03e8\n        /* \"BillionCash.sol\":1969:1991  value.mul(FEE_PERCENT) */\n      tag_113\n        /* \"BillionCash.sol\":1969:1974  value */\n      dup6\n        /* \"BillionCash.sol\":754:756  50 */\n      0x32\n        /* \"BillionCash.sol\":1969:1978  value.mul */\n      tag_114\n        /* \"BillionCash.sol\":1969:1991  value.mul(FEE_PERCENT) */\n      jump\t// in\n        /* \"BillionCash.sol\":1969:2013  value.mul(FEE_PERCENT).div(PERCENTS_DIVIDER) */\n    tag_152:\n        /* \"BillionCash.sol\":1945:2013  uint256 BCTokenForFee = value.mul(FEE_PERCENT).div(PERCENTS_DIVIDER) */\n      swap1\n      pop\n        /* \"BillionCash.sol\":2024:2048  uint256 tokensToTransfer */\n      0x00\n        /* \"BillionCash.sol\":2051:2155  value... */\n      tag_154\n        /* \"BillionCash.sol\":1945:2013  uint256 BCTokenForFee = value.mul(FEE_PERCENT).div(PERCENTS_DIVIDER) */\n      dup3\n        /* \"BillionCash.sol\":2051:2122  value... */\n      tag_118\n        /* \"BillionCash.sol\":1945:2013  uint256 BCTokenForFee = value.mul(FEE_PERCENT).div(PERCENTS_DIVIDER) */\n      dup2\n        /* \"BillionCash.sol\":2051:2122  value... */\n      dup2\n        /* \"BillionCash.sol\":2051:2056  value */\n      dup9\n        /* \"BillionCash.sol\":1945:2013  uint256 BCTokenForFee = value.mul(FEE_PERCENT).div(PERCENTS_DIVIDER) */\n      dup3\n        /* \"BillionCash.sol\":2051:2074  value... */\n      tag_111\n        /* \"BillionCash.sol\":2051:2089  value... */\n      jump\t// in\n        /* \"BillionCash.sol\":2051:2155  value... */\n    tag_154:\n        /* \"BillionCash.sol\":2216:2226  msg.sender */\n      caller\n        /* \"BillionCash.sol\":2199:2227  _BCTokenBalances[msg.sender] */\n      0x00\n      swap1\n      dup2\n      mstore\n        /* \"BillionCash.sol\":2199:2215  _BCTokenBalances */\n      0x01\n        /* \"BillionCash.sol\":2199:2227  _BCTokenBalances[msg.sender] */\n      0x20\n      mstore\n      0x40\n      swap1\n      keccak256\n      sload\n        /* \"BillionCash.sol\":2024:2155  uint256 tokensToTransfer = value... */\n      swap1\n      swap2\n      pop\n        /* \"BillionCash.sol\":2199:2238  _BCTokenBalances[msg.sender].sub(value) */\n      tag_157\n      swap1\n        /* \"BillionCash.sol\":2232:2237  value */\n      dup6\n        /* \"BillionCash.sol\":2199:2231  _BCTokenBalances[msg.sender].sub */\n      tag_111\n        /* \"BillionCash.sol\":2199:2238  _BCTokenBalances[msg.sender].sub(value) */\n      jump\t// in\n    tag_157:\n        /* \"BillionCash.sol\":2185:2195  msg.sender */\n      caller\n        /* \"BillionCash.sol\":2168:2196  _BCTokenBalances[msg.sender] */\n      0x00\n      swap1\n      dup2\n      mstore\n        /* \"BillionCash.sol\":2168:2184  _BCTokenBalances */\n      0x01\n        /* \"BillionCash.sol\":2168:2196  _BCTokenBalances[msg.sender] */\n      0x20\n      mstore\n      0x40\n      dup1\n      dup3\n      keccak256\n        /* \"BillionCash.sol\":2168:2238  _BCTokenBalances[msg.sender] = _BCTokenBalances[msg.sender].sub(value) */\n      swap3\n      swap1\n      swap3\n      sstore\n      sub(shl(0xa0, 0x01), 0x01)\n        /* \"BillionCash.sol\":2272:2292  _BCTokenBalances[to] */\n      dup8\n      and\n      dup2\n      mstore\n      keccak256\n      sload\n        /* \"BillionCash.sol\":2272:2314  _BCTokenBalances[to].add(tokensToTransfer) */\n      tag_158\n      swap1\n        /* \"BillionCash.sol\":2297:2313  tokensToTransfer */\n      dup3\n        /* \"BillionCash.sol\":2272:2296  _BCTokenBalances[to].add */\n      tag_100\n        /* \"BillionCash.sol\":2272:2314  _BCTokenBalances[to].add(tokensToTransfer) */\n      jump\t// in\n    tag_158:\n      sub(shl(0xa0, 0x01), 0x01)\n        /* \"BillionCash.sol\":2249:2269  _BCTokenBalances[to] */\n      dup1\n      dup8\n      and\n      0x00\n      swap1\n      dup2\n      mstore\n        /* \"BillionCash.sol\":2249:2265  _BCTokenBalances */\n      0x01\n        /* \"BillionCash.sol\":2249:2269  _BCTokenBalances[to] */\n      0x20\n      mstore\n      0x40\n      dup1\n      dup3\n      keccak256\n        /* \"BillionCash.sol\":2249:2314  _BCTokenBalances[to] = _BCTokenBalances[to].add(tokensToTransfer) */\n      swap4\n      swap1\n      swap4\n      sstore\n        /* \"BillionCash.sol\":2375:2387  adminAddress */\n      sload(0x06)\n      swap1\n      swap2\n      and\n        /* \"BillionCash.sol\":2358:2388  _BCTokenBalances[adminAddress] */\n      dup2\n      mstore\n      keccak256\n      sload\n        /* \"BillionCash.sol\":2358:2431  _BCTokenBalances[adminAddress].add(... */\n      tag_159\n      swap1\n        /* \"BillionCash.sol\":2407:2420  BCTokenForFee */\n      dup4\n        /* \"BillionCash.sol\":2358:2392  _BCTokenBalances[adminAddress].add */\n      tag_100\n        /* \"BillionCash.sol\":2358:2431  _BCTokenBalances[adminAddress].add(... */\n      jump\t// in\n    tag_159:\n        /* \"BillionCash.sol\":2342:2354  adminAddress */\n      sload(0x06)\n      sub(shl(0xa0, 0x01), 0x01)\n      swap1\n      dup2\n      and\n        /* \"BillionCash.sol\":2325:2355  _BCTokenBalances[adminAddress] */\n      0x00\n      swap1\n      dup2\n      mstore\n        /* \"BillionCash.sol\":2325:2341  _BCTokenBalances */\n      0x01\n        /* \"BillionCash.sol\":2325:2355  _BCTokenBalances[adminAddress] */\n      0x20\n      mstore\n      0x40\n      dup1\n      dup3\n      keccak256\n        /* \"BillionCash.sol\":2325:2431  _BCTokenBalances[adminAddress] = _BCTokenBalances[adminAddress].add(... */\n      swap4\n      swap1\n      swap4\n      sstore\n        /* \"BillionCash.sol\":2495:2510  marketingwallet */\n      sload(0x05)\n      swap1\n      swap2\n      and\n        /* \"BillionCash.sol\":2478:2511  _BCTokenBalances[marketingwallet] */\n      dup2\n      mstore\n      keccak256\n      sload\n        /* \"BillionCash.sol\":2478:2554  _BCTokenBalances[marketingwallet].add(... */\n      tag_160\n      swap1\n        /* \"BillionCash.sol\":2530:2543  BCTokenForFee */\n      dup4\n        /* \"BillionCash.sol\":2478:2515  _BCTokenBalances[marketingwallet].add */\n      tag_100\n        /* \"BillionCash.sol\":2478:2554  _BCTokenBalances[marketingwallet].add(... */\n      jump\t// in\n    tag_160:\n        /* \"BillionCash.sol\":2459:2474  marketingwallet */\n      sload(0x05)\n      sub(shl(0xa0, 0x01), 0x01)\n      swap1\n      dup2\n      and\n        /* \"BillionCash.sol\":2442:2475  _BCTokenBalances[marketingwallet] */\n      0x00\n      swap1\n      dup2\n      mstore\n        /* \"BillionCash.sol\":2442:2458  _BCTokenBalances */\n      0x01\n        /* \"BillionCash.sol\":2442:2475  _BCTokenBalances[marketingwallet] */\n      0x20\n      mstore\n      0x40\n      dup1\n      dup3\n      keccak256\n        /* \"BillionCash.sol\":2442:2554  _BCTokenBalances[marketingwallet] = _BCTokenBalances[marketingwallet].add(... */\n      swap4\n      swap1\n      swap4\n      sstore\n        /* \"BillionCash.sol\":2614:2625  pancakeswap */\n      sload(0x04)\n      swap1\n      swap2\n      and\n        /* \"BillionCash.sol\":2597:2626  _BCTokenBalances[pancakeswap] */\n      dup2\n      mstore\n      keccak256\n      sload\n        /* \"BillionCash.sol\":2597:2669  _BCTokenBalances[pancakeswap].add(... */\n      tag_161\n      swap1\n        /* \"BillionCash.sol\":2645:2658  BCTokenForFee */\n      dup4\n        /* \"BillionCash.sol\":2597:2630  _BCTokenBalances[pancakeswap].add */\n      tag_100\n        /* \"BillionCash.sol\":2597:2669  _BCTokenBalances[pancakeswap].add(... */\n      jump\t// in\n    tag_161:\n        /* \"BillionCash.sol\":2582:2593  pancakeswap */\n      sload(0x04)\n      sub(shl(0xa0, 0x01), 0x01)\n      swap1\n      dup2\n      and\n        /* \"BillionCash.sol\":2565:2594  _BCTokenBalances[pancakeswap] */\n      0x00\n      swap1\n      dup2\n      mstore\n        /* \"BillionCash.sol\":2565:2581  _BCTokenBalances */\n      0x01\n        /* \"BillionCash.sol\":2565:2594  _BCTokenBalances[pancakeswap] */\n      0x20\n      swap1\n      dup2\n      mstore\n      0x40\n      swap2\n      dup3\n      swap1\n      keccak256\n        /* \"BillionCash.sol\":2565:2669  _BCTokenBalances[pancakeswap] = _BCTokenBalances[pancakeswap].add(... */\n      swap4\n      swap1\n      swap4\n      sstore\n        /* \"BillionCash.sol\":2687:2729  Transfer(msg.sender, to, tokensToTransfer) */\n      mload\n        /* \"#utility.yul\":160:185   */\n      dup4\n      dup2\n      mstore\n        /* \"BillionCash.sol\":2687:2729  Transfer(msg.sender, to, tokensToTransfer) */\n      swap1\n      dup8\n      and\n      swap2\n        /* \"BillionCash.sol\":2696:2706  msg.sender */\n      caller\n      swap2\n      0x00\n      dup1\n      mload\n      0x20\n      data_ada389e1fc24a8587c776340efb91b36e675792ab631816100d55df0b5cf3cbc\n      dup4\n      codecopy\n      dup2\n      mload\n      swap2\n      mstore\n        /* \"BillionCash.sol\":2687:2729  Transfer(msg.sender, to, tokensToTransfer) */\n      swap2\n        /* \"#utility.yul\":133:151   */\n      add\n        /* \"BillionCash.sol\":2687:2729  Transfer(msg.sender, to, tokensToTransfer) */\n      mload(0x40)\n      dup1\n      swap2\n      sub\n      swap1\n      log3\n        /* \"BillionCash.sol\":2766:2778  adminAddress */\n      sload(0x06)\n        /* \"BillionCash.sol\":2745:2794  Transfer(msg.sender, adminAddress, BCTokenForFee) */\n      mload(0x40)\n        /* \"#utility.yul\":160:185   */\n      dup4\n      dup2\n      mstore\n      sub(shl(0xa0, 0x01), 0x01)\n        /* \"BillionCash.sol\":2766:2778  adminAddress */\n      swap1\n      swap2\n      and\n      swap1\n        /* \"BillionCash.sol\":2754:2764  msg.sender */\n      caller\n      swap1\n      0x00\n      dup1\n      mload\n      0x20\n      data_ada389e1fc24a8587c776340efb91b36e675792ab631816100d55df0b5cf3cbc\n      dup4\n      codecopy\n      dup2\n      mload\n      swap2\n      mstore\n        /* \"BillionCash.sol\":2745:2794  Transfer(msg.sender, adminAddress, BCTokenForFee) */\n      swap1\n        /* \"#utility.yul\":148:150   */\n      0x20\n        /* \"#utility.yul\":133:151   */\n      add\n        /* \"BillionCash.sol\":2745:2794  Transfer(msg.sender, adminAddress, BCTokenForFee) */\n      mload(0x40)\n      dup1\n      swap2\n      sub\n      swap1\n      log3\n        /* \"BillionCash.sol\":2831:2846  marketingwallet */\n      sload(0x05)\n        /* \"BillionCash.sol\":2810:2862  Transfer(msg.sender, marketingwallet, BCTokenForFee) */\n      mload(0x40)\n        /* \"#utility.yul\":160:185   */\n      dup4\n      dup2\n      mstore\n      sub(shl(0xa0, 0x01), 0x01)\n        /* \"BillionCash.sol\":2831:2846  marketingwallet */\n      swap1\n      swap2\n      and\n      swap1\n        /* \"BillionCash.sol\":2819:2829  msg.sender */\n      caller\n      swap1\n      0x00\n      dup1\n      mload\n      0x20\n      data_ada389e1fc24a8587c776340efb91b36e675792ab631816100d55df0b5cf3cbc\n      dup4\n      codecopy\n      dup2\n      mload\n      swap2\n      mstore\n        /* \"BillionCash.sol\":2810:2862  Transfer(msg.sender, marketingwallet, BCTokenForFee) */\n      swap1\n        /* \"#utility.yul\":148:150   */\n      0x20\n        /* \"#utility.yul\":133:151   */\n      add\n        /* \"BillionCash.sol\":2810:2862  Transfer(msg.sender, marketingwallet, BCTokenForFee) */\n      mload(0x40)\n      dup1\n      swap2\n      sub\n      swap1\n      log3\n        /* \"BillionCash.sol\":2899:2910  pancakeswap */\n      sload(0x04)\n        /* \"BillionCash.sol\":2878:2926  Transfer(msg.sender, pancakeswap, BCTokenForFee) */\n      mload(0x40)\n        /* \"#utility.yul\":160:185   */\n      dup4\n      dup2\n      mstore\n      sub(shl(0xa0, 0x01), 0x01)\n        /* \"BillionCash.sol\":2899:2910  pancakeswap */\n      swap1\n      swap2\n      and\n      swap1\n        /* \"BillionCash.sol\":2887:2897  msg.sender */\n      caller\n      swap1\n      0x00\n      dup1\n      mload\n      0x20\n      data_ada389e1fc24a8587c776340efb91b36e675792ab631816100d55df0b5cf3cbc\n      dup4\n      codecopy\n      dup2\n      mload\n      swap2\n      mstore\n        /* \"BillionCash.sol\":2878:2926  Transfer(msg.sender, pancakeswap, BCTokenForFee) */\n      swap1\n        /* \"#utility.yul\":148:150   */\n      0x20\n        /* \"#utility.yul\":133:151   */\n      add\n        /* \"BillionCash.sol\":2878:2926  Transfer(msg.sender, pancakeswap, BCTokenForFee) */\n      mload(0x40)\n      dup1\n      swap2\n      sub\n      swap1\n      log3\n      pop\n        /* \"BillionCash.sol\":2944:2948  true */\n      0x01\n      swap5\n        /* \"BillionCash.sol\":1772:2956  function transfer(address to, uint256 value) public returns (bool) {... */\n      swap4\n      pop\n      pop\n      pop\n      pop\n      jump\t// out\n        /* \"BillionCash.sol\":5688:5804  function setDevAddress(address payable _devAddress) external onlyOwner {... */\n    tag_89:\n        /* \"@openzeppelin/contracts/access/Ownable.sol\":1082:1089  address */\n      0x00\n        /* \"@openzeppelin/contracts/access/Ownable.sol\":1108:1114  _owner */\n      sload\n      sub(shl(0xa0, 0x01), 0x01)\n      and\n        /* \"@openzeppelin/contracts/utils/Context.sol\":719:729  msg.sender */\n      caller\n        /* \"@openzeppelin/contracts/access/Ownable.sol\":1248:1271  owner() == _msgSender() */\n      eq\n        /* \"@openzeppelin/contracts/access/Ownable.sol\":1240:1308  require(owner() == _msgSender(), \"Ownable: caller is not the owner\") */\n      tag_169\n      jumpi\n      mload(0x40)\n      shl(0xe5, 0x461bcd)\n      dup2\n      mstore\n      0x04\n      add\n      tag_138\n      swap1\n      tag_139\n      jump\t// in\n    tag_169:\n        /* \"BillionCash.sol\":5770:5782  adminAddress */\n      0x06\n        /* \"BillionCash.sol\":5770:5796  adminAddress = _devAddress */\n      dup1\n      sload\n      not(sub(shl(0xa0, 0x01), 0x01))\n      and\n      sub(shl(0xa0, 0x01), 0x01)\n      swap3\n      swap1\n      swap3\n      and\n      swap2\n      swap1\n      swap2\n      or\n      swap1\n      sstore\n        /* \"BillionCash.sol\":5688:5804  function setDevAddress(address payable _devAddress) external onlyOwner {... */\n      jump\t// out\n        /* \"@openzeppelin/contracts/access/Ownable.sol\":1918:2116  function transferOwnership(address newOwner) public virtual onlyOwner {... */\n    tag_99:\n        /* \"@openzeppelin/contracts/access/Ownable.sol\":1082:1089  address */\n      0x00\n        /* \"@openzeppelin/contracts/access/Ownable.sol\":1108:1114  _owner */\n      sload\n      sub(shl(0xa0, 0x01), 0x01)\n      and\n        /* \"@openzeppelin/contracts/utils/Context.sol\":719:729  msg.sender */\n      caller\n        /* \"@openzeppelin/contracts/access/Ownable.sol\":1248:1271  owner() == _msgSender() */\n      eq\n        /* \"@openzeppelin/contracts/access/Ownable.sol\":1240:1308  require(owner() == _msgSender(), \"Ownable: caller is not the owner\") */\n      tag_176\n      jumpi\n      mload(0x40)\n      shl(0xe5, 0x461bcd)\n      dup2\n      mstore\n      0x04\n      add\n      tag_138\n      swap1\n      tag_139\n      jump\t// in\n    tag_176:\n      sub(shl(0xa0, 0x01), 0x01)\n        /* \"@openzeppelin/contracts/access/Ownable.sol\":2006:2028  newOwner != address(0) */\n      dup2\n      and\n        /* \"@openzeppelin/contracts/access/Ownable.sol\":1998:2071  require(newOwner != address(0), \"Ownable: new owner is the zero address\") */\n      tag_179\n      jumpi\n      mload(0x40)\n      shl(0xe5, 0x461bcd)\n      dup2\n      mstore\n        /* \"#utility.yul\":3772:3774   */\n      0x20\n        /* \"@openzeppelin/contracts/access/Ownable.sol\":1998:2071  require(newOwner != address(0), \"Ownable: new owner is the zero address\") */\n      0x04\n      dup3\n      add\n        /* \"#utility.yul\":3754:3775   */\n      mstore\n        /* \"#utility.yul\":3811:3813   */\n      0x26\n        /* \"#utility.yul\":3791:3809   */\n      0x24\n      dup3\n      add\n        /* \"#utility.yul\":3784:3814   */\n      mstore\n        /* \"#utility.yul\":3850:3884   */\n      0x4f776e61626c653a206e6577206f776e657220697320746865207a65726f2061\n        /* \"#utility.yul\":3830:3848   */\n      0x44\n      dup3\n      add\n        /* \"#utility.yul\":3823:3885   */\n      mstore\n      shl(0xd0, 0x646472657373)\n        /* \"#utility.yul\":3901:3919   */\n      0x64\n      dup3\n      add\n        /* \"#utility.yul\":3894:3930   */\n      mstore\n        /* \"#utility.yul\":3947:3966   */\n      0x84\n      add\n        /* \"@openzeppelin/contracts/access/Ownable.sol\":1998:2071  require(newOwner != address(0), \"Ownable: new owner is the zero address\") */\n      tag_138\n        /* \"#utility.yul\":3570:3972   */\n      jump\n        /* \"@openzeppelin/contracts/access/Ownable.sol\":1998:2071  require(newOwner != address(0), \"Ownable: new owner is the zero address\") */\n    tag_179:\n        /* \"@openzeppelin/contracts/access/Ownable.sol\":2081:2109  _transferOwnership(newOwner) */\n      tag_182\n        /* \"@openzeppelin/contracts/access/Ownable.sol\":2100:2108  newOwner */\n      dup2\n        /* \"@openzeppelin/contracts/access/Ownable.sol\":2081:2099  _transferOwnership */\n      tag_142\n        /* \"@openzeppelin/contracts/access/Ownable.sol\":2081:2109  _transferOwnership(newOwner) */\n      jump\t// in\n    tag_182:\n        /* \"@openzeppelin/contracts/access/Ownable.sol\":1918:2116  function transferOwnership(address newOwner) public virtual onlyOwner {... */\n      pop\n      jump\t// out\n        /* \"@openzeppelin/contracts/utils/math/SafeMath.sol\":2755:2851  function add(uint256 a, uint256 b) internal pure returns (uint256) {... */\n    tag_100:\n        /* \"@openzeppelin/contracts/utils/math/SafeMath.sol\":2813:2820  uint256 */\n      0x00\n        /* \"@openzeppelin/contracts/utils/math/SafeMath.sol\":2839:2844  a + b */\n      tag_184\n        /* \"@openzeppelin/contracts/utils/math/SafeMath.sol\":2843:2844  b */\n      dup3\n        /* \"@openzeppelin/contracts/utils/math/SafeMath.sol\":2839:2840  a */\n      dup5\n        /* \"@openzeppelin/contracts/utils/math/SafeMath.sol\":2839:2844  a + b */\n      tag_185\n      jump\t// in\n    tag_184:\n        /* \"@openzeppelin/contracts/utils/math/SafeMath.sol\":2832:2844  return a + b */\n      swap4\n        /* \"@openzeppelin/contracts/utils/math/SafeMath.sol\":2755:2851  function add(uint256 a, uint256 b) internal pure returns (uint256) {... */\n      swap3\n      pop\n      pop\n      pop\n      jump\t// out\n        /* \"@openzeppelin/contracts/utils/math/SafeMath.sol\":3122:3218  function sub(uint256 a, uint256 b) internal pure returns (uint256) {... */\n    tag_111:\n        /* \"@openzeppelin/contracts/utils/math/SafeMath.sol\":3180:3187  uint256 */\n      0x00\n        /* \"@openzeppelin/contracts/utils/math/SafeMath.sol\":3206:3211  a - b */\n      tag_184\n        /* \"@openzeppelin/contracts/utils/math/SafeMath.sol\":3210:3211  b */\n      dup3\n        /* \"@openzeppelin/contracts/utils/math/SafeMath.sol\":3206:3207  a */\n      dup5\n        /* \"@openzeppelin/contracts/utils/math/SafeMath.sol\":3206:3211  a - b */\n      tag_188\n      jump\t// in\n        /* \"@openzeppelin/contracts/utils/math/SafeMath.sol\":3465:3561  function mul(uint256 a, uint256 b) internal pure returns (uint256) {... */\n    tag_114:\n        /* \"@openzeppelin/contracts/utils/math/SafeMath.sol\":3523:3530  uint256 */\n      0x00\n        /* \"@openzeppelin/contracts/utils/math/SafeMath.sol\":3549:3554  a * b */\n      tag_184\n        /* \"@openzeppelin/contracts/utils/math/SafeMath.sol\":3553:3554  b */\n      dup3\n        /* \"@openzeppelin/contracts/utils/math/SafeMath.sol\":3549:3550  a */\n      dup5\n        /* \"@openzeppelin/contracts/utils/math/SafeMath.sol\":3549:3554  a * b */\n      tag_191\n      jump\t// in\n        /* \"@openzeppelin/contracts/utils/math/SafeMath.sol\":3850:3946  function div(uint256 a, uint256 b) internal pure returns (uint256) {... */\n    tag_115:\n        /* \"@openzeppelin/contracts/utils/math/SafeMath.sol\":3908:3915  uint256 */\n      0x00\n        /* \"@openzeppelin/contracts/utils/math/SafeMath.sol\":3934:3939  a / b */\n      tag_184\n        /* \"@openzeppelin/contracts/utils/math/SafeMath.sol\":3938:3939  b */\n      dup3\n        /* \"@openzeppelin/contracts/utils/math/SafeMath.sol\":3934:3935  a */\n      dup5\n        /* \"@openzeppelin/contracts/utils/math/SafeMath.sol\":3934:3939  a / b */\n      tag_194\n      jump\t// in\n        /* \"@openzeppelin/contracts/access/Ownable.sol\":2270:2457  function _transferOwnership(address newOwner) internal virtual {... */\n    tag_142:\n        /* \"@openzeppelin/contracts/access/Ownable.sol\":2343:2359  address oldOwner */\n      0x00\n        /* \"@openzeppelin/contracts/access/Ownable.sol\":2362:2368  _owner */\n      dup1\n      sload\n      sub(shl(0xa0, 0x01), 0x01)\n        /* \"@openzeppelin/contracts/access/Ownable.sol\":2378:2395  _owner = newOwner */\n      dup4\n      dup2\n      and\n      not(sub(shl(0xa0, 0x01), 0x01))\n      dup4\n      and\n      dup2\n      or\n      dup5\n      sstore\n        /* \"@openzeppelin/contracts/access/Ownable.sol\":2410:2450  OwnershipTransferred(oldOwner, newOwner) */\n      mload(0x40)\n        /* \"@openzeppelin/contracts/access/Ownable.sol\":2362:2368  _owner */\n      swap2\n      swap1\n      swap3\n      and\n      swap3\n      dup4\n      swap2\n        /* \"@openzeppelin/contracts/access/Ownable.sol\":2410:2450  OwnershipTransferred(oldOwner, newOwner) */\n      0x8be0079c531659141344cd1fd0a4f28419497f9722a3daafe3b4186f6b6457e0\n      swap2\n        /* \"@openzeppelin/contracts/access/Ownable.sol\":2343:2359  address oldOwner */\n      swap1\n        /* \"@openzeppelin/contracts/access/Ownable.sol\":2410:2450  OwnershipTransferred(oldOwner, newOwner) */\n      log3\n        /* \"@openzeppelin/contracts/access/Ownable.sol\":2333:2457  {... */\n      pop\n        /* \"@openzeppelin/contracts/access/Ownable.sol\":2270:2457  function _transferOwnership(address newOwner) internal virtual {... */\n      pop\n      jump\t// out\n        /* \"#utility.yul\":196:793   */\n    tag_32:\n        /* \"#utility.yul\":308:312   */\n      0x00\n        /* \"#utility.yul\":337:339   */\n      0x20\n        /* \"#utility.yul\":366:368   */\n      dup1\n        /* \"#utility.yul\":355:364   */\n      dup4\n        /* \"#utility.yul\":348:369   */\n      mstore\n        /* \"#utility.yul\":398:404   */\n      dup4\n        /* \"#utility.yul\":392:405   */\n      mload\n        /* \"#utility.yul\":441:447   */\n      dup1\n        /* \"#utility.yul\":436:438   */\n      dup3\n        /* \"#utility.yul\":425:434   */\n      dup6\n        /* \"#utility.yul\":421:439   */\n      add\n        /* \"#utility.yul\":414:448   */\n      mstore\n        /* \"#utility.yul\":466:467   */\n      0x00\n        /* \"#utility.yul\":476:616   */\n    tag_202:\n        /* \"#utility.yul\":490:496   */\n      dup2\n        /* \"#utility.yul\":487:488   */\n      dup2\n        /* \"#utility.yul\":484:497   */\n      lt\n        /* \"#utility.yul\":476:616   */\n      iszero\n      tag_204\n      jumpi\n        /* \"#utility.yul\":585:599   */\n      dup6\n      dup2\n      add\n        /* \"#utility.yul\":581:604   */\n      dup4\n      add\n        /* \"#utility.yul\":575:605   */\n      mload\n        /* \"#utility.yul\":551:568   */\n      dup6\n      dup3\n      add\n        /* \"#utility.yul\":570:572   */\n      0x40\n        /* \"#utility.yul\":547:573   */\n      add\n        /* \"#utility.yul\":540:606   */\n      mstore\n        /* \"#utility.yul\":505:515   */\n      dup3\n      add\n        /* \"#utility.yul\":476:616   */\n      jump(tag_202)\n    tag_204:\n        /* \"#utility.yul\":634:640   */\n      dup2\n        /* \"#utility.yul\":631:632   */\n      dup2\n        /* \"#utility.yul\":628:641   */\n      gt\n        /* \"#utility.yul\":625:716   */\n      iszero\n      tag_205\n      jumpi\n        /* \"#utility.yul\":704:705   */\n      0x00\n        /* \"#utility.yul\":699:701   */\n      0x40\n        /* \"#utility.yul\":690:696   */\n      dup4\n        /* \"#utility.yul\":679:688   */\n      dup8\n        /* \"#utility.yul\":675:697   */\n      add\n        /* \"#utility.yul\":671:702   */\n      add\n        /* \"#utility.yul\":664:706   */\n      mstore\n        /* \"#utility.yul\":625:716   */\n    tag_205:\n      pop\n        /* \"#utility.yul\":777:779   */\n      0x1f\n        /* \"#utility.yul\":756:771   */\n      add\n      not(0x1f)\n        /* \"#utility.yul\":752:781   */\n      and\n        /* \"#utility.yul\":737:782   */\n      swap3\n      swap1\n      swap3\n      add\n        /* \"#utility.yul\":784:786   */\n      0x40\n        /* \"#utility.yul\":733:787   */\n      add\n      swap4\n        /* \"#utility.yul\":196:793   */\n      swap3\n      pop\n      pop\n      pop\n      jump\t// out\n        /* \"#utility.yul\":798:929   */\n    tag_197:\n      sub(shl(0xa0, 0x01), 0x01)\n        /* \"#utility.yul\":873:904   */\n      dup2\n      and\n        /* \"#utility.yul\":863:905   */\n      dup2\n      eq\n        /* \"#utility.yul\":853:923   */\n      tag_182\n      jumpi\n        /* \"#utility.yul\":919:920   */\n      0x00\n        /* \"#utility.yul\":916:917   */\n      dup1\n        /* \"#utility.yul\":909:921   */\n      revert\n        /* \"#utility.yul\":934:1249   */\n    tag_35:\n        /* \"#utility.yul\":1002:1008   */\n      0x00\n        /* \"#utility.yul\":1010:1016   */\n      dup1\n        /* \"#utility.yul\":1063:1065   */\n      0x40\n        /* \"#utility.yul\":1051:1060   */\n      dup4\n        /* \"#utility.yul\":1042:1049   */\n      dup6\n        /* \"#utility.yul\":1038:1061   */\n      sub\n        /* \"#utility.yul\":1034:1066   */\n      slt\n        /* \"#utility.yul\":1031:1083   */\n      iszero\n      tag_209\n      jumpi\n        /* \"#utility.yul\":1079:1080   */\n      0x00\n        /* \"#utility.yul\":1076:1077   */\n      dup1\n        /* \"#utility.yul\":1069:1081   */\n      revert\n        /* \"#utility.yul\":1031:1083   */\n    tag_209:\n        /* \"#utility.yul\":1118:1127   */\n      dup3\n        /* \"#utility.yul\":1105:1128   */\n      calldataload\n        /* \"#utility.yul\":1137:1168   */\n      tag_210\n        /* \"#utility.yul\":1162:1167   */\n      dup2\n        /* \"#utility.yul\":1137:1168   */\n      tag_197\n      jump\t// in\n    tag_210:\n        /* \"#utility.yul\":1187:1192   */\n      swap5\n        /* \"#utility.yul\":1239:1241   */\n      0x20\n        /* \"#utility.yul\":1224:1242   */\n      swap4\n      swap1\n      swap4\n      add\n        /* \"#utility.yul\":1211:1243   */\n      calldataload\n      swap4\n      pop\n      pop\n      pop\n        /* \"#utility.yul\":934:1249   */\n      jump\t// out\n        /* \"#utility.yul\":1446:1902   */\n    tag_44:\n        /* \"#utility.yul\":1523:1529   */\n      0x00\n        /* \"#utility.yul\":1531:1537   */\n      dup1\n        /* \"#utility.yul\":1539:1545   */\n      0x00\n        /* \"#utility.yul\":1592:1594   */\n      0x60\n        /* \"#utility.yul\":1580:1589   */\n      dup5\n        /* \"#utility.yul\":1571:1578   */\n      dup7\n        /* \"#utility.yul\":1567:1590   */\n      sub\n        /* \"#utility.yul\":1563:1595   */\n      slt\n        /* \"#utility.yul\":1560:1612   */\n      iszero\n      tag_213\n      jumpi\n        /* \"#utility.yul\":1608:1609   */\n      0x00\n        /* \"#utility.yul\":1605:1606   */\n      dup1\n        /* \"#utility.yul\":1598:1610   */\n      revert\n        /* \"#utility.yul\":1560:1612   */\n    tag_213:\n        /* \"#utility.yul\":1647:1656   */\n      dup4\n        /* \"#utility.yul\":1634:1657   */\n      calldataload\n        /* \"#utility.yul\":1666:1697   */\n      tag_214\n        /* \"#utility.yul\":1691:1696   */\n      dup2\n        /* \"#utility.yul\":1666:1697   */\n      tag_197\n      jump\t// in\n    tag_214:\n        /* \"#utility.yul\":1716:1721   */\n      swap3\n      pop\n        /* \"#utility.yul\":1773:1775   */\n      0x20\n        /* \"#utility.yul\":1758:1776   */\n      dup5\n      add\n        /* \"#utility.yul\":1745:1777   */\n      calldataload\n        /* \"#utility.yul\":1786:1819   */\n      tag_215\n        /* \"#utility.yul\":1745:1777   */\n      dup2\n        /* \"#utility.yul\":1786:1819   */\n      tag_197\n      jump\t// in\n    tag_215:\n        /* \"#utility.yul\":1446:1902   */\n      swap3\n      swap6\n        /* \"#utility.yul\":1838:1845   */\n      swap3\n      swap5\n      pop\n      pop\n      pop\n        /* \"#utility.yul\":1892:1894   */\n      0x40\n        /* \"#utility.yul\":1877:1895   */\n      swap2\n      swap1\n      swap2\n      add\n        /* \"#utility.yul\":1864:1896   */\n      calldataload\n      swap1\n        /* \"#utility.yul\":1446:1902   */\n      jump\t// out\n        /* \"#utility.yul\":2096:2343   */\n    tag_57:\n        /* \"#utility.yul\":2155:2161   */\n      0x00\n        /* \"#utility.yul\":2208:2210   */\n      0x20\n        /* \"#utility.yul\":2196:2205   */\n      dup3\n        /* \"#utility.yul\":2187:2194   */\n      dup5\n        /* \"#utility.yul\":2183:2206   */\n      sub\n        /* \"#utility.yul\":2179:2211   */\n      slt\n        /* \"#utility.yul\":2176:2228   */\n      iszero\n      tag_218\n      jumpi\n        /* \"#utility.yul\":2224:2225   */\n      0x00\n        /* \"#utility.yul\":2221:2222   */\n      dup1\n        /* \"#utility.yul\":2214:2226   */\n      revert\n        /* \"#utility.yul\":2176:2228   */\n    tag_218:\n        /* \"#utility.yul\":2263:2272   */\n      dup2\n        /* \"#utility.yul\":2250:2273   */\n      calldataload\n        /* \"#utility.yul\":2282:2313   */\n      tag_184\n        /* \"#utility.yul\":2307:2312   */\n      dup2\n        /* \"#utility.yul\":2282:2313   */\n      tag_197\n      jump\t// in\n        /* \"#utility.yul\":2556:2944   */\n    tag_83:\n        /* \"#utility.yul\":2624:2630   */\n      0x00\n        /* \"#utility.yul\":2632:2638   */\n      dup1\n        /* \"#utility.yul\":2685:2687   */\n      0x40\n        /* \"#utility.yul\":2673:2682   */\n      dup4\n        /* \"#utility.yul\":2664:2671   */\n      dup6\n        /* \"#utility.yul\":2660:2683   */\n      sub\n        /* \"#utility.yul\":2656:2688   */\n      slt\n        /* \"#utility.yul\":2653:2705   */\n      iszero\n      tag_222\n      jumpi\n        /* \"#utility.yul\":2701:2702   */\n      0x00\n        /* \"#utility.yul\":2698:2699   */\n      dup1\n        /* \"#utility.yul\":2691:2703   */\n      revert\n        /* \"#utility.yul\":2653:2705   */\n    tag_222:\n        /* \"#utility.yul\":2740:2749   */\n      dup3\n        /* \"#utility.yul\":2727:2750   */\n      calldataload\n        /* \"#utility.yul\":2759:2790   */\n      tag_223\n        /* \"#utility.yul\":2784:2789   */\n      dup2\n        /* \"#utility.yul\":2759:2790   */\n      tag_197\n      jump\t// in\n    tag_223:\n        /* \"#utility.yul\":2809:2814   */\n      swap2\n      pop\n        /* \"#utility.yul\":2866:2868   */\n      0x20\n        /* \"#utility.yul\":2851:2869   */\n      dup4\n      add\n        /* \"#utility.yul\":2838:2870   */\n      calldataload\n        /* \"#utility.yul\":2879:2912   */\n      tag_224\n        /* \"#utility.yul\":2838:2870   */\n      dup2\n        /* \"#utility.yul\":2879:2912   */\n      tag_197\n      jump\t// in\n    tag_224:\n        /* \"#utility.yul\":2931:2938   */\n      dup1\n        /* \"#utility.yul\":2921:2938   */\n      swap2\n      pop\n      pop\n        /* \"#utility.yul\":2556:2944   */\n      swap3\n      pop\n      swap3\n      swap1\n      pop\n      jump\t// out\n        /* \"#utility.yul\":3209:3565   */\n    tag_139:\n        /* \"#utility.yul\":3411:3413   */\n      0x20\n        /* \"#utility.yul\":3393:3414   */\n      dup1\n      dup3\n      mstore\n        /* \"#utility.yul\":3430:3448   */\n      dup2\n      dup2\n      add\n        /* \"#utility.yul\":3423:3453   */\n      mstore\n        /* \"#utility.yul\":3489:3523   */\n      0x4f776e61626c653a2063616c6c6572206973206e6f7420746865206f776e6572\n        /* \"#utility.yul\":3484:3486   */\n      0x40\n        /* \"#utility.yul\":3469:3487   */\n      dup3\n      add\n        /* \"#utility.yul\":3462:3524   */\n      mstore\n        /* \"#utility.yul\":3556:3558   */\n      0x60\n        /* \"#utility.yul\":3541:3559   */\n      add\n      swap1\n        /* \"#utility.yul\":3209:3565   */\n      jump\t// out\n        /* \"#utility.yul\":3977:4104   */\n    tag_198:\n        /* \"#utility.yul\":4038:4048   */\n      0x4e487b71\n        /* \"#utility.yul\":4033:4036   */\n      0xe0\n        /* \"#utility.yul\":4029:4049   */\n      shl\n        /* \"#utility.yul\":4026:4027   */\n      0x00\n        /* \"#utility.yul\":4019:4050   */\n      mstore\n        /* \"#utility.yul\":4069:4073   */\n      0x11\n        /* \"#utility.yul\":4066:4067   */\n      0x04\n        /* \"#utility.yul\":4059:4074   */\n      mstore\n        /* \"#utility.yul\":4093:4097   */\n      0x24\n        /* \"#utility.yul\":4090:4091   */\n      0x00\n        /* \"#utility.yul\":4083:4098   */\n      revert\n        /* \"#utility.yul\":4109:4237   */\n    tag_185:\n        /* \"#utility.yul\":4149:4152   */\n      0x00\n        /* \"#utility.yul\":4180:4181   */\n      dup3\n        /* \"#utility.yul\":4176:4182   */\n      not\n        /* \"#utility.yul\":4173:4174   */\n      dup3\n        /* \"#utility.yul\":4170:4183   */\n      gt\n        /* \"#utility.yul\":4167:4206   */\n      iszero\n      tag_233\n      jumpi\n        /* \"#utility.yul\":4186:4204   */\n      tag_233\n      tag_198\n      jump\t// in\n    tag_233:\n      pop\n        /* \"#utility.yul\":4222:4231   */\n      add\n      swap1\n        /* \"#utility.yul\":4109:4237   */\n      jump\t// out\n        /* \"#utility.yul\":4242:4367   */\n    tag_188:\n        /* \"#utility.yul\":4282:4286   */\n      0x00\n        /* \"#utility.yul\":4310:4311   */\n      dup3\n        /* \"#utility.yul\":4307:4308   */\n      dup3\n        /* \"#utility.yul\":4304:4312   */\n      lt\n        /* \"#utility.yul\":4301:4335   */\n      iszero\n      tag_236\n      jumpi\n        /* \"#utility.yul\":4315:4333   */\n      tag_236\n      tag_198\n      jump\t// in\n    tag_236:\n      pop\n        /* \"#utility.yul\":4352:4361   */\n      sub\n      swap1\n        /* \"#utility.yul\":4242:4367   */\n      jump\t// out\n        /* \"#utility.yul\":4372:4540   */\n    tag_191:\n        /* \"#utility.yul\":4412:4419   */\n      0x00\n        /* \"#utility.yul\":4478:4479   */\n      dup2\n        /* \"#utility.yul\":4474:4475   */\n      0x00\n        /* \"#utility.yul\":4470:4476   */\n      not\n        /* \"#utility.yul\":4466:4480   */\n      div\n        /* \"#utility.yul\":4463:4464   */\n      dup4\n        /* \"#utility.yul\":4460:4481   */\n      gt\n        /* \"#utility.yul\":4455:4456   */\n      dup3\n        /* \"#utility.yul\":4448:4457   */\n      iszero\n        /* \"#utility.yul\":4441:4458   */\n      iszero\n        /* \"#utility.yul\":4437:4482   */\n      and\n        /* \"#utility.yul\":4434:4505   */\n      iszero\n      tag_239\n      jumpi\n        /* \"#utility.yul\":4485:4503   */\n      tag_239\n      tag_198\n      jump\t// in\n    tag_239:\n      pop\n        /* \"#utility.yul\":4525:4534   */\n      mul\n      swap1\n        /* \"#utility.yul\":4372:4540   */\n      jump\t// out\n        /* \"#utility.yul\":4545:4762   */\n    tag_194:\n        /* \"#utility.yul\":4585:4586   */\n      0x00\n        /* \"#utility.yul\":4611:4612   */\n      dup3\n        /* \"#utility.yul\":4601:4733   */\n      tag_241\n      jumpi\n        /* \"#utility.yul\":4655:4665   */\n      0x4e487b71\n        /* \"#utility.yul\":4650:4653   */\n      0xe0\n        /* \"#utility.yul\":4646:4666   */\n      shl\n        /* \"#utility.yul\":4643:4644   */\n      0x00\n        /* \"#utility.yul\":4636:4667   */\n      mstore\n        /* \"#utility.yul\":4690:4694   */\n      0x12\n        /* \"#utility.yul\":4687:4688   */\n      0x04\n        /* \"#utility.yul\":4680:4695   */\n      mstore\n        /* \"#utility.yul\":4718:4722   */\n      0x24\n        /* \"#utility.yul\":4715:4716   */\n      0x00\n        /* \"#utility.yul\":4708:4723   */\n      revert\n        /* \"#utility.yul\":4601:4733   */\n    tag_241:\n      pop\n        /* \"#utility.yul\":4747:4756   */\n      div\n      swap1\n        /* \"#utility.yul\":4545:4762   */\n      jump\t// out\n    stop\n    data_ada389e1fc24a8587c776340efb91b36e675792ab631816100d55df0b5cf3cbc ddf252ad1be2c89b69c2b068fc378daa952ba7f163c4a11628f55a4df523b3ef\n\n    auxdata: 0xa264697066735822122059cfa94ac433e7bef5e454eca1b19839397a77e1db08153a09338df6e7943cf064736f6c634300080a0033\n}\n",
				"bytecode": {
					"linkReferences": {},
					"object": "6080604052620000126012600a620002c6565b620000209061c350620002d4565b6003553480156200003057600080fd5b50604051620010a6380380620010a6833981016040819052620000539162000313565b6200005e33620000b1565b600680546001600160a01b038086166001600160a01b03199283168117909355600580548683169084161790556004805491851691909216179055600354620000a8919062000101565b50505062000378565b600080546001600160a01b038381166001600160a01b0319831681178455604051919092169283917f8be0079c531659141344cd1fd0a4f28419497f9722a3daafe3b4186f6b6457e09190a35050565b806200010c57600080fd5b6001600160a01b0382166000908152600160209081526040909120546200013e91839062000a596200019c821b17901c565b6001600160a01b0383166000818152600160205260408082209390935591519091907fddf252ad1be2c89b69c2b068fc378daa952ba7f163c4a11628f55a4df523b3ef90620001909085815260200190565b60405180910390a35050565b6000620001aa82846200035d565b90505b92915050565b634e487b7160e01b600052601160045260246000fd5b600181815b808511156200020a578160001904821115620001ee57620001ee620001b3565b80851615620001fc57918102915b93841c9390800290620001ce565b509250929050565b6000826200022357506001620001ad565b816200023257506000620001ad565b81600181146200024b5760028114620002565762000276565b6001915050620001ad565b60ff8411156200026a576200026a620001b3565b50506001821b620001ad565b5060208310610133831016604e8410600b84101617156200029b575081810a620001ad565b620002a78383620001c9565b8060001904821115620002be57620002be620001b3565b029392505050565b6000620001aa838362000212565b6000816000190483118215151615620002f157620002f1620001b3565b500290565b80516001600160a01b03811681146200030e57600080fd5b919050565b6000806000606084860312156200032957600080fd5b6200033484620002f6565b92506200034460208501620002f6565b91506200035460408501620002f6565b90509250925092565b60008219821115620003735762000373620001b3565b500190565b610d1e80620003886000396000f3fe608060405234801561001057600080fd5b50600436106101215760003560e01c80637711c596116100ad578063ba0fb86111610071578063ba0fb86114610284578063d0d41fe1146102af578063dd62ed3e146102c2578063eaf98d23146102fb578063f2fde38b1461030357600080fd5b80637711c596146102055780638da5cb5b1461022557806395d89b4114610240578063a457c2d71461025e578063a9059cbb1461027157600080fd5b806323b872dd116100f457806323b872dd1461019d578063313ce567146101b057806339509351146101bf57806370a08231146101d2578063715018a6146101fb57600080fd5b806301c234a81461012657806306fdde0314610142578063095ea7b31461017257806318160ddd14610195575b600080fd5b61012f6103e881565b6040519081526020015b60405180910390f35b60408051808201909152600b81526a084d2d8d8d2dedc86c2e6d60ab1b60208201525b6040516101399190610ae0565b610185610180366004610b4a565b610316565b6040519015158152602001610139565b60035461012f565b6101856101ab366004610b76565b610390565b60405160128152602001610139565b6101856101cd366004610b4a565b610633565b61012f6101e0366004610bb7565b6001600160a01b031660009081526001602052604090205490565b6102036106cd565b005b61012f610213366004610bb7565b60016020526000908152604090205481565b6000546040516001600160a01b039091168152602001610139565b604080518082019091526002815261424360f01b6020820152610165565b61018561026c366004610b4a565b61070c565b61018561027f366004610b4a565b61074f565b61012f610292366004610bd4565b600260209081526000928352604080842090915290825290205481565b6102036102bd366004610bb7565b610972565b61012f6102d0366004610bd4565b6001600160a01b03918216600090815260026020908152604080832093909416825291909152205490565b61012f603281565b610203610311366004610bb7565b6109be565b60006001600160a01b03831661032b57600080fd5b3360008181526002602090815260408083206001600160a01b03881680855290835292819020869055518581529192917f8c5be1e5ebec7d5bd14f71427d1e84f3dd0314c0f7b2291e5b200ac8c7c3b92591015b60405180910390a350600192915050565b6001600160a01b0383166000908152600160205260408120548211156103b557600080fd5b6001600160a01b03841660009081526002602090815260408083203384529091529020548211156103e557600080fd5b6001600160a01b0383166103f857600080fd5b6001600160a01b03841660009081526001602052604090205461041b9083610a6c565b6001600160a01b03851660009081526001602052604081209190915561044e6103e8610448856032610a78565b90610a84565b905060006104688261046281818882610a6c565b90610a6c565b6001600160a01b03861660009081526001602052604090205490915061048e9082610a59565b6001600160a01b0380871660009081526001602052604080822093909355600654909116815220546104c09083610a59565b6006546001600160a01b0390811660009081526001602052604080822093909355600554909116815220546104f59083610a59565b6005546001600160a01b03908116600090815260016020526040808220939093556004549091168152205461052a9083610a59565b6004546001600160a01b03908116600090815260016020908152604080832094909455918916815260028252828120338252909152205461056b9085610a6c565b6001600160a01b0380881660009081526002602090815260408083203380855292529182902093909355600654905191169190600080516020610cc9833981519152906105bb9086815260200190565b60405180910390a36005546040518381526001600160a01b03909116903390600080516020610cc98339815191529060200160405180910390a36004546040518381526001600160a01b03909116903390600080516020610cc98339815191529060200160405180910390a350600195945050505050565b60006001600160a01b03831661064857600080fd5b3360009081526002602090815260408083206001600160a01b03871684529091529020546106769083610a59565b3360008181526002602090815260408083206001600160a01b038916808552908352928190208590555193845290927f8c5be1e5ebec7d5bd14f71427d1e84f3dd0314c0f7b2291e5b200ac8c7c3b925910161037f565b6000546001600160a01b031633146107005760405162461bcd60e51b81526004016106f790610c0d565b60405180910390fd5b61070a6000610a90565b565b60006001600160a01b03831661072157600080fd5b3360009081526002602090815260408083206001600160a01b03871684529091529020546106769083610a6c565b3360009081526001602052604081205482111561076b57600080fd5b6001600160a01b03831661077e57600080fd5b60006107916103e8610448856032610a78565b905060006107a58261046281818882610a6c565b336000908152600160205260409020549091506107c29085610a6c565b33600090815260016020526040808220929092556001600160a01b038716815220546107ee9082610a59565b6001600160a01b0380871660009081526001602052604080822093909355600654909116815220546108209083610a59565b6006546001600160a01b0390811660009081526001602052604080822093909355600554909116815220546108559083610a59565b6005546001600160a01b03908116600090815260016020526040808220939093556004549091168152205461088a9083610a59565b6004546001600160a01b039081166000908152600160209081526040918290209390935551838152908716913391600080516020610cc9833981519152910160405180910390a36006546040518381526001600160a01b03909116903390600080516020610cc98339815191529060200160405180910390a36005546040518381526001600160a01b03909116903390600080516020610cc98339815191529060200160405180910390a36004546040518381526001600160a01b03909116903390600080516020610cc98339815191529060200160405180910390a3506001949350505050565b6000546001600160a01b0316331461099c5760405162461bcd60e51b81526004016106f790610c0d565b600680546001600160a01b0319166001600160a01b0392909216919091179055565b6000546001600160a01b031633146109e85760405162461bcd60e51b81526004016106f790610c0d565b6001600160a01b038116610a4d5760405162461bcd60e51b815260206004820152602660248201527f4f776e61626c653a206e6577206f776e657220697320746865207a65726f206160448201526564647265737360d01b60648201526084016106f7565b610a5681610a90565b50565b6000610a658284610c58565b9392505050565b6000610a658284610c70565b6000610a658284610c87565b6000610a658284610ca6565b600080546001600160a01b038381166001600160a01b0319831681178455604051919092169283917f8be0079c531659141344cd1fd0a4f28419497f9722a3daafe3b4186f6b6457e09190a35050565b600060208083528351808285015260005b81811015610b0d57858101830151858201604001528201610af1565b81811115610b1f576000604083870101525b50601f01601f1916929092016040019392505050565b6001600160a01b0381168114610a5657600080fd5b60008060408385031215610b5d57600080fd5b8235610b6881610b35565b946020939093013593505050565b600080600060608486031215610b8b57600080fd5b8335610b9681610b35565b92506020840135610ba681610b35565b929592945050506040919091013590565b600060208284031215610bc957600080fd5b8135610a6581610b35565b60008060408385031215610be757600080fd5b8235610bf281610b35565b91506020830135610c0281610b35565b809150509250929050565b6020808252818101527f4f776e61626c653a2063616c6c6572206973206e6f7420746865206f776e6572604082015260600190565b634e487b7160e01b600052601160045260246000fd5b60008219821115610c6b57610c6b610c42565b500190565b600082821015610c8257610c82610c42565b500390565b6000816000190483118215151615610ca157610ca1610c42565b500290565b600082610cc357634e487b7160e01b600052601260045260246000fd5b50049056feddf252ad1be2c89b69c2b068fc378daa952ba7f163c4a11628f55a4df523b3efa264697066735822122059cfa94ac433e7bef5e454eca1b19839397a77e1db08153a09338df6e7943cf064736f6c634300080a0033",
					"opcodes": "PUSH1 0x80 PUSH1 0x40 MSTORE PUSH3 0x12 PUSH1 0x12 PUSH1 0xA PUSH3 0x2C6 JUMP JUMPDEST PUSH3 0x20 SWAP1 PUSH2 0xC350 PUSH3 0x2D4 JUMP JUMPDEST PUSH1 0x3 SSTORE CALLVALUE DUP1 ISZERO PUSH3 0x30 JUMPI PUSH1 0x0 DUP1 REVERT JUMPDEST POP PUSH1 0x40 MLOAD PUSH3 0x10A6 CODESIZE SUB DUP1 PUSH3 0x10A6 DUP4 CODECOPY DUP2 ADD PUSH1 0x40 DUP2 SWAP1 MSTORE PUSH3 0x53 SWAP2 PUSH3 0x313 JUMP JUMPDEST PUSH3 0x5E CALLER PUSH3 0xB1 JUMP JUMPDEST PUSH1 0x6 DUP1 SLOAD PUSH1 0x1 PUSH1 0x1 PUSH1 0xA0 SHL SUB DUP1 DUP7 AND PUSH1 0x1 PUSH1 0x1 PUSH1 0xA0 SHL SUB NOT SWAP3 DUP4 AND DUP2 OR SWAP1 SWAP4 SSTORE PUSH1 0x5 DUP1 SLOAD DUP7 DUP4 AND SWAP1 DUP5 AND OR SWAP1 SSTORE PUSH1 0x4 DUP1 SLOAD SWAP2 DUP6 AND SWAP2 SWAP1 SWAP3 AND OR SWAP1 SSTORE PUSH1 0x3 SLOAD PUSH3 0xA8 SWAP2 SWAP1 PUSH3 0x101 JUMP JUMPDEST POP POP POP PUSH3 0x378 JUMP JUMPDEST PUSH1 0x0 DUP1 SLOAD PUSH1 0x1 PUSH1 0x1 PUSH1 0xA0 SHL SUB DUP4 DUP2 AND PUSH1 0x1 PUSH1 0x1 PUSH1 0xA0 SHL SUB NOT DUP4 AND DUP2 OR DUP5 SSTORE PUSH1 0x40 MLOAD SWAP2 SWAP1 SWAP3 AND SWAP3 DUP4 SWAP2 PUSH32 0x8BE0079C531659141344CD1FD0A4F28419497F9722A3DAAFE3B4186F6B6457E0 SWAP2 SWAP1 LOG3 POP POP JUMP JUMPDEST DUP1 PUSH3 0x10C JUMPI PUSH1 0x0 DUP1 REVERT JUMPDEST PUSH1 0x1 PUSH1 0x1 PUSH1 0xA0 SHL SUB DUP3 AND PUSH1 0x0 SWAP1 DUP2 MSTORE PUSH1 0x1 PUSH1 0x20 SWAP1 DUP2 MSTORE PUSH1 0x40 SWAP1 SWAP2 KECCAK256 SLOAD PUSH3 0x13E SWAP2 DUP4 SWAP1 PUSH3 0xA59 PUSH3 0x19C DUP3 SHL OR SWAP1 SHR JUMP JUMPDEST PUSH1 0x1 PUSH1 0x1 PUSH1 0xA0 SHL SUB DUP4 AND PUSH1 0x0 DUP2 DUP2 MSTORE PUSH1 0x1 PUSH1 0x20 MSTORE PUSH1 0x40 DUP1 DUP3 KECCAK256 SWAP4 SWAP1 SWAP4 SSTORE SWAP2 MLOAD SWAP1 SWAP2 SWAP1 PUSH32 0xDDF252AD1BE2C89B69C2B068FC378DAA952BA7F163C4A11628F55A4DF523B3EF SWAP1 PUSH3 0x190 SWAP1 DUP6 DUP2 MSTORE PUSH1 0x20 ADD SWAP1 JUMP JUMPDEST PUSH1 0x40 MLOAD DUP1 SWAP2 SUB SWAP1 LOG3 POP POP JUMP JUMPDEST PUSH1 0x0 PUSH3 0x1AA DUP3 DUP5 PUSH3 0x35D JUMP JUMPDEST SWAP1 POP JUMPDEST SWAP3 SWAP2 POP POP JUMP JUMPDEST PUSH4 0x4E487B71 PUSH1 0xE0 SHL PUSH1 0x0 MSTORE PUSH1 0x11 PUSH1 0x4 MSTORE PUSH1 0x24 PUSH1 0x0 REVERT JUMPDEST PUSH1 0x1 DUP2 DUP2 JUMPDEST DUP1 DUP6 GT ISZERO PUSH3 0x20A JUMPI DUP2 PUSH1 0x0 NOT DIV DUP3 GT ISZERO PUSH3 0x1EE JUMPI PUSH3 0x1EE PUSH3 0x1B3 JUMP JUMPDEST DUP1 DUP6 AND ISZERO PUSH3 0x1FC JUMPI SWAP2 DUP2 MUL SWAP2 JUMPDEST SWAP4 DUP5 SHR SWAP4 SWAP1 DUP1 MUL SWAP1 PUSH3 0x1CE JUMP JUMPDEST POP SWAP3 POP SWAP3 SWAP1 POP JUMP JUMPDEST PUSH1 0x0 DUP3 PUSH3 0x223 JUMPI POP PUSH1 0x1 PUSH3 0x1AD JUMP JUMPDEST DUP2 PUSH3 0x232 JUMPI POP PUSH1 0x0 PUSH3 0x1AD JUMP JUMPDEST DUP2 PUSH1 0x1 DUP2 EQ PUSH3 0x24B JUMPI PUSH1 0x2 DUP2 EQ PUSH3 0x256 JUMPI PUSH3 0x276 JUMP JUMPDEST PUSH1 0x1 SWAP2 POP POP PUSH3 0x1AD JUMP JUMPDEST PUSH1 0xFF DUP5 GT ISZERO PUSH3 0x26A JUMPI PUSH3 0x26A PUSH3 0x1B3 JUMP JUMPDEST POP POP PUSH1 0x1 DUP3 SHL PUSH3 0x1AD JUMP JUMPDEST POP PUSH1 0x20 DUP4 LT PUSH2 0x133 DUP4 LT AND PUSH1 0x4E DUP5 LT PUSH1 0xB DUP5 LT AND OR ISZERO PUSH3 0x29B JUMPI POP DUP2 DUP2 EXP PUSH3 0x1AD JUMP JUMPDEST PUSH3 0x2A7 DUP4 DUP4 PUSH3 0x1C9 JUMP JUMPDEST DUP1 PUSH1 0x0 NOT DIV DUP3 GT ISZERO PUSH3 0x2BE JUMPI PUSH3 0x2BE PUSH3 0x1B3 JUMP JUMPDEST MUL SWAP4 SWAP3 POP POP POP JUMP JUMPDEST PUSH1 0x0 PUSH3 0x1AA DUP4 DUP4 PUSH3 0x212 JUMP JUMPDEST PUSH1 0x0 DUP2 PUSH1 0x0 NOT DIV DUP4 GT DUP3 ISZERO ISZERO AND ISZERO PUSH3 0x2F1 JUMPI PUSH3 0x2F1 PUSH3 0x1B3 JUMP JUMPDEST POP MUL SWAP1 JUMP JUMPDEST DUP1 MLOAD PUSH1 0x1 PUSH1 0x1 PUSH1 0xA0 SHL SUB DUP2 AND DUP2 EQ PUSH3 0x30E JUMPI PUSH1 0x0 DUP1 REVERT JUMPDEST SWAP2 SWAP1 POP JUMP JUMPDEST PUSH1 0x0 DUP1 PUSH1 0x0 PUSH1 0x60 DUP5 DUP7 SUB SLT ISZERO PUSH3 0x329 JUMPI PUSH1 0x0 DUP1 REVERT JUMPDEST PUSH3 0x334 DUP5 PUSH3 0x2F6 JUMP JUMPDEST SWAP3 POP PUSH3 0x344 PUSH1 0x20 DUP6 ADD PUSH3 0x2F6 JUMP JUMPDEST SWAP2 POP PUSH3 0x354 PUSH1 0x40 DUP6 ADD PUSH3 0x2F6 JUMP JUMPDEST SWAP1 POP SWAP3 POP SWAP3 POP SWAP3 JUMP JUMPDEST PUSH1 0x0 DUP3 NOT DUP3 GT ISZERO PUSH3 0x373 JUMPI PUSH3 0x373 PUSH3 0x1B3 JUMP JUMPDEST POP ADD SWAP1 JUMP JUMPDEST PUSH2 0xD1E DUP1 PUSH3 0x388 PUSH1 0x0 CODECOPY PUSH1 0x0 RETURN INVALID PUSH1 0x80 PUSH1 0x40 MSTORE CALLVALUE DUP1 ISZERO PUSH2 0x10 JUMPI PUSH1 0x0 DUP1 REVERT JUMPDEST POP PUSH1 0x4 CALLDATASIZE LT PUSH2 0x121 JUMPI PUSH1 0x0 CALLDATALOAD PUSH1 0xE0 SHR DUP1 PUSH4 0x7711C596 GT PUSH2 0xAD JUMPI DUP1 PUSH4 0xBA0FB861 GT PUSH2 0x71 JUMPI DUP1 PUSH4 0xBA0FB861 EQ PUSH2 0x284 JUMPI DUP1 PUSH4 0xD0D41FE1 EQ PUSH2 0x2AF JUMPI DUP1 PUSH4 0xDD62ED3E EQ PUSH2 0x2C2 JUMPI DUP1 PUSH4 0xEAF98D23 EQ PUSH2 0x2FB JUMPI DUP1 PUSH4 0xF2FDE38B EQ PUSH2 0x303 JUMPI PUSH1 0x0 DUP1 REVERT JUMPDEST DUP1 PUSH4 0x7711C596 EQ PUSH2 0x205 JUMPI DUP1 PUSH4 0x8DA5CB5B EQ PUSH2 0x225 JUMPI DUP1 PUSH4 0x95D89B41 EQ PUSH2 0x240 JUMPI DUP1 PUSH4 0xA457C2D7 EQ PUSH2 0x25E JUMPI DUP1 PUSH4 0xA9059CBB EQ PUSH2 0x271 JUMPI PUSH1 0x0 DUP1 REVERT JUMPDEST DUP1 PUSH4 0x23B872DD GT PUSH2 0xF4 JUMPI DUP1 PUSH4 0x23B872DD EQ PUSH2 0x19D JUMPI DUP1 PUSH4 0x313CE567 EQ PUSH2 0x1B0 JUMPI DUP1 PUSH4 0x39509351 EQ PUSH2 0x1BF JUMPI DUP1 PUSH4 0x70A08231 EQ PUSH2 0x1D2 JUMPI DUP1 PUSH4 0x715018A6 EQ PUSH2 0x1FB JUMPI PUSH1 0x0 DUP1 REVERT JUMPDEST DUP1 PUSH4 0x1C234A8 EQ PUSH2 0x126 JUMPI DUP1 PUSH4 0x6FDDE03 EQ PUSH2 0x142 JUMPI DUP1 PUSH4 0x95EA7B3 EQ PUSH2 0x172 JUMPI DUP1 PUSH4 0x18160DDD EQ PUSH2 0x195 JUMPI JUMPDEST PUSH1 0x0 DUP1 REVERT JUMPDEST PUSH2 0x12F PUSH2 0x3E8 DUP2 JUMP JUMPDEST PUSH1 0x40 MLOAD SWAP1 DUP2 MSTORE PUSH1 0x20 ADD JUMPDEST PUSH1 0x40 MLOAD DUP1 SWAP2 SUB SWAP1 RETURN JUMPDEST PUSH1 0x40 DUP1 MLOAD DUP1 DUP3 ADD SWAP1 SWAP2 MSTORE PUSH1 0xB DUP2 MSTORE PUSH11 0x84D2D8D8D2DEDC86C2E6D PUSH1 0xAB SHL PUSH1 0x20 DUP3 ADD MSTORE JUMPDEST PUSH1 0x40 MLOAD PUSH2 0x139 SWAP2 SWAP1 PUSH2 0xAE0 JUMP JUMPDEST PUSH2 0x185 PUSH2 0x180 CALLDATASIZE PUSH1 0x4 PUSH2 0xB4A JUMP JUMPDEST PUSH2 0x316 JUMP JUMPDEST PUSH1 0x40 MLOAD SWAP1 ISZERO ISZERO DUP2 MSTORE PUSH1 0x20 ADD PUSH2 0x139 JUMP JUMPDEST PUSH1 0x3 SLOAD PUSH2 0x12F JUMP JUMPDEST PUSH2 0x185 PUSH2 0x1AB CALLDATASIZE PUSH1 0x4 PUSH2 0xB76 JUMP JUMPDEST PUSH2 0x390 JUMP JUMPDEST PUSH1 0x40 MLOAD PUSH1 0x12 DUP2 MSTORE PUSH1 0x20 ADD PUSH2 0x139 JUMP JUMPDEST PUSH2 0x185 PUSH2 0x1CD CALLDATASIZE PUSH1 0x4 PUSH2 0xB4A JUMP JUMPDEST PUSH2 0x633 JUMP JUMPDEST PUSH2 0x12F PUSH2 0x1E0 CALLDATASIZE PUSH1 0x4 PUSH2 0xBB7 JUMP JUMPDEST PUSH1 0x1 PUSH1 0x1 PUSH1 0xA0 SHL SUB AND PUSH1 0x0 SWAP1 DUP2 MSTORE PUSH1 0x1 PUSH1 0x20 MSTORE PUSH1 0x40 SWAP1 KECCAK256 SLOAD SWAP1 JUMP JUMPDEST PUSH2 0x203 PUSH2 0x6CD JUMP JUMPDEST STOP JUMPDEST PUSH2 0x12F PUSH2 0x213 CALLDATASIZE PUSH1 0x4 PUSH2 0xBB7 JUMP JUMPDEST PUSH1 0x1 PUSH1 0x20 MSTORE PUSH1 0x0 SWAP1 DUP2 MSTORE PUSH1 0x40 SWAP1 KECCAK256 SLOAD DUP2 JUMP JUMPDEST PUSH1 0x0 SLOAD PUSH1 0x40 MLOAD PUSH1 0x1 PUSH1 0x1 PUSH1 0xA0 SHL SUB SWAP1 SWAP2 AND DUP2 MSTORE PUSH1 0x20 ADD PUSH2 0x139 JUMP JUMPDEST PUSH1 0x40 DUP1 MLOAD DUP1 DUP3 ADD SWAP1 SWAP2 MSTORE PUSH1 0x2 DUP2 MSTORE PUSH2 0x4243 PUSH1 0xF0 SHL PUSH1 0x20 DUP3 ADD MSTORE PUSH2 0x165 JUMP JUMPDEST PUSH2 0x185 PUSH2 0x26C CALLDATASIZE PUSH1 0x4 PUSH2 0xB4A JUMP JUMPDEST PUSH2 0x70C JUMP JUMPDEST PUSH2 0x185 PUSH2 0x27F CALLDATASIZE PUSH1 0x4 PUSH2 0xB4A JUMP JUMPDEST PUSH2 0x74F JUMP JUMPDEST PUSH2 0x12F PUSH2 0x292 CALLDATASIZE PUSH1 0x4 PUSH2 0xBD4 JUMP JUMPDEST PUSH1 0x2 PUSH1 0x20 SWAP1 DUP2 MSTORE PUSH1 0x0 SWAP3 DUP4 MSTORE PUSH1 0x40 DUP1 DUP5 KECCAK256 SWAP1 SWAP2 MSTORE SWAP1 DUP3 MSTORE SWAP1 KECCAK256 SLOAD DUP2 JUMP JUMPDEST PUSH2 0x203 PUSH2 0x2BD CALLDATASIZE PUSH1 0x4 PUSH2 0xBB7 JUMP JUMPDEST PUSH2 0x972 JUMP JUMPDEST PUSH2 0x12F PUSH2 0x2D0 CALLDATASIZE PUSH1 0x4 PUSH2 0xBD4 JUMP JUMPDEST PUSH1 0x1 PUSH1 0x1 PUSH1 0xA0 SHL SUB SWAP2 DUP3 AND PUSH1 0x0 SWAP1 DUP2 MSTORE PUSH1 0x2 PUSH1 0x20 SWAP1 DUP2 MSTORE PUSH1 0x40 DUP1 DUP4 KECCAK256 SWAP4 SWAP1 SWAP5 AND DUP3 MSTORE SWAP2 SWAP1 SWAP2 MSTORE KECCAK256 SLOAD SWAP1 JUMP JUMPDEST PUSH2 0x12F PUSH1 0x32 DUP2 JUMP JUMPDEST PUSH2 0x203 PUSH2 0x311 CALLDATASIZE PUSH1 0x4 PUSH2 0xBB7 JUMP JUMPDEST PUSH2 0x9BE JUMP JUMPDEST PUSH1 0x0 PUSH1 0x1 PUSH1 0x1 PUSH1 0xA0 SHL SUB DUP4 AND PUSH2 0x32B JUMPI PUSH1 0x0 DUP1 REVERT JUMPDEST CALLER PUSH1 0x0 DUP2 DUP2 MSTORE PUSH1 0x2 PUSH1 0x20 SWAP1 DUP2 MSTORE PUSH1 0x40 DUP1 DUP4 KECCAK256 PUSH1 0x1 PUSH1 0x1 PUSH1 0xA0 SHL SUB DUP9 AND DUP1 DUP6 MSTORE SWAP1 DUP4 MSTORE SWAP3 DUP2 SWAP1 KECCAK256 DUP7 SWAP1 SSTORE MLOAD DUP6 DUP2 MSTORE SWAP2 SWAP3 SWAP2 PUSH32 0x8C5BE1E5EBEC7D5BD14F71427D1E84F3DD0314C0F7B2291E5B200AC8C7C3B925 SWAP2 ADD JUMPDEST PUSH1 0x40 MLOAD DUP1 SWAP2 SUB SWAP1 LOG3 POP PUSH1 0x1 SWAP3 SWAP2 POP POP JUMP JUMPDEST PUSH1 0x1 PUSH1 0x1 PUSH1 0xA0 SHL SUB DUP4 AND PUSH1 0x0 SWAP1 DUP2 MSTORE PUSH1 0x1 PUSH1 0x20 MSTORE PUSH1 0x40 DUP2 KECCAK256 SLOAD DUP3 GT ISZERO PUSH2 0x3B5 JUMPI PUSH1 0x0 DUP1 REVERT JUMPDEST PUSH1 0x1 PUSH1 0x1 PUSH1 0xA0 SHL SUB DUP5 AND PUSH1 0x0 SWAP1 DUP2 MSTORE PUSH1 0x2 PUSH1 0x20 SWAP1 DUP2 MSTORE PUSH1 0x40 DUP1 DUP4 KECCAK256 CALLER DUP5 MSTORE SWAP1 SWAP2 MSTORE SWAP1 KECCAK256 SLOAD DUP3 GT ISZERO PUSH2 0x3E5 JUMPI PUSH1 0x0 DUP1 REVERT JUMPDEST PUSH1 0x1 PUSH1 0x1 PUSH1 0xA0 SHL SUB DUP4 AND PUSH2 0x3F8 JUMPI PUSH1 0x0 DUP1 REVERT JUMPDEST PUSH1 0x1 PUSH1 0x1 PUSH1 0xA0 SHL SUB DUP5 AND PUSH1 0x0 SWAP1 DUP2 MSTORE PUSH1 0x1 PUSH1 0x20 MSTORE PUSH1 0x40 SWAP1 KECCAK256 SLOAD PUSH2 0x41B SWAP1 DUP4 PUSH2 0xA6C JUMP JUMPDEST PUSH1 0x1 PUSH1 0x1 PUSH1 0xA0 SHL SUB DUP6 AND PUSH1 0x0 SWAP1 DUP2 MSTORE PUSH1 0x1 PUSH1 0x20 MSTORE PUSH1 0x40 DUP2 KECCAK256 SWAP2 SWAP1 SWAP2 SSTORE PUSH2 0x44E PUSH2 0x3E8 PUSH2 0x448 DUP6 PUSH1 0x32 PUSH2 0xA78 JUMP JUMPDEST SWAP1 PUSH2 0xA84 JUMP JUMPDEST SWAP1 POP PUSH1 0x0 PUSH2 0x468 DUP3 PUSH2 0x462 DUP2 DUP2 DUP9 DUP3 PUSH2 0xA6C JUMP JUMPDEST SWAP1 PUSH2 0xA6C JUMP JUMPDEST PUSH1 0x1 PUSH1 0x1 PUSH1 0xA0 SHL SUB DUP7 AND PUSH1 0x0 SWAP1 DUP2 MSTORE PUSH1 0x1 PUSH1 0x20 MSTORE PUSH1 0x40 SWAP1 KECCAK256 SLOAD SWAP1 SWAP2 POP PUSH2 0x48E SWAP1 DUP3 PUSH2 0xA59 JUMP JUMPDEST PUSH1 0x1 PUSH1 0x1 PUSH1 0xA0 SHL SUB DUP1 DUP8 AND PUSH1 0x0 SWAP1 DUP2 MSTORE PUSH1 0x1 PUSH1 0x20 MSTORE PUSH1 0x40 DUP1 DUP3 KECCAK256 SWAP4 SWAP1 SWAP4 SSTORE PUSH1 0x6 SLOAD SWAP1 SWAP2 AND DUP2 MSTORE KECCAK256 SLOAD PUSH2 0x4C0 SWAP1 DUP4 PUSH2 0xA59 JUMP JUMPDEST PUSH1 0x6 SLOAD PUSH1 0x1 PUSH1 0x1 PUSH1 0xA0 SHL SUB SWAP1 DUP2 AND PUSH1 0x0 SWAP1 DUP2 MSTORE PUSH1 0x1 PUSH1 0x20 MSTORE PUSH1 0x40 DUP1 DUP3 KECCAK256 SWAP4 SWAP1 SWAP4 SSTORE PUSH1 0x5 SLOAD SWAP1 SWAP2 AND DUP2 MSTORE KECCAK256 SLOAD PUSH2 0x4F5 SWAP1 DUP4 PUSH2 0xA59 JUMP JUMPDEST PUSH1 0x5 SLOAD PUSH1 0x1 PUSH1 0x1 PUSH1 0xA0 SHL SUB SWAP1 DUP2 AND PUSH1 0x0 SWAP1 DUP2 MSTORE PUSH1 0x1 PUSH1 0x20 MSTORE PUSH1 0x40 DUP1 DUP3 KECCAK256 SWAP4 SWAP1 SWAP4 SSTORE PUSH1 0x4 SLOAD SWAP1 SWAP2 AND DUP2 MSTORE KECCAK256 SLOAD PUSH2 0x52A SWAP1 DUP4 PUSH2 0xA59 JUMP JUMPDEST PUSH1 0x4 SLOAD PUSH1 0x1 PUSH1 0x1 PUSH1 0xA0 SHL SUB SWAP1 DUP2 AND PUSH1 0x0 SWAP1 DUP2 MSTORE PUSH1 0x1 PUSH1 0x20 SWAP1 DUP2 MSTORE PUSH1 0x40 DUP1 DUP4 KECCAK256 SWAP5 SWAP1 SWAP5 SSTORE SWAP2 DUP10 AND DUP2 MSTORE PUSH1 0x2 DUP3 MSTORE DUP3 DUP2 KECCAK256 CALLER DUP3 MSTORE SWAP1 SWAP2 MSTORE KECCAK256 SLOAD PUSH2 0x56B SWAP1 DUP6 PUSH2 0xA6C JUMP JUMPDEST PUSH1 0x1 PUSH1 0x1 PUSH1 0xA0 SHL SUB DUP1 DUP9 AND PUSH1 0x0 SWAP1 DUP2 MSTORE PUSH1 0x2 PUSH1 0x20 SWAP1 DUP2 MSTORE PUSH1 0x40 DUP1 DUP4 KECCAK256 CALLER DUP1 DUP6 MSTORE SWAP3 MSTORE SWAP2 DUP3 SWAP1 KECCAK256 SWAP4 SWAP1 SWAP4 SSTORE PUSH1 0x6 SLOAD SWAP1 MLOAD SWAP2 AND SWAP2 SWAP1 PUSH1 0x0 DUP1 MLOAD PUSH1 0x20 PUSH2 0xCC9 DUP4 CODECOPY DUP2 MLOAD SWAP2 MSTORE SWAP1 PUSH2 0x5BB SWAP1 DUP7 DUP2 MSTORE PUSH1 0x20 ADD SWAP1 JUMP JUMPDEST PUSH1 0x40 MLOAD DUP1 SWAP2 SUB SWAP1 LOG3 PUSH1 0x5 SLOAD PUSH1 0x40 MLOAD DUP4 DUP2 MSTORE PUSH1 0x1 PUSH1 0x1 PUSH1 0xA0 SHL SUB SWAP1 SWAP2 AND SWAP1 CALLER SWAP1 PUSH1 0x0 DUP1 MLOAD PUSH1 0x20 PUSH2 0xCC9 DUP4 CODECOPY DUP2 MLOAD SWAP2 MSTORE SWAP1 PUSH1 0x20 ADD PUSH1 0x40 MLOAD DUP1 SWAP2 SUB SWAP1 LOG3 PUSH1 0x4 SLOAD PUSH1 0x40 MLOAD DUP4 DUP2 MSTORE PUSH1 0x1 PUSH1 0x1 PUSH1 0xA0 SHL SUB SWAP1 SWAP2 AND SWAP1 CALLER SWAP1 PUSH1 0x0 DUP1 MLOAD PUSH1 0x20 PUSH2 0xCC9 DUP4 CODECOPY DUP2 MLOAD SWAP2 MSTORE SWAP1 PUSH1 0x20 ADD PUSH1 0x40 MLOAD DUP1 SWAP2 SUB SWAP1 LOG3 POP PUSH1 0x1 SWAP6 SWAP5 POP POP POP POP POP JUMP JUMPDEST PUSH1 0x0 PUSH1 0x1 PUSH1 0x1 PUSH1 0xA0 SHL SUB DUP4 AND PUSH2 0x648 JUMPI PUSH1 0x0 DUP1 REVERT JUMPDEST CALLER PUSH1 0x0 SWAP1 DUP2 MSTORE PUSH1 0x2 PUSH1 0x20 SWAP1 DUP2 MSTORE PUSH1 0x40 DUP1 DUP4 KECCAK256 PUSH1 0x1 PUSH1 0x1 PUSH1 0xA0 SHL SUB DUP8 AND DUP5 MSTORE SWAP1 SWAP2 MSTORE SWAP1 KECCAK256 SLOAD PUSH2 0x676 SWAP1 DUP4 PUSH2 0xA59 JUMP JUMPDEST CALLER PUSH1 0x0 DUP2 DUP2 MSTORE PUSH1 0x2 PUSH1 0x20 SWAP1 DUP2 MSTORE PUSH1 0x40 DUP1 DUP4 KECCAK256 PUSH1 0x1 PUSH1 0x1 PUSH1 0xA0 SHL SUB DUP10 AND DUP1 DUP6 MSTORE SWAP1 DUP4 MSTORE SWAP3 DUP2 SWAP1 KECCAK256 DUP6 SWAP1 SSTORE MLOAD SWAP4 DUP5 MSTORE SWAP1 SWAP3 PUSH32 0x8C5BE1E5EBEC7D5BD14F71427D1E84F3DD0314C0F7B2291E5B200AC8C7C3B925 SWAP2 ADD PUSH2 0x37F JUMP JUMPDEST PUSH1 0x0 SLOAD PUSH1 0x1 PUSH1 0x1 PUSH1 0xA0 SHL SUB AND CALLER EQ PUSH2 0x700 JUMPI PUSH1 0x40 MLOAD PUSH3 0x461BCD PUSH1 0xE5 SHL DUP2 MSTORE PUSH1 0x4 ADD PUSH2 0x6F7 SWAP1 PUSH2 0xC0D JUMP JUMPDEST PUSH1 0x40 MLOAD DUP1 SWAP2 SUB SWAP1 REVERT JUMPDEST PUSH2 0x70A PUSH1 0x0 PUSH2 0xA90 JUMP JUMPDEST JUMP JUMPDEST PUSH1 0x0 PUSH1 0x1 PUSH1 0x1 PUSH1 0xA0 SHL SUB DUP4 AND PUSH2 0x721 JUMPI PUSH1 0x0 DUP1 REVERT JUMPDEST CALLER PUSH1 0x0 SWAP1 DUP2 MSTORE PUSH1 0x2 PUSH1 0x20 SWAP1 DUP2 MSTORE PUSH1 0x40 DUP1 DUP4 KECCAK256 PUSH1 0x1 PUSH1 0x1 PUSH1 0xA0 SHL SUB DUP8 AND DUP5 MSTORE SWAP1 SWAP2 MSTORE SWAP1 KECCAK256 SLOAD PUSH2 0x676 SWAP1 DUP4 PUSH2 0xA6C JUMP JUMPDEST CALLER PUSH1 0x0 SWAP1 DUP2 MSTORE PUSH1 0x1 PUSH1 0x20 MSTORE PUSH1 0x40 DUP2 KECCAK256 SLOAD DUP3 GT ISZERO PUSH2 0x76B JUMPI PUSH1 0x0 DUP1 REVERT JUMPDEST PUSH1 0x1 PUSH1 0x1 PUSH1 0xA0 SHL SUB DUP4 AND PUSH2 0x77E JUMPI PUSH1 0x0 DUP1 REVERT JUMPDEST PUSH1 0x0 PUSH2 0x791 PUSH2 0x3E8 PUSH2 0x448 DUP6 PUSH1 0x32 PUSH2 0xA78 JUMP JUMPDEST SWAP1 POP PUSH1 0x0 PUSH2 0x7A5 DUP3 PUSH2 0x462 DUP2 DUP2 DUP9 DUP3 PUSH2 0xA6C JUMP JUMPDEST CALLER PUSH1 0x0 SWAP1 DUP2 MSTORE PUSH1 0x1 PUSH1 0x20 MSTORE PUSH1 0x40 SWAP1 KECCAK256 SLOAD SWAP1 SWAP2 POP PUSH2 0x7C2 SWAP1 DUP6 PUSH2 0xA6C JUMP JUMPDEST CALLER PUSH1 0x0 SWAP1 DUP2 MSTORE PUSH1 0x1 PUSH1 0x20 MSTORE PUSH1 0x40 DUP1 DUP3 KECCAK256 SWAP3 SWAP1 SWAP3 SSTORE PUSH1 0x1 PUSH1 0x1 PUSH1 0xA0 SHL SUB DUP8 AND DUP2 MSTORE KECCAK256 SLOAD PUSH2 0x7EE SWAP1 DUP3 PUSH2 0xA59 JUMP JUMPDEST PUSH1 0x1 PUSH1 0x1 PUSH1 0xA0 SHL SUB DUP1 DUP8 AND PUSH1 0x0 SWAP1 DUP2 MSTORE PUSH1 0x1 PUSH1 0x20 MSTORE PUSH1 0x40 DUP1 DUP3 KECCAK256 SWAP4 SWAP1 SWAP4 SSTORE PUSH1 0x6 SLOAD SWAP1 SWAP2 AND DUP2 MSTORE KECCAK256 SLOAD PUSH2 0x820 SWAP1 DUP4 PUSH2 0xA59 JUMP JUMPDEST PUSH1 0x6 SLOAD PUSH1 0x1 PUSH1 0x1 PUSH1 0xA0 SHL SUB SWAP1 DUP2 AND PUSH1 0x0 SWAP1 DUP2 MSTORE PUSH1 0x1 PUSH1 0x20 MSTORE PUSH1 0x40 DUP1 DUP3 KECCAK256 SWAP4 SWAP1 SWAP4 SSTORE PUSH1 0x5 SLOAD SWAP1 SWAP2 AND DUP2 MSTORE KECCAK256 SLOAD PUSH2 0x855 SWAP1 DUP4 PUSH2 0xA59 JUMP JUMPDEST PUSH1 0x5 SLOAD PUSH1 0x1 PUSH1 0x1 PUSH1 0xA0 SHL SUB SWAP1 DUP2 AND PUSH1 0x0 SWAP1 DUP2 MSTORE PUSH1 0x1 PUSH1 0x20 MSTORE PUSH1 0x40 DUP1 DUP3 KECCAK256 SWAP4 SWAP1 SWAP4 SSTORE PUSH1 0x4 SLOAD SWAP1 SWAP2 AND DUP2 MSTORE KECCAK256 SLOAD PUSH2 0x88A SWAP1 DUP4 PUSH2 0xA59 JUMP JUMPDEST PUSH1 0x4 SLOAD PUSH1 0x1 PUSH1 0x1 PUSH1 0xA0 SHL SUB SWAP1 DUP2 AND PUSH1 0x0 SWAP1 DUP2 MSTORE PUSH1 0x1 PUSH1 0x20 SWAP1 DUP2 MSTORE PUSH1 0x40 SWAP2 DUP3 SWAP1 KECCAK256 SWAP4 SWAP1 SWAP4 SSTORE MLOAD DUP4 DUP2 MSTORE SWAP1 DUP8 AND SWAP2 CALLER SWAP2 PUSH1 0x0 DUP1 MLOAD PUSH1 0x20 PUSH2 0xCC9 DUP4 CODECOPY DUP2 MLOAD SWAP2 MSTORE SWAP2 ADD PUSH1 0x40 MLOAD DUP1 SWAP2 SUB SWAP1 LOG3 PUSH1 0x6 SLOAD PUSH1 0x40 MLOAD DUP4 DUP2 MSTORE PUSH1 0x1 PUSH1 0x1 PUSH1 0xA0 SHL SUB SWAP1 SWAP2 AND SWAP1 CALLER SWAP1 PUSH1 0x0 DUP1 MLOAD PUSH1 0x20 PUSH2 0xCC9 DUP4 CODECOPY DUP2 MLOAD SWAP2 MSTORE SWAP1 PUSH1 0x20 ADD PUSH1 0x40 MLOAD DUP1 SWAP2 SUB SWAP1 LOG3 PUSH1 0x5 SLOAD PUSH1 0x40 MLOAD DUP4 DUP2 MSTORE PUSH1 0x1 PUSH1 0x1 PUSH1 0xA0 SHL SUB SWAP1 SWAP2 AND SWAP1 CALLER SWAP1 PUSH1 0x0 DUP1 MLOAD PUSH1 0x20 PUSH2 0xCC9 DUP4 CODECOPY DUP2 MLOAD SWAP2 MSTORE SWAP1 PUSH1 0x20 ADD PUSH1 0x40 MLOAD DUP1 SWAP2 SUB SWAP1 LOG3 PUSH1 0x4 SLOAD PUSH1 0x40 MLOAD DUP4 DUP2 MSTORE PUSH1 0x1 PUSH1 0x1 PUSH1 0xA0 SHL SUB SWAP1 SWAP2 AND SWAP1 CALLER SWAP1 PUSH1 0x0 DUP1 MLOAD PUSH1 0x20 PUSH2 0xCC9 DUP4 CODECOPY DUP2 MLOAD SWAP2 MSTORE SWAP1 PUSH1 0x20 ADD PUSH1 0x40 MLOAD DUP1 SWAP2 SUB SWAP1 LOG3 POP PUSH1 0x1 SWAP5 SWAP4 POP POP POP POP JUMP JUMPDEST PUSH1 0x0 SLOAD PUSH1 0x1 PUSH1 0x1 PUSH1 0xA0 SHL SUB AND CALLER EQ PUSH2 0x99C JUMPI PUSH1 0x40 MLOAD PUSH3 0x461BCD PUSH1 0xE5 SHL DUP2 MSTORE PUSH1 0x4 ADD PUSH2 0x6F7 SWAP1 PUSH2 0xC0D JUMP JUMPDEST PUSH1 0x6 DUP1 SLOAD PUSH1 0x1 PUSH1 0x1 PUSH1 0xA0 SHL SUB NOT AND PUSH1 0x1 PUSH1 0x1 PUSH1 0xA0 SHL SUB SWAP3 SWAP1 SWAP3 AND SWAP2 SWAP1 SWAP2 OR SWAP1 SSTORE JUMP JUMPDEST PUSH1 0x0 SLOAD PUSH1 0x1 PUSH1 0x1 PUSH1 0xA0 SHL SUB AND CALLER EQ PUSH2 0x9E8 JUMPI PUSH1 0x40 MLOAD PUSH3 0x461BCD PUSH1 0xE5 SHL DUP2 MSTORE PUSH1 0x4 ADD PUSH2 0x6F7 SWAP1 PUSH2 0xC0D JUMP JUMPDEST PUSH1 0x1 PUSH1 0x1 PUSH1 0xA0 SHL SUB DUP2 AND PUSH2 0xA4D JUMPI PUSH1 0x40 MLOAD PUSH3 0x461BCD PUSH1 0xE5 SHL DUP2 MSTORE PUSH1 0x20 PUSH1 0x4 DUP3 ADD MSTORE PUSH1 0x26 PUSH1 0x24 DUP3 ADD MSTORE PUSH32 0x4F776E61626C653A206E6577206F776E657220697320746865207A65726F2061 PUSH1 0x44 DUP3 ADD MSTORE PUSH6 0x646472657373 PUSH1 0xD0 SHL PUSH1 0x64 DUP3 ADD MSTORE PUSH1 0x84 ADD PUSH2 0x6F7 JUMP JUMPDEST PUSH2 0xA56 DUP2 PUSH2 0xA90 JUMP JUMPDEST POP JUMP JUMPDEST PUSH1 0x0 PUSH2 0xA65 DUP3 DUP5 PUSH2 0xC58 JUMP JUMPDEST SWAP4 SWAP3 POP POP POP JUMP JUMPDEST PUSH1 0x0 PUSH2 0xA65 DUP3 DUP5 PUSH2 0xC70 JUMP JUMPDEST PUSH1 0x0 PUSH2 0xA65 DUP3 DUP5 PUSH2 0xC87 JUMP JUMPDEST PUSH1 0x0 PUSH2 0xA65 DUP3 DUP5 PUSH2 0xCA6 JUMP JUMPDEST PUSH1 0x0 DUP1 SLOAD PUSH1 0x1 PUSH1 0x1 PUSH1 0xA0 SHL SUB DUP4 DUP2 AND PUSH1 0x1 PUSH1 0x1 PUSH1 0xA0 SHL SUB NOT DUP4 AND DUP2 OR DUP5 SSTORE PUSH1 0x40 MLOAD SWAP2 SWAP1 SWAP3 AND SWAP3 DUP4 SWAP2 PUSH32 0x8BE0079C531659141344CD1FD0A4F28419497F9722A3DAAFE3B4186F6B6457E0 SWAP2 SWAP1 LOG3 POP POP JUMP JUMPDEST PUSH1 0x0 PUSH1 0x20 DUP1 DUP4 MSTORE DUP4 MLOAD DUP1 DUP3 DUP6 ADD MSTORE PUSH1 0x0 JUMPDEST DUP2 DUP2 LT ISZERO PUSH2 0xB0D JUMPI DUP6 DUP2 ADD DUP4 ADD MLOAD DUP6 DUP3 ADD PUSH1 0x40 ADD MSTORE DUP3 ADD PUSH2 0xAF1 JUMP JUMPDEST DUP2 DUP2 GT ISZERO PUSH2 0xB1F JUMPI PUSH1 0x0 PUSH1 0x40 DUP4 DUP8 ADD ADD MSTORE JUMPDEST POP PUSH1 0x1F ADD PUSH1 0x1F NOT AND SWAP3 SWAP1 SWAP3 ADD PUSH1 0x40 ADD SWAP4 SWAP3 POP POP POP JUMP JUMPDEST PUSH1 0x1 PUSH1 0x1 PUSH1 0xA0 SHL SUB DUP2 AND DUP2 EQ PUSH2 0xA56 JUMPI PUSH1 0x0 DUP1 REVERT JUMPDEST PUSH1 0x0 DUP1 PUSH1 0x40 DUP4 DUP6 SUB SLT ISZERO PUSH2 0xB5D JUMPI PUSH1 0x0 DUP1 REVERT JUMPDEST DUP3 CALLDATALOAD PUSH2 0xB68 DUP2 PUSH2 0xB35 JUMP JUMPDEST SWAP5 PUSH1 0x20 SWAP4 SWAP1 SWAP4 ADD CALLDATALOAD SWAP4 POP POP POP JUMP JUMPDEST PUSH1 0x0 DUP1 PUSH1 0x0 PUSH1 0x60 DUP5 DUP7 SUB SLT ISZERO PUSH2 0xB8B JUMPI PUSH1 0x0 DUP1 REVERT JUMPDEST DUP4 CALLDATALOAD PUSH2 0xB96 DUP2 PUSH2 0xB35 JUMP JUMPDEST SWAP3 POP PUSH1 0x20 DUP5 ADD CALLDATALOAD PUSH2 0xBA6 DUP2 PUSH2 0xB35 JUMP JUMPDEST SWAP3 SWAP6 SWAP3 SWAP5 POP POP POP PUSH1 0x40 SWAP2 SWAP1 SWAP2 ADD CALLDATALOAD SWAP1 JUMP JUMPDEST PUSH1 0x0 PUSH1 0x20 DUP3 DUP5 SUB SLT ISZERO PUSH2 0xBC9 JUMPI PUSH1 0x0 DUP1 REVERT JUMPDEST DUP2 CALLDATALOAD PUSH2 0xA65 DUP2 PUSH2 0xB35 JUMP JUMPDEST PUSH1 0x0 DUP1 PUSH1 0x40 DUP4 DUP6 SUB SLT ISZERO PUSH2 0xBE7 JUMPI PUSH1 0x0 DUP1 REVERT JUMPDEST DUP3 CALLDATALOAD PUSH2 0xBF2 DUP2 PUSH2 0xB35 JUMP JUMPDEST SWAP2 POP PUSH1 0x20 DUP4 ADD CALLDATALOAD PUSH2 0xC02 DUP2 PUSH2 0xB35 JUMP JUMPDEST DUP1 SWAP2 POP POP SWAP3 POP SWAP3 SWAP1 POP JUMP JUMPDEST PUSH1 0x20 DUP1 DUP3 MSTORE DUP2 DUP2 ADD MSTORE PUSH32 0x4F776E61626C653A2063616C6C6572206973206E6F7420746865206F776E6572 PUSH1 0x40 DUP3 ADD MSTORE PUSH1 0x60 ADD SWAP1 JUMP JUMPDEST PUSH4 0x4E487B71 PUSH1 0xE0 SHL PUSH1 0x0 MSTORE PUSH1 0x11 PUSH1 0x4 MSTORE PUSH1 0x24 PUSH1 0x0 REVERT JUMPDEST PUSH1 0x0 DUP3 NOT DUP3 GT ISZERO PUSH2 0xC6B JUMPI PUSH2 0xC6B PUSH2 0xC42 JUMP JUMPDEST POP ADD SWAP1 JUMP JUMPDEST PUSH1 0x0 DUP3 DUP3 LT ISZERO PUSH2 0xC82 JUMPI PUSH2 0xC82 PUSH2 0xC42 JUMP JUMPDEST POP SUB SWAP1 JUMP JUMPDEST PUSH1 0x0 DUP2 PUSH1 0x0 NOT DIV DUP4 GT DUP3 ISZERO ISZERO AND ISZERO PUSH2 0xCA1 JUMPI PUSH2 0xCA1 PUSH2 0xC42 JUMP JUMPDEST POP MUL SWAP1 JUMP JUMPDEST PUSH1 0x0 DUP3 PUSH2 0xCC3 JUMPI PUSH4 0x4E487B71 PUSH1 0xE0 SHL PUSH1 0x0 MSTORE PUSH1 0x12 PUSH1 0x4 MSTORE PUSH1 0x24 PUSH1 0x0 REVERT JUMPDEST POP DIV SWAP1 JUMP INVALID 0xDD CALLCODE MSTORE 0xAD SHL 0xE2 0xC8 SWAP12 PUSH10 0xC2B068FC378DAA952BA7 CALL PUSH4 0xC4A11628 CREATE2 GAS 0x4D CREATE2 0x23 0xB3 0xEF LOG2 PUSH5 0x6970667358 0x22 SLT KECCAK256 MSIZE 0xCF 0xA9 0x4A 0xC4 CALLER 0xE7 0xBE CREATE2 0xE4 SLOAD 0xEC LOG1 0xB1 SWAP9 CODECOPY CODECOPY PUSH27 0x77E1DB08153A09338DF6E7943CF064736F6C634300080A00330000 "
				},
				"gasEstimates": {
					"creation": {
						"codeDepositCost": "671600",
						"executionCost": "infinite",
						"totalCost": "infinite"
					},
					"external": {
						"FEE_PERCENT()": "272",
						"PERCENTS_DIVIDER()": "208",
						"_BCTokenBalances(address)": "2525",
						"_allowed(address,address)": "infinite",
						"allowance(address,address)": "infinite",
						"approve(address,uint256)": "24582",
						"balanceOf(address)": "2609",
						"decimals()": "222",
						"decreaseAllowance(address,uint256)": "26984",
						"increaseAllowance(address,uint256)": "26965",
						"name()": "infinite",
						"owner()": "2346",
						"renounceOwnership()": "28225",
						"setDevAddress(address)": "26749",
						"symbol()": "infinite",
						"totalSupply()": "2371",
						"transfer(address,uint256)": "infinite",
						"transferFrom(address,address,uint256)": "infinite",
						"transferOwnership(address)": "infinite"
					},
					"internal": {
						"_mint(address,uint256)": "infinite"
					}
				},
				"methodIdentifiers": {
					"FEE_PERCENT()": "eaf98d23",
					"PERCENTS_DIVIDER()": "01c234a8",
					"_BCTokenBalances(address)": "7711c596",
					"_allowed(address,address)": "ba0fb861",
					"allowance(address,address)": "dd62ed3e",
					"approve(address,uint256)": "095ea7b3",
					"balanceOf(address)": "70a08231",
					"decimals()": "313ce567",
					"decreaseAllowance(address,uint256)": "a457c2d7",
					"increaseAllowance(address,uint256)": "39509351",
					"name()": "06fdde03",
					"owner()": "8da5cb5b",
					"renounceOwnership()": "715018a6",
					"setDevAddress(address)": "d0d41fe1",
					"symbol()": "95d89b41",
					"totalSupply()": "18160ddd",
					"transfer(address,uint256)": "a9059cbb",
					"transferFrom(address,address,uint256)": "23b872dd",
					"transferOwnership(address)": "f2fde38b"
				}
			},
			"storageLayout": {
				"storage": [
					{
						"astId": 7,
						"contract": "BillionCash.sol:BillionCash",
						"label": "_owner",
						"offset": 0,
						"slot": "0",
						"type": "t_address"
					},
					{
						"astId": 451,
						"contract": "BillionCash.sol:BillionCash",
						"label": "_BCTokenBalances",
						"offset": 0,
						"slot": "1",
						"type": "t_mapping(t_address,t_uint256)"
					},
					{
						"astId": 457,
						"contract": "BillionCash.sol:BillionCash",
						"label": "_allowed",
						"offset": 0,
						"slot": "2",
						"type": "t_mapping(t_address,t_mapping(t_address,t_uint256))"
					},
					{
						"astId": 476,
						"contract": "BillionCash.sol:BillionCash",
						"label": "_totalSupply",
						"offset": 0,
						"slot": "3",
						"type": "t_uint256"
					},
					{
						"astId": 478,
						"contract": "BillionCash.sol:BillionCash",
						"label": "pancakeswap",
						"offset": 0,
						"slot": "4",
						"type": "t_address"
					},
					{
						"astId": 480,
						"contract": "BillionCash.sol:BillionCash",
						"label": "marketingwallet",
						"offset": 0,
						"slot": "5",
						"type": "t_address"
					},
					{
						"astId": 482,
						"contract": "BillionCash.sol:BillionCash",
						"label": "adminAddress",
						"offset": 0,
						"slot": "6",
						"type": "t_address"
					}
				],
				"types": {
					"t_address": {
						"encoding": "inplace",
						"label": "address",
						"numberOfBytes": "20"
					},
					"t_mapping(t_address,t_mapping(t_address,t_uint256))": {
						"encoding": "mapping",
						"key": "t_address",
						"label": "mapping(address => mapping(address => uint256))",
						"numberOfBytes": "32",
						"value": "t_mapping(t_address,t_uint256)"
					},
					"t_mapping(t_address,t_uint256)": {
						"encoding": "mapping",
						"key": "t_address",
						"label": "mapping(address => uint256)",
						"numberOfBytes": "32",
						"value": "t_uint256"
					},
					"t_uint256": {
						"encoding": "inplace",
						"label": "uint256",
						"numberOfBytes": "32"
					}
				}
			},
			"userdoc": {
				"kind": "user",
				"methods": {},
				"version": 1
			}
		}
	}
}