{
	"Staking.sol": {
		"BillionCashStaking": {
			"abi": [
				{
					"inputs": [
						{
							"internalType": "contract ERC20",
							"name": "_token",
							"type": "address"
						}
					],
					"stateMutability": "nonpayable",
					"type": "constructor"
				},
				{
					"anonymous": false,
					"inputs": [
						{
							"indexed": true,
							"internalType": "address",
							"name": "user",
							"type": "address"
						},
						{
							"indexed": false,
							"internalType": "uint256",
							"name": "amount",
							"type": "uint256"
						}
					],
					"name": "NewDeposit",
					"type": "event"
				},
				{
					"anonymous": false,
					"inputs": [
						{
							"indexed": false,
							"internalType": "address",
							"name": "user",
							"type": "address"
						}
					],
					"name": "Newbie",
					"type": "event"
				},
				{
					"anonymous": false,
					"inputs": [
						{
							"indexed": true,
							"internalType": "address",
							"name": "previousOwner",
							"type": "address"
						},
						{
							"indexed": true,
							"internalType": "address",
							"name": "newOwner",
							"type": "address"
						}
					],
					"name": "OwnershipTransferred",
					"type": "event"
				},
				{
					"anonymous": false,
					"inputs": [
						{
							"indexed": true,
							"internalType": "address",
							"name": "referrer",
							"type": "address"
						},
						{
							"indexed": true,
							"internalType": "address",
							"name": "referral",
							"type": "address"
						},
						{
							"indexed": false,
							"internalType": "uint256",
							"name": "amount",
							"type": "uint256"
						}
					],
					"name": "RefBonus",
					"type": "event"
				},
				{
					"anonymous": false,
					"inputs": [
						{
							"indexed": true,
							"internalType": "address",
							"name": "user",
							"type": "address"
						},
						{
							"indexed": false,
							"internalType": "uint256",
							"name": "amount",
							"type": "uint256"
						}
					],
					"name": "Withdrawn",
					"type": "event"
				},
				{
					"anonymous": false,
					"inputs": [
						{
							"indexed": true,
							"internalType": "address",
							"name": "user",
							"type": "address"
						},
						{
							"indexed": false,
							"internalType": "uint256",
							"name": "reinvestAmount",
							"type": "uint256"
						}
					],
					"name": "onReinvestment",
					"type": "event"
				},
				{
					"inputs": [],
					"name": "PERCENTS_DAILY",
					"outputs": [
						{
							"internalType": "uint256",
							"name": "",
							"type": "uint256"
						}
					],
					"stateMutability": "view",
					"type": "function"
				},
				{
					"inputs": [],
					"name": "PERCENTS_DIVIDER",
					"outputs": [
						{
							"internalType": "uint256",
							"name": "",
							"type": "uint256"
						}
					],
					"stateMutability": "view",
					"type": "function"
				},
				{
					"inputs": [],
					"name": "REFERRAL_PERCENTS",
					"outputs": [
						{
							"internalType": "uint256",
							"name": "",
							"type": "uint256"
						}
					],
					"stateMutability": "view",
					"type": "function"
				},
				{
					"inputs": [],
					"name": "STAKING_PERIOD",
					"outputs": [
						{
							"internalType": "uint256",
							"name": "",
							"type": "uint256"
						}
					],
					"stateMutability": "view",
					"type": "function"
				},
				{
					"inputs": [],
					"name": "TIME_STEP",
					"outputs": [
						{
							"internalType": "uint256",
							"name": "",
							"type": "uint256"
						}
					],
					"stateMutability": "view",
					"type": "function"
				},
				{
					"inputs": [],
					"name": "claim",
					"outputs": [],
					"stateMutability": "nonpayable",
					"type": "function"
				},
				{
					"inputs": [],
					"name": "compound",
					"outputs": [],
					"stateMutability": "nonpayable",
					"type": "function"
				},
				{
					"inputs": [
						{
							"internalType": "address",
							"name": "userAddress",
							"type": "address"
						}
					],
					"name": "getUserAmountOfDeposits",
					"outputs": [
						{
							"internalType": "uint256",
							"name": "",
							"type": "uint256"
						}
					],
					"stateMutability": "view",
					"type": "function"
				},
				{
					"inputs": [
						{
							"internalType": "address",
							"name": "userAddress",
							"type": "address"
						}
					],
					"name": "getUserAvailable",
					"outputs": [
						{
							"internalType": "uint256",
							"name": "",
							"type": "uint256"
						}
					],
					"stateMutability": "view",
					"type": "function"
				},
				{
					"inputs": [
						{
							"internalType": "address",
							"name": "userAddress",
							"type": "address"
						}
					],
					"name": "getUserCheckpoint",
					"outputs": [
						{
							"internalType": "uint256",
							"name": "",
							"type": "uint256"
						}
					],
					"stateMutability": "view",
					"type": "function"
				},
				{
					"inputs": [
						{
							"internalType": "address",
							"name": "userAddress",
							"type": "address"
						},
						{
							"internalType": "uint256",
							"name": "index",
							"type": "uint256"
						}
					],
					"name": "getUserDepositInfo",
					"outputs": [
						{
							"internalType": "uint256",
							"name": "",
							"type": "uint256"
						},
						{
							"internalType": "uint256",
							"name": "",
							"type": "uint256"
						},
						{
							"internalType": "uint256",
							"name": "",
							"type": "uint256"
						},
						{
							"internalType": "uint256",
							"name": "",
							"type": "uint256"
						},
						{
							"internalType": "bool",
							"name": "",
							"type": "bool"
						}
					],
					"stateMutability": "view",
					"type": "function"
				},
				{
					"inputs": [
						{
							"internalType": "address",
							"name": "userAddress",
							"type": "address"
						}
					],
					"name": "getUserDividends",
					"outputs": [
						{
							"internalType": "uint256",
							"name": "",
							"type": "uint256"
						}
					],
					"stateMutability": "view",
					"type": "function"
				},
				{
					"inputs": [
						{
							"internalType": "address",
							"name": "userAddress",
							"type": "address"
						}
					],
					"name": "getUserReferralBonus",
					"outputs": [
						{
							"internalType": "uint256",
							"name": "",
							"type": "uint256"
						}
					],
					"stateMutability": "view",
					"type": "function"
				},
				{
					"inputs": [
						{
							"internalType": "address",
							"name": "userAddress",
							"type": "address"
						}
					],
					"name": "getUserReferralCount",
					"outputs": [
						{
							"internalType": "uint256",
							"name": "",
							"type": "uint256"
						}
					],
					"stateMutability": "view",
					"type": "function"
				},
				{
					"inputs": [
						{
							"internalType": "address",
							"name": "userAddress",
							"type": "address"
						}
					],
					"name": "getUserReferrer",
					"outputs": [
						{
							"internalType": "address",
							"name": "",
							"type": "address"
						}
					],
					"stateMutability": "view",
					"type": "function"
				},
				{
					"inputs": [
						{
							"internalType": "address",
							"name": "userAddress",
							"type": "address"
						}
					],
					"name": "getUserTotalDeposits",
					"outputs": [
						{
							"internalType": "uint256",
							"name": "",
							"type": "uint256"
						}
					],
					"stateMutability": "view",
					"type": "function"
				},
				{
					"inputs": [
						{
							"internalType": "address",
							"name": "userAddress",
							"type": "address"
						}
					],
					"name": "getUserTotalWithdrawn",
					"outputs": [
						{
							"internalType": "uint256",
							"name": "",
							"type": "uint256"
						}
					],
					"stateMutability": "view",
					"type": "function"
				},
				{
					"inputs": [
						{
							"internalType": "address",
							"name": "userAddress",
							"type": "address"
						}
					],
					"name": "isActive",
					"outputs": [
						{
							"internalType": "bool",
							"name": "",
							"type": "bool"
						}
					],
					"stateMutability": "view",
					"type": "function"
				},
				{
					"inputs": [],
					"name": "owner",
					"outputs": [
						{
							"internalType": "address",
							"name": "",
							"type": "address"
						}
					],
					"stateMutability": "view",
					"type": "function"
				},
				{
					"inputs": [],
					"name": "renounceOwnership",
					"outputs": [],
					"stateMutability": "nonpayable",
					"type": "function"
				},
				{
					"inputs": [
						{
							"internalType": "address",
							"name": "referrer",
							"type": "address"
						},
						{
							"internalType": "uint256",
							"name": "amount",
							"type": "uint256"
						}
					],
					"name": "stake",
					"outputs": [],
					"stateMutability": "nonpayable",
					"type": "function"
				},
				{
					"inputs": [],
					"name": "totalDepositCount",
					"outputs": [
						{
							"internalType": "uint256",
							"name": "",
							"type": "uint256"
						}
					],
					"stateMutability": "view",
					"type": "function"
				},
				{
					"inputs": [],
					"name": "totalStaked",
					"outputs": [
						{
							"internalType": "uint256",
							"name": "",
							"type": "uint256"
						}
					],
					"stateMutability": "view",
					"type": "function"
				},
				{
					"inputs": [],
					"name": "totalUsers",
					"outputs": [
						{
							"internalType": "uint256",
							"name": "",
							"type": "uint256"
						}
					],
					"stateMutability": "view",
					"type": "function"
				},
				{
					"inputs": [],
					"name": "totalWithdrawn",
					"outputs": [
						{
							"internalType": "uint256",
							"name": "",
							"type": "uint256"
						}
					],
					"stateMutability": "view",
					"type": "function"
				},
				{
					"inputs": [
						{
							"internalType": "address",
							"name": "newOwner",
							"type": "address"
						}
					],
					"name": "transferOwnership",
					"outputs": [],
					"stateMutability": "nonpayable",
					"type": "function"
				}
			],
			"devdoc": {
				"kind": "dev",
				"methods": {
					"owner()": {
						"details": "Returns the address of the current owner."
					},
					"renounceOwnership()": {
						"details": "Leaves the contract without owner. It will not be possible to call `onlyOwner` functions anymore. Can only be called by the current owner. NOTE: Renouncing ownership will leave the contract without an owner, thereby removing any functionality that is only available to the owner."
					},
					"transferOwnership(address)": {
						"details": "Transfers ownership of the contract to a new account (`newOwner`). Can only be called by the current owner."
					}
				},
				"version": 1
			},
			"evm": {
				"assembly": "    /* \"Staking.sol\":241:15028  contract BillionCashStaking is Ownable {... */\n  mstore(0x40, 0x80)\n    /* \"Staking.sol\":1590:1685  constructor(ERC20 _token) {... */\n  callvalue\n  dup1\n  iszero\n  tag_1\n  jumpi\n  0x00\n  dup1\n  revert\ntag_1:\n  pop\n  mload(0x40)\n  sub(codesize, bytecodeSize)\n  dup1\n  bytecodeSize\n  dup4\n  codecopy\n  dup2\n  add\n  0x40\n  dup2\n  swap1\n  mstore\n  tag_2\n  swap2\n  tag_3\n  jump\t// in\ntag_2:\n    /* \"@openzeppelin/contracts/access/Ownable.sol\":921:953  _transferOwnership(_msgSender()) */\n  tag_7\n    /* \"@openzeppelin/contracts/utils/Context.sol\":719:729  msg.sender */\n  caller\n    /* \"@openzeppelin/contracts/access/Ownable.sol\":921:939  _transferOwnership */\n  tag_10\n    /* \"@openzeppelin/contracts/access/Ownable.sol\":921:953  _transferOwnership(_msgSender()) */\n  jump\t// in\ntag_7:\n    /* \"Staking.sol\":1666:1668  BC */\n  0x01\n    /* \"Staking.sol\":1666:1677  BC = _token */\n  dup1\n  sload\n  not(sub(shl(0xa0, 0x01), 0x01))\n  and\n  sub(shl(0xa0, 0x01), 0x01)\n  swap3\n  swap1\n  swap3\n  and\n  swap2\n  swap1\n  swap2\n  or\n  swap1\n  sstore\n    /* \"Staking.sol\":241:15028  contract BillionCashStaking is Ownable {... */\n  jump(tag_15)\n    /* \"@openzeppelin/contracts/access/Ownable.sol\":2270:2457  function _transferOwnership(address newOwner) internal virtual {... */\ntag_10:\n    /* \"@openzeppelin/contracts/access/Ownable.sol\":2343:2359  address oldOwner */\n  0x00\n    /* \"@openzeppelin/contracts/access/Ownable.sol\":2362:2368  _owner */\n  dup1\n  sload\n  sub(shl(0xa0, 0x01), 0x01)\n    /* \"@openzeppelin/contracts/access/Ownable.sol\":2378:2395  _owner = newOwner */\n  dup4\n  dup2\n  and\n  not(sub(shl(0xa0, 0x01), 0x01))\n  dup4\n  and\n  dup2\n  or\n  dup5\n  sstore\n    /* \"@openzeppelin/contracts/access/Ownable.sol\":2410:2450  OwnershipTransferred(oldOwner, newOwner) */\n  mload(0x40)\n    /* \"@openzeppelin/contracts/access/Ownable.sol\":2362:2368  _owner */\n  swap2\n  swap1\n  swap3\n  and\n  swap3\n  dup4\n  swap2\n    /* \"@openzeppelin/contracts/access/Ownable.sol\":2410:2450  OwnershipTransferred(oldOwner, newOwner) */\n  0x8be0079c531659141344cd1fd0a4f28419497f9722a3daafe3b4186f6b6457e0\n  swap2\n    /* \"@openzeppelin/contracts/access/Ownable.sol\":2343:2359  address oldOwner */\n  swap1\n    /* \"@openzeppelin/contracts/access/Ownable.sol\":2410:2450  OwnershipTransferred(oldOwner, newOwner) */\n  log3\n    /* \"@openzeppelin/contracts/access/Ownable.sol\":2333:2457  {... */\n  pop\n    /* \"@openzeppelin/contracts/access/Ownable.sol\":2270:2457  function _transferOwnership(address newOwner) internal virtual {... */\n  pop\n  jump\t// out\n    /* \"#utility.yul\":14:317   */\ntag_3:\n    /* \"#utility.yul\":97:103   */\n  0x00\n    /* \"#utility.yul\":150:152   */\n  0x20\n    /* \"#utility.yul\":138:147   */\n  dup3\n    /* \"#utility.yul\":129:136   */\n  dup5\n    /* \"#utility.yul\":125:148   */\n  sub\n    /* \"#utility.yul\":121:153   */\n  slt\n    /* \"#utility.yul\":118:170   */\n  iszero\n  tag_17\n  jumpi\n    /* \"#utility.yul\":166:167   */\n  0x00\n    /* \"#utility.yul\":163:164   */\n  dup1\n    /* \"#utility.yul\":156:168   */\n  revert\n    /* \"#utility.yul\":118:170   */\ntag_17:\n    /* \"#utility.yul\":192:208   */\n  dup2\n  mload\n  sub(shl(0xa0, 0x01), 0x01)\n    /* \"#utility.yul\":237:268   */\n  dup2\n  and\n    /* \"#utility.yul\":227:269   */\n  dup2\n  eq\n    /* \"#utility.yul\":217:287   */\n  tag_18\n  jumpi\n    /* \"#utility.yul\":283:284   */\n  0x00\n    /* \"#utility.yul\":280:281   */\n  dup1\n    /* \"#utility.yul\":273:285   */\n  revert\n    /* \"#utility.yul\":217:287   */\ntag_18:\n    /* \"#utility.yul\":306:311   */\n  swap4\n    /* \"#utility.yul\":14:317   */\n  swap3\n  pop\n  pop\n  pop\n  jump\t// out\ntag_15:\n    /* \"Staking.sol\":241:15028  contract BillionCashStaking is Ownable {... */\n  dataSize(sub_0)\n  dup1\n  dataOffset(sub_0)\n  0x00\n  codecopy\n  0x00\n  return\nstop\n\nsub_0: assembly {\n        /* \"Staking.sol\":241:15028  contract BillionCashStaking is Ownable {... */\n      mstore(0x40, 0x80)\n      callvalue\n      dup1\n      iszero\n      tag_1\n      jumpi\n      0x00\n      dup1\n      revert\n    tag_1:\n      pop\n      jumpi(tag_2, lt(calldatasize, 0x04))\n      shr(0xe0, calldataload(0x00))\n      dup1\n      0x8da5cb5b\n      gt\n      tag_29\n      jumpi\n      dup1\n      0xc8a22eb4\n      gt\n      tag_30\n      jumpi\n      dup1\n      0xe85abe09\n      gt\n      tag_31\n      jumpi\n      dup1\n      0xe85abe09\n      eq\n      tag_25\n      jumpi\n      dup1\n      0xf2fde38b\n      eq\n      tag_26\n      jumpi\n      dup1\n      0xf69e2046\n      eq\n      tag_27\n      jumpi\n      dup1\n      0xfb4cb32b\n      eq\n      tag_28\n      jumpi\n      0x00\n      dup1\n      revert\n    tag_31:\n      dup1\n      0xc8a22eb4\n      eq\n      tag_22\n      jumpi\n      dup1\n      0xd6343867\n      eq\n      tag_23\n      jumpi\n      dup1\n      0xd7ffca91\n      eq\n      tag_24\n      jumpi\n      0x00\n      dup1\n      revert\n    tag_30:\n      dup1\n      0x8da5cb5b\n      eq\n      tag_16\n      jumpi\n      dup1\n      0x9f8a13d7\n      eq\n      tag_17\n      jumpi\n      dup1\n      0xa8aeb6c2\n      eq\n      tag_18\n      jumpi\n      dup1\n      0xadc9772e\n      eq\n      tag_19\n      jumpi\n      dup1\n      0xbff1f9e1\n      eq\n      tag_20\n      jumpi\n      dup1\n      0xc0806b03\n      eq\n      tag_21\n      jumpi\n      0x00\n      dup1\n      revert\n    tag_29:\n      dup1\n      0x36144c9a\n      gt\n      tag_32\n      jumpi\n      dup1\n      0x4e71d92d\n      gt\n      tag_33\n      jumpi\n      dup1\n      0x4e71d92d\n      eq\n      tag_12\n      jumpi\n      dup1\n      0x715018a6\n      eq\n      tag_13\n      jumpi\n      dup1\n      0x7e3abeea\n      eq\n      tag_14\n      jumpi\n      dup1\n      0x817b1cd2\n      eq\n      tag_15\n      jumpi\n      0x00\n      dup1\n      revert\n    tag_33:\n      dup1\n      0x36144c9a\n      eq\n      tag_9\n      jumpi\n      dup1\n      0x44038f90\n      eq\n      tag_10\n      jumpi\n      dup1\n      0x4b319713\n      eq\n      tag_11\n      jumpi\n      0x00\n      dup1\n      revert\n    tag_32:\n      dup1\n      0x0104db1b\n      eq\n      tag_3\n      jumpi\n      dup1\n      0x01c234a8\n      eq\n      tag_4\n      jumpi\n      dup1\n      0x040a772e\n      eq\n      tag_5\n      jumpi\n      dup1\n      0x141a2a3f\n      eq\n      tag_6\n      jumpi\n      dup1\n      0x153ab9df\n      eq\n      tag_7\n      jumpi\n      dup1\n      0x32bc298c\n      eq\n      tag_8\n      jumpi\n    tag_2:\n      0x00\n      dup1\n      revert\n        /* \"Staking.sol\":529:578  uint256 public constant STAKING_PERIOD = 180 days */\n    tag_3:\n      tag_34\n        /* \"Staking.sol\":570:578  180 days */\n      0xed4e00\n        /* \"Staking.sol\":529:578  uint256 public constant STAKING_PERIOD = 180 days */\n      dup2\n      jump\n    tag_34:\n      mload(0x40)\n        /* \"#utility.yul\":160:185   */\n      swap1\n      dup2\n      mstore\n        /* \"#utility.yul\":148:150   */\n      0x20\n        /* \"#utility.yul\":133:151   */\n      add\n        /* \"Staking.sol\":529:578  uint256 public constant STAKING_PERIOD = 180 days */\n    tag_36:\n      mload(0x40)\n      dup1\n      swap2\n      sub\n      swap1\n      return\n        /* \"Staking.sol\":322:369  uint256 public constant PERCENTS_DIVIDER = 1000 */\n    tag_4:\n      tag_34\n        /* \"Staking.sol\":365:369  1000 */\n      0x03e8\n        /* \"Staking.sol\":322:369  uint256 public constant PERCENTS_DIVIDER = 1000 */\n      dup2\n      jump\n        /* \"Staking.sol\":9648:12098  function getUserDividends(address userAddress)... */\n    tag_5:\n      tag_34\n      tag_42\n      calldatasize\n      0x04\n      tag_43\n      jump\t// in\n    tag_42:\n      tag_44\n      jump\t// in\n        /* \"Staking.sol\":376:419  uint256 public constant PERCENTS_DAILY = 15 */\n    tag_6:\n      tag_34\n        /* \"Staking.sol\":417:419  15 */\n      0x0f\n        /* \"Staking.sol\":376:419  uint256 public constant PERCENTS_DAILY = 15 */\n      dup2\n      jump\n        /* \"Staking.sol\":12798:13046  function getUserAvailable(address userAddress)... */\n    tag_7:\n      tag_34\n      tag_50\n      calldatasize\n      0x04\n      tag_43\n      jump\t// in\n    tag_50:\n      tag_51\n      jump\t// in\n        /* \"Staking.sol\":480:522  uint256 public constant TIME_STEP = 1 days */\n    tag_8:\n      tag_34\n        /* \"Staking.sol\":516:522  1 days */\n      0x015180\n        /* \"Staking.sol\":480:522  uint256 public constant TIME_STEP = 1 days */\n      dup2\n      jump\n        /* \"Staking.sol\":12456:12617  function getUserReferrer(address userAddress)... */\n    tag_9:\n      tag_56\n      tag_57\n      calldatasize\n      0x04\n      tag_43\n      jump\t// in\n    tag_57:\n      sub(shl(0xa0, 0x01), 0x01)\n        /* \"Staking.sol\":12582:12600  users[userAddress] */\n      swap1\n      dup2\n      and\n        /* \"Staking.sol\":12550:12557  address */\n      0x00\n        /* \"Staking.sol\":12582:12600  users[userAddress] */\n      swap1\n      dup2\n      mstore\n        /* \"Staking.sol\":12582:12587  users */\n      0x06\n        /* \"Staking.sol\":12582:12600  users[userAddress] */\n      0x20\n      mstore\n      0x40\n      swap1\n      keccak256\n        /* \"Staking.sol\":12582:12609  users[userAddress].referrer */\n      0x04\n      add\n      sload\n      and\n      swap1\n        /* \"Staking.sol\":12456:12617  function getUserReferrer(address userAddress)... */\n      jump\n    tag_56:\n      mload(0x40)\n      sub(shl(0xa0, 0x01), 0x01)\n        /* \"#utility.yul\":729:761   */\n      swap1\n      swap2\n      and\n        /* \"#utility.yul\":711:762   */\n      dup2\n      mstore\n        /* \"#utility.yul\":699:701   */\n      0x20\n        /* \"#utility.yul\":684:702   */\n      add\n        /* \"Staking.sol\":12456:12617  function getUserReferrer(address userAddress)... */\n      tag_36\n        /* \"#utility.yul\":565:768   */\n      jump\n        /* \"Staking.sol\":426:473  uint256 public constant REFERRAL_PERCENTS = 120 */\n    tag_10:\n      tag_34\n        /* \"Staking.sol\":470:473  120 */\n      0x78\n        /* \"Staking.sol\":426:473  uint256 public constant REFERRAL_PERCENTS = 120 */\n      dup2\n      jump\n        /* \"Staking.sol\":669:698  uint256 public totalWithdrawn */\n    tag_11:\n      tag_34\n      sload(0x04)\n      dup2\n      jump\n        /* \"Staking.sol\":3138:6370  function claim() public {... */\n    tag_12:\n      tag_67\n      tag_68\n      jump\t// in\n    tag_67:\n      stop\n        /* \"@openzeppelin/contracts/access/Ownable.sol\":1668:1769  function renounceOwnership() public virtual onlyOwner {... */\n    tag_13:\n      tag_67\n      tag_70\n      jump\t// in\n        /* \"Staking.sol\":14299:14656  function getUserTotalDeposits(address userAddress)... */\n    tag_14:\n      tag_34\n      tag_72\n      calldatasize\n      0x04\n      tag_43\n      jump\t// in\n    tag_72:\n      tag_73\n      jump\t// in\n        /* \"Staking.sol\":636:662  uint256 public totalStaked */\n    tag_15:\n      tag_34\n      sload(0x03)\n      dup2\n      jump\n        /* \"@openzeppelin/contracts/access/Ownable.sol\":1036:1121  function owner() public view virtual returns (address) {... */\n    tag_16:\n        /* \"@openzeppelin/contracts/access/Ownable.sol\":1082:1089  address */\n      0x00\n        /* \"@openzeppelin/contracts/access/Ownable.sol\":1108:1114  _owner */\n      sload\n      sub(shl(0xa0, 0x01), 0x01)\n      and\n        /* \"@openzeppelin/contracts/access/Ownable.sol\":1036:1121  function owner() public view virtual returns (address) {... */\n      jump(tag_56)\n        /* \"Staking.sol\":13054:13560  function isActive(address userAddress) public view returns (bool) {... */\n    tag_17:\n      tag_81\n      tag_82\n      calldatasize\n      0x04\n      tag_43\n      jump\t// in\n    tag_82:\n      tag_83\n      jump\t// in\n    tag_81:\n      mload(0x40)\n        /* \"#utility.yul\":938:952   */\n      swap1\n      iszero\n        /* \"#utility.yul\":931:953   */\n      iszero\n        /* \"#utility.yul\":913:954   */\n      dup2\n      mstore\n        /* \"#utility.yul\":901:903   */\n      0x20\n        /* \"#utility.yul\":886:904   */\n      add\n        /* \"Staking.sol\":13054:13560  function isActive(address userAddress) public view returns (bool) {... */\n      tag_36\n        /* \"#utility.yul\":773:960   */\n      jump\n        /* \"Staking.sol\":14115:14291  function getUserAmountOfDeposits(address userAddress)... */\n    tag_18:\n      tag_34\n      tag_87\n      calldatasize\n      0x04\n      tag_43\n      jump\t// in\n    tag_87:\n      sub(shl(0xa0, 0x01), 0x01)\n        /* \"Staking.sol\":14249:14267  users[userAddress] */\n      and\n        /* \"Staking.sol\":14217:14224  uint256 */\n      0x00\n        /* \"Staking.sol\":14249:14267  users[userAddress] */\n      swap1\n      dup2\n      mstore\n        /* \"Staking.sol\":14249:14254  users */\n      0x06\n        /* \"Staking.sol\":14249:14267  users[userAddress] */\n      0x20\n      mstore\n      0x40\n      swap1\n      keccak256\n        /* \"Staking.sol\":14249:14283  users[userAddress].deposits.length */\n      sload\n      swap1\n        /* \"Staking.sol\":14115:14291  function getUserAmountOfDeposits(address userAddress)... */\n      jump\n        /* \"Staking.sol\":1693:3130  function stake(address referrer, uint256 amount) public {... */\n    tag_19:\n      tag_67\n      tag_91\n      calldatasize\n      0x04\n      tag_92\n      jump\t// in\n    tag_91:\n      tag_93\n      jump\t// in\n        /* \"Staking.sol\":604:629  uint256 public totalUsers */\n    tag_20:\n      tag_34\n      sload(0x02)\n      dup2\n      jump\n        /* \"Staking.sol\":13568:14107  function getUserDepositInfo(address userAddress, uint256 index)... */\n    tag_21:\n      tag_97\n      tag_98\n      calldatasize\n      0x04\n      tag_92\n      jump\t// in\n    tag_98:\n      tag_99\n      jump\t// in\n    tag_97:\n      0x40\n      dup1\n      mload\n        /* \"#utility.yul\":1477:1502   */\n      swap6\n      dup7\n      mstore\n        /* \"#utility.yul\":1533:1535   */\n      0x20\n        /* \"#utility.yul\":1518:1536   */\n      dup7\n      add\n        /* \"#utility.yul\":1511:1545   */\n      swap5\n      swap1\n      swap5\n      mstore\n        /* \"#utility.yul\":1561:1579   */\n      swap3\n      dup5\n      add\n        /* \"#utility.yul\":1554:1588   */\n      swap2\n      swap1\n      swap2\n      mstore\n        /* \"#utility.yul\":1619:1621   */\n      0x60\n        /* \"#utility.yul\":1604:1622   */\n      dup4\n      add\n        /* \"#utility.yul\":1597:1631   */\n      mstore\n        /* \"#utility.yul\":1675:1689   */\n      iszero\n        /* \"#utility.yul\":1668:1690   */\n      iszero\n        /* \"#utility.yul\":1662:1665   */\n      0x80\n        /* \"#utility.yul\":1647:1666   */\n      dup3\n      add\n        /* \"#utility.yul\":1640:1691   */\n      mstore\n        /* \"#utility.yul\":1464:1467   */\n      0xa0\n        /* \"#utility.yul\":1449:1468   */\n      add\n        /* \"Staking.sol\":13568:14107  function getUserDepositInfo(address userAddress, uint256 index)... */\n      tag_36\n        /* \"#utility.yul\":1224:1697   */\n      jump\n        /* \"Staking.sol\":12277:12448  function getUserReferralCount(address userAddress)... */\n    tag_22:\n      tag_34\n      tag_103\n      calldatasize\n      0x04\n      tag_43\n      jump\t// in\n    tag_103:\n      sub(shl(0xa0, 0x01), 0x01)\n        /* \"Staking.sol\":12408:12426  users[userAddress] */\n      and\n        /* \"Staking.sol\":12376:12383  uint256 */\n      0x00\n        /* \"Staking.sol\":12408:12426  users[userAddress] */\n      swap1\n      dup2\n      mstore\n        /* \"Staking.sol\":12408:12413  users */\n      0x06\n        /* \"Staking.sol\":12408:12426  users[userAddress] */\n      0x20\n      mstore\n      0x40\n      swap1\n      keccak256\n        /* \"Staking.sol\":12408:12440  users[userAddress].referralCount */\n      0x03\n      add\n      sload\n      swap1\n        /* \"Staking.sol\":12277:12448  function getUserReferralCount(address userAddress)... */\n      jump\n        /* \"Staking.sol\":705:737  uint256 public totalDepositCount */\n    tag_23:\n      tag_34\n      sload(0x05)\n      dup2\n      jump\n        /* \"Staking.sol\":12625:12790  function getUserCheckpoint(address userAddress)... */\n    tag_24:\n      tag_34\n      tag_110\n      calldatasize\n      0x04\n      tag_43\n      jump\t// in\n    tag_110:\n      sub(shl(0xa0, 0x01), 0x01)\n        /* \"Staking.sol\":12753:12771  users[userAddress] */\n      and\n        /* \"Staking.sol\":12721:12728  uint256 */\n      0x00\n        /* \"Staking.sol\":12753:12771  users[userAddress] */\n      swap1\n      dup2\n      mstore\n        /* \"Staking.sol\":12753:12758  users */\n      0x06\n        /* \"Staking.sol\":12753:12771  users[userAddress] */\n      0x20\n      mstore\n      0x40\n      swap1\n      keccak256\n        /* \"Staking.sol\":12753:12782  users[userAddress].checkpoint */\n      0x01\n      add\n      sload\n      swap1\n        /* \"Staking.sol\":12625:12790  function getUserCheckpoint(address userAddress)... */\n      jump\n        /* \"Staking.sol\":12106:12269  function getUserReferralBonus(address userAddress)... */\n    tag_25:\n      tag_34\n      tag_114\n      calldatasize\n      0x04\n      tag_43\n      jump\t// in\n    tag_114:\n      sub(shl(0xa0, 0x01), 0x01)\n        /* \"Staking.sol\":12237:12255  users[userAddress] */\n      and\n        /* \"Staking.sol\":12205:12212  uint256 */\n      0x00\n        /* \"Staking.sol\":12237:12255  users[userAddress] */\n      swap1\n      dup2\n      mstore\n        /* \"Staking.sol\":12237:12242  users */\n      0x06\n        /* \"Staking.sol\":12237:12255  users[userAddress] */\n      0x20\n      mstore\n      0x40\n      swap1\n      keccak256\n        /* \"Staking.sol\":12237:12261  users[userAddress].bonus */\n      0x02\n      add\n      sload\n      swap1\n        /* \"Staking.sol\":12106:12269  function getUserReferralBonus(address userAddress)... */\n      jump\n        /* \"@openzeppelin/contracts/access/Ownable.sol\":1918:2116  function transferOwnership(address newOwner) public virtual onlyOwner {... */\n    tag_26:\n      tag_67\n      tag_118\n      calldatasize\n      0x04\n      tag_43\n      jump\t// in\n    tag_118:\n      tag_119\n      jump\t// in\n        /* \"Staking.sol\":6378:9640  function compound() public onlyhodler {... */\n    tag_27:\n      tag_67\n      tag_121\n      jump\t// in\n        /* \"Staking.sol\":14664:15025  function getUserTotalWithdrawn(address userAddress)... */\n    tag_28:\n      tag_34\n      tag_123\n      calldatasize\n      0x04\n      tag_43\n      jump\t// in\n    tag_123:\n      tag_124\n      jump\t// in\n        /* \"Staking.sol\":9648:12098  function getUserDividends(address userAddress)... */\n    tag_44:\n      sub(shl(0xa0, 0x01), 0x01)\n        /* \"Staking.sol\":9788:9806  users[userAddress] */\n      dup2\n      and\n        /* \"Staking.sol\":9743:9750  uint256 */\n      0x00\n        /* \"Staking.sol\":9788:9806  users[userAddress] */\n      swap1\n      dup2\n      mstore\n        /* \"Staking.sol\":9788:9793  users */\n      0x06\n        /* \"Staking.sol\":9788:9806  users[userAddress] */\n      0x20\n      mstore\n      0x40\n      dup2\n      keccak256\n        /* \"Staking.sol\":9743:9750  uint256 */\n      dup2\n      dup1\n      dup1\n        /* \"Staking.sol\":9882:12057  for (uint256 i = 0; i < user.deposits.length; i++) {... */\n    tag_127:\n        /* \"Staking.sol\":9906:9926  user.deposits.length */\n      dup4\n      sload\n        /* \"Staking.sol\":9902:9926  i < user.deposits.length */\n      dup2\n      lt\n        /* \"Staking.sol\":9882:12057  for (uint256 i = 0; i < user.deposits.length; i++) {... */\n      iszero\n      tag_128\n      jumpi\n        /* \"Staking.sol\":9952:9956  user */\n      dup4\n        /* \"Staking.sol\":9952:9965  user.deposits */\n      0x00\n      add\n        /* \"Staking.sol\":9966:9967  i */\n      dup2\n        /* \"Staking.sol\":9952:9968  user.deposits[i] */\n      dup2\n      sload\n      dup2\n      lt\n      tag_131\n      jumpi\n      tag_131\n      tag_132\n      jump\t// in\n    tag_131:\n      0x00\n      swap2\n      dup3\n      mstore\n      0x20\n      swap1\n      swap2\n      keccak256\n        /* \"Staking.sol\":9952:9974  user.deposits[i].ended */\n      0x04\n        /* \"Staking.sol\":9952:9968  user.deposits[i] */\n      0x05\n      swap1\n      swap3\n      mul\n      add\n        /* \"Staking.sol\":9952:9974  user.deposits[i].ended */\n      add\n      sload\n      0xff\n      and\n        /* \"Staking.sol\":9948:12046  if (user.deposits[i].ended == false) {... */\n      tag_134\n      jumpi\n        /* \"Staking.sol\":10035:10050  block.timestamp */\n      timestamp\n        /* \"Staking.sol\":10008:10012  user */\n      dup5\n        /* \"Staking.sol\":10008:10021  user.deposits */\n      0x00\n      add\n        /* \"Staking.sol\":10022:10023  i */\n      dup3\n        /* \"Staking.sol\":10008:10024  user.deposits[i] */\n      dup2\n      sload\n      dup2\n      lt\n      tag_136\n      jumpi\n      tag_136\n      tag_132\n      jump\t// in\n    tag_136:\n      swap1\n      0x00\n      mstore\n      keccak256(0x00, 0x20)\n      swap1\n      0x05\n      mul\n      add\n        /* \"Staking.sol\":10008:10032  user.deposits[i].endTime */\n      0x03\n      add\n      sload\n        /* \"Staking.sol\":10008:10050  user.deposits[i].endTime > block.timestamp */\n      gt\n        /* \"Staking.sol\":10004:11966  if (user.deposits[i].endTime > block.timestamp) {... */\n      iszero\n      tag_138\n      jumpi\n        /* \"Staking.sol\":10108:10112  user */\n      dup4\n        /* \"Staking.sol\":10108:10123  user.checkpoint */\n      0x01\n      add\n      sload\n        /* \"Staking.sol\":10079:10083  user */\n      dup5\n        /* \"Staking.sol\":10079:10092  user.deposits */\n      0x00\n      add\n        /* \"Staking.sol\":10093:10094  i */\n      dup3\n        /* \"Staking.sol\":10079:10095  user.deposits[i] */\n      dup2\n      sload\n      dup2\n      lt\n      tag_140\n      jumpi\n      tag_140\n      tag_132\n      jump\t// in\n    tag_140:\n      swap1\n      0x00\n      mstore\n      keccak256(0x00, 0x20)\n      swap1\n      0x05\n      mul\n      add\n        /* \"Staking.sol\":10079:10105  user.deposits[i].startTime */\n      0x02\n      add\n      sload\n        /* \"Staking.sol\":10079:10123  user.deposits[i].startTime > user.checkpoint */\n      gt\n        /* \"Staking.sol\":10075:10944  if (user.deposits[i].startTime > user.checkpoint) {... */\n      iszero\n      tag_142\n      jumpi\n        /* \"Staking.sol\":10164:10543  (... */\n      tag_143\n        /* \"Staking.sol\":516:522  1 days */\n      0x015180\n        /* \"Staking.sol\":10164:10498  (... */\n      tag_151\n        /* \"Staking.sol\":10420:10467  block.timestamp.sub(user.deposits[i].startTime) */\n      tag_145\n        /* \"Staking.sol\":10440:10444  user */\n      dup8\n        /* \"Staking.sol\":10440:10453  user.deposits */\n      0x00\n      add\n        /* \"Staking.sol\":10454:10455  i */\n      dup6\n        /* \"Staking.sol\":10440:10456  user.deposits[i] */\n      dup2\n      sload\n      dup2\n      lt\n      tag_147\n      jumpi\n      tag_147\n      tag_132\n      jump\t// in\n    tag_147:\n      swap1\n      0x00\n      mstore\n      keccak256(0x00, 0x20)\n      swap1\n      0x05\n      mul\n      add\n        /* \"Staking.sol\":10440:10466  user.deposits[i].startTime */\n      0x02\n      add\n      sload\n        /* \"Staking.sol\":10420:10435  block.timestamp */\n      timestamp\n        /* \"Staking.sol\":10420:10439  block.timestamp.sub */\n      tag_149\n      swap1\n        /* \"Staking.sol\":10420:10467  block.timestamp.sub(user.deposits[i].startTime) */\n      swap2\n      swap1\n      0xffffffff\n      and\n      jump\t// in\n    tag_145:\n        /* \"Staking.sol\":10195:10324  user.deposits[i].amount.mul(PERCENTS_DAILY).div(... */\n      tag_150\n        /* \"Staking.sol\":365:369  1000 */\n      0x03e8\n        /* \"Staking.sol\":10195:10238  user.deposits[i].amount.mul(PERCENTS_DAILY) */\n      tag_151\n        /* \"Staking.sol\":417:419  15 */\n      0x0f\n        /* \"Staking.sol\":10195:10199  user */\n      dup12\n        /* \"Staking.sol\":10195:10208  user.deposits */\n      0x00\n      add\n        /* \"Staking.sol\":10209:10210  i */\n      dup10\n        /* \"Staking.sol\":10195:10211  user.deposits[i] */\n      dup2\n      sload\n      dup2\n      lt\n      tag_153\n      jumpi\n      tag_153\n      tag_132\n      jump\t// in\n    tag_153:\n      0x00\n      swap2\n      dup3\n      mstore\n      0x20\n      swap1\n      swap2\n      keccak256\n      0x05\n      swap1\n      swap2\n      mul\n      add\n        /* \"Staking.sol\":10195:10218  user.deposits[i].amount */\n      sload\n      swap1\n        /* \"Staking.sol\":10195:10222  user.deposits[i].amount.mul */\n      tag_155\n        /* \"Staking.sol\":10195:10238  user.deposits[i].amount.mul(PERCENTS_DAILY) */\n      jump\t// in\n    tag_151:\n        /* \"Staking.sol\":10195:10242  user.deposits[i].amount.mul(PERCENTS_DAILY).div */\n      swap1\n      tag_156\n        /* \"Staking.sol\":10195:10324  user.deposits[i].amount.mul(PERCENTS_DAILY).div(... */\n      jump\t// in\n    tag_150:\n        /* \"Staking.sol\":10164:10385  (... */\n      swap1\n      tag_155\n        /* \"Staking.sol\":10164:10498  (... */\n      jump\t// in\n        /* \"Staking.sol\":10164:10543  (... */\n    tag_143:\n        /* \"Staking.sol\":10152:10543  dividends = (... */\n      swap2\n      pop\n        /* \"Staking.sol\":10004:11966  if (user.deposits[i].endTime > block.timestamp) {... */\n      jump(tag_185)\n        /* \"Staking.sol\":10075:10944  if (user.deposits[i].startTime > user.checkpoint) {... */\n    tag_142:\n        /* \"Staking.sol\":10612:10920  (... */\n      tag_143\n        /* \"Staking.sol\":516:522  1 days */\n      0x015180\n        /* \"Staking.sol\":10612:10841  (... */\n      tag_151\n        /* \"Staking.sol\":10804:10840  block.timestamp.sub(user.checkpoint) */\n      tag_145\n        /* \"Staking.sol\":10824:10828  user */\n      dup8\n        /* \"Staking.sol\":10824:10839  user.checkpoint */\n      0x01\n      add\n      sload\n        /* \"Staking.sol\":10804:10819  block.timestamp */\n      timestamp\n        /* \"Staking.sol\":10804:10823  block.timestamp.sub */\n      tag_149\n      swap1\n        /* \"Staking.sol\":10804:10840  block.timestamp.sub(user.checkpoint) */\n      swap2\n      swap1\n      0xffffffff\n      and\n      jump\t// in\n        /* \"Staking.sol\":10004:11966  if (user.deposits[i].endTime > block.timestamp) {... */\n    tag_138:\n        /* \"Staking.sol\":11025:11029  user */\n      dup4\n        /* \"Staking.sol\":11025:11040  user.checkpoint */\n      0x01\n      add\n      sload\n        /* \"Staking.sol\":10996:11000  user */\n      dup5\n        /* \"Staking.sol\":10996:11009  user.deposits */\n      0x00\n      add\n        /* \"Staking.sol\":11010:11011  i */\n      dup3\n        /* \"Staking.sol\":10996:11012  user.deposits[i] */\n      dup2\n      sload\n      dup2\n      lt\n      tag_168\n      jumpi\n      tag_168\n      tag_132\n      jump\t// in\n    tag_168:\n      swap1\n      0x00\n      mstore\n      keccak256(0x00, 0x20)\n      swap1\n      0x05\n      mul\n      add\n        /* \"Staking.sol\":10996:11022  user.deposits[i].startTime */\n      0x02\n      add\n      sload\n        /* \"Staking.sol\":10996:11040  user.deposits[i].startTime > user.checkpoint */\n      gt\n        /* \"Staking.sol\":10992:11947  if (user.deposits[i].startTime > user.checkpoint) {... */\n      iszero\n      tag_170\n      jumpi\n        /* \"Staking.sol\":11081:11541  (... */\n      tag_143\n        /* \"Staking.sol\":516:522  1 days */\n      0x015180\n        /* \"Staking.sol\":11081:11496  (... */\n      tag_151\n        /* \"Staking.sol\":11337:11465  user.deposits[i].endTime.sub(... */\n      tag_145\n        /* \"Staking.sol\":11404:11408  user */\n      dup8\n        /* \"Staking.sol\":11404:11417  user.deposits */\n      0x00\n      add\n        /* \"Staking.sol\":11418:11419  i */\n      dup6\n        /* \"Staking.sol\":11404:11420  user.deposits[i] */\n      dup2\n      sload\n      dup2\n      lt\n      tag_175\n      jumpi\n      tag_175\n      tag_132\n      jump\t// in\n    tag_175:\n      swap1\n      0x00\n      mstore\n      keccak256(0x00, 0x20)\n      swap1\n      0x05\n      mul\n      add\n        /* \"Staking.sol\":11404:11430  user.deposits[i].startTime */\n      0x02\n      add\n      sload\n        /* \"Staking.sol\":11337:11341  user */\n      dup9\n        /* \"Staking.sol\":11337:11350  user.deposits */\n      0x00\n      add\n        /* \"Staking.sol\":11351:11352  i */\n      dup7\n        /* \"Staking.sol\":11337:11353  user.deposits[i] */\n      dup2\n      sload\n      dup2\n      lt\n      tag_178\n      jumpi\n      tag_178\n      tag_132\n      jump\t// in\n    tag_178:\n      swap1\n      0x00\n      mstore\n      keccak256(0x00, 0x20)\n      swap1\n      0x05\n      mul\n      add\n        /* \"Staking.sol\":11337:11361  user.deposits[i].endTime */\n      0x03\n      add\n      sload\n        /* \"Staking.sol\":11337:11365  user.deposits[i].endTime.sub */\n      tag_149\n      swap1\n        /* \"Staking.sol\":11337:11465  user.deposits[i].endTime.sub(... */\n      swap2\n      swap1\n      0xffffffff\n      and\n      jump\t// in\n        /* \"Staking.sol\":10992:11947  if (user.deposits[i].startTime > user.checkpoint) {... */\n    tag_170:\n        /* \"Staking.sol\":11610:11923  (... */\n      tag_186\n        /* \"Staking.sol\":516:522  1 days */\n      0x015180\n        /* \"Staking.sol\":11610:11878  (... */\n      tag_151\n        /* \"Staking.sol\":11832:11877  user.deposits[i].endTime.sub(user.checkpoint) */\n      tag_145\n        /* \"Staking.sol\":11861:11865  user */\n      dup8\n        /* \"Staking.sol\":11861:11876  user.checkpoint */\n      0x01\n      add\n      sload\n        /* \"Staking.sol\":11832:11836  user */\n      dup9\n        /* \"Staking.sol\":11832:11845  user.deposits */\n      0x00\n      add\n        /* \"Staking.sol\":11846:11847  i */\n      dup7\n        /* \"Staking.sol\":11832:11848  user.deposits[i] */\n      dup2\n      sload\n      dup2\n      lt\n      tag_178\n      jumpi\n      tag_178\n      tag_132\n      jump\t// in\n        /* \"Staking.sol\":11610:11923  (... */\n    tag_186:\n        /* \"Staking.sol\":11598:11923  dividends = (... */\n      swap2\n      pop\n        /* \"Staking.sol\":10992:11947  if (user.deposits[i].startTime > user.checkpoint) {... */\n    tag_185:\n        /* \"Staking.sol\":12001:12030  totalDividends.add(dividends) */\n      tag_197\n        /* \"Staking.sol\":12001:12015  totalDividends */\n      dup4\n        /* \"Staking.sol\":12020:12029  dividends */\n      dup4\n        /* \"Staking.sol\":12001:12019  totalDividends.add */\n      tag_198\n        /* \"Staking.sol\":12001:12030  totalDividends.add(dividends) */\n      jump\t// in\n    tag_197:\n        /* \"Staking.sol\":11984:12030  totalDividends = totalDividends.add(dividends) */\n      swap3\n      pop\n        /* \"Staking.sol\":9948:12046  if (user.deposits[i].ended == false) {... */\n    tag_134:\n        /* \"Staking.sol\":9928:9931  i++ */\n      dup1\n      tag_199\n      dup2\n      tag_200\n      jump\t// in\n    tag_199:\n      swap2\n      pop\n      pop\n        /* \"Staking.sol\":9882:12057  for (uint256 i = 0; i < user.deposits.length; i++) {... */\n      jump(tag_127)\n    tag_128:\n      pop\n        /* \"Staking.sol\":12076:12090  totalDividends */\n      swap1\n      swap5\n        /* \"Staking.sol\":9648:12098  function getUserDividends(address userAddress)... */\n      swap4\n      pop\n      pop\n      pop\n      pop\n      jump\t// out\n        /* \"Staking.sol\":12798:13046  function getUserAvailable(address userAddress)... */\n    tag_51:\n        /* \"Staking.sol\":12893:12900  uint256 */\n      0x00\n        /* \"Staking.sol\":12938:13038  getUserReferralBonus(userAddress).add(... */\n      tag_202\n        /* \"Staking.sol\":12994:13023  getUserDividends(userAddress) */\n      tag_203\n        /* \"Staking.sol\":13011:13022  userAddress */\n      dup4\n        /* \"Staking.sol\":12994:13010  getUserDividends */\n      tag_44\n        /* \"Staking.sol\":12994:13023  getUserDividends(userAddress) */\n      jump\t// in\n    tag_203:\n      sub(shl(0xa0, 0x01), 0x01)\n        /* \"Staking.sol\":12237:12255  users[userAddress] */\n      dup5\n      and\n        /* \"Staking.sol\":12205:12212  uint256 */\n      0x00\n        /* \"Staking.sol\":12237:12255  users[userAddress] */\n      swap1\n      dup2\n      mstore\n        /* \"Staking.sol\":12237:12242  users */\n      0x06\n        /* \"Staking.sol\":12237:12255  users[userAddress] */\n      0x20\n      mstore\n      0x40\n      swap1\n      keccak256\n        /* \"Staking.sol\":12237:12261  users[userAddress].bonus */\n      0x02\n      add\n      sload\n        /* \"Staking.sol\":12938:12975  getUserReferralBonus(userAddress).add */\n      swap1\n      tag_198\n        /* \"Staking.sol\":12938:13038  getUserReferralBonus(userAddress).add(... */\n      jump\t// in\n    tag_202:\n        /* \"Staking.sol\":12918:13038  return... */\n      swap3\n        /* \"Staking.sol\":12798:13046  function getUserAvailable(address userAddress)... */\n      swap2\n      pop\n      pop\n      jump\t// out\n        /* \"Staking.sol\":3138:6370  function claim() public {... */\n    tag_68:\n        /* \"Staking.sol\":3199:3209  msg.sender */\n      caller\n        /* \"Staking.sol\":3173:3190  User storage user */\n      0x00\n        /* \"Staking.sol\":3193:3210  users[msg.sender] */\n      swap1\n      dup2\n      mstore\n        /* \"Staking.sol\":3193:3198  users */\n      0x06\n        /* \"Staking.sol\":3193:3210  users[msg.sender] */\n      0x20\n      mstore\n      0x40\n      dup2\n      keccak256\n      swap1\n        /* \"Staking.sol\":3173:3190  User storage user */\n      dup1\n      dup1\n        /* \"Staking.sol\":3283:5724  for (uint256 i = 0; i < user.deposits.length; i++) {... */\n    tag_207:\n        /* \"Staking.sol\":3307:3327  user.deposits.length */\n      dup4\n      sload\n        /* \"Staking.sol\":3303:3327  i < user.deposits.length */\n      dup2\n      lt\n        /* \"Staking.sol\":3283:5724  for (uint256 i = 0; i < user.deposits.length; i++) {... */\n      iszero\n      tag_208\n      jumpi\n        /* \"Staking.sol\":3353:3357  user */\n      dup4\n        /* \"Staking.sol\":3353:3366  user.deposits */\n      0x00\n      add\n        /* \"Staking.sol\":3367:3368  i */\n      dup2\n        /* \"Staking.sol\":3353:3369  user.deposits[i] */\n      dup2\n      sload\n      dup2\n      lt\n      tag_211\n      jumpi\n      tag_211\n      tag_132\n      jump\t// in\n    tag_211:\n      0x00\n      swap2\n      dup3\n      mstore\n      0x20\n      swap1\n      swap2\n      keccak256\n        /* \"Staking.sol\":3353:3375  user.deposits[i].ended */\n      0x04\n        /* \"Staking.sol\":3353:3369  user.deposits[i] */\n      0x05\n      swap1\n      swap3\n      mul\n      add\n        /* \"Staking.sol\":3353:3375  user.deposits[i].ended */\n      add\n      sload\n      0xff\n      and\n        /* \"Staking.sol\":3349:5713  if (user.deposits[i].ended == false) {... */\n      tag_213\n      jumpi\n        /* \"Staking.sol\":3436:3451  block.timestamp */\n      timestamp\n        /* \"Staking.sol\":3409:3413  user */\n      dup5\n        /* \"Staking.sol\":3409:3422  user.deposits */\n      0x00\n      add\n        /* \"Staking.sol\":3423:3424  i */\n      dup3\n        /* \"Staking.sol\":3409:3425  user.deposits[i] */\n      dup2\n      sload\n      dup2\n      lt\n      tag_215\n      jumpi\n      tag_215\n      tag_132\n      jump\t// in\n    tag_215:\n      swap1\n      0x00\n      mstore\n      keccak256(0x00, 0x20)\n      swap1\n      0x05\n      mul\n      add\n        /* \"Staking.sol\":3409:3433  user.deposits[i].endTime */\n      0x03\n      add\n      sload\n        /* \"Staking.sol\":3409:3451  user.deposits[i].endTime > block.timestamp */\n      gt\n        /* \"Staking.sol\":3405:5479  if (user.deposits[i].endTime > block.timestamp) {... */\n      iszero\n      tag_217\n      jumpi\n        /* \"Staking.sol\":3509:3513  user */\n      dup4\n        /* \"Staking.sol\":3509:3524  user.checkpoint */\n      0x01\n      add\n      sload\n        /* \"Staking.sol\":3480:3484  user */\n      dup5\n        /* \"Staking.sol\":3480:3493  user.deposits */\n      0x00\n      add\n        /* \"Staking.sol\":3494:3495  i */\n      dup3\n        /* \"Staking.sol\":3480:3496  user.deposits[i] */\n      dup2\n      sload\n      dup2\n      lt\n      tag_219\n      jumpi\n      tag_219\n      tag_132\n      jump\t// in\n    tag_219:\n      swap1\n      0x00\n      mstore\n      keccak256(0x00, 0x20)\n      swap1\n      0x05\n      mul\n      add\n        /* \"Staking.sol\":3480:3506  user.deposits[i].startTime */\n      0x02\n      add\n      sload\n        /* \"Staking.sol\":3480:3524  user.deposits[i].startTime > user.checkpoint */\n      gt\n        /* \"Staking.sol\":3476:4345  if (user.deposits[i].startTime > user.checkpoint) {... */\n      iszero\n      tag_221\n      jumpi\n        /* \"Staking.sol\":3565:3944  (... */\n      tag_222\n        /* \"Staking.sol\":516:522  1 days */\n      0x015180\n        /* \"Staking.sol\":3565:3899  (... */\n      tag_151\n        /* \"Staking.sol\":3821:3868  block.timestamp.sub(user.deposits[i].startTime) */\n      tag_145\n        /* \"Staking.sol\":3841:3845  user */\n      dup8\n        /* \"Staking.sol\":3841:3854  user.deposits */\n      0x00\n      add\n        /* \"Staking.sol\":3855:3856  i */\n      dup6\n        /* \"Staking.sol\":3841:3857  user.deposits[i] */\n      dup2\n      sload\n      dup2\n      lt\n      tag_147\n      jumpi\n      tag_147\n      tag_132\n      jump\t// in\n        /* \"Staking.sol\":3565:3944  (... */\n    tag_222:\n        /* \"Staking.sol\":3553:3944  dividends = (... */\n      swap2\n      pop\n        /* \"Staking.sol\":3405:5479  if (user.deposits[i].endTime > block.timestamp) {... */\n      jump(tag_264)\n        /* \"Staking.sol\":3476:4345  if (user.deposits[i].startTime > user.checkpoint) {... */\n    tag_221:\n        /* \"Staking.sol\":4013:4321  (... */\n      tag_222\n        /* \"Staking.sol\":516:522  1 days */\n      0x015180\n        /* \"Staking.sol\":4013:4242  (... */\n      tag_151\n        /* \"Staking.sol\":4205:4241  block.timestamp.sub(user.checkpoint) */\n      tag_145\n        /* \"Staking.sol\":4225:4229  user */\n      dup8\n        /* \"Staking.sol\":4225:4240  user.checkpoint */\n      0x01\n      add\n      sload\n        /* \"Staking.sol\":4205:4220  block.timestamp */\n      timestamp\n        /* \"Staking.sol\":4205:4224  block.timestamp.sub */\n      tag_149\n      swap1\n        /* \"Staking.sol\":4205:4241  block.timestamp.sub(user.checkpoint) */\n      swap2\n      swap1\n      0xffffffff\n      and\n      jump\t// in\n        /* \"Staking.sol\":3405:5479  if (user.deposits[i].endTime > block.timestamp) {... */\n    tag_217:\n        /* \"Staking.sol\":4426:4430  user */\n      dup4\n        /* \"Staking.sol\":4426:4441  user.checkpoint */\n      0x01\n      add\n      sload\n        /* \"Staking.sol\":4397:4401  user */\n      dup5\n        /* \"Staking.sol\":4397:4410  user.deposits */\n      0x00\n      add\n        /* \"Staking.sol\":4411:4412  i */\n      dup3\n        /* \"Staking.sol\":4397:4413  user.deposits[i] */\n      dup2\n      sload\n      dup2\n      lt\n      tag_244\n      jumpi\n      tag_244\n      tag_132\n      jump\t// in\n    tag_244:\n      swap1\n      0x00\n      mstore\n      keccak256(0x00, 0x20)\n      swap1\n      0x05\n      mul\n      add\n        /* \"Staking.sol\":4397:4423  user.deposits[i].startTime */\n      0x02\n      add\n      sload\n        /* \"Staking.sol\":4397:4441  user.deposits[i].startTime > user.checkpoint */\n      gt\n        /* \"Staking.sol\":4393:5460  if (user.deposits[i].startTime > user.checkpoint) {... */\n      iszero\n      tag_246\n      jumpi\n        /* \"Staking.sol\":4482:4942  (... */\n      tag_247\n        /* \"Staking.sol\":516:522  1 days */\n      0x015180\n        /* \"Staking.sol\":4482:4897  (... */\n      tag_151\n        /* \"Staking.sol\":4738:4866  user.deposits[i].endTime.sub(... */\n      tag_145\n        /* \"Staking.sol\":4805:4809  user */\n      dup8\n        /* \"Staking.sol\":4805:4818  user.deposits */\n      0x00\n      add\n        /* \"Staking.sol\":4819:4820  i */\n      dup6\n        /* \"Staking.sol\":4805:4821  user.deposits[i] */\n      dup2\n      sload\n      dup2\n      lt\n      tag_175\n      jumpi\n      tag_175\n      tag_132\n      jump\t// in\n        /* \"Staking.sol\":4482:4942  (... */\n    tag_247:\n        /* \"Staking.sol\":4470:4942  dividends = (... */\n      swap2\n      pop\n        /* \"Staking.sol\":4994:4998  true */\n      0x01\n        /* \"Staking.sol\":4969:4973  user */\n      dup5\n        /* \"Staking.sol\":4969:4982  user.deposits */\n      0x00\n      add\n        /* \"Staking.sol\":4983:4984  i */\n      dup3\n        /* \"Staking.sol\":4969:4985  user.deposits[i] */\n      dup2\n      sload\n      dup2\n      lt\n      tag_262\n      jumpi\n      tag_262\n      tag_132\n      jump\t// in\n    tag_262:\n      0x00\n      swap2\n      dup3\n      mstore\n      0x20\n      swap1\n      swap2\n      keccak256\n      0x05\n      swap1\n      swap2\n      mul\n      add\n        /* \"Staking.sol\":4969:4991  user.deposits[i].ended */\n      0x04\n      add\n        /* \"Staking.sol\":4969:4998  user.deposits[i].ended = true */\n      dup1\n      sload\n      not(0xff)\n      and\n      swap2\n      iszero\n      iszero\n      swap2\n      swap1\n      swap2\n      or\n      swap1\n      sstore\n        /* \"Staking.sol\":4393:5460  if (user.deposits[i].startTime > user.checkpoint) {... */\n      jump(tag_264)\n    tag_246:\n        /* \"Staking.sol\":5067:5380  (... */\n      tag_265\n        /* \"Staking.sol\":516:522  1 days */\n      0x015180\n        /* \"Staking.sol\":5067:5335  (... */\n      tag_151\n        /* \"Staking.sol\":5289:5334  user.deposits[i].endTime.sub(user.checkpoint) */\n      tag_145\n        /* \"Staking.sol\":5318:5322  user */\n      dup8\n        /* \"Staking.sol\":5318:5333  user.checkpoint */\n      0x01\n      add\n      sload\n        /* \"Staking.sol\":5289:5293  user */\n      dup9\n        /* \"Staking.sol\":5289:5302  user.deposits */\n      0x00\n      add\n        /* \"Staking.sol\":5303:5304  i */\n      dup7\n        /* \"Staking.sol\":5289:5305  user.deposits[i] */\n      dup2\n      sload\n      dup2\n      lt\n      tag_178\n      jumpi\n      tag_178\n      tag_132\n      jump\t// in\n        /* \"Staking.sol\":5067:5380  (... */\n    tag_265:\n        /* \"Staking.sol\":5055:5380  dividends = (... */\n      swap2\n      pop\n        /* \"Staking.sol\":5432:5436  true */\n      0x01\n        /* \"Staking.sol\":5407:5411  user */\n      dup5\n        /* \"Staking.sol\":5407:5420  user.deposits */\n      0x00\n      add\n        /* \"Staking.sol\":5421:5422  i */\n      dup3\n        /* \"Staking.sol\":5407:5423  user.deposits[i] */\n      dup2\n      sload\n      dup2\n      lt\n      tag_277\n      jumpi\n      tag_277\n      tag_132\n      jump\t// in\n    tag_277:\n      0x00\n      swap2\n      dup3\n      mstore\n      0x20\n      swap1\n      swap2\n      keccak256\n      0x05\n      swap1\n      swap2\n      mul\n      add\n        /* \"Staking.sol\":5407:5429  user.deposits[i].ended */\n      0x04\n      add\n        /* \"Staking.sol\":5407:5436  user.deposits[i].ended = true */\n      dup1\n      sload\n      not(0xff)\n      and\n      swap2\n      iszero\n      iszero\n      swap2\n      swap1\n      swap2\n      or\n      swap1\n      sstore\n        /* \"Staking.sol\":4393:5460  if (user.deposits[i].startTime > user.checkpoint) {... */\n    tag_264:\n        /* \"Staking.sol\":5528:5609  user.deposits[i].withdrawn.add(... */\n      tag_279\n        /* \"Staking.sol\":5581:5590  dividends */\n      dup3\n        /* \"Staking.sol\":5528:5532  user */\n      dup6\n        /* \"Staking.sol\":5528:5541  user.deposits */\n      0x00\n      add\n        /* \"Staking.sol\":5542:5543  i */\n      dup4\n        /* \"Staking.sol\":5528:5544  user.deposits[i] */\n      dup2\n      sload\n      dup2\n      lt\n      tag_281\n      jumpi\n      tag_281\n      tag_132\n      jump\t// in\n    tag_281:\n      swap1\n      0x00\n      mstore\n      keccak256(0x00, 0x20)\n      swap1\n      0x05\n      mul\n      add\n        /* \"Staking.sol\":5528:5554  user.deposits[i].withdrawn */\n      0x01\n      add\n      sload\n        /* \"Staking.sol\":5528:5558  user.deposits[i].withdrawn.add */\n      tag_198\n      swap1\n        /* \"Staking.sol\":5528:5609  user.deposits[i].withdrawn.add(... */\n      swap2\n      swap1\n      0xffffffff\n      and\n      jump\t// in\n    tag_279:\n        /* \"Staking.sol\":5499:5503  user */\n      dup5\n        /* \"Staking.sol\":5499:5512  user.deposits */\n      0x00\n      add\n        /* \"Staking.sol\":5513:5514  i */\n      dup3\n        /* \"Staking.sol\":5499:5515  user.deposits[i] */\n      dup2\n      sload\n      dup2\n      lt\n      tag_284\n      jumpi\n      tag_284\n      tag_132\n      jump\t// in\n    tag_284:\n      0x00\n      swap2\n      dup3\n      mstore\n      0x20\n      swap1\n      swap2\n      keccak256\n        /* \"Staking.sol\":5499:5525  user.deposits[i].withdrawn */\n      0x01\n        /* \"Staking.sol\":5499:5515  user.deposits[i] */\n      0x05\n      swap1\n      swap3\n      mul\n      add\n        /* \"Staking.sol\":5499:5525  user.deposits[i].withdrawn */\n      add\n        /* \"Staking.sol\":5499:5609  user.deposits[i].withdrawn = user.deposits[i].withdrawn.add(... */\n      sstore\n        /* \"Staking.sol\":5671:5697  totalAmount.add(dividends) */\n      tag_286\n        /* \"Staking.sol\":5671:5682  totalAmount */\n      dup4\n        /* \"Staking.sol\":5687:5696  dividends */\n      dup4\n        /* \"Staking.sol\":5671:5686  totalAmount.add */\n      tag_198\n        /* \"Staking.sol\":5671:5697  totalAmount.add(dividends) */\n      jump\t// in\n    tag_286:\n        /* \"Staking.sol\":5657:5697  totalAmount = totalAmount.add(dividends) */\n      swap3\n      pop\n        /* \"Staking.sol\":3349:5713  if (user.deposits[i].ended == false) {... */\n    tag_213:\n        /* \"Staking.sol\":3329:3332  i++ */\n      dup1\n      tag_287\n      dup2\n      tag_200\n      jump\t// in\n    tag_287:\n      swap2\n      pop\n      pop\n        /* \"Staking.sol\":3283:5724  for (uint256 i = 0; i < user.deposits.length; i++) {... */\n      jump(tag_207)\n    tag_208:\n      pop\n        /* \"Staking.sol\":5781:5791  msg.sender */\n      caller\n        /* \"Staking.sol\":5736:5757  uint256 referralBonus */\n      0x00\n        /* \"Staking.sol\":12237:12255  users[userAddress] */\n      swap1\n      dup2\n      mstore\n        /* \"Staking.sol\":12237:12242  users */\n      0x06\n        /* \"Staking.sol\":12237:12255  users[userAddress] */\n      0x20\n      mstore\n      0x40\n      swap1\n      keccak256\n        /* \"Staking.sol\":12237:12261  users[userAddress].bonus */\n      0x02\n      add\n      sload\n        /* \"Staking.sol\":5807:5824  referralBonus > 0 */\n      dup1\n      iszero\n        /* \"Staking.sol\":5803:5926  if (referralBonus > 0) {... */\n      tag_289\n      jumpi\n        /* \"Staking.sol\":5855:5885  totalAmount.add(referralBonus) */\n      tag_290\n        /* \"Staking.sol\":5855:5866  totalAmount */\n      dup4\n        /* \"Staking.sol\":5871:5884  referralBonus */\n      dup3\n        /* \"Staking.sol\":5855:5870  totalAmount.add */\n      tag_198\n        /* \"Staking.sol\":5855:5885  totalAmount.add(referralBonus) */\n      jump\t// in\n    tag_290:\n        /* \"Staking.sol\":5913:5914  0 */\n      0x00\n        /* \"Staking.sol\":5900:5910  user.bonus */\n      0x02\n      dup7\n      add\n        /* \"Staking.sol\":5900:5914  user.bonus = 0 */\n      sstore\n        /* \"Staking.sol\":5841:5885  totalAmount = totalAmount.add(referralBonus) */\n      swap3\n      pop\n        /* \"Staking.sol\":5803:5926  if (referralBonus > 0) {... */\n    tag_289:\n        /* \"Staking.sol\":5960:5961  0 */\n      0x00\n        /* \"Staking.sol\":5946:5957  totalAmount */\n      dup4\n        /* \"Staking.sol\":5946:5961  totalAmount > 0 */\n      gt\n        /* \"Staking.sol\":5938:5987  require(totalAmount > 0, \"User has no dividends\") */\n      tag_291\n      jumpi\n      mload(0x40)\n      shl(0xe5, 0x461bcd)\n      dup2\n      mstore\n        /* \"#utility.yul\":2308:2310   */\n      0x20\n        /* \"Staking.sol\":5938:5987  require(totalAmount > 0, \"User has no dividends\") */\n      0x04\n      dup3\n      add\n        /* \"#utility.yul\":2290:2311   */\n      mstore\n        /* \"#utility.yul\":2347:2349   */\n      0x15\n        /* \"#utility.yul\":2327:2345   */\n      0x24\n      dup3\n      add\n        /* \"#utility.yul\":2320:2350   */\n      mstore\n      shl(0x58, 0x5573657220686173206e6f206469766964656e6473)\n        /* \"#utility.yul\":2366:2384   */\n      0x44\n      dup3\n      add\n        /* \"#utility.yul\":2359:2410   */\n      mstore\n        /* \"#utility.yul\":2427:2445   */\n      0x64\n      add\n        /* \"Staking.sol\":5938:5987  require(totalAmount > 0, \"User has no dividends\") */\n    tag_292:\n      mload(0x40)\n      dup1\n      swap2\n      sub\n      swap1\n      revert\n    tag_291:\n        /* \"Staking.sol\":6026:6028  BC */\n      sload(0x01)\n        /* \"Staking.sol\":6026:6053  BC.balanceOf(address(this)) */\n      mload(0x40)\n      shl(0xe0, 0x70a08231)\n      dup2\n      mstore\n        /* \"Staking.sol\":6047:6051  this */\n      address\n        /* \"Staking.sol\":6026:6053  BC.balanceOf(address(this)) */\n      0x04\n      dup3\n      add\n        /* \"#utility.yul\":711:762   */\n      mstore\n        /* \"Staking.sol\":6000:6023  uint256 contractBalance */\n      0x00\n      swap2\n      sub(shl(0xa0, 0x01), 0x01)\n        /* \"Staking.sol\":6026:6028  BC */\n      and\n      swap1\n        /* \"Staking.sol\":6026:6038  BC.balanceOf */\n      0x70a08231\n      swap1\n        /* \"#utility.yul\":684:702   */\n      0x24\n      add\n        /* \"Staking.sol\":6026:6053  BC.balanceOf(address(this)) */\n      0x20\n      mload(0x40)\n      dup1\n      dup4\n      sub\n      dup2\n      dup7\n      gas\n      staticcall\n      iszero\n      dup1\n      iszero\n      tag_296\n      jumpi\n      returndatasize\n      0x00\n      dup1\n      returndatacopy\n      revert(0x00, returndatasize)\n    tag_296:\n      pop\n      pop\n      pop\n      pop\n      mload(0x40)\n      returndatasize\n      not(0x1f)\n      0x1f\n      dup3\n      add\n      and\n      dup3\n      add\n      dup1\n      0x40\n      mstore\n      pop\n      dup2\n      add\n      swap1\n      tag_297\n      swap2\n      swap1\n      tag_298\n      jump\t// in\n    tag_297:\n        /* \"Staking.sol\":6000:6053  uint256 contractBalance = BC.balanceOf(address(this)) */\n      swap1\n      pop\n        /* \"Staking.sol\":6086:6097  totalAmount */\n      dup4\n        /* \"Staking.sol\":6068:6083  contractBalance */\n      dup2\n        /* \"Staking.sol\":6068:6097  contractBalance < totalAmount */\n      lt\n        /* \"Staking.sol\":6064:6155  if (contractBalance < totalAmount) {... */\n      iszero\n      tag_299\n      jumpi\n        /* \"Staking.sol\":6128:6143  contractBalance */\n      dup1\n        /* \"Staking.sol\":6114:6143  totalAmount = contractBalance */\n      swap4\n      pop\n        /* \"Staking.sol\":6064:6155  if (contractBalance < totalAmount) {... */\n    tag_299:\n        /* \"Staking.sol\":6185:6200  block.timestamp */\n      timestamp\n        /* \"Staking.sol\":6167:6182  user.checkpoint */\n      0x01\n      dup7\n      dup2\n      add\n        /* \"Staking.sol\":6167:6200  user.checkpoint = block.timestamp */\n      swap2\n      swap1\n      swap2\n      sstore\n        /* \"Staking.sol\":6213:6215  BC */\n      sload\n        /* \"Staking.sol\":6213:6249  BC.transfer(msg.sender, totalAmount) */\n      mload(0x40)\n      shl(0xe0, 0xa9059cbb)\n      dup2\n      mstore\n        /* \"Staking.sol\":6225:6235  msg.sender */\n      caller\n        /* \"Staking.sol\":6213:6249  BC.transfer(msg.sender, totalAmount) */\n      0x04\n      dup3\n      add\n        /* \"#utility.yul\":2819:2870   */\n      mstore\n        /* \"#utility.yul\":2886:2904   */\n      0x24\n      dup2\n      add\n        /* \"#utility.yul\":2879:2913   */\n      dup7\n      swap1\n      mstore\n      sub(shl(0xa0, 0x01), 0x01)\n        /* \"Staking.sol\":6213:6215  BC */\n      swap1\n      swap2\n      and\n      swap1\n        /* \"Staking.sol\":6213:6224  BC.transfer */\n      0xa9059cbb\n      swap1\n        /* \"#utility.yul\":2792:2810   */\n      0x44\n      add\n        /* \"Staking.sol\":6213:6249  BC.transfer(msg.sender, totalAmount) */\n      0x20\n      mload(0x40)\n      dup1\n      dup4\n      sub\n      dup2\n      0x00\n      dup8\n      gas\n      call\n      iszero\n      dup1\n      iszero\n      tag_303\n      jumpi\n      returndatasize\n      0x00\n      dup1\n      returndatacopy\n      revert(0x00, returndatasize)\n    tag_303:\n      pop\n      pop\n      pop\n      pop\n      mload(0x40)\n      returndatasize\n      not(0x1f)\n      0x1f\n      dup3\n      add\n      and\n      dup3\n      add\n      dup1\n      0x40\n      mstore\n      pop\n      dup2\n      add\n      swap1\n      tag_304\n      swap2\n      swap1\n      tag_305\n      jump\t// in\n    tag_304:\n      pop\n        /* \"Staking.sol\":6279:6293  totalWithdrawn */\n      sload(0x04)\n        /* \"Staking.sol\":6279:6310  totalWithdrawn.add(totalAmount) */\n      tag_306\n      swap1\n        /* \"Staking.sol\":6298:6309  totalAmount */\n      dup6\n        /* \"Staking.sol\":6279:6297  totalWithdrawn.add */\n      tag_198\n        /* \"Staking.sol\":6279:6310  totalWithdrawn.add(totalAmount) */\n      jump\t// in\n    tag_306:\n        /* \"Staking.sol\":6262:6276  totalWithdrawn */\n      0x04\n        /* \"Staking.sol\":6262:6310  totalWithdrawn = totalWithdrawn.add(totalAmount) */\n      sstore\n        /* \"Staking.sol\":6328:6362  Withdrawn(msg.sender, totalAmount) */\n      mload(0x40)\n        /* \"#utility.yul\":160:185   */\n      dup5\n      dup2\n      mstore\n        /* \"Staking.sol\":6338:6348  msg.sender */\n      caller\n      swap1\n        /* \"Staking.sol\":6328:6362  Withdrawn(msg.sender, totalAmount) */\n      0x7084f5476618d8e60b11ef0d7d3f06914655adb8793e28ff7f018d4c76d505d5\n      swap1\n        /* \"#utility.yul\":148:150   */\n      0x20\n        /* \"#utility.yul\":133:151   */\n      add\n        /* \"Staking.sol\":6328:6362  Withdrawn(msg.sender, totalAmount) */\n      mload(0x40)\n      dup1\n      swap2\n      sub\n      swap1\n      log2\n        /* \"Staking.sol\":3162:6370  {... */\n      pop\n      pop\n      pop\n      pop\n      pop\n        /* \"Staking.sol\":3138:6370  function claim() public {... */\n      jump\t// out\n        /* \"@openzeppelin/contracts/access/Ownable.sol\":1668:1769  function renounceOwnership() public virtual onlyOwner {... */\n    tag_70:\n        /* \"@openzeppelin/contracts/access/Ownable.sol\":1082:1089  address */\n      0x00\n        /* \"@openzeppelin/contracts/access/Ownable.sol\":1108:1114  _owner */\n      sload\n      sub(shl(0xa0, 0x01), 0x01)\n      and\n        /* \"@openzeppelin/contracts/utils/Context.sol\":719:729  msg.sender */\n      caller\n        /* \"@openzeppelin/contracts/access/Ownable.sol\":1248:1271  owner() == _msgSender() */\n      eq\n        /* \"@openzeppelin/contracts/access/Ownable.sol\":1240:1308  require(owner() == _msgSender(), \"Ownable: caller is not the owner\") */\n      tag_312\n      jumpi\n      mload(0x40)\n      shl(0xe5, 0x461bcd)\n      dup2\n      mstore\n        /* \"#utility.yul\":3408:3410   */\n      0x20\n        /* \"@openzeppelin/contracts/access/Ownable.sol\":1240:1308  require(owner() == _msgSender(), \"Ownable: caller is not the owner\") */\n      0x04\n      dup3\n      add\n        /* \"#utility.yul\":3390:3411   */\n      dup2\n      swap1\n      mstore\n        /* \"#utility.yul\":3427:3445   */\n      0x24\n      dup3\n      add\n        /* \"#utility.yul\":3420:3450   */\n      mstore\n        /* \"#utility.yul\":3486:3520   */\n      0x4f776e61626c653a2063616c6c6572206973206e6f7420746865206f776e6572\n        /* \"#utility.yul\":3466:3484   */\n      0x44\n      dup3\n      add\n        /* \"#utility.yul\":3459:3521   */\n      mstore\n        /* \"#utility.yul\":3538:3556   */\n      0x64\n      add\n        /* \"@openzeppelin/contracts/access/Ownable.sol\":1240:1308  require(owner() == _msgSender(), \"Ownable: caller is not the owner\") */\n      tag_292\n        /* \"#utility.yul\":3206:3562   */\n      jump\n        /* \"@openzeppelin/contracts/access/Ownable.sol\":1240:1308  require(owner() == _msgSender(), \"Ownable: caller is not the owner\") */\n    tag_312:\n        /* \"@openzeppelin/contracts/access/Ownable.sol\":1732:1762  _transferOwnership(address(0)) */\n      tag_316\n        /* \"@openzeppelin/contracts/access/Ownable.sol\":1759:1760  0 */\n      0x00\n        /* \"@openzeppelin/contracts/access/Ownable.sol\":1732:1750  _transferOwnership */\n      tag_317\n        /* \"@openzeppelin/contracts/access/Ownable.sol\":1732:1762  _transferOwnership(address(0)) */\n      jump\t// in\n    tag_316:\n        /* \"@openzeppelin/contracts/access/Ownable.sol\":1668:1769  function renounceOwnership() public virtual onlyOwner {... */\n      jump\t// out\n        /* \"Staking.sol\":14299:14656  function getUserTotalDeposits(address userAddress)... */\n    tag_73:\n      sub(shl(0xa0, 0x01), 0x01)\n        /* \"Staking.sol\":14443:14461  users[userAddress] */\n      dup2\n      and\n        /* \"Staking.sol\":14398:14405  uint256 */\n      0x00\n        /* \"Staking.sol\":14443:14461  users[userAddress] */\n      swap1\n      dup2\n      mstore\n        /* \"Staking.sol\":14443:14448  users */\n      0x06\n        /* \"Staking.sol\":14443:14461  users[userAddress] */\n      0x20\n      mstore\n      0x40\n      dup2\n      keccak256\n        /* \"Staking.sol\":14398:14405  uint256 */\n      dup2\n      dup1\n        /* \"Staking.sol\":14501:14623  for (uint256 i = 0; i < user.deposits.length; i++) {... */\n    tag_319:\n        /* \"Staking.sol\":14525:14545  user.deposits.length */\n      dup3\n      sload\n        /* \"Staking.sol\":14521:14545  i < user.deposits.length */\n      dup2\n      lt\n        /* \"Staking.sol\":14501:14623  for (uint256 i = 0; i < user.deposits.length; i++) {... */\n      iszero\n      tag_320\n      jumpi\n        /* \"Staking.sol\":14576:14611  amount.add(user.deposits[i].amount) */\n      tag_322\n        /* \"Staking.sol\":14587:14591  user */\n      dup4\n        /* \"Staking.sol\":14587:14600  user.deposits */\n      0x00\n      add\n        /* \"Staking.sol\":14601:14602  i */\n      dup3\n        /* \"Staking.sol\":14587:14603  user.deposits[i] */\n      dup2\n      sload\n      dup2\n      lt\n      tag_324\n      jumpi\n      tag_324\n      tag_132\n      jump\t// in\n    tag_324:\n      0x00\n      swap2\n      dup3\n      mstore\n      0x20\n      swap1\n      swap2\n      keccak256\n      0x05\n      swap1\n      swap2\n      mul\n      add\n        /* \"Staking.sol\":14587:14610  user.deposits[i].amount */\n      sload\n        /* \"Staking.sol\":14576:14582  amount */\n      dup4\n      swap1\n        /* \"Staking.sol\":14576:14586  amount.add */\n      tag_198\n        /* \"Staking.sol\":14576:14611  amount.add(user.deposits[i].amount) */\n      jump\t// in\n    tag_322:\n        /* \"Staking.sol\":14567:14611  amount = amount.add(user.deposits[i].amount) */\n      swap2\n      pop\n        /* \"Staking.sol\":14547:14550  i++ */\n      dup1\n      tag_326\n      dup2\n      tag_200\n      jump\t// in\n    tag_326:\n      swap2\n      pop\n      pop\n        /* \"Staking.sol\":14501:14623  for (uint256 i = 0; i < user.deposits.length; i++) {... */\n      jump(tag_319)\n    tag_320:\n      pop\n        /* \"Staking.sol\":14642:14648  amount */\n      swap4\n        /* \"Staking.sol\":14299:14656  function getUserTotalDeposits(address userAddress)... */\n      swap3\n      pop\n      pop\n      pop\n      jump\t// out\n        /* \"Staking.sol\":13054:13560  function isActive(address userAddress) public view returns (bool) {... */\n    tag_83:\n      sub(shl(0xa0, 0x01), 0x01)\n        /* \"Staking.sol\":13151:13169  users[userAddress] */\n      dup2\n      and\n        /* \"Staking.sol\":13114:13118  bool */\n      0x00\n        /* \"Staking.sol\":13151:13169  users[userAddress] */\n      swap1\n      dup2\n      mstore\n        /* \"Staking.sol\":13151:13156  users */\n      0x06\n        /* \"Staking.sol\":13151:13169  users[userAddress] */\n      0x20\n      mstore\n      0x40\n      dup2\n      keccak256\n        /* \"Staking.sol\":13186:13206  user.deposits.length */\n      dup1\n      sload\n        /* \"Staking.sol\":13186:13210  user.deposits.length > 0 */\n      iszero\n        /* \"Staking.sol\":13182:13553  if (user.deposits.length > 0) {... */\n      tag_341\n      jumpi\n        /* \"Staking.sol\":13332:13352  user.deposits.length */\n      dup1\n      sload\n        /* \"Staking.sol\":13318:13382  user.deposits[user.deposits.length - 1].amount.mul(365).div(100) */\n      tag_330\n      swap1\n        /* \"Staking.sol\":13378:13381  100 */\n      0x64\n      swap1\n        /* \"Staking.sol\":13318:13373  user.deposits[user.deposits.length - 1].amount.mul(365) */\n      tag_151\n      swap1\n        /* \"Staking.sol\":13369:13372  365 */\n      0x016d\n      swap1\n        /* \"Staking.sol\":13318:13322  user */\n      dup6\n      swap1\n        /* \"Staking.sol\":13332:13356  user.deposits.length - 1 */\n      tag_332\n      swap1\n        /* \"Staking.sol\":13355:13356  1 */\n      0x01\n      swap1\n        /* \"Staking.sol\":13332:13356  user.deposits.length - 1 */\n      tag_333\n      jump\t// in\n    tag_332:\n        /* \"Staking.sol\":13318:13357  user.deposits[user.deposits.length - 1] */\n      dup2\n      sload\n      dup2\n      lt\n      tag_153\n      jumpi\n      tag_153\n      tag_132\n      jump\t// in\n        /* \"Staking.sol\":13318:13382  user.deposits[user.deposits.length - 1].amount.mul(365).div(100) */\n    tag_330:\n        /* \"Staking.sol\":13263:13283  user.deposits.length */\n      dup2\n      sload\n        /* \"Staking.sol\":13249:13253  user */\n      dup3\n      swap1\n        /* \"Staking.sol\":13263:13287  user.deposits.length - 1 */\n      tag_337\n      swap1\n        /* \"Staking.sol\":13286:13287  1 */\n      0x01\n      swap1\n        /* \"Staking.sol\":13263:13287  user.deposits.length - 1 */\n      tag_333\n      jump\t// in\n    tag_337:\n        /* \"Staking.sol\":13249:13288  user.deposits[user.deposits.length - 1] */\n      dup2\n      sload\n      dup2\n      lt\n      tag_339\n      jumpi\n      tag_339\n      tag_132\n      jump\t// in\n    tag_339:\n      swap1\n      0x00\n      mstore\n      keccak256(0x00, 0x20)\n      swap1\n      0x05\n      mul\n      add\n        /* \"Staking.sol\":13249:13298  user.deposits[user.deposits.length - 1].withdrawn */\n      0x01\n      add\n      sload\n        /* \"Staking.sol\":13249:13382  user.deposits[user.deposits.length - 1].withdrawn <... */\n      lt\n        /* \"Staking.sol\":13227:13497  if (... */\n      iszero\n      tag_341\n      jumpi\n      pop\n        /* \"Staking.sol\":13424:13428  true */\n      0x01\n      swap3\n        /* \"Staking.sol\":13054:13560  function isActive(address userAddress) public view returns (bool) {... */\n      swap2\n      pop\n      pop\n      jump\t// out\n        /* \"Staking.sol\":13227:13497  if (... */\n    tag_341:\n      pop\n        /* \"Staking.sol\":13476:13481  false */\n      0x00\n      swap3\n        /* \"Staking.sol\":13054:13560  function isActive(address userAddress) public view returns (bool) {... */\n      swap2\n      pop\n      pop\n      jump\t// out\n        /* \"Staking.sol\":1693:3130  function stake(address referrer, uint256 amount) public {... */\n    tag_93:\n        /* \"Staking.sol\":1760:1762  BC */\n      sload(0x01)\n        /* \"Staking.sol\":1760:1810  BC.transferFrom(msg.sender, address(this), amount) */\n      mload(0x40)\n      shl(0xe0, 0x23b872dd)\n      dup2\n      mstore\n        /* \"Staking.sol\":1776:1786  msg.sender */\n      caller\n        /* \"Staking.sol\":1760:1810  BC.transferFrom(msg.sender, address(this), amount) */\n      0x04\n      dup3\n      add\n        /* \"#utility.yul\":3937:3971   */\n      mstore\n        /* \"Staking.sol\":1796:1800  this */\n      address\n        /* \"#utility.yul\":3987:4005   */\n      0x24\n      dup3\n      add\n        /* \"#utility.yul\":3980:4023   */\n      mstore\n        /* \"#utility.yul\":4039:4057   */\n      0x44\n      dup2\n      add\n        /* \"#utility.yul\":4032:4066   */\n      dup4\n      swap1\n      mstore\n      sub(shl(0xa0, 0x01), 0x01)\n        /* \"Staking.sol\":1760:1762  BC */\n      swap1\n      swap2\n      and\n      swap1\n        /* \"Staking.sol\":1760:1775  BC.transferFrom */\n      0x23b872dd\n      swap1\n        /* \"#utility.yul\":3872:3890   */\n      0x64\n      add\n        /* \"Staking.sol\":1760:1810  BC.transferFrom(msg.sender, address(this), amount) */\n      0x20\n      mload(0x40)\n      dup1\n      dup4\n      sub\n      dup2\n      0x00\n      dup8\n      gas\n      call\n      iszero\n      dup1\n      iszero\n      tag_349\n      jumpi\n      returndatasize\n      0x00\n      dup1\n      returndatacopy\n      revert(0x00, returndatasize)\n    tag_349:\n      pop\n      pop\n      pop\n      pop\n      mload(0x40)\n      returndatasize\n      not(0x1f)\n      0x1f\n      dup3\n      add\n      and\n      dup3\n      add\n      dup1\n      0x40\n      mstore\n      pop\n      dup2\n      add\n      swap1\n      tag_350\n      swap2\n      swap1\n      tag_305\n      jump\t// in\n    tag_350:\n      pop\n        /* \"Staking.sol\":1849:1859  msg.sender */\n      caller\n        /* \"Staking.sol\":1823:1840  User storage user */\n      0x00\n        /* \"Staking.sol\":1843:1860  users[msg.sender] */\n      swap1\n      dup2\n      mstore\n        /* \"Staking.sol\":1843:1848  users */\n      0x06\n        /* \"Staking.sol\":1843:1860  users[msg.sender] */\n      0x20\n      mstore\n      0x40\n      swap1\n      keccak256\n        /* \"Staking.sol\":1891:1904  user.referrer */\n      0x04\n      dup2\n      add\n      sload\n      sub(shl(0xa0, 0x01), 0x01)\n      and\n        /* \"Staking.sol\":1891:1918  user.referrer == address(0) */\n      iszero\n        /* \"Staking.sol\":1891:1970  user.referrer == address(0) &&... */\n      dup1\n      iszero\n      tag_351\n      jumpi\n      pop\n      sub(shl(0xa0, 0x01), 0x01)\n        /* \"Staking.sol\":1935:1950  users[referrer] */\n      dup4\n      and\n        /* \"Staking.sol\":1969:1970  0 */\n      0x00\n        /* \"Staking.sol\":1935:1950  users[referrer] */\n      swap1\n      dup2\n      mstore\n        /* \"Staking.sol\":1935:1940  users */\n      0x06\n        /* \"Staking.sol\":1935:1950  users[referrer] */\n      0x20\n      mstore\n      0x40\n      swap1\n      keccak256\n        /* \"Staking.sol\":1935:1966  users[referrer].deposits.length */\n      sload\n        /* \"Staking.sol\":1935:1970  users[referrer].deposits.length > 0 */\n      iszero\n      iszero\n        /* \"Staking.sol\":1891:1970  user.referrer == address(0) &&... */\n    tag_351:\n        /* \"Staking.sol\":1891:2009  user.referrer == address(0) &&... */\n      dup1\n      iszero\n      tag_352\n      jumpi\n      pop\n      sub(shl(0xa0, 0x01), 0x01)\n        /* \"Staking.sol\":1987:2009  referrer != msg.sender */\n      dup4\n      and\n        /* \"Staking.sol\":1999:2009  msg.sender */\n      caller\n        /* \"Staking.sol\":1987:2009  referrer != msg.sender */\n      eq\n      iszero\n        /* \"Staking.sol\":1891:2009  user.referrer == address(0) &&... */\n    tag_352:\n        /* \"Staking.sol\":1873:2072  if (... */\n      iszero\n      tag_353\n      jumpi\n        /* \"Staking.sol\":2036:2049  user.referrer */\n      0x04\n      dup2\n      add\n        /* \"Staking.sol\":2036:2060  user.referrer = referrer */\n      dup1\n      sload\n      not(sub(shl(0xa0, 0x01), 0x01))\n      and\n      sub(shl(0xa0, 0x01), 0x01)\n      dup6\n      and\n      or\n      swap1\n      sstore\n        /* \"Staking.sol\":1873:2072  if (... */\n    tag_353:\n        /* \"Staking.sol\":2088:2101  user.referrer */\n      0x04\n      dup2\n      add\n      sload\n      sub(shl(0xa0, 0x01), 0x01)\n      and\n        /* \"Staking.sol\":2088:2115  user.referrer != address(0) */\n      iszero\n        /* \"Staking.sol\":2084:2494  if (user.referrer != address(0)) {... */\n      tag_354\n      jumpi\n        /* \"Staking.sol\":2149:2162  user.referrer */\n      0x04\n      dup2\n      add\n      sload\n      sub(shl(0xa0, 0x01), 0x01)\n      and\n        /* \"Staking.sol\":2183:2203  upline != address(0) */\n      dup1\n      iszero\n        /* \"Staking.sol\":2179:2483  if (upline != address(0)) {... */\n      tag_355\n      jumpi\n        /* \"Staking.sol\":2224:2239  uint256 _amount */\n      0x00\n        /* \"Staking.sol\":2242:2333  amount.mul(REFERRAL_PERCENTS).div(... */\n      tag_356\n        /* \"Staking.sol\":365:369  1000 */\n      0x03e8\n        /* \"Staking.sol\":2242:2271  amount.mul(REFERRAL_PERCENTS) */\n      tag_151\n        /* \"Staking.sol\":2242:2248  amount */\n      dup7\n        /* \"Staking.sol\":470:473  120 */\n      0x78\n        /* \"Staking.sol\":2242:2252  amount.mul */\n      tag_155\n        /* \"Staking.sol\":2242:2271  amount.mul(REFERRAL_PERCENTS) */\n      jump\t// in\n        /* \"Staking.sol\":2242:2333  amount.mul(REFERRAL_PERCENTS).div(... */\n    tag_356:\n      sub(shl(0xa0, 0x01), 0x01)\n        /* \"Staking.sol\":2374:2387  users[upline] */\n      dup4\n      and\n      0x00\n      swap1\n      dup2\n      mstore\n        /* \"Staking.sol\":2374:2379  users */\n      0x06\n        /* \"Staking.sol\":2374:2387  users[upline] */\n      0x20\n      mstore\n      0x40\n      swap1\n      keccak256\n        /* \"Staking.sol\":2374:2393  users[upline].bonus */\n      0x02\n      add\n      sload\n        /* \"Staking.sol\":2224:2333  uint256 _amount = amount.mul(REFERRAL_PERCENTS).div(... */\n      swap1\n      swap2\n      pop\n        /* \"Staking.sol\":2374:2406  users[upline].bonus.add(_amount) */\n      tag_358\n      swap1\n        /* \"Staking.sol\":2224:2333  uint256 _amount = amount.mul(REFERRAL_PERCENTS).div(... */\n      dup3\n        /* \"Staking.sol\":2374:2397  users[upline].bonus.add */\n      tag_198\n        /* \"Staking.sol\":2374:2406  users[upline].bonus.add(_amount) */\n      jump\t// in\n    tag_358:\n      sub(shl(0xa0, 0x01), 0x01)\n        /* \"Staking.sol\":2352:2365  users[upline] */\n      dup4\n      and\n      0x00\n      dup2\n      dup2\n      mstore\n        /* \"Staking.sol\":2352:2357  users */\n      0x06\n        /* \"Staking.sol\":2352:2365  users[upline] */\n      0x20\n      swap1\n      dup2\n      mstore\n      0x40\n      swap2\n      dup3\n      swap1\n      keccak256\n        /* \"Staking.sol\":2352:2371  users[upline].bonus */\n      0x02\n      add\n        /* \"Staking.sol\":2352:2406  users[upline].bonus = users[upline].bonus.add(_amount) */\n      swap4\n      swap1\n      swap4\n      sstore\n        /* \"Staking.sol\":2430:2467  RefBonus(upline, msg.sender, _amount) */\n      mload\n        /* \"#utility.yul\":160:185   */\n      dup4\n      dup2\n      mstore\n        /* \"Staking.sol\":2447:2457  msg.sender */\n      caller\n      swap3\n        /* \"Staking.sol\":2430:2467  RefBonus(upline, msg.sender, _amount) */\n      0x328838ddfc48ad5ae5531b1ad95dfb22b42ff1866853e474375ffef2c63d8e50\n      swap2\n        /* \"#utility.yul\":133:151   */\n      add\n        /* \"Staking.sol\":2430:2467  RefBonus(upline, msg.sender, _amount) */\n      mload(0x40)\n      dup1\n      swap2\n      sub\n      swap1\n      log3\n        /* \"Staking.sol\":2205:2483  {... */\n      pop\n        /* \"Staking.sol\":2179:2483  if (upline != address(0)) {... */\n    tag_355:\n        /* \"Staking.sol\":2117:2494  {... */\n      pop\n        /* \"Staking.sol\":2084:2494  if (user.referrer != address(0)) {... */\n    tag_354:\n        /* \"Staking.sol\":2510:2530  user.deposits.length */\n      dup1\n      sload\n        /* \"Staking.sol\":2506:2680  if (user.deposits.length == 0) {... */\n      tag_360\n      jumpi\n        /* \"Staking.sol\":2570:2585  block.timestamp */\n      timestamp\n        /* \"Staking.sol\":2552:2567  user.checkpoint */\n      0x01\n      dup1\n      dup4\n      add\n        /* \"Staking.sol\":2552:2585  user.checkpoint = block.timestamp */\n      swap2\n      swap1\n      swap2\n      sstore\n        /* \"Staking.sol\":2613:2623  totalUsers */\n      sload(0x02)\n        /* \"Staking.sol\":2613:2630  totalUsers.add(1) */\n      tag_361\n      swap2\n        /* \"Staking.sol\":2613:2627  totalUsers.add */\n      tag_198\n        /* \"Staking.sol\":2613:2630  totalUsers.add(1) */\n      jump\t// in\n    tag_361:\n        /* \"Staking.sol\":2600:2610  totalUsers */\n      0x02\n        /* \"Staking.sol\":2600:2630  totalUsers = totalUsers.add(1) */\n      sstore\n        /* \"Staking.sol\":2650:2668  Newbie(msg.sender) */\n      mload(0x40)\n        /* \"Staking.sol\":2657:2667  msg.sender */\n      caller\n        /* \"#utility.yul\":711:762   */\n      dup2\n      mstore\n        /* \"Staking.sol\":2650:2668  Newbie(msg.sender) */\n      0x9fd565cd14c3c391679eb0cad12a14dcf7534e9d3462bcb9b67a098a9bbbc24a\n      swap1\n        /* \"#utility.yul\":699:701   */\n      0x20\n        /* \"#utility.yul\":684:702   */\n      add\n        /* \"Staking.sol\":2650:2668  Newbie(msg.sender) */\n      mload(0x40)\n      dup1\n      swap2\n      sub\n      swap1\n      log1\n        /* \"Staking.sol\":2506:2680  if (user.deposits.length == 0) {... */\n    tag_360:\n        /* \"Staking.sol\":2725:2958  Deposit(... */\n      0x40\n      dup1\n      mload\n      0xa0\n      dup2\n      add\n      swap1\n      swap2\n      mstore\n        /* \"Staking.sol\":2692:2696  user */\n      dup2\n      swap1\n        /* \"Staking.sol\":2725:2958  Deposit(... */\n      dup1\n        /* \"Staking.sol\":2751:2814  amount.sub(amount.mul(REFERRAL_PERCENTS).div(PERCENTS_DIVIDER)) */\n      tag_363\n        /* \"Staking.sol\":2762:2813  amount.mul(REFERRAL_PERCENTS).div(PERCENTS_DIVIDER) */\n      tag_364\n        /* \"Staking.sol\":365:369  1000 */\n      0x03e8\n        /* \"Staking.sol\":2762:2791  amount.mul(REFERRAL_PERCENTS) */\n      tag_151\n        /* \"Staking.sol\":2762:2768  amount */\n      dup9\n        /* \"Staking.sol\":470:473  120 */\n      0x78\n        /* \"Staking.sol\":2762:2772  amount.mul */\n      tag_155\n        /* \"Staking.sol\":2762:2791  amount.mul(REFERRAL_PERCENTS) */\n      jump\t// in\n        /* \"Staking.sol\":2762:2813  amount.mul(REFERRAL_PERCENTS).div(PERCENTS_DIVIDER) */\n    tag_364:\n        /* \"Staking.sol\":2751:2757  amount */\n      dup7\n      swap1\n        /* \"Staking.sol\":2751:2761  amount.sub */\n      tag_149\n        /* \"Staking.sol\":2751:2814  amount.sub(amount.mul(REFERRAL_PERCENTS).div(PERCENTS_DIVIDER)) */\n      jump\t// in\n    tag_363:\n        /* \"Staking.sol\":2725:2958  Deposit(... */\n      dup2\n      mstore\n      0x20\n      add\n        /* \"Staking.sol\":2833:2834  0 */\n      0x00\n        /* \"Staking.sol\":2725:2958  Deposit(... */\n      dup2\n      mstore\n      0x20\n      add\n        /* \"Staking.sol\":2853:2868  block.timestamp */\n      timestamp\n        /* \"Staking.sol\":2725:2958  Deposit(... */\n      dup2\n      mstore\n      0x20\n      add\n        /* \"Staking.sol\":570:578  180 days */\n      0xed4e00\n        /* \"Staking.sol\":2887:2902  block.timestamp */\n      timestamp\n        /* \"Staking.sol\":2887:2919  block.timestamp + STAKING_PERIOD */\n      tag_366\n      swap2\n      swap1\n      tag_367\n      jump\t// in\n    tag_366:\n        /* \"Staking.sol\":2725:2958  Deposit(... */\n      dup2\n      mstore\n        /* \"Staking.sol\":2938:2943  false */\n      0x00\n        /* \"Staking.sol\":2725:2958  Deposit(... */\n      0x20\n      swap2\n      dup3\n      add\n      dup2\n      swap1\n      mstore\n        /* \"Staking.sol\":2692:2969  user.deposits.push(... */\n      dup4\n      sload\n        /* \"Staking.sol\":2725:2958  Deposit(... */\n      0x01\n        /* \"Staking.sol\":2692:2969  user.deposits.push(... */\n      dup1\n      dup3\n      add\n      dup7\n      sstore\n      swap5\n      dup3\n      mstore\n      swap1\n      dup3\n      swap1\n      keccak256\n      dup4\n      mload\n      0x05\n      swap1\n      swap3\n      mul\n      add\n      swap1\n      dup2\n      sstore\n      swap1\n      dup3\n      add\n      mload\n      swap3\n      dup2\n      add\n      swap3\n      swap1\n      swap3\n      sstore\n      0x40\n      dup2\n      add\n      mload\n      0x02\n      dup4\n      add\n      sstore\n      0x60\n      dup2\n      add\n      mload\n      0x03\n      dup1\n      dup5\n      add\n      swap2\n      swap1\n      swap2\n      sstore\n      0x80\n      swap1\n      swap2\n      add\n      mload\n      0x04\n      swap1\n      swap3\n      add\n      dup1\n      sload\n      not(0xff)\n      and\n      swap3\n      iszero\n      iszero\n      swap3\n      swap1\n      swap3\n      or\n      swap1\n      swap2\n      sstore\n        /* \"Staking.sol\":2996:3007  totalStaked */\n      sload\n        /* \"Staking.sol\":2996:3019  totalStaked.add(amount) */\n      tag_369\n      swap1\n        /* \"Staking.sol\":3012:3018  amount */\n      dup4\n        /* \"Staking.sol\":2996:3011  totalStaked.add */\n      tag_198\n        /* \"Staking.sol\":2996:3019  totalStaked.add(amount) */\n      jump\t// in\n    tag_369:\n        /* \"Staking.sol\":2982:2993  totalStaked */\n      0x03\n        /* \"Staking.sol\":2982:3019  totalStaked = totalStaked.add(amount) */\n      sstore\n        /* \"Staking.sol\":3050:3067  totalDepositCount */\n      sload(0x05)\n        /* \"Staking.sol\":3050:3074  totalDepositCount.add(1) */\n      tag_370\n      swap1\n        /* \"Staking.sol\":3072:3073  1 */\n      0x01\n        /* \"Staking.sol\":3050:3071  totalDepositCount.add */\n      tag_198\n        /* \"Staking.sol\":3050:3074  totalDepositCount.add(1) */\n      jump\t// in\n    tag_370:\n        /* \"Staking.sol\":3030:3047  totalDepositCount */\n      0x05\n        /* \"Staking.sol\":3030:3074  totalDepositCount = totalDepositCount.add(1) */\n      sstore\n        /* \"Staking.sol\":3092:3122  NewDeposit(msg.sender, amount) */\n      mload(0x40)\n        /* \"#utility.yul\":160:185   */\n      dup3\n      dup2\n      mstore\n        /* \"Staking.sol\":3103:3113  msg.sender */\n      caller\n      swap1\n        /* \"Staking.sol\":3092:3122  NewDeposit(msg.sender, amount) */\n      0x2cb77763bc1e8490c1a904905c4d74b4269919aca114464f4bb4d911e60de364\n      swap1\n        /* \"#utility.yul\":148:150   */\n      0x20\n        /* \"#utility.yul\":133:151   */\n      add\n        /* \"Staking.sol\":3092:3122  NewDeposit(msg.sender, amount) */\n      mload(0x40)\n      dup1\n      swap2\n      sub\n      swap1\n      log2\n        /* \"Staking.sol\":1749:3130  {... */\n      pop\n        /* \"Staking.sol\":1693:3130  function stake(address referrer, uint256 amount) public {... */\n      pop\n      pop\n      jump\t// out\n        /* \"Staking.sol\":13568:14107  function getUserDepositInfo(address userAddress, uint256 index)... */\n    tag_99:\n      sub(shl(0xa0, 0x01), 0x01)\n        /* \"Staking.sol\":13834:13852  users[userAddress] */\n      dup3\n      and\n        /* \"Staking.sol\":13694:13701  uint256 */\n      0x00\n        /* \"Staking.sol\":13834:13852  users[userAddress] */\n      swap1\n      dup2\n      mstore\n        /* \"Staking.sol\":13834:13839  users */\n      0x06\n        /* \"Staking.sol\":13834:13852  users[userAddress] */\n      0x20\n      mstore\n      0x40\n      dup2\n      keccak256\n        /* \"Staking.sol\":13887:13907  user.deposits[index] */\n      dup1\n      sload\n        /* \"Staking.sol\":13694:13701  uint256 */\n      dup3\n      swap2\n      dup3\n      swap2\n      dup3\n      swap2\n      dup3\n      swap2\n        /* \"Staking.sol\":13834:13852  users[userAddress] */\n      dup2\n      swap1\n        /* \"Staking.sol\":13901:13906  index */\n      dup9\n      swap1\n        /* \"Staking.sol\":13887:13907  user.deposits[index] */\n      dup2\n      lt\n      tag_374\n      jumpi\n      tag_374\n      tag_132\n      jump\t// in\n    tag_374:\n      swap1\n      0x00\n      mstore\n      keccak256(0x00, 0x20)\n      swap1\n      0x05\n      mul\n      add\n        /* \"Staking.sol\":13887:13914  user.deposits[index].amount */\n      0x00\n      add\n      sload\n        /* \"Staking.sol\":13929:13933  user */\n      dup2\n        /* \"Staking.sol\":13929:13942  user.deposits */\n      0x00\n      add\n        /* \"Staking.sol\":13943:13948  index */\n      dup9\n        /* \"Staking.sol\":13929:13949  user.deposits[index] */\n      dup2\n      sload\n      dup2\n      lt\n      tag_377\n      jumpi\n      tag_377\n      tag_132\n      jump\t// in\n    tag_377:\n      swap1\n      0x00\n      mstore\n      keccak256(0x00, 0x20)\n      swap1\n      0x05\n      mul\n      add\n        /* \"Staking.sol\":13929:13959  user.deposits[index].withdrawn */\n      0x01\n      add\n      sload\n        /* \"Staking.sol\":13974:13978  user */\n      dup3\n        /* \"Staking.sol\":13974:13987  user.deposits */\n      0x00\n      add\n        /* \"Staking.sol\":13988:13993  index */\n      dup10\n        /* \"Staking.sol\":13974:13994  user.deposits[index] */\n      dup2\n      sload\n      dup2\n      lt\n      tag_380\n      jumpi\n      tag_380\n      tag_132\n      jump\t// in\n    tag_380:\n      swap1\n      0x00\n      mstore\n      keccak256(0x00, 0x20)\n      swap1\n      0x05\n      mul\n      add\n        /* \"Staking.sol\":13974:14004  user.deposits[index].startTime */\n      0x02\n      add\n      sload\n        /* \"Staking.sol\":14019:14023  user */\n      dup4\n        /* \"Staking.sol\":14019:14032  user.deposits */\n      0x00\n      add\n        /* \"Staking.sol\":14033:14038  index */\n      dup11\n        /* \"Staking.sol\":14019:14039  user.deposits[index] */\n      dup2\n      sload\n      dup2\n      lt\n      tag_383\n      jumpi\n      tag_383\n      tag_132\n      jump\t// in\n    tag_383:\n      swap1\n      0x00\n      mstore\n      keccak256(0x00, 0x20)\n      swap1\n      0x05\n      mul\n      add\n        /* \"Staking.sol\":14019:14047  user.deposits[index].endTime */\n      0x03\n      add\n      sload\n        /* \"Staking.sol\":14062:14066  user */\n      dup5\n        /* \"Staking.sol\":14062:14075  user.deposits */\n      0x00\n      add\n        /* \"Staking.sol\":14076:14081  index */\n      dup12\n        /* \"Staking.sol\":14062:14082  user.deposits[index] */\n      dup2\n      sload\n      dup2\n      lt\n      tag_386\n      jumpi\n      tag_386\n      tag_132\n      jump\t// in\n    tag_386:\n      0x00\n      swap2\n      dup3\n      mstore\n      0x20\n      swap1\n      swap2\n      keccak256\n      0x05\n      swap1\n      swap2\n      mul\n      add\n        /* \"Staking.sol\":14062:14088  user.deposits[index].ended */\n      0x04\n      add\n      sload\n        /* \"Staking.sol\":13865:14099  return (... */\n      swap4\n      swap13\n      swap3\n      swap12\n      pop\n      swap1\n      swap10\n      pop\n      swap8\n      pop\n        /* \"Staking.sol\":14062:14088  user.deposits[index].ended */\n      0xff\n      swap1\n      swap2\n      and\n      swap6\n      pop\n        /* \"Staking.sol\":13568:14107  function getUserDepositInfo(address userAddress, uint256 index)... */\n      swap4\n      pop\n      pop\n      pop\n      pop\n      jump\t// out\n        /* \"@openzeppelin/contracts/access/Ownable.sol\":1918:2116  function transferOwnership(address newOwner) public virtual onlyOwner {... */\n    tag_119:\n        /* \"@openzeppelin/contracts/access/Ownable.sol\":1082:1089  address */\n      0x00\n        /* \"@openzeppelin/contracts/access/Ownable.sol\":1108:1114  _owner */\n      sload\n      sub(shl(0xa0, 0x01), 0x01)\n      and\n        /* \"@openzeppelin/contracts/utils/Context.sol\":719:729  msg.sender */\n      caller\n        /* \"@openzeppelin/contracts/access/Ownable.sol\":1248:1271  owner() == _msgSender() */\n      eq\n        /* \"@openzeppelin/contracts/access/Ownable.sol\":1240:1308  require(owner() == _msgSender(), \"Ownable: caller is not the owner\") */\n      tag_394\n      jumpi\n      mload(0x40)\n      shl(0xe5, 0x461bcd)\n      dup2\n      mstore\n        /* \"#utility.yul\":3408:3410   */\n      0x20\n        /* \"@openzeppelin/contracts/access/Ownable.sol\":1240:1308  require(owner() == _msgSender(), \"Ownable: caller is not the owner\") */\n      0x04\n      dup3\n      add\n        /* \"#utility.yul\":3390:3411   */\n      dup2\n      swap1\n      mstore\n        /* \"#utility.yul\":3427:3445   */\n      0x24\n      dup3\n      add\n        /* \"#utility.yul\":3420:3450   */\n      mstore\n        /* \"#utility.yul\":3486:3520   */\n      0x4f776e61626c653a2063616c6c6572206973206e6f7420746865206f776e6572\n        /* \"#utility.yul\":3466:3484   */\n      0x44\n      dup3\n      add\n        /* \"#utility.yul\":3459:3521   */\n      mstore\n        /* \"#utility.yul\":3538:3556   */\n      0x64\n      add\n        /* \"@openzeppelin/contracts/access/Ownable.sol\":1240:1308  require(owner() == _msgSender(), \"Ownable: caller is not the owner\") */\n      tag_292\n        /* \"#utility.yul\":3206:3562   */\n      jump\n        /* \"@openzeppelin/contracts/access/Ownable.sol\":1240:1308  require(owner() == _msgSender(), \"Ownable: caller is not the owner\") */\n    tag_394:\n      sub(shl(0xa0, 0x01), 0x01)\n        /* \"@openzeppelin/contracts/access/Ownable.sol\":2006:2028  newOwner != address(0) */\n      dup2\n      and\n        /* \"@openzeppelin/contracts/access/Ownable.sol\":1998:2071  require(newOwner != address(0), \"Ownable: new owner is the zero address\") */\n      tag_397\n      jumpi\n      mload(0x40)\n      shl(0xe5, 0x461bcd)\n      dup2\n      mstore\n        /* \"#utility.yul\":4412:4414   */\n      0x20\n        /* \"@openzeppelin/contracts/access/Ownable.sol\":1998:2071  require(newOwner != address(0), \"Ownable: new owner is the zero address\") */\n      0x04\n      dup3\n      add\n        /* \"#utility.yul\":4394:4415   */\n      mstore\n        /* \"#utility.yul\":4451:4453   */\n      0x26\n        /* \"#utility.yul\":4431:4449   */\n      0x24\n      dup3\n      add\n        /* \"#utility.yul\":4424:4454   */\n      mstore\n        /* \"#utility.yul\":4490:4524   */\n      0x4f776e61626c653a206e6577206f776e657220697320746865207a65726f2061\n        /* \"#utility.yul\":4470:4488   */\n      0x44\n      dup3\n      add\n        /* \"#utility.yul\":4463:4525   */\n      mstore\n      shl(0xd0, 0x646472657373)\n        /* \"#utility.yul\":4541:4559   */\n      0x64\n      dup3\n      add\n        /* \"#utility.yul\":4534:4570   */\n      mstore\n        /* \"#utility.yul\":4587:4606   */\n      0x84\n      add\n        /* \"@openzeppelin/contracts/access/Ownable.sol\":1998:2071  require(newOwner != address(0), \"Ownable: new owner is the zero address\") */\n      tag_292\n        /* \"#utility.yul\":4210:4612   */\n      jump\n        /* \"@openzeppelin/contracts/access/Ownable.sol\":1998:2071  require(newOwner != address(0), \"Ownable: new owner is the zero address\") */\n    tag_397:\n        /* \"@openzeppelin/contracts/access/Ownable.sol\":2081:2109  _transferOwnership(newOwner) */\n      tag_400\n        /* \"@openzeppelin/contracts/access/Ownable.sol\":2100:2108  newOwner */\n      dup2\n        /* \"@openzeppelin/contracts/access/Ownable.sol\":2081:2099  _transferOwnership */\n      tag_317\n        /* \"@openzeppelin/contracts/access/Ownable.sol\":2081:2109  _transferOwnership(newOwner) */\n      jump\t// in\n    tag_400:\n        /* \"@openzeppelin/contracts/access/Ownable.sol\":1918:2116  function transferOwnership(address newOwner) public virtual onlyOwner {... */\n      pop\n      jump\t// out\n        /* \"Staking.sol\":6378:9640  function compound() public onlyhodler {... */\n    tag_121:\n        /* \"Staking.sol\":1194:1195  0 */\n      0x00\n        /* \"Staking.sol\":1163:1191  getUserDividends(msg.sender) */\n      tag_402\n        /* \"Staking.sol\":1180:1190  msg.sender */\n      caller\n        /* \"Staking.sol\":1163:1179  getUserDividends */\n      tag_44\n        /* \"Staking.sol\":1163:1191  getUserDividends(msg.sender) */\n      jump\t// in\n    tag_402:\n        /* \"Staking.sol\":1163:1195  getUserDividends(msg.sender) > 0 */\n      gt\n        /* \"Staking.sol\":1155:1210  require(getUserDividends(msg.sender) > 0, \"Not Holder\") */\n      tag_403\n      jumpi\n      mload(0x40)\n      shl(0xe5, 0x461bcd)\n      dup2\n      mstore\n        /* \"#utility.yul\":4819:4821   */\n      0x20\n        /* \"Staking.sol\":1155:1210  require(getUserDividends(msg.sender) > 0, \"Not Holder\") */\n      0x04\n      dup3\n      add\n        /* \"#utility.yul\":4801:4822   */\n      mstore\n        /* \"#utility.yul\":4858:4860   */\n      0x0a\n        /* \"#utility.yul\":4838:4856   */\n      0x24\n      dup3\n      add\n        /* \"#utility.yul\":4831:4861   */\n      mstore\n      shl(0xb1, 0x2737ba102437b63232b9)\n        /* \"#utility.yul\":4877:4895   */\n      0x44\n      dup3\n      add\n        /* \"#utility.yul\":4870:4910   */\n      mstore\n        /* \"#utility.yul\":4927:4945   */\n      0x64\n      add\n        /* \"Staking.sol\":1155:1210  require(getUserDividends(msg.sender) > 0, \"Not Holder\") */\n      tag_292\n        /* \"#utility.yul\":4617:4951   */\n      jump\n        /* \"Staking.sol\":1155:1210  require(getUserDividends(msg.sender) > 0, \"Not Holder\") */\n    tag_403:\n        /* \"Staking.sol\":6453:6463  msg.sender */\n      caller\n        /* \"Staking.sol\":6427:6444  User storage user */\n      0x00\n        /* \"Staking.sol\":6447:6464  users[msg.sender] */\n      dup2\n      dup2\n      mstore\n        /* \"Staking.sol\":6447:6452  users */\n      0x06\n        /* \"Staking.sol\":6447:6464  users[msg.sender] */\n      0x20\n      mstore\n      0x40\n      dup2\n      keccak256\n      swap2\n        /* \"Staking.sol\":6524:6552  getUserDividends(msg.sender) */\n      tag_407\n      swap1\n        /* \"Staking.sol\":6524:6540  getUserDividends */\n      tag_44\n        /* \"Staking.sol\":6524:6552  getUserDividends(msg.sender) */\n      jump\t// in\n    tag_407:\n        /* \"Staking.sol\":6503:6552  uint256 _dividends = getUserDividends(msg.sender) */\n      swap1\n      pop\n        /* \"Staking.sol\":6604:6623  uint256 totalAmount */\n      0x00\n        /* \"Staking.sol\":6634:6651  uint256 dividends */\n      dup1\n        /* \"Staking.sol\":6664:6668  user */\n      dup4\n        /* \"Staking.sol\":6664:6677  user.deposits */\n      0x00\n      add\n        /* \"Staking.sol\":6697:6877  Deposit(... */\n      mload(0x40)\n      dup1\n      0xa0\n      add\n      0x40\n      mstore\n      dup1\n        /* \"Staking.sol\":6723:6733  _dividends */\n      dup6\n        /* \"Staking.sol\":6697:6877  Deposit(... */\n      dup2\n      mstore\n      0x20\n      add\n        /* \"Staking.sol\":6752:6753  0 */\n      0x00\n        /* \"Staking.sol\":6697:6877  Deposit(... */\n      dup2\n      mstore\n      0x20\n      add\n        /* \"Staking.sol\":6772:6787  block.timestamp */\n      timestamp\n        /* \"Staking.sol\":6697:6877  Deposit(... */\n      dup2\n      mstore\n      0x20\n      add\n        /* \"Staking.sol\":570:578  180 days */\n      0xed4e00\n        /* \"Staking.sol\":6806:6821  block.timestamp */\n      timestamp\n        /* \"Staking.sol\":6806:6838  block.timestamp + STAKING_PERIOD */\n      tag_408\n      swap2\n      swap1\n      tag_367\n      jump\t// in\n    tag_408:\n        /* \"Staking.sol\":6697:6877  Deposit(... */\n      dup2\n      mstore\n        /* \"Staking.sol\":6857:6862  false */\n      0x00\n        /* \"Staking.sol\":6697:6877  Deposit(... */\n      0x20\n      swap2\n      dup3\n      add\n      dup2\n      swap1\n      mstore\n        /* \"Staking.sol\":6664:6888  user.deposits.push(... */\n      dup4\n      sload\n        /* \"Staking.sol\":6697:6877  Deposit(... */\n      0x01\n        /* \"Staking.sol\":6664:6888  user.deposits.push(... */\n      dup1\n      dup3\n      add\n      dup7\n      sstore\n      swap5\n      dup3\n      mstore\n      dup3\n      dup3\n      keccak256\n      dup5\n      mload\n      0x05\n      swap1\n      swap3\n      mul\n      add\n      swap1\n      dup2\n      sstore\n      swap2\n      dup4\n      add\n      mload\n      swap4\n      dup3\n      add\n      swap4\n      swap1\n      swap4\n      sstore\n      0x40\n      dup3\n      add\n      mload\n      0x02\n      dup3\n      add\n      sstore\n      0x60\n      dup3\n      add\n      mload\n      0x03\n      dup3\n      add\n      sstore\n      0x80\n      swap1\n      swap2\n      add\n      mload\n      0x04\n      swap1\n      swap2\n      add\n      dup1\n      sload\n      not(0xff)\n      and\n      swap2\n      iszero\n      iszero\n      swap2\n      swap1\n      swap2\n      or\n      swap1\n      sstore\n        /* \"Staking.sol\":6901:9342  for (uint256 i = 0; i < user.deposits.length; i++) {... */\n    tag_410:\n        /* \"Staking.sol\":6925:6945  user.deposits.length */\n      dup5\n      sload\n        /* \"Staking.sol\":6921:6945  i < user.deposits.length */\n      dup2\n      lt\n        /* \"Staking.sol\":6901:9342  for (uint256 i = 0; i < user.deposits.length; i++) {... */\n      iszero\n      tag_411\n      jumpi\n        /* \"Staking.sol\":6971:6975  user */\n      dup5\n        /* \"Staking.sol\":6971:6984  user.deposits */\n      0x00\n      add\n        /* \"Staking.sol\":6985:6986  i */\n      dup2\n        /* \"Staking.sol\":6971:6987  user.deposits[i] */\n      dup2\n      sload\n      dup2\n      lt\n      tag_414\n      jumpi\n      tag_414\n      tag_132\n      jump\t// in\n    tag_414:\n      0x00\n      swap2\n      dup3\n      mstore\n      0x20\n      swap1\n      swap2\n      keccak256\n        /* \"Staking.sol\":6971:6993  user.deposits[i].ended */\n      0x04\n        /* \"Staking.sol\":6971:6987  user.deposits[i] */\n      0x05\n      swap1\n      swap3\n      mul\n      add\n        /* \"Staking.sol\":6971:6993  user.deposits[i].ended */\n      add\n      sload\n      0xff\n      and\n        /* \"Staking.sol\":6967:9331  if (user.deposits[i].ended == false) {... */\n      tag_416\n      jumpi\n        /* \"Staking.sol\":7054:7069  block.timestamp */\n      timestamp\n        /* \"Staking.sol\":7027:7031  user */\n      dup6\n        /* \"Staking.sol\":7027:7040  user.deposits */\n      0x00\n      add\n        /* \"Staking.sol\":7041:7042  i */\n      dup3\n        /* \"Staking.sol\":7027:7043  user.deposits[i] */\n      dup2\n      sload\n      dup2\n      lt\n      tag_418\n      jumpi\n      tag_418\n      tag_132\n      jump\t// in\n    tag_418:\n      swap1\n      0x00\n      mstore\n      keccak256(0x00, 0x20)\n      swap1\n      0x05\n      mul\n      add\n        /* \"Staking.sol\":7027:7051  user.deposits[i].endTime */\n      0x03\n      add\n      sload\n        /* \"Staking.sol\":7027:7069  user.deposits[i].endTime > block.timestamp */\n      gt\n        /* \"Staking.sol\":7023:9097  if (user.deposits[i].endTime > block.timestamp) {... */\n      iszero\n      tag_420\n      jumpi\n        /* \"Staking.sol\":7127:7131  user */\n      dup5\n        /* \"Staking.sol\":7127:7142  user.checkpoint */\n      0x01\n      add\n      sload\n        /* \"Staking.sol\":7098:7102  user */\n      dup6\n        /* \"Staking.sol\":7098:7111  user.deposits */\n      0x00\n      add\n        /* \"Staking.sol\":7112:7113  i */\n      dup3\n        /* \"Staking.sol\":7098:7114  user.deposits[i] */\n      dup2\n      sload\n      dup2\n      lt\n      tag_422\n      jumpi\n      tag_422\n      tag_132\n      jump\t// in\n    tag_422:\n      swap1\n      0x00\n      mstore\n      keccak256(0x00, 0x20)\n      swap1\n      0x05\n      mul\n      add\n        /* \"Staking.sol\":7098:7124  user.deposits[i].startTime */\n      0x02\n      add\n      sload\n        /* \"Staking.sol\":7098:7142  user.deposits[i].startTime > user.checkpoint */\n      gt\n        /* \"Staking.sol\":7094:7963  if (user.deposits[i].startTime > user.checkpoint) {... */\n      iszero\n      tag_424\n      jumpi\n        /* \"Staking.sol\":7183:7562  (... */\n      tag_425\n        /* \"Staking.sol\":516:522  1 days */\n      0x015180\n        /* \"Staking.sol\":7183:7517  (... */\n      tag_151\n        /* \"Staking.sol\":7439:7486  block.timestamp.sub(user.deposits[i].startTime) */\n      tag_427\n        /* \"Staking.sol\":7459:7463  user */\n      dup9\n        /* \"Staking.sol\":7459:7472  user.deposits */\n      0x00\n      add\n        /* \"Staking.sol\":7473:7474  i */\n      dup6\n        /* \"Staking.sol\":7459:7475  user.deposits[i] */\n      dup2\n      sload\n      dup2\n      lt\n      tag_147\n      jumpi\n      tag_147\n      tag_132\n      jump\t// in\n        /* \"Staking.sol\":7439:7486  block.timestamp.sub(user.deposits[i].startTime) */\n    tag_427:\n        /* \"Staking.sol\":7214:7343  user.deposits[i].amount.mul(PERCENTS_DAILY).div(... */\n      tag_150\n        /* \"Staking.sol\":365:369  1000 */\n      0x03e8\n        /* \"Staking.sol\":7214:7257  user.deposits[i].amount.mul(PERCENTS_DAILY) */\n      tag_151\n        /* \"Staking.sol\":417:419  15 */\n      0x0f\n        /* \"Staking.sol\":7214:7218  user */\n      dup13\n        /* \"Staking.sol\":7214:7227  user.deposits */\n      0x00\n      add\n        /* \"Staking.sol\":7228:7229  i */\n      dup10\n        /* \"Staking.sol\":7214:7230  user.deposits[i] */\n      dup2\n      sload\n      dup2\n      lt\n      tag_153\n      jumpi\n      tag_153\n      tag_132\n      jump\t// in\n        /* \"Staking.sol\":7183:7562  (... */\n    tag_425:\n        /* \"Staking.sol\":7171:7562  dividends = (... */\n      swap2\n      pop\n        /* \"Staking.sol\":7023:9097  if (user.deposits[i].endTime > block.timestamp) {... */\n      jump(tag_467)\n        /* \"Staking.sol\":7094:7963  if (user.deposits[i].startTime > user.checkpoint) {... */\n    tag_424:\n        /* \"Staking.sol\":7631:7939  (... */\n      tag_425\n        /* \"Staking.sol\":516:522  1 days */\n      0x015180\n        /* \"Staking.sol\":7631:7860  (... */\n      tag_151\n        /* \"Staking.sol\":7823:7859  block.timestamp.sub(user.checkpoint) */\n      tag_427\n        /* \"Staking.sol\":7843:7847  user */\n      dup9\n        /* \"Staking.sol\":7843:7858  user.checkpoint */\n      0x01\n      add\n      sload\n        /* \"Staking.sol\":7823:7838  block.timestamp */\n      timestamp\n        /* \"Staking.sol\":7823:7842  block.timestamp.sub */\n      tag_149\n      swap1\n        /* \"Staking.sol\":7823:7859  block.timestamp.sub(user.checkpoint) */\n      swap2\n      swap1\n      0xffffffff\n      and\n      jump\t// in\n        /* \"Staking.sol\":7023:9097  if (user.deposits[i].endTime > block.timestamp) {... */\n    tag_420:\n        /* \"Staking.sol\":8044:8048  user */\n      dup5\n        /* \"Staking.sol\":8044:8059  user.checkpoint */\n      0x01\n      add\n      sload\n        /* \"Staking.sol\":8015:8019  user */\n      dup6\n        /* \"Staking.sol\":8015:8028  user.deposits */\n      0x00\n      add\n        /* \"Staking.sol\":8029:8030  i */\n      dup3\n        /* \"Staking.sol\":8015:8031  user.deposits[i] */\n      dup2\n      sload\n      dup2\n      lt\n      tag_447\n      jumpi\n      tag_447\n      tag_132\n      jump\t// in\n    tag_447:\n      swap1\n      0x00\n      mstore\n      keccak256(0x00, 0x20)\n      swap1\n      0x05\n      mul\n      add\n        /* \"Staking.sol\":8015:8041  user.deposits[i].startTime */\n      0x02\n      add\n      sload\n        /* \"Staking.sol\":8015:8059  user.deposits[i].startTime > user.checkpoint */\n      gt\n        /* \"Staking.sol\":8011:9078  if (user.deposits[i].startTime > user.checkpoint) {... */\n      iszero\n      tag_449\n      jumpi\n        /* \"Staking.sol\":8100:8560  (... */\n      tag_450\n        /* \"Staking.sol\":516:522  1 days */\n      0x015180\n        /* \"Staking.sol\":8100:8515  (... */\n      tag_151\n        /* \"Staking.sol\":8356:8484  user.deposits[i].endTime.sub(... */\n      tag_427\n        /* \"Staking.sol\":8423:8427  user */\n      dup9\n        /* \"Staking.sol\":8423:8436  user.deposits */\n      0x00\n      add\n        /* \"Staking.sol\":8437:8438  i */\n      dup6\n        /* \"Staking.sol\":8423:8439  user.deposits[i] */\n      dup2\n      sload\n      dup2\n      lt\n      tag_454\n      jumpi\n      tag_454\n      tag_132\n      jump\t// in\n    tag_454:\n      swap1\n      0x00\n      mstore\n      keccak256(0x00, 0x20)\n      swap1\n      0x05\n      mul\n      add\n        /* \"Staking.sol\":8423:8449  user.deposits[i].startTime */\n      0x02\n      add\n      sload\n        /* \"Staking.sol\":8356:8360  user */\n      dup10\n        /* \"Staking.sol\":8356:8369  user.deposits */\n      0x00\n      add\n        /* \"Staking.sol\":8370:8371  i */\n      dup7\n        /* \"Staking.sol\":8356:8372  user.deposits[i] */\n      dup2\n      sload\n      dup2\n      lt\n      tag_178\n      jumpi\n      tag_178\n      tag_132\n      jump\t// in\n        /* \"Staking.sol\":8100:8560  (... */\n    tag_450:\n        /* \"Staking.sol\":8088:8560  dividends = (... */\n      swap2\n      pop\n        /* \"Staking.sol\":8612:8616  true */\n      0x01\n        /* \"Staking.sol\":8587:8591  user */\n      dup6\n        /* \"Staking.sol\":8587:8600  user.deposits */\n      0x00\n      add\n        /* \"Staking.sol\":8601:8602  i */\n      dup3\n        /* \"Staking.sol\":8587:8603  user.deposits[i] */\n      dup2\n      sload\n      dup2\n      lt\n      tag_465\n      jumpi\n      tag_465\n      tag_132\n      jump\t// in\n    tag_465:\n      0x00\n      swap2\n      dup3\n      mstore\n      0x20\n      swap1\n      swap2\n      keccak256\n      0x05\n      swap1\n      swap2\n      mul\n      add\n        /* \"Staking.sol\":8587:8609  user.deposits[i].ended */\n      0x04\n      add\n        /* \"Staking.sol\":8587:8616  user.deposits[i].ended = true */\n      dup1\n      sload\n      not(0xff)\n      and\n      swap2\n      iszero\n      iszero\n      swap2\n      swap1\n      swap2\n      or\n      swap1\n      sstore\n        /* \"Staking.sol\":8011:9078  if (user.deposits[i].startTime > user.checkpoint) {... */\n      jump(tag_467)\n    tag_449:\n        /* \"Staking.sol\":8685:8998  (... */\n      tag_468\n        /* \"Staking.sol\":516:522  1 days */\n      0x015180\n        /* \"Staking.sol\":8685:8953  (... */\n      tag_151\n        /* \"Staking.sol\":8907:8952  user.deposits[i].endTime.sub(user.checkpoint) */\n      tag_427\n        /* \"Staking.sol\":8936:8940  user */\n      dup9\n        /* \"Staking.sol\":8936:8951  user.checkpoint */\n      0x01\n      add\n      sload\n        /* \"Staking.sol\":8907:8911  user */\n      dup10\n        /* \"Staking.sol\":8907:8920  user.deposits */\n      0x00\n      add\n        /* \"Staking.sol\":8921:8922  i */\n      dup7\n        /* \"Staking.sol\":8907:8923  user.deposits[i] */\n      dup2\n      sload\n      dup2\n      lt\n      tag_178\n      jumpi\n      tag_178\n      tag_132\n      jump\t// in\n        /* \"Staking.sol\":8685:8998  (... */\n    tag_468:\n        /* \"Staking.sol\":8673:8998  dividends = (... */\n      swap2\n      pop\n        /* \"Staking.sol\":9050:9054  true */\n      0x01\n        /* \"Staking.sol\":9025:9029  user */\n      dup6\n        /* \"Staking.sol\":9025:9038  user.deposits */\n      0x00\n      add\n        /* \"Staking.sol\":9039:9040  i */\n      dup3\n        /* \"Staking.sol\":9025:9041  user.deposits[i] */\n      dup2\n      sload\n      dup2\n      lt\n      tag_480\n      jumpi\n      tag_480\n      tag_132\n      jump\t// in\n    tag_480:\n      0x00\n      swap2\n      dup3\n      mstore\n      0x20\n      swap1\n      swap2\n      keccak256\n      0x05\n      swap1\n      swap2\n      mul\n      add\n        /* \"Staking.sol\":9025:9047  user.deposits[i].ended */\n      0x04\n      add\n        /* \"Staking.sol\":9025:9054  user.deposits[i].ended = true */\n      dup1\n      sload\n      not(0xff)\n      and\n      swap2\n      iszero\n      iszero\n      swap2\n      swap1\n      swap2\n      or\n      swap1\n      sstore\n        /* \"Staking.sol\":8011:9078  if (user.deposits[i].startTime > user.checkpoint) {... */\n    tag_467:\n        /* \"Staking.sol\":9146:9227  user.deposits[i].withdrawn.add(... */\n      tag_482\n        /* \"Staking.sol\":9199:9208  dividends */\n      dup3\n        /* \"Staking.sol\":9146:9150  user */\n      dup7\n        /* \"Staking.sol\":9146:9159  user.deposits */\n      0x00\n      add\n        /* \"Staking.sol\":9160:9161  i */\n      dup4\n        /* \"Staking.sol\":9146:9162  user.deposits[i] */\n      dup2\n      sload\n      dup2\n      lt\n      tag_281\n      jumpi\n      tag_281\n      tag_132\n      jump\t// in\n        /* \"Staking.sol\":9146:9227  user.deposits[i].withdrawn.add(... */\n    tag_482:\n        /* \"Staking.sol\":9117:9121  user */\n      dup6\n        /* \"Staking.sol\":9117:9130  user.deposits */\n      0x00\n      add\n        /* \"Staking.sol\":9131:9132  i */\n      dup3\n        /* \"Staking.sol\":9117:9133  user.deposits[i] */\n      dup2\n      sload\n      dup2\n      lt\n      tag_487\n      jumpi\n      tag_487\n      tag_132\n      jump\t// in\n    tag_487:\n      0x00\n      swap2\n      dup3\n      mstore\n      0x20\n      swap1\n      swap2\n      keccak256\n        /* \"Staking.sol\":9117:9143  user.deposits[i].withdrawn */\n      0x01\n        /* \"Staking.sol\":9117:9133  user.deposits[i] */\n      0x05\n      swap1\n      swap3\n      mul\n      add\n        /* \"Staking.sol\":9117:9143  user.deposits[i].withdrawn */\n      add\n        /* \"Staking.sol\":9117:9227  user.deposits[i].withdrawn = user.deposits[i].withdrawn.add(... */\n      sstore\n        /* \"Staking.sol\":9289:9315  totalAmount.add(dividends) */\n      tag_489\n        /* \"Staking.sol\":9289:9300  totalAmount */\n      dup4\n        /* \"Staking.sol\":9305:9314  dividends */\n      dup4\n        /* \"Staking.sol\":9289:9304  totalAmount.add */\n      tag_198\n        /* \"Staking.sol\":9289:9315  totalAmount.add(dividends) */\n      jump\t// in\n    tag_489:\n        /* \"Staking.sol\":9275:9315  totalAmount = totalAmount.add(dividends) */\n      swap3\n      pop\n        /* \"Staking.sol\":6967:9331  if (user.deposits[i].ended == false) {... */\n    tag_416:\n        /* \"Staking.sol\":6947:6950  i++ */\n      dup1\n      tag_490\n      dup2\n      tag_200\n      jump\t// in\n    tag_490:\n      swap2\n      pop\n      pop\n        /* \"Staking.sol\":6901:9342  for (uint256 i = 0; i < user.deposits.length; i++) {... */\n      jump(tag_410)\n    tag_411:\n      pop\n        /* \"Staking.sol\":9372:9387  block.timestamp */\n      timestamp\n        /* \"Staking.sol\":9354:9369  user.checkpoint */\n      0x01\n      dup6\n      add\n        /* \"Staking.sol\":9354:9387  user.checkpoint = block.timestamp */\n      sstore\n        /* \"Staking.sol\":9414:9425  totalStaked */\n      sload(0x03)\n        /* \"Staking.sol\":9414:9441  totalStaked.add(_dividends) */\n      tag_491\n      swap1\n        /* \"Staking.sol\":9430:9440  _dividends */\n      dup5\n        /* \"Staking.sol\":9414:9429  totalStaked.add */\n      tag_198\n        /* \"Staking.sol\":9414:9441  totalStaked.add(_dividends) */\n      jump\t// in\n    tag_491:\n        /* \"Staking.sol\":9400:9411  totalStaked */\n      0x03\n        /* \"Staking.sol\":9400:9441  totalStaked = totalStaked.add(_dividends) */\n      sstore\n        /* \"Staking.sol\":9472:9489  totalDepositCount */\n      sload(0x05)\n        /* \"Staking.sol\":9472:9496  totalDepositCount.add(1) */\n      tag_492\n      swap1\n        /* \"Staking.sol\":9494:9495  1 */\n      0x01\n        /* \"Staking.sol\":9472:9493  totalDepositCount.add */\n      tag_198\n        /* \"Staking.sol\":9472:9496  totalDepositCount.add(1) */\n      jump\t// in\n    tag_492:\n        /* \"Staking.sol\":9452:9469  totalDepositCount */\n      0x05\n        /* \"Staking.sol\":9452:9496  totalDepositCount = totalDepositCount.add(1) */\n      sstore\n        /* \"Staking.sol\":9524:9538  totalWithdrawn */\n      sload(0x04)\n        /* \"Staking.sol\":9524:9555  totalWithdrawn.add(totalAmount) */\n      tag_493\n      swap1\n        /* \"Staking.sol\":9543:9554  totalAmount */\n      dup4\n        /* \"Staking.sol\":9524:9542  totalWithdrawn.add */\n      tag_198\n        /* \"Staking.sol\":9524:9555  totalWithdrawn.add(totalAmount) */\n      jump\t// in\n    tag_493:\n        /* \"Staking.sol\":9507:9521  totalWithdrawn */\n      0x04\n        /* \"Staking.sol\":9507:9555  totalWithdrawn = totalWithdrawn.add(totalAmount) */\n      sstore\n        /* \"Staking.sol\":9594:9632  onReinvestment(msg.sender, _dividends) */\n      mload(0x40)\n        /* \"#utility.yul\":160:185   */\n      dup4\n      dup2\n      mstore\n        /* \"Staking.sol\":9609:9619  msg.sender */\n      caller\n      swap1\n        /* \"Staking.sol\":9594:9632  onReinvestment(msg.sender, _dividends) */\n      0x5d511c2070e5a2dbcc6fbfbb3fd6704a11ab5fa74b793b81aacece2c7cc29405\n      swap1\n        /* \"#utility.yul\":148:150   */\n      0x20\n        /* \"#utility.yul\":133:151   */\n      add\n        /* \"Staking.sol\":9594:9632  onReinvestment(msg.sender, _dividends) */\n      mload(0x40)\n      dup1\n      swap2\n      sub\n      swap1\n      log2\n        /* \"Staking.sol\":6416:9640  {... */\n      pop\n      pop\n      pop\n      pop\n        /* \"Staking.sol\":6378:9640  function compound() public onlyhodler {... */\n      jump\t// out\n        /* \"Staking.sol\":14664:15025  function getUserTotalWithdrawn(address userAddress)... */\n    tag_124:\n      sub(shl(0xa0, 0x01), 0x01)\n        /* \"Staking.sol\":14809:14827  users[userAddress] */\n      dup2\n      and\n        /* \"Staking.sol\":14764:14771  uint256 */\n      0x00\n        /* \"Staking.sol\":14809:14827  users[userAddress] */\n      swap1\n      dup2\n      mstore\n        /* \"Staking.sol\":14809:14814  users */\n      0x06\n        /* \"Staking.sol\":14809:14827  users[userAddress] */\n      0x20\n      mstore\n      0x40\n      dup2\n      keccak256\n        /* \"Staking.sol\":14764:14771  uint256 */\n      dup2\n      dup1\n        /* \"Staking.sol\":14867:14992  for (uint256 i = 0; i < user.deposits.length; i++) {... */\n    tag_496:\n        /* \"Staking.sol\":14891:14911  user.deposits.length */\n      dup3\n      sload\n        /* \"Staking.sol\":14887:14911  i < user.deposits.length */\n      dup2\n      lt\n        /* \"Staking.sol\":14867:14992  for (uint256 i = 0; i < user.deposits.length; i++) {... */\n      iszero\n      tag_320\n      jumpi\n        /* \"Staking.sol\":14942:14980  amount.add(user.deposits[i].withdrawn) */\n      tag_499\n        /* \"Staking.sol\":14953:14957  user */\n      dup4\n        /* \"Staking.sol\":14953:14966  user.deposits */\n      0x00\n      add\n        /* \"Staking.sol\":14967:14968  i */\n      dup3\n        /* \"Staking.sol\":14953:14969  user.deposits[i] */\n      dup2\n      sload\n      dup2\n      lt\n      tag_501\n      jumpi\n      tag_501\n      tag_132\n      jump\t// in\n    tag_501:\n      swap1\n      0x00\n      mstore\n      keccak256(0x00, 0x20)\n      swap1\n      0x05\n      mul\n      add\n        /* \"Staking.sol\":14953:14979  user.deposits[i].withdrawn */\n      0x01\n      add\n      sload\n        /* \"Staking.sol\":14942:14948  amount */\n      dup4\n        /* \"Staking.sol\":14942:14952  amount.add */\n      tag_198\n      swap1\n        /* \"Staking.sol\":14942:14980  amount.add(user.deposits[i].withdrawn) */\n      swap2\n      swap1\n      0xffffffff\n      and\n      jump\t// in\n    tag_499:\n        /* \"Staking.sol\":14933:14980  amount = amount.add(user.deposits[i].withdrawn) */\n      swap2\n      pop\n        /* \"Staking.sol\":14913:14916  i++ */\n      dup1\n      tag_503\n      dup2\n      tag_200\n      jump\t// in\n    tag_503:\n      swap2\n      pop\n      pop\n        /* \"Staking.sol\":14867:14992  for (uint256 i = 0; i < user.deposits.length; i++) {... */\n      jump(tag_496)\n        /* \"@openzeppelin/contracts/utils/math/SafeMath.sol\":3122:3218  function sub(uint256 a, uint256 b) internal pure returns (uint256) {... */\n    tag_149:\n        /* \"@openzeppelin/contracts/utils/math/SafeMath.sol\":3180:3187  uint256 */\n      0x00\n        /* \"@openzeppelin/contracts/utils/math/SafeMath.sol\":3206:3211  a - b */\n      tag_505\n        /* \"@openzeppelin/contracts/utils/math/SafeMath.sol\":3210:3211  b */\n      dup3\n        /* \"@openzeppelin/contracts/utils/math/SafeMath.sol\":3206:3207  a */\n      dup5\n        /* \"@openzeppelin/contracts/utils/math/SafeMath.sol\":3206:3211  a - b */\n      tag_333\n      jump\t// in\n    tag_505:\n        /* \"@openzeppelin/contracts/utils/math/SafeMath.sol\":3199:3211  return a - b */\n      swap4\n        /* \"@openzeppelin/contracts/utils/math/SafeMath.sol\":3122:3218  function sub(uint256 a, uint256 b) internal pure returns (uint256) {... */\n      swap3\n      pop\n      pop\n      pop\n      jump\t// out\n        /* \"@openzeppelin/contracts/utils/math/SafeMath.sol\":3465:3561  function mul(uint256 a, uint256 b) internal pure returns (uint256) {... */\n    tag_155:\n        /* \"@openzeppelin/contracts/utils/math/SafeMath.sol\":3523:3530  uint256 */\n      0x00\n        /* \"@openzeppelin/contracts/utils/math/SafeMath.sol\":3549:3554  a * b */\n      tag_505\n        /* \"@openzeppelin/contracts/utils/math/SafeMath.sol\":3553:3554  b */\n      dup3\n        /* \"@openzeppelin/contracts/utils/math/SafeMath.sol\":3549:3550  a */\n      dup5\n        /* \"@openzeppelin/contracts/utils/math/SafeMath.sol\":3549:3554  a * b */\n      tag_508\n      jump\t// in\n        /* \"@openzeppelin/contracts/utils/math/SafeMath.sol\":3850:3946  function div(uint256 a, uint256 b) internal pure returns (uint256) {... */\n    tag_156:\n        /* \"@openzeppelin/contracts/utils/math/SafeMath.sol\":3908:3915  uint256 */\n      0x00\n        /* \"@openzeppelin/contracts/utils/math/SafeMath.sol\":3934:3939  a / b */\n      tag_505\n        /* \"@openzeppelin/contracts/utils/math/SafeMath.sol\":3938:3939  b */\n      dup3\n        /* \"@openzeppelin/contracts/utils/math/SafeMath.sol\":3934:3935  a */\n      dup5\n        /* \"@openzeppelin/contracts/utils/math/SafeMath.sol\":3934:3939  a / b */\n      tag_511\n      jump\t// in\n        /* \"@openzeppelin/contracts/utils/math/SafeMath.sol\":2755:2851  function add(uint256 a, uint256 b) internal pure returns (uint256) {... */\n    tag_198:\n        /* \"@openzeppelin/contracts/utils/math/SafeMath.sol\":2813:2820  uint256 */\n      0x00\n        /* \"@openzeppelin/contracts/utils/math/SafeMath.sol\":2839:2844  a + b */\n      tag_505\n        /* \"@openzeppelin/contracts/utils/math/SafeMath.sol\":2843:2844  b */\n      dup3\n        /* \"@openzeppelin/contracts/utils/math/SafeMath.sol\":2839:2840  a */\n      dup5\n        /* \"@openzeppelin/contracts/utils/math/SafeMath.sol\":2839:2844  a + b */\n      tag_367\n      jump\t// in\n        /* \"@openzeppelin/contracts/access/Ownable.sol\":2270:2457  function _transferOwnership(address newOwner) internal virtual {... */\n    tag_317:\n        /* \"@openzeppelin/contracts/access/Ownable.sol\":2343:2359  address oldOwner */\n      0x00\n        /* \"@openzeppelin/contracts/access/Ownable.sol\":2362:2368  _owner */\n      dup1\n      sload\n      sub(shl(0xa0, 0x01), 0x01)\n        /* \"@openzeppelin/contracts/access/Ownable.sol\":2378:2395  _owner = newOwner */\n      dup4\n      dup2\n      and\n      not(sub(shl(0xa0, 0x01), 0x01))\n      dup4\n      and\n      dup2\n      or\n      dup5\n      sstore\n        /* \"@openzeppelin/contracts/access/Ownable.sol\":2410:2450  OwnershipTransferred(oldOwner, newOwner) */\n      mload(0x40)\n        /* \"@openzeppelin/contracts/access/Ownable.sol\":2362:2368  _owner */\n      swap2\n      swap1\n      swap3\n      and\n      swap3\n      dup4\n      swap2\n        /* \"@openzeppelin/contracts/access/Ownable.sol\":2410:2450  OwnershipTransferred(oldOwner, newOwner) */\n      0x8be0079c531659141344cd1fd0a4f28419497f9722a3daafe3b4186f6b6457e0\n      swap2\n        /* \"@openzeppelin/contracts/access/Ownable.sol\":2343:2359  address oldOwner */\n      swap1\n        /* \"@openzeppelin/contracts/access/Ownable.sol\":2410:2450  OwnershipTransferred(oldOwner, newOwner) */\n      log3\n        /* \"@openzeppelin/contracts/access/Ownable.sol\":2333:2457  {... */\n      pop\n        /* \"@openzeppelin/contracts/access/Ownable.sol\":2270:2457  function _transferOwnership(address newOwner) internal virtual {... */\n      pop\n      jump\t// out\n        /* \"#utility.yul\":196:369   */\n    tag_516:\n        /* \"#utility.yul\":264:284   */\n      dup1\n      calldataload\n      sub(shl(0xa0, 0x01), 0x01)\n        /* \"#utility.yul\":313:344   */\n      dup2\n      and\n        /* \"#utility.yul\":303:345   */\n      dup2\n      eq\n        /* \"#utility.yul\":293:363   */\n      tag_521\n      jumpi\n        /* \"#utility.yul\":359:360   */\n      0x00\n        /* \"#utility.yul\":356:357   */\n      dup1\n        /* \"#utility.yul\":349:361   */\n      revert\n        /* \"#utility.yul\":293:363   */\n    tag_521:\n        /* \"#utility.yul\":196:369   */\n      swap2\n      swap1\n      pop\n      jump\t// out\n        /* \"#utility.yul\":374:560   */\n    tag_43:\n        /* \"#utility.yul\":433:439   */\n      0x00\n        /* \"#utility.yul\":486:488   */\n      0x20\n        /* \"#utility.yul\":474:483   */\n      dup3\n        /* \"#utility.yul\":465:472   */\n      dup5\n        /* \"#utility.yul\":461:484   */\n      sub\n        /* \"#utility.yul\":457:489   */\n      slt\n        /* \"#utility.yul\":454:506   */\n      iszero\n      tag_523\n      jumpi\n        /* \"#utility.yul\":502:503   */\n      0x00\n        /* \"#utility.yul\":499:500   */\n      dup1\n        /* \"#utility.yul\":492:504   */\n      revert\n        /* \"#utility.yul\":454:506   */\n    tag_523:\n        /* \"#utility.yul\":525:554   */\n      tag_505\n        /* \"#utility.yul\":544:553   */\n      dup3\n        /* \"#utility.yul\":525:554   */\n      tag_516\n      jump\t// in\n        /* \"#utility.yul\":965:1219   */\n    tag_92:\n        /* \"#utility.yul\":1033:1039   */\n      0x00\n        /* \"#utility.yul\":1041:1047   */\n      dup1\n        /* \"#utility.yul\":1094:1096   */\n      0x40\n        /* \"#utility.yul\":1082:1091   */\n      dup4\n        /* \"#utility.yul\":1073:1080   */\n      dup6\n        /* \"#utility.yul\":1069:1092   */\n      sub\n        /* \"#utility.yul\":1065:1097   */\n      slt\n        /* \"#utility.yul\":1062:1114   */\n      iszero\n      tag_528\n      jumpi\n        /* \"#utility.yul\":1110:1111   */\n      0x00\n        /* \"#utility.yul\":1107:1108   */\n      dup1\n        /* \"#utility.yul\":1100:1112   */\n      revert\n        /* \"#utility.yul\":1062:1114   */\n    tag_528:\n        /* \"#utility.yul\":1133:1162   */\n      tag_529\n        /* \"#utility.yul\":1152:1161   */\n      dup4\n        /* \"#utility.yul\":1133:1162   */\n      tag_516\n      jump\t// in\n    tag_529:\n        /* \"#utility.yul\":1123:1162   */\n      swap5\n        /* \"#utility.yul\":1209:1211   */\n      0x20\n        /* \"#utility.yul\":1194:1212   */\n      swap4\n      swap1\n      swap4\n      add\n        /* \"#utility.yul\":1181:1213   */\n      calldataload\n      swap4\n      pop\n      pop\n      pop\n        /* \"#utility.yul\":965:1219   */\n      jump\t// out\n        /* \"#utility.yul\":1702:1829   */\n    tag_132:\n        /* \"#utility.yul\":1763:1773   */\n      0x4e487b71\n        /* \"#utility.yul\":1758:1761   */\n      0xe0\n        /* \"#utility.yul\":1754:1774   */\n      shl\n        /* \"#utility.yul\":1751:1752   */\n      0x00\n        /* \"#utility.yul\":1744:1775   */\n      mstore\n        /* \"#utility.yul\":1794:1798   */\n      0x32\n        /* \"#utility.yul\":1791:1792   */\n      0x04\n        /* \"#utility.yul\":1784:1799   */\n      mstore\n        /* \"#utility.yul\":1818:1822   */\n      0x24\n        /* \"#utility.yul\":1815:1816   */\n      0x00\n        /* \"#utility.yul\":1808:1823   */\n      revert\n        /* \"#utility.yul\":1834:1961   */\n    tag_517:\n        /* \"#utility.yul\":1895:1905   */\n      0x4e487b71\n        /* \"#utility.yul\":1890:1893   */\n      0xe0\n        /* \"#utility.yul\":1886:1906   */\n      shl\n        /* \"#utility.yul\":1883:1884   */\n      0x00\n        /* \"#utility.yul\":1876:1907   */\n      mstore\n        /* \"#utility.yul\":1926:1930   */\n      0x11\n        /* \"#utility.yul\":1923:1924   */\n      0x04\n        /* \"#utility.yul\":1916:1931   */\n      mstore\n        /* \"#utility.yul\":1950:1954   */\n      0x24\n        /* \"#utility.yul\":1947:1948   */\n      0x00\n        /* \"#utility.yul\":1940:1955   */\n      revert\n        /* \"#utility.yul\":1966:2101   */\n    tag_200:\n        /* \"#utility.yul\":2005:2008   */\n      0x00\n      not(0x00)\n        /* \"#utility.yul\":2026:2043   */\n      dup3\n      eq\n        /* \"#utility.yul\":2023:2066   */\n      iszero\n      tag_535\n      jumpi\n        /* \"#utility.yul\":2046:2064   */\n      tag_535\n      tag_517\n      jump\t// in\n    tag_535:\n      pop\n        /* \"#utility.yul\":2093:2094   */\n      0x01\n        /* \"#utility.yul\":2082:2095   */\n      add\n      swap1\n        /* \"#utility.yul\":1966:2101   */\n      jump\t// out\n        /* \"#utility.yul\":2456:2640   */\n    tag_298:\n        /* \"#utility.yul\":2526:2532   */\n      0x00\n        /* \"#utility.yul\":2579:2581   */\n      0x20\n        /* \"#utility.yul\":2567:2576   */\n      dup3\n        /* \"#utility.yul\":2558:2565   */\n      dup5\n        /* \"#utility.yul\":2554:2577   */\n      sub\n        /* \"#utility.yul\":2550:2582   */\n      slt\n        /* \"#utility.yul\":2547:2599   */\n      iszero\n      tag_538\n      jumpi\n        /* \"#utility.yul\":2595:2596   */\n      0x00\n        /* \"#utility.yul\":2592:2593   */\n      dup1\n        /* \"#utility.yul\":2585:2597   */\n      revert\n        /* \"#utility.yul\":2547:2599   */\n    tag_538:\n      pop\n        /* \"#utility.yul\":2618:2634   */\n      mload\n      swap2\n        /* \"#utility.yul\":2456:2640   */\n      swap1\n      pop\n      jump\t// out\n        /* \"#utility.yul\":2924:3201   */\n    tag_305:\n        /* \"#utility.yul\":2991:2997   */\n      0x00\n        /* \"#utility.yul\":3044:3046   */\n      0x20\n        /* \"#utility.yul\":3032:3041   */\n      dup3\n        /* \"#utility.yul\":3023:3030   */\n      dup5\n        /* \"#utility.yul\":3019:3042   */\n      sub\n        /* \"#utility.yul\":3015:3047   */\n      slt\n        /* \"#utility.yul\":3012:3064   */\n      iszero\n      tag_541\n      jumpi\n        /* \"#utility.yul\":3060:3061   */\n      0x00\n        /* \"#utility.yul\":3057:3058   */\n      dup1\n        /* \"#utility.yul\":3050:3062   */\n      revert\n        /* \"#utility.yul\":3012:3064   */\n    tag_541:\n        /* \"#utility.yul\":3092:3101   */\n      dup2\n        /* \"#utility.yul\":3086:3102   */\n      mload\n        /* \"#utility.yul\":3145:3150   */\n      dup1\n        /* \"#utility.yul\":3138:3151   */\n      iszero\n        /* \"#utility.yul\":3131:3152   */\n      iszero\n        /* \"#utility.yul\":3124:3129   */\n      dup2\n        /* \"#utility.yul\":3121:3153   */\n      eq\n        /* \"#utility.yul\":3111:3171   */\n      tag_505\n      jumpi\n        /* \"#utility.yul\":3167:3168   */\n      0x00\n        /* \"#utility.yul\":3164:3165   */\n      dup1\n        /* \"#utility.yul\":3157:3169   */\n      revert\n        /* \"#utility.yul\":3567:3692   */\n    tag_333:\n        /* \"#utility.yul\":3607:3611   */\n      0x00\n        /* \"#utility.yul\":3635:3636   */\n      dup3\n        /* \"#utility.yul\":3632:3633   */\n      dup3\n        /* \"#utility.yul\":3629:3637   */\n      lt\n        /* \"#utility.yul\":3626:3660   */\n      iszero\n      tag_546\n      jumpi\n        /* \"#utility.yul\":3640:3658   */\n      tag_546\n      tag_517\n      jump\t// in\n    tag_546:\n      pop\n        /* \"#utility.yul\":3677:3686   */\n      sub\n      swap1\n        /* \"#utility.yul\":3567:3692   */\n      jump\t// out\n        /* \"#utility.yul\":4077:4205   */\n    tag_367:\n        /* \"#utility.yul\":4117:4120   */\n      0x00\n        /* \"#utility.yul\":4148:4149   */\n      dup3\n        /* \"#utility.yul\":4144:4150   */\n      not\n        /* \"#utility.yul\":4141:4142   */\n      dup3\n        /* \"#utility.yul\":4138:4151   */\n      gt\n        /* \"#utility.yul\":4135:4174   */\n      iszero\n      tag_550\n      jumpi\n        /* \"#utility.yul\":4154:4172   */\n      tag_550\n      tag_517\n      jump\t// in\n    tag_550:\n      pop\n        /* \"#utility.yul\":4190:4199   */\n      add\n      swap1\n        /* \"#utility.yul\":4077:4205   */\n      jump\t// out\n        /* \"#utility.yul\":4956:5124   */\n    tag_508:\n        /* \"#utility.yul\":4996:5003   */\n      0x00\n        /* \"#utility.yul\":5062:5063   */\n      dup2\n        /* \"#utility.yul\":5058:5059   */\n      0x00\n        /* \"#utility.yul\":5054:5060   */\n      not\n        /* \"#utility.yul\":5050:5064   */\n      div\n        /* \"#utility.yul\":5047:5048   */\n      dup4\n        /* \"#utility.yul\":5044:5065   */\n      gt\n        /* \"#utility.yul\":5039:5040   */\n      dup3\n        /* \"#utility.yul\":5032:5041   */\n      iszero\n        /* \"#utility.yul\":5025:5042   */\n      iszero\n        /* \"#utility.yul\":5021:5066   */\n      and\n        /* \"#utility.yul\":5018:5089   */\n      iszero\n      tag_555\n      jumpi\n        /* \"#utility.yul\":5069:5087   */\n      tag_555\n      tag_517\n      jump\t// in\n    tag_555:\n      pop\n        /* \"#utility.yul\":5109:5118   */\n      mul\n      swap1\n        /* \"#utility.yul\":4956:5124   */\n      jump\t// out\n        /* \"#utility.yul\":5129:5346   */\n    tag_511:\n        /* \"#utility.yul\":5169:5170   */\n      0x00\n        /* \"#utility.yul\":5195:5196   */\n      dup3\n        /* \"#utility.yul\":5185:5317   */\n      tag_557\n      jumpi\n        /* \"#utility.yul\":5239:5249   */\n      0x4e487b71\n        /* \"#utility.yul\":5234:5237   */\n      0xe0\n        /* \"#utility.yul\":5230:5250   */\n      shl\n        /* \"#utility.yul\":5227:5228   */\n      0x00\n        /* \"#utility.yul\":5220:5251   */\n      mstore\n        /* \"#utility.yul\":5274:5278   */\n      0x12\n        /* \"#utility.yul\":5271:5272   */\n      0x04\n        /* \"#utility.yul\":5264:5279   */\n      mstore\n        /* \"#utility.yul\":5302:5306   */\n      0x24\n        /* \"#utility.yul\":5299:5300   */\n      0x00\n        /* \"#utility.yul\":5292:5307   */\n      revert\n        /* \"#utility.yul\":5185:5317   */\n    tag_557:\n      pop\n        /* \"#utility.yul\":5331:5340   */\n      div\n      swap1\n        /* \"#utility.yul\":5129:5346   */\n      jump\t// out\n\n    auxdata: 0xa26469706673582212204a501c743942ebc3c52ef32a53f950339d647de5269cfafea43d131cc1a7c7e464736f6c634300080a0033\n}\n",
				"bytecode": {
					"linkReferences": {},
					"object": "608060405234801561001057600080fd5b5060405161183338038061183383398101604081905261002f916100ad565b6100383361005d565b600180546001600160a01b0319166001600160a01b03929092169190911790556100dd565b600080546001600160a01b038381166001600160a01b0319831681178455604051919092169283917f8be0079c531659141344cd1fd0a4f28419497f9722a3daafe3b4186f6b6457e09190a35050565b6000602082840312156100bf57600080fd5b81516001600160a01b03811681146100d657600080fd5b9392505050565b611747806100ec6000396000f3fe608060405234801561001057600080fd5b506004361061018e5760003560e01c80638da5cb5b116100de578063c8a22eb411610097578063e85abe0911610071578063e85abe091461038e578063f2fde38b146103ba578063f69e2046146103cd578063fb4cb32b146103d557600080fd5b8063c8a22eb41461032d578063d634386714610359578063d7ffca911461036257600080fd5b80638da5cb5b146102775780639f8a13d714610288578063a8aeb6c2146102ab578063adc9772e146102d4578063bff1f9e1146102e7578063c0806b03146102f057600080fd5b806336144c9a1161014b5780634e71d92d116101255780634e71d92d14610249578063715018a6146102535780637e3abeea1461025b578063817b1cd21461026e57600080fd5b806336144c9a146101f157806344038f90146102385780634b3197131461024057600080fd5b80630104db1b1461019357806301c234a8146101b0578063040a772e146101b9578063141a2a3f146101cc578063153ab9df146101d457806332bc298c146101e7575b600080fd5b61019d62ed4e0081565b6040519081526020015b60405180910390f35b61019d6103e881565b61019d6101c73660046115da565b6103e8565b61019d600f81565b61019d6101e23660046115da565b610639565b61019d6201518081565b6102206101ff3660046115da565b6001600160a01b039081166000908152600660205260409020600401541690565b6040516001600160a01b0390911681526020016101a7565b61019d607881565b61019d60045481565b61025161066f565b005b610251610a9d565b61019d6102693660046115da565b610b03565b61019d60035481565b6000546001600160a01b0316610220565b61029b6102963660046115da565b610b73565b60405190151581526020016101a7565b61019d6102b93660046115da565b6001600160a01b031660009081526006602052604090205490565b6102516102e23660046115f5565b610c0b565b61019d60025481565b6103036102fe3660046115f5565b610f16565b6040805195865260208601949094529284019190915260608301521515608082015260a0016101a7565b61019d61033b3660046115da565b6001600160a01b031660009081526006602052604090206003015490565b61019d60055481565b61019d6103703660046115da565b6001600160a01b031660009081526006602052604090206001015490565b61019d61039c3660046115da565b6001600160a01b031660009081526006602052604090206002015490565b6102516103c83660046115da565b611012565b6102516110dd565b61019d6103e33660046115da565b6114c6565b6001600160a01b03811660009081526006602052604081208180805b835481101561062f578360000181815481106104225761042261161f565b600091825260209091206004600590920201015460ff1661061d57428460000182815481106104535761045361161f565b906000526020600020906005020160030154111561054b5783600101548460000182815481106104855761048561161f565b906000526020600020906005020160020154111561052a57610523620151806105176104e08760000185815481106104bf576104bf61161f565b9060005260206000209060050201600201544261153790919063ffffffff16565b61051d6103e8610517600f8b60000189815481106105005761050061161f565b60009182526020909120600590910201549061154a565b90611556565b9061154a565b9150610610565b610523620151806105176104e087600101544261153790919063ffffffff16565b83600101548460000182815481106105655761056561161f565b90600052602060002090600502016002015411156105e657610523620151806105176104e087600001858154811061059f5761059f61161f565b9060005260206000209060050201600201548860000186815481106105c6576105c661161f565b90600052602060002090600502016003015461153790919063ffffffff16565b61060d620151806105176104e087600101548860000186815481106105c6576105c661161f565b91505b61061a8383611562565b92505b806106278161164b565b915050610404565b5090949350505050565b6000610669610647836103e8565b6001600160a01b03841660009081526006602052604090206002015490611562565b92915050565b3360009081526006602052604081209080805b83548110156108dd578360000181815481106106a0576106a061161f565b600091825260209091206004600590920201015460ff166108cb57428460000182815481106106d1576106d161161f565b90600052602060002090600502016003015411156107655783600101548460000182815481106107035761070361161f565b90600052602060002090600502016002015411156107445761073d620151806105176104e08760000185815481106104bf576104bf61161f565b915061085c565b61073d620151806105176104e087600101544261153790919063ffffffff16565b836001015484600001828154811061077f5761077f61161f565b90600052602060002090600502016002015411156107f9576107b9620151806105176104e087600001858154811061059f5761059f61161f565b915060018460000182815481106107d2576107d261161f565b60009182526020909120600590910201600401805460ff191691151591909117905561085c565b610820620151806105176104e087600101548860000186815481106105c6576105c661161f565b915060018460000182815481106108395761083961161f565b60009182526020909120600590910201600401805460ff19169115159190911790555b610895828560000183815481106108755761087561161f565b90600052602060002090600502016001015461156290919063ffffffff16565b8460000182815481106108aa576108aa61161f565b60009182526020909120600160059092020101556108c88383611562565b92505b806108d58161164b565b915050610682565b5033600090815260066020526040902060020154801561090b576109018382611562565b6000600286015592505b600083116109585760405162461bcd60e51b81526020600482015260156024820152745573657220686173206e6f206469766964656e647360581b60448201526064015b60405180910390fd5b6001546040516370a0823160e01b81523060048201526000916001600160a01b0316906370a0823190602401602060405180830381865afa1580156109a1573d6000803e3d6000fd5b505050506040513d601f19601f820116820180604052508101906109c59190611666565b9050838110156109d3578093505b426001868101919091555460405163a9059cbb60e01b8152336004820152602481018690526001600160a01b039091169063a9059cbb906044016020604051808303816000875af1158015610a2c573d6000803e3d6000fd5b505050506040513d601f19601f82011682018060405250810190610a50919061167f565b50600454610a5e9085611562565b60045560405184815233907f7084f5476618d8e60b11ef0d7d3f06914655adb8793e28ff7f018d4c76d505d59060200160405180910390a25050505050565b6000546001600160a01b03163314610af75760405162461bcd60e51b815260206004820181905260248201527f4f776e61626c653a2063616c6c6572206973206e6f7420746865206f776e6572604482015260640161094f565b610b01600061156e565b565b6001600160a01b038116600090815260066020526040812081805b8254811015610b6b57610b57836000018281548110610b3f57610b3f61161f565b60009182526020909120600590910201548390611562565b915080610b638161164b565b915050610b1e565b509392505050565b6001600160a01b0381166000908152600660205260408120805415610c02578054610bc1906064906105179061016d908590610bb1906001906116a1565b815481106105005761050061161f565b81548290610bd1906001906116a1565b81548110610be157610be161161f565b9060005260206000209060050201600101541015610c025750600192915050565b50600092915050565b6001546040516323b872dd60e01b8152336004820152306024820152604481018390526001600160a01b03909116906323b872dd906064016020604051808303816000875af1158015610c62573d6000803e3d6000fd5b505050506040513d601f19601f82011682018060405250810190610c86919061167f565b5033600090815260066020526040902060048101546001600160a01b0316158015610cc857506001600160a01b03831660009081526006602052604090205415155b8015610cdd57506001600160a01b0383163314155b15610d00576004810180546001600160a01b0319166001600160a01b0385161790555b60048101546001600160a01b031615610dbb5760048101546001600160a01b03168015610db9576000610d3a6103e861051786607861154a565b6001600160a01b038316600090815260066020526040902060020154909150610d639082611562565b6001600160a01b038316600081815260066020908152604091829020600201939093555183815233927f328838ddfc48ad5ae5531b1ad95dfb22b42ff1866853e474375ffef2c63d8e50910160405180910390a3505b505b8054610e0e5742600180830191909155600254610dd791611562565b6002556040513381527f9fd565cd14c3c391679eb0cad12a14dcf7534e9d3462bcb9b67a098a9bbbc24a9060200160405180910390a15b6040805160a08101909152819080610e37610e306103e861051788607861154a565b8690611537565b81526020016000815260200142815260200162ed4e0042610e5891906116b8565b81526000602091820181905283546001808201865594825290829020835160059092020190815590820151928101929092556040810151600283015560608101516003808401919091556080909101516004909201805460ff19169215159290921790915554610ec89083611562565b600355600554610ed9906001611562565b60055560405182815233907f2cb77763bc1e8490c1a904905c4d74b4269919aca114464f4bb4d911e60de3649060200160405180910390a2505050565b6001600160a01b038216600090815260066020526040812080548291829182918291819088908110610f4a57610f4a61161f565b906000526020600020906005020160000154816000018881548110610f7157610f7161161f565b906000526020600020906005020160010154826000018981548110610f9857610f9861161f565b906000526020600020906005020160020154836000018a81548110610fbf57610fbf61161f565b906000526020600020906005020160030154846000018b81548110610fe657610fe661161f565b6000918252602090912060059091020160040154939c929b50909950975060ff90911695509350505050565b6000546001600160a01b0316331461106c5760405162461bcd60e51b815260206004820181905260248201527f4f776e61626c653a2063616c6c6572206973206e6f7420746865206f776e6572604482015260640161094f565b6001600160a01b0381166110d15760405162461bcd60e51b815260206004820152602660248201527f4f776e61626c653a206e6577206f776e657220697320746865207a65726f206160448201526564647265737360d01b606482015260840161094f565b6110da8161156e565b50565b60006110e8336103e8565b116111225760405162461bcd60e51b815260206004820152600a6024820152692737ba102437b63232b960b11b604482015260640161094f565b3360008181526006602052604081209161113b906103e8565b9050600080836000016040518060a001604052808581526020016000815260200142815260200162ed4e004261117191906116b8565b8152600060209182018190528354600180820186559482528282208451600590920201908155918301519382019390935560408201516002820155606082015160038201556080909101516004909101805460ff19169115159190911790555b8454811015611453578460000181815481106111ef576111ef61161f565b600091825260209091206004600590920201015460ff1661144157428560000182815481106112205761122061161f565b90600052602060002090600502016003015411156112d45784600101548560000182815481106112525761125261161f565b90600052602060002090600502016002015411156112b3576112ac6201518061051761128c8860000185815481106104bf576104bf61161f565b61051d6103e8610517600f8c60000189815481106105005761050061161f565b91506113f2565b6112ac6201518061051761128c88600101544261153790919063ffffffff16565b84600101548560000182815481106112ee576112ee61161f565b906000526020600020906005020160020154111561138f5761134f6201518061051761128c8860000185815481106113285761132861161f565b9060005260206000209060050201600201548960000186815481106105c6576105c661161f565b915060018560000182815481106113685761136861161f565b60009182526020909120600590910201600401805460ff19169115159190911790556113f2565b6113b66201518061051761128c88600101548960000186815481106105c6576105c661161f565b915060018560000182815481106113cf576113cf61161f565b60009182526020909120600590910201600401805460ff19169115159190911790555b61140b828660000183815481106108755761087561161f565b8560000182815481106114205761142061161f565b600091825260209091206001600590920201015561143e8383611562565b92505b8061144b8161164b565b9150506111d1565b504260018501556003546114679084611562565b600355600554611478906001611562565b6005556004546114889083611562565b60045560405183815233907f5d511c2070e5a2dbcc6fbfbb3fd6704a11ab5fa74b793b81aacece2c7cc294059060200160405180910390a250505050565b6001600160a01b038116600090815260066020526040812081805b8254811015610b6b576115238360000182815481106115025761150261161f565b9060005260206000209060050201600101548361156290919063ffffffff16565b91508061152f8161164b565b9150506114e1565b600061154382846116a1565b9392505050565b600061154382846116d0565b600061154382846116ef565b600061154382846116b8565b600080546001600160a01b038381166001600160a01b0319831681178455604051919092169283917f8be0079c531659141344cd1fd0a4f28419497f9722a3daafe3b4186f6b6457e09190a35050565b80356001600160a01b03811681146115d557600080fd5b919050565b6000602082840312156115ec57600080fd5b611543826115be565b6000806040838503121561160857600080fd5b611611836115be565b946020939093013593505050565b634e487b7160e01b600052603260045260246000fd5b634e487b7160e01b600052601160045260246000fd5b600060001982141561165f5761165f611635565b5060010190565b60006020828403121561167857600080fd5b5051919050565b60006020828403121561169157600080fd5b8151801515811461154357600080fd5b6000828210156116b3576116b3611635565b500390565b600082198211156116cb576116cb611635565b500190565b60008160001904831182151516156116ea576116ea611635565b500290565b60008261170c57634e487b7160e01b600052601260045260246000fd5b50049056fea26469706673582212204a501c743942ebc3c52ef32a53f950339d647de5269cfafea43d131cc1a7c7e464736f6c634300080a0033",
					"opcodes": "PUSH1 0x80 PUSH1 0x40 MSTORE CALLVALUE DUP1 ISZERO PUSH2 0x10 JUMPI PUSH1 0x0 DUP1 REVERT JUMPDEST POP PUSH1 0x40 MLOAD PUSH2 0x1833 CODESIZE SUB DUP1 PUSH2 0x1833 DUP4 CODECOPY DUP2 ADD PUSH1 0x40 DUP2 SWAP1 MSTORE PUSH2 0x2F SWAP2 PUSH2 0xAD JUMP JUMPDEST PUSH2 0x38 CALLER PUSH2 0x5D JUMP JUMPDEST PUSH1 0x1 DUP1 SLOAD PUSH1 0x1 PUSH1 0x1 PUSH1 0xA0 SHL SUB NOT AND PUSH1 0x1 PUSH1 0x1 PUSH1 0xA0 SHL SUB SWAP3 SWAP1 SWAP3 AND SWAP2 SWAP1 SWAP2 OR SWAP1 SSTORE PUSH2 0xDD JUMP JUMPDEST PUSH1 0x0 DUP1 SLOAD PUSH1 0x1 PUSH1 0x1 PUSH1 0xA0 SHL SUB DUP4 DUP2 AND PUSH1 0x1 PUSH1 0x1 PUSH1 0xA0 SHL SUB NOT DUP4 AND DUP2 OR DUP5 SSTORE PUSH1 0x40 MLOAD SWAP2 SWAP1 SWAP3 AND SWAP3 DUP4 SWAP2 PUSH32 0x8BE0079C531659141344CD1FD0A4F28419497F9722A3DAAFE3B4186F6B6457E0 SWAP2 SWAP1 LOG3 POP POP JUMP JUMPDEST PUSH1 0x0 PUSH1 0x20 DUP3 DUP5 SUB SLT ISZERO PUSH2 0xBF JUMPI PUSH1 0x0 DUP1 REVERT JUMPDEST DUP2 MLOAD PUSH1 0x1 PUSH1 0x1 PUSH1 0xA0 SHL SUB DUP2 AND DUP2 EQ PUSH2 0xD6 JUMPI PUSH1 0x0 DUP1 REVERT JUMPDEST SWAP4 SWAP3 POP POP POP JUMP JUMPDEST PUSH2 0x1747 DUP1 PUSH2 0xEC PUSH1 0x0 CODECOPY PUSH1 0x0 RETURN INVALID PUSH1 0x80 PUSH1 0x40 MSTORE CALLVALUE DUP1 ISZERO PUSH2 0x10 JUMPI PUSH1 0x0 DUP1 REVERT JUMPDEST POP PUSH1 0x4 CALLDATASIZE LT PUSH2 0x18E JUMPI PUSH1 0x0 CALLDATALOAD PUSH1 0xE0 SHR DUP1 PUSH4 0x8DA5CB5B GT PUSH2 0xDE JUMPI DUP1 PUSH4 0xC8A22EB4 GT PUSH2 0x97 JUMPI DUP1 PUSH4 0xE85ABE09 GT PUSH2 0x71 JUMPI DUP1 PUSH4 0xE85ABE09 EQ PUSH2 0x38E JUMPI DUP1 PUSH4 0xF2FDE38B EQ PUSH2 0x3BA JUMPI DUP1 PUSH4 0xF69E2046 EQ PUSH2 0x3CD JUMPI DUP1 PUSH4 0xFB4CB32B EQ PUSH2 0x3D5 JUMPI PUSH1 0x0 DUP1 REVERT JUMPDEST DUP1 PUSH4 0xC8A22EB4 EQ PUSH2 0x32D JUMPI DUP1 PUSH4 0xD6343867 EQ PUSH2 0x359 JUMPI DUP1 PUSH4 0xD7FFCA91 EQ PUSH2 0x362 JUMPI PUSH1 0x0 DUP1 REVERT JUMPDEST DUP1 PUSH4 0x8DA5CB5B EQ PUSH2 0x277 JUMPI DUP1 PUSH4 0x9F8A13D7 EQ PUSH2 0x288 JUMPI DUP1 PUSH4 0xA8AEB6C2 EQ PUSH2 0x2AB JUMPI DUP1 PUSH4 0xADC9772E EQ PUSH2 0x2D4 JUMPI DUP1 PUSH4 0xBFF1F9E1 EQ PUSH2 0x2E7 JUMPI DUP1 PUSH4 0xC0806B03 EQ PUSH2 0x2F0 JUMPI PUSH1 0x0 DUP1 REVERT JUMPDEST DUP1 PUSH4 0x36144C9A GT PUSH2 0x14B JUMPI DUP1 PUSH4 0x4E71D92D GT PUSH2 0x125 JUMPI DUP1 PUSH4 0x4E71D92D EQ PUSH2 0x249 JUMPI DUP1 PUSH4 0x715018A6 EQ PUSH2 0x253 JUMPI DUP1 PUSH4 0x7E3ABEEA EQ PUSH2 0x25B JUMPI DUP1 PUSH4 0x817B1CD2 EQ PUSH2 0x26E JUMPI PUSH1 0x0 DUP1 REVERT JUMPDEST DUP1 PUSH4 0x36144C9A EQ PUSH2 0x1F1 JUMPI DUP1 PUSH4 0x44038F90 EQ PUSH2 0x238 JUMPI DUP1 PUSH4 0x4B319713 EQ PUSH2 0x240 JUMPI PUSH1 0x0 DUP1 REVERT JUMPDEST DUP1 PUSH4 0x104DB1B EQ PUSH2 0x193 JUMPI DUP1 PUSH4 0x1C234A8 EQ PUSH2 0x1B0 JUMPI DUP1 PUSH4 0x40A772E EQ PUSH2 0x1B9 JUMPI DUP1 PUSH4 0x141A2A3F EQ PUSH2 0x1CC JUMPI DUP1 PUSH4 0x153AB9DF EQ PUSH2 0x1D4 JUMPI DUP1 PUSH4 0x32BC298C EQ PUSH2 0x1E7 JUMPI JUMPDEST PUSH1 0x0 DUP1 REVERT JUMPDEST PUSH2 0x19D PUSH3 0xED4E00 DUP2 JUMP JUMPDEST PUSH1 0x40 MLOAD SWAP1 DUP2 MSTORE PUSH1 0x20 ADD JUMPDEST PUSH1 0x40 MLOAD DUP1 SWAP2 SUB SWAP1 RETURN JUMPDEST PUSH2 0x19D PUSH2 0x3E8 DUP2 JUMP JUMPDEST PUSH2 0x19D PUSH2 0x1C7 CALLDATASIZE PUSH1 0x4 PUSH2 0x15DA JUMP JUMPDEST PUSH2 0x3E8 JUMP JUMPDEST PUSH2 0x19D PUSH1 0xF DUP2 JUMP JUMPDEST PUSH2 0x19D PUSH2 0x1E2 CALLDATASIZE PUSH1 0x4 PUSH2 0x15DA JUMP JUMPDEST PUSH2 0x639 JUMP JUMPDEST PUSH2 0x19D PUSH3 0x15180 DUP2 JUMP JUMPDEST PUSH2 0x220 PUSH2 0x1FF CALLDATASIZE PUSH1 0x4 PUSH2 0x15DA JUMP JUMPDEST PUSH1 0x1 PUSH1 0x1 PUSH1 0xA0 SHL SUB SWAP1 DUP2 AND PUSH1 0x0 SWAP1 DUP2 MSTORE PUSH1 0x6 PUSH1 0x20 MSTORE PUSH1 0x40 SWAP1 KECCAK256 PUSH1 0x4 ADD SLOAD AND SWAP1 JUMP JUMPDEST PUSH1 0x40 MLOAD PUSH1 0x1 PUSH1 0x1 PUSH1 0xA0 SHL SUB SWAP1 SWAP2 AND DUP2 MSTORE PUSH1 0x20 ADD PUSH2 0x1A7 JUMP JUMPDEST PUSH2 0x19D PUSH1 0x78 DUP2 JUMP JUMPDEST PUSH2 0x19D PUSH1 0x4 SLOAD DUP2 JUMP JUMPDEST PUSH2 0x251 PUSH2 0x66F JUMP JUMPDEST STOP JUMPDEST PUSH2 0x251 PUSH2 0xA9D JUMP JUMPDEST PUSH2 0x19D PUSH2 0x269 CALLDATASIZE PUSH1 0x4 PUSH2 0x15DA JUMP JUMPDEST PUSH2 0xB03 JUMP JUMPDEST PUSH2 0x19D PUSH1 0x3 SLOAD DUP2 JUMP JUMPDEST PUSH1 0x0 SLOAD PUSH1 0x1 PUSH1 0x1 PUSH1 0xA0 SHL SUB AND PUSH2 0x220 JUMP JUMPDEST PUSH2 0x29B PUSH2 0x296 CALLDATASIZE PUSH1 0x4 PUSH2 0x15DA JUMP JUMPDEST PUSH2 0xB73 JUMP JUMPDEST PUSH1 0x40 MLOAD SWAP1 ISZERO ISZERO DUP2 MSTORE PUSH1 0x20 ADD PUSH2 0x1A7 JUMP JUMPDEST PUSH2 0x19D PUSH2 0x2B9 CALLDATASIZE PUSH1 0x4 PUSH2 0x15DA JUMP JUMPDEST PUSH1 0x1 PUSH1 0x1 PUSH1 0xA0 SHL SUB AND PUSH1 0x0 SWAP1 DUP2 MSTORE PUSH1 0x6 PUSH1 0x20 MSTORE PUSH1 0x40 SWAP1 KECCAK256 SLOAD SWAP1 JUMP JUMPDEST PUSH2 0x251 PUSH2 0x2E2 CALLDATASIZE PUSH1 0x4 PUSH2 0x15F5 JUMP JUMPDEST PUSH2 0xC0B JUMP JUMPDEST PUSH2 0x19D PUSH1 0x2 SLOAD DUP2 JUMP JUMPDEST PUSH2 0x303 PUSH2 0x2FE CALLDATASIZE PUSH1 0x4 PUSH2 0x15F5 JUMP JUMPDEST PUSH2 0xF16 JUMP JUMPDEST PUSH1 0x40 DUP1 MLOAD SWAP6 DUP7 MSTORE PUSH1 0x20 DUP7 ADD SWAP5 SWAP1 SWAP5 MSTORE SWAP3 DUP5 ADD SWAP2 SWAP1 SWAP2 MSTORE PUSH1 0x60 DUP4 ADD MSTORE ISZERO ISZERO PUSH1 0x80 DUP3 ADD MSTORE PUSH1 0xA0 ADD PUSH2 0x1A7 JUMP JUMPDEST PUSH2 0x19D PUSH2 0x33B CALLDATASIZE PUSH1 0x4 PUSH2 0x15DA JUMP JUMPDEST PUSH1 0x1 PUSH1 0x1 PUSH1 0xA0 SHL SUB AND PUSH1 0x0 SWAP1 DUP2 MSTORE PUSH1 0x6 PUSH1 0x20 MSTORE PUSH1 0x40 SWAP1 KECCAK256 PUSH1 0x3 ADD SLOAD SWAP1 JUMP JUMPDEST PUSH2 0x19D PUSH1 0x5 SLOAD DUP2 JUMP JUMPDEST PUSH2 0x19D PUSH2 0x370 CALLDATASIZE PUSH1 0x4 PUSH2 0x15DA JUMP JUMPDEST PUSH1 0x1 PUSH1 0x1 PUSH1 0xA0 SHL SUB AND PUSH1 0x0 SWAP1 DUP2 MSTORE PUSH1 0x6 PUSH1 0x20 MSTORE PUSH1 0x40 SWAP1 KECCAK256 PUSH1 0x1 ADD SLOAD SWAP1 JUMP JUMPDEST PUSH2 0x19D PUSH2 0x39C CALLDATASIZE PUSH1 0x4 PUSH2 0x15DA JUMP JUMPDEST PUSH1 0x1 PUSH1 0x1 PUSH1 0xA0 SHL SUB AND PUSH1 0x0 SWAP1 DUP2 MSTORE PUSH1 0x6 PUSH1 0x20 MSTORE PUSH1 0x40 SWAP1 KECCAK256 PUSH1 0x2 ADD SLOAD SWAP1 JUMP JUMPDEST PUSH2 0x251 PUSH2 0x3C8 CALLDATASIZE PUSH1 0x4 PUSH2 0x15DA JUMP JUMPDEST PUSH2 0x1012 JUMP JUMPDEST PUSH2 0x251 PUSH2 0x10DD JUMP JUMPDEST PUSH2 0x19D PUSH2 0x3E3 CALLDATASIZE PUSH1 0x4 PUSH2 0x15DA JUMP JUMPDEST PUSH2 0x14C6 JUMP JUMPDEST PUSH1 0x1 PUSH1 0x1 PUSH1 0xA0 SHL SUB DUP2 AND PUSH1 0x0 SWAP1 DUP2 MSTORE PUSH1 0x6 PUSH1 0x20 MSTORE PUSH1 0x40 DUP2 KECCAK256 DUP2 DUP1 DUP1 JUMPDEST DUP4 SLOAD DUP2 LT ISZERO PUSH2 0x62F JUMPI DUP4 PUSH1 0x0 ADD DUP2 DUP2 SLOAD DUP2 LT PUSH2 0x422 JUMPI PUSH2 0x422 PUSH2 0x161F JUMP JUMPDEST PUSH1 0x0 SWAP2 DUP3 MSTORE PUSH1 0x20 SWAP1 SWAP2 KECCAK256 PUSH1 0x4 PUSH1 0x5 SWAP1 SWAP3 MUL ADD ADD SLOAD PUSH1 0xFF AND PUSH2 0x61D JUMPI TIMESTAMP DUP5 PUSH1 0x0 ADD DUP3 DUP2 SLOAD DUP2 LT PUSH2 0x453 JUMPI PUSH2 0x453 PUSH2 0x161F JUMP JUMPDEST SWAP1 PUSH1 0x0 MSTORE PUSH1 0x20 PUSH1 0x0 KECCAK256 SWAP1 PUSH1 0x5 MUL ADD PUSH1 0x3 ADD SLOAD GT ISZERO PUSH2 0x54B JUMPI DUP4 PUSH1 0x1 ADD SLOAD DUP5 PUSH1 0x0 ADD DUP3 DUP2 SLOAD DUP2 LT PUSH2 0x485 JUMPI PUSH2 0x485 PUSH2 0x161F JUMP JUMPDEST SWAP1 PUSH1 0x0 MSTORE PUSH1 0x20 PUSH1 0x0 KECCAK256 SWAP1 PUSH1 0x5 MUL ADD PUSH1 0x2 ADD SLOAD GT ISZERO PUSH2 0x52A JUMPI PUSH2 0x523 PUSH3 0x15180 PUSH2 0x517 PUSH2 0x4E0 DUP8 PUSH1 0x0 ADD DUP6 DUP2 SLOAD DUP2 LT PUSH2 0x4BF JUMPI PUSH2 0x4BF PUSH2 0x161F JUMP JUMPDEST SWAP1 PUSH1 0x0 MSTORE PUSH1 0x20 PUSH1 0x0 KECCAK256 SWAP1 PUSH1 0x5 MUL ADD PUSH1 0x2 ADD SLOAD TIMESTAMP PUSH2 0x1537 SWAP1 SWAP2 SWAP1 PUSH4 0xFFFFFFFF AND JUMP JUMPDEST PUSH2 0x51D PUSH2 0x3E8 PUSH2 0x517 PUSH1 0xF DUP12 PUSH1 0x0 ADD DUP10 DUP2 SLOAD DUP2 LT PUSH2 0x500 JUMPI PUSH2 0x500 PUSH2 0x161F JUMP JUMPDEST PUSH1 0x0 SWAP2 DUP3 MSTORE PUSH1 0x20 SWAP1 SWAP2 KECCAK256 PUSH1 0x5 SWAP1 SWAP2 MUL ADD SLOAD SWAP1 PUSH2 0x154A JUMP JUMPDEST SWAP1 PUSH2 0x1556 JUMP JUMPDEST SWAP1 PUSH2 0x154A JUMP JUMPDEST SWAP2 POP PUSH2 0x610 JUMP JUMPDEST PUSH2 0x523 PUSH3 0x15180 PUSH2 0x517 PUSH2 0x4E0 DUP8 PUSH1 0x1 ADD SLOAD TIMESTAMP PUSH2 0x1537 SWAP1 SWAP2 SWAP1 PUSH4 0xFFFFFFFF AND JUMP JUMPDEST DUP4 PUSH1 0x1 ADD SLOAD DUP5 PUSH1 0x0 ADD DUP3 DUP2 SLOAD DUP2 LT PUSH2 0x565 JUMPI PUSH2 0x565 PUSH2 0x161F JUMP JUMPDEST SWAP1 PUSH1 0x0 MSTORE PUSH1 0x20 PUSH1 0x0 KECCAK256 SWAP1 PUSH1 0x5 MUL ADD PUSH1 0x2 ADD SLOAD GT ISZERO PUSH2 0x5E6 JUMPI PUSH2 0x523 PUSH3 0x15180 PUSH2 0x517 PUSH2 0x4E0 DUP8 PUSH1 0x0 ADD DUP6 DUP2 SLOAD DUP2 LT PUSH2 0x59F JUMPI PUSH2 0x59F PUSH2 0x161F JUMP JUMPDEST SWAP1 PUSH1 0x0 MSTORE PUSH1 0x20 PUSH1 0x0 KECCAK256 SWAP1 PUSH1 0x5 MUL ADD PUSH1 0x2 ADD SLOAD DUP9 PUSH1 0x0 ADD DUP7 DUP2 SLOAD DUP2 LT PUSH2 0x5C6 JUMPI PUSH2 0x5C6 PUSH2 0x161F JUMP JUMPDEST SWAP1 PUSH1 0x0 MSTORE PUSH1 0x20 PUSH1 0x0 KECCAK256 SWAP1 PUSH1 0x5 MUL ADD PUSH1 0x3 ADD SLOAD PUSH2 0x1537 SWAP1 SWAP2 SWAP1 PUSH4 0xFFFFFFFF AND JUMP JUMPDEST PUSH2 0x60D PUSH3 0x15180 PUSH2 0x517 PUSH2 0x4E0 DUP8 PUSH1 0x1 ADD SLOAD DUP9 PUSH1 0x0 ADD DUP7 DUP2 SLOAD DUP2 LT PUSH2 0x5C6 JUMPI PUSH2 0x5C6 PUSH2 0x161F JUMP JUMPDEST SWAP2 POP JUMPDEST PUSH2 0x61A DUP4 DUP4 PUSH2 0x1562 JUMP JUMPDEST SWAP3 POP JUMPDEST DUP1 PUSH2 0x627 DUP2 PUSH2 0x164B JUMP JUMPDEST SWAP2 POP POP PUSH2 0x404 JUMP JUMPDEST POP SWAP1 SWAP5 SWAP4 POP POP POP POP JUMP JUMPDEST PUSH1 0x0 PUSH2 0x669 PUSH2 0x647 DUP4 PUSH2 0x3E8 JUMP JUMPDEST PUSH1 0x1 PUSH1 0x1 PUSH1 0xA0 SHL SUB DUP5 AND PUSH1 0x0 SWAP1 DUP2 MSTORE PUSH1 0x6 PUSH1 0x20 MSTORE PUSH1 0x40 SWAP1 KECCAK256 PUSH1 0x2 ADD SLOAD SWAP1 PUSH2 0x1562 JUMP JUMPDEST SWAP3 SWAP2 POP POP JUMP JUMPDEST CALLER PUSH1 0x0 SWAP1 DUP2 MSTORE PUSH1 0x6 PUSH1 0x20 MSTORE PUSH1 0x40 DUP2 KECCAK256 SWAP1 DUP1 DUP1 JUMPDEST DUP4 SLOAD DUP2 LT ISZERO PUSH2 0x8DD JUMPI DUP4 PUSH1 0x0 ADD DUP2 DUP2 SLOAD DUP2 LT PUSH2 0x6A0 JUMPI PUSH2 0x6A0 PUSH2 0x161F JUMP JUMPDEST PUSH1 0x0 SWAP2 DUP3 MSTORE PUSH1 0x20 SWAP1 SWAP2 KECCAK256 PUSH1 0x4 PUSH1 0x5 SWAP1 SWAP3 MUL ADD ADD SLOAD PUSH1 0xFF AND PUSH2 0x8CB JUMPI TIMESTAMP DUP5 PUSH1 0x0 ADD DUP3 DUP2 SLOAD DUP2 LT PUSH2 0x6D1 JUMPI PUSH2 0x6D1 PUSH2 0x161F JUMP JUMPDEST SWAP1 PUSH1 0x0 MSTORE PUSH1 0x20 PUSH1 0x0 KECCAK256 SWAP1 PUSH1 0x5 MUL ADD PUSH1 0x3 ADD SLOAD GT ISZERO PUSH2 0x765 JUMPI DUP4 PUSH1 0x1 ADD SLOAD DUP5 PUSH1 0x0 ADD DUP3 DUP2 SLOAD DUP2 LT PUSH2 0x703 JUMPI PUSH2 0x703 PUSH2 0x161F JUMP JUMPDEST SWAP1 PUSH1 0x0 MSTORE PUSH1 0x20 PUSH1 0x0 KECCAK256 SWAP1 PUSH1 0x5 MUL ADD PUSH1 0x2 ADD SLOAD GT ISZERO PUSH2 0x744 JUMPI PUSH2 0x73D PUSH3 0x15180 PUSH2 0x517 PUSH2 0x4E0 DUP8 PUSH1 0x0 ADD DUP6 DUP2 SLOAD DUP2 LT PUSH2 0x4BF JUMPI PUSH2 0x4BF PUSH2 0x161F JUMP JUMPDEST SWAP2 POP PUSH2 0x85C JUMP JUMPDEST PUSH2 0x73D PUSH3 0x15180 PUSH2 0x517 PUSH2 0x4E0 DUP8 PUSH1 0x1 ADD SLOAD TIMESTAMP PUSH2 0x1537 SWAP1 SWAP2 SWAP1 PUSH4 0xFFFFFFFF AND JUMP JUMPDEST DUP4 PUSH1 0x1 ADD SLOAD DUP5 PUSH1 0x0 ADD DUP3 DUP2 SLOAD DUP2 LT PUSH2 0x77F JUMPI PUSH2 0x77F PUSH2 0x161F JUMP JUMPDEST SWAP1 PUSH1 0x0 MSTORE PUSH1 0x20 PUSH1 0x0 KECCAK256 SWAP1 PUSH1 0x5 MUL ADD PUSH1 0x2 ADD SLOAD GT ISZERO PUSH2 0x7F9 JUMPI PUSH2 0x7B9 PUSH3 0x15180 PUSH2 0x517 PUSH2 0x4E0 DUP8 PUSH1 0x0 ADD DUP6 DUP2 SLOAD DUP2 LT PUSH2 0x59F JUMPI PUSH2 0x59F PUSH2 0x161F JUMP JUMPDEST SWAP2 POP PUSH1 0x1 DUP5 PUSH1 0x0 ADD DUP3 DUP2 SLOAD DUP2 LT PUSH2 0x7D2 JUMPI PUSH2 0x7D2 PUSH2 0x161F JUMP JUMPDEST PUSH1 0x0 SWAP2 DUP3 MSTORE PUSH1 0x20 SWAP1 SWAP2 KECCAK256 PUSH1 0x5 SWAP1 SWAP2 MUL ADD PUSH1 0x4 ADD DUP1 SLOAD PUSH1 0xFF NOT AND SWAP2 ISZERO ISZERO SWAP2 SWAP1 SWAP2 OR SWAP1 SSTORE PUSH2 0x85C JUMP JUMPDEST PUSH2 0x820 PUSH3 0x15180 PUSH2 0x517 PUSH2 0x4E0 DUP8 PUSH1 0x1 ADD SLOAD DUP9 PUSH1 0x0 ADD DUP7 DUP2 SLOAD DUP2 LT PUSH2 0x5C6 JUMPI PUSH2 0x5C6 PUSH2 0x161F JUMP JUMPDEST SWAP2 POP PUSH1 0x1 DUP5 PUSH1 0x0 ADD DUP3 DUP2 SLOAD DUP2 LT PUSH2 0x839 JUMPI PUSH2 0x839 PUSH2 0x161F JUMP JUMPDEST PUSH1 0x0 SWAP2 DUP3 MSTORE PUSH1 0x20 SWAP1 SWAP2 KECCAK256 PUSH1 0x5 SWAP1 SWAP2 MUL ADD PUSH1 0x4 ADD DUP1 SLOAD PUSH1 0xFF NOT AND SWAP2 ISZERO ISZERO SWAP2 SWAP1 SWAP2 OR SWAP1 SSTORE JUMPDEST PUSH2 0x895 DUP3 DUP6 PUSH1 0x0 ADD DUP4 DUP2 SLOAD DUP2 LT PUSH2 0x875 JUMPI PUSH2 0x875 PUSH2 0x161F JUMP JUMPDEST SWAP1 PUSH1 0x0 MSTORE PUSH1 0x20 PUSH1 0x0 KECCAK256 SWAP1 PUSH1 0x5 MUL ADD PUSH1 0x1 ADD SLOAD PUSH2 0x1562 SWAP1 SWAP2 SWAP1 PUSH4 0xFFFFFFFF AND JUMP JUMPDEST DUP5 PUSH1 0x0 ADD DUP3 DUP2 SLOAD DUP2 LT PUSH2 0x8AA JUMPI PUSH2 0x8AA PUSH2 0x161F JUMP JUMPDEST PUSH1 0x0 SWAP2 DUP3 MSTORE PUSH1 0x20 SWAP1 SWAP2 KECCAK256 PUSH1 0x1 PUSH1 0x5 SWAP1 SWAP3 MUL ADD ADD SSTORE PUSH2 0x8C8 DUP4 DUP4 PUSH2 0x1562 JUMP JUMPDEST SWAP3 POP JUMPDEST DUP1 PUSH2 0x8D5 DUP2 PUSH2 0x164B JUMP JUMPDEST SWAP2 POP POP PUSH2 0x682 JUMP JUMPDEST POP CALLER PUSH1 0x0 SWAP1 DUP2 MSTORE PUSH1 0x6 PUSH1 0x20 MSTORE PUSH1 0x40 SWAP1 KECCAK256 PUSH1 0x2 ADD SLOAD DUP1 ISZERO PUSH2 0x90B JUMPI PUSH2 0x901 DUP4 DUP3 PUSH2 0x1562 JUMP JUMPDEST PUSH1 0x0 PUSH1 0x2 DUP7 ADD SSTORE SWAP3 POP JUMPDEST PUSH1 0x0 DUP4 GT PUSH2 0x958 JUMPI PUSH1 0x40 MLOAD PUSH3 0x461BCD PUSH1 0xE5 SHL DUP2 MSTORE PUSH1 0x20 PUSH1 0x4 DUP3 ADD MSTORE PUSH1 0x15 PUSH1 0x24 DUP3 ADD MSTORE PUSH21 0x5573657220686173206E6F206469766964656E6473 PUSH1 0x58 SHL PUSH1 0x44 DUP3 ADD MSTORE PUSH1 0x64 ADD JUMPDEST PUSH1 0x40 MLOAD DUP1 SWAP2 SUB SWAP1 REVERT JUMPDEST PUSH1 0x1 SLOAD PUSH1 0x40 MLOAD PUSH4 0x70A08231 PUSH1 0xE0 SHL DUP2 MSTORE ADDRESS PUSH1 0x4 DUP3 ADD MSTORE PUSH1 0x0 SWAP2 PUSH1 0x1 PUSH1 0x1 PUSH1 0xA0 SHL SUB AND SWAP1 PUSH4 0x70A08231 SWAP1 PUSH1 0x24 ADD PUSH1 0x20 PUSH1 0x40 MLOAD DUP1 DUP4 SUB DUP2 DUP7 GAS STATICCALL ISZERO DUP1 ISZERO PUSH2 0x9A1 JUMPI RETURNDATASIZE PUSH1 0x0 DUP1 RETURNDATACOPY RETURNDATASIZE PUSH1 0x0 REVERT JUMPDEST POP POP POP POP PUSH1 0x40 MLOAD RETURNDATASIZE PUSH1 0x1F NOT PUSH1 0x1F DUP3 ADD AND DUP3 ADD DUP1 PUSH1 0x40 MSTORE POP DUP2 ADD SWAP1 PUSH2 0x9C5 SWAP2 SWAP1 PUSH2 0x1666 JUMP JUMPDEST SWAP1 POP DUP4 DUP2 LT ISZERO PUSH2 0x9D3 JUMPI DUP1 SWAP4 POP JUMPDEST TIMESTAMP PUSH1 0x1 DUP7 DUP2 ADD SWAP2 SWAP1 SWAP2 SSTORE SLOAD PUSH1 0x40 MLOAD PUSH4 0xA9059CBB PUSH1 0xE0 SHL DUP2 MSTORE CALLER PUSH1 0x4 DUP3 ADD MSTORE PUSH1 0x24 DUP2 ADD DUP7 SWAP1 MSTORE PUSH1 0x1 PUSH1 0x1 PUSH1 0xA0 SHL SUB SWAP1 SWAP2 AND SWAP1 PUSH4 0xA9059CBB SWAP1 PUSH1 0x44 ADD PUSH1 0x20 PUSH1 0x40 MLOAD DUP1 DUP4 SUB DUP2 PUSH1 0x0 DUP8 GAS CALL ISZERO DUP1 ISZERO PUSH2 0xA2C JUMPI RETURNDATASIZE PUSH1 0x0 DUP1 RETURNDATACOPY RETURNDATASIZE PUSH1 0x0 REVERT JUMPDEST POP POP POP POP PUSH1 0x40 MLOAD RETURNDATASIZE PUSH1 0x1F NOT PUSH1 0x1F DUP3 ADD AND DUP3 ADD DUP1 PUSH1 0x40 MSTORE POP DUP2 ADD SWAP1 PUSH2 0xA50 SWAP2 SWAP1 PUSH2 0x167F JUMP JUMPDEST POP PUSH1 0x4 SLOAD PUSH2 0xA5E SWAP1 DUP6 PUSH2 0x1562 JUMP JUMPDEST PUSH1 0x4 SSTORE PUSH1 0x40 MLOAD DUP5 DUP2 MSTORE CALLER SWAP1 PUSH32 0x7084F5476618D8E60B11EF0D7D3F06914655ADB8793E28FF7F018D4C76D505D5 SWAP1 PUSH1 0x20 ADD PUSH1 0x40 MLOAD DUP1 SWAP2 SUB SWAP1 LOG2 POP POP POP POP POP JUMP JUMPDEST PUSH1 0x0 SLOAD PUSH1 0x1 PUSH1 0x1 PUSH1 0xA0 SHL SUB AND CALLER EQ PUSH2 0xAF7 JUMPI PUSH1 0x40 MLOAD PUSH3 0x461BCD PUSH1 0xE5 SHL DUP2 MSTORE PUSH1 0x20 PUSH1 0x4 DUP3 ADD DUP2 SWAP1 MSTORE PUSH1 0x24 DUP3 ADD MSTORE PUSH32 0x4F776E61626C653A2063616C6C6572206973206E6F7420746865206F776E6572 PUSH1 0x44 DUP3 ADD MSTORE PUSH1 0x64 ADD PUSH2 0x94F JUMP JUMPDEST PUSH2 0xB01 PUSH1 0x0 PUSH2 0x156E JUMP JUMPDEST JUMP JUMPDEST PUSH1 0x1 PUSH1 0x1 PUSH1 0xA0 SHL SUB DUP2 AND PUSH1 0x0 SWAP1 DUP2 MSTORE PUSH1 0x6 PUSH1 0x20 MSTORE PUSH1 0x40 DUP2 KECCAK256 DUP2 DUP1 JUMPDEST DUP3 SLOAD DUP2 LT ISZERO PUSH2 0xB6B JUMPI PUSH2 0xB57 DUP4 PUSH1 0x0 ADD DUP3 DUP2 SLOAD DUP2 LT PUSH2 0xB3F JUMPI PUSH2 0xB3F PUSH2 0x161F JUMP JUMPDEST PUSH1 0x0 SWAP2 DUP3 MSTORE PUSH1 0x20 SWAP1 SWAP2 KECCAK256 PUSH1 0x5 SWAP1 SWAP2 MUL ADD SLOAD DUP4 SWAP1 PUSH2 0x1562 JUMP JUMPDEST SWAP2 POP DUP1 PUSH2 0xB63 DUP2 PUSH2 0x164B JUMP JUMPDEST SWAP2 POP POP PUSH2 0xB1E JUMP JUMPDEST POP SWAP4 SWAP3 POP POP POP JUMP JUMPDEST PUSH1 0x1 PUSH1 0x1 PUSH1 0xA0 SHL SUB DUP2 AND PUSH1 0x0 SWAP1 DUP2 MSTORE PUSH1 0x6 PUSH1 0x20 MSTORE PUSH1 0x40 DUP2 KECCAK256 DUP1 SLOAD ISZERO PUSH2 0xC02 JUMPI DUP1 SLOAD PUSH2 0xBC1 SWAP1 PUSH1 0x64 SWAP1 PUSH2 0x517 SWAP1 PUSH2 0x16D SWAP1 DUP6 SWAP1 PUSH2 0xBB1 SWAP1 PUSH1 0x1 SWAP1 PUSH2 0x16A1 JUMP JUMPDEST DUP2 SLOAD DUP2 LT PUSH2 0x500 JUMPI PUSH2 0x500 PUSH2 0x161F JUMP JUMPDEST DUP2 SLOAD DUP3 SWAP1 PUSH2 0xBD1 SWAP1 PUSH1 0x1 SWAP1 PUSH2 0x16A1 JUMP JUMPDEST DUP2 SLOAD DUP2 LT PUSH2 0xBE1 JUMPI PUSH2 0xBE1 PUSH2 0x161F JUMP JUMPDEST SWAP1 PUSH1 0x0 MSTORE PUSH1 0x20 PUSH1 0x0 KECCAK256 SWAP1 PUSH1 0x5 MUL ADD PUSH1 0x1 ADD SLOAD LT ISZERO PUSH2 0xC02 JUMPI POP PUSH1 0x1 SWAP3 SWAP2 POP POP JUMP JUMPDEST POP PUSH1 0x0 SWAP3 SWAP2 POP POP JUMP JUMPDEST PUSH1 0x1 SLOAD PUSH1 0x40 MLOAD PUSH4 0x23B872DD PUSH1 0xE0 SHL DUP2 MSTORE CALLER PUSH1 0x4 DUP3 ADD MSTORE ADDRESS PUSH1 0x24 DUP3 ADD MSTORE PUSH1 0x44 DUP2 ADD DUP4 SWAP1 MSTORE PUSH1 0x1 PUSH1 0x1 PUSH1 0xA0 SHL SUB SWAP1 SWAP2 AND SWAP1 PUSH4 0x23B872DD SWAP1 PUSH1 0x64 ADD PUSH1 0x20 PUSH1 0x40 MLOAD DUP1 DUP4 SUB DUP2 PUSH1 0x0 DUP8 GAS CALL ISZERO DUP1 ISZERO PUSH2 0xC62 JUMPI RETURNDATASIZE PUSH1 0x0 DUP1 RETURNDATACOPY RETURNDATASIZE PUSH1 0x0 REVERT JUMPDEST POP POP POP POP PUSH1 0x40 MLOAD RETURNDATASIZE PUSH1 0x1F NOT PUSH1 0x1F DUP3 ADD AND DUP3 ADD DUP1 PUSH1 0x40 MSTORE POP DUP2 ADD SWAP1 PUSH2 0xC86 SWAP2 SWAP1 PUSH2 0x167F JUMP JUMPDEST POP CALLER PUSH1 0x0 SWAP1 DUP2 MSTORE PUSH1 0x6 PUSH1 0x20 MSTORE PUSH1 0x40 SWAP1 KECCAK256 PUSH1 0x4 DUP2 ADD SLOAD PUSH1 0x1 PUSH1 0x1 PUSH1 0xA0 SHL SUB AND ISZERO DUP1 ISZERO PUSH2 0xCC8 JUMPI POP PUSH1 0x1 PUSH1 0x1 PUSH1 0xA0 SHL SUB DUP4 AND PUSH1 0x0 SWAP1 DUP2 MSTORE PUSH1 0x6 PUSH1 0x20 MSTORE PUSH1 0x40 SWAP1 KECCAK256 SLOAD ISZERO ISZERO JUMPDEST DUP1 ISZERO PUSH2 0xCDD JUMPI POP PUSH1 0x1 PUSH1 0x1 PUSH1 0xA0 SHL SUB DUP4 AND CALLER EQ ISZERO JUMPDEST ISZERO PUSH2 0xD00 JUMPI PUSH1 0x4 DUP2 ADD DUP1 SLOAD PUSH1 0x1 PUSH1 0x1 PUSH1 0xA0 SHL SUB NOT AND PUSH1 0x1 PUSH1 0x1 PUSH1 0xA0 SHL SUB DUP6 AND OR SWAP1 SSTORE JUMPDEST PUSH1 0x4 DUP2 ADD SLOAD PUSH1 0x1 PUSH1 0x1 PUSH1 0xA0 SHL SUB AND ISZERO PUSH2 0xDBB JUMPI PUSH1 0x4 DUP2 ADD SLOAD PUSH1 0x1 PUSH1 0x1 PUSH1 0xA0 SHL SUB AND DUP1 ISZERO PUSH2 0xDB9 JUMPI PUSH1 0x0 PUSH2 0xD3A PUSH2 0x3E8 PUSH2 0x517 DUP7 PUSH1 0x78 PUSH2 0x154A JUMP JUMPDEST PUSH1 0x1 PUSH1 0x1 PUSH1 0xA0 SHL SUB DUP4 AND PUSH1 0x0 SWAP1 DUP2 MSTORE PUSH1 0x6 PUSH1 0x20 MSTORE PUSH1 0x40 SWAP1 KECCAK256 PUSH1 0x2 ADD SLOAD SWAP1 SWAP2 POP PUSH2 0xD63 SWAP1 DUP3 PUSH2 0x1562 JUMP JUMPDEST PUSH1 0x1 PUSH1 0x1 PUSH1 0xA0 SHL SUB DUP4 AND PUSH1 0x0 DUP2 DUP2 MSTORE PUSH1 0x6 PUSH1 0x20 SWAP1 DUP2 MSTORE PUSH1 0x40 SWAP2 DUP3 SWAP1 KECCAK256 PUSH1 0x2 ADD SWAP4 SWAP1 SWAP4 SSTORE MLOAD DUP4 DUP2 MSTORE CALLER SWAP3 PUSH32 0x328838DDFC48AD5AE5531B1AD95DFB22B42FF1866853E474375FFEF2C63D8E50 SWAP2 ADD PUSH1 0x40 MLOAD DUP1 SWAP2 SUB SWAP1 LOG3 POP JUMPDEST POP JUMPDEST DUP1 SLOAD PUSH2 0xE0E JUMPI TIMESTAMP PUSH1 0x1 DUP1 DUP4 ADD SWAP2 SWAP1 SWAP2 SSTORE PUSH1 0x2 SLOAD PUSH2 0xDD7 SWAP2 PUSH2 0x1562 JUMP JUMPDEST PUSH1 0x2 SSTORE PUSH1 0x40 MLOAD CALLER DUP2 MSTORE PUSH32 0x9FD565CD14C3C391679EB0CAD12A14DCF7534E9D3462BCB9B67A098A9BBBC24A SWAP1 PUSH1 0x20 ADD PUSH1 0x40 MLOAD DUP1 SWAP2 SUB SWAP1 LOG1 JUMPDEST PUSH1 0x40 DUP1 MLOAD PUSH1 0xA0 DUP2 ADD SWAP1 SWAP2 MSTORE DUP2 SWAP1 DUP1 PUSH2 0xE37 PUSH2 0xE30 PUSH2 0x3E8 PUSH2 0x517 DUP9 PUSH1 0x78 PUSH2 0x154A JUMP JUMPDEST DUP7 SWAP1 PUSH2 0x1537 JUMP JUMPDEST DUP2 MSTORE PUSH1 0x20 ADD PUSH1 0x0 DUP2 MSTORE PUSH1 0x20 ADD TIMESTAMP DUP2 MSTORE PUSH1 0x20 ADD PUSH3 0xED4E00 TIMESTAMP PUSH2 0xE58 SWAP2 SWAP1 PUSH2 0x16B8 JUMP JUMPDEST DUP2 MSTORE PUSH1 0x0 PUSH1 0x20 SWAP2 DUP3 ADD DUP2 SWAP1 MSTORE DUP4 SLOAD PUSH1 0x1 DUP1 DUP3 ADD DUP7 SSTORE SWAP5 DUP3 MSTORE SWAP1 DUP3 SWAP1 KECCAK256 DUP4 MLOAD PUSH1 0x5 SWAP1 SWAP3 MUL ADD SWAP1 DUP2 SSTORE SWAP1 DUP3 ADD MLOAD SWAP3 DUP2 ADD SWAP3 SWAP1 SWAP3 SSTORE PUSH1 0x40 DUP2 ADD MLOAD PUSH1 0x2 DUP4 ADD SSTORE PUSH1 0x60 DUP2 ADD MLOAD PUSH1 0x3 DUP1 DUP5 ADD SWAP2 SWAP1 SWAP2 SSTORE PUSH1 0x80 SWAP1 SWAP2 ADD MLOAD PUSH1 0x4 SWAP1 SWAP3 ADD DUP1 SLOAD PUSH1 0xFF NOT AND SWAP3 ISZERO ISZERO SWAP3 SWAP1 SWAP3 OR SWAP1 SWAP2 SSTORE SLOAD PUSH2 0xEC8 SWAP1 DUP4 PUSH2 0x1562 JUMP JUMPDEST PUSH1 0x3 SSTORE PUSH1 0x5 SLOAD PUSH2 0xED9 SWAP1 PUSH1 0x1 PUSH2 0x1562 JUMP JUMPDEST PUSH1 0x5 SSTORE PUSH1 0x40 MLOAD DUP3 DUP2 MSTORE CALLER SWAP1 PUSH32 0x2CB77763BC1E8490C1A904905C4D74B4269919ACA114464F4BB4D911E60DE364 SWAP1 PUSH1 0x20 ADD PUSH1 0x40 MLOAD DUP1 SWAP2 SUB SWAP1 LOG2 POP POP POP JUMP JUMPDEST PUSH1 0x1 PUSH1 0x1 PUSH1 0xA0 SHL SUB DUP3 AND PUSH1 0x0 SWAP1 DUP2 MSTORE PUSH1 0x6 PUSH1 0x20 MSTORE PUSH1 0x40 DUP2 KECCAK256 DUP1 SLOAD DUP3 SWAP2 DUP3 SWAP2 DUP3 SWAP2 DUP3 SWAP2 DUP2 SWAP1 DUP9 SWAP1 DUP2 LT PUSH2 0xF4A JUMPI PUSH2 0xF4A PUSH2 0x161F JUMP JUMPDEST SWAP1 PUSH1 0x0 MSTORE PUSH1 0x20 PUSH1 0x0 KECCAK256 SWAP1 PUSH1 0x5 MUL ADD PUSH1 0x0 ADD SLOAD DUP2 PUSH1 0x0 ADD DUP9 DUP2 SLOAD DUP2 LT PUSH2 0xF71 JUMPI PUSH2 0xF71 PUSH2 0x161F JUMP JUMPDEST SWAP1 PUSH1 0x0 MSTORE PUSH1 0x20 PUSH1 0x0 KECCAK256 SWAP1 PUSH1 0x5 MUL ADD PUSH1 0x1 ADD SLOAD DUP3 PUSH1 0x0 ADD DUP10 DUP2 SLOAD DUP2 LT PUSH2 0xF98 JUMPI PUSH2 0xF98 PUSH2 0x161F JUMP JUMPDEST SWAP1 PUSH1 0x0 MSTORE PUSH1 0x20 PUSH1 0x0 KECCAK256 SWAP1 PUSH1 0x5 MUL ADD PUSH1 0x2 ADD SLOAD DUP4 PUSH1 0x0 ADD DUP11 DUP2 SLOAD DUP2 LT PUSH2 0xFBF JUMPI PUSH2 0xFBF PUSH2 0x161F JUMP JUMPDEST SWAP1 PUSH1 0x0 MSTORE PUSH1 0x20 PUSH1 0x0 KECCAK256 SWAP1 PUSH1 0x5 MUL ADD PUSH1 0x3 ADD SLOAD DUP5 PUSH1 0x0 ADD DUP12 DUP2 SLOAD DUP2 LT PUSH2 0xFE6 JUMPI PUSH2 0xFE6 PUSH2 0x161F JUMP JUMPDEST PUSH1 0x0 SWAP2 DUP3 MSTORE PUSH1 0x20 SWAP1 SWAP2 KECCAK256 PUSH1 0x5 SWAP1 SWAP2 MUL ADD PUSH1 0x4 ADD SLOAD SWAP4 SWAP13 SWAP3 SWAP12 POP SWAP1 SWAP10 POP SWAP8 POP PUSH1 0xFF SWAP1 SWAP2 AND SWAP6 POP SWAP4 POP POP POP POP JUMP JUMPDEST PUSH1 0x0 SLOAD PUSH1 0x1 PUSH1 0x1 PUSH1 0xA0 SHL SUB AND CALLER EQ PUSH2 0x106C JUMPI PUSH1 0x40 MLOAD PUSH3 0x461BCD PUSH1 0xE5 SHL DUP2 MSTORE PUSH1 0x20 PUSH1 0x4 DUP3 ADD DUP2 SWAP1 MSTORE PUSH1 0x24 DUP3 ADD MSTORE PUSH32 0x4F776E61626C653A2063616C6C6572206973206E6F7420746865206F776E6572 PUSH1 0x44 DUP3 ADD MSTORE PUSH1 0x64 ADD PUSH2 0x94F JUMP JUMPDEST PUSH1 0x1 PUSH1 0x1 PUSH1 0xA0 SHL SUB DUP2 AND PUSH2 0x10D1 JUMPI PUSH1 0x40 MLOAD PUSH3 0x461BCD PUSH1 0xE5 SHL DUP2 MSTORE PUSH1 0x20 PUSH1 0x4 DUP3 ADD MSTORE PUSH1 0x26 PUSH1 0x24 DUP3 ADD MSTORE PUSH32 0x4F776E61626C653A206E6577206F776E657220697320746865207A65726F2061 PUSH1 0x44 DUP3 ADD MSTORE PUSH6 0x646472657373 PUSH1 0xD0 SHL PUSH1 0x64 DUP3 ADD MSTORE PUSH1 0x84 ADD PUSH2 0x94F JUMP JUMPDEST PUSH2 0x10DA DUP2 PUSH2 0x156E JUMP JUMPDEST POP JUMP JUMPDEST PUSH1 0x0 PUSH2 0x10E8 CALLER PUSH2 0x3E8 JUMP JUMPDEST GT PUSH2 0x1122 JUMPI PUSH1 0x40 MLOAD PUSH3 0x461BCD PUSH1 0xE5 SHL DUP2 MSTORE PUSH1 0x20 PUSH1 0x4 DUP3 ADD MSTORE PUSH1 0xA PUSH1 0x24 DUP3 ADD MSTORE PUSH10 0x2737BA102437B63232B9 PUSH1 0xB1 SHL PUSH1 0x44 DUP3 ADD MSTORE PUSH1 0x64 ADD PUSH2 0x94F JUMP JUMPDEST CALLER PUSH1 0x0 DUP2 DUP2 MSTORE PUSH1 0x6 PUSH1 0x20 MSTORE PUSH1 0x40 DUP2 KECCAK256 SWAP2 PUSH2 0x113B SWAP1 PUSH2 0x3E8 JUMP JUMPDEST SWAP1 POP PUSH1 0x0 DUP1 DUP4 PUSH1 0x0 ADD PUSH1 0x40 MLOAD DUP1 PUSH1 0xA0 ADD PUSH1 0x40 MSTORE DUP1 DUP6 DUP2 MSTORE PUSH1 0x20 ADD PUSH1 0x0 DUP2 MSTORE PUSH1 0x20 ADD TIMESTAMP DUP2 MSTORE PUSH1 0x20 ADD PUSH3 0xED4E00 TIMESTAMP PUSH2 0x1171 SWAP2 SWAP1 PUSH2 0x16B8 JUMP JUMPDEST DUP2 MSTORE PUSH1 0x0 PUSH1 0x20 SWAP2 DUP3 ADD DUP2 SWAP1 MSTORE DUP4 SLOAD PUSH1 0x1 DUP1 DUP3 ADD DUP7 SSTORE SWAP5 DUP3 MSTORE DUP3 DUP3 KECCAK256 DUP5 MLOAD PUSH1 0x5 SWAP1 SWAP3 MUL ADD SWAP1 DUP2 SSTORE SWAP2 DUP4 ADD MLOAD SWAP4 DUP3 ADD SWAP4 SWAP1 SWAP4 SSTORE PUSH1 0x40 DUP3 ADD MLOAD PUSH1 0x2 DUP3 ADD SSTORE PUSH1 0x60 DUP3 ADD MLOAD PUSH1 0x3 DUP3 ADD SSTORE PUSH1 0x80 SWAP1 SWAP2 ADD MLOAD PUSH1 0x4 SWAP1 SWAP2 ADD DUP1 SLOAD PUSH1 0xFF NOT AND SWAP2 ISZERO ISZERO SWAP2 SWAP1 SWAP2 OR SWAP1 SSTORE JUMPDEST DUP5 SLOAD DUP2 LT ISZERO PUSH2 0x1453 JUMPI DUP5 PUSH1 0x0 ADD DUP2 DUP2 SLOAD DUP2 LT PUSH2 0x11EF JUMPI PUSH2 0x11EF PUSH2 0x161F JUMP JUMPDEST PUSH1 0x0 SWAP2 DUP3 MSTORE PUSH1 0x20 SWAP1 SWAP2 KECCAK256 PUSH1 0x4 PUSH1 0x5 SWAP1 SWAP3 MUL ADD ADD SLOAD PUSH1 0xFF AND PUSH2 0x1441 JUMPI TIMESTAMP DUP6 PUSH1 0x0 ADD DUP3 DUP2 SLOAD DUP2 LT PUSH2 0x1220 JUMPI PUSH2 0x1220 PUSH2 0x161F JUMP JUMPDEST SWAP1 PUSH1 0x0 MSTORE PUSH1 0x20 PUSH1 0x0 KECCAK256 SWAP1 PUSH1 0x5 MUL ADD PUSH1 0x3 ADD SLOAD GT ISZERO PUSH2 0x12D4 JUMPI DUP5 PUSH1 0x1 ADD SLOAD DUP6 PUSH1 0x0 ADD DUP3 DUP2 SLOAD DUP2 LT PUSH2 0x1252 JUMPI PUSH2 0x1252 PUSH2 0x161F JUMP JUMPDEST SWAP1 PUSH1 0x0 MSTORE PUSH1 0x20 PUSH1 0x0 KECCAK256 SWAP1 PUSH1 0x5 MUL ADD PUSH1 0x2 ADD SLOAD GT ISZERO PUSH2 0x12B3 JUMPI PUSH2 0x12AC PUSH3 0x15180 PUSH2 0x517 PUSH2 0x128C DUP9 PUSH1 0x0 ADD DUP6 DUP2 SLOAD DUP2 LT PUSH2 0x4BF JUMPI PUSH2 0x4BF PUSH2 0x161F JUMP JUMPDEST PUSH2 0x51D PUSH2 0x3E8 PUSH2 0x517 PUSH1 0xF DUP13 PUSH1 0x0 ADD DUP10 DUP2 SLOAD DUP2 LT PUSH2 0x500 JUMPI PUSH2 0x500 PUSH2 0x161F JUMP JUMPDEST SWAP2 POP PUSH2 0x13F2 JUMP JUMPDEST PUSH2 0x12AC PUSH3 0x15180 PUSH2 0x517 PUSH2 0x128C DUP9 PUSH1 0x1 ADD SLOAD TIMESTAMP PUSH2 0x1537 SWAP1 SWAP2 SWAP1 PUSH4 0xFFFFFFFF AND JUMP JUMPDEST DUP5 PUSH1 0x1 ADD SLOAD DUP6 PUSH1 0x0 ADD DUP3 DUP2 SLOAD DUP2 LT PUSH2 0x12EE JUMPI PUSH2 0x12EE PUSH2 0x161F JUMP JUMPDEST SWAP1 PUSH1 0x0 MSTORE PUSH1 0x20 PUSH1 0x0 KECCAK256 SWAP1 PUSH1 0x5 MUL ADD PUSH1 0x2 ADD SLOAD GT ISZERO PUSH2 0x138F JUMPI PUSH2 0x134F PUSH3 0x15180 PUSH2 0x517 PUSH2 0x128C DUP9 PUSH1 0x0 ADD DUP6 DUP2 SLOAD DUP2 LT PUSH2 0x1328 JUMPI PUSH2 0x1328 PUSH2 0x161F JUMP JUMPDEST SWAP1 PUSH1 0x0 MSTORE PUSH1 0x20 PUSH1 0x0 KECCAK256 SWAP1 PUSH1 0x5 MUL ADD PUSH1 0x2 ADD SLOAD DUP10 PUSH1 0x0 ADD DUP7 DUP2 SLOAD DUP2 LT PUSH2 0x5C6 JUMPI PUSH2 0x5C6 PUSH2 0x161F JUMP JUMPDEST SWAP2 POP PUSH1 0x1 DUP6 PUSH1 0x0 ADD DUP3 DUP2 SLOAD DUP2 LT PUSH2 0x1368 JUMPI PUSH2 0x1368 PUSH2 0x161F JUMP JUMPDEST PUSH1 0x0 SWAP2 DUP3 MSTORE PUSH1 0x20 SWAP1 SWAP2 KECCAK256 PUSH1 0x5 SWAP1 SWAP2 MUL ADD PUSH1 0x4 ADD DUP1 SLOAD PUSH1 0xFF NOT AND SWAP2 ISZERO ISZERO SWAP2 SWAP1 SWAP2 OR SWAP1 SSTORE PUSH2 0x13F2 JUMP JUMPDEST PUSH2 0x13B6 PUSH3 0x15180 PUSH2 0x517 PUSH2 0x128C DUP9 PUSH1 0x1 ADD SLOAD DUP10 PUSH1 0x0 ADD DUP7 DUP2 SLOAD DUP2 LT PUSH2 0x5C6 JUMPI PUSH2 0x5C6 PUSH2 0x161F JUMP JUMPDEST SWAP2 POP PUSH1 0x1 DUP6 PUSH1 0x0 ADD DUP3 DUP2 SLOAD DUP2 LT PUSH2 0x13CF JUMPI PUSH2 0x13CF PUSH2 0x161F JUMP JUMPDEST PUSH1 0x0 SWAP2 DUP3 MSTORE PUSH1 0x20 SWAP1 SWAP2 KECCAK256 PUSH1 0x5 SWAP1 SWAP2 MUL ADD PUSH1 0x4 ADD DUP1 SLOAD PUSH1 0xFF NOT AND SWAP2 ISZERO ISZERO SWAP2 SWAP1 SWAP2 OR SWAP1 SSTORE JUMPDEST PUSH2 0x140B DUP3 DUP7 PUSH1 0x0 ADD DUP4 DUP2 SLOAD DUP2 LT PUSH2 0x875 JUMPI PUSH2 0x875 PUSH2 0x161F JUMP JUMPDEST DUP6 PUSH1 0x0 ADD DUP3 DUP2 SLOAD DUP2 LT PUSH2 0x1420 JUMPI PUSH2 0x1420 PUSH2 0x161F JUMP JUMPDEST PUSH1 0x0 SWAP2 DUP3 MSTORE PUSH1 0x20 SWAP1 SWAP2 KECCAK256 PUSH1 0x1 PUSH1 0x5 SWAP1 SWAP3 MUL ADD ADD SSTORE PUSH2 0x143E DUP4 DUP4 PUSH2 0x1562 JUMP JUMPDEST SWAP3 POP JUMPDEST DUP1 PUSH2 0x144B DUP2 PUSH2 0x164B JUMP JUMPDEST SWAP2 POP POP PUSH2 0x11D1 JUMP JUMPDEST POP TIMESTAMP PUSH1 0x1 DUP6 ADD SSTORE PUSH1 0x3 SLOAD PUSH2 0x1467 SWAP1 DUP5 PUSH2 0x1562 JUMP JUMPDEST PUSH1 0x3 SSTORE PUSH1 0x5 SLOAD PUSH2 0x1478 SWAP1 PUSH1 0x1 PUSH2 0x1562 JUMP JUMPDEST PUSH1 0x5 SSTORE PUSH1 0x4 SLOAD PUSH2 0x1488 SWAP1 DUP4 PUSH2 0x1562 JUMP JUMPDEST PUSH1 0x4 SSTORE PUSH1 0x40 MLOAD DUP4 DUP2 MSTORE CALLER SWAP1 PUSH32 0x5D511C2070E5A2DBCC6FBFBB3FD6704A11AB5FA74B793B81AACECE2C7CC29405 SWAP1 PUSH1 0x20 ADD PUSH1 0x40 MLOAD DUP1 SWAP2 SUB SWAP1 LOG2 POP POP POP POP JUMP JUMPDEST PUSH1 0x1 PUSH1 0x1 PUSH1 0xA0 SHL SUB DUP2 AND PUSH1 0x0 SWAP1 DUP2 MSTORE PUSH1 0x6 PUSH1 0x20 MSTORE PUSH1 0x40 DUP2 KECCAK256 DUP2 DUP1 JUMPDEST DUP3 SLOAD DUP2 LT ISZERO PUSH2 0xB6B JUMPI PUSH2 0x1523 DUP4 PUSH1 0x0 ADD DUP3 DUP2 SLOAD DUP2 LT PUSH2 0x1502 JUMPI PUSH2 0x1502 PUSH2 0x161F JUMP JUMPDEST SWAP1 PUSH1 0x0 MSTORE PUSH1 0x20 PUSH1 0x0 KECCAK256 SWAP1 PUSH1 0x5 MUL ADD PUSH1 0x1 ADD SLOAD DUP4 PUSH2 0x1562 SWAP1 SWAP2 SWAP1 PUSH4 0xFFFFFFFF AND JUMP JUMPDEST SWAP2 POP DUP1 PUSH2 0x152F DUP2 PUSH2 0x164B JUMP JUMPDEST SWAP2 POP POP PUSH2 0x14E1 JUMP JUMPDEST PUSH1 0x0 PUSH2 0x1543 DUP3 DUP5 PUSH2 0x16A1 JUMP JUMPDEST SWAP4 SWAP3 POP POP POP JUMP JUMPDEST PUSH1 0x0 PUSH2 0x1543 DUP3 DUP5 PUSH2 0x16D0 JUMP JUMPDEST PUSH1 0x0 PUSH2 0x1543 DUP3 DUP5 PUSH2 0x16EF JUMP JUMPDEST PUSH1 0x0 PUSH2 0x1543 DUP3 DUP5 PUSH2 0x16B8 JUMP JUMPDEST PUSH1 0x0 DUP1 SLOAD PUSH1 0x1 PUSH1 0x1 PUSH1 0xA0 SHL SUB DUP4 DUP2 AND PUSH1 0x1 PUSH1 0x1 PUSH1 0xA0 SHL SUB NOT DUP4 AND DUP2 OR DUP5 SSTORE PUSH1 0x40 MLOAD SWAP2 SWAP1 SWAP3 AND SWAP3 DUP4 SWAP2 PUSH32 0x8BE0079C531659141344CD1FD0A4F28419497F9722A3DAAFE3B4186F6B6457E0 SWAP2 SWAP1 LOG3 POP POP JUMP JUMPDEST DUP1 CALLDATALOAD PUSH1 0x1 PUSH1 0x1 PUSH1 0xA0 SHL SUB DUP2 AND DUP2 EQ PUSH2 0x15D5 JUMPI PUSH1 0x0 DUP1 REVERT JUMPDEST SWAP2 SWAP1 POP JUMP JUMPDEST PUSH1 0x0 PUSH1 0x20 DUP3 DUP5 SUB SLT ISZERO PUSH2 0x15EC JUMPI PUSH1 0x0 DUP1 REVERT JUMPDEST PUSH2 0x1543 DUP3 PUSH2 0x15BE JUMP JUMPDEST PUSH1 0x0 DUP1 PUSH1 0x40 DUP4 DUP6 SUB SLT ISZERO PUSH2 0x1608 JUMPI PUSH1 0x0 DUP1 REVERT JUMPDEST PUSH2 0x1611 DUP4 PUSH2 0x15BE JUMP JUMPDEST SWAP5 PUSH1 0x20 SWAP4 SWAP1 SWAP4 ADD CALLDATALOAD SWAP4 POP POP POP JUMP JUMPDEST PUSH4 0x4E487B71 PUSH1 0xE0 SHL PUSH1 0x0 MSTORE PUSH1 0x32 PUSH1 0x4 MSTORE PUSH1 0x24 PUSH1 0x0 REVERT JUMPDEST PUSH4 0x4E487B71 PUSH1 0xE0 SHL PUSH1 0x0 MSTORE PUSH1 0x11 PUSH1 0x4 MSTORE PUSH1 0x24 PUSH1 0x0 REVERT JUMPDEST PUSH1 0x0 PUSH1 0x0 NOT DUP3 EQ ISZERO PUSH2 0x165F JUMPI PUSH2 0x165F PUSH2 0x1635 JUMP JUMPDEST POP PUSH1 0x1 ADD SWAP1 JUMP JUMPDEST PUSH1 0x0 PUSH1 0x20 DUP3 DUP5 SUB SLT ISZERO PUSH2 0x1678 JUMPI PUSH1 0x0 DUP1 REVERT JUMPDEST POP MLOAD SWAP2 SWAP1 POP JUMP JUMPDEST PUSH1 0x0 PUSH1 0x20 DUP3 DUP5 SUB SLT ISZERO PUSH2 0x1691 JUMPI PUSH1 0x0 DUP1 REVERT JUMPDEST DUP2 MLOAD DUP1 ISZERO ISZERO DUP2 EQ PUSH2 0x1543 JUMPI PUSH1 0x0 DUP1 REVERT JUMPDEST PUSH1 0x0 DUP3 DUP3 LT ISZERO PUSH2 0x16B3 JUMPI PUSH2 0x16B3 PUSH2 0x1635 JUMP JUMPDEST POP SUB SWAP1 JUMP JUMPDEST PUSH1 0x0 DUP3 NOT DUP3 GT ISZERO PUSH2 0x16CB JUMPI PUSH2 0x16CB PUSH2 0x1635 JUMP JUMPDEST POP ADD SWAP1 JUMP JUMPDEST PUSH1 0x0 DUP2 PUSH1 0x0 NOT DIV DUP4 GT DUP3 ISZERO ISZERO AND ISZERO PUSH2 0x16EA JUMPI PUSH2 0x16EA PUSH2 0x1635 JUMP JUMPDEST POP MUL SWAP1 JUMP JUMPDEST PUSH1 0x0 DUP3 PUSH2 0x170C JUMPI PUSH4 0x4E487B71 PUSH1 0xE0 SHL PUSH1 0x0 MSTORE PUSH1 0x12 PUSH1 0x4 MSTORE PUSH1 0x24 PUSH1 0x0 REVERT JUMPDEST POP DIV SWAP1 JUMP INVALID LOG2 PUSH5 0x6970667358 0x22 SLT KECCAK256 0x4A POP SHR PUSH21 0x3942EBC3C52EF32A53F950339D647DE5269CFAFEA4 RETURNDATASIZE SGT SHR 0xC1 0xA7 0xC7 0xE4 PUSH5 0x736F6C6343 STOP ADDMOD EXP STOP CALLER "
				},
				"gasEstimates": {
					"creation": {
						"codeDepositCost": "1191800",
						"executionCost": "infinite",
						"totalCost": "infinite"
					},
					"external": {
						"PERCENTS_DAILY()": "274",
						"PERCENTS_DIVIDER()": "230",
						"REFERRAL_PERCENTS()": "252",
						"STAKING_PERIOD()": "208",
						"TIME_STEP()": "318",
						"claim()": "infinite",
						"compound()": "infinite",
						"getUserAmountOfDeposits(address)": "2593",
						"getUserAvailable(address)": "infinite",
						"getUserCheckpoint(address)": "2621",
						"getUserDepositInfo(address,uint256)": "22308",
						"getUserDividends(address)": "infinite",
						"getUserReferralBonus(address)": "2576",
						"getUserReferralCount(address)": "2577",
						"getUserReferrer(address)": "2619",
						"getUserTotalDeposits(address)": "infinite",
						"getUserTotalWithdrawn(address)": "infinite",
						"isActive(address)": "infinite",
						"owner()": "2354",
						"renounceOwnership()": "28181",
						"stake(address,uint256)": "infinite",
						"totalDepositCount()": "2351",
						"totalStaked()": "2395",
						"totalUsers()": "2395",
						"totalWithdrawn()": "2374",
						"transferOwnership(address)": "28375"
					}
				},
				"methodIdentifiers": {
					"PERCENTS_DAILY()": "141a2a3f",
					"PERCENTS_DIVIDER()": "01c234a8",
					"REFERRAL_PERCENTS()": "44038f90",
					"STAKING_PERIOD()": "0104db1b",
					"TIME_STEP()": "32bc298c",
					"claim()": "4e71d92d",
					"compound()": "f69e2046",
					"getUserAmountOfDeposits(address)": "a8aeb6c2",
					"getUserAvailable(address)": "153ab9df",
					"getUserCheckpoint(address)": "d7ffca91",
					"getUserDepositInfo(address,uint256)": "c0806b03",
					"getUserDividends(address)": "040a772e",
					"getUserReferralBonus(address)": "e85abe09",
					"getUserReferralCount(address)": "c8a22eb4",
					"getUserReferrer(address)": "36144c9a",
					"getUserTotalDeposits(address)": "7e3abeea",
					"getUserTotalWithdrawn(address)": "fb4cb32b",
					"isActive(address)": "9f8a13d7",
					"owner()": "8da5cb5b",
					"renounceOwnership()": "715018a6",
					"stake(address,uint256)": "adc9772e",
					"totalDepositCount()": "d6343867",
					"totalStaked()": "817b1cd2",
					"totalUsers()": "bff1f9e1",
					"totalWithdrawn()": "4b319713",
					"transferOwnership(address)": "f2fde38b"
				}
			},
			"storageLayout": {
				"storage": [
					{
						"astId": 7,
						"contract": "Staking.sol:BillionCashStaking",
						"label": "_owner",
						"offset": 0,
						"slot": "0",
						"type": "t_address"
					},
					{
						"astId": 1155,
						"contract": "Staking.sol:BillionCashStaking",
						"label": "BC",
						"offset": 0,
						"slot": "1",
						"type": "t_contract(ERC20)690"
					},
					{
						"astId": 1157,
						"contract": "Staking.sol:BillionCashStaking",
						"label": "totalUsers",
						"offset": 0,
						"slot": "2",
						"type": "t_uint256"
					},
					{
						"astId": 1159,
						"contract": "Staking.sol:BillionCashStaking",
						"label": "totalStaked",
						"offset": 0,
						"slot": "3",
						"type": "t_uint256"
					},
					{
						"astId": 1161,
						"contract": "Staking.sol:BillionCashStaking",
						"label": "totalWithdrawn",
						"offset": 0,
						"slot": "4",
						"type": "t_uint256"
					},
					{
						"astId": 1163,
						"contract": "Staking.sol:BillionCashStaking",
						"label": "totalDepositCount",
						"offset": 0,
						"slot": "5",
						"type": "t_uint256"
					},
					{
						"astId": 1192,
						"contract": "Staking.sol:BillionCashStaking",
						"label": "users",
						"offset": 0,
						"slot": "6",
						"type": "t_mapping(t_address,t_struct(User)1187_storage)"
					}
				],
				"types": {
					"t_address": {
						"encoding": "inplace",
						"label": "address",
						"numberOfBytes": "20"
					},
					"t_array(t_struct(Deposit)1174_storage)dyn_storage": {
						"base": "t_struct(Deposit)1174_storage",
						"encoding": "dynamic_array",
						"label": "struct BillionCashStaking.Deposit[]",
						"numberOfBytes": "32"
					},
					"t_bool": {
						"encoding": "inplace",
						"label": "bool",
						"numberOfBytes": "1"
					},
					"t_contract(ERC20)690": {
						"encoding": "inplace",
						"label": "contract ERC20",
						"numberOfBytes": "20"
					},
					"t_mapping(t_address,t_struct(User)1187_storage)": {
						"encoding": "mapping",
						"key": "t_address",
						"label": "mapping(address => struct BillionCashStaking.User)",
						"numberOfBytes": "32",
						"value": "t_struct(User)1187_storage"
					},
					"t_struct(Deposit)1174_storage": {
						"encoding": "inplace",
						"label": "struct BillionCashStaking.Deposit",
						"members": [
							{
								"astId": 1165,
								"contract": "Staking.sol:BillionCashStaking",
								"label": "amount",
								"offset": 0,
								"slot": "0",
								"type": "t_uint256"
							},
							{
								"astId": 1167,
								"contract": "Staking.sol:BillionCashStaking",
								"label": "withdrawn",
								"offset": 0,
								"slot": "1",
								"type": "t_uint256"
							},
							{
								"astId": 1169,
								"contract": "Staking.sol:BillionCashStaking",
								"label": "startTime",
								"offset": 0,
								"slot": "2",
								"type": "t_uint256"
							},
							{
								"astId": 1171,
								"contract": "Staking.sol:BillionCashStaking",
								"label": "endTime",
								"offset": 0,
								"slot": "3",
								"type": "t_uint256"
							},
							{
								"astId": 1173,
								"contract": "Staking.sol:BillionCashStaking",
								"label": "ended",
								"offset": 0,
								"slot": "4",
								"type": "t_bool"
							}
						],
						"numberOfBytes": "160"
					},
					"t_struct(User)1187_storage": {
						"encoding": "inplace",
						"label": "struct BillionCashStaking.User",
						"members": [
							{
								"astId": 1178,
								"contract": "Staking.sol:BillionCashStaking",
								"label": "deposits",
								"offset": 0,
								"slot": "0",
								"type": "t_array(t_struct(Deposit)1174_storage)dyn_storage"
							},
							{
								"astId": 1180,
								"contract": "Staking.sol:BillionCashStaking",
								"label": "checkpoint",
								"offset": 0,
								"slot": "1",
								"type": "t_uint256"
							},
							{
								"astId": 1182,
								"contract": "Staking.sol:BillionCashStaking",
								"label": "bonus",
								"offset": 0,
								"slot": "2",
								"type": "t_uint256"
							},
							{
								"astId": 1184,
								"contract": "Staking.sol:BillionCashStaking",
								"label": "referralCount",
								"offset": 0,
								"slot": "3",
								"type": "t_uint256"
							},
							{
								"astId": 1186,
								"contract": "Staking.sol:BillionCashStaking",
								"label": "referrer",
								"offset": 0,
								"slot": "4",
								"type": "t_address"
							}
						],
						"numberOfBytes": "160"
					},
					"t_uint256": {
						"encoding": "inplace",
						"label": "uint256",
						"numberOfBytes": "32"
					}
				}
			},
			"userdoc": {
				"kind": "user",
				"methods": {},
				"version": 1
			}
		}
	}
}