{
	"BCStaking.sol": {
		"BillionCashStaking": {
			"abi": [
				{
					"inputs": [
						{
							"internalType": "contract ERC20",
							"name": "_token",
							"type": "address"
						}
					],
					"stateMutability": "nonpayable",
					"type": "constructor"
				},
				{
					"anonymous": false,
					"inputs": [
						{
							"indexed": true,
							"internalType": "address",
							"name": "user",
							"type": "address"
						},
						{
							"indexed": false,
							"internalType": "uint256",
							"name": "amount",
							"type": "uint256"
						}
					],
					"name": "NewDeposit",
					"type": "event"
				},
				{
					"anonymous": false,
					"inputs": [
						{
							"indexed": false,
							"internalType": "address",
							"name": "user",
							"type": "address"
						}
					],
					"name": "Newbie",
					"type": "event"
				},
				{
					"anonymous": false,
					"inputs": [
						{
							"indexed": true,
							"internalType": "address",
							"name": "previousOwner",
							"type": "address"
						},
						{
							"indexed": true,
							"internalType": "address",
							"name": "newOwner",
							"type": "address"
						}
					],
					"name": "OwnershipTransferred",
					"type": "event"
				},
				{
					"anonymous": false,
					"inputs": [
						{
							"indexed": true,
							"internalType": "address",
							"name": "referrer",
							"type": "address"
						},
						{
							"indexed": true,
							"internalType": "address",
							"name": "referral",
							"type": "address"
						},
						{
							"indexed": false,
							"internalType": "uint256",
							"name": "amount",
							"type": "uint256"
						}
					],
					"name": "RefBonus",
					"type": "event"
				},
				{
					"anonymous": false,
					"inputs": [
						{
							"indexed": true,
							"internalType": "address",
							"name": "user",
							"type": "address"
						},
						{
							"indexed": false,
							"internalType": "uint256",
							"name": "amount",
							"type": "uint256"
						}
					],
					"name": "Withdrawn",
					"type": "event"
				},
				{
					"anonymous": false,
					"inputs": [
						{
							"indexed": true,
							"internalType": "address",
							"name": "user",
							"type": "address"
						},
						{
							"indexed": false,
							"internalType": "uint256",
							"name": "reinvestAmount",
							"type": "uint256"
						}
					],
					"name": "onReinvestment",
					"type": "event"
				},
				{
					"inputs": [],
					"name": "DAILY_ROI",
					"outputs": [
						{
							"internalType": "uint256",
							"name": "",
							"type": "uint256"
						}
					],
					"stateMutability": "view",
					"type": "function"
				},
				{
					"inputs": [],
					"name": "PERCENTS_DIVIDER",
					"outputs": [
						{
							"internalType": "uint256",
							"name": "",
							"type": "uint256"
						}
					],
					"stateMutability": "view",
					"type": "function"
				},
				{
					"inputs": [],
					"name": "REFERRAL_PERCENTS",
					"outputs": [
						{
							"internalType": "uint256",
							"name": "",
							"type": "uint256"
						}
					],
					"stateMutability": "view",
					"type": "function"
				},
				{
					"inputs": [],
					"name": "STAKING_PERIOD",
					"outputs": [
						{
							"internalType": "uint256",
							"name": "",
							"type": "uint256"
						}
					],
					"stateMutability": "view",
					"type": "function"
				},
				{
					"inputs": [],
					"name": "TIME_STEP",
					"outputs": [
						{
							"internalType": "uint256",
							"name": "",
							"type": "uint256"
						}
					],
					"stateMutability": "view",
					"type": "function"
				},
				{
					"inputs": [],
					"name": "claim",
					"outputs": [],
					"stateMutability": "nonpayable",
					"type": "function"
				},
				{
					"inputs": [],
					"name": "compound",
					"outputs": [],
					"stateMutability": "nonpayable",
					"type": "function"
				},
				{
					"inputs": [
						{
							"internalType": "address",
							"name": "userAddress",
							"type": "address"
						}
					],
					"name": "getUserAmountOfDeposits",
					"outputs": [
						{
							"internalType": "uint256",
							"name": "",
							"type": "uint256"
						}
					],
					"stateMutability": "view",
					"type": "function"
				},
				{
					"inputs": [
						{
							"internalType": "address",
							"name": "userAddress",
							"type": "address"
						}
					],
					"name": "getUserAvailable",
					"outputs": [
						{
							"internalType": "uint256",
							"name": "",
							"type": "uint256"
						}
					],
					"stateMutability": "view",
					"type": "function"
				},
				{
					"inputs": [
						{
							"internalType": "address",
							"name": "userAddress",
							"type": "address"
						}
					],
					"name": "getUserCheckpoint",
					"outputs": [
						{
							"internalType": "uint256",
							"name": "",
							"type": "uint256"
						}
					],
					"stateMutability": "view",
					"type": "function"
				},
				{
					"inputs": [
						{
							"internalType": "address",
							"name": "userAddress",
							"type": "address"
						},
						{
							"internalType": "uint256",
							"name": "index",
							"type": "uint256"
						}
					],
					"name": "getUserDepositInfo",
					"outputs": [
						{
							"internalType": "uint256",
							"name": "",
							"type": "uint256"
						},
						{
							"internalType": "uint256",
							"name": "",
							"type": "uint256"
						},
						{
							"internalType": "uint256",
							"name": "",
							"type": "uint256"
						},
						{
							"internalType": "uint256",
							"name": "",
							"type": "uint256"
						},
						{
							"internalType": "bool",
							"name": "",
							"type": "bool"
						}
					],
					"stateMutability": "view",
					"type": "function"
				},
				{
					"inputs": [
						{
							"internalType": "address",
							"name": "userAddress",
							"type": "address"
						}
					],
					"name": "getUserDividends",
					"outputs": [
						{
							"internalType": "uint256",
							"name": "",
							"type": "uint256"
						}
					],
					"stateMutability": "view",
					"type": "function"
				},
				{
					"inputs": [
						{
							"internalType": "address",
							"name": "userAddress",
							"type": "address"
						}
					],
					"name": "getUserReferralBonus",
					"outputs": [
						{
							"internalType": "uint256",
							"name": "",
							"type": "uint256"
						}
					],
					"stateMutability": "view",
					"type": "function"
				},
				{
					"inputs": [
						{
							"internalType": "address",
							"name": "userAddress",
							"type": "address"
						}
					],
					"name": "getUserReferralCount",
					"outputs": [
						{
							"internalType": "uint256",
							"name": "",
							"type": "uint256"
						}
					],
					"stateMutability": "view",
					"type": "function"
				},
				{
					"inputs": [
						{
							"internalType": "address",
							"name": "userAddress",
							"type": "address"
						}
					],
					"name": "getUserReferrer",
					"outputs": [
						{
							"internalType": "address",
							"name": "",
							"type": "address"
						}
					],
					"stateMutability": "view",
					"type": "function"
				},
				{
					"inputs": [
						{
							"internalType": "address",
							"name": "userAddress",
							"type": "address"
						}
					],
					"name": "getUserTotalDeposits",
					"outputs": [
						{
							"internalType": "uint256",
							"name": "",
							"type": "uint256"
						}
					],
					"stateMutability": "view",
					"type": "function"
				},
				{
					"inputs": [
						{
							"internalType": "address",
							"name": "userAddress",
							"type": "address"
						}
					],
					"name": "getUserTotalWithdrawn",
					"outputs": [
						{
							"internalType": "uint256",
							"name": "",
							"type": "uint256"
						}
					],
					"stateMutability": "view",
					"type": "function"
				},
				{
					"inputs": [],
					"name": "minimumStakeValue",
					"outputs": [
						{
							"internalType": "uint256",
							"name": "",
							"type": "uint256"
						}
					],
					"stateMutability": "view",
					"type": "function"
				},
				{
					"inputs": [],
					"name": "owner",
					"outputs": [
						{
							"internalType": "address",
							"name": "",
							"type": "address"
						}
					],
					"stateMutability": "view",
					"type": "function"
				},
				{
					"inputs": [],
					"name": "renounceOwnership",
					"outputs": [],
					"stateMutability": "nonpayable",
					"type": "function"
				},
				{
					"inputs": [
						{
							"internalType": "uint256",
							"name": "_minimumStakeValue",
							"type": "uint256"
						}
					],
					"name": "setMinimumStakeValue",
					"outputs": [],
					"stateMutability": "nonpayable",
					"type": "function"
				},
				{
					"inputs": [
						{
							"internalType": "address",
							"name": "referrer",
							"type": "address"
						},
						{
							"internalType": "uint256",
							"name": "amount",
							"type": "uint256"
						}
					],
					"name": "stake",
					"outputs": [],
					"stateMutability": "nonpayable",
					"type": "function"
				},
				{
					"inputs": [],
					"name": "totalDepositCount",
					"outputs": [
						{
							"internalType": "uint256",
							"name": "",
							"type": "uint256"
						}
					],
					"stateMutability": "view",
					"type": "function"
				},
				{
					"inputs": [],
					"name": "totalStaked",
					"outputs": [
						{
							"internalType": "uint256",
							"name": "",
							"type": "uint256"
						}
					],
					"stateMutability": "view",
					"type": "function"
				},
				{
					"inputs": [],
					"name": "totalUsers",
					"outputs": [
						{
							"internalType": "uint256",
							"name": "",
							"type": "uint256"
						}
					],
					"stateMutability": "view",
					"type": "function"
				},
				{
					"inputs": [],
					"name": "totalWithdrawn",
					"outputs": [
						{
							"internalType": "uint256",
							"name": "",
							"type": "uint256"
						}
					],
					"stateMutability": "view",
					"type": "function"
				},
				{
					"inputs": [
						{
							"internalType": "address",
							"name": "newOwner",
							"type": "address"
						}
					],
					"name": "transferOwnership",
					"outputs": [],
					"stateMutability": "nonpayable",
					"type": "function"
				}
			],
			"devdoc": {
				"kind": "dev",
				"methods": {
					"owner()": {
						"details": "Returns the address of the current owner."
					},
					"renounceOwnership()": {
						"details": "Leaves the contract without owner. It will not be possible to call `onlyOwner` functions anymore. Can only be called by the current owner. NOTE: Renouncing ownership will leave the contract without an owner, thereby removing any functionality that is only available to the owner."
					},
					"transferOwnership(address)": {
						"details": "Transfers ownership of the contract to a new account (`newOwner`). Can only be called by the current owner."
					}
				},
				"version": 1
			},
			"evm": {
				"assembly": "    /* \"BCStaking.sol\":241:15765  contract BillionCashStaking is Ownable {... */\n  mstore(0x40, 0x80)\n    /* \"BCStaking.sol\":778:790  200 * 10**18 */\n  0x0ad78ebc5ac6200000\n    /* \"BCStaking.sol\":743:790  uint256 public minimumStakeValue = 200 * 10**18 */\n  0x06\n  sstore\n    /* \"BCStaking.sol\":1643:1738  constructor(ERC20 _token) {... */\n  callvalue\n  dup1\n  iszero\n  tag_1\n  jumpi\n  0x00\n  dup1\n  revert\ntag_1:\n  pop\n  mload(0x40)\n  sub(codesize, bytecodeSize)\n  dup1\n  bytecodeSize\n  dup4\n  codecopy\n  dup2\n  add\n  0x40\n  dup2\n  swap1\n  mstore\n  tag_2\n  swap2\n  tag_3\n  jump\t// in\ntag_2:\n    /* \"@openzeppelin/contracts/access/Ownable.sol\":921:953  _transferOwnership(_msgSender()) */\n  tag_7\n    /* \"@openzeppelin/contracts/utils/Context.sol\":719:729  msg.sender */\n  caller\n    /* \"@openzeppelin/contracts/access/Ownable.sol\":921:939  _transferOwnership */\n  tag_10\n    /* \"@openzeppelin/contracts/access/Ownable.sol\":921:953  _transferOwnership(_msgSender()) */\n  jump\t// in\ntag_7:\n    /* \"BCStaking.sol\":1719:1721  BC */\n  0x01\n    /* \"BCStaking.sol\":1719:1730  BC = _token */\n  dup1\n  sload\n  not(sub(shl(0xa0, 0x01), 0x01))\n  and\n  sub(shl(0xa0, 0x01), 0x01)\n  swap3\n  swap1\n  swap3\n  and\n  swap2\n  swap1\n  swap2\n  or\n  swap1\n  sstore\n    /* \"BCStaking.sol\":241:15765  contract BillionCashStaking is Ownable {... */\n  jump(tag_15)\n    /* \"@openzeppelin/contracts/access/Ownable.sol\":2270:2457  function _transferOwnership(address newOwner) internal virtual {... */\ntag_10:\n    /* \"@openzeppelin/contracts/access/Ownable.sol\":2343:2359  address oldOwner */\n  0x00\n    /* \"@openzeppelin/contracts/access/Ownable.sol\":2362:2368  _owner */\n  dup1\n  sload\n  sub(shl(0xa0, 0x01), 0x01)\n    /* \"@openzeppelin/contracts/access/Ownable.sol\":2378:2395  _owner = newOwner */\n  dup4\n  dup2\n  and\n  not(sub(shl(0xa0, 0x01), 0x01))\n  dup4\n  and\n  dup2\n  or\n  dup5\n  sstore\n    /* \"@openzeppelin/contracts/access/Ownable.sol\":2410:2450  OwnershipTransferred(oldOwner, newOwner) */\n  mload(0x40)\n    /* \"@openzeppelin/contracts/access/Ownable.sol\":2362:2368  _owner */\n  swap2\n  swap1\n  swap3\n  and\n  swap3\n  dup4\n  swap2\n    /* \"@openzeppelin/contracts/access/Ownable.sol\":2410:2450  OwnershipTransferred(oldOwner, newOwner) */\n  0x8be0079c531659141344cd1fd0a4f28419497f9722a3daafe3b4186f6b6457e0\n  swap2\n    /* \"@openzeppelin/contracts/access/Ownable.sol\":2343:2359  address oldOwner */\n  swap1\n    /* \"@openzeppelin/contracts/access/Ownable.sol\":2410:2450  OwnershipTransferred(oldOwner, newOwner) */\n  log3\n    /* \"@openzeppelin/contracts/access/Ownable.sol\":2333:2457  {... */\n  pop\n    /* \"@openzeppelin/contracts/access/Ownable.sol\":2270:2457  function _transferOwnership(address newOwner) internal virtual {... */\n  pop\n  jump\t// out\n    /* \"#utility.yul\":14:317   */\ntag_3:\n    /* \"#utility.yul\":97:103   */\n  0x00\n    /* \"#utility.yul\":150:152   */\n  0x20\n    /* \"#utility.yul\":138:147   */\n  dup3\n    /* \"#utility.yul\":129:136   */\n  dup5\n    /* \"#utility.yul\":125:148   */\n  sub\n    /* \"#utility.yul\":121:153   */\n  slt\n    /* \"#utility.yul\":118:170   */\n  iszero\n  tag_17\n  jumpi\n    /* \"#utility.yul\":166:167   */\n  0x00\n    /* \"#utility.yul\":163:164   */\n  dup1\n    /* \"#utility.yul\":156:168   */\n  revert\n    /* \"#utility.yul\":118:170   */\ntag_17:\n    /* \"#utility.yul\":192:208   */\n  dup2\n  mload\n  sub(shl(0xa0, 0x01), 0x01)\n    /* \"#utility.yul\":237:268   */\n  dup2\n  and\n    /* \"#utility.yul\":227:269   */\n  dup2\n  eq\n    /* \"#utility.yul\":217:287   */\n  tag_18\n  jumpi\n    /* \"#utility.yul\":283:284   */\n  0x00\n    /* \"#utility.yul\":280:281   */\n  dup1\n    /* \"#utility.yul\":273:285   */\n  revert\n    /* \"#utility.yul\":217:287   */\ntag_18:\n    /* \"#utility.yul\":306:311   */\n  swap4\n    /* \"#utility.yul\":14:317   */\n  swap3\n  pop\n  pop\n  pop\n  jump\t// out\ntag_15:\n    /* \"BCStaking.sol\":241:15765  contract BillionCashStaking is Ownable {... */\n  dataSize(sub_0)\n  dup1\n  dataOffset(sub_0)\n  0x00\n  codecopy\n  0x00\n  return\nstop\n\nsub_0: assembly {\n        /* \"BCStaking.sol\":241:15765  contract BillionCashStaking is Ownable {... */\n      mstore(0x40, 0x80)\n      callvalue\n      dup1\n      iszero\n      tag_1\n      jumpi\n      0x00\n      dup1\n      revert\n    tag_1:\n      pop\n      jumpi(tag_2, lt(calldatasize, 0x04))\n      shr(0xe0, calldataload(0x00))\n      dup1\n      0x817b1cd2\n      gt\n      tag_30\n      jumpi\n      dup1\n      0xc8a22eb4\n      gt\n      tag_31\n      jumpi\n      dup1\n      0xe85abe09\n      gt\n      tag_32\n      jumpi\n      dup1\n      0xe85abe09\n      eq\n      tag_26\n      jumpi\n      dup1\n      0xf2fde38b\n      eq\n      tag_27\n      jumpi\n      dup1\n      0xf69e2046\n      eq\n      tag_28\n      jumpi\n      dup1\n      0xfb4cb32b\n      eq\n      tag_29\n      jumpi\n      0x00\n      dup1\n      revert\n    tag_32:\n      dup1\n      0xc8a22eb4\n      eq\n      tag_23\n      jumpi\n      dup1\n      0xd6343867\n      eq\n      tag_24\n      jumpi\n      dup1\n      0xd7ffca91\n      eq\n      tag_25\n      jumpi\n      0x00\n      dup1\n      revert\n    tag_31:\n      dup1\n      0xab8a3c6b\n      gt\n      tag_33\n      jumpi\n      dup1\n      0xab8a3c6b\n      eq\n      tag_19\n      jumpi\n      dup1\n      0xadc9772e\n      eq\n      tag_20\n      jumpi\n      dup1\n      0xbff1f9e1\n      eq\n      tag_21\n      jumpi\n      dup1\n      0xc0806b03\n      eq\n      tag_22\n      jumpi\n      0x00\n      dup1\n      revert\n    tag_33:\n      dup1\n      0x817b1cd2\n      eq\n      tag_16\n      jumpi\n      dup1\n      0x8da5cb5b\n      eq\n      tag_17\n      jumpi\n      dup1\n      0xa8aeb6c2\n      eq\n      tag_18\n      jumpi\n      0x00\n      dup1\n      revert\n    tag_30:\n      dup1\n      0x36144c9a\n      gt\n      tag_34\n      jumpi\n      dup1\n      0x4be4d790\n      gt\n      tag_35\n      jumpi\n      dup1\n      0x4be4d790\n      eq\n      tag_12\n      jumpi\n      dup1\n      0x4e71d92d\n      eq\n      tag_13\n      jumpi\n      dup1\n      0x715018a6\n      eq\n      tag_14\n      jumpi\n      dup1\n      0x7e3abeea\n      eq\n      tag_15\n      jumpi\n      0x00\n      dup1\n      revert\n    tag_35:\n      dup1\n      0x36144c9a\n      eq\n      tag_9\n      jumpi\n      dup1\n      0x44038f90\n      eq\n      tag_10\n      jumpi\n      dup1\n      0x4b319713\n      eq\n      tag_11\n      jumpi\n      0x00\n      dup1\n      revert\n    tag_34:\n      dup1\n      0x0104db1b\n      eq\n      tag_3\n      jumpi\n      dup1\n      0x01c234a8\n      eq\n      tag_4\n      jumpi\n      dup1\n      0x040a772e\n      eq\n      tag_5\n      jumpi\n      dup1\n      0x153ab9df\n      eq\n      tag_6\n      jumpi\n      dup1\n      0x18e1fbfc\n      eq\n      tag_7\n      jumpi\n      dup1\n      0x32bc298c\n      eq\n      tag_8\n      jumpi\n    tag_2:\n      0x00\n      dup1\n      revert\n        /* \"BCStaking.sol\":528:577  uint256 public constant STAKING_PERIOD = 180 days */\n    tag_3:\n      tag_36\n        /* \"BCStaking.sol\":569:577  180 days */\n      0xed4e00\n        /* \"BCStaking.sol\":528:577  uint256 public constant STAKING_PERIOD = 180 days */\n      dup2\n      jump\n    tag_36:\n      mload(0x40)\n        /* \"#utility.yul\":160:185   */\n      swap1\n      dup2\n      mstore\n        /* \"#utility.yul\":148:150   */\n      0x20\n        /* \"#utility.yul\":133:151   */\n      add\n        /* \"BCStaking.sol\":528:577  uint256 public constant STAKING_PERIOD = 180 days */\n    tag_38:\n      mload(0x40)\n      dup1\n      swap2\n      sub\n      swap1\n      return\n        /* \"BCStaking.sol\":322:369  uint256 public constant PERCENTS_DIVIDER = 1000 */\n    tag_4:\n      tag_36\n        /* \"BCStaking.sol\":365:369  1000 */\n      0x03e8\n        /* \"BCStaking.sol\":322:369  uint256 public constant PERCENTS_DIVIDER = 1000 */\n      dup2\n      jump\n        /* \"BCStaking.sol\":10647:13077  function getUserDividends(address userAddress)... */\n    tag_5:\n      tag_36\n      tag_44\n      calldatasize\n      0x04\n      tag_45\n      jump\t// in\n    tag_44:\n      tag_46\n      jump\t// in\n        /* \"BCStaking.sol\":13777:14025  function getUserAvailable(address userAddress)... */\n    tag_6:\n      tag_36\n      tag_49\n      calldatasize\n      0x04\n      tag_45\n      jump\t// in\n    tag_49:\n      tag_50\n      jump\t// in\n        /* \"BCStaking.sol\":743:790  uint256 public minimumStakeValue = 200 * 10**18 */\n    tag_7:\n      tag_36\n      sload(0x06)\n      dup2\n      jump\n        /* \"BCStaking.sol\":475:521  uint256 public constant TIME_STEP = 10 minutes */\n    tag_8:\n      tag_36\n        /* \"BCStaking.sol\":511:521  10 minutes */\n      0x0258\n        /* \"BCStaking.sol\":475:521  uint256 public constant TIME_STEP = 10 minutes */\n      dup2\n      jump\n        /* \"BCStaking.sol\":13435:13596  function getUserReferrer(address userAddress)... */\n    tag_9:\n      tag_58\n      tag_59\n      calldatasize\n      0x04\n      tag_45\n      jump\t// in\n    tag_59:\n      sub(shl(0xa0, 0x01), 0x01)\n        /* \"BCStaking.sol\":13561:13579  users[userAddress] */\n      swap1\n      dup2\n      and\n        /* \"BCStaking.sol\":13529:13536  address */\n      0x00\n        /* \"BCStaking.sol\":13561:13579  users[userAddress] */\n      swap1\n      dup2\n      mstore\n        /* \"BCStaking.sol\":13561:13566  users */\n      0x07\n        /* \"BCStaking.sol\":13561:13579  users[userAddress] */\n      0x20\n      mstore\n      0x40\n      swap1\n      keccak256\n        /* \"BCStaking.sol\":13561:13588  users[userAddress].referrer */\n      0x04\n      add\n      sload\n      and\n      swap1\n        /* \"BCStaking.sol\":13435:13596  function getUserReferrer(address userAddress)... */\n      jump\n    tag_58:\n      mload(0x40)\n      sub(shl(0xa0, 0x01), 0x01)\n        /* \"#utility.yul\":729:761   */\n      swap1\n      swap2\n      and\n        /* \"#utility.yul\":711:762   */\n      dup2\n      mstore\n        /* \"#utility.yul\":699:701   */\n      0x20\n        /* \"#utility.yul\":684:702   */\n      add\n        /* \"BCStaking.sol\":13435:13596  function getUserReferrer(address userAddress)... */\n      tag_38\n        /* \"#utility.yul\":565:768   */\n      jump\n        /* \"BCStaking.sol\":421:468  uint256 public constant REFERRAL_PERCENTS = 120 */\n    tag_10:\n      tag_36\n        /* \"BCStaking.sol\":465:468  120 */\n      0x78\n        /* \"BCStaking.sol\":421:468  uint256 public constant REFERRAL_PERCENTS = 120 */\n      dup2\n      jump\n        /* \"BCStaking.sol\":668:697  uint256 public totalWithdrawn */\n    tag_11:\n      tag_36\n      sload(0x04)\n      dup2\n      jump\n        /* \"BCStaking.sol\":15605:15762  function setMinimumStakeValue(uint256 _minimumStakeValue)... */\n    tag_12:\n      tag_69\n      tag_70\n      calldatasize\n      0x04\n      tag_71\n      jump\t// in\n    tag_70:\n      tag_72\n      jump\t// in\n    tag_69:\n      stop\n        /* \"BCStaking.sol\":4047:7389  function claim() public {... */\n    tag_13:\n      tag_69\n      tag_74\n      jump\t// in\n        /* \"@openzeppelin/contracts/access/Ownable.sol\":1668:1769  function renounceOwnership() public virtual onlyOwner {... */\n    tag_14:\n      tag_69\n      tag_76\n      jump\t// in\n        /* \"BCStaking.sol\":14764:15192  function getUserTotalDeposits(address userAddress)... */\n    tag_15:\n      tag_36\n      tag_78\n      calldatasize\n      0x04\n      tag_45\n      jump\t// in\n    tag_78:\n      tag_79\n      jump\t// in\n        /* \"BCStaking.sol\":635:661  uint256 public totalStaked */\n    tag_16:\n      tag_36\n      sload(0x03)\n      dup2\n      jump\n        /* \"@openzeppelin/contracts/access/Ownable.sol\":1036:1121  function owner() public view virtual returns (address) {... */\n    tag_17:\n        /* \"@openzeppelin/contracts/access/Ownable.sol\":1082:1089  address */\n      0x00\n        /* \"@openzeppelin/contracts/access/Ownable.sol\":1108:1114  _owner */\n      sload\n      sub(shl(0xa0, 0x01), 0x01)\n      and\n        /* \"@openzeppelin/contracts/access/Ownable.sol\":1036:1121  function owner() public view virtual returns (address) {... */\n      jump(tag_58)\n        /* \"BCStaking.sol\":14580:14756  function getUserAmountOfDeposits(address userAddress)... */\n    tag_18:\n      tag_36\n      tag_88\n      calldatasize\n      0x04\n      tag_45\n      jump\t// in\n    tag_88:\n      sub(shl(0xa0, 0x01), 0x01)\n        /* \"BCStaking.sol\":14714:14732  users[userAddress] */\n      and\n        /* \"BCStaking.sol\":14682:14689  uint256 */\n      0x00\n        /* \"BCStaking.sol\":14714:14732  users[userAddress] */\n      swap1\n      dup2\n      mstore\n        /* \"BCStaking.sol\":14714:14719  users */\n      0x07\n        /* \"BCStaking.sol\":14714:14732  users[userAddress] */\n      0x20\n      mstore\n      0x40\n      swap1\n      keccak256\n        /* \"BCStaking.sol\":14714:14748  users[userAddress].deposits.length */\n      sload\n      swap1\n        /* \"BCStaking.sol\":14580:14756  function getUserAmountOfDeposits(address userAddress)... */\n      jump\n        /* \"BCStaking.sol\":376:414  uint256 public constant DAILY_ROI = 15 */\n    tag_19:\n      tag_36\n        /* \"BCStaking.sol\":412:414  15 */\n      0x0f\n        /* \"BCStaking.sol\":376:414  uint256 public constant DAILY_ROI = 15 */\n      dup2\n      jump\n        /* \"BCStaking.sol\":1746:4039  function stake(address referrer, uint256 amount) public {... */\n    tag_20:\n      tag_69\n      tag_95\n      calldatasize\n      0x04\n      tag_96\n      jump\t// in\n    tag_95:\n      tag_97\n      jump\t// in\n        /* \"BCStaking.sol\":603:628  uint256 public totalUsers */\n    tag_21:\n      tag_36\n      sload(0x02)\n      dup2\n      jump\n        /* \"BCStaking.sol\":14033:14572  function getUserDepositInfo(address userAddress, uint256 index)... */\n    tag_22:\n      tag_101\n      tag_102\n      calldatasize\n      0x04\n      tag_96\n      jump\t// in\n    tag_102:\n      tag_103\n      jump\t// in\n    tag_101:\n      0x40\n      dup1\n      mload\n        /* \"#utility.yul\":1470:1495   */\n      swap6\n      dup7\n      mstore\n        /* \"#utility.yul\":1526:1528   */\n      0x20\n        /* \"#utility.yul\":1511:1529   */\n      dup7\n      add\n        /* \"#utility.yul\":1504:1538   */\n      swap5\n      swap1\n      swap5\n      mstore\n        /* \"#utility.yul\":1554:1572   */\n      swap3\n      dup5\n      add\n        /* \"#utility.yul\":1547:1581   */\n      swap2\n      swap1\n      swap2\n      mstore\n        /* \"#utility.yul\":1612:1614   */\n      0x60\n        /* \"#utility.yul\":1597:1615   */\n      dup4\n      add\n        /* \"#utility.yul\":1590:1624   */\n      mstore\n        /* \"#utility.yul\":1668:1682   */\n      iszero\n        /* \"#utility.yul\":1661:1683   */\n      iszero\n        /* \"#utility.yul\":1655:1658   */\n      0x80\n        /* \"#utility.yul\":1640:1659   */\n      dup3\n      add\n        /* \"#utility.yul\":1633:1684   */\n      mstore\n        /* \"#utility.yul\":1457:1460   */\n      0xa0\n        /* \"#utility.yul\":1442:1461   */\n      add\n        /* \"BCStaking.sol\":14033:14572  function getUserDepositInfo(address userAddress, uint256 index)... */\n      tag_38\n        /* \"#utility.yul\":1217:1690   */\n      jump\n        /* \"BCStaking.sol\":13256:13427  function getUserReferralCount(address userAddress)... */\n    tag_23:\n      tag_36\n      tag_107\n      calldatasize\n      0x04\n      tag_45\n      jump\t// in\n    tag_107:\n      sub(shl(0xa0, 0x01), 0x01)\n        /* \"BCStaking.sol\":13387:13405  users[userAddress] */\n      and\n        /* \"BCStaking.sol\":13355:13362  uint256 */\n      0x00\n        /* \"BCStaking.sol\":13387:13405  users[userAddress] */\n      swap1\n      dup2\n      mstore\n        /* \"BCStaking.sol\":13387:13392  users */\n      0x07\n        /* \"BCStaking.sol\":13387:13405  users[userAddress] */\n      0x20\n      mstore\n      0x40\n      swap1\n      keccak256\n        /* \"BCStaking.sol\":13387:13419  users[userAddress].referralCount */\n      0x03\n      add\n      sload\n      swap1\n        /* \"BCStaking.sol\":13256:13427  function getUserReferralCount(address userAddress)... */\n      jump\n        /* \"BCStaking.sol\":704:736  uint256 public totalDepositCount */\n    tag_24:\n      tag_36\n      sload(0x05)\n      dup2\n      jump\n        /* \"BCStaking.sol\":13604:13769  function getUserCheckpoint(address userAddress)... */\n    tag_25:\n      tag_36\n      tag_114\n      calldatasize\n      0x04\n      tag_45\n      jump\t// in\n    tag_114:\n      sub(shl(0xa0, 0x01), 0x01)\n        /* \"BCStaking.sol\":13732:13750  users[userAddress] */\n      and\n        /* \"BCStaking.sol\":13700:13707  uint256 */\n      0x00\n        /* \"BCStaking.sol\":13732:13750  users[userAddress] */\n      swap1\n      dup2\n      mstore\n        /* \"BCStaking.sol\":13732:13737  users */\n      0x07\n        /* \"BCStaking.sol\":13732:13750  users[userAddress] */\n      0x20\n      mstore\n      0x40\n      swap1\n      keccak256\n        /* \"BCStaking.sol\":13732:13761  users[userAddress].checkpoint */\n      0x01\n      add\n      sload\n      swap1\n        /* \"BCStaking.sol\":13604:13769  function getUserCheckpoint(address userAddress)... */\n      jump\n        /* \"BCStaking.sol\":13085:13248  function getUserReferralBonus(address userAddress)... */\n    tag_26:\n      tag_36\n      tag_118\n      calldatasize\n      0x04\n      tag_45\n      jump\t// in\n    tag_118:\n      sub(shl(0xa0, 0x01), 0x01)\n        /* \"BCStaking.sol\":13216:13234  users[userAddress] */\n      and\n        /* \"BCStaking.sol\":13184:13191  uint256 */\n      0x00\n        /* \"BCStaking.sol\":13216:13234  users[userAddress] */\n      swap1\n      dup2\n      mstore\n        /* \"BCStaking.sol\":13216:13221  users */\n      0x07\n        /* \"BCStaking.sol\":13216:13234  users[userAddress] */\n      0x20\n      mstore\n      0x40\n      swap1\n      keccak256\n        /* \"BCStaking.sol\":13216:13240  users[userAddress].bonus */\n      0x02\n      add\n      sload\n      swap1\n        /* \"BCStaking.sol\":13085:13248  function getUserReferralBonus(address userAddress)... */\n      jump\n        /* \"@openzeppelin/contracts/access/Ownable.sol\":1918:2116  function transferOwnership(address newOwner) public virtual onlyOwner {... */\n    tag_27:\n      tag_69\n      tag_122\n      calldatasize\n      0x04\n      tag_45\n      jump\t// in\n    tag_122:\n      tag_123\n      jump\t// in\n        /* \"BCStaking.sol\":7397:10639  function compound() public onlyhodler {... */\n    tag_28:\n      tag_69\n      tag_125\n      jump\t// in\n        /* \"BCStaking.sol\":15200:15561  function getUserTotalWithdrawn(address userAddress)... */\n    tag_29:\n      tag_36\n      tag_127\n      calldatasize\n      0x04\n      tag_45\n      jump\t// in\n    tag_127:\n      tag_128\n      jump\t// in\n        /* \"BCStaking.sol\":10647:13077  function getUserDividends(address userAddress)... */\n    tag_46:\n      sub(shl(0xa0, 0x01), 0x01)\n        /* \"BCStaking.sol\":10787:10805  users[userAddress] */\n      dup2\n      and\n        /* \"BCStaking.sol\":10742:10749  uint256 */\n      0x00\n        /* \"BCStaking.sol\":10787:10805  users[userAddress] */\n      swap1\n      dup2\n      mstore\n        /* \"BCStaking.sol\":10787:10792  users */\n      0x07\n        /* \"BCStaking.sol\":10787:10805  users[userAddress] */\n      0x20\n      mstore\n      0x40\n      dup2\n      keccak256\n        /* \"BCStaking.sol\":10742:10749  uint256 */\n      dup2\n      dup1\n      dup1\n        /* \"BCStaking.sol\":10881:13036  for (uint256 i = 0; i < user.deposits.length; i++) {... */\n    tag_131:\n        /* \"BCStaking.sol\":10905:10925  user.deposits.length */\n      dup4\n      sload\n        /* \"BCStaking.sol\":10901:10925  i < user.deposits.length */\n      dup2\n      lt\n        /* \"BCStaking.sol\":10881:13036  for (uint256 i = 0; i < user.deposits.length; i++) {... */\n      iszero\n      tag_132\n      jumpi\n        /* \"BCStaking.sol\":10951:10955  user */\n      dup4\n        /* \"BCStaking.sol\":10951:10964  user.deposits */\n      0x00\n      add\n        /* \"BCStaking.sol\":10965:10966  i */\n      dup2\n        /* \"BCStaking.sol\":10951:10967  user.deposits[i] */\n      dup2\n      sload\n      dup2\n      lt\n      tag_135\n      jumpi\n      tag_135\n      tag_136\n      jump\t// in\n    tag_135:\n      0x00\n      swap2\n      dup3\n      mstore\n      0x20\n      swap1\n      swap2\n      keccak256\n        /* \"BCStaking.sol\":10951:10973  user.deposits[i].ended */\n      0x04\n        /* \"BCStaking.sol\":10951:10967  user.deposits[i] */\n      0x05\n      swap1\n      swap3\n      mul\n      add\n        /* \"BCStaking.sol\":10951:10973  user.deposits[i].ended */\n      add\n      sload\n      0xff\n      and\n        /* \"BCStaking.sol\":10947:13025  if (user.deposits[i].ended == false) {... */\n      tag_138\n      jumpi\n        /* \"BCStaking.sol\":11034:11049  block.timestamp */\n      timestamp\n        /* \"BCStaking.sol\":11007:11011  user */\n      dup5\n        /* \"BCStaking.sol\":11007:11020  user.deposits */\n      0x00\n      add\n        /* \"BCStaking.sol\":11021:11022  i */\n      dup3\n        /* \"BCStaking.sol\":11007:11023  user.deposits[i] */\n      dup2\n      sload\n      dup2\n      lt\n      tag_140\n      jumpi\n      tag_140\n      tag_136\n      jump\t// in\n    tag_140:\n      swap1\n      0x00\n      mstore\n      keccak256(0x00, 0x20)\n      swap1\n      0x05\n      mul\n      add\n        /* \"BCStaking.sol\":11007:11031  user.deposits[i].endTime */\n      0x03\n      add\n      sload\n        /* \"BCStaking.sol\":11007:11049  user.deposits[i].endTime > block.timestamp */\n      gt\n        /* \"BCStaking.sol\":11003:12945  if (user.deposits[i].endTime > block.timestamp) {... */\n      iszero\n      tag_142\n      jumpi\n        /* \"BCStaking.sol\":11107:11111  user */\n      dup4\n        /* \"BCStaking.sol\":11107:11122  user.checkpoint */\n      0x01\n      add\n      sload\n        /* \"BCStaking.sol\":11078:11082  user */\n      dup5\n        /* \"BCStaking.sol\":11078:11091  user.deposits */\n      0x00\n      add\n        /* \"BCStaking.sol\":11092:11093  i */\n      dup3\n        /* \"BCStaking.sol\":11078:11094  user.deposits[i] */\n      dup2\n      sload\n      dup2\n      lt\n      tag_144\n      jumpi\n      tag_144\n      tag_136\n      jump\t// in\n    tag_144:\n      swap1\n      0x00\n      mstore\n      keccak256(0x00, 0x20)\n      swap1\n      0x05\n      mul\n      add\n        /* \"BCStaking.sol\":11078:11104  user.deposits[i].startTime */\n      0x02\n      add\n      sload\n        /* \"BCStaking.sol\":11078:11122  user.deposits[i].startTime > user.checkpoint */\n      gt\n        /* \"BCStaking.sol\":11074:11933  if (user.deposits[i].startTime > user.checkpoint) {... */\n      iszero\n      tag_146\n      jumpi\n        /* \"BCStaking.sol\":11163:11537  (... */\n      tag_147\n        /* \"BCStaking.sol\":511:521  10 minutes */\n      0x0258\n        /* \"BCStaking.sol\":11163:11492  (... */\n      tag_155\n        /* \"BCStaking.sol\":11414:11461  block.timestamp.sub(user.deposits[i].startTime) */\n      tag_149\n        /* \"BCStaking.sol\":11434:11438  user */\n      dup8\n        /* \"BCStaking.sol\":11434:11447  user.deposits */\n      0x00\n      add\n        /* \"BCStaking.sol\":11448:11449  i */\n      dup6\n        /* \"BCStaking.sol\":11434:11450  user.deposits[i] */\n      dup2\n      sload\n      dup2\n      lt\n      tag_151\n      jumpi\n      tag_151\n      tag_136\n      jump\t// in\n    tag_151:\n      swap1\n      0x00\n      mstore\n      keccak256(0x00, 0x20)\n      swap1\n      0x05\n      mul\n      add\n        /* \"BCStaking.sol\":11434:11460  user.deposits[i].startTime */\n      0x02\n      add\n      sload\n        /* \"BCStaking.sol\":11414:11429  block.timestamp */\n      timestamp\n        /* \"BCStaking.sol\":11414:11433  block.timestamp.sub */\n      tag_153\n      swap1\n        /* \"BCStaking.sol\":11414:11461  block.timestamp.sub(user.deposits[i].startTime) */\n      swap2\n      swap1\n      0xffffffff\n      and\n      jump\t// in\n    tag_149:\n        /* \"BCStaking.sol\":11194:11318  user.deposits[i].amount.mul(DAILY_ROI).div(... */\n      tag_154\n        /* \"BCStaking.sol\":365:369  1000 */\n      0x03e8\n        /* \"BCStaking.sol\":11194:11232  user.deposits[i].amount.mul(DAILY_ROI) */\n      tag_155\n        /* \"BCStaking.sol\":412:414  15 */\n      0x0f\n        /* \"BCStaking.sol\":11194:11198  user */\n      dup12\n        /* \"BCStaking.sol\":11194:11207  user.deposits */\n      0x00\n      add\n        /* \"BCStaking.sol\":11208:11209  i */\n      dup10\n        /* \"BCStaking.sol\":11194:11210  user.deposits[i] */\n      dup2\n      sload\n      dup2\n      lt\n      tag_157\n      jumpi\n      tag_157\n      tag_136\n      jump\t// in\n    tag_157:\n      0x00\n      swap2\n      dup3\n      mstore\n      0x20\n      swap1\n      swap2\n      keccak256\n      0x05\n      swap1\n      swap2\n      mul\n      add\n        /* \"BCStaking.sol\":11194:11217  user.deposits[i].amount */\n      sload\n      swap1\n        /* \"BCStaking.sol\":11194:11221  user.deposits[i].amount.mul */\n      tag_159\n        /* \"BCStaking.sol\":11194:11232  user.deposits[i].amount.mul(DAILY_ROI) */\n      jump\t// in\n    tag_155:\n        /* \"BCStaking.sol\":11194:11236  user.deposits[i].amount.mul(DAILY_ROI).div */\n      swap1\n      tag_160\n        /* \"BCStaking.sol\":11194:11318  user.deposits[i].amount.mul(DAILY_ROI).div(... */\n      jump\t// in\n    tag_154:\n        /* \"BCStaking.sol\":11163:11379  (... */\n      swap1\n      tag_159\n        /* \"BCStaking.sol\":11163:11492  (... */\n      jump\t// in\n        /* \"BCStaking.sol\":11163:11537  (... */\n    tag_147:\n        /* \"BCStaking.sol\":11151:11537  dividends = (... */\n      swap2\n      pop\n        /* \"BCStaking.sol\":11003:12945  if (user.deposits[i].endTime > block.timestamp) {... */\n      jump(tag_189)\n        /* \"BCStaking.sol\":11074:11933  if (user.deposits[i].startTime > user.checkpoint) {... */\n    tag_146:\n        /* \"BCStaking.sol\":11606:11909  (... */\n      tag_147\n        /* \"BCStaking.sol\":511:521  10 minutes */\n      0x0258\n        /* \"BCStaking.sol\":11606:11830  (... */\n      tag_155\n        /* \"BCStaking.sol\":11793:11829  block.timestamp.sub(user.checkpoint) */\n      tag_149\n        /* \"BCStaking.sol\":11813:11817  user */\n      dup8\n        /* \"BCStaking.sol\":11813:11828  user.checkpoint */\n      0x01\n      add\n      sload\n        /* \"BCStaking.sol\":11793:11808  block.timestamp */\n      timestamp\n        /* \"BCStaking.sol\":11793:11812  block.timestamp.sub */\n      tag_153\n      swap1\n        /* \"BCStaking.sol\":11793:11829  block.timestamp.sub(user.checkpoint) */\n      swap2\n      swap1\n      0xffffffff\n      and\n      jump\t// in\n        /* \"BCStaking.sol\":11003:12945  if (user.deposits[i].endTime > block.timestamp) {... */\n    tag_142:\n        /* \"BCStaking.sol\":12014:12018  user */\n      dup4\n        /* \"BCStaking.sol\":12014:12029  user.checkpoint */\n      0x01\n      add\n      sload\n        /* \"BCStaking.sol\":11985:11989  user */\n      dup5\n        /* \"BCStaking.sol\":11985:11998  user.deposits */\n      0x00\n      add\n        /* \"BCStaking.sol\":11999:12000  i */\n      dup3\n        /* \"BCStaking.sol\":11985:12001  user.deposits[i] */\n      dup2\n      sload\n      dup2\n      lt\n      tag_172\n      jumpi\n      tag_172\n      tag_136\n      jump\t// in\n    tag_172:\n      swap1\n      0x00\n      mstore\n      keccak256(0x00, 0x20)\n      swap1\n      0x05\n      mul\n      add\n        /* \"BCStaking.sol\":11985:12011  user.deposits[i].startTime */\n      0x02\n      add\n      sload\n        /* \"BCStaking.sol\":11985:12029  user.deposits[i].startTime > user.checkpoint */\n      gt\n        /* \"BCStaking.sol\":11981:12926  if (user.deposits[i].startTime > user.checkpoint) {... */\n      iszero\n      tag_174\n      jumpi\n        /* \"BCStaking.sol\":12070:12525  (... */\n      tag_147\n        /* \"BCStaking.sol\":511:521  10 minutes */\n      0x0258\n        /* \"BCStaking.sol\":12070:12480  (... */\n      tag_155\n        /* \"BCStaking.sol\":12321:12449  user.deposits[i].endTime.sub(... */\n      tag_149\n        /* \"BCStaking.sol\":12388:12392  user */\n      dup8\n        /* \"BCStaking.sol\":12388:12401  user.deposits */\n      0x00\n      add\n        /* \"BCStaking.sol\":12402:12403  i */\n      dup6\n        /* \"BCStaking.sol\":12388:12404  user.deposits[i] */\n      dup2\n      sload\n      dup2\n      lt\n      tag_179\n      jumpi\n      tag_179\n      tag_136\n      jump\t// in\n    tag_179:\n      swap1\n      0x00\n      mstore\n      keccak256(0x00, 0x20)\n      swap1\n      0x05\n      mul\n      add\n        /* \"BCStaking.sol\":12388:12414  user.deposits[i].startTime */\n      0x02\n      add\n      sload\n        /* \"BCStaking.sol\":12321:12325  user */\n      dup9\n        /* \"BCStaking.sol\":12321:12334  user.deposits */\n      0x00\n      add\n        /* \"BCStaking.sol\":12335:12336  i */\n      dup7\n        /* \"BCStaking.sol\":12321:12337  user.deposits[i] */\n      dup2\n      sload\n      dup2\n      lt\n      tag_182\n      jumpi\n      tag_182\n      tag_136\n      jump\t// in\n    tag_182:\n      swap1\n      0x00\n      mstore\n      keccak256(0x00, 0x20)\n      swap1\n      0x05\n      mul\n      add\n        /* \"BCStaking.sol\":12321:12345  user.deposits[i].endTime */\n      0x03\n      add\n      sload\n        /* \"BCStaking.sol\":12321:12349  user.deposits[i].endTime.sub */\n      tag_153\n      swap1\n        /* \"BCStaking.sol\":12321:12449  user.deposits[i].endTime.sub(... */\n      swap2\n      swap1\n      0xffffffff\n      and\n      jump\t// in\n        /* \"BCStaking.sol\":11981:12926  if (user.deposits[i].startTime > user.checkpoint) {... */\n    tag_174:\n        /* \"BCStaking.sol\":12594:12902  (... */\n      tag_190\n        /* \"BCStaking.sol\":511:521  10 minutes */\n      0x0258\n        /* \"BCStaking.sol\":12594:12857  (... */\n      tag_155\n        /* \"BCStaking.sol\":12811:12856  user.deposits[i].endTime.sub(user.checkpoint) */\n      tag_149\n        /* \"BCStaking.sol\":12840:12844  user */\n      dup8\n        /* \"BCStaking.sol\":12840:12855  user.checkpoint */\n      0x01\n      add\n      sload\n        /* \"BCStaking.sol\":12811:12815  user */\n      dup9\n        /* \"BCStaking.sol\":12811:12824  user.deposits */\n      0x00\n      add\n        /* \"BCStaking.sol\":12825:12826  i */\n      dup7\n        /* \"BCStaking.sol\":12811:12827  user.deposits[i] */\n      dup2\n      sload\n      dup2\n      lt\n      tag_182\n      jumpi\n      tag_182\n      tag_136\n      jump\t// in\n        /* \"BCStaking.sol\":12594:12902  (... */\n    tag_190:\n        /* \"BCStaking.sol\":12582:12902  dividends = (... */\n      swap2\n      pop\n        /* \"BCStaking.sol\":11981:12926  if (user.deposits[i].startTime > user.checkpoint) {... */\n    tag_189:\n        /* \"BCStaking.sol\":12980:13009  totalDividends.add(dividends) */\n      tag_201\n        /* \"BCStaking.sol\":12980:12994  totalDividends */\n      dup4\n        /* \"BCStaking.sol\":12999:13008  dividends */\n      dup4\n        /* \"BCStaking.sol\":12980:12998  totalDividends.add */\n      tag_202\n        /* \"BCStaking.sol\":12980:13009  totalDividends.add(dividends) */\n      jump\t// in\n    tag_201:\n        /* \"BCStaking.sol\":12963:13009  totalDividends = totalDividends.add(dividends) */\n      swap3\n      pop\n        /* \"BCStaking.sol\":10947:13025  if (user.deposits[i].ended == false) {... */\n    tag_138:\n        /* \"BCStaking.sol\":10927:10930  i++ */\n      dup1\n      tag_203\n      dup2\n      tag_204\n      jump\t// in\n    tag_203:\n      swap2\n      pop\n      pop\n        /* \"BCStaking.sol\":10881:13036  for (uint256 i = 0; i < user.deposits.length; i++) {... */\n      jump(tag_131)\n    tag_132:\n      pop\n        /* \"BCStaking.sol\":13055:13069  totalDividends */\n      swap1\n      swap5\n        /* \"BCStaking.sol\":10647:13077  function getUserDividends(address userAddress)... */\n      swap4\n      pop\n      pop\n      pop\n      pop\n      jump\t// out\n        /* \"BCStaking.sol\":13777:14025  function getUserAvailable(address userAddress)... */\n    tag_50:\n        /* \"BCStaking.sol\":13872:13879  uint256 */\n      0x00\n        /* \"BCStaking.sol\":13917:14017  getUserReferralBonus(userAddress).add(... */\n      tag_206\n        /* \"BCStaking.sol\":13973:14002  getUserDividends(userAddress) */\n      tag_207\n        /* \"BCStaking.sol\":13990:14001  userAddress */\n      dup4\n        /* \"BCStaking.sol\":13973:13989  getUserDividends */\n      tag_46\n        /* \"BCStaking.sol\":13973:14002  getUserDividends(userAddress) */\n      jump\t// in\n    tag_207:\n      sub(shl(0xa0, 0x01), 0x01)\n        /* \"BCStaking.sol\":13216:13234  users[userAddress] */\n      dup5\n      and\n        /* \"BCStaking.sol\":13184:13191  uint256 */\n      0x00\n        /* \"BCStaking.sol\":13216:13234  users[userAddress] */\n      swap1\n      dup2\n      mstore\n        /* \"BCStaking.sol\":13216:13221  users */\n      0x07\n        /* \"BCStaking.sol\":13216:13234  users[userAddress] */\n      0x20\n      mstore\n      0x40\n      swap1\n      keccak256\n        /* \"BCStaking.sol\":13216:13240  users[userAddress].bonus */\n      0x02\n      add\n      sload\n        /* \"BCStaking.sol\":13917:13954  getUserReferralBonus(userAddress).add */\n      swap1\n      tag_202\n        /* \"BCStaking.sol\":13917:14017  getUserReferralBonus(userAddress).add(... */\n      jump\t// in\n    tag_206:\n        /* \"BCStaking.sol\":13897:14017  return... */\n      swap3\n        /* \"BCStaking.sol\":13777:14025  function getUserAvailable(address userAddress)... */\n      swap2\n      pop\n      pop\n      jump\t// out\n        /* \"BCStaking.sol\":15605:15762  function setMinimumStakeValue(uint256 _minimumStakeValue)... */\n    tag_72:\n        /* \"@openzeppelin/contracts/access/Ownable.sol\":1082:1089  address */\n      0x00\n        /* \"@openzeppelin/contracts/access/Ownable.sol\":1108:1114  _owner */\n      sload\n      sub(shl(0xa0, 0x01), 0x01)\n      and\n        /* \"@openzeppelin/contracts/utils/Context.sol\":719:729  msg.sender */\n      caller\n        /* \"@openzeppelin/contracts/access/Ownable.sol\":1248:1271  owner() == _msgSender() */\n      eq\n        /* \"@openzeppelin/contracts/access/Ownable.sol\":1240:1308  require(owner() == _msgSender(), \"Ownable: caller is not the owner\") */\n      tag_214\n      jumpi\n      mload(0x40)\n      shl(0xe5, 0x461bcd)\n      dup2\n      mstore\n      0x04\n      add\n      tag_215\n      swap1\n      tag_216\n      jump\t// in\n    tag_215:\n      mload(0x40)\n      dup1\n      swap2\n      sub\n      swap1\n      revert\n    tag_214:\n        /* \"BCStaking.sol\":15716:15733  minimumStakeValue */\n      0x06\n        /* \"BCStaking.sol\":15716:15754  minimumStakeValue = _minimumStakeValue */\n      sstore\n        /* \"BCStaking.sol\":15605:15762  function setMinimumStakeValue(uint256 _minimumStakeValue)... */\n      jump\t// out\n        /* \"BCStaking.sol\":4047:7389  function claim() public {... */\n    tag_74:\n        /* \"BCStaking.sol\":4108:4118  msg.sender */\n      caller\n        /* \"BCStaking.sol\":4082:4099  User storage user */\n      0x00\n        /* \"BCStaking.sol\":4102:4119  users[msg.sender] */\n      swap1\n      dup2\n      mstore\n        /* \"BCStaking.sol\":4102:4107  users */\n      0x07\n        /* \"BCStaking.sol\":4102:4119  users[msg.sender] */\n      0x20\n      mstore\n      0x40\n      dup2\n      keccak256\n      swap1\n        /* \"BCStaking.sol\":4082:4099  User storage user */\n      dup1\n      dup1\n        /* \"BCStaking.sol\":4192:6613  for (uint256 i = 0; i < user.deposits.length; i++) {... */\n    tag_219:\n        /* \"BCStaking.sol\":4216:4236  user.deposits.length */\n      dup4\n      sload\n        /* \"BCStaking.sol\":4212:4236  i < user.deposits.length */\n      dup2\n      lt\n        /* \"BCStaking.sol\":4192:6613  for (uint256 i = 0; i < user.deposits.length; i++) {... */\n      iszero\n      tag_220\n      jumpi\n        /* \"BCStaking.sol\":4262:4266  user */\n      dup4\n        /* \"BCStaking.sol\":4262:4275  user.deposits */\n      0x00\n      add\n        /* \"BCStaking.sol\":4276:4277  i */\n      dup2\n        /* \"BCStaking.sol\":4262:4278  user.deposits[i] */\n      dup2\n      sload\n      dup2\n      lt\n      tag_223\n      jumpi\n      tag_223\n      tag_136\n      jump\t// in\n    tag_223:\n      0x00\n      swap2\n      dup3\n      mstore\n      0x20\n      swap1\n      swap2\n      keccak256\n        /* \"BCStaking.sol\":4262:4284  user.deposits[i].ended */\n      0x04\n        /* \"BCStaking.sol\":4262:4278  user.deposits[i] */\n      0x05\n      swap1\n      swap3\n      mul\n      add\n        /* \"BCStaking.sol\":4262:4284  user.deposits[i].ended */\n      add\n      sload\n      0xff\n      and\n        /* \"BCStaking.sol\":4258:6602  if (user.deposits[i].ended == false) {... */\n      tag_225\n      jumpi\n        /* \"BCStaking.sol\":4345:4360  block.timestamp */\n      timestamp\n        /* \"BCStaking.sol\":4318:4322  user */\n      dup5\n        /* \"BCStaking.sol\":4318:4331  user.deposits */\n      0x00\n      add\n        /* \"BCStaking.sol\":4332:4333  i */\n      dup3\n        /* \"BCStaking.sol\":4318:4334  user.deposits[i] */\n      dup2\n      sload\n      dup2\n      lt\n      tag_227\n      jumpi\n      tag_227\n      tag_136\n      jump\t// in\n    tag_227:\n      swap1\n      0x00\n      mstore\n      keccak256(0x00, 0x20)\n      swap1\n      0x05\n      mul\n      add\n        /* \"BCStaking.sol\":4318:4342  user.deposits[i].endTime */\n      0x03\n      add\n      sload\n        /* \"BCStaking.sol\":4318:4360  user.deposits[i].endTime > block.timestamp */\n      gt\n        /* \"BCStaking.sol\":4314:6368  if (user.deposits[i].endTime > block.timestamp) {... */\n      iszero\n      tag_229\n      jumpi\n        /* \"BCStaking.sol\":4418:4422  user */\n      dup4\n        /* \"BCStaking.sol\":4418:4433  user.checkpoint */\n      0x01\n      add\n      sload\n        /* \"BCStaking.sol\":4389:4393  user */\n      dup5\n        /* \"BCStaking.sol\":4389:4402  user.deposits */\n      0x00\n      add\n        /* \"BCStaking.sol\":4403:4404  i */\n      dup3\n        /* \"BCStaking.sol\":4389:4405  user.deposits[i] */\n      dup2\n      sload\n      dup2\n      lt\n      tag_231\n      jumpi\n      tag_231\n      tag_136\n      jump\t// in\n    tag_231:\n      swap1\n      0x00\n      mstore\n      keccak256(0x00, 0x20)\n      swap1\n      0x05\n      mul\n      add\n        /* \"BCStaking.sol\":4389:4415  user.deposits[i].startTime */\n      0x02\n      add\n      sload\n        /* \"BCStaking.sol\":4389:4433  user.deposits[i].startTime > user.checkpoint */\n      gt\n        /* \"BCStaking.sol\":4385:5244  if (user.deposits[i].startTime > user.checkpoint) {... */\n      iszero\n      tag_233\n      jumpi\n        /* \"BCStaking.sol\":4474:4848  (... */\n      tag_234\n        /* \"BCStaking.sol\":511:521  10 minutes */\n      0x0258\n        /* \"BCStaking.sol\":4474:4803  (... */\n      tag_155\n        /* \"BCStaking.sol\":4725:4772  block.timestamp.sub(user.deposits[i].startTime) */\n      tag_149\n        /* \"BCStaking.sol\":4745:4749  user */\n      dup8\n        /* \"BCStaking.sol\":4745:4758  user.deposits */\n      0x00\n      add\n        /* \"BCStaking.sol\":4759:4760  i */\n      dup6\n        /* \"BCStaking.sol\":4745:4761  user.deposits[i] */\n      dup2\n      sload\n      dup2\n      lt\n      tag_151\n      jumpi\n      tag_151\n      tag_136\n      jump\t// in\n        /* \"BCStaking.sol\":4474:4848  (... */\n    tag_234:\n        /* \"BCStaking.sol\":4462:4848  dividends = (... */\n      swap2\n      pop\n        /* \"BCStaking.sol\":4314:6368  if (user.deposits[i].endTime > block.timestamp) {... */\n      jump(tag_276)\n        /* \"BCStaking.sol\":4385:5244  if (user.deposits[i].startTime > user.checkpoint) {... */\n    tag_233:\n        /* \"BCStaking.sol\":4917:5220  (... */\n      tag_234\n        /* \"BCStaking.sol\":511:521  10 minutes */\n      0x0258\n        /* \"BCStaking.sol\":4917:5141  (... */\n      tag_155\n        /* \"BCStaking.sol\":5104:5140  block.timestamp.sub(user.checkpoint) */\n      tag_149\n        /* \"BCStaking.sol\":5124:5128  user */\n      dup8\n        /* \"BCStaking.sol\":5124:5139  user.checkpoint */\n      0x01\n      add\n      sload\n        /* \"BCStaking.sol\":5104:5119  block.timestamp */\n      timestamp\n        /* \"BCStaking.sol\":5104:5123  block.timestamp.sub */\n      tag_153\n      swap1\n        /* \"BCStaking.sol\":5104:5140  block.timestamp.sub(user.checkpoint) */\n      swap2\n      swap1\n      0xffffffff\n      and\n      jump\t// in\n        /* \"BCStaking.sol\":4314:6368  if (user.deposits[i].endTime > block.timestamp) {... */\n    tag_229:\n        /* \"BCStaking.sol\":5325:5329  user */\n      dup4\n        /* \"BCStaking.sol\":5325:5340  user.checkpoint */\n      0x01\n      add\n      sload\n        /* \"BCStaking.sol\":5296:5300  user */\n      dup5\n        /* \"BCStaking.sol\":5296:5309  user.deposits */\n      0x00\n      add\n        /* \"BCStaking.sol\":5310:5311  i */\n      dup3\n        /* \"BCStaking.sol\":5296:5312  user.deposits[i] */\n      dup2\n      sload\n      dup2\n      lt\n      tag_256\n      jumpi\n      tag_256\n      tag_136\n      jump\t// in\n    tag_256:\n      swap1\n      0x00\n      mstore\n      keccak256(0x00, 0x20)\n      swap1\n      0x05\n      mul\n      add\n        /* \"BCStaking.sol\":5296:5322  user.deposits[i].startTime */\n      0x02\n      add\n      sload\n        /* \"BCStaking.sol\":5296:5340  user.deposits[i].startTime > user.checkpoint */\n      gt\n        /* \"BCStaking.sol\":5292:6349  if (user.deposits[i].startTime > user.checkpoint) {... */\n      iszero\n      tag_258\n      jumpi\n        /* \"BCStaking.sol\":5381:5836  (... */\n      tag_259\n        /* \"BCStaking.sol\":511:521  10 minutes */\n      0x0258\n        /* \"BCStaking.sol\":5381:5791  (... */\n      tag_155\n        /* \"BCStaking.sol\":5632:5760  user.deposits[i].endTime.sub(... */\n      tag_149\n        /* \"BCStaking.sol\":5699:5703  user */\n      dup8\n        /* \"BCStaking.sol\":5699:5712  user.deposits */\n      0x00\n      add\n        /* \"BCStaking.sol\":5713:5714  i */\n      dup6\n        /* \"BCStaking.sol\":5699:5715  user.deposits[i] */\n      dup2\n      sload\n      dup2\n      lt\n      tag_179\n      jumpi\n      tag_179\n      tag_136\n      jump\t// in\n        /* \"BCStaking.sol\":5381:5836  (... */\n    tag_259:\n        /* \"BCStaking.sol\":5369:5836  dividends = (... */\n      swap2\n      pop\n        /* \"BCStaking.sol\":5888:5892  true */\n      0x01\n        /* \"BCStaking.sol\":5863:5867  user */\n      dup5\n        /* \"BCStaking.sol\":5863:5876  user.deposits */\n      0x00\n      add\n        /* \"BCStaking.sol\":5877:5878  i */\n      dup3\n        /* \"BCStaking.sol\":5863:5879  user.deposits[i] */\n      dup2\n      sload\n      dup2\n      lt\n      tag_274\n      jumpi\n      tag_274\n      tag_136\n      jump\t// in\n    tag_274:\n      0x00\n      swap2\n      dup3\n      mstore\n      0x20\n      swap1\n      swap2\n      keccak256\n      0x05\n      swap1\n      swap2\n      mul\n      add\n        /* \"BCStaking.sol\":5863:5885  user.deposits[i].ended */\n      0x04\n      add\n        /* \"BCStaking.sol\":5863:5892  user.deposits[i].ended = true */\n      dup1\n      sload\n      not(0xff)\n      and\n      swap2\n      iszero\n      iszero\n      swap2\n      swap1\n      swap2\n      or\n      swap1\n      sstore\n        /* \"BCStaking.sol\":5292:6349  if (user.deposits[i].startTime > user.checkpoint) {... */\n      jump(tag_276)\n    tag_258:\n        /* \"BCStaking.sol\":5961:6269  (... */\n      tag_277\n        /* \"BCStaking.sol\":511:521  10 minutes */\n      0x0258\n        /* \"BCStaking.sol\":5961:6224  (... */\n      tag_155\n        /* \"BCStaking.sol\":6178:6223  user.deposits[i].endTime.sub(user.checkpoint) */\n      tag_149\n        /* \"BCStaking.sol\":6207:6211  user */\n      dup8\n        /* \"BCStaking.sol\":6207:6222  user.checkpoint */\n      0x01\n      add\n      sload\n        /* \"BCStaking.sol\":6178:6182  user */\n      dup9\n        /* \"BCStaking.sol\":6178:6191  user.deposits */\n      0x00\n      add\n        /* \"BCStaking.sol\":6192:6193  i */\n      dup7\n        /* \"BCStaking.sol\":6178:6194  user.deposits[i] */\n      dup2\n      sload\n      dup2\n      lt\n      tag_182\n      jumpi\n      tag_182\n      tag_136\n      jump\t// in\n        /* \"BCStaking.sol\":5961:6269  (... */\n    tag_277:\n        /* \"BCStaking.sol\":5949:6269  dividends = (... */\n      swap2\n      pop\n        /* \"BCStaking.sol\":6321:6325  true */\n      0x01\n        /* \"BCStaking.sol\":6296:6300  user */\n      dup5\n        /* \"BCStaking.sol\":6296:6309  user.deposits */\n      0x00\n      add\n        /* \"BCStaking.sol\":6310:6311  i */\n      dup3\n        /* \"BCStaking.sol\":6296:6312  user.deposits[i] */\n      dup2\n      sload\n      dup2\n      lt\n      tag_289\n      jumpi\n      tag_289\n      tag_136\n      jump\t// in\n    tag_289:\n      0x00\n      swap2\n      dup3\n      mstore\n      0x20\n      swap1\n      swap2\n      keccak256\n      0x05\n      swap1\n      swap2\n      mul\n      add\n        /* \"BCStaking.sol\":6296:6318  user.deposits[i].ended */\n      0x04\n      add\n        /* \"BCStaking.sol\":6296:6325  user.deposits[i].ended = true */\n      dup1\n      sload\n      not(0xff)\n      and\n      swap2\n      iszero\n      iszero\n      swap2\n      swap1\n      swap2\n      or\n      swap1\n      sstore\n        /* \"BCStaking.sol\":5292:6349  if (user.deposits[i].startTime > user.checkpoint) {... */\n    tag_276:\n        /* \"BCStaking.sol\":6417:6498  user.deposits[i].withdrawn.add(... */\n      tag_291\n        /* \"BCStaking.sol\":6470:6479  dividends */\n      dup3\n        /* \"BCStaking.sol\":6417:6421  user */\n      dup6\n        /* \"BCStaking.sol\":6417:6430  user.deposits */\n      0x00\n      add\n        /* \"BCStaking.sol\":6431:6432  i */\n      dup4\n        /* \"BCStaking.sol\":6417:6433  user.deposits[i] */\n      dup2\n      sload\n      dup2\n      lt\n      tag_293\n      jumpi\n      tag_293\n      tag_136\n      jump\t// in\n    tag_293:\n      swap1\n      0x00\n      mstore\n      keccak256(0x00, 0x20)\n      swap1\n      0x05\n      mul\n      add\n        /* \"BCStaking.sol\":6417:6443  user.deposits[i].withdrawn */\n      0x01\n      add\n      sload\n        /* \"BCStaking.sol\":6417:6447  user.deposits[i].withdrawn.add */\n      tag_202\n      swap1\n        /* \"BCStaking.sol\":6417:6498  user.deposits[i].withdrawn.add(... */\n      swap2\n      swap1\n      0xffffffff\n      and\n      jump\t// in\n    tag_291:\n        /* \"BCStaking.sol\":6388:6392  user */\n      dup5\n        /* \"BCStaking.sol\":6388:6401  user.deposits */\n      0x00\n      add\n        /* \"BCStaking.sol\":6402:6403  i */\n      dup3\n        /* \"BCStaking.sol\":6388:6404  user.deposits[i] */\n      dup2\n      sload\n      dup2\n      lt\n      tag_296\n      jumpi\n      tag_296\n      tag_136\n      jump\t// in\n    tag_296:\n      0x00\n      swap2\n      dup3\n      mstore\n      0x20\n      swap1\n      swap2\n      keccak256\n        /* \"BCStaking.sol\":6388:6414  user.deposits[i].withdrawn */\n      0x01\n        /* \"BCStaking.sol\":6388:6404  user.deposits[i] */\n      0x05\n      swap1\n      swap3\n      mul\n      add\n        /* \"BCStaking.sol\":6388:6414  user.deposits[i].withdrawn */\n      add\n        /* \"BCStaking.sol\":6388:6498  user.deposits[i].withdrawn = user.deposits[i].withdrawn.add(... */\n      sstore\n        /* \"BCStaking.sol\":6560:6586  totalAmount.add(dividends) */\n      tag_298\n        /* \"BCStaking.sol\":6560:6571  totalAmount */\n      dup4\n        /* \"BCStaking.sol\":6576:6585  dividends */\n      dup4\n        /* \"BCStaking.sol\":6560:6575  totalAmount.add */\n      tag_202\n        /* \"BCStaking.sol\":6560:6586  totalAmount.add(dividends) */\n      jump\t// in\n    tag_298:\n        /* \"BCStaking.sol\":6546:6586  totalAmount = totalAmount.add(dividends) */\n      swap3\n      pop\n        /* \"BCStaking.sol\":4258:6602  if (user.deposits[i].ended == false) {... */\n    tag_225:\n        /* \"BCStaking.sol\":4238:4241  i++ */\n      dup1\n      tag_299\n      dup2\n      tag_204\n      jump\t// in\n    tag_299:\n      swap2\n      pop\n      pop\n        /* \"BCStaking.sol\":4192:6613  for (uint256 i = 0; i < user.deposits.length; i++) {... */\n      jump(tag_219)\n    tag_220:\n      pop\n        /* \"BCStaking.sol\":6670:6680  msg.sender */\n      caller\n        /* \"BCStaking.sol\":6625:6646  uint256 referralBonus */\n      0x00\n        /* \"BCStaking.sol\":13216:13234  users[userAddress] */\n      swap1\n      dup2\n      mstore\n        /* \"BCStaking.sol\":13216:13221  users */\n      0x07\n        /* \"BCStaking.sol\":13216:13234  users[userAddress] */\n      0x20\n      mstore\n      0x40\n      swap1\n      keccak256\n        /* \"BCStaking.sol\":13216:13240  users[userAddress].bonus */\n      0x02\n      add\n      sload\n        /* \"BCStaking.sol\":6696:6713  referralBonus > 0 */\n      dup1\n      iszero\n        /* \"BCStaking.sol\":6692:6852  if (referralBonus > 0) {... */\n      tag_301\n      jumpi\n        /* \"BCStaking.sol\":6744:6774  totalAmount.add(referralBonus) */\n      tag_302\n        /* \"BCStaking.sol\":6744:6755  totalAmount */\n      dup4\n        /* \"BCStaking.sol\":6760:6773  referralBonus */\n      dup3\n        /* \"BCStaking.sol\":6744:6759  totalAmount.add */\n      tag_202\n        /* \"BCStaking.sol\":6744:6774  totalAmount.add(referralBonus) */\n      jump\t// in\n    tag_302:\n        /* \"BCStaking.sol\":6802:6803  0 */\n      0x00\n        /* \"BCStaking.sol\":6789:6799  user.bonus */\n      0x02\n      dup7\n      add\n        /* \"BCStaking.sol\":6789:6803  user.bonus = 0 */\n      dup2\n      swap1\n      sstore\n        /* \"BCStaking.sol\":6818:6836  user.referralCount */\n      0x03\n      dup7\n      add\n        /* \"BCStaking.sol\":6818:6840  user.referralCount = 0 */\n      sstore\n        /* \"BCStaking.sol\":6730:6774  totalAmount = totalAmount.add(referralBonus) */\n      swap3\n      pop\n        /* \"BCStaking.sol\":6692:6852  if (referralBonus > 0) {... */\n    tag_301:\n        /* \"BCStaking.sol\":6886:6887  0 */\n      0x00\n        /* \"BCStaking.sol\":6872:6883  totalAmount */\n      dup4\n        /* \"BCStaking.sol\":6872:6887  totalAmount > 0 */\n      gt\n        /* \"BCStaking.sol\":6864:6913  require(totalAmount > 0, \"User has no dividends\") */\n      tag_303\n      jumpi\n      mload(0x40)\n      shl(0xe5, 0x461bcd)\n      dup2\n      mstore\n        /* \"#utility.yul\":2662:2664   */\n      0x20\n        /* \"BCStaking.sol\":6864:6913  require(totalAmount > 0, \"User has no dividends\") */\n      0x04\n      dup3\n      add\n        /* \"#utility.yul\":2644:2665   */\n      mstore\n        /* \"#utility.yul\":2701:2703   */\n      0x15\n        /* \"#utility.yul\":2681:2699   */\n      0x24\n      dup3\n      add\n        /* \"#utility.yul\":2674:2704   */\n      mstore\n      shl(0x58, 0x5573657220686173206e6f206469766964656e6473)\n        /* \"#utility.yul\":2720:2738   */\n      0x44\n      dup3\n      add\n        /* \"#utility.yul\":2713:2764   */\n      mstore\n        /* \"#utility.yul\":2781:2799   */\n      0x64\n      add\n        /* \"BCStaking.sol\":6864:6913  require(totalAmount > 0, \"User has no dividends\") */\n      tag_215\n        /* \"#utility.yul\":2460:2805   */\n      jump\n        /* \"BCStaking.sol\":6864:6913  require(totalAmount > 0, \"User has no dividends\") */\n    tag_303:\n        /* \"BCStaking.sol\":6952:6954  BC */\n      sload(0x01)\n        /* \"BCStaking.sol\":6952:6979  BC.balanceOf(address(this)) */\n      mload(0x40)\n      shl(0xe0, 0x70a08231)\n      dup2\n      mstore\n        /* \"BCStaking.sol\":6973:6977  this */\n      address\n        /* \"BCStaking.sol\":6952:6979  BC.balanceOf(address(this)) */\n      0x04\n      dup3\n      add\n        /* \"#utility.yul\":711:762   */\n      mstore\n        /* \"BCStaking.sol\":6926:6949  uint256 contractBalance */\n      0x00\n      swap2\n      sub(shl(0xa0, 0x01), 0x01)\n        /* \"BCStaking.sol\":6952:6954  BC */\n      and\n      swap1\n        /* \"BCStaking.sol\":6952:6964  BC.balanceOf */\n      0x70a08231\n      swap1\n        /* \"#utility.yul\":684:702   */\n      0x24\n      add\n        /* \"BCStaking.sol\":6952:6979  BC.balanceOf(address(this)) */\n      0x20\n      mload(0x40)\n      dup1\n      dup4\n      sub\n      dup2\n      dup7\n      gas\n      staticcall\n      iszero\n      dup1\n      iszero\n      tag_308\n      jumpi\n      returndatasize\n      0x00\n      dup1\n      returndatacopy\n      revert(0x00, returndatasize)\n    tag_308:\n      pop\n      pop\n      pop\n      pop\n      mload(0x40)\n      returndatasize\n      not(0x1f)\n      0x1f\n      dup3\n      add\n      and\n      dup3\n      add\n      dup1\n      0x40\n      mstore\n      pop\n      dup2\n      add\n      swap1\n      tag_309\n      swap2\n      swap1\n      tag_310\n      jump\t// in\n    tag_309:\n        /* \"BCStaking.sol\":6926:6979  uint256 contractBalance = BC.balanceOf(address(this)) */\n      swap1\n      pop\n        /* \"BCStaking.sol\":7012:7023  totalAmount */\n      dup4\n        /* \"BCStaking.sol\":6994:7009  contractBalance */\n      dup2\n        /* \"BCStaking.sol\":6994:7023  contractBalance < totalAmount */\n      lt\n        /* \"BCStaking.sol\":6990:7081  if (contractBalance < totalAmount) {... */\n      iszero\n      tag_311\n      jumpi\n        /* \"BCStaking.sol\":7054:7069  contractBalance */\n      dup1\n        /* \"BCStaking.sol\":7040:7069  totalAmount = contractBalance */\n      swap4\n      pop\n        /* \"BCStaking.sol\":6990:7081  if (contractBalance < totalAmount) {... */\n    tag_311:\n        /* \"BCStaking.sol\":7111:7126  block.timestamp */\n      timestamp\n        /* \"BCStaking.sol\":7093:7108  user.checkpoint */\n      0x01\n      dup7\n      dup2\n      add\n        /* \"BCStaking.sol\":7093:7126  user.checkpoint = block.timestamp */\n      swap2\n      swap1\n      swap2\n      sstore\n        /* \"BCStaking.sol\":7161:7163  BC */\n      sload\n        /* \"BCStaking.sol\":7161:7197  BC.transfer(msg.sender, totalAmount) */\n      mload(0x40)\n      shl(0xe0, 0xa9059cbb)\n      dup2\n      mstore\n        /* \"BCStaking.sol\":7173:7183  msg.sender */\n      caller\n        /* \"BCStaking.sol\":7161:7197  BC.transfer(msg.sender, totalAmount) */\n      0x04\n      dup3\n      add\n        /* \"#utility.yul\":3173:3224   */\n      mstore\n        /* \"#utility.yul\":3240:3258   */\n      0x24\n      dup2\n      add\n        /* \"#utility.yul\":3233:3267   */\n      dup7\n      swap1\n      mstore\n      sub(shl(0xa0, 0x01), 0x01)\n        /* \"BCStaking.sol\":7161:7163  BC */\n      swap1\n      swap2\n      and\n      swap1\n        /* \"BCStaking.sol\":7161:7172  BC.transfer */\n      0xa9059cbb\n      swap1\n        /* \"#utility.yul\":3146:3164   */\n      0x44\n      add\n        /* \"BCStaking.sol\":7161:7197  BC.transfer(msg.sender, totalAmount) */\n      0x20\n      mload(0x40)\n      dup1\n      dup4\n      sub\n      dup2\n      0x00\n      dup8\n      gas\n      call\n      iszero\n      dup1\n      iszero\n      tag_315\n      jumpi\n      returndatasize\n      0x00\n      dup1\n      returndatacopy\n      revert(0x00, returndatasize)\n    tag_315:\n      pop\n      pop\n      pop\n      pop\n      mload(0x40)\n      returndatasize\n      not(0x1f)\n      0x1f\n      dup3\n      add\n      and\n      dup3\n      add\n      dup1\n      0x40\n      mstore\n      pop\n      dup2\n      add\n      swap1\n      tag_316\n      swap2\n      swap1\n      tag_317\n      jump\t// in\n    tag_316:\n        /* \"BCStaking.sol\":7139:7268  require(... */\n      tag_318\n      jumpi\n      mload(0x40)\n      shl(0xe5, 0x461bcd)\n      dup2\n      mstore\n        /* \"#utility.yul\":3762:3764   */\n      0x20\n        /* \"BCStaking.sol\":7139:7268  require(... */\n      0x04\n      dup3\n      add\n        /* \"#utility.yul\":3744:3765   */\n      mstore\n        /* \"#utility.yul\":3801:3803   */\n      0x2b\n        /* \"#utility.yul\":3781:3799   */\n      0x24\n      dup3\n      add\n        /* \"#utility.yul\":3774:3804   */\n      mstore\n        /* \"#utility.yul\":3840:3874   */\n      0x436c61696d206661696c65642064756520746f206661696c656420616d6f756e\n        /* \"#utility.yul\":3820:3838   */\n      0x44\n      dup3\n      add\n        /* \"#utility.yul\":3813:3875   */\n      mstore\n      shl(0xa9, 0x3a103a3930b739b332b917)\n        /* \"#utility.yul\":3891:3909   */\n      0x64\n      dup3\n      add\n        /* \"#utility.yul\":3884:3925   */\n      mstore\n        /* \"#utility.yul\":3942:3961   */\n      0x84\n      add\n        /* \"BCStaking.sol\":7139:7268  require(... */\n      tag_215\n        /* \"#utility.yul\":3560:3967   */\n      jump\n        /* \"BCStaking.sol\":7139:7268  require(... */\n    tag_318:\n        /* \"BCStaking.sol\":7298:7312  totalWithdrawn */\n      sload(0x04)\n        /* \"BCStaking.sol\":7298:7329  totalWithdrawn.add(totalAmount) */\n      tag_321\n      swap1\n        /* \"BCStaking.sol\":7317:7328  totalAmount */\n      dup6\n        /* \"BCStaking.sol\":7298:7316  totalWithdrawn.add */\n      tag_202\n        /* \"BCStaking.sol\":7298:7329  totalWithdrawn.add(totalAmount) */\n      jump\t// in\n    tag_321:\n        /* \"BCStaking.sol\":7281:7295  totalWithdrawn */\n      0x04\n        /* \"BCStaking.sol\":7281:7329  totalWithdrawn = totalWithdrawn.add(totalAmount) */\n      sstore\n        /* \"BCStaking.sol\":7347:7381  Withdrawn(msg.sender, totalAmount) */\n      mload(0x40)\n        /* \"#utility.yul\":160:185   */\n      dup5\n      dup2\n      mstore\n        /* \"BCStaking.sol\":7357:7367  msg.sender */\n      caller\n      swap1\n        /* \"BCStaking.sol\":7347:7381  Withdrawn(msg.sender, totalAmount) */\n      0x7084f5476618d8e60b11ef0d7d3f06914655adb8793e28ff7f018d4c76d505d5\n      swap1\n        /* \"#utility.yul\":148:150   */\n      0x20\n        /* \"#utility.yul\":133:151   */\n      add\n        /* \"BCStaking.sol\":7347:7381  Withdrawn(msg.sender, totalAmount) */\n      mload(0x40)\n      dup1\n      swap2\n      sub\n      swap1\n      log2\n        /* \"BCStaking.sol\":4071:7389  {... */\n      pop\n      pop\n      pop\n      pop\n      pop\n        /* \"BCStaking.sol\":4047:7389  function claim() public {... */\n      jump\t// out\n        /* \"@openzeppelin/contracts/access/Ownable.sol\":1668:1769  function renounceOwnership() public virtual onlyOwner {... */\n    tag_76:\n        /* \"@openzeppelin/contracts/access/Ownable.sol\":1082:1089  address */\n      0x00\n        /* \"@openzeppelin/contracts/access/Ownable.sol\":1108:1114  _owner */\n      sload\n      sub(shl(0xa0, 0x01), 0x01)\n      and\n        /* \"@openzeppelin/contracts/utils/Context.sol\":719:729  msg.sender */\n      caller\n        /* \"@openzeppelin/contracts/access/Ownable.sol\":1248:1271  owner() == _msgSender() */\n      eq\n        /* \"@openzeppelin/contracts/access/Ownable.sol\":1240:1308  require(owner() == _msgSender(), \"Ownable: caller is not the owner\") */\n      tag_326\n      jumpi\n      mload(0x40)\n      shl(0xe5, 0x461bcd)\n      dup2\n      mstore\n      0x04\n      add\n      tag_215\n      swap1\n      tag_216\n      jump\t// in\n    tag_326:\n        /* \"@openzeppelin/contracts/access/Ownable.sol\":1732:1762  _transferOwnership(address(0)) */\n      tag_329\n        /* \"@openzeppelin/contracts/access/Ownable.sol\":1759:1760  0 */\n      0x00\n        /* \"@openzeppelin/contracts/access/Ownable.sol\":1732:1750  _transferOwnership */\n      tag_330\n        /* \"@openzeppelin/contracts/access/Ownable.sol\":1732:1762  _transferOwnership(address(0)) */\n      jump\t// in\n    tag_329:\n        /* \"@openzeppelin/contracts/access/Ownable.sol\":1668:1769  function renounceOwnership() public virtual onlyOwner {... */\n      jump\t// out\n        /* \"BCStaking.sol\":14764:15192  function getUserTotalDeposits(address userAddress)... */\n    tag_79:\n      sub(shl(0xa0, 0x01), 0x01)\n        /* \"BCStaking.sol\":14908:14926  users[userAddress] */\n      dup2\n      and\n        /* \"BCStaking.sol\":14863:14870  uint256 */\n      0x00\n        /* \"BCStaking.sol\":14908:14926  users[userAddress] */\n      swap1\n      dup2\n      mstore\n        /* \"BCStaking.sol\":14908:14913  users */\n      0x07\n        /* \"BCStaking.sol\":14908:14926  users[userAddress] */\n      0x20\n      mstore\n      0x40\n      dup2\n      keccak256\n        /* \"BCStaking.sol\":14863:14870  uint256 */\n      dup2\n      dup1\n        /* \"BCStaking.sol\":14966:15159  for (uint256 i = 0; i < user.deposits.length; i++) {... */\n    tag_332:\n        /* \"BCStaking.sol\":14990:15010  user.deposits.length */\n      dup3\n      sload\n        /* \"BCStaking.sol\":14986:15010  i < user.deposits.length */\n      dup2\n      lt\n        /* \"BCStaking.sol\":14966:15159  for (uint256 i = 0; i < user.deposits.length; i++) {... */\n      iszero\n      tag_333\n      jumpi\n        /* \"BCStaking.sol\":15036:15040  user */\n      dup3\n        /* \"BCStaking.sol\":15036:15049  user.deposits */\n      0x00\n      add\n        /* \"BCStaking.sol\":15050:15051  i */\n      dup2\n        /* \"BCStaking.sol\":15036:15052  user.deposits[i] */\n      dup2\n      sload\n      dup2\n      lt\n      tag_336\n      jumpi\n      tag_336\n      tag_136\n      jump\t// in\n    tag_336:\n      0x00\n      swap2\n      dup3\n      mstore\n      0x20\n      swap1\n      swap2\n      keccak256\n        /* \"BCStaking.sol\":15036:15058  user.deposits[i].ended */\n      0x04\n        /* \"BCStaking.sol\":15036:15052  user.deposits[i] */\n      0x05\n      swap1\n      swap3\n      mul\n      add\n        /* \"BCStaking.sol\":15036:15058  user.deposits[i].ended */\n      add\n      sload\n      0xff\n      and\n        /* \"BCStaking.sol\":15032:15148  if (user.deposits[i].ended == false) {... */\n      tag_338\n      jumpi\n        /* \"BCStaking.sol\":15097:15132  amount.add(user.deposits[i].amount) */\n      tag_339\n        /* \"BCStaking.sol\":15108:15112  user */\n      dup4\n        /* \"BCStaking.sol\":15108:15121  user.deposits */\n      0x00\n      add\n        /* \"BCStaking.sol\":15122:15123  i */\n      dup3\n        /* \"BCStaking.sol\":15108:15124  user.deposits[i] */\n      dup2\n      sload\n      dup2\n      lt\n      tag_341\n      jumpi\n      tag_341\n      tag_136\n      jump\t// in\n    tag_341:\n      0x00\n      swap2\n      dup3\n      mstore\n      0x20\n      swap1\n      swap2\n      keccak256\n      0x05\n      swap1\n      swap2\n      mul\n      add\n        /* \"BCStaking.sol\":15108:15131  user.deposits[i].amount */\n      sload\n        /* \"BCStaking.sol\":15097:15103  amount */\n      dup4\n      swap1\n        /* \"BCStaking.sol\":15097:15107  amount.add */\n      tag_202\n        /* \"BCStaking.sol\":15097:15132  amount.add(user.deposits[i].amount) */\n      jump\t// in\n    tag_339:\n        /* \"BCStaking.sol\":15088:15132  amount = amount.add(user.deposits[i].amount) */\n      swap2\n      pop\n        /* \"BCStaking.sol\":15032:15148  if (user.deposits[i].ended == false) {... */\n    tag_338:\n        /* \"BCStaking.sol\":15012:15015  i++ */\n      dup1\n      tag_343\n      dup2\n      tag_204\n      jump\t// in\n    tag_343:\n      swap2\n      pop\n      pop\n        /* \"BCStaking.sol\":14966:15159  for (uint256 i = 0; i < user.deposits.length; i++) {... */\n      jump(tag_332)\n    tag_333:\n      pop\n        /* \"BCStaking.sol\":15178:15184  amount */\n      swap4\n        /* \"BCStaking.sol\":14764:15192  function getUserTotalDeposits(address userAddress)... */\n      swap3\n      pop\n      pop\n      pop\n      jump\t// out\n        /* \"BCStaking.sol\":1746:4039  function stake(address referrer, uint256 amount) public {... */\n    tag_97:\n        /* \"BCStaking.sol\":1845:1862  minimumStakeValue */\n      sload(0x06)\n        /* \"BCStaking.sol\":1835:1841  amount */\n      dup2\n        /* \"BCStaking.sol\":1835:1862  amount >= minimumStakeValue */\n      lt\n      iszero\n        /* \"BCStaking.sol\":1813:1926  require(... */\n      tag_347\n      jumpi\n      mload(0x40)\n      shl(0xe5, 0x461bcd)\n      dup2\n      mstore\n        /* \"#utility.yul\":4174:4176   */\n      0x20\n        /* \"BCStaking.sol\":1813:1926  require(... */\n      0x04\n      dup3\n      add\n        /* \"#utility.yul\":4156:4177   */\n      mstore\n        /* \"#utility.yul\":4213:4215   */\n      0x24\n        /* \"#utility.yul\":4193:4211   */\n      dup1\n      dup3\n      add\n        /* \"#utility.yul\":4186:4216   */\n      mstore\n        /* \"#utility.yul\":4252:4286   */\n      0x416d6f756e742069732062656c6f77206d696e696d756d207374616b65207661\n        /* \"#utility.yul\":4232:4250   */\n      0x44\n      dup3\n      add\n        /* \"#utility.yul\":4225:4287   */\n      mstore\n      shl(0xe1, 0x363ab297)\n        /* \"#utility.yul\":4303:4321   */\n      0x64\n      dup3\n      add\n        /* \"#utility.yul\":4296:4330   */\n      mstore\n        /* \"#utility.yul\":4347:4366   */\n      0x84\n      add\n        /* \"BCStaking.sol\":1813:1926  require(... */\n      tag_215\n        /* \"#utility.yul\":3972:4372   */\n      jump\n        /* \"BCStaking.sol\":1813:1926  require(... */\n    tag_347:\n        /* \"BCStaking.sol\":1961:1963  BC */\n      sload(0x01)\n        /* \"BCStaking.sol\":1961:1985  BC.balanceOf(msg.sender) */\n      mload(0x40)\n      shl(0xe0, 0x70a08231)\n      dup2\n      mstore\n        /* \"BCStaking.sol\":1974:1984  msg.sender */\n      caller\n        /* \"BCStaking.sol\":1961:1985  BC.balanceOf(msg.sender) */\n      0x04\n      dup3\n      add\n        /* \"#utility.yul\":711:762   */\n      mstore\n        /* \"BCStaking.sol\":1989:1995  amount */\n      dup3\n      swap2\n      sub(shl(0xa0, 0x01), 0x01)\n        /* \"BCStaking.sol\":1961:1963  BC */\n      and\n      swap1\n        /* \"BCStaking.sol\":1961:1973  BC.balanceOf */\n      0x70a08231\n      swap1\n        /* \"#utility.yul\":684:702   */\n      0x24\n      add\n        /* \"BCStaking.sol\":1961:1985  BC.balanceOf(msg.sender) */\n      0x20\n      mload(0x40)\n      dup1\n      dup4\n      sub\n      dup2\n      dup7\n      gas\n      staticcall\n      iszero\n      dup1\n      iszero\n      tag_352\n      jumpi\n      returndatasize\n      0x00\n      dup1\n      returndatacopy\n      revert(0x00, returndatasize)\n    tag_352:\n      pop\n      pop\n      pop\n      pop\n      mload(0x40)\n      returndatasize\n      not(0x1f)\n      0x1f\n      dup3\n      add\n      and\n      dup3\n      add\n      dup1\n      0x40\n      mstore\n      pop\n      dup2\n      add\n      swap1\n      tag_353\n      swap2\n      swap1\n      tag_310\n      jump\t// in\n    tag_353:\n        /* \"BCStaking.sol\":1961:1995  BC.balanceOf(msg.sender) >= amount */\n      lt\n      iszero\n        /* \"BCStaking.sol\":1939:2056  require(... */\n      tag_354\n      jumpi\n      mload(0x40)\n      shl(0xe5, 0x461bcd)\n      dup2\n      mstore\n        /* \"#utility.yul\":4579:4581   */\n      0x20\n        /* \"BCStaking.sol\":1939:2056  require(... */\n      0x04\n      dup3\n      add\n        /* \"#utility.yul\":4561:4582   */\n      mstore\n        /* \"#utility.yul\":4618:4620   */\n      0x21\n        /* \"#utility.yul\":4598:4616   */\n      0x24\n      dup3\n      add\n        /* \"#utility.yul\":4591:4621   */\n      mstore\n        /* \"#utility.yul\":4657:4691   */\n      0x4d757374206861766520656e6f7567682062616c616e636520746f207374616b\n        /* \"#utility.yul\":4637:4655   */\n      0x44\n      dup3\n      add\n        /* \"#utility.yul\":4630:4692   */\n      mstore\n      shl(0xf8, 0x65)\n        /* \"#utility.yul\":4708:4726   */\n      0x64\n      dup3\n      add\n        /* \"#utility.yul\":4701:4732   */\n      mstore\n        /* \"#utility.yul\":4749:4768   */\n      0x84\n      add\n        /* \"BCStaking.sol\":1939:2056  require(... */\n      tag_215\n        /* \"#utility.yul\":4377:4774   */\n      jump\n        /* \"BCStaking.sol\":1939:2056  require(... */\n    tag_354:\n        /* \"BCStaking.sol\":2091:2093  BC */\n      sload(0x01)\n        /* \"BCStaking.sol\":2091:2141  BC.transferFrom(msg.sender, address(this), amount) */\n      mload(0x40)\n      shl(0xe0, 0x23b872dd)\n      dup2\n      mstore\n        /* \"BCStaking.sol\":2107:2117  msg.sender */\n      caller\n        /* \"BCStaking.sol\":2091:2141  BC.transferFrom(msg.sender, address(this), amount) */\n      0x04\n      dup3\n      add\n        /* \"#utility.yul\":5019:5053   */\n      mstore\n        /* \"BCStaking.sol\":2127:2131  this */\n      address\n        /* \"#utility.yul\":5069:5087   */\n      0x24\n      dup3\n      add\n        /* \"#utility.yul\":5062:5105   */\n      mstore\n        /* \"#utility.yul\":5121:5139   */\n      0x44\n      dup2\n      add\n        /* \"#utility.yul\":5114:5148   */\n      dup4\n      swap1\n      mstore\n      sub(shl(0xa0, 0x01), 0x01)\n        /* \"BCStaking.sol\":2091:2093  BC */\n      swap1\n      swap2\n      and\n      swap1\n        /* \"BCStaking.sol\":2091:2106  BC.transferFrom */\n      0x23b872dd\n      swap1\n        /* \"#utility.yul\":4954:4972   */\n      0x64\n      add\n        /* \"BCStaking.sol\":2091:2141  BC.transferFrom(msg.sender, address(this), amount) */\n      0x20\n      mload(0x40)\n      dup1\n      dup4\n      sub\n      dup2\n      0x00\n      dup8\n      gas\n      call\n      iszero\n      dup1\n      iszero\n      tag_360\n      jumpi\n      returndatasize\n      0x00\n      dup1\n      returndatacopy\n      revert(0x00, returndatasize)\n    tag_360:\n      pop\n      pop\n      pop\n      pop\n      mload(0x40)\n      returndatasize\n      not(0x1f)\n      0x1f\n      dup3\n      add\n      and\n      dup3\n      add\n      dup1\n      0x40\n      mstore\n      pop\n      dup2\n      add\n      swap1\n      tag_361\n      swap2\n      swap1\n      tag_317\n      jump\t// in\n    tag_361:\n        /* \"BCStaking.sol\":2069:2212  require(... */\n      tag_362\n      jumpi\n      mload(0x40)\n      shl(0xe5, 0x461bcd)\n      dup2\n      mstore\n        /* \"#utility.yul\":5361:5363   */\n      0x20\n        /* \"BCStaking.sol\":2069:2212  require(... */\n      0x04\n      dup3\n      add\n        /* \"#utility.yul\":5343:5364   */\n      mstore\n        /* \"#utility.yul\":5400:5402   */\n      0x2b\n        /* \"#utility.yul\":5380:5398   */\n      0x24\n      dup3\n      add\n        /* \"#utility.yul\":5373:5403   */\n      mstore\n        /* \"#utility.yul\":5439:5473   */\n      0x5374616b65206661696c65642064756520746f206661696c656420616d6f756e\n        /* \"#utility.yul\":5419:5437   */\n      0x44\n      dup3\n      add\n        /* \"#utility.yul\":5412:5474   */\n      mstore\n      shl(0xa9, 0x3a103a3930b739b332b917)\n        /* \"#utility.yul\":5490:5508   */\n      0x64\n      dup3\n      add\n        /* \"#utility.yul\":5483:5524   */\n      mstore\n        /* \"#utility.yul\":5541:5560   */\n      0x84\n      add\n        /* \"BCStaking.sol\":2069:2212  require(... */\n      tag_215\n        /* \"#utility.yul\":5159:5566   */\n      jump\n        /* \"BCStaking.sol\":2069:2212  require(... */\n    tag_362:\n        /* \"BCStaking.sol\":2251:2261  msg.sender */\n      caller\n        /* \"BCStaking.sol\":2225:2242  User storage user */\n      0x00\n        /* \"BCStaking.sol\":2245:2262  users[msg.sender] */\n      swap1\n      dup2\n      mstore\n        /* \"BCStaking.sol\":2245:2250  users */\n      0x07\n        /* \"BCStaking.sol\":2245:2262  users[msg.sender] */\n      0x20\n      mstore\n      0x40\n      swap1\n      keccak256\n        /* \"BCStaking.sol\":2293:2306  user.referrer */\n      0x04\n      dup2\n      add\n      sload\n      sub(shl(0xa0, 0x01), 0x01)\n      and\n        /* \"BCStaking.sol\":2293:2320  user.referrer == address(0) */\n      iszero\n        /* \"BCStaking.sol\":2293:2372  user.referrer == address(0) &&... */\n      dup1\n      iszero\n      tag_365\n      jumpi\n      pop\n      sub(shl(0xa0, 0x01), 0x01)\n        /* \"BCStaking.sol\":2337:2352  users[referrer] */\n      dup4\n      and\n        /* \"BCStaking.sol\":2371:2372  0 */\n      0x00\n        /* \"BCStaking.sol\":2337:2352  users[referrer] */\n      swap1\n      dup2\n      mstore\n        /* \"BCStaking.sol\":2337:2342  users */\n      0x07\n        /* \"BCStaking.sol\":2337:2352  users[referrer] */\n      0x20\n      mstore\n      0x40\n      swap1\n      keccak256\n        /* \"BCStaking.sol\":2337:2368  users[referrer].deposits.length */\n      sload\n        /* \"BCStaking.sol\":2337:2372  users[referrer].deposits.length > 0 */\n      iszero\n      iszero\n        /* \"BCStaking.sol\":2293:2372  user.referrer == address(0) &&... */\n    tag_365:\n        /* \"BCStaking.sol\":2293:2411  user.referrer == address(0) &&... */\n      dup1\n      iszero\n      tag_366\n      jumpi\n      pop\n      sub(shl(0xa0, 0x01), 0x01)\n        /* \"BCStaking.sol\":2389:2411  referrer != msg.sender */\n      dup4\n      and\n        /* \"BCStaking.sol\":2401:2411  msg.sender */\n      caller\n        /* \"BCStaking.sol\":2389:2411  referrer != msg.sender */\n      eq\n      iszero\n        /* \"BCStaking.sol\":2293:2411  user.referrer == address(0) &&... */\n    tag_366:\n        /* \"BCStaking.sol\":2275:2474  if (... */\n      iszero\n      tag_367\n      jumpi\n        /* \"BCStaking.sol\":2438:2451  user.referrer */\n      0x04\n      dup2\n      add\n        /* \"BCStaking.sol\":2438:2462  user.referrer = referrer */\n      dup1\n      sload\n      not(sub(shl(0xa0, 0x01), 0x01))\n      and\n      sub(shl(0xa0, 0x01), 0x01)\n      dup6\n      and\n      or\n      swap1\n      sstore\n        /* \"BCStaking.sol\":2275:2474  if (... */\n    tag_367:\n        /* \"BCStaking.sol\":2490:2503  user.referrer */\n      0x04\n      dup2\n      add\n      sload\n      sub(shl(0xa0, 0x01), 0x01)\n      and\n        /* \"BCStaking.sol\":2490:2517  user.referrer != address(0) */\n      iszero\n        /* \"BCStaking.sol\":2486:2979  if (user.referrer != address(0)) {... */\n      tag_368\n      jumpi\n        /* \"BCStaking.sol\":2551:2564  user.referrer */\n      0x04\n      dup2\n      add\n      sload\n      sub(shl(0xa0, 0x01), 0x01)\n      and\n        /* \"BCStaking.sol\":2585:2605  upline != address(0) */\n      dup1\n      iszero\n        /* \"BCStaking.sol\":2581:2968  if (upline != address(0)) {... */\n      tag_369\n      jumpi\n        /* \"BCStaking.sol\":2626:2641  uint256 _amount */\n      0x00\n        /* \"BCStaking.sol\":2644:2735  amount.mul(REFERRAL_PERCENTS).div(... */\n      tag_370\n        /* \"BCStaking.sol\":365:369  1000 */\n      0x03e8\n        /* \"BCStaking.sol\":2644:2673  amount.mul(REFERRAL_PERCENTS) */\n      tag_155\n        /* \"BCStaking.sol\":2644:2650  amount */\n      dup7\n        /* \"BCStaking.sol\":465:468  120 */\n      0x78\n        /* \"BCStaking.sol\":2644:2654  amount.mul */\n      tag_159\n        /* \"BCStaking.sol\":2644:2673  amount.mul(REFERRAL_PERCENTS) */\n      jump\t// in\n        /* \"BCStaking.sol\":2644:2735  amount.mul(REFERRAL_PERCENTS).div(... */\n    tag_370:\n      sub(shl(0xa0, 0x01), 0x01)\n        /* \"BCStaking.sol\":2776:2789  users[upline] */\n      dup4\n      and\n      0x00\n      swap1\n      dup2\n      mstore\n        /* \"BCStaking.sol\":2776:2781  users */\n      0x07\n        /* \"BCStaking.sol\":2776:2789  users[upline] */\n      0x20\n      mstore\n      0x40\n      swap1\n      keccak256\n        /* \"BCStaking.sol\":2776:2795  users[upline].bonus */\n      0x02\n      add\n      sload\n        /* \"BCStaking.sol\":2626:2735  uint256 _amount = amount.mul(REFERRAL_PERCENTS).div(... */\n      swap1\n      swap2\n      pop\n        /* \"BCStaking.sol\":2776:2808  users[upline].bonus.add(_amount) */\n      tag_372\n      swap1\n        /* \"BCStaking.sol\":2626:2735  uint256 _amount = amount.mul(REFERRAL_PERCENTS).div(... */\n      dup3\n        /* \"BCStaking.sol\":2776:2799  users[upline].bonus.add */\n      tag_202\n        /* \"BCStaking.sol\":2776:2808  users[upline].bonus.add(_amount) */\n      jump\t// in\n    tag_372:\n      sub(shl(0xa0, 0x01), 0x01)\n        /* \"BCStaking.sol\":2754:2767  users[upline] */\n      dup4\n      and\n      0x00\n      swap1\n      dup2\n      mstore\n        /* \"BCStaking.sol\":2754:2759  users */\n      0x07\n        /* \"BCStaking.sol\":2754:2767  users[upline] */\n      0x20\n      mstore\n      0x40\n      swap1\n      keccak256\n        /* \"BCStaking.sol\":2754:2773  users[upline].bonus */\n      0x02\n      dup2\n      add\n        /* \"BCStaking.sol\":2754:2808  users[upline].bonus = users[upline].bonus.add(_amount) */\n      swap2\n      swap1\n      swap2\n      sstore\n        /* \"BCStaking.sol\":2857:2884  users[upline].referralCount */\n      0x03\n      add\n      sload\n        /* \"BCStaking.sol\":2857:2891  users[upline].referralCount.add(1) */\n      tag_373\n      swap1\n        /* \"BCStaking.sol\":2889:2890  1 */\n      0x01\n        /* \"BCStaking.sol\":2857:2888  users[upline].referralCount.add */\n      tag_202\n        /* \"BCStaking.sol\":2857:2891  users[upline].referralCount.add(1) */\n      jump\t// in\n    tag_373:\n      sub(shl(0xa0, 0x01), 0x01)\n        /* \"BCStaking.sol\":2827:2840  users[upline] */\n      dup4\n      and\n      0x00\n      dup2\n      dup2\n      mstore\n        /* \"BCStaking.sol\":2827:2832  users */\n      0x07\n        /* \"BCStaking.sol\":2827:2840  users[upline] */\n      0x20\n      swap1\n      dup2\n      mstore\n      0x40\n      swap2\n      dup3\n      swap1\n      keccak256\n        /* \"BCStaking.sol\":2827:2854  users[upline].referralCount */\n      0x03\n      add\n        /* \"BCStaking.sol\":2827:2891  users[upline].referralCount = users[upline].referralCount.add(1) */\n      swap4\n      swap1\n      swap4\n      sstore\n        /* \"BCStaking.sol\":2915:2952  RefBonus(upline, msg.sender, _amount) */\n      mload\n        /* \"#utility.yul\":160:185   */\n      dup4\n      dup2\n      mstore\n        /* \"BCStaking.sol\":2932:2942  msg.sender */\n      caller\n      swap3\n        /* \"BCStaking.sol\":2915:2952  RefBonus(upline, msg.sender, _amount) */\n      0x328838ddfc48ad5ae5531b1ad95dfb22b42ff1866853e474375ffef2c63d8e50\n      swap2\n        /* \"#utility.yul\":133:151   */\n      add\n        /* \"BCStaking.sol\":2915:2952  RefBonus(upline, msg.sender, _amount) */\n      mload(0x40)\n      dup1\n      swap2\n      sub\n      swap1\n      log3\n        /* \"BCStaking.sol\":2607:2968  {... */\n      pop\n        /* \"BCStaking.sol\":2581:2968  if (upline != address(0)) {... */\n    tag_369:\n        /* \"BCStaking.sol\":2519:2979  {... */\n      pop\n        /* \"BCStaking.sol\":2486:2979  if (user.referrer != address(0)) {... */\n    tag_368:\n        /* \"BCStaking.sol\":2995:3015  user.deposits.length */\n      dup1\n      sload\n        /* \"BCStaking.sol\":2991:3165  if (user.deposits.length == 0) {... */\n      tag_375\n      jumpi\n        /* \"BCStaking.sol\":3055:3070  block.timestamp */\n      timestamp\n        /* \"BCStaking.sol\":3037:3052  user.checkpoint */\n      0x01\n      dup1\n      dup4\n      add\n        /* \"BCStaking.sol\":3037:3070  user.checkpoint = block.timestamp */\n      swap2\n      swap1\n      swap2\n      sstore\n        /* \"BCStaking.sol\":3098:3108  totalUsers */\n      sload(0x02)\n        /* \"BCStaking.sol\":3098:3115  totalUsers.add(1) */\n      tag_376\n      swap2\n        /* \"BCStaking.sol\":3098:3112  totalUsers.add */\n      tag_202\n        /* \"BCStaking.sol\":3098:3115  totalUsers.add(1) */\n      jump\t// in\n    tag_376:\n        /* \"BCStaking.sol\":3085:3095  totalUsers */\n      0x02\n        /* \"BCStaking.sol\":3085:3115  totalUsers = totalUsers.add(1) */\n      sstore\n        /* \"BCStaking.sol\":3135:3153  Newbie(msg.sender) */\n      mload(0x40)\n        /* \"BCStaking.sol\":3142:3152  msg.sender */\n      caller\n        /* \"#utility.yul\":711:762   */\n      dup2\n      mstore\n        /* \"BCStaking.sol\":3135:3153  Newbie(msg.sender) */\n      0x9fd565cd14c3c391679eb0cad12a14dcf7534e9d3462bcb9b67a098a9bbbc24a\n      swap1\n        /* \"#utility.yul\":699:701   */\n      0x20\n        /* \"#utility.yul\":684:702   */\n      add\n        /* \"BCStaking.sol\":3135:3153  Newbie(msg.sender) */\n      mload(0x40)\n      dup1\n      swap2\n      sub\n      swap1\n      log1\n        /* \"BCStaking.sol\":2991:3165  if (user.deposits.length == 0) {... */\n    tag_375:\n        /* \"BCStaking.sol\":3181:3194  user.referrer */\n      0x04\n      dup2\n      add\n      sload\n      sub(shl(0xa0, 0x01), 0x01)\n      and\n        /* \"BCStaking.sol\":3181:3208  user.referrer != address(0) */\n      iszero\n        /* \"BCStaking.sol\":3177:3879  if (user.referrer != address(0)) {... */\n      tag_378\n      jumpi\n        /* \"BCStaking.sol\":3262:3567  Deposit(... */\n      0x40\n      dup1\n      mload\n      0xa0\n      dup2\n      add\n      swap1\n      swap2\n      mstore\n        /* \"BCStaking.sol\":3225:3229  user */\n      dup2\n      swap1\n        /* \"BCStaking.sol\":3262:3567  Deposit(... */\n      dup1\n        /* \"BCStaking.sol\":3292:3403  amount.sub(... */\n      tag_379\n        /* \"BCStaking.sol\":3329:3380  amount.mul(REFERRAL_PERCENTS).div(PERCENTS_DIVIDER) */\n      tag_380\n        /* \"BCStaking.sol\":365:369  1000 */\n      0x03e8\n        /* \"BCStaking.sol\":3329:3358  amount.mul(REFERRAL_PERCENTS) */\n      tag_155\n        /* \"BCStaking.sol\":3329:3335  amount */\n      dup9\n        /* \"BCStaking.sol\":465:468  120 */\n      0x78\n        /* \"BCStaking.sol\":3329:3339  amount.mul */\n      tag_159\n        /* \"BCStaking.sol\":3329:3358  amount.mul(REFERRAL_PERCENTS) */\n      jump\t// in\n        /* \"BCStaking.sol\":3329:3380  amount.mul(REFERRAL_PERCENTS).div(PERCENTS_DIVIDER) */\n    tag_380:\n        /* \"BCStaking.sol\":3292:3298  amount */\n      dup7\n      swap1\n        /* \"BCStaking.sol\":3292:3302  amount.sub */\n      tag_153\n        /* \"BCStaking.sol\":3292:3403  amount.sub(... */\n      jump\t// in\n    tag_379:\n        /* \"BCStaking.sol\":3262:3567  Deposit(... */\n      dup2\n      mstore\n      0x20\n      add\n        /* \"BCStaking.sol\":3426:3427  0 */\n      0x00\n        /* \"BCStaking.sol\":3262:3567  Deposit(... */\n      dup2\n      mstore\n      0x20\n      add\n        /* \"BCStaking.sol\":3450:3465  block.timestamp */\n      timestamp\n        /* \"BCStaking.sol\":3262:3567  Deposit(... */\n      dup2\n      mstore\n      0x20\n      add\n        /* \"BCStaking.sol\":569:577  180 days */\n      0xed4e00\n        /* \"BCStaking.sol\":3488:3503  block.timestamp */\n      timestamp\n        /* \"BCStaking.sol\":3488:3520  block.timestamp + STAKING_PERIOD */\n      tag_382\n      swap2\n      swap1\n      tag_383\n      jump\t// in\n    tag_382:\n        /* \"BCStaking.sol\":3262:3567  Deposit(... */\n      dup2\n      mstore\n        /* \"BCStaking.sol\":3543:3548  false */\n      0x00\n        /* \"BCStaking.sol\":3262:3567  Deposit(... */\n      0x20\n      swap2\n      dup3\n      add\n      dup2\n      swap1\n      mstore\n        /* \"BCStaking.sol\":3225:3582  user.deposits.push(... */\n      dup4\n      sload\n        /* \"BCStaking.sol\":3262:3567  Deposit(... */\n      0x01\n        /* \"BCStaking.sol\":3225:3582  user.deposits.push(... */\n      dup1\n      dup3\n      add\n      dup7\n      sstore\n      swap5\n      dup3\n      mstore\n      swap1\n      dup3\n      swap1\n      keccak256\n      dup4\n      mload\n      0x05\n      swap1\n      swap3\n      mul\n      add\n      swap1\n      dup2\n      sstore\n      swap1\n      dup3\n      add\n      mload\n      swap3\n      dup2\n      add\n      swap3\n      swap1\n      swap3\n      sstore\n      0x40\n      dup2\n      add\n      mload\n      0x02\n      dup4\n      add\n      sstore\n      0x60\n      dup2\n      add\n      mload\n      0x03\n      dup4\n      add\n      sstore\n      0x80\n      add\n      mload\n      0x04\n      swap1\n      swap2\n      add\n      dup1\n      sload\n      not(0xff)\n      and\n      swap2\n      iszero\n      iszero\n      swap2\n      swap1\n      swap2\n      or\n      swap1\n      sstore\n        /* \"BCStaking.sol\":3177:3879  if (user.referrer != address(0)) {... */\n      jump(tag_385)\n    tag_378:\n        /* \"BCStaking.sol\":3615:3619  user */\n      dup1\n        /* \"BCStaking.sol\":3615:3628  user.deposits */\n      0x00\n      add\n        /* \"BCStaking.sol\":3652:3852  Deposit(... */\n      mload(0x40)\n      dup1\n      0xa0\n      add\n      0x40\n      mstore\n      dup1\n        /* \"BCStaking.sol\":3682:3688  amount */\n      dup5\n        /* \"BCStaking.sol\":3652:3852  Deposit(... */\n      dup2\n      mstore\n      0x20\n      add\n        /* \"BCStaking.sol\":3711:3712  0 */\n      0x00\n        /* \"BCStaking.sol\":3652:3852  Deposit(... */\n      dup2\n      mstore\n      0x20\n      add\n        /* \"BCStaking.sol\":3735:3750  block.timestamp */\n      timestamp\n        /* \"BCStaking.sol\":3652:3852  Deposit(... */\n      dup2\n      mstore\n      0x20\n      add\n        /* \"BCStaking.sol\":569:577  180 days */\n      0xed4e00\n        /* \"BCStaking.sol\":3773:3788  block.timestamp */\n      timestamp\n        /* \"BCStaking.sol\":3773:3805  block.timestamp + STAKING_PERIOD */\n      tag_386\n      swap2\n      swap1\n      tag_383\n      jump\t// in\n    tag_386:\n        /* \"BCStaking.sol\":3652:3852  Deposit(... */\n      dup2\n      mstore\n        /* \"BCStaking.sol\":3828:3833  false */\n      0x00\n        /* \"BCStaking.sol\":3652:3852  Deposit(... */\n      0x20\n      swap2\n      dup3\n      add\n      dup2\n      swap1\n      mstore\n        /* \"BCStaking.sol\":3615:3867  user.deposits.push(... */\n      dup4\n      sload\n        /* \"BCStaking.sol\":3652:3852  Deposit(... */\n      0x01\n        /* \"BCStaking.sol\":3615:3867  user.deposits.push(... */\n      dup1\n      dup3\n      add\n      dup7\n      sstore\n      swap5\n      dup3\n      mstore\n      swap1\n      dup3\n      swap1\n      keccak256\n      dup4\n      mload\n      0x05\n      swap1\n      swap3\n      mul\n      add\n      swap1\n      dup2\n      sstore\n      swap1\n      dup3\n      add\n      mload\n      swap3\n      dup2\n      add\n      swap3\n      swap1\n      swap3\n      sstore\n      0x40\n      dup2\n      add\n      mload\n      0x02\n      dup4\n      add\n      sstore\n      0x60\n      dup2\n      add\n      mload\n      0x03\n      dup4\n      add\n      sstore\n      0x80\n      add\n      mload\n      0x04\n      swap1\n      swap2\n      add\n      dup1\n      sload\n      not(0xff)\n      and\n      swap2\n      iszero\n      iszero\n      swap2\n      swap1\n      swap2\n      or\n      swap1\n      sstore\n        /* \"BCStaking.sol\":3177:3879  if (user.referrer != address(0)) {... */\n    tag_385:\n        /* \"BCStaking.sol\":3905:3916  totalStaked */\n      sload(0x03)\n        /* \"BCStaking.sol\":3905:3928  totalStaked.add(amount) */\n      tag_388\n      swap1\n        /* \"BCStaking.sol\":3921:3927  amount */\n      dup4\n        /* \"BCStaking.sol\":3905:3920  totalStaked.add */\n      tag_202\n        /* \"BCStaking.sol\":3905:3928  totalStaked.add(amount) */\n      jump\t// in\n    tag_388:\n        /* \"BCStaking.sol\":3891:3902  totalStaked */\n      0x03\n        /* \"BCStaking.sol\":3891:3928  totalStaked = totalStaked.add(amount) */\n      sstore\n        /* \"BCStaking.sol\":3959:3976  totalDepositCount */\n      sload(0x05)\n        /* \"BCStaking.sol\":3959:3983  totalDepositCount.add(1) */\n      tag_389\n      swap1\n        /* \"BCStaking.sol\":3981:3982  1 */\n      0x01\n        /* \"BCStaking.sol\":3959:3980  totalDepositCount.add */\n      tag_202\n        /* \"BCStaking.sol\":3959:3983  totalDepositCount.add(1) */\n      jump\t// in\n    tag_389:\n        /* \"BCStaking.sol\":3939:3956  totalDepositCount */\n      0x05\n        /* \"BCStaking.sol\":3939:3983  totalDepositCount = totalDepositCount.add(1) */\n      sstore\n        /* \"BCStaking.sol\":4001:4031  NewDeposit(msg.sender, amount) */\n      mload(0x40)\n        /* \"#utility.yul\":160:185   */\n      dup3\n      dup2\n      mstore\n        /* \"BCStaking.sol\":4012:4022  msg.sender */\n      caller\n      swap1\n        /* \"BCStaking.sol\":4001:4031  NewDeposit(msg.sender, amount) */\n      0x2cb77763bc1e8490c1a904905c4d74b4269919aca114464f4bb4d911e60de364\n      swap1\n        /* \"#utility.yul\":148:150   */\n      0x20\n        /* \"#utility.yul\":133:151   */\n      add\n        /* \"BCStaking.sol\":4001:4031  NewDeposit(msg.sender, amount) */\n      mload(0x40)\n      dup1\n      swap2\n      sub\n      swap1\n      log2\n        /* \"BCStaking.sol\":1802:4039  {... */\n      pop\n        /* \"BCStaking.sol\":1746:4039  function stake(address referrer, uint256 amount) public {... */\n      pop\n      pop\n      jump\t// out\n        /* \"BCStaking.sol\":14033:14572  function getUserDepositInfo(address userAddress, uint256 index)... */\n    tag_103:\n      sub(shl(0xa0, 0x01), 0x01)\n        /* \"BCStaking.sol\":14299:14317  users[userAddress] */\n      dup3\n      and\n        /* \"BCStaking.sol\":14159:14166  uint256 */\n      0x00\n        /* \"BCStaking.sol\":14299:14317  users[userAddress] */\n      swap1\n      dup2\n      mstore\n        /* \"BCStaking.sol\":14299:14304  users */\n      0x07\n        /* \"BCStaking.sol\":14299:14317  users[userAddress] */\n      0x20\n      mstore\n      0x40\n      dup2\n      keccak256\n        /* \"BCStaking.sol\":14352:14372  user.deposits[index] */\n      dup1\n      sload\n        /* \"BCStaking.sol\":14159:14166  uint256 */\n      dup3\n      swap2\n      dup3\n      swap2\n      dup3\n      swap2\n      dup3\n      swap2\n        /* \"BCStaking.sol\":14299:14317  users[userAddress] */\n      dup2\n      swap1\n        /* \"BCStaking.sol\":14366:14371  index */\n      dup9\n      swap1\n        /* \"BCStaking.sol\":14352:14372  user.deposits[index] */\n      dup2\n      lt\n      tag_393\n      jumpi\n      tag_393\n      tag_136\n      jump\t// in\n    tag_393:\n      swap1\n      0x00\n      mstore\n      keccak256(0x00, 0x20)\n      swap1\n      0x05\n      mul\n      add\n        /* \"BCStaking.sol\":14352:14379  user.deposits[index].amount */\n      0x00\n      add\n      sload\n        /* \"BCStaking.sol\":14394:14398  user */\n      dup2\n        /* \"BCStaking.sol\":14394:14407  user.deposits */\n      0x00\n      add\n        /* \"BCStaking.sol\":14408:14413  index */\n      dup9\n        /* \"BCStaking.sol\":14394:14414  user.deposits[index] */\n      dup2\n      sload\n      dup2\n      lt\n      tag_396\n      jumpi\n      tag_396\n      tag_136\n      jump\t// in\n    tag_396:\n      swap1\n      0x00\n      mstore\n      keccak256(0x00, 0x20)\n      swap1\n      0x05\n      mul\n      add\n        /* \"BCStaking.sol\":14394:14424  user.deposits[index].withdrawn */\n      0x01\n      add\n      sload\n        /* \"BCStaking.sol\":14439:14443  user */\n      dup3\n        /* \"BCStaking.sol\":14439:14452  user.deposits */\n      0x00\n      add\n        /* \"BCStaking.sol\":14453:14458  index */\n      dup10\n        /* \"BCStaking.sol\":14439:14459  user.deposits[index] */\n      dup2\n      sload\n      dup2\n      lt\n      tag_399\n      jumpi\n      tag_399\n      tag_136\n      jump\t// in\n    tag_399:\n      swap1\n      0x00\n      mstore\n      keccak256(0x00, 0x20)\n      swap1\n      0x05\n      mul\n      add\n        /* \"BCStaking.sol\":14439:14469  user.deposits[index].startTime */\n      0x02\n      add\n      sload\n        /* \"BCStaking.sol\":14484:14488  user */\n      dup4\n        /* \"BCStaking.sol\":14484:14497  user.deposits */\n      0x00\n      add\n        /* \"BCStaking.sol\":14498:14503  index */\n      dup11\n        /* \"BCStaking.sol\":14484:14504  user.deposits[index] */\n      dup2\n      sload\n      dup2\n      lt\n      tag_402\n      jumpi\n      tag_402\n      tag_136\n      jump\t// in\n    tag_402:\n      swap1\n      0x00\n      mstore\n      keccak256(0x00, 0x20)\n      swap1\n      0x05\n      mul\n      add\n        /* \"BCStaking.sol\":14484:14512  user.deposits[index].endTime */\n      0x03\n      add\n      sload\n        /* \"BCStaking.sol\":14527:14531  user */\n      dup5\n        /* \"BCStaking.sol\":14527:14540  user.deposits */\n      0x00\n      add\n        /* \"BCStaking.sol\":14541:14546  index */\n      dup12\n        /* \"BCStaking.sol\":14527:14547  user.deposits[index] */\n      dup2\n      sload\n      dup2\n      lt\n      tag_405\n      jumpi\n      tag_405\n      tag_136\n      jump\t// in\n    tag_405:\n      0x00\n      swap2\n      dup3\n      mstore\n      0x20\n      swap1\n      swap2\n      keccak256\n      0x05\n      swap1\n      swap2\n      mul\n      add\n        /* \"BCStaking.sol\":14527:14553  user.deposits[index].ended */\n      0x04\n      add\n      sload\n        /* \"BCStaking.sol\":14330:14564  return (... */\n      swap4\n      swap13\n      swap3\n      swap12\n      pop\n      swap1\n      swap10\n      pop\n      swap8\n      pop\n        /* \"BCStaking.sol\":14527:14553  user.deposits[index].ended */\n      0xff\n      swap1\n      swap2\n      and\n      swap6\n      pop\n        /* \"BCStaking.sol\":14033:14572  function getUserDepositInfo(address userAddress, uint256 index)... */\n      swap4\n      pop\n      pop\n      pop\n      pop\n      jump\t// out\n        /* \"@openzeppelin/contracts/access/Ownable.sol\":1918:2116  function transferOwnership(address newOwner) public virtual onlyOwner {... */\n    tag_123:\n        /* \"@openzeppelin/contracts/access/Ownable.sol\":1082:1089  address */\n      0x00\n        /* \"@openzeppelin/contracts/access/Ownable.sol\":1108:1114  _owner */\n      sload\n      sub(shl(0xa0, 0x01), 0x01)\n      and\n        /* \"@openzeppelin/contracts/utils/Context.sol\":719:729  msg.sender */\n      caller\n        /* \"@openzeppelin/contracts/access/Ownable.sol\":1248:1271  owner() == _msgSender() */\n      eq\n        /* \"@openzeppelin/contracts/access/Ownable.sol\":1240:1308  require(owner() == _msgSender(), \"Ownable: caller is not the owner\") */\n      tag_413\n      jumpi\n      mload(0x40)\n      shl(0xe5, 0x461bcd)\n      dup2\n      mstore\n      0x04\n      add\n      tag_215\n      swap1\n      tag_216\n      jump\t// in\n    tag_413:\n      sub(shl(0xa0, 0x01), 0x01)\n        /* \"@openzeppelin/contracts/access/Ownable.sol\":2006:2028  newOwner != address(0) */\n      dup2\n      and\n        /* \"@openzeppelin/contracts/access/Ownable.sol\":1998:2071  require(newOwner != address(0), \"Ownable: new owner is the zero address\") */\n      tag_416\n      jumpi\n      mload(0x40)\n      shl(0xe5, 0x461bcd)\n      dup2\n      mstore\n        /* \"#utility.yul\":5906:5908   */\n      0x20\n        /* \"@openzeppelin/contracts/access/Ownable.sol\":1998:2071  require(newOwner != address(0), \"Ownable: new owner is the zero address\") */\n      0x04\n      dup3\n      add\n        /* \"#utility.yul\":5888:5909   */\n      mstore\n        /* \"#utility.yul\":5945:5947   */\n      0x26\n        /* \"#utility.yul\":5925:5943   */\n      0x24\n      dup3\n      add\n        /* \"#utility.yul\":5918:5948   */\n      mstore\n        /* \"#utility.yul\":5984:6018   */\n      0x4f776e61626c653a206e6577206f776e657220697320746865207a65726f2061\n        /* \"#utility.yul\":5964:5982   */\n      0x44\n      dup3\n      add\n        /* \"#utility.yul\":5957:6019   */\n      mstore\n      shl(0xd0, 0x646472657373)\n        /* \"#utility.yul\":6035:6053   */\n      0x64\n      dup3\n      add\n        /* \"#utility.yul\":6028:6064   */\n      mstore\n        /* \"#utility.yul\":6081:6100   */\n      0x84\n      add\n        /* \"@openzeppelin/contracts/access/Ownable.sol\":1998:2071  require(newOwner != address(0), \"Ownable: new owner is the zero address\") */\n      tag_215\n        /* \"#utility.yul\":5704:6106   */\n      jump\n        /* \"@openzeppelin/contracts/access/Ownable.sol\":1998:2071  require(newOwner != address(0), \"Ownable: new owner is the zero address\") */\n    tag_416:\n        /* \"@openzeppelin/contracts/access/Ownable.sol\":2081:2109  _transferOwnership(newOwner) */\n      tag_419\n        /* \"@openzeppelin/contracts/access/Ownable.sol\":2100:2108  newOwner */\n      dup2\n        /* \"@openzeppelin/contracts/access/Ownable.sol\":2081:2099  _transferOwnership */\n      tag_330\n        /* \"@openzeppelin/contracts/access/Ownable.sol\":2081:2109  _transferOwnership(newOwner) */\n      jump\t// in\n    tag_419:\n        /* \"@openzeppelin/contracts/access/Ownable.sol\":1918:2116  function transferOwnership(address newOwner) public virtual onlyOwner {... */\n      pop\n      jump\t// out\n        /* \"BCStaking.sol\":7397:10639  function compound() public onlyhodler {... */\n    tag_125:\n        /* \"BCStaking.sol\":1247:1248  0 */\n      0x00\n        /* \"BCStaking.sol\":1216:1244  getUserDividends(msg.sender) */\n      tag_421\n        /* \"BCStaking.sol\":1233:1243  msg.sender */\n      caller\n        /* \"BCStaking.sol\":1216:1232  getUserDividends */\n      tag_46\n        /* \"BCStaking.sol\":1216:1244  getUserDividends(msg.sender) */\n      jump\t// in\n    tag_421:\n        /* \"BCStaking.sol\":1216:1248  getUserDividends(msg.sender) > 0 */\n      gt\n        /* \"BCStaking.sol\":1208:1263  require(getUserDividends(msg.sender) > 0, \"Not Holder\") */\n      tag_422\n      jumpi\n      mload(0x40)\n      shl(0xe5, 0x461bcd)\n      dup2\n      mstore\n        /* \"#utility.yul\":6313:6315   */\n      0x20\n        /* \"BCStaking.sol\":1208:1263  require(getUserDividends(msg.sender) > 0, \"Not Holder\") */\n      0x04\n      dup3\n      add\n        /* \"#utility.yul\":6295:6316   */\n      mstore\n        /* \"#utility.yul\":6352:6354   */\n      0x0a\n        /* \"#utility.yul\":6332:6350   */\n      0x24\n      dup3\n      add\n        /* \"#utility.yul\":6325:6355   */\n      mstore\n      shl(0xb1, 0x2737ba102437b63232b9)\n        /* \"#utility.yul\":6371:6389   */\n      0x44\n      dup3\n      add\n        /* \"#utility.yul\":6364:6404   */\n      mstore\n        /* \"#utility.yul\":6421:6439   */\n      0x64\n      add\n        /* \"BCStaking.sol\":1208:1263  require(getUserDividends(msg.sender) > 0, \"Not Holder\") */\n      tag_215\n        /* \"#utility.yul\":6111:6445   */\n      jump\n        /* \"BCStaking.sol\":1208:1263  require(getUserDividends(msg.sender) > 0, \"Not Holder\") */\n    tag_422:\n        /* \"BCStaking.sol\":7472:7482  msg.sender */\n      caller\n        /* \"BCStaking.sol\":7446:7463  User storage user */\n      0x00\n        /* \"BCStaking.sol\":7466:7483  users[msg.sender] */\n      dup2\n      dup2\n      mstore\n        /* \"BCStaking.sol\":7466:7471  users */\n      0x07\n        /* \"BCStaking.sol\":7466:7483  users[msg.sender] */\n      0x20\n      mstore\n      0x40\n      dup2\n      keccak256\n      swap2\n        /* \"BCStaking.sol\":7543:7571  getUserDividends(msg.sender) */\n      tag_426\n      swap1\n        /* \"BCStaking.sol\":7543:7559  getUserDividends */\n      tag_46\n        /* \"BCStaking.sol\":7543:7571  getUserDividends(msg.sender) */\n      jump\t// in\n    tag_426:\n        /* \"BCStaking.sol\":7522:7571  uint256 _dividends = getUserDividends(msg.sender) */\n      swap1\n      pop\n        /* \"BCStaking.sol\":7623:7642  uint256 totalAmount */\n      0x00\n        /* \"BCStaking.sol\":7653:7670  uint256 dividends */\n      dup1\n        /* \"BCStaking.sol\":7683:7687  user */\n      dup4\n        /* \"BCStaking.sol\":7683:7696  user.deposits */\n      0x00\n      add\n        /* \"BCStaking.sol\":7716:7896  Deposit(... */\n      mload(0x40)\n      dup1\n      0xa0\n      add\n      0x40\n      mstore\n      dup1\n        /* \"BCStaking.sol\":7742:7752  _dividends */\n      dup6\n        /* \"BCStaking.sol\":7716:7896  Deposit(... */\n      dup2\n      mstore\n      0x20\n      add\n        /* \"BCStaking.sol\":7771:7772  0 */\n      0x00\n        /* \"BCStaking.sol\":7716:7896  Deposit(... */\n      dup2\n      mstore\n      0x20\n      add\n        /* \"BCStaking.sol\":7791:7806  block.timestamp */\n      timestamp\n        /* \"BCStaking.sol\":7716:7896  Deposit(... */\n      dup2\n      mstore\n      0x20\n      add\n        /* \"BCStaking.sol\":569:577  180 days */\n      0xed4e00\n        /* \"BCStaking.sol\":7825:7840  block.timestamp */\n      timestamp\n        /* \"BCStaking.sol\":7825:7857  block.timestamp + STAKING_PERIOD */\n      tag_427\n      swap2\n      swap1\n      tag_383\n      jump\t// in\n    tag_427:\n        /* \"BCStaking.sol\":7716:7896  Deposit(... */\n      dup2\n      mstore\n        /* \"BCStaking.sol\":7876:7881  false */\n      0x00\n        /* \"BCStaking.sol\":7716:7896  Deposit(... */\n      0x20\n      swap2\n      dup3\n      add\n      dup2\n      swap1\n      mstore\n        /* \"BCStaking.sol\":7683:7907  user.deposits.push(... */\n      dup4\n      sload\n        /* \"BCStaking.sol\":7716:7896  Deposit(... */\n      0x01\n        /* \"BCStaking.sol\":7683:7907  user.deposits.push(... */\n      dup1\n      dup3\n      add\n      dup7\n      sstore\n      swap5\n      dup3\n      mstore\n      dup3\n      dup3\n      keccak256\n      dup5\n      mload\n      0x05\n      swap1\n      swap3\n      mul\n      add\n      swap1\n      dup2\n      sstore\n      swap2\n      dup4\n      add\n      mload\n      swap4\n      dup3\n      add\n      swap4\n      swap1\n      swap4\n      sstore\n      0x40\n      dup3\n      add\n      mload\n      0x02\n      dup3\n      add\n      sstore\n      0x60\n      dup3\n      add\n      mload\n      0x03\n      dup3\n      add\n      sstore\n      0x80\n      swap1\n      swap2\n      add\n      mload\n      0x04\n      swap1\n      swap2\n      add\n      dup1\n      sload\n      not(0xff)\n      and\n      swap2\n      iszero\n      iszero\n      swap2\n      swap1\n      swap2\n      or\n      swap1\n      sstore\n        /* \"BCStaking.sol\":7920:10341  for (uint256 i = 0; i < user.deposits.length; i++) {... */\n    tag_429:\n        /* \"BCStaking.sol\":7944:7964  user.deposits.length */\n      dup5\n      sload\n        /* \"BCStaking.sol\":7940:7964  i < user.deposits.length */\n      dup2\n      lt\n        /* \"BCStaking.sol\":7920:10341  for (uint256 i = 0; i < user.deposits.length; i++) {... */\n      iszero\n      tag_430\n      jumpi\n        /* \"BCStaking.sol\":7990:7994  user */\n      dup5\n        /* \"BCStaking.sol\":7990:8003  user.deposits */\n      0x00\n      add\n        /* \"BCStaking.sol\":8004:8005  i */\n      dup2\n        /* \"BCStaking.sol\":7990:8006  user.deposits[i] */\n      dup2\n      sload\n      dup2\n      lt\n      tag_433\n      jumpi\n      tag_433\n      tag_136\n      jump\t// in\n    tag_433:\n      0x00\n      swap2\n      dup3\n      mstore\n      0x20\n      swap1\n      swap2\n      keccak256\n        /* \"BCStaking.sol\":7990:8012  user.deposits[i].ended */\n      0x04\n        /* \"BCStaking.sol\":7990:8006  user.deposits[i] */\n      0x05\n      swap1\n      swap3\n      mul\n      add\n        /* \"BCStaking.sol\":7990:8012  user.deposits[i].ended */\n      add\n      sload\n      0xff\n      and\n        /* \"BCStaking.sol\":7986:10330  if (user.deposits[i].ended == false) {... */\n      tag_435\n      jumpi\n        /* \"BCStaking.sol\":8073:8088  block.timestamp */\n      timestamp\n        /* \"BCStaking.sol\":8046:8050  user */\n      dup6\n        /* \"BCStaking.sol\":8046:8059  user.deposits */\n      0x00\n      add\n        /* \"BCStaking.sol\":8060:8061  i */\n      dup3\n        /* \"BCStaking.sol\":8046:8062  user.deposits[i] */\n      dup2\n      sload\n      dup2\n      lt\n      tag_437\n      jumpi\n      tag_437\n      tag_136\n      jump\t// in\n    tag_437:\n      swap1\n      0x00\n      mstore\n      keccak256(0x00, 0x20)\n      swap1\n      0x05\n      mul\n      add\n        /* \"BCStaking.sol\":8046:8070  user.deposits[i].endTime */\n      0x03\n      add\n      sload\n        /* \"BCStaking.sol\":8046:8088  user.deposits[i].endTime > block.timestamp */\n      gt\n        /* \"BCStaking.sol\":8042:10096  if (user.deposits[i].endTime > block.timestamp) {... */\n      iszero\n      tag_439\n      jumpi\n        /* \"BCStaking.sol\":8146:8150  user */\n      dup5\n        /* \"BCStaking.sol\":8146:8161  user.checkpoint */\n      0x01\n      add\n      sload\n        /* \"BCStaking.sol\":8117:8121  user */\n      dup6\n        /* \"BCStaking.sol\":8117:8130  user.deposits */\n      0x00\n      add\n        /* \"BCStaking.sol\":8131:8132  i */\n      dup3\n        /* \"BCStaking.sol\":8117:8133  user.deposits[i] */\n      dup2\n      sload\n      dup2\n      lt\n      tag_441\n      jumpi\n      tag_441\n      tag_136\n      jump\t// in\n    tag_441:\n      swap1\n      0x00\n      mstore\n      keccak256(0x00, 0x20)\n      swap1\n      0x05\n      mul\n      add\n        /* \"BCStaking.sol\":8117:8143  user.deposits[i].startTime */\n      0x02\n      add\n      sload\n        /* \"BCStaking.sol\":8117:8161  user.deposits[i].startTime > user.checkpoint */\n      gt\n        /* \"BCStaking.sol\":8113:8972  if (user.deposits[i].startTime > user.checkpoint) {... */\n      iszero\n      tag_443\n      jumpi\n        /* \"BCStaking.sol\":8202:8576  (... */\n      tag_444\n        /* \"BCStaking.sol\":511:521  10 minutes */\n      0x0258\n        /* \"BCStaking.sol\":8202:8531  (... */\n      tag_155\n        /* \"BCStaking.sol\":8453:8500  block.timestamp.sub(user.deposits[i].startTime) */\n      tag_446\n        /* \"BCStaking.sol\":8473:8477  user */\n      dup9\n        /* \"BCStaking.sol\":8473:8486  user.deposits */\n      0x00\n      add\n        /* \"BCStaking.sol\":8487:8488  i */\n      dup6\n        /* \"BCStaking.sol\":8473:8489  user.deposits[i] */\n      dup2\n      sload\n      dup2\n      lt\n      tag_151\n      jumpi\n      tag_151\n      tag_136\n      jump\t// in\n        /* \"BCStaking.sol\":8453:8500  block.timestamp.sub(user.deposits[i].startTime) */\n    tag_446:\n        /* \"BCStaking.sol\":8233:8357  user.deposits[i].amount.mul(DAILY_ROI).div(... */\n      tag_154\n        /* \"BCStaking.sol\":365:369  1000 */\n      0x03e8\n        /* \"BCStaking.sol\":8233:8271  user.deposits[i].amount.mul(DAILY_ROI) */\n      tag_155\n        /* \"BCStaking.sol\":412:414  15 */\n      0x0f\n        /* \"BCStaking.sol\":8233:8237  user */\n      dup13\n        /* \"BCStaking.sol\":8233:8246  user.deposits */\n      0x00\n      add\n        /* \"BCStaking.sol\":8247:8248  i */\n      dup10\n        /* \"BCStaking.sol\":8233:8249  user.deposits[i] */\n      dup2\n      sload\n      dup2\n      lt\n      tag_157\n      jumpi\n      tag_157\n      tag_136\n      jump\t// in\n        /* \"BCStaking.sol\":8202:8576  (... */\n    tag_444:\n        /* \"BCStaking.sol\":8190:8576  dividends = (... */\n      swap2\n      pop\n        /* \"BCStaking.sol\":8042:10096  if (user.deposits[i].endTime > block.timestamp) {... */\n      jump(tag_486)\n        /* \"BCStaking.sol\":8113:8972  if (user.deposits[i].startTime > user.checkpoint) {... */\n    tag_443:\n        /* \"BCStaking.sol\":8645:8948  (... */\n      tag_444\n        /* \"BCStaking.sol\":511:521  10 minutes */\n      0x0258\n        /* \"BCStaking.sol\":8645:8869  (... */\n      tag_155\n        /* \"BCStaking.sol\":8832:8868  block.timestamp.sub(user.checkpoint) */\n      tag_446\n        /* \"BCStaking.sol\":8852:8856  user */\n      dup9\n        /* \"BCStaking.sol\":8852:8867  user.checkpoint */\n      0x01\n      add\n      sload\n        /* \"BCStaking.sol\":8832:8847  block.timestamp */\n      timestamp\n        /* \"BCStaking.sol\":8832:8851  block.timestamp.sub */\n      tag_153\n      swap1\n        /* \"BCStaking.sol\":8832:8868  block.timestamp.sub(user.checkpoint) */\n      swap2\n      swap1\n      0xffffffff\n      and\n      jump\t// in\n        /* \"BCStaking.sol\":8042:10096  if (user.deposits[i].endTime > block.timestamp) {... */\n    tag_439:\n        /* \"BCStaking.sol\":9053:9057  user */\n      dup5\n        /* \"BCStaking.sol\":9053:9068  user.checkpoint */\n      0x01\n      add\n      sload\n        /* \"BCStaking.sol\":9024:9028  user */\n      dup6\n        /* \"BCStaking.sol\":9024:9037  user.deposits */\n      0x00\n      add\n        /* \"BCStaking.sol\":9038:9039  i */\n      dup3\n        /* \"BCStaking.sol\":9024:9040  user.deposits[i] */\n      dup2\n      sload\n      dup2\n      lt\n      tag_466\n      jumpi\n      tag_466\n      tag_136\n      jump\t// in\n    tag_466:\n      swap1\n      0x00\n      mstore\n      keccak256(0x00, 0x20)\n      swap1\n      0x05\n      mul\n      add\n        /* \"BCStaking.sol\":9024:9050  user.deposits[i].startTime */\n      0x02\n      add\n      sload\n        /* \"BCStaking.sol\":9024:9068  user.deposits[i].startTime > user.checkpoint */\n      gt\n        /* \"BCStaking.sol\":9020:10077  if (user.deposits[i].startTime > user.checkpoint) {... */\n      iszero\n      tag_468\n      jumpi\n        /* \"BCStaking.sol\":9109:9564  (... */\n      tag_469\n        /* \"BCStaking.sol\":511:521  10 minutes */\n      0x0258\n        /* \"BCStaking.sol\":9109:9519  (... */\n      tag_155\n        /* \"BCStaking.sol\":9360:9488  user.deposits[i].endTime.sub(... */\n      tag_446\n        /* \"BCStaking.sol\":9427:9431  user */\n      dup9\n        /* \"BCStaking.sol\":9427:9440  user.deposits */\n      0x00\n      add\n        /* \"BCStaking.sol\":9441:9442  i */\n      dup6\n        /* \"BCStaking.sol\":9427:9443  user.deposits[i] */\n      dup2\n      sload\n      dup2\n      lt\n      tag_473\n      jumpi\n      tag_473\n      tag_136\n      jump\t// in\n    tag_473:\n      swap1\n      0x00\n      mstore\n      keccak256(0x00, 0x20)\n      swap1\n      0x05\n      mul\n      add\n        /* \"BCStaking.sol\":9427:9453  user.deposits[i].startTime */\n      0x02\n      add\n      sload\n        /* \"BCStaking.sol\":9360:9364  user */\n      dup10\n        /* \"BCStaking.sol\":9360:9373  user.deposits */\n      0x00\n      add\n        /* \"BCStaking.sol\":9374:9375  i */\n      dup7\n        /* \"BCStaking.sol\":9360:9376  user.deposits[i] */\n      dup2\n      sload\n      dup2\n      lt\n      tag_182\n      jumpi\n      tag_182\n      tag_136\n      jump\t// in\n        /* \"BCStaking.sol\":9109:9564  (... */\n    tag_469:\n        /* \"BCStaking.sol\":9097:9564  dividends = (... */\n      swap2\n      pop\n        /* \"BCStaking.sol\":9616:9620  true */\n      0x01\n        /* \"BCStaking.sol\":9591:9595  user */\n      dup6\n        /* \"BCStaking.sol\":9591:9604  user.deposits */\n      0x00\n      add\n        /* \"BCStaking.sol\":9605:9606  i */\n      dup3\n        /* \"BCStaking.sol\":9591:9607  user.deposits[i] */\n      dup2\n      sload\n      dup2\n      lt\n      tag_484\n      jumpi\n      tag_484\n      tag_136\n      jump\t// in\n    tag_484:\n      0x00\n      swap2\n      dup3\n      mstore\n      0x20\n      swap1\n      swap2\n      keccak256\n      0x05\n      swap1\n      swap2\n      mul\n      add\n        /* \"BCStaking.sol\":9591:9613  user.deposits[i].ended */\n      0x04\n      add\n        /* \"BCStaking.sol\":9591:9620  user.deposits[i].ended = true */\n      dup1\n      sload\n      not(0xff)\n      and\n      swap2\n      iszero\n      iszero\n      swap2\n      swap1\n      swap2\n      or\n      swap1\n      sstore\n        /* \"BCStaking.sol\":9020:10077  if (user.deposits[i].startTime > user.checkpoint) {... */\n      jump(tag_486)\n    tag_468:\n        /* \"BCStaking.sol\":9689:9997  (... */\n      tag_487\n        /* \"BCStaking.sol\":511:521  10 minutes */\n      0x0258\n        /* \"BCStaking.sol\":9689:9952  (... */\n      tag_155\n        /* \"BCStaking.sol\":9906:9951  user.deposits[i].endTime.sub(user.checkpoint) */\n      tag_446\n        /* \"BCStaking.sol\":9935:9939  user */\n      dup9\n        /* \"BCStaking.sol\":9935:9950  user.checkpoint */\n      0x01\n      add\n      sload\n        /* \"BCStaking.sol\":9906:9910  user */\n      dup10\n        /* \"BCStaking.sol\":9906:9919  user.deposits */\n      0x00\n      add\n        /* \"BCStaking.sol\":9920:9921  i */\n      dup7\n        /* \"BCStaking.sol\":9906:9922  user.deposits[i] */\n      dup2\n      sload\n      dup2\n      lt\n      tag_182\n      jumpi\n      tag_182\n      tag_136\n      jump\t// in\n        /* \"BCStaking.sol\":9689:9997  (... */\n    tag_487:\n        /* \"BCStaking.sol\":9677:9997  dividends = (... */\n      swap2\n      pop\n        /* \"BCStaking.sol\":10049:10053  true */\n      0x01\n        /* \"BCStaking.sol\":10024:10028  user */\n      dup6\n        /* \"BCStaking.sol\":10024:10037  user.deposits */\n      0x00\n      add\n        /* \"BCStaking.sol\":10038:10039  i */\n      dup3\n        /* \"BCStaking.sol\":10024:10040  user.deposits[i] */\n      dup2\n      sload\n      dup2\n      lt\n      tag_499\n      jumpi\n      tag_499\n      tag_136\n      jump\t// in\n    tag_499:\n      0x00\n      swap2\n      dup3\n      mstore\n      0x20\n      swap1\n      swap2\n      keccak256\n      0x05\n      swap1\n      swap2\n      mul\n      add\n        /* \"BCStaking.sol\":10024:10046  user.deposits[i].ended */\n      0x04\n      add\n        /* \"BCStaking.sol\":10024:10053  user.deposits[i].ended = true */\n      dup1\n      sload\n      not(0xff)\n      and\n      swap2\n      iszero\n      iszero\n      swap2\n      swap1\n      swap2\n      or\n      swap1\n      sstore\n        /* \"BCStaking.sol\":9020:10077  if (user.deposits[i].startTime > user.checkpoint) {... */\n    tag_486:\n        /* \"BCStaking.sol\":10145:10226  user.deposits[i].withdrawn.add(... */\n      tag_501\n        /* \"BCStaking.sol\":10198:10207  dividends */\n      dup3\n        /* \"BCStaking.sol\":10145:10149  user */\n      dup7\n        /* \"BCStaking.sol\":10145:10158  user.deposits */\n      0x00\n      add\n        /* \"BCStaking.sol\":10159:10160  i */\n      dup4\n        /* \"BCStaking.sol\":10145:10161  user.deposits[i] */\n      dup2\n      sload\n      dup2\n      lt\n      tag_293\n      jumpi\n      tag_293\n      tag_136\n      jump\t// in\n        /* \"BCStaking.sol\":10145:10226  user.deposits[i].withdrawn.add(... */\n    tag_501:\n        /* \"BCStaking.sol\":10116:10120  user */\n      dup6\n        /* \"BCStaking.sol\":10116:10129  user.deposits */\n      0x00\n      add\n        /* \"BCStaking.sol\":10130:10131  i */\n      dup3\n        /* \"BCStaking.sol\":10116:10132  user.deposits[i] */\n      dup2\n      sload\n      dup2\n      lt\n      tag_506\n      jumpi\n      tag_506\n      tag_136\n      jump\t// in\n    tag_506:\n      0x00\n      swap2\n      dup3\n      mstore\n      0x20\n      swap1\n      swap2\n      keccak256\n        /* \"BCStaking.sol\":10116:10142  user.deposits[i].withdrawn */\n      0x01\n        /* \"BCStaking.sol\":10116:10132  user.deposits[i] */\n      0x05\n      swap1\n      swap3\n      mul\n      add\n        /* \"BCStaking.sol\":10116:10142  user.deposits[i].withdrawn */\n      add\n        /* \"BCStaking.sol\":10116:10226  user.deposits[i].withdrawn = user.deposits[i].withdrawn.add(... */\n      sstore\n        /* \"BCStaking.sol\":10288:10314  totalAmount.add(dividends) */\n      tag_508\n        /* \"BCStaking.sol\":10288:10299  totalAmount */\n      dup4\n        /* \"BCStaking.sol\":10304:10313  dividends */\n      dup4\n        /* \"BCStaking.sol\":10288:10303  totalAmount.add */\n      tag_202\n        /* \"BCStaking.sol\":10288:10314  totalAmount.add(dividends) */\n      jump\t// in\n    tag_508:\n        /* \"BCStaking.sol\":10274:10314  totalAmount = totalAmount.add(dividends) */\n      swap3\n      pop\n        /* \"BCStaking.sol\":7986:10330  if (user.deposits[i].ended == false) {... */\n    tag_435:\n        /* \"BCStaking.sol\":7966:7969  i++ */\n      dup1\n      tag_509\n      dup2\n      tag_204\n      jump\t// in\n    tag_509:\n      swap2\n      pop\n      pop\n        /* \"BCStaking.sol\":7920:10341  for (uint256 i = 0; i < user.deposits.length; i++) {... */\n      jump(tag_429)\n    tag_430:\n      pop\n        /* \"BCStaking.sol\":10371:10386  block.timestamp */\n      timestamp\n        /* \"BCStaking.sol\":10353:10368  user.checkpoint */\n      0x01\n      dup6\n      add\n        /* \"BCStaking.sol\":10353:10386  user.checkpoint = block.timestamp */\n      sstore\n        /* \"BCStaking.sol\":10413:10424  totalStaked */\n      sload(0x03)\n        /* \"BCStaking.sol\":10413:10440  totalStaked.add(_dividends) */\n      tag_510\n      swap1\n        /* \"BCStaking.sol\":10429:10439  _dividends */\n      dup5\n        /* \"BCStaking.sol\":10413:10428  totalStaked.add */\n      tag_202\n        /* \"BCStaking.sol\":10413:10440  totalStaked.add(_dividends) */\n      jump\t// in\n    tag_510:\n        /* \"BCStaking.sol\":10399:10410  totalStaked */\n      0x03\n        /* \"BCStaking.sol\":10399:10440  totalStaked = totalStaked.add(_dividends) */\n      sstore\n        /* \"BCStaking.sol\":10471:10488  totalDepositCount */\n      sload(0x05)\n        /* \"BCStaking.sol\":10471:10495  totalDepositCount.add(1) */\n      tag_511\n      swap1\n        /* \"BCStaking.sol\":10493:10494  1 */\n      0x01\n        /* \"BCStaking.sol\":10471:10492  totalDepositCount.add */\n      tag_202\n        /* \"BCStaking.sol\":10471:10495  totalDepositCount.add(1) */\n      jump\t// in\n    tag_511:\n        /* \"BCStaking.sol\":10451:10468  totalDepositCount */\n      0x05\n        /* \"BCStaking.sol\":10451:10495  totalDepositCount = totalDepositCount.add(1) */\n      sstore\n        /* \"BCStaking.sol\":10523:10537  totalWithdrawn */\n      sload(0x04)\n        /* \"BCStaking.sol\":10523:10554  totalWithdrawn.add(totalAmount) */\n      tag_512\n      swap1\n        /* \"BCStaking.sol\":10542:10553  totalAmount */\n      dup4\n        /* \"BCStaking.sol\":10523:10541  totalWithdrawn.add */\n      tag_202\n        /* \"BCStaking.sol\":10523:10554  totalWithdrawn.add(totalAmount) */\n      jump\t// in\n    tag_512:\n        /* \"BCStaking.sol\":10506:10520  totalWithdrawn */\n      0x04\n        /* \"BCStaking.sol\":10506:10554  totalWithdrawn = totalWithdrawn.add(totalAmount) */\n      sstore\n        /* \"BCStaking.sol\":10593:10631  onReinvestment(msg.sender, _dividends) */\n      mload(0x40)\n        /* \"#utility.yul\":160:185   */\n      dup4\n      dup2\n      mstore\n        /* \"BCStaking.sol\":10608:10618  msg.sender */\n      caller\n      swap1\n        /* \"BCStaking.sol\":10593:10631  onReinvestment(msg.sender, _dividends) */\n      0x5d511c2070e5a2dbcc6fbfbb3fd6704a11ab5fa74b793b81aacece2c7cc29405\n      swap1\n        /* \"#utility.yul\":148:150   */\n      0x20\n        /* \"#utility.yul\":133:151   */\n      add\n        /* \"BCStaking.sol\":10593:10631  onReinvestment(msg.sender, _dividends) */\n      mload(0x40)\n      dup1\n      swap2\n      sub\n      swap1\n      log2\n        /* \"BCStaking.sol\":7435:10639  {... */\n      pop\n      pop\n      pop\n      pop\n        /* \"BCStaking.sol\":7397:10639  function compound() public onlyhodler {... */\n      jump\t// out\n        /* \"BCStaking.sol\":15200:15561  function getUserTotalWithdrawn(address userAddress)... */\n    tag_128:\n      sub(shl(0xa0, 0x01), 0x01)\n        /* \"BCStaking.sol\":15345:15363  users[userAddress] */\n      dup2\n      and\n        /* \"BCStaking.sol\":15300:15307  uint256 */\n      0x00\n        /* \"BCStaking.sol\":15345:15363  users[userAddress] */\n      swap1\n      dup2\n      mstore\n        /* \"BCStaking.sol\":15345:15350  users */\n      0x07\n        /* \"BCStaking.sol\":15345:15363  users[userAddress] */\n      0x20\n      mstore\n      0x40\n      dup2\n      keccak256\n        /* \"BCStaking.sol\":15300:15307  uint256 */\n      dup2\n      dup1\n        /* \"BCStaking.sol\":15403:15528  for (uint256 i = 0; i < user.deposits.length; i++) {... */\n    tag_515:\n        /* \"BCStaking.sol\":15427:15447  user.deposits.length */\n      dup3\n      sload\n        /* \"BCStaking.sol\":15423:15447  i < user.deposits.length */\n      dup2\n      lt\n        /* \"BCStaking.sol\":15403:15528  for (uint256 i = 0; i < user.deposits.length; i++) {... */\n      iszero\n      tag_333\n      jumpi\n        /* \"BCStaking.sol\":15478:15516  amount.add(user.deposits[i].withdrawn) */\n      tag_518\n        /* \"BCStaking.sol\":15489:15493  user */\n      dup4\n        /* \"BCStaking.sol\":15489:15502  user.deposits */\n      0x00\n      add\n        /* \"BCStaking.sol\":15503:15504  i */\n      dup3\n        /* \"BCStaking.sol\":15489:15505  user.deposits[i] */\n      dup2\n      sload\n      dup2\n      lt\n      tag_520\n      jumpi\n      tag_520\n      tag_136\n      jump\t// in\n    tag_520:\n      swap1\n      0x00\n      mstore\n      keccak256(0x00, 0x20)\n      swap1\n      0x05\n      mul\n      add\n        /* \"BCStaking.sol\":15489:15515  user.deposits[i].withdrawn */\n      0x01\n      add\n      sload\n        /* \"BCStaking.sol\":15478:15484  amount */\n      dup4\n        /* \"BCStaking.sol\":15478:15488  amount.add */\n      tag_202\n      swap1\n        /* \"BCStaking.sol\":15478:15516  amount.add(user.deposits[i].withdrawn) */\n      swap2\n      swap1\n      0xffffffff\n      and\n      jump\t// in\n    tag_518:\n        /* \"BCStaking.sol\":15469:15516  amount = amount.add(user.deposits[i].withdrawn) */\n      swap2\n      pop\n        /* \"BCStaking.sol\":15449:15452  i++ */\n      dup1\n      tag_522\n      dup2\n      tag_204\n      jump\t// in\n    tag_522:\n      swap2\n      pop\n      pop\n        /* \"BCStaking.sol\":15403:15528  for (uint256 i = 0; i < user.deposits.length; i++) {... */\n      jump(tag_515)\n        /* \"@openzeppelin/contracts/utils/math/SafeMath.sol\":3122:3218  function sub(uint256 a, uint256 b) internal pure returns (uint256) {... */\n    tag_153:\n        /* \"@openzeppelin/contracts/utils/math/SafeMath.sol\":3180:3187  uint256 */\n      0x00\n        /* \"@openzeppelin/contracts/utils/math/SafeMath.sol\":3206:3211  a - b */\n      tag_524\n        /* \"@openzeppelin/contracts/utils/math/SafeMath.sol\":3210:3211  b */\n      dup3\n        /* \"@openzeppelin/contracts/utils/math/SafeMath.sol\":3206:3207  a */\n      dup5\n        /* \"@openzeppelin/contracts/utils/math/SafeMath.sol\":3206:3211  a - b */\n      tag_525\n      jump\t// in\n    tag_524:\n        /* \"@openzeppelin/contracts/utils/math/SafeMath.sol\":3199:3211  return a - b */\n      swap4\n        /* \"@openzeppelin/contracts/utils/math/SafeMath.sol\":3122:3218  function sub(uint256 a, uint256 b) internal pure returns (uint256) {... */\n      swap3\n      pop\n      pop\n      pop\n      jump\t// out\n        /* \"@openzeppelin/contracts/utils/math/SafeMath.sol\":3465:3561  function mul(uint256 a, uint256 b) internal pure returns (uint256) {... */\n    tag_159:\n        /* \"@openzeppelin/contracts/utils/math/SafeMath.sol\":3523:3530  uint256 */\n      0x00\n        /* \"@openzeppelin/contracts/utils/math/SafeMath.sol\":3549:3554  a * b */\n      tag_524\n        /* \"@openzeppelin/contracts/utils/math/SafeMath.sol\":3553:3554  b */\n      dup3\n        /* \"@openzeppelin/contracts/utils/math/SafeMath.sol\":3549:3550  a */\n      dup5\n        /* \"@openzeppelin/contracts/utils/math/SafeMath.sol\":3549:3554  a * b */\n      tag_528\n      jump\t// in\n        /* \"@openzeppelin/contracts/utils/math/SafeMath.sol\":3850:3946  function div(uint256 a, uint256 b) internal pure returns (uint256) {... */\n    tag_160:\n        /* \"@openzeppelin/contracts/utils/math/SafeMath.sol\":3908:3915  uint256 */\n      0x00\n        /* \"@openzeppelin/contracts/utils/math/SafeMath.sol\":3934:3939  a / b */\n      tag_524\n        /* \"@openzeppelin/contracts/utils/math/SafeMath.sol\":3938:3939  b */\n      dup3\n        /* \"@openzeppelin/contracts/utils/math/SafeMath.sol\":3934:3935  a */\n      dup5\n        /* \"@openzeppelin/contracts/utils/math/SafeMath.sol\":3934:3939  a / b */\n      tag_531\n      jump\t// in\n        /* \"@openzeppelin/contracts/utils/math/SafeMath.sol\":2755:2851  function add(uint256 a, uint256 b) internal pure returns (uint256) {... */\n    tag_202:\n        /* \"@openzeppelin/contracts/utils/math/SafeMath.sol\":2813:2820  uint256 */\n      0x00\n        /* \"@openzeppelin/contracts/utils/math/SafeMath.sol\":2839:2844  a + b */\n      tag_524\n        /* \"@openzeppelin/contracts/utils/math/SafeMath.sol\":2843:2844  b */\n      dup3\n        /* \"@openzeppelin/contracts/utils/math/SafeMath.sol\":2839:2840  a */\n      dup5\n        /* \"@openzeppelin/contracts/utils/math/SafeMath.sol\":2839:2844  a + b */\n      tag_383\n      jump\t// in\n        /* \"@openzeppelin/contracts/access/Ownable.sol\":2270:2457  function _transferOwnership(address newOwner) internal virtual {... */\n    tag_330:\n        /* \"@openzeppelin/contracts/access/Ownable.sol\":2343:2359  address oldOwner */\n      0x00\n        /* \"@openzeppelin/contracts/access/Ownable.sol\":2362:2368  _owner */\n      dup1\n      sload\n      sub(shl(0xa0, 0x01), 0x01)\n        /* \"@openzeppelin/contracts/access/Ownable.sol\":2378:2395  _owner = newOwner */\n      dup4\n      dup2\n      and\n      not(sub(shl(0xa0, 0x01), 0x01))\n      dup4\n      and\n      dup2\n      or\n      dup5\n      sstore\n        /* \"@openzeppelin/contracts/access/Ownable.sol\":2410:2450  OwnershipTransferred(oldOwner, newOwner) */\n      mload(0x40)\n        /* \"@openzeppelin/contracts/access/Ownable.sol\":2362:2368  _owner */\n      swap2\n      swap1\n      swap3\n      and\n      swap3\n      dup4\n      swap2\n        /* \"@openzeppelin/contracts/access/Ownable.sol\":2410:2450  OwnershipTransferred(oldOwner, newOwner) */\n      0x8be0079c531659141344cd1fd0a4f28419497f9722a3daafe3b4186f6b6457e0\n      swap2\n        /* \"@openzeppelin/contracts/access/Ownable.sol\":2343:2359  address oldOwner */\n      swap1\n        /* \"@openzeppelin/contracts/access/Ownable.sol\":2410:2450  OwnershipTransferred(oldOwner, newOwner) */\n      log3\n        /* \"@openzeppelin/contracts/access/Ownable.sol\":2333:2457  {... */\n      pop\n        /* \"@openzeppelin/contracts/access/Ownable.sol\":2270:2457  function _transferOwnership(address newOwner) internal virtual {... */\n      pop\n      jump\t// out\n        /* \"#utility.yul\":196:369   */\n    tag_536:\n        /* \"#utility.yul\":264:284   */\n      dup1\n      calldataload\n      sub(shl(0xa0, 0x01), 0x01)\n        /* \"#utility.yul\":313:344   */\n      dup2\n      and\n        /* \"#utility.yul\":303:345   */\n      dup2\n      eq\n        /* \"#utility.yul\":293:363   */\n      tag_541\n      jumpi\n        /* \"#utility.yul\":359:360   */\n      0x00\n        /* \"#utility.yul\":356:357   */\n      dup1\n        /* \"#utility.yul\":349:361   */\n      revert\n        /* \"#utility.yul\":293:363   */\n    tag_541:\n        /* \"#utility.yul\":196:369   */\n      swap2\n      swap1\n      pop\n      jump\t// out\n        /* \"#utility.yul\":374:560   */\n    tag_45:\n        /* \"#utility.yul\":433:439   */\n      0x00\n        /* \"#utility.yul\":486:488   */\n      0x20\n        /* \"#utility.yul\":474:483   */\n      dup3\n        /* \"#utility.yul\":465:472   */\n      dup5\n        /* \"#utility.yul\":461:484   */\n      sub\n        /* \"#utility.yul\":457:489   */\n      slt\n        /* \"#utility.yul\":454:506   */\n      iszero\n      tag_543\n      jumpi\n        /* \"#utility.yul\":502:503   */\n      0x00\n        /* \"#utility.yul\":499:500   */\n      dup1\n        /* \"#utility.yul\":492:504   */\n      revert\n        /* \"#utility.yul\":454:506   */\n    tag_543:\n        /* \"#utility.yul\":525:554   */\n      tag_524\n        /* \"#utility.yul\":544:553   */\n      dup3\n        /* \"#utility.yul\":525:554   */\n      tag_536\n      jump\t// in\n        /* \"#utility.yul\":773:953   */\n    tag_71:\n        /* \"#utility.yul\":832:838   */\n      0x00\n        /* \"#utility.yul\":885:887   */\n      0x20\n        /* \"#utility.yul\":873:882   */\n      dup3\n        /* \"#utility.yul\":864:871   */\n      dup5\n        /* \"#utility.yul\":860:883   */\n      sub\n        /* \"#utility.yul\":856:888   */\n      slt\n        /* \"#utility.yul\":853:905   */\n      iszero\n      tag_547\n      jumpi\n        /* \"#utility.yul\":901:902   */\n      0x00\n        /* \"#utility.yul\":898:899   */\n      dup1\n        /* \"#utility.yul\":891:903   */\n      revert\n        /* \"#utility.yul\":853:905   */\n    tag_547:\n      pop\n        /* \"#utility.yul\":924:947   */\n      calldataload\n      swap2\n        /* \"#utility.yul\":773:953   */\n      swap1\n      pop\n      jump\t// out\n        /* \"#utility.yul\":958:1212   */\n    tag_96:\n        /* \"#utility.yul\":1026:1032   */\n      0x00\n        /* \"#utility.yul\":1034:1040   */\n      dup1\n        /* \"#utility.yul\":1087:1089   */\n      0x40\n        /* \"#utility.yul\":1075:1084   */\n      dup4\n        /* \"#utility.yul\":1066:1073   */\n      dup6\n        /* \"#utility.yul\":1062:1085   */\n      sub\n        /* \"#utility.yul\":1058:1090   */\n      slt\n        /* \"#utility.yul\":1055:1107   */\n      iszero\n      tag_549\n      jumpi\n        /* \"#utility.yul\":1103:1104   */\n      0x00\n        /* \"#utility.yul\":1100:1101   */\n      dup1\n        /* \"#utility.yul\":1093:1105   */\n      revert\n        /* \"#utility.yul\":1055:1107   */\n    tag_549:\n        /* \"#utility.yul\":1126:1155   */\n      tag_550\n        /* \"#utility.yul\":1145:1154   */\n      dup4\n        /* \"#utility.yul\":1126:1155   */\n      tag_536\n      jump\t// in\n    tag_550:\n        /* \"#utility.yul\":1116:1155   */\n      swap5\n        /* \"#utility.yul\":1202:1204   */\n      0x20\n        /* \"#utility.yul\":1187:1205   */\n      swap4\n      swap1\n      swap4\n      add\n        /* \"#utility.yul\":1174:1206   */\n      calldataload\n      swap4\n      pop\n      pop\n      pop\n        /* \"#utility.yul\":958:1212   */\n      jump\t// out\n        /* \"#utility.yul\":1695:1822   */\n    tag_136:\n        /* \"#utility.yul\":1756:1766   */\n      0x4e487b71\n        /* \"#utility.yul\":1751:1754   */\n      0xe0\n        /* \"#utility.yul\":1747:1767   */\n      shl\n        /* \"#utility.yul\":1744:1745   */\n      0x00\n        /* \"#utility.yul\":1737:1768   */\n      mstore\n        /* \"#utility.yul\":1787:1791   */\n      0x32\n        /* \"#utility.yul\":1784:1785   */\n      0x04\n        /* \"#utility.yul\":1777:1792   */\n      mstore\n        /* \"#utility.yul\":1811:1815   */\n      0x24\n        /* \"#utility.yul\":1808:1809   */\n      0x00\n        /* \"#utility.yul\":1801:1816   */\n      revert\n        /* \"#utility.yul\":1827:1954   */\n    tag_537:\n        /* \"#utility.yul\":1888:1898   */\n      0x4e487b71\n        /* \"#utility.yul\":1883:1886   */\n      0xe0\n        /* \"#utility.yul\":1879:1899   */\n      shl\n        /* \"#utility.yul\":1876:1877   */\n      0x00\n        /* \"#utility.yul\":1869:1900   */\n      mstore\n        /* \"#utility.yul\":1919:1923   */\n      0x11\n        /* \"#utility.yul\":1916:1917   */\n      0x04\n        /* \"#utility.yul\":1909:1924   */\n      mstore\n        /* \"#utility.yul\":1943:1947   */\n      0x24\n        /* \"#utility.yul\":1940:1941   */\n      0x00\n        /* \"#utility.yul\":1933:1948   */\n      revert\n        /* \"#utility.yul\":1959:2094   */\n    tag_204:\n        /* \"#utility.yul\":1998:2001   */\n      0x00\n      not(0x00)\n        /* \"#utility.yul\":2019:2036   */\n      dup3\n      eq\n        /* \"#utility.yul\":2016:2059   */\n      iszero\n      tag_556\n      jumpi\n        /* \"#utility.yul\":2039:2057   */\n      tag_556\n      tag_537\n      jump\t// in\n    tag_556:\n      pop\n        /* \"#utility.yul\":2086:2087   */\n      0x01\n        /* \"#utility.yul\":2075:2088   */\n      add\n      swap1\n        /* \"#utility.yul\":1959:2094   */\n      jump\t// out\n        /* \"#utility.yul\":2099:2455   */\n    tag_216:\n        /* \"#utility.yul\":2301:2303   */\n      0x20\n        /* \"#utility.yul\":2283:2304   */\n      dup1\n      dup3\n      mstore\n        /* \"#utility.yul\":2320:2338   */\n      dup2\n      dup2\n      add\n        /* \"#utility.yul\":2313:2343   */\n      mstore\n        /* \"#utility.yul\":2379:2413   */\n      0x4f776e61626c653a2063616c6c6572206973206e6f7420746865206f776e6572\n        /* \"#utility.yul\":2374:2376   */\n      0x40\n        /* \"#utility.yul\":2359:2377   */\n      dup3\n      add\n        /* \"#utility.yul\":2352:2414   */\n      mstore\n        /* \"#utility.yul\":2446:2448   */\n      0x60\n        /* \"#utility.yul\":2431:2449   */\n      add\n      swap1\n        /* \"#utility.yul\":2099:2455   */\n      jump\t// out\n        /* \"#utility.yul\":2810:2994   */\n    tag_310:\n        /* \"#utility.yul\":2880:2886   */\n      0x00\n        /* \"#utility.yul\":2933:2935   */\n      0x20\n        /* \"#utility.yul\":2921:2930   */\n      dup3\n        /* \"#utility.yul\":2912:2919   */\n      dup5\n        /* \"#utility.yul\":2908:2931   */\n      sub\n        /* \"#utility.yul\":2904:2936   */\n      slt\n        /* \"#utility.yul\":2901:2953   */\n      iszero\n      tag_560\n      jumpi\n        /* \"#utility.yul\":2949:2950   */\n      0x00\n        /* \"#utility.yul\":2946:2947   */\n      dup1\n        /* \"#utility.yul\":2939:2951   */\n      revert\n        /* \"#utility.yul\":2901:2953   */\n    tag_560:\n      pop\n        /* \"#utility.yul\":2972:2988   */\n      mload\n      swap2\n        /* \"#utility.yul\":2810:2994   */\n      swap1\n      pop\n      jump\t// out\n        /* \"#utility.yul\":3278:3555   */\n    tag_317:\n        /* \"#utility.yul\":3345:3351   */\n      0x00\n        /* \"#utility.yul\":3398:3400   */\n      0x20\n        /* \"#utility.yul\":3386:3395   */\n      dup3\n        /* \"#utility.yul\":3377:3384   */\n      dup5\n        /* \"#utility.yul\":3373:3396   */\n      sub\n        /* \"#utility.yul\":3369:3401   */\n      slt\n        /* \"#utility.yul\":3366:3418   */\n      iszero\n      tag_563\n      jumpi\n        /* \"#utility.yul\":3414:3415   */\n      0x00\n        /* \"#utility.yul\":3411:3412   */\n      dup1\n        /* \"#utility.yul\":3404:3416   */\n      revert\n        /* \"#utility.yul\":3366:3418   */\n    tag_563:\n        /* \"#utility.yul\":3446:3455   */\n      dup2\n        /* \"#utility.yul\":3440:3456   */\n      mload\n        /* \"#utility.yul\":3499:3504   */\n      dup1\n        /* \"#utility.yul\":3492:3505   */\n      iszero\n        /* \"#utility.yul\":3485:3506   */\n      iszero\n        /* \"#utility.yul\":3478:3483   */\n      dup2\n        /* \"#utility.yul\":3475:3507   */\n      eq\n        /* \"#utility.yul\":3465:3525   */\n      tag_524\n      jumpi\n        /* \"#utility.yul\":3521:3522   */\n      0x00\n        /* \"#utility.yul\":3518:3519   */\n      dup1\n        /* \"#utility.yul\":3511:3523   */\n      revert\n        /* \"#utility.yul\":5571:5699   */\n    tag_383:\n        /* \"#utility.yul\":5611:5614   */\n      0x00\n        /* \"#utility.yul\":5642:5643   */\n      dup3\n        /* \"#utility.yul\":5638:5644   */\n      not\n        /* \"#utility.yul\":5635:5636   */\n      dup3\n        /* \"#utility.yul\":5632:5645   */\n      gt\n        /* \"#utility.yul\":5629:5668   */\n      iszero\n      tag_572\n      jumpi\n        /* \"#utility.yul\":5648:5666   */\n      tag_572\n      tag_537\n      jump\t// in\n    tag_572:\n      pop\n        /* \"#utility.yul\":5684:5693   */\n      add\n      swap1\n        /* \"#utility.yul\":5571:5699   */\n      jump\t// out\n        /* \"#utility.yul\":6450:6575   */\n    tag_525:\n        /* \"#utility.yul\":6490:6494   */\n      0x00\n        /* \"#utility.yul\":6518:6519   */\n      dup3\n        /* \"#utility.yul\":6515:6516   */\n      dup3\n        /* \"#utility.yul\":6512:6520   */\n      lt\n        /* \"#utility.yul\":6509:6543   */\n      iszero\n      tag_577\n      jumpi\n        /* \"#utility.yul\":6523:6541   */\n      tag_577\n      tag_537\n      jump\t// in\n    tag_577:\n      pop\n        /* \"#utility.yul\":6560:6569   */\n      sub\n      swap1\n        /* \"#utility.yul\":6450:6575   */\n      jump\t// out\n        /* \"#utility.yul\":6580:6748   */\n    tag_528:\n        /* \"#utility.yul\":6620:6627   */\n      0x00\n        /* \"#utility.yul\":6686:6687   */\n      dup2\n        /* \"#utility.yul\":6682:6683   */\n      0x00\n        /* \"#utility.yul\":6678:6684   */\n      not\n        /* \"#utility.yul\":6674:6688   */\n      div\n        /* \"#utility.yul\":6671:6672   */\n      dup4\n        /* \"#utility.yul\":6668:6689   */\n      gt\n        /* \"#utility.yul\":6663:6664   */\n      dup3\n        /* \"#utility.yul\":6656:6665   */\n      iszero\n        /* \"#utility.yul\":6649:6666   */\n      iszero\n        /* \"#utility.yul\":6645:6690   */\n      and\n        /* \"#utility.yul\":6642:6713   */\n      iszero\n      tag_580\n      jumpi\n        /* \"#utility.yul\":6693:6711   */\n      tag_580\n      tag_537\n      jump\t// in\n    tag_580:\n      pop\n        /* \"#utility.yul\":6733:6742   */\n      mul\n      swap1\n        /* \"#utility.yul\":6580:6748   */\n      jump\t// out\n        /* \"#utility.yul\":6753:6970   */\n    tag_531:\n        /* \"#utility.yul\":6793:6794   */\n      0x00\n        /* \"#utility.yul\":6819:6820   */\n      dup3\n        /* \"#utility.yul\":6809:6941   */\n      tag_582\n      jumpi\n        /* \"#utility.yul\":6863:6873   */\n      0x4e487b71\n        /* \"#utility.yul\":6858:6861   */\n      0xe0\n        /* \"#utility.yul\":6854:6874   */\n      shl\n        /* \"#utility.yul\":6851:6852   */\n      0x00\n        /* \"#utility.yul\":6844:6875   */\n      mstore\n        /* \"#utility.yul\":6898:6902   */\n      0x12\n        /* \"#utility.yul\":6895:6896   */\n      0x04\n        /* \"#utility.yul\":6888:6903   */\n      mstore\n        /* \"#utility.yul\":6926:6930   */\n      0x24\n        /* \"#utility.yul\":6923:6924   */\n      0x00\n        /* \"#utility.yul\":6916:6931   */\n      revert\n        /* \"#utility.yul\":6809:6941   */\n    tag_582:\n      pop\n        /* \"#utility.yul\":6955:6964   */\n      div\n      swap1\n        /* \"#utility.yul\":6753:6970   */\n      jump\t// out\n\n    auxdata: 0xa26469706673582212206ecc6f1222bd1c688a5a55f7f01fd6f4de2c4aecca9b02f3e00c00f96b45cecb64736f6c634300080a0033\n}\n",
				"bytecode": {
					"linkReferences": {},
					"object": "6080604052680ad78ebc5ac620000060065534801561001d57600080fd5b5060405162001abd38038062001abd83398101604081905261003e916100bc565b6100473361006c565b600180546001600160a01b0319166001600160a01b03929092169190911790556100ec565b600080546001600160a01b038381166001600160a01b0319831681178455604051919092169283917f8be0079c531659141344cd1fd0a4f28419497f9722a3daafe3b4186f6b6457e09190a35050565b6000602082840312156100ce57600080fd5b81516001600160a01b03811681146100e557600080fd5b9392505050565b6119c180620000fc6000396000f3fe608060405234801561001057600080fd5b50600436106101a95760003560e01c8063817b1cd2116100f9578063c8a22eb411610097578063e85abe0911610071578063e85abe09146103a1578063f2fde38b146103cd578063f69e2046146103e0578063fb4cb32b146103e857600080fd5b8063c8a22eb414610340578063d63438671461036c578063d7ffca911461037557600080fd5b8063ab8a3c6b116100d3578063ab8a3c6b146102df578063adc9772e146102e7578063bff1f9e1146102fa578063c0806b031461030357600080fd5b8063817b1cd21461029c5780638da5cb5b146102a5578063a8aeb6c2146102b657600080fd5b806336144c9a116101665780634be4d790116101405780634be4d790146102645780634e71d92d14610279578063715018a6146102815780637e3abeea1461028957600080fd5b806336144c9a1461020c57806344038f90146102535780634b3197131461025b57600080fd5b80630104db1b146101ae57806301c234a8146101cb578063040a772e146101d4578063153ab9df146101e757806318e1fbfc146101fa57806332bc298c14610203575b600080fd5b6101b862ed4e0081565b6040519081526020015b60405180910390f35b6101b86103e881565b6101b86101e2366004611806565b6103fb565b6101b86101f5366004611806565b610648565b6101b860065481565b6101b861025881565b61023b61021a366004611806565b6001600160a01b039081166000908152600760205260409020600401541690565b6040516001600160a01b0390911681526020016101c2565b6101b8607881565b6101b860045481565b610277610272366004611821565b61067e565b005b6102776106b6565b610277610b41565b6101b8610297366004611806565b610b77565b6101b860035481565b6000546001600160a01b031661023b565b6101b86102c4366004611806565b6001600160a01b031660009081526007602052604090205490565b6101b8600f81565b6102776102f536600461183a565b610c18565b6101b860025481565b61031661031136600461183a565b611176565b6040805195865260208601949094529284019190915260608301521515608082015260a0016101c2565b6101b861034e366004611806565b6001600160a01b031660009081526007602052604090206003015490565b6101b860055481565b6101b8610383366004611806565b6001600160a01b031660009081526007602052604090206001015490565b6101b86103af366004611806565b6001600160a01b031660009081526007602052604090206002015490565b6102776103db366004611806565b611272565b61027761130d565b6101b86103f6366004611806565b6116f2565b6001600160a01b03811660009081526007602052604081208180805b835481101561063e5783600001818154811061043557610435611864565b600091825260209091206004600590920201015460ff1661062c574284600001828154811061046657610466611864565b906000526020600020906005020160030154111561055c57836001015484600001828154811061049857610498611864565b906000526020600020906005020160020154111561053c576105356102586105296104f28760000185815481106104d1576104d1611864565b9060005260206000209060050201600201544261176390919063ffffffff16565b61052f6103e8610529600f8b600001898154811061051257610512611864565b600091825260209091206005909102015490611776565b90611782565b90611776565b915061061f565b6105356102586105296104f287600101544261176390919063ffffffff16565b836001015484600001828154811061057657610576611864565b90600052602060002090600502016002015411156105f6576105356102586105296104f28760000185815481106105af576105af611864565b9060005260206000209060050201600201548860000186815481106105d6576105d6611864565b90600052602060002090600502016003015461176390919063ffffffff16565b61061c6102586105296104f287600101548860000186815481106105d6576105d6611864565b91505b610629838361178e565b92505b8061063681611890565b915050610417565b5090949350505050565b6000610678610656836103fb565b6001600160a01b0384166000908152600760205260409020600201549061178e565b92915050565b6000546001600160a01b031633146106b15760405162461bcd60e51b81526004016106a8906118ab565b60405180910390fd5b600655565b3360009081526007602052604081209080805b8354811015610920578360000181815481106106e7576106e7611864565b600091825260209091206004600590920201015460ff1661090e574284600001828154811061071857610718611864565b90600052602060002090600502016003015411156107aa57836001015484600001828154811061074a5761074a611864565b906000526020600020906005020160020154111561078a576107836102586105296104f28760000185815481106104d1576104d1611864565b915061089f565b6107836102586105296104f287600101544261176390919063ffffffff16565b83600101548460000182815481106107c4576107c4611864565b906000526020600020906005020160020154111561083d576107fd6102586105296104f28760000185815481106105af576105af611864565b9150600184600001828154811061081657610816611864565b60009182526020909120600590910201600401805460ff191691151591909117905561089f565b6108636102586105296104f287600101548860000186815481106105d6576105d6611864565b9150600184600001828154811061087c5761087c611864565b60009182526020909120600590910201600401805460ff19169115159190911790555b6108d8828560000183815481106108b8576108b8611864565b90600052602060002090600502016001015461178e90919063ffffffff16565b8460000182815481106108ed576108ed611864565b600091825260209091206001600590920201015561090b838361178e565b92505b8061091881611890565b9150506106c9565b5033600090815260076020526040902060020154801561095557610944838261178e565b600060028601819055600386015592505b6000831161099d5760405162461bcd60e51b81526020600482015260156024820152745573657220686173206e6f206469766964656e647360581b60448201526064016106a8565b6001546040516370a0823160e01b81523060048201526000916001600160a01b0316906370a0823190602401602060405180830381865afa1580156109e6573d6000803e3d6000fd5b505050506040513d601f19601f82011682018060405250810190610a0a91906118e0565b905083811015610a18578093505b426001868101919091555460405163a9059cbb60e01b8152336004820152602481018690526001600160a01b039091169063a9059cbb906044016020604051808303816000875af1158015610a71573d6000803e3d6000fd5b505050506040513d601f19601f82011682018060405250810190610a9591906118f9565b610af55760405162461bcd60e51b815260206004820152602b60248201527f436c61696d206661696c65642064756520746f206661696c656420616d6f756e60448201526a3a103a3930b739b332b91760a91b60648201526084016106a8565b600454610b02908561178e565b60045560405184815233907f7084f5476618d8e60b11ef0d7d3f06914655adb8793e28ff7f018d4c76d505d59060200160405180910390a25050505050565b6000546001600160a01b03163314610b6b5760405162461bcd60e51b81526004016106a8906118ab565b610b75600061179a565b565b6001600160a01b038116600090815260076020526040812081805b8254811015610c1057826000018181548110610bb057610bb0611864565b600091825260209091206004600590920201015460ff16610bfe57610bfb836000018281548110610be357610be3611864565b6000918252602090912060059091020154839061178e565b91505b80610c0881611890565b915050610b92565b509392505050565b600654811015610c765760405162461bcd60e51b8152602060048201526024808201527f416d6f756e742069732062656c6f77206d696e696d756d207374616b65207661604482015263363ab29760e11b60648201526084016106a8565b6001546040516370a0823160e01b815233600482015282916001600160a01b0316906370a0823190602401602060405180830381865afa158015610cbe573d6000803e3d6000fd5b505050506040513d601f19601f82011682018060405250810190610ce291906118e0565b1015610d3a5760405162461bcd60e51b815260206004820152602160248201527f4d757374206861766520656e6f7567682062616c616e636520746f207374616b6044820152606560f81b60648201526084016106a8565b6001546040516323b872dd60e01b8152336004820152306024820152604481018390526001600160a01b03909116906323b872dd906064016020604051808303816000875af1158015610d91573d6000803e3d6000fd5b505050506040513d601f19601f82011682018060405250810190610db591906118f9565b610e155760405162461bcd60e51b815260206004820152602b60248201527f5374616b65206661696c65642064756520746f206661696c656420616d6f756e60448201526a3a103a3930b739b332b91760a91b60648201526084016106a8565b33600090815260076020526040902060048101546001600160a01b0316158015610e5657506001600160a01b03831660009081526007602052604090205415155b8015610e6b57506001600160a01b0383163314155b15610e8e576004810180546001600160a01b0319166001600160a01b0385161790555b60048101546001600160a01b031615610f785760048101546001600160a01b03168015610f76576000610ec86103e8610529866078611776565b6001600160a01b038316600090815260076020526040902060020154909150610ef1908261178e565b6001600160a01b0383166000908152600760205260409020600281019190915560030154610f2090600161178e565b6001600160a01b038316600081815260076020908152604091829020600301939093555183815233927f328838ddfc48ad5ae5531b1ad95dfb22b42ff1866853e474375ffef2c63d8e50910160405180910390a3505b505b8054610fcb5742600180830191909155600254610f949161178e565b6002556040513381527f9fd565cd14c3c391679eb0cad12a14dcf7534e9d3462bcb9b67a098a9bbbc24a9060200160405180910390a15b60048101546001600160a01b03161561108b576040805160a081019091528190806110076110006103e8610529886078611776565b8690611763565b81526020016000815260200142815260200162ed4e0042611028919061191b565b81526000602091820181905283546001808201865594825290829020835160059092020190815590820151928101929092556040810151600283015560608101516003830155608001516004909101805460ff191691151591909117905561111b565b806000016040518060a001604052808481526020016000815260200142815260200162ed4e00426110bc919061191b565b81526000602091820181905283546001808201865594825290829020835160059092020190815590820151928101929092556040810151600283015560608101516003830155608001516004909101805460ff19169115159190911790555b600354611128908361178e565b60035560055461113990600161178e565b60055560405182815233907f2cb77763bc1e8490c1a904905c4d74b4269919aca114464f4bb4d911e60de3649060200160405180910390a2505050565b6001600160a01b0382166000908152600760205260408120805482918291829182918190889081106111aa576111aa611864565b9060005260206000209060050201600001548160000188815481106111d1576111d1611864565b9060005260206000209060050201600101548260000189815481106111f8576111f8611864565b906000526020600020906005020160020154836000018a8154811061121f5761121f611864565b906000526020600020906005020160030154846000018b8154811061124657611246611864565b6000918252602090912060059091020160040154939c929b50909950975060ff90911695509350505050565b6000546001600160a01b0316331461129c5760405162461bcd60e51b81526004016106a8906118ab565b6001600160a01b0381166113015760405162461bcd60e51b815260206004820152602660248201527f4f776e61626c653a206e6577206f776e657220697320746865207a65726f206160448201526564647265737360d01b60648201526084016106a8565b61130a8161179a565b50565b6000611318336103fb565b116113525760405162461bcd60e51b815260206004820152600a6024820152692737ba102437b63232b960b11b60448201526064016106a8565b3360008181526007602052604081209161136b906103fb565b9050600080836000016040518060a001604052808581526020016000815260200142815260200162ed4e00426113a1919061191b565b8152600060209182018190528354600180820186559482528282208451600590920201908155918301519382019390935560408201516002820155606082015160038201556080909101516004909101805460ff19169115159190911790555b845481101561167f5784600001818154811061141f5761141f611864565b600091825260209091206004600590920201015460ff1661166d574285600001828154811061145057611450611864565b906000526020600020906005020160030154111561150257846001015485600001828154811061148257611482611864565b90600052602060002090600502016002015411156114e2576114db6102586105296114bb8860000185815481106104d1576104d1611864565b61052f6103e8610529600f8c600001898154811061051257610512611864565b915061161e565b6114db6102586105296114bb88600101544261176390919063ffffffff16565b846001015485600001828154811061151c5761151c611864565b90600052602060002090600502016002015411156115bc5761157c6102586105296114bb88600001858154811061155557611555611864565b9060005260206000209060050201600201548960000186815481106105d6576105d6611864565b9150600185600001828154811061159557611595611864565b60009182526020909120600590910201600401805460ff191691151591909117905561161e565b6115e26102586105296114bb88600101548960000186815481106105d6576105d6611864565b915060018560000182815481106115fb576115fb611864565b60009182526020909120600590910201600401805460ff19169115159190911790555b611637828660000183815481106108b8576108b8611864565b85600001828154811061164c5761164c611864565b600091825260209091206001600590920201015561166a838361178e565b92505b8061167781611890565b915050611401565b50426001850155600354611693908461178e565b6003556005546116a490600161178e565b6005556004546116b4908361178e565b60045560405183815233907f5d511c2070e5a2dbcc6fbfbb3fd6704a11ab5fa74b793b81aacece2c7cc294059060200160405180910390a250505050565b6001600160a01b038116600090815260076020526040812081805b8254811015610c105761174f83600001828154811061172e5761172e611864565b9060005260206000209060050201600101548361178e90919063ffffffff16565b91508061175b81611890565b91505061170d565b600061176f8284611933565b9392505050565b600061176f828461194a565b600061176f8284611969565b600061176f828461191b565b600080546001600160a01b038381166001600160a01b0319831681178455604051919092169283917f8be0079c531659141344cd1fd0a4f28419497f9722a3daafe3b4186f6b6457e09190a35050565b80356001600160a01b038116811461180157600080fd5b919050565b60006020828403121561181857600080fd5b61176f826117ea565b60006020828403121561183357600080fd5b5035919050565b6000806040838503121561184d57600080fd5b611856836117ea565b946020939093013593505050565b634e487b7160e01b600052603260045260246000fd5b634e487b7160e01b600052601160045260246000fd5b60006000198214156118a4576118a461187a565b5060010190565b6020808252818101527f4f776e61626c653a2063616c6c6572206973206e6f7420746865206f776e6572604082015260600190565b6000602082840312156118f257600080fd5b5051919050565b60006020828403121561190b57600080fd5b8151801515811461176f57600080fd5b6000821982111561192e5761192e61187a565b500190565b6000828210156119455761194561187a565b500390565b60008160001904831182151516156119645761196461187a565b500290565b60008261198657634e487b7160e01b600052601260045260246000fd5b50049056fea26469706673582212206ecc6f1222bd1c688a5a55f7f01fd6f4de2c4aecca9b02f3e00c00f96b45cecb64736f6c634300080a0033",
					"opcodes": "PUSH1 0x80 PUSH1 0x40 MSTORE PUSH9 0xAD78EBC5AC6200000 PUSH1 0x6 SSTORE CALLVALUE DUP1 ISZERO PUSH2 0x1D JUMPI PUSH1 0x0 DUP1 REVERT JUMPDEST POP PUSH1 0x40 MLOAD PUSH3 0x1ABD CODESIZE SUB DUP1 PUSH3 0x1ABD DUP4 CODECOPY DUP2 ADD PUSH1 0x40 DUP2 SWAP1 MSTORE PUSH2 0x3E SWAP2 PUSH2 0xBC JUMP JUMPDEST PUSH2 0x47 CALLER PUSH2 0x6C JUMP JUMPDEST PUSH1 0x1 DUP1 SLOAD PUSH1 0x1 PUSH1 0x1 PUSH1 0xA0 SHL SUB NOT AND PUSH1 0x1 PUSH1 0x1 PUSH1 0xA0 SHL SUB SWAP3 SWAP1 SWAP3 AND SWAP2 SWAP1 SWAP2 OR SWAP1 SSTORE PUSH2 0xEC JUMP JUMPDEST PUSH1 0x0 DUP1 SLOAD PUSH1 0x1 PUSH1 0x1 PUSH1 0xA0 SHL SUB DUP4 DUP2 AND PUSH1 0x1 PUSH1 0x1 PUSH1 0xA0 SHL SUB NOT DUP4 AND DUP2 OR DUP5 SSTORE PUSH1 0x40 MLOAD SWAP2 SWAP1 SWAP3 AND SWAP3 DUP4 SWAP2 PUSH32 0x8BE0079C531659141344CD1FD0A4F28419497F9722A3DAAFE3B4186F6B6457E0 SWAP2 SWAP1 LOG3 POP POP JUMP JUMPDEST PUSH1 0x0 PUSH1 0x20 DUP3 DUP5 SUB SLT ISZERO PUSH2 0xCE JUMPI PUSH1 0x0 DUP1 REVERT JUMPDEST DUP2 MLOAD PUSH1 0x1 PUSH1 0x1 PUSH1 0xA0 SHL SUB DUP2 AND DUP2 EQ PUSH2 0xE5 JUMPI PUSH1 0x0 DUP1 REVERT JUMPDEST SWAP4 SWAP3 POP POP POP JUMP JUMPDEST PUSH2 0x19C1 DUP1 PUSH3 0xFC PUSH1 0x0 CODECOPY PUSH1 0x0 RETURN INVALID PUSH1 0x80 PUSH1 0x40 MSTORE CALLVALUE DUP1 ISZERO PUSH2 0x10 JUMPI PUSH1 0x0 DUP1 REVERT JUMPDEST POP PUSH1 0x4 CALLDATASIZE LT PUSH2 0x1A9 JUMPI PUSH1 0x0 CALLDATALOAD PUSH1 0xE0 SHR DUP1 PUSH4 0x817B1CD2 GT PUSH2 0xF9 JUMPI DUP1 PUSH4 0xC8A22EB4 GT PUSH2 0x97 JUMPI DUP1 PUSH4 0xE85ABE09 GT PUSH2 0x71 JUMPI DUP1 PUSH4 0xE85ABE09 EQ PUSH2 0x3A1 JUMPI DUP1 PUSH4 0xF2FDE38B EQ PUSH2 0x3CD JUMPI DUP1 PUSH4 0xF69E2046 EQ PUSH2 0x3E0 JUMPI DUP1 PUSH4 0xFB4CB32B EQ PUSH2 0x3E8 JUMPI PUSH1 0x0 DUP1 REVERT JUMPDEST DUP1 PUSH4 0xC8A22EB4 EQ PUSH2 0x340 JUMPI DUP1 PUSH4 0xD6343867 EQ PUSH2 0x36C JUMPI DUP1 PUSH4 0xD7FFCA91 EQ PUSH2 0x375 JUMPI PUSH1 0x0 DUP1 REVERT JUMPDEST DUP1 PUSH4 0xAB8A3C6B GT PUSH2 0xD3 JUMPI DUP1 PUSH4 0xAB8A3C6B EQ PUSH2 0x2DF JUMPI DUP1 PUSH4 0xADC9772E EQ PUSH2 0x2E7 JUMPI DUP1 PUSH4 0xBFF1F9E1 EQ PUSH2 0x2FA JUMPI DUP1 PUSH4 0xC0806B03 EQ PUSH2 0x303 JUMPI PUSH1 0x0 DUP1 REVERT JUMPDEST DUP1 PUSH4 0x817B1CD2 EQ PUSH2 0x29C JUMPI DUP1 PUSH4 0x8DA5CB5B EQ PUSH2 0x2A5 JUMPI DUP1 PUSH4 0xA8AEB6C2 EQ PUSH2 0x2B6 JUMPI PUSH1 0x0 DUP1 REVERT JUMPDEST DUP1 PUSH4 0x36144C9A GT PUSH2 0x166 JUMPI DUP1 PUSH4 0x4BE4D790 GT PUSH2 0x140 JUMPI DUP1 PUSH4 0x4BE4D790 EQ PUSH2 0x264 JUMPI DUP1 PUSH4 0x4E71D92D EQ PUSH2 0x279 JUMPI DUP1 PUSH4 0x715018A6 EQ PUSH2 0x281 JUMPI DUP1 PUSH4 0x7E3ABEEA EQ PUSH2 0x289 JUMPI PUSH1 0x0 DUP1 REVERT JUMPDEST DUP1 PUSH4 0x36144C9A EQ PUSH2 0x20C JUMPI DUP1 PUSH4 0x44038F90 EQ PUSH2 0x253 JUMPI DUP1 PUSH4 0x4B319713 EQ PUSH2 0x25B JUMPI PUSH1 0x0 DUP1 REVERT JUMPDEST DUP1 PUSH4 0x104DB1B EQ PUSH2 0x1AE JUMPI DUP1 PUSH4 0x1C234A8 EQ PUSH2 0x1CB JUMPI DUP1 PUSH4 0x40A772E EQ PUSH2 0x1D4 JUMPI DUP1 PUSH4 0x153AB9DF EQ PUSH2 0x1E7 JUMPI DUP1 PUSH4 0x18E1FBFC EQ PUSH2 0x1FA JUMPI DUP1 PUSH4 0x32BC298C EQ PUSH2 0x203 JUMPI JUMPDEST PUSH1 0x0 DUP1 REVERT JUMPDEST PUSH2 0x1B8 PUSH3 0xED4E00 DUP2 JUMP JUMPDEST PUSH1 0x40 MLOAD SWAP1 DUP2 MSTORE PUSH1 0x20 ADD JUMPDEST PUSH1 0x40 MLOAD DUP1 SWAP2 SUB SWAP1 RETURN JUMPDEST PUSH2 0x1B8 PUSH2 0x3E8 DUP2 JUMP JUMPDEST PUSH2 0x1B8 PUSH2 0x1E2 CALLDATASIZE PUSH1 0x4 PUSH2 0x1806 JUMP JUMPDEST PUSH2 0x3FB JUMP JUMPDEST PUSH2 0x1B8 PUSH2 0x1F5 CALLDATASIZE PUSH1 0x4 PUSH2 0x1806 JUMP JUMPDEST PUSH2 0x648 JUMP JUMPDEST PUSH2 0x1B8 PUSH1 0x6 SLOAD DUP2 JUMP JUMPDEST PUSH2 0x1B8 PUSH2 0x258 DUP2 JUMP JUMPDEST PUSH2 0x23B PUSH2 0x21A CALLDATASIZE PUSH1 0x4 PUSH2 0x1806 JUMP JUMPDEST PUSH1 0x1 PUSH1 0x1 PUSH1 0xA0 SHL SUB SWAP1 DUP2 AND PUSH1 0x0 SWAP1 DUP2 MSTORE PUSH1 0x7 PUSH1 0x20 MSTORE PUSH1 0x40 SWAP1 KECCAK256 PUSH1 0x4 ADD SLOAD AND SWAP1 JUMP JUMPDEST PUSH1 0x40 MLOAD PUSH1 0x1 PUSH1 0x1 PUSH1 0xA0 SHL SUB SWAP1 SWAP2 AND DUP2 MSTORE PUSH1 0x20 ADD PUSH2 0x1C2 JUMP JUMPDEST PUSH2 0x1B8 PUSH1 0x78 DUP2 JUMP JUMPDEST PUSH2 0x1B8 PUSH1 0x4 SLOAD DUP2 JUMP JUMPDEST PUSH2 0x277 PUSH2 0x272 CALLDATASIZE PUSH1 0x4 PUSH2 0x1821 JUMP JUMPDEST PUSH2 0x67E JUMP JUMPDEST STOP JUMPDEST PUSH2 0x277 PUSH2 0x6B6 JUMP JUMPDEST PUSH2 0x277 PUSH2 0xB41 JUMP JUMPDEST PUSH2 0x1B8 PUSH2 0x297 CALLDATASIZE PUSH1 0x4 PUSH2 0x1806 JUMP JUMPDEST PUSH2 0xB77 JUMP JUMPDEST PUSH2 0x1B8 PUSH1 0x3 SLOAD DUP2 JUMP JUMPDEST PUSH1 0x0 SLOAD PUSH1 0x1 PUSH1 0x1 PUSH1 0xA0 SHL SUB AND PUSH2 0x23B JUMP JUMPDEST PUSH2 0x1B8 PUSH2 0x2C4 CALLDATASIZE PUSH1 0x4 PUSH2 0x1806 JUMP JUMPDEST PUSH1 0x1 PUSH1 0x1 PUSH1 0xA0 SHL SUB AND PUSH1 0x0 SWAP1 DUP2 MSTORE PUSH1 0x7 PUSH1 0x20 MSTORE PUSH1 0x40 SWAP1 KECCAK256 SLOAD SWAP1 JUMP JUMPDEST PUSH2 0x1B8 PUSH1 0xF DUP2 JUMP JUMPDEST PUSH2 0x277 PUSH2 0x2F5 CALLDATASIZE PUSH1 0x4 PUSH2 0x183A JUMP JUMPDEST PUSH2 0xC18 JUMP JUMPDEST PUSH2 0x1B8 PUSH1 0x2 SLOAD DUP2 JUMP JUMPDEST PUSH2 0x316 PUSH2 0x311 CALLDATASIZE PUSH1 0x4 PUSH2 0x183A JUMP JUMPDEST PUSH2 0x1176 JUMP JUMPDEST PUSH1 0x40 DUP1 MLOAD SWAP6 DUP7 MSTORE PUSH1 0x20 DUP7 ADD SWAP5 SWAP1 SWAP5 MSTORE SWAP3 DUP5 ADD SWAP2 SWAP1 SWAP2 MSTORE PUSH1 0x60 DUP4 ADD MSTORE ISZERO ISZERO PUSH1 0x80 DUP3 ADD MSTORE PUSH1 0xA0 ADD PUSH2 0x1C2 JUMP JUMPDEST PUSH2 0x1B8 PUSH2 0x34E CALLDATASIZE PUSH1 0x4 PUSH2 0x1806 JUMP JUMPDEST PUSH1 0x1 PUSH1 0x1 PUSH1 0xA0 SHL SUB AND PUSH1 0x0 SWAP1 DUP2 MSTORE PUSH1 0x7 PUSH1 0x20 MSTORE PUSH1 0x40 SWAP1 KECCAK256 PUSH1 0x3 ADD SLOAD SWAP1 JUMP JUMPDEST PUSH2 0x1B8 PUSH1 0x5 SLOAD DUP2 JUMP JUMPDEST PUSH2 0x1B8 PUSH2 0x383 CALLDATASIZE PUSH1 0x4 PUSH2 0x1806 JUMP JUMPDEST PUSH1 0x1 PUSH1 0x1 PUSH1 0xA0 SHL SUB AND PUSH1 0x0 SWAP1 DUP2 MSTORE PUSH1 0x7 PUSH1 0x20 MSTORE PUSH1 0x40 SWAP1 KECCAK256 PUSH1 0x1 ADD SLOAD SWAP1 JUMP JUMPDEST PUSH2 0x1B8 PUSH2 0x3AF CALLDATASIZE PUSH1 0x4 PUSH2 0x1806 JUMP JUMPDEST PUSH1 0x1 PUSH1 0x1 PUSH1 0xA0 SHL SUB AND PUSH1 0x0 SWAP1 DUP2 MSTORE PUSH1 0x7 PUSH1 0x20 MSTORE PUSH1 0x40 SWAP1 KECCAK256 PUSH1 0x2 ADD SLOAD SWAP1 JUMP JUMPDEST PUSH2 0x277 PUSH2 0x3DB CALLDATASIZE PUSH1 0x4 PUSH2 0x1806 JUMP JUMPDEST PUSH2 0x1272 JUMP JUMPDEST PUSH2 0x277 PUSH2 0x130D JUMP JUMPDEST PUSH2 0x1B8 PUSH2 0x3F6 CALLDATASIZE PUSH1 0x4 PUSH2 0x1806 JUMP JUMPDEST PUSH2 0x16F2 JUMP JUMPDEST PUSH1 0x1 PUSH1 0x1 PUSH1 0xA0 SHL SUB DUP2 AND PUSH1 0x0 SWAP1 DUP2 MSTORE PUSH1 0x7 PUSH1 0x20 MSTORE PUSH1 0x40 DUP2 KECCAK256 DUP2 DUP1 DUP1 JUMPDEST DUP4 SLOAD DUP2 LT ISZERO PUSH2 0x63E JUMPI DUP4 PUSH1 0x0 ADD DUP2 DUP2 SLOAD DUP2 LT PUSH2 0x435 JUMPI PUSH2 0x435 PUSH2 0x1864 JUMP JUMPDEST PUSH1 0x0 SWAP2 DUP3 MSTORE PUSH1 0x20 SWAP1 SWAP2 KECCAK256 PUSH1 0x4 PUSH1 0x5 SWAP1 SWAP3 MUL ADD ADD SLOAD PUSH1 0xFF AND PUSH2 0x62C JUMPI TIMESTAMP DUP5 PUSH1 0x0 ADD DUP3 DUP2 SLOAD DUP2 LT PUSH2 0x466 JUMPI PUSH2 0x466 PUSH2 0x1864 JUMP JUMPDEST SWAP1 PUSH1 0x0 MSTORE PUSH1 0x20 PUSH1 0x0 KECCAK256 SWAP1 PUSH1 0x5 MUL ADD PUSH1 0x3 ADD SLOAD GT ISZERO PUSH2 0x55C JUMPI DUP4 PUSH1 0x1 ADD SLOAD DUP5 PUSH1 0x0 ADD DUP3 DUP2 SLOAD DUP2 LT PUSH2 0x498 JUMPI PUSH2 0x498 PUSH2 0x1864 JUMP JUMPDEST SWAP1 PUSH1 0x0 MSTORE PUSH1 0x20 PUSH1 0x0 KECCAK256 SWAP1 PUSH1 0x5 MUL ADD PUSH1 0x2 ADD SLOAD GT ISZERO PUSH2 0x53C JUMPI PUSH2 0x535 PUSH2 0x258 PUSH2 0x529 PUSH2 0x4F2 DUP8 PUSH1 0x0 ADD DUP6 DUP2 SLOAD DUP2 LT PUSH2 0x4D1 JUMPI PUSH2 0x4D1 PUSH2 0x1864 JUMP JUMPDEST SWAP1 PUSH1 0x0 MSTORE PUSH1 0x20 PUSH1 0x0 KECCAK256 SWAP1 PUSH1 0x5 MUL ADD PUSH1 0x2 ADD SLOAD TIMESTAMP PUSH2 0x1763 SWAP1 SWAP2 SWAP1 PUSH4 0xFFFFFFFF AND JUMP JUMPDEST PUSH2 0x52F PUSH2 0x3E8 PUSH2 0x529 PUSH1 0xF DUP12 PUSH1 0x0 ADD DUP10 DUP2 SLOAD DUP2 LT PUSH2 0x512 JUMPI PUSH2 0x512 PUSH2 0x1864 JUMP JUMPDEST PUSH1 0x0 SWAP2 DUP3 MSTORE PUSH1 0x20 SWAP1 SWAP2 KECCAK256 PUSH1 0x5 SWAP1 SWAP2 MUL ADD SLOAD SWAP1 PUSH2 0x1776 JUMP JUMPDEST SWAP1 PUSH2 0x1782 JUMP JUMPDEST SWAP1 PUSH2 0x1776 JUMP JUMPDEST SWAP2 POP PUSH2 0x61F JUMP JUMPDEST PUSH2 0x535 PUSH2 0x258 PUSH2 0x529 PUSH2 0x4F2 DUP8 PUSH1 0x1 ADD SLOAD TIMESTAMP PUSH2 0x1763 SWAP1 SWAP2 SWAP1 PUSH4 0xFFFFFFFF AND JUMP JUMPDEST DUP4 PUSH1 0x1 ADD SLOAD DUP5 PUSH1 0x0 ADD DUP3 DUP2 SLOAD DUP2 LT PUSH2 0x576 JUMPI PUSH2 0x576 PUSH2 0x1864 JUMP JUMPDEST SWAP1 PUSH1 0x0 MSTORE PUSH1 0x20 PUSH1 0x0 KECCAK256 SWAP1 PUSH1 0x5 MUL ADD PUSH1 0x2 ADD SLOAD GT ISZERO PUSH2 0x5F6 JUMPI PUSH2 0x535 PUSH2 0x258 PUSH2 0x529 PUSH2 0x4F2 DUP8 PUSH1 0x0 ADD DUP6 DUP2 SLOAD DUP2 LT PUSH2 0x5AF JUMPI PUSH2 0x5AF PUSH2 0x1864 JUMP JUMPDEST SWAP1 PUSH1 0x0 MSTORE PUSH1 0x20 PUSH1 0x0 KECCAK256 SWAP1 PUSH1 0x5 MUL ADD PUSH1 0x2 ADD SLOAD DUP9 PUSH1 0x0 ADD DUP7 DUP2 SLOAD DUP2 LT PUSH2 0x5D6 JUMPI PUSH2 0x5D6 PUSH2 0x1864 JUMP JUMPDEST SWAP1 PUSH1 0x0 MSTORE PUSH1 0x20 PUSH1 0x0 KECCAK256 SWAP1 PUSH1 0x5 MUL ADD PUSH1 0x3 ADD SLOAD PUSH2 0x1763 SWAP1 SWAP2 SWAP1 PUSH4 0xFFFFFFFF AND JUMP JUMPDEST PUSH2 0x61C PUSH2 0x258 PUSH2 0x529 PUSH2 0x4F2 DUP8 PUSH1 0x1 ADD SLOAD DUP9 PUSH1 0x0 ADD DUP7 DUP2 SLOAD DUP2 LT PUSH2 0x5D6 JUMPI PUSH2 0x5D6 PUSH2 0x1864 JUMP JUMPDEST SWAP2 POP JUMPDEST PUSH2 0x629 DUP4 DUP4 PUSH2 0x178E JUMP JUMPDEST SWAP3 POP JUMPDEST DUP1 PUSH2 0x636 DUP2 PUSH2 0x1890 JUMP JUMPDEST SWAP2 POP POP PUSH2 0x417 JUMP JUMPDEST POP SWAP1 SWAP5 SWAP4 POP POP POP POP JUMP JUMPDEST PUSH1 0x0 PUSH2 0x678 PUSH2 0x656 DUP4 PUSH2 0x3FB JUMP JUMPDEST PUSH1 0x1 PUSH1 0x1 PUSH1 0xA0 SHL SUB DUP5 AND PUSH1 0x0 SWAP1 DUP2 MSTORE PUSH1 0x7 PUSH1 0x20 MSTORE PUSH1 0x40 SWAP1 KECCAK256 PUSH1 0x2 ADD SLOAD SWAP1 PUSH2 0x178E JUMP JUMPDEST SWAP3 SWAP2 POP POP JUMP JUMPDEST PUSH1 0x0 SLOAD PUSH1 0x1 PUSH1 0x1 PUSH1 0xA0 SHL SUB AND CALLER EQ PUSH2 0x6B1 JUMPI PUSH1 0x40 MLOAD PUSH3 0x461BCD PUSH1 0xE5 SHL DUP2 MSTORE PUSH1 0x4 ADD PUSH2 0x6A8 SWAP1 PUSH2 0x18AB JUMP JUMPDEST PUSH1 0x40 MLOAD DUP1 SWAP2 SUB SWAP1 REVERT JUMPDEST PUSH1 0x6 SSTORE JUMP JUMPDEST CALLER PUSH1 0x0 SWAP1 DUP2 MSTORE PUSH1 0x7 PUSH1 0x20 MSTORE PUSH1 0x40 DUP2 KECCAK256 SWAP1 DUP1 DUP1 JUMPDEST DUP4 SLOAD DUP2 LT ISZERO PUSH2 0x920 JUMPI DUP4 PUSH1 0x0 ADD DUP2 DUP2 SLOAD DUP2 LT PUSH2 0x6E7 JUMPI PUSH2 0x6E7 PUSH2 0x1864 JUMP JUMPDEST PUSH1 0x0 SWAP2 DUP3 MSTORE PUSH1 0x20 SWAP1 SWAP2 KECCAK256 PUSH1 0x4 PUSH1 0x5 SWAP1 SWAP3 MUL ADD ADD SLOAD PUSH1 0xFF AND PUSH2 0x90E JUMPI TIMESTAMP DUP5 PUSH1 0x0 ADD DUP3 DUP2 SLOAD DUP2 LT PUSH2 0x718 JUMPI PUSH2 0x718 PUSH2 0x1864 JUMP JUMPDEST SWAP1 PUSH1 0x0 MSTORE PUSH1 0x20 PUSH1 0x0 KECCAK256 SWAP1 PUSH1 0x5 MUL ADD PUSH1 0x3 ADD SLOAD GT ISZERO PUSH2 0x7AA JUMPI DUP4 PUSH1 0x1 ADD SLOAD DUP5 PUSH1 0x0 ADD DUP3 DUP2 SLOAD DUP2 LT PUSH2 0x74A JUMPI PUSH2 0x74A PUSH2 0x1864 JUMP JUMPDEST SWAP1 PUSH1 0x0 MSTORE PUSH1 0x20 PUSH1 0x0 KECCAK256 SWAP1 PUSH1 0x5 MUL ADD PUSH1 0x2 ADD SLOAD GT ISZERO PUSH2 0x78A JUMPI PUSH2 0x783 PUSH2 0x258 PUSH2 0x529 PUSH2 0x4F2 DUP8 PUSH1 0x0 ADD DUP6 DUP2 SLOAD DUP2 LT PUSH2 0x4D1 JUMPI PUSH2 0x4D1 PUSH2 0x1864 JUMP JUMPDEST SWAP2 POP PUSH2 0x89F JUMP JUMPDEST PUSH2 0x783 PUSH2 0x258 PUSH2 0x529 PUSH2 0x4F2 DUP8 PUSH1 0x1 ADD SLOAD TIMESTAMP PUSH2 0x1763 SWAP1 SWAP2 SWAP1 PUSH4 0xFFFFFFFF AND JUMP JUMPDEST DUP4 PUSH1 0x1 ADD SLOAD DUP5 PUSH1 0x0 ADD DUP3 DUP2 SLOAD DUP2 LT PUSH2 0x7C4 JUMPI PUSH2 0x7C4 PUSH2 0x1864 JUMP JUMPDEST SWAP1 PUSH1 0x0 MSTORE PUSH1 0x20 PUSH1 0x0 KECCAK256 SWAP1 PUSH1 0x5 MUL ADD PUSH1 0x2 ADD SLOAD GT ISZERO PUSH2 0x83D JUMPI PUSH2 0x7FD PUSH2 0x258 PUSH2 0x529 PUSH2 0x4F2 DUP8 PUSH1 0x0 ADD DUP6 DUP2 SLOAD DUP2 LT PUSH2 0x5AF JUMPI PUSH2 0x5AF PUSH2 0x1864 JUMP JUMPDEST SWAP2 POP PUSH1 0x1 DUP5 PUSH1 0x0 ADD DUP3 DUP2 SLOAD DUP2 LT PUSH2 0x816 JUMPI PUSH2 0x816 PUSH2 0x1864 JUMP JUMPDEST PUSH1 0x0 SWAP2 DUP3 MSTORE PUSH1 0x20 SWAP1 SWAP2 KECCAK256 PUSH1 0x5 SWAP1 SWAP2 MUL ADD PUSH1 0x4 ADD DUP1 SLOAD PUSH1 0xFF NOT AND SWAP2 ISZERO ISZERO SWAP2 SWAP1 SWAP2 OR SWAP1 SSTORE PUSH2 0x89F JUMP JUMPDEST PUSH2 0x863 PUSH2 0x258 PUSH2 0x529 PUSH2 0x4F2 DUP8 PUSH1 0x1 ADD SLOAD DUP9 PUSH1 0x0 ADD DUP7 DUP2 SLOAD DUP2 LT PUSH2 0x5D6 JUMPI PUSH2 0x5D6 PUSH2 0x1864 JUMP JUMPDEST SWAP2 POP PUSH1 0x1 DUP5 PUSH1 0x0 ADD DUP3 DUP2 SLOAD DUP2 LT PUSH2 0x87C JUMPI PUSH2 0x87C PUSH2 0x1864 JUMP JUMPDEST PUSH1 0x0 SWAP2 DUP3 MSTORE PUSH1 0x20 SWAP1 SWAP2 KECCAK256 PUSH1 0x5 SWAP1 SWAP2 MUL ADD PUSH1 0x4 ADD DUP1 SLOAD PUSH1 0xFF NOT AND SWAP2 ISZERO ISZERO SWAP2 SWAP1 SWAP2 OR SWAP1 SSTORE JUMPDEST PUSH2 0x8D8 DUP3 DUP6 PUSH1 0x0 ADD DUP4 DUP2 SLOAD DUP2 LT PUSH2 0x8B8 JUMPI PUSH2 0x8B8 PUSH2 0x1864 JUMP JUMPDEST SWAP1 PUSH1 0x0 MSTORE PUSH1 0x20 PUSH1 0x0 KECCAK256 SWAP1 PUSH1 0x5 MUL ADD PUSH1 0x1 ADD SLOAD PUSH2 0x178E SWAP1 SWAP2 SWAP1 PUSH4 0xFFFFFFFF AND JUMP JUMPDEST DUP5 PUSH1 0x0 ADD DUP3 DUP2 SLOAD DUP2 LT PUSH2 0x8ED JUMPI PUSH2 0x8ED PUSH2 0x1864 JUMP JUMPDEST PUSH1 0x0 SWAP2 DUP3 MSTORE PUSH1 0x20 SWAP1 SWAP2 KECCAK256 PUSH1 0x1 PUSH1 0x5 SWAP1 SWAP3 MUL ADD ADD SSTORE PUSH2 0x90B DUP4 DUP4 PUSH2 0x178E JUMP JUMPDEST SWAP3 POP JUMPDEST DUP1 PUSH2 0x918 DUP2 PUSH2 0x1890 JUMP JUMPDEST SWAP2 POP POP PUSH2 0x6C9 JUMP JUMPDEST POP CALLER PUSH1 0x0 SWAP1 DUP2 MSTORE PUSH1 0x7 PUSH1 0x20 MSTORE PUSH1 0x40 SWAP1 KECCAK256 PUSH1 0x2 ADD SLOAD DUP1 ISZERO PUSH2 0x955 JUMPI PUSH2 0x944 DUP4 DUP3 PUSH2 0x178E JUMP JUMPDEST PUSH1 0x0 PUSH1 0x2 DUP7 ADD DUP2 SWAP1 SSTORE PUSH1 0x3 DUP7 ADD SSTORE SWAP3 POP JUMPDEST PUSH1 0x0 DUP4 GT PUSH2 0x99D JUMPI PUSH1 0x40 MLOAD PUSH3 0x461BCD PUSH1 0xE5 SHL DUP2 MSTORE PUSH1 0x20 PUSH1 0x4 DUP3 ADD MSTORE PUSH1 0x15 PUSH1 0x24 DUP3 ADD MSTORE PUSH21 0x5573657220686173206E6F206469766964656E6473 PUSH1 0x58 SHL PUSH1 0x44 DUP3 ADD MSTORE PUSH1 0x64 ADD PUSH2 0x6A8 JUMP JUMPDEST PUSH1 0x1 SLOAD PUSH1 0x40 MLOAD PUSH4 0x70A08231 PUSH1 0xE0 SHL DUP2 MSTORE ADDRESS PUSH1 0x4 DUP3 ADD MSTORE PUSH1 0x0 SWAP2 PUSH1 0x1 PUSH1 0x1 PUSH1 0xA0 SHL SUB AND SWAP1 PUSH4 0x70A08231 SWAP1 PUSH1 0x24 ADD PUSH1 0x20 PUSH1 0x40 MLOAD DUP1 DUP4 SUB DUP2 DUP7 GAS STATICCALL ISZERO DUP1 ISZERO PUSH2 0x9E6 JUMPI RETURNDATASIZE PUSH1 0x0 DUP1 RETURNDATACOPY RETURNDATASIZE PUSH1 0x0 REVERT JUMPDEST POP POP POP POP PUSH1 0x40 MLOAD RETURNDATASIZE PUSH1 0x1F NOT PUSH1 0x1F DUP3 ADD AND DUP3 ADD DUP1 PUSH1 0x40 MSTORE POP DUP2 ADD SWAP1 PUSH2 0xA0A SWAP2 SWAP1 PUSH2 0x18E0 JUMP JUMPDEST SWAP1 POP DUP4 DUP2 LT ISZERO PUSH2 0xA18 JUMPI DUP1 SWAP4 POP JUMPDEST TIMESTAMP PUSH1 0x1 DUP7 DUP2 ADD SWAP2 SWAP1 SWAP2 SSTORE SLOAD PUSH1 0x40 MLOAD PUSH4 0xA9059CBB PUSH1 0xE0 SHL DUP2 MSTORE CALLER PUSH1 0x4 DUP3 ADD MSTORE PUSH1 0x24 DUP2 ADD DUP7 SWAP1 MSTORE PUSH1 0x1 PUSH1 0x1 PUSH1 0xA0 SHL SUB SWAP1 SWAP2 AND SWAP1 PUSH4 0xA9059CBB SWAP1 PUSH1 0x44 ADD PUSH1 0x20 PUSH1 0x40 MLOAD DUP1 DUP4 SUB DUP2 PUSH1 0x0 DUP8 GAS CALL ISZERO DUP1 ISZERO PUSH2 0xA71 JUMPI RETURNDATASIZE PUSH1 0x0 DUP1 RETURNDATACOPY RETURNDATASIZE PUSH1 0x0 REVERT JUMPDEST POP POP POP POP PUSH1 0x40 MLOAD RETURNDATASIZE PUSH1 0x1F NOT PUSH1 0x1F DUP3 ADD AND DUP3 ADD DUP1 PUSH1 0x40 MSTORE POP DUP2 ADD SWAP1 PUSH2 0xA95 SWAP2 SWAP1 PUSH2 0x18F9 JUMP JUMPDEST PUSH2 0xAF5 JUMPI PUSH1 0x40 MLOAD PUSH3 0x461BCD PUSH1 0xE5 SHL DUP2 MSTORE PUSH1 0x20 PUSH1 0x4 DUP3 ADD MSTORE PUSH1 0x2B PUSH1 0x24 DUP3 ADD MSTORE PUSH32 0x436C61696D206661696C65642064756520746F206661696C656420616D6F756E PUSH1 0x44 DUP3 ADD MSTORE PUSH11 0x3A103A3930B739B332B917 PUSH1 0xA9 SHL PUSH1 0x64 DUP3 ADD MSTORE PUSH1 0x84 ADD PUSH2 0x6A8 JUMP JUMPDEST PUSH1 0x4 SLOAD PUSH2 0xB02 SWAP1 DUP6 PUSH2 0x178E JUMP JUMPDEST PUSH1 0x4 SSTORE PUSH1 0x40 MLOAD DUP5 DUP2 MSTORE CALLER SWAP1 PUSH32 0x7084F5476618D8E60B11EF0D7D3F06914655ADB8793E28FF7F018D4C76D505D5 SWAP1 PUSH1 0x20 ADD PUSH1 0x40 MLOAD DUP1 SWAP2 SUB SWAP1 LOG2 POP POP POP POP POP JUMP JUMPDEST PUSH1 0x0 SLOAD PUSH1 0x1 PUSH1 0x1 PUSH1 0xA0 SHL SUB AND CALLER EQ PUSH2 0xB6B JUMPI PUSH1 0x40 MLOAD PUSH3 0x461BCD PUSH1 0xE5 SHL DUP2 MSTORE PUSH1 0x4 ADD PUSH2 0x6A8 SWAP1 PUSH2 0x18AB JUMP JUMPDEST PUSH2 0xB75 PUSH1 0x0 PUSH2 0x179A JUMP JUMPDEST JUMP JUMPDEST PUSH1 0x1 PUSH1 0x1 PUSH1 0xA0 SHL SUB DUP2 AND PUSH1 0x0 SWAP1 DUP2 MSTORE PUSH1 0x7 PUSH1 0x20 MSTORE PUSH1 0x40 DUP2 KECCAK256 DUP2 DUP1 JUMPDEST DUP3 SLOAD DUP2 LT ISZERO PUSH2 0xC10 JUMPI DUP3 PUSH1 0x0 ADD DUP2 DUP2 SLOAD DUP2 LT PUSH2 0xBB0 JUMPI PUSH2 0xBB0 PUSH2 0x1864 JUMP JUMPDEST PUSH1 0x0 SWAP2 DUP3 MSTORE PUSH1 0x20 SWAP1 SWAP2 KECCAK256 PUSH1 0x4 PUSH1 0x5 SWAP1 SWAP3 MUL ADD ADD SLOAD PUSH1 0xFF AND PUSH2 0xBFE JUMPI PUSH2 0xBFB DUP4 PUSH1 0x0 ADD DUP3 DUP2 SLOAD DUP2 LT PUSH2 0xBE3 JUMPI PUSH2 0xBE3 PUSH2 0x1864 JUMP JUMPDEST PUSH1 0x0 SWAP2 DUP3 MSTORE PUSH1 0x20 SWAP1 SWAP2 KECCAK256 PUSH1 0x5 SWAP1 SWAP2 MUL ADD SLOAD DUP4 SWAP1 PUSH2 0x178E JUMP JUMPDEST SWAP2 POP JUMPDEST DUP1 PUSH2 0xC08 DUP2 PUSH2 0x1890 JUMP JUMPDEST SWAP2 POP POP PUSH2 0xB92 JUMP JUMPDEST POP SWAP4 SWAP3 POP POP POP JUMP JUMPDEST PUSH1 0x6 SLOAD DUP2 LT ISZERO PUSH2 0xC76 JUMPI PUSH1 0x40 MLOAD PUSH3 0x461BCD PUSH1 0xE5 SHL DUP2 MSTORE PUSH1 0x20 PUSH1 0x4 DUP3 ADD MSTORE PUSH1 0x24 DUP1 DUP3 ADD MSTORE PUSH32 0x416D6F756E742069732062656C6F77206D696E696D756D207374616B65207661 PUSH1 0x44 DUP3 ADD MSTORE PUSH4 0x363AB297 PUSH1 0xE1 SHL PUSH1 0x64 DUP3 ADD MSTORE PUSH1 0x84 ADD PUSH2 0x6A8 JUMP JUMPDEST PUSH1 0x1 SLOAD PUSH1 0x40 MLOAD PUSH4 0x70A08231 PUSH1 0xE0 SHL DUP2 MSTORE CALLER PUSH1 0x4 DUP3 ADD MSTORE DUP3 SWAP2 PUSH1 0x1 PUSH1 0x1 PUSH1 0xA0 SHL SUB AND SWAP1 PUSH4 0x70A08231 SWAP1 PUSH1 0x24 ADD PUSH1 0x20 PUSH1 0x40 MLOAD DUP1 DUP4 SUB DUP2 DUP7 GAS STATICCALL ISZERO DUP1 ISZERO PUSH2 0xCBE JUMPI RETURNDATASIZE PUSH1 0x0 DUP1 RETURNDATACOPY RETURNDATASIZE PUSH1 0x0 REVERT JUMPDEST POP POP POP POP PUSH1 0x40 MLOAD RETURNDATASIZE PUSH1 0x1F NOT PUSH1 0x1F DUP3 ADD AND DUP3 ADD DUP1 PUSH1 0x40 MSTORE POP DUP2 ADD SWAP1 PUSH2 0xCE2 SWAP2 SWAP1 PUSH2 0x18E0 JUMP JUMPDEST LT ISZERO PUSH2 0xD3A JUMPI PUSH1 0x40 MLOAD PUSH3 0x461BCD PUSH1 0xE5 SHL DUP2 MSTORE PUSH1 0x20 PUSH1 0x4 DUP3 ADD MSTORE PUSH1 0x21 PUSH1 0x24 DUP3 ADD MSTORE PUSH32 0x4D757374206861766520656E6F7567682062616C616E636520746F207374616B PUSH1 0x44 DUP3 ADD MSTORE PUSH1 0x65 PUSH1 0xF8 SHL PUSH1 0x64 DUP3 ADD MSTORE PUSH1 0x84 ADD PUSH2 0x6A8 JUMP JUMPDEST PUSH1 0x1 SLOAD PUSH1 0x40 MLOAD PUSH4 0x23B872DD PUSH1 0xE0 SHL DUP2 MSTORE CALLER PUSH1 0x4 DUP3 ADD MSTORE ADDRESS PUSH1 0x24 DUP3 ADD MSTORE PUSH1 0x44 DUP2 ADD DUP4 SWAP1 MSTORE PUSH1 0x1 PUSH1 0x1 PUSH1 0xA0 SHL SUB SWAP1 SWAP2 AND SWAP1 PUSH4 0x23B872DD SWAP1 PUSH1 0x64 ADD PUSH1 0x20 PUSH1 0x40 MLOAD DUP1 DUP4 SUB DUP2 PUSH1 0x0 DUP8 GAS CALL ISZERO DUP1 ISZERO PUSH2 0xD91 JUMPI RETURNDATASIZE PUSH1 0x0 DUP1 RETURNDATACOPY RETURNDATASIZE PUSH1 0x0 REVERT JUMPDEST POP POP POP POP PUSH1 0x40 MLOAD RETURNDATASIZE PUSH1 0x1F NOT PUSH1 0x1F DUP3 ADD AND DUP3 ADD DUP1 PUSH1 0x40 MSTORE POP DUP2 ADD SWAP1 PUSH2 0xDB5 SWAP2 SWAP1 PUSH2 0x18F9 JUMP JUMPDEST PUSH2 0xE15 JUMPI PUSH1 0x40 MLOAD PUSH3 0x461BCD PUSH1 0xE5 SHL DUP2 MSTORE PUSH1 0x20 PUSH1 0x4 DUP3 ADD MSTORE PUSH1 0x2B PUSH1 0x24 DUP3 ADD MSTORE PUSH32 0x5374616B65206661696C65642064756520746F206661696C656420616D6F756E PUSH1 0x44 DUP3 ADD MSTORE PUSH11 0x3A103A3930B739B332B917 PUSH1 0xA9 SHL PUSH1 0x64 DUP3 ADD MSTORE PUSH1 0x84 ADD PUSH2 0x6A8 JUMP JUMPDEST CALLER PUSH1 0x0 SWAP1 DUP2 MSTORE PUSH1 0x7 PUSH1 0x20 MSTORE PUSH1 0x40 SWAP1 KECCAK256 PUSH1 0x4 DUP2 ADD SLOAD PUSH1 0x1 PUSH1 0x1 PUSH1 0xA0 SHL SUB AND ISZERO DUP1 ISZERO PUSH2 0xE56 JUMPI POP PUSH1 0x1 PUSH1 0x1 PUSH1 0xA0 SHL SUB DUP4 AND PUSH1 0x0 SWAP1 DUP2 MSTORE PUSH1 0x7 PUSH1 0x20 MSTORE PUSH1 0x40 SWAP1 KECCAK256 SLOAD ISZERO ISZERO JUMPDEST DUP1 ISZERO PUSH2 0xE6B JUMPI POP PUSH1 0x1 PUSH1 0x1 PUSH1 0xA0 SHL SUB DUP4 AND CALLER EQ ISZERO JUMPDEST ISZERO PUSH2 0xE8E JUMPI PUSH1 0x4 DUP2 ADD DUP1 SLOAD PUSH1 0x1 PUSH1 0x1 PUSH1 0xA0 SHL SUB NOT AND PUSH1 0x1 PUSH1 0x1 PUSH1 0xA0 SHL SUB DUP6 AND OR SWAP1 SSTORE JUMPDEST PUSH1 0x4 DUP2 ADD SLOAD PUSH1 0x1 PUSH1 0x1 PUSH1 0xA0 SHL SUB AND ISZERO PUSH2 0xF78 JUMPI PUSH1 0x4 DUP2 ADD SLOAD PUSH1 0x1 PUSH1 0x1 PUSH1 0xA0 SHL SUB AND DUP1 ISZERO PUSH2 0xF76 JUMPI PUSH1 0x0 PUSH2 0xEC8 PUSH2 0x3E8 PUSH2 0x529 DUP7 PUSH1 0x78 PUSH2 0x1776 JUMP JUMPDEST PUSH1 0x1 PUSH1 0x1 PUSH1 0xA0 SHL SUB DUP4 AND PUSH1 0x0 SWAP1 DUP2 MSTORE PUSH1 0x7 PUSH1 0x20 MSTORE PUSH1 0x40 SWAP1 KECCAK256 PUSH1 0x2 ADD SLOAD SWAP1 SWAP2 POP PUSH2 0xEF1 SWAP1 DUP3 PUSH2 0x178E JUMP JUMPDEST PUSH1 0x1 PUSH1 0x1 PUSH1 0xA0 SHL SUB DUP4 AND PUSH1 0x0 SWAP1 DUP2 MSTORE PUSH1 0x7 PUSH1 0x20 MSTORE PUSH1 0x40 SWAP1 KECCAK256 PUSH1 0x2 DUP2 ADD SWAP2 SWAP1 SWAP2 SSTORE PUSH1 0x3 ADD SLOAD PUSH2 0xF20 SWAP1 PUSH1 0x1 PUSH2 0x178E JUMP JUMPDEST PUSH1 0x1 PUSH1 0x1 PUSH1 0xA0 SHL SUB DUP4 AND PUSH1 0x0 DUP2 DUP2 MSTORE PUSH1 0x7 PUSH1 0x20 SWAP1 DUP2 MSTORE PUSH1 0x40 SWAP2 DUP3 SWAP1 KECCAK256 PUSH1 0x3 ADD SWAP4 SWAP1 SWAP4 SSTORE MLOAD DUP4 DUP2 MSTORE CALLER SWAP3 PUSH32 0x328838DDFC48AD5AE5531B1AD95DFB22B42FF1866853E474375FFEF2C63D8E50 SWAP2 ADD PUSH1 0x40 MLOAD DUP1 SWAP2 SUB SWAP1 LOG3 POP JUMPDEST POP JUMPDEST DUP1 SLOAD PUSH2 0xFCB JUMPI TIMESTAMP PUSH1 0x1 DUP1 DUP4 ADD SWAP2 SWAP1 SWAP2 SSTORE PUSH1 0x2 SLOAD PUSH2 0xF94 SWAP2 PUSH2 0x178E JUMP JUMPDEST PUSH1 0x2 SSTORE PUSH1 0x40 MLOAD CALLER DUP2 MSTORE PUSH32 0x9FD565CD14C3C391679EB0CAD12A14DCF7534E9D3462BCB9B67A098A9BBBC24A SWAP1 PUSH1 0x20 ADD PUSH1 0x40 MLOAD DUP1 SWAP2 SUB SWAP1 LOG1 JUMPDEST PUSH1 0x4 DUP2 ADD SLOAD PUSH1 0x1 PUSH1 0x1 PUSH1 0xA0 SHL SUB AND ISZERO PUSH2 0x108B JUMPI PUSH1 0x40 DUP1 MLOAD PUSH1 0xA0 DUP2 ADD SWAP1 SWAP2 MSTORE DUP2 SWAP1 DUP1 PUSH2 0x1007 PUSH2 0x1000 PUSH2 0x3E8 PUSH2 0x529 DUP9 PUSH1 0x78 PUSH2 0x1776 JUMP JUMPDEST DUP7 SWAP1 PUSH2 0x1763 JUMP JUMPDEST DUP2 MSTORE PUSH1 0x20 ADD PUSH1 0x0 DUP2 MSTORE PUSH1 0x20 ADD TIMESTAMP DUP2 MSTORE PUSH1 0x20 ADD PUSH3 0xED4E00 TIMESTAMP PUSH2 0x1028 SWAP2 SWAP1 PUSH2 0x191B JUMP JUMPDEST DUP2 MSTORE PUSH1 0x0 PUSH1 0x20 SWAP2 DUP3 ADD DUP2 SWAP1 MSTORE DUP4 SLOAD PUSH1 0x1 DUP1 DUP3 ADD DUP7 SSTORE SWAP5 DUP3 MSTORE SWAP1 DUP3 SWAP1 KECCAK256 DUP4 MLOAD PUSH1 0x5 SWAP1 SWAP3 MUL ADD SWAP1 DUP2 SSTORE SWAP1 DUP3 ADD MLOAD SWAP3 DUP2 ADD SWAP3 SWAP1 SWAP3 SSTORE PUSH1 0x40 DUP2 ADD MLOAD PUSH1 0x2 DUP4 ADD SSTORE PUSH1 0x60 DUP2 ADD MLOAD PUSH1 0x3 DUP4 ADD SSTORE PUSH1 0x80 ADD MLOAD PUSH1 0x4 SWAP1 SWAP2 ADD DUP1 SLOAD PUSH1 0xFF NOT AND SWAP2 ISZERO ISZERO SWAP2 SWAP1 SWAP2 OR SWAP1 SSTORE PUSH2 0x111B JUMP JUMPDEST DUP1 PUSH1 0x0 ADD PUSH1 0x40 MLOAD DUP1 PUSH1 0xA0 ADD PUSH1 0x40 MSTORE DUP1 DUP5 DUP2 MSTORE PUSH1 0x20 ADD PUSH1 0x0 DUP2 MSTORE PUSH1 0x20 ADD TIMESTAMP DUP2 MSTORE PUSH1 0x20 ADD PUSH3 0xED4E00 TIMESTAMP PUSH2 0x10BC SWAP2 SWAP1 PUSH2 0x191B JUMP JUMPDEST DUP2 MSTORE PUSH1 0x0 PUSH1 0x20 SWAP2 DUP3 ADD DUP2 SWAP1 MSTORE DUP4 SLOAD PUSH1 0x1 DUP1 DUP3 ADD DUP7 SSTORE SWAP5 DUP3 MSTORE SWAP1 DUP3 SWAP1 KECCAK256 DUP4 MLOAD PUSH1 0x5 SWAP1 SWAP3 MUL ADD SWAP1 DUP2 SSTORE SWAP1 DUP3 ADD MLOAD SWAP3 DUP2 ADD SWAP3 SWAP1 SWAP3 SSTORE PUSH1 0x40 DUP2 ADD MLOAD PUSH1 0x2 DUP4 ADD SSTORE PUSH1 0x60 DUP2 ADD MLOAD PUSH1 0x3 DUP4 ADD SSTORE PUSH1 0x80 ADD MLOAD PUSH1 0x4 SWAP1 SWAP2 ADD DUP1 SLOAD PUSH1 0xFF NOT AND SWAP2 ISZERO ISZERO SWAP2 SWAP1 SWAP2 OR SWAP1 SSTORE JUMPDEST PUSH1 0x3 SLOAD PUSH2 0x1128 SWAP1 DUP4 PUSH2 0x178E JUMP JUMPDEST PUSH1 0x3 SSTORE PUSH1 0x5 SLOAD PUSH2 0x1139 SWAP1 PUSH1 0x1 PUSH2 0x178E JUMP JUMPDEST PUSH1 0x5 SSTORE PUSH1 0x40 MLOAD DUP3 DUP2 MSTORE CALLER SWAP1 PUSH32 0x2CB77763BC1E8490C1A904905C4D74B4269919ACA114464F4BB4D911E60DE364 SWAP1 PUSH1 0x20 ADD PUSH1 0x40 MLOAD DUP1 SWAP2 SUB SWAP1 LOG2 POP POP POP JUMP JUMPDEST PUSH1 0x1 PUSH1 0x1 PUSH1 0xA0 SHL SUB DUP3 AND PUSH1 0x0 SWAP1 DUP2 MSTORE PUSH1 0x7 PUSH1 0x20 MSTORE PUSH1 0x40 DUP2 KECCAK256 DUP1 SLOAD DUP3 SWAP2 DUP3 SWAP2 DUP3 SWAP2 DUP3 SWAP2 DUP2 SWAP1 DUP9 SWAP1 DUP2 LT PUSH2 0x11AA JUMPI PUSH2 0x11AA PUSH2 0x1864 JUMP JUMPDEST SWAP1 PUSH1 0x0 MSTORE PUSH1 0x20 PUSH1 0x0 KECCAK256 SWAP1 PUSH1 0x5 MUL ADD PUSH1 0x0 ADD SLOAD DUP2 PUSH1 0x0 ADD DUP9 DUP2 SLOAD DUP2 LT PUSH2 0x11D1 JUMPI PUSH2 0x11D1 PUSH2 0x1864 JUMP JUMPDEST SWAP1 PUSH1 0x0 MSTORE PUSH1 0x20 PUSH1 0x0 KECCAK256 SWAP1 PUSH1 0x5 MUL ADD PUSH1 0x1 ADD SLOAD DUP3 PUSH1 0x0 ADD DUP10 DUP2 SLOAD DUP2 LT PUSH2 0x11F8 JUMPI PUSH2 0x11F8 PUSH2 0x1864 JUMP JUMPDEST SWAP1 PUSH1 0x0 MSTORE PUSH1 0x20 PUSH1 0x0 KECCAK256 SWAP1 PUSH1 0x5 MUL ADD PUSH1 0x2 ADD SLOAD DUP4 PUSH1 0x0 ADD DUP11 DUP2 SLOAD DUP2 LT PUSH2 0x121F JUMPI PUSH2 0x121F PUSH2 0x1864 JUMP JUMPDEST SWAP1 PUSH1 0x0 MSTORE PUSH1 0x20 PUSH1 0x0 KECCAK256 SWAP1 PUSH1 0x5 MUL ADD PUSH1 0x3 ADD SLOAD DUP5 PUSH1 0x0 ADD DUP12 DUP2 SLOAD DUP2 LT PUSH2 0x1246 JUMPI PUSH2 0x1246 PUSH2 0x1864 JUMP JUMPDEST PUSH1 0x0 SWAP2 DUP3 MSTORE PUSH1 0x20 SWAP1 SWAP2 KECCAK256 PUSH1 0x5 SWAP1 SWAP2 MUL ADD PUSH1 0x4 ADD SLOAD SWAP4 SWAP13 SWAP3 SWAP12 POP SWAP1 SWAP10 POP SWAP8 POP PUSH1 0xFF SWAP1 SWAP2 AND SWAP6 POP SWAP4 POP POP POP POP JUMP JUMPDEST PUSH1 0x0 SLOAD PUSH1 0x1 PUSH1 0x1 PUSH1 0xA0 SHL SUB AND CALLER EQ PUSH2 0x129C JUMPI PUSH1 0x40 MLOAD PUSH3 0x461BCD PUSH1 0xE5 SHL DUP2 MSTORE PUSH1 0x4 ADD PUSH2 0x6A8 SWAP1 PUSH2 0x18AB JUMP JUMPDEST PUSH1 0x1 PUSH1 0x1 PUSH1 0xA0 SHL SUB DUP2 AND PUSH2 0x1301 JUMPI PUSH1 0x40 MLOAD PUSH3 0x461BCD PUSH1 0xE5 SHL DUP2 MSTORE PUSH1 0x20 PUSH1 0x4 DUP3 ADD MSTORE PUSH1 0x26 PUSH1 0x24 DUP3 ADD MSTORE PUSH32 0x4F776E61626C653A206E6577206F776E657220697320746865207A65726F2061 PUSH1 0x44 DUP3 ADD MSTORE PUSH6 0x646472657373 PUSH1 0xD0 SHL PUSH1 0x64 DUP3 ADD MSTORE PUSH1 0x84 ADD PUSH2 0x6A8 JUMP JUMPDEST PUSH2 0x130A DUP2 PUSH2 0x179A JUMP JUMPDEST POP JUMP JUMPDEST PUSH1 0x0 PUSH2 0x1318 CALLER PUSH2 0x3FB JUMP JUMPDEST GT PUSH2 0x1352 JUMPI PUSH1 0x40 MLOAD PUSH3 0x461BCD PUSH1 0xE5 SHL DUP2 MSTORE PUSH1 0x20 PUSH1 0x4 DUP3 ADD MSTORE PUSH1 0xA PUSH1 0x24 DUP3 ADD MSTORE PUSH10 0x2737BA102437B63232B9 PUSH1 0xB1 SHL PUSH1 0x44 DUP3 ADD MSTORE PUSH1 0x64 ADD PUSH2 0x6A8 JUMP JUMPDEST CALLER PUSH1 0x0 DUP2 DUP2 MSTORE PUSH1 0x7 PUSH1 0x20 MSTORE PUSH1 0x40 DUP2 KECCAK256 SWAP2 PUSH2 0x136B SWAP1 PUSH2 0x3FB JUMP JUMPDEST SWAP1 POP PUSH1 0x0 DUP1 DUP4 PUSH1 0x0 ADD PUSH1 0x40 MLOAD DUP1 PUSH1 0xA0 ADD PUSH1 0x40 MSTORE DUP1 DUP6 DUP2 MSTORE PUSH1 0x20 ADD PUSH1 0x0 DUP2 MSTORE PUSH1 0x20 ADD TIMESTAMP DUP2 MSTORE PUSH1 0x20 ADD PUSH3 0xED4E00 TIMESTAMP PUSH2 0x13A1 SWAP2 SWAP1 PUSH2 0x191B JUMP JUMPDEST DUP2 MSTORE PUSH1 0x0 PUSH1 0x20 SWAP2 DUP3 ADD DUP2 SWAP1 MSTORE DUP4 SLOAD PUSH1 0x1 DUP1 DUP3 ADD DUP7 SSTORE SWAP5 DUP3 MSTORE DUP3 DUP3 KECCAK256 DUP5 MLOAD PUSH1 0x5 SWAP1 SWAP3 MUL ADD SWAP1 DUP2 SSTORE SWAP2 DUP4 ADD MLOAD SWAP4 DUP3 ADD SWAP4 SWAP1 SWAP4 SSTORE PUSH1 0x40 DUP3 ADD MLOAD PUSH1 0x2 DUP3 ADD SSTORE PUSH1 0x60 DUP3 ADD MLOAD PUSH1 0x3 DUP3 ADD SSTORE PUSH1 0x80 SWAP1 SWAP2 ADD MLOAD PUSH1 0x4 SWAP1 SWAP2 ADD DUP1 SLOAD PUSH1 0xFF NOT AND SWAP2 ISZERO ISZERO SWAP2 SWAP1 SWAP2 OR SWAP1 SSTORE JUMPDEST DUP5 SLOAD DUP2 LT ISZERO PUSH2 0x167F JUMPI DUP5 PUSH1 0x0 ADD DUP2 DUP2 SLOAD DUP2 LT PUSH2 0x141F JUMPI PUSH2 0x141F PUSH2 0x1864 JUMP JUMPDEST PUSH1 0x0 SWAP2 DUP3 MSTORE PUSH1 0x20 SWAP1 SWAP2 KECCAK256 PUSH1 0x4 PUSH1 0x5 SWAP1 SWAP3 MUL ADD ADD SLOAD PUSH1 0xFF AND PUSH2 0x166D JUMPI TIMESTAMP DUP6 PUSH1 0x0 ADD DUP3 DUP2 SLOAD DUP2 LT PUSH2 0x1450 JUMPI PUSH2 0x1450 PUSH2 0x1864 JUMP JUMPDEST SWAP1 PUSH1 0x0 MSTORE PUSH1 0x20 PUSH1 0x0 KECCAK256 SWAP1 PUSH1 0x5 MUL ADD PUSH1 0x3 ADD SLOAD GT ISZERO PUSH2 0x1502 JUMPI DUP5 PUSH1 0x1 ADD SLOAD DUP6 PUSH1 0x0 ADD DUP3 DUP2 SLOAD DUP2 LT PUSH2 0x1482 JUMPI PUSH2 0x1482 PUSH2 0x1864 JUMP JUMPDEST SWAP1 PUSH1 0x0 MSTORE PUSH1 0x20 PUSH1 0x0 KECCAK256 SWAP1 PUSH1 0x5 MUL ADD PUSH1 0x2 ADD SLOAD GT ISZERO PUSH2 0x14E2 JUMPI PUSH2 0x14DB PUSH2 0x258 PUSH2 0x529 PUSH2 0x14BB DUP9 PUSH1 0x0 ADD DUP6 DUP2 SLOAD DUP2 LT PUSH2 0x4D1 JUMPI PUSH2 0x4D1 PUSH2 0x1864 JUMP JUMPDEST PUSH2 0x52F PUSH2 0x3E8 PUSH2 0x529 PUSH1 0xF DUP13 PUSH1 0x0 ADD DUP10 DUP2 SLOAD DUP2 LT PUSH2 0x512 JUMPI PUSH2 0x512 PUSH2 0x1864 JUMP JUMPDEST SWAP2 POP PUSH2 0x161E JUMP JUMPDEST PUSH2 0x14DB PUSH2 0x258 PUSH2 0x529 PUSH2 0x14BB DUP9 PUSH1 0x1 ADD SLOAD TIMESTAMP PUSH2 0x1763 SWAP1 SWAP2 SWAP1 PUSH4 0xFFFFFFFF AND JUMP JUMPDEST DUP5 PUSH1 0x1 ADD SLOAD DUP6 PUSH1 0x0 ADD DUP3 DUP2 SLOAD DUP2 LT PUSH2 0x151C JUMPI PUSH2 0x151C PUSH2 0x1864 JUMP JUMPDEST SWAP1 PUSH1 0x0 MSTORE PUSH1 0x20 PUSH1 0x0 KECCAK256 SWAP1 PUSH1 0x5 MUL ADD PUSH1 0x2 ADD SLOAD GT ISZERO PUSH2 0x15BC JUMPI PUSH2 0x157C PUSH2 0x258 PUSH2 0x529 PUSH2 0x14BB DUP9 PUSH1 0x0 ADD DUP6 DUP2 SLOAD DUP2 LT PUSH2 0x1555 JUMPI PUSH2 0x1555 PUSH2 0x1864 JUMP JUMPDEST SWAP1 PUSH1 0x0 MSTORE PUSH1 0x20 PUSH1 0x0 KECCAK256 SWAP1 PUSH1 0x5 MUL ADD PUSH1 0x2 ADD SLOAD DUP10 PUSH1 0x0 ADD DUP7 DUP2 SLOAD DUP2 LT PUSH2 0x5D6 JUMPI PUSH2 0x5D6 PUSH2 0x1864 JUMP JUMPDEST SWAP2 POP PUSH1 0x1 DUP6 PUSH1 0x0 ADD DUP3 DUP2 SLOAD DUP2 LT PUSH2 0x1595 JUMPI PUSH2 0x1595 PUSH2 0x1864 JUMP JUMPDEST PUSH1 0x0 SWAP2 DUP3 MSTORE PUSH1 0x20 SWAP1 SWAP2 KECCAK256 PUSH1 0x5 SWAP1 SWAP2 MUL ADD PUSH1 0x4 ADD DUP1 SLOAD PUSH1 0xFF NOT AND SWAP2 ISZERO ISZERO SWAP2 SWAP1 SWAP2 OR SWAP1 SSTORE PUSH2 0x161E JUMP JUMPDEST PUSH2 0x15E2 PUSH2 0x258 PUSH2 0x529 PUSH2 0x14BB DUP9 PUSH1 0x1 ADD SLOAD DUP10 PUSH1 0x0 ADD DUP7 DUP2 SLOAD DUP2 LT PUSH2 0x5D6 JUMPI PUSH2 0x5D6 PUSH2 0x1864 JUMP JUMPDEST SWAP2 POP PUSH1 0x1 DUP6 PUSH1 0x0 ADD DUP3 DUP2 SLOAD DUP2 LT PUSH2 0x15FB JUMPI PUSH2 0x15FB PUSH2 0x1864 JUMP JUMPDEST PUSH1 0x0 SWAP2 DUP3 MSTORE PUSH1 0x20 SWAP1 SWAP2 KECCAK256 PUSH1 0x5 SWAP1 SWAP2 MUL ADD PUSH1 0x4 ADD DUP1 SLOAD PUSH1 0xFF NOT AND SWAP2 ISZERO ISZERO SWAP2 SWAP1 SWAP2 OR SWAP1 SSTORE JUMPDEST PUSH2 0x1637 DUP3 DUP7 PUSH1 0x0 ADD DUP4 DUP2 SLOAD DUP2 LT PUSH2 0x8B8 JUMPI PUSH2 0x8B8 PUSH2 0x1864 JUMP JUMPDEST DUP6 PUSH1 0x0 ADD DUP3 DUP2 SLOAD DUP2 LT PUSH2 0x164C JUMPI PUSH2 0x164C PUSH2 0x1864 JUMP JUMPDEST PUSH1 0x0 SWAP2 DUP3 MSTORE PUSH1 0x20 SWAP1 SWAP2 KECCAK256 PUSH1 0x1 PUSH1 0x5 SWAP1 SWAP3 MUL ADD ADD SSTORE PUSH2 0x166A DUP4 DUP4 PUSH2 0x178E JUMP JUMPDEST SWAP3 POP JUMPDEST DUP1 PUSH2 0x1677 DUP2 PUSH2 0x1890 JUMP JUMPDEST SWAP2 POP POP PUSH2 0x1401 JUMP JUMPDEST POP TIMESTAMP PUSH1 0x1 DUP6 ADD SSTORE PUSH1 0x3 SLOAD PUSH2 0x1693 SWAP1 DUP5 PUSH2 0x178E JUMP JUMPDEST PUSH1 0x3 SSTORE PUSH1 0x5 SLOAD PUSH2 0x16A4 SWAP1 PUSH1 0x1 PUSH2 0x178E JUMP JUMPDEST PUSH1 0x5 SSTORE PUSH1 0x4 SLOAD PUSH2 0x16B4 SWAP1 DUP4 PUSH2 0x178E JUMP JUMPDEST PUSH1 0x4 SSTORE PUSH1 0x40 MLOAD DUP4 DUP2 MSTORE CALLER SWAP1 PUSH32 0x5D511C2070E5A2DBCC6FBFBB3FD6704A11AB5FA74B793B81AACECE2C7CC29405 SWAP1 PUSH1 0x20 ADD PUSH1 0x40 MLOAD DUP1 SWAP2 SUB SWAP1 LOG2 POP POP POP POP JUMP JUMPDEST PUSH1 0x1 PUSH1 0x1 PUSH1 0xA0 SHL SUB DUP2 AND PUSH1 0x0 SWAP1 DUP2 MSTORE PUSH1 0x7 PUSH1 0x20 MSTORE PUSH1 0x40 DUP2 KECCAK256 DUP2 DUP1 JUMPDEST DUP3 SLOAD DUP2 LT ISZERO PUSH2 0xC10 JUMPI PUSH2 0x174F DUP4 PUSH1 0x0 ADD DUP3 DUP2 SLOAD DUP2 LT PUSH2 0x172E JUMPI PUSH2 0x172E PUSH2 0x1864 JUMP JUMPDEST SWAP1 PUSH1 0x0 MSTORE PUSH1 0x20 PUSH1 0x0 KECCAK256 SWAP1 PUSH1 0x5 MUL ADD PUSH1 0x1 ADD SLOAD DUP4 PUSH2 0x178E SWAP1 SWAP2 SWAP1 PUSH4 0xFFFFFFFF AND JUMP JUMPDEST SWAP2 POP DUP1 PUSH2 0x175B DUP2 PUSH2 0x1890 JUMP JUMPDEST SWAP2 POP POP PUSH2 0x170D JUMP JUMPDEST PUSH1 0x0 PUSH2 0x176F DUP3 DUP5 PUSH2 0x1933 JUMP JUMPDEST SWAP4 SWAP3 POP POP POP JUMP JUMPDEST PUSH1 0x0 PUSH2 0x176F DUP3 DUP5 PUSH2 0x194A JUMP JUMPDEST PUSH1 0x0 PUSH2 0x176F DUP3 DUP5 PUSH2 0x1969 JUMP JUMPDEST PUSH1 0x0 PUSH2 0x176F DUP3 DUP5 PUSH2 0x191B JUMP JUMPDEST PUSH1 0x0 DUP1 SLOAD PUSH1 0x1 PUSH1 0x1 PUSH1 0xA0 SHL SUB DUP4 DUP2 AND PUSH1 0x1 PUSH1 0x1 PUSH1 0xA0 SHL SUB NOT DUP4 AND DUP2 OR DUP5 SSTORE PUSH1 0x40 MLOAD SWAP2 SWAP1 SWAP3 AND SWAP3 DUP4 SWAP2 PUSH32 0x8BE0079C531659141344CD1FD0A4F28419497F9722A3DAAFE3B4186F6B6457E0 SWAP2 SWAP1 LOG3 POP POP JUMP JUMPDEST DUP1 CALLDATALOAD PUSH1 0x1 PUSH1 0x1 PUSH1 0xA0 SHL SUB DUP2 AND DUP2 EQ PUSH2 0x1801 JUMPI PUSH1 0x0 DUP1 REVERT JUMPDEST SWAP2 SWAP1 POP JUMP JUMPDEST PUSH1 0x0 PUSH1 0x20 DUP3 DUP5 SUB SLT ISZERO PUSH2 0x1818 JUMPI PUSH1 0x0 DUP1 REVERT JUMPDEST PUSH2 0x176F DUP3 PUSH2 0x17EA JUMP JUMPDEST PUSH1 0x0 PUSH1 0x20 DUP3 DUP5 SUB SLT ISZERO PUSH2 0x1833 JUMPI PUSH1 0x0 DUP1 REVERT JUMPDEST POP CALLDATALOAD SWAP2 SWAP1 POP JUMP JUMPDEST PUSH1 0x0 DUP1 PUSH1 0x40 DUP4 DUP6 SUB SLT ISZERO PUSH2 0x184D JUMPI PUSH1 0x0 DUP1 REVERT JUMPDEST PUSH2 0x1856 DUP4 PUSH2 0x17EA JUMP JUMPDEST SWAP5 PUSH1 0x20 SWAP4 SWAP1 SWAP4 ADD CALLDATALOAD SWAP4 POP POP POP JUMP JUMPDEST PUSH4 0x4E487B71 PUSH1 0xE0 SHL PUSH1 0x0 MSTORE PUSH1 0x32 PUSH1 0x4 MSTORE PUSH1 0x24 PUSH1 0x0 REVERT JUMPDEST PUSH4 0x4E487B71 PUSH1 0xE0 SHL PUSH1 0x0 MSTORE PUSH1 0x11 PUSH1 0x4 MSTORE PUSH1 0x24 PUSH1 0x0 REVERT JUMPDEST PUSH1 0x0 PUSH1 0x0 NOT DUP3 EQ ISZERO PUSH2 0x18A4 JUMPI PUSH2 0x18A4 PUSH2 0x187A JUMP JUMPDEST POP PUSH1 0x1 ADD SWAP1 JUMP JUMPDEST PUSH1 0x20 DUP1 DUP3 MSTORE DUP2 DUP2 ADD MSTORE PUSH32 0x4F776E61626C653A2063616C6C6572206973206E6F7420746865206F776E6572 PUSH1 0x40 DUP3 ADD MSTORE PUSH1 0x60 ADD SWAP1 JUMP JUMPDEST PUSH1 0x0 PUSH1 0x20 DUP3 DUP5 SUB SLT ISZERO PUSH2 0x18F2 JUMPI PUSH1 0x0 DUP1 REVERT JUMPDEST POP MLOAD SWAP2 SWAP1 POP JUMP JUMPDEST PUSH1 0x0 PUSH1 0x20 DUP3 DUP5 SUB SLT ISZERO PUSH2 0x190B JUMPI PUSH1 0x0 DUP1 REVERT JUMPDEST DUP2 MLOAD DUP1 ISZERO ISZERO DUP2 EQ PUSH2 0x176F JUMPI PUSH1 0x0 DUP1 REVERT JUMPDEST PUSH1 0x0 DUP3 NOT DUP3 GT ISZERO PUSH2 0x192E JUMPI PUSH2 0x192E PUSH2 0x187A JUMP JUMPDEST POP ADD SWAP1 JUMP JUMPDEST PUSH1 0x0 DUP3 DUP3 LT ISZERO PUSH2 0x1945 JUMPI PUSH2 0x1945 PUSH2 0x187A JUMP JUMPDEST POP SUB SWAP1 JUMP JUMPDEST PUSH1 0x0 DUP2 PUSH1 0x0 NOT DIV DUP4 GT DUP3 ISZERO ISZERO AND ISZERO PUSH2 0x1964 JUMPI PUSH2 0x1964 PUSH2 0x187A JUMP JUMPDEST POP MUL SWAP1 JUMP JUMPDEST PUSH1 0x0 DUP3 PUSH2 0x1986 JUMPI PUSH4 0x4E487B71 PUSH1 0xE0 SHL PUSH1 0x0 MSTORE PUSH1 0x12 PUSH1 0x4 MSTORE PUSH1 0x24 PUSH1 0x0 REVERT JUMPDEST POP DIV SWAP1 JUMP INVALID LOG2 PUSH5 0x6970667358 0x22 SLT KECCAK256 PUSH15 0xCC6F1222BD1C688A5A55F7F01FD6F4 0xDE 0x2C 0x4A 0xEC 0xCA SWAP12 MUL RETURN 0xE0 0xC STOP 0xF9 PUSH12 0x45CECB64736F6C634300080A STOP CALLER "
				},
				"gasEstimates": {
					"creation": {
						"codeDepositCost": "1318600",
						"executionCost": "infinite",
						"totalCost": "infinite"
					},
					"external": {
						"DAILY_ROI()": "229",
						"PERCENTS_DIVIDER()": "230",
						"REFERRAL_PERCENTS()": "252",
						"STAKING_PERIOD()": "208",
						"TIME_STEP()": "318",
						"claim()": "infinite",
						"compound()": "infinite",
						"getUserAmountOfDeposits(address)": "2616",
						"getUserAvailable(address)": "infinite",
						"getUserCheckpoint(address)": "2621",
						"getUserDepositInfo(address,uint256)": "22286",
						"getUserDividends(address)": "infinite",
						"getUserReferralBonus(address)": "2576",
						"getUserReferralCount(address)": "2577",
						"getUserReferrer(address)": "2619",
						"getUserTotalDeposits(address)": "infinite",
						"getUserTotalWithdrawn(address)": "infinite",
						"minimumStakeValue()": "2396",
						"owner()": "2399",
						"renounceOwnership()": "28203",
						"setMinimumStakeValue(uint256)": "24509",
						"stake(address,uint256)": "infinite",
						"totalDepositCount()": "2351",
						"totalStaked()": "2330",
						"totalUsers()": "2373",
						"totalWithdrawn()": "2374",
						"transferOwnership(address)": "28375"
					}
				},
				"methodIdentifiers": {
					"DAILY_ROI()": "ab8a3c6b",
					"PERCENTS_DIVIDER()": "01c234a8",
					"REFERRAL_PERCENTS()": "44038f90",
					"STAKING_PERIOD()": "0104db1b",
					"TIME_STEP()": "32bc298c",
					"claim()": "4e71d92d",
					"compound()": "f69e2046",
					"getUserAmountOfDeposits(address)": "a8aeb6c2",
					"getUserAvailable(address)": "153ab9df",
					"getUserCheckpoint(address)": "d7ffca91",
					"getUserDepositInfo(address,uint256)": "c0806b03",
					"getUserDividends(address)": "040a772e",
					"getUserReferralBonus(address)": "e85abe09",
					"getUserReferralCount(address)": "c8a22eb4",
					"getUserReferrer(address)": "36144c9a",
					"getUserTotalDeposits(address)": "7e3abeea",
					"getUserTotalWithdrawn(address)": "fb4cb32b",
					"minimumStakeValue()": "18e1fbfc",
					"owner()": "8da5cb5b",
					"renounceOwnership()": "715018a6",
					"setMinimumStakeValue(uint256)": "4be4d790",
					"stake(address,uint256)": "adc9772e",
					"totalDepositCount()": "d6343867",
					"totalStaked()": "817b1cd2",
					"totalUsers()": "bff1f9e1",
					"totalWithdrawn()": "4b319713",
					"transferOwnership(address)": "f2fde38b"
				}
			},
			"storageLayout": {
				"storage": [
					{
						"astId": 7,
						"contract": "BCStaking.sol:BillionCashStaking",
						"label": "_owner",
						"offset": 0,
						"slot": "0",
						"type": "t_address"
					},
					{
						"astId": 1155,
						"contract": "BCStaking.sol:BillionCashStaking",
						"label": "BC",
						"offset": 0,
						"slot": "1",
						"type": "t_contract(ERC20)690"
					},
					{
						"astId": 1157,
						"contract": "BCStaking.sol:BillionCashStaking",
						"label": "totalUsers",
						"offset": 0,
						"slot": "2",
						"type": "t_uint256"
					},
					{
						"astId": 1159,
						"contract": "BCStaking.sol:BillionCashStaking",
						"label": "totalStaked",
						"offset": 0,
						"slot": "3",
						"type": "t_uint256"
					},
					{
						"astId": 1161,
						"contract": "BCStaking.sol:BillionCashStaking",
						"label": "totalWithdrawn",
						"offset": 0,
						"slot": "4",
						"type": "t_uint256"
					},
					{
						"astId": 1163,
						"contract": "BCStaking.sol:BillionCashStaking",
						"label": "totalDepositCount",
						"offset": 0,
						"slot": "5",
						"type": "t_uint256"
					},
					{
						"astId": 1170,
						"contract": "BCStaking.sol:BillionCashStaking",
						"label": "minimumStakeValue",
						"offset": 0,
						"slot": "6",
						"type": "t_uint256"
					},
					{
						"astId": 1199,
						"contract": "BCStaking.sol:BillionCashStaking",
						"label": "users",
						"offset": 0,
						"slot": "7",
						"type": "t_mapping(t_address,t_struct(User)1194_storage)"
					}
				],
				"types": {
					"t_address": {
						"encoding": "inplace",
						"label": "address",
						"numberOfBytes": "20"
					},
					"t_array(t_struct(Deposit)1181_storage)dyn_storage": {
						"base": "t_struct(Deposit)1181_storage",
						"encoding": "dynamic_array",
						"label": "struct BillionCashStaking.Deposit[]",
						"numberOfBytes": "32"
					},
					"t_bool": {
						"encoding": "inplace",
						"label": "bool",
						"numberOfBytes": "1"
					},
					"t_contract(ERC20)690": {
						"encoding": "inplace",
						"label": "contract ERC20",
						"numberOfBytes": "20"
					},
					"t_mapping(t_address,t_struct(User)1194_storage)": {
						"encoding": "mapping",
						"key": "t_address",
						"label": "mapping(address => struct BillionCashStaking.User)",
						"numberOfBytes": "32",
						"value": "t_struct(User)1194_storage"
					},
					"t_struct(Deposit)1181_storage": {
						"encoding": "inplace",
						"label": "struct BillionCashStaking.Deposit",
						"members": [
							{
								"astId": 1172,
								"contract": "BCStaking.sol:BillionCashStaking",
								"label": "amount",
								"offset": 0,
								"slot": "0",
								"type": "t_uint256"
							},
							{
								"astId": 1174,
								"contract": "BCStaking.sol:BillionCashStaking",
								"label": "withdrawn",
								"offset": 0,
								"slot": "1",
								"type": "t_uint256"
							},
							{
								"astId": 1176,
								"contract": "BCStaking.sol:BillionCashStaking",
								"label": "startTime",
								"offset": 0,
								"slot": "2",
								"type": "t_uint256"
							},
							{
								"astId": 1178,
								"contract": "BCStaking.sol:BillionCashStaking",
								"label": "endTime",
								"offset": 0,
								"slot": "3",
								"type": "t_uint256"
							},
							{
								"astId": 1180,
								"contract": "BCStaking.sol:BillionCashStaking",
								"label": "ended",
								"offset": 0,
								"slot": "4",
								"type": "t_bool"
							}
						],
						"numberOfBytes": "160"
					},
					"t_struct(User)1194_storage": {
						"encoding": "inplace",
						"label": "struct BillionCashStaking.User",
						"members": [
							{
								"astId": 1185,
								"contract": "BCStaking.sol:BillionCashStaking",
								"label": "deposits",
								"offset": 0,
								"slot": "0",
								"type": "t_array(t_struct(Deposit)1181_storage)dyn_storage"
							},
							{
								"astId": 1187,
								"contract": "BCStaking.sol:BillionCashStaking",
								"label": "checkpoint",
								"offset": 0,
								"slot": "1",
								"type": "t_uint256"
							},
							{
								"astId": 1189,
								"contract": "BCStaking.sol:BillionCashStaking",
								"label": "bonus",
								"offset": 0,
								"slot": "2",
								"type": "t_uint256"
							},
							{
								"astId": 1191,
								"contract": "BCStaking.sol:BillionCashStaking",
								"label": "referralCount",
								"offset": 0,
								"slot": "3",
								"type": "t_uint256"
							},
							{
								"astId": 1193,
								"contract": "BCStaking.sol:BillionCashStaking",
								"label": "referrer",
								"offset": 0,
								"slot": "4",
								"type": "t_address"
							}
						],
						"numberOfBytes": "160"
					},
					"t_uint256": {
						"encoding": "inplace",
						"label": "uint256",
						"numberOfBytes": "32"
					}
				}
			},
			"userdoc": {
				"kind": "user",
				"methods": {},
				"version": 1
			}
		}
	}
}