{
	"BillionCash.sol": {
		"BillionCash": {
			"abi": [
				{
					"inputs": [
						{
							"internalType": "address payable",
							"name": "_devAddress",
							"type": "address"
						}
					],
					"stateMutability": "payable",
					"type": "constructor"
				},
				{
					"anonymous": false,
					"inputs": [
						{
							"indexed": true,
							"internalType": "address",
							"name": "owner",
							"type": "address"
						},
						{
							"indexed": true,
							"internalType": "address",
							"name": "spender",
							"type": "address"
						},
						{
							"indexed": false,
							"internalType": "uint256",
							"name": "value",
							"type": "uint256"
						}
					],
					"name": "Approval",
					"type": "event"
				},
				{
					"anonymous": false,
					"inputs": [
						{
							"indexed": true,
							"internalType": "address",
							"name": "previousOwner",
							"type": "address"
						},
						{
							"indexed": true,
							"internalType": "address",
							"name": "newOwner",
							"type": "address"
						}
					],
					"name": "OwnershipTransferred",
					"type": "event"
				},
				{
					"anonymous": false,
					"inputs": [
						{
							"indexed": true,
							"internalType": "address",
							"name": "from",
							"type": "address"
						},
						{
							"indexed": true,
							"internalType": "address",
							"name": "to",
							"type": "address"
						},
						{
							"indexed": false,
							"internalType": "uint256",
							"name": "value",
							"type": "uint256"
						}
					],
					"name": "Transfer",
					"type": "event"
				},
				{
					"inputs": [],
					"name": "FEE_PERCENT",
					"outputs": [
						{
							"internalType": "uint256",
							"name": "",
							"type": "uint256"
						}
					],
					"stateMutability": "view",
					"type": "function"
				},
				{
					"inputs": [],
					"name": "PERCENTS_DIVIDER",
					"outputs": [
						{
							"internalType": "uint256",
							"name": "",
							"type": "uint256"
						}
					],
					"stateMutability": "view",
					"type": "function"
				},
				{
					"inputs": [
						{
							"internalType": "address",
							"name": "",
							"type": "address"
						}
					],
					"name": "_BCTokenBalances",
					"outputs": [
						{
							"internalType": "uint256",
							"name": "",
							"type": "uint256"
						}
					],
					"stateMutability": "view",
					"type": "function"
				},
				{
					"inputs": [
						{
							"internalType": "address",
							"name": "",
							"type": "address"
						},
						{
							"internalType": "address",
							"name": "",
							"type": "address"
						}
					],
					"name": "_allowed",
					"outputs": [
						{
							"internalType": "uint256",
							"name": "",
							"type": "uint256"
						}
					],
					"stateMutability": "view",
					"type": "function"
				},
				{
					"inputs": [
						{
							"internalType": "address",
							"name": "owner",
							"type": "address"
						},
						{
							"internalType": "address",
							"name": "spender",
							"type": "address"
						}
					],
					"name": "allowance",
					"outputs": [
						{
							"internalType": "uint256",
							"name": "",
							"type": "uint256"
						}
					],
					"stateMutability": "view",
					"type": "function"
				},
				{
					"inputs": [
						{
							"internalType": "address",
							"name": "spender",
							"type": "address"
						},
						{
							"internalType": "uint256",
							"name": "value",
							"type": "uint256"
						}
					],
					"name": "approve",
					"outputs": [
						{
							"internalType": "bool",
							"name": "",
							"type": "bool"
						}
					],
					"stateMutability": "nonpayable",
					"type": "function"
				},
				{
					"inputs": [
						{
							"internalType": "address",
							"name": "owner",
							"type": "address"
						}
					],
					"name": "balanceOf",
					"outputs": [
						{
							"internalType": "uint256",
							"name": "",
							"type": "uint256"
						}
					],
					"stateMutability": "view",
					"type": "function"
				},
				{
					"inputs": [],
					"name": "decimals",
					"outputs": [
						{
							"internalType": "uint8",
							"name": "",
							"type": "uint8"
						}
					],
					"stateMutability": "pure",
					"type": "function"
				},
				{
					"inputs": [
						{
							"internalType": "address",
							"name": "spender",
							"type": "address"
						},
						{
							"internalType": "uint256",
							"name": "subtractedValue",
							"type": "uint256"
						}
					],
					"name": "decreaseAllowance",
					"outputs": [
						{
							"internalType": "bool",
							"name": "",
							"type": "bool"
						}
					],
					"stateMutability": "nonpayable",
					"type": "function"
				},
				{
					"inputs": [
						{
							"internalType": "address",
							"name": "spender",
							"type": "address"
						},
						{
							"internalType": "uint256",
							"name": "addedValue",
							"type": "uint256"
						}
					],
					"name": "increaseAllowance",
					"outputs": [
						{
							"internalType": "bool",
							"name": "",
							"type": "bool"
						}
					],
					"stateMutability": "nonpayable",
					"type": "function"
				},
				{
					"inputs": [],
					"name": "name",
					"outputs": [
						{
							"internalType": "string",
							"name": "",
							"type": "string"
						}
					],
					"stateMutability": "pure",
					"type": "function"
				},
				{
					"inputs": [],
					"name": "owner",
					"outputs": [
						{
							"internalType": "address",
							"name": "",
							"type": "address"
						}
					],
					"stateMutability": "view",
					"type": "function"
				},
				{
					"inputs": [],
					"name": "renounceOwnership",
					"outputs": [],
					"stateMutability": "nonpayable",
					"type": "function"
				},
				{
					"inputs": [
						{
							"internalType": "address payable",
							"name": "_devAddress",
							"type": "address"
						}
					],
					"name": "setDevAddress",
					"outputs": [],
					"stateMutability": "nonpayable",
					"type": "function"
				},
				{
					"inputs": [],
					"name": "symbol",
					"outputs": [
						{
							"internalType": "string",
							"name": "",
							"type": "string"
						}
					],
					"stateMutability": "pure",
					"type": "function"
				},
				{
					"inputs": [],
					"name": "totalSupply",
					"outputs": [
						{
							"internalType": "uint256",
							"name": "",
							"type": "uint256"
						}
					],
					"stateMutability": "view",
					"type": "function"
				},
				{
					"inputs": [
						{
							"internalType": "address",
							"name": "to",
							"type": "address"
						},
						{
							"internalType": "uint256",
							"name": "value",
							"type": "uint256"
						}
					],
					"name": "transfer",
					"outputs": [
						{
							"internalType": "bool",
							"name": "",
							"type": "bool"
						}
					],
					"stateMutability": "nonpayable",
					"type": "function"
				},
				{
					"inputs": [
						{
							"internalType": "address",
							"name": "from",
							"type": "address"
						},
						{
							"internalType": "address",
							"name": "to",
							"type": "address"
						},
						{
							"internalType": "uint256",
							"name": "value",
							"type": "uint256"
						}
					],
					"name": "transferFrom",
					"outputs": [
						{
							"internalType": "bool",
							"name": "",
							"type": "bool"
						}
					],
					"stateMutability": "nonpayable",
					"type": "function"
				},
				{
					"inputs": [
						{
							"internalType": "address",
							"name": "newOwner",
							"type": "address"
						}
					],
					"name": "transferOwnership",
					"outputs": [],
					"stateMutability": "nonpayable",
					"type": "function"
				}
			],
			"devdoc": {
				"kind": "dev",
				"methods": {
					"owner()": {
						"details": "Returns the address of the current owner."
					},
					"renounceOwnership()": {
						"details": "Leaves the contract without owner. It will not be possible to call `onlyOwner` functions anymore. Can only be called by the current owner. NOTE: Renouncing ownership will leave the contract without an owner, thereby removing any functionality that is only available to the owner."
					},
					"transferOwnership(address)": {
						"details": "Transfers ownership of the contract to a new account (`newOwner`). Can only be called by the current owner."
					}
				},
				"version": 1
			},
			"evm": {
				"assembly": "    /* \"BillionCash.sol\":186:5673  contract BillionCash is Ownable {... */\n  mstore(0x40, 0x80)\n    /* \"BillionCash.sol\":546:572  10**uint256(tokenDecimals) */\n  tag_1\n    /* \"BillionCash.sol\":506:508  18 */\n  0x12\n    /* \"BillionCash.sol\":546:548  10 */\n  0x0a\n    /* \"BillionCash.sol\":546:572  10**uint256(tokenDecimals) */\n  tag_2\n  jump\t// in\ntag_1:\n    /* \"BillionCash.sol\":538:572  50000 * 10**uint256(tokenDecimals) */\n  tag_3\n  swap1\n    /* \"BillionCash.sol\":538:543  50000 */\n  0xc350\n    /* \"BillionCash.sol\":538:572  50000 * 10**uint256(tokenDecimals) */\n  tag_4\n  jump\t// in\ntag_3:\n    /* \"BillionCash.sol\":515:572  uint256 _totalSupply = 50000 * 10**uint256(tokenDecimals) */\n  0x03\n  sstore\n    /* \"BillionCash.sol\":987:1125  constructor(address payable _devAddress) payable {... */\n  mload(0x40)\n  sub(codesize, bytecodeSize)\n  dup1\n  bytecodeSize\n  dup4\n  codecopy\n  dup2\n  add\n  0x40\n  dup2\n  swap1\n  mstore\n  tag_5\n  swap2\n  tag_6\n  jump\t// in\ntag_5:\n    /* \"@openzeppelin/contracts/access/Ownable.sol\":921:953  _transferOwnership(_msgSender()) */\n  tag_10\n    /* \"@openzeppelin/contracts/utils/Context.sol\":719:729  msg.sender */\n  caller\n    /* \"@openzeppelin/contracts/access/Ownable.sol\":921:939  _transferOwnership */\n  tag_13\n    /* \"@openzeppelin/contracts/access/Ownable.sol\":921:953  _transferOwnership(_msgSender()) */\n  jump\t// in\ntag_10:\n    /* \"BillionCash.sol\":1047:1059  adminAddress */\n  0x06\n    /* \"BillionCash.sol\":1047:1073  adminAddress = _devAddress */\n  dup1\n  sload\n  not(sub(shl(0xa0, 0x01), 0x01))\n  and\n  sub(shl(0xa0, 0x01), 0x01)\n  dup4\n  and\n  swap1\n  dup2\n  or\n  swap1\n  swap2\n  sstore\n    /* \"BillionCash.sol\":1104:1116  _totalSupply */\n  sload(0x03)\n    /* \"BillionCash.sol\":1084:1117  _mint(adminAddress, _totalSupply) */\n  tag_15\n  swap2\n    /* \"BillionCash.sol\":1047:1073  adminAddress = _devAddress */\n  swap1\n    /* \"BillionCash.sol\":1084:1089  _mint */\n  tag_16\n    /* \"BillionCash.sol\":1084:1117  _mint(adminAddress, _totalSupply) */\n  jump\t// in\ntag_15:\n    /* \"BillionCash.sol\":987:1125  constructor(address payable _devAddress) payable {... */\n  pop\n    /* \"BillionCash.sol\":186:5673  contract BillionCash is Ownable {... */\n  jump(tag_32)\n    /* \"@openzeppelin/contracts/access/Ownable.sol\":2270:2457  function _transferOwnership(address newOwner) internal virtual {... */\ntag_13:\n    /* \"@openzeppelin/contracts/access/Ownable.sol\":2343:2359  address oldOwner */\n  0x00\n    /* \"@openzeppelin/contracts/access/Ownable.sol\":2362:2368  _owner */\n  dup1\n  sload\n  sub(shl(0xa0, 0x01), 0x01)\n    /* \"@openzeppelin/contracts/access/Ownable.sol\":2378:2395  _owner = newOwner */\n  dup4\n  dup2\n  and\n  not(sub(shl(0xa0, 0x01), 0x01))\n  dup4\n  and\n  dup2\n  or\n  dup5\n  sstore\n    /* \"@openzeppelin/contracts/access/Ownable.sol\":2410:2450  OwnershipTransferred(oldOwner, newOwner) */\n  mload(0x40)\n    /* \"@openzeppelin/contracts/access/Ownable.sol\":2362:2368  _owner */\n  swap2\n  swap1\n  swap3\n  and\n  swap3\n  dup4\n  swap2\n    /* \"@openzeppelin/contracts/access/Ownable.sol\":2410:2450  OwnershipTransferred(oldOwner, newOwner) */\n  0x8be0079c531659141344cd1fd0a4f28419497f9722a3daafe3b4186f6b6457e0\n  swap2\n    /* \"@openzeppelin/contracts/access/Ownable.sol\":2343:2359  address oldOwner */\n  swap1\n    /* \"@openzeppelin/contracts/access/Ownable.sol\":2410:2450  OwnershipTransferred(oldOwner, newOwner) */\n  log3\n    /* \"@openzeppelin/contracts/access/Ownable.sol\":2333:2457  {... */\n  pop\n    /* \"@openzeppelin/contracts/access/Ownable.sol\":2270:2457  function _transferOwnership(address newOwner) internal virtual {... */\n  pop\n  jump\t// out\n    /* \"BillionCash.sol\":5321:5546  function _mint(address account, uint256 amount) internal {... */\ntag_16:\n    /* \"BillionCash.sol\":5397:5408  amount != 0 */\n  dup1\n    /* \"BillionCash.sol\":5389:5409  require(amount != 0) */\n  tag_21\n  jumpi\n  0x00\n  dup1\n  revert\ntag_21:\n  sub(shl(0xa0, 0x01), 0x01)\n    /* \"BillionCash.sol\":5448:5473  _BCTokenBalances[account] */\n  dup3\n  and\n  0x00\n  swap1\n  dup2\n  mstore\n    /* \"BillionCash.sol\":5448:5464  _BCTokenBalances */\n  0x01\n    /* \"BillionCash.sol\":5448:5473  _BCTokenBalances[account] */\n  0x20\n  swap1\n  dup2\n  mstore\n  0x40\n  swap1\n  swap2\n  keccak256\n  sload\n    /* \"BillionCash.sol\":5448:5485  _BCTokenBalances[account].add(amount) */\n  tag_22\n  swap2\n    /* \"BillionCash.sol\":5478:5484  amount */\n  dup4\n  swap1\n    /* \"BillionCash.sol\":5448:5477  _BCTokenBalances[account].add */\n  tag_0_100\n  tag_23\n  dup3\n  shl\n  or\n    /* \"BillionCash.sol\":5448:5485  _BCTokenBalances[account].add(amount) */\n  swap1\n  shr\n  jump\t// in\ntag_22:\n  sub(shl(0xa0, 0x01), 0x01)\n    /* \"BillionCash.sol\":5420:5445  _BCTokenBalances[account] */\n  dup4\n  and\n  0x00\n  dup2\n  dup2\n  mstore\n    /* \"BillionCash.sol\":5420:5436  _BCTokenBalances */\n  0x01\n    /* \"BillionCash.sol\":5420:5445  _BCTokenBalances[account] */\n  0x20\n  mstore\n  0x40\n  dup1\n  dup3\n  keccak256\n    /* \"BillionCash.sol\":5420:5485  _BCTokenBalances[account] = _BCTokenBalances[account].add(amount) */\n  swap4\n  swap1\n  swap4\n  sstore\n    /* \"BillionCash.sol\":5501:5538  Transfer(address(0), account, amount) */\n  swap2\n  mload\n    /* \"BillionCash.sol\":5420:5445  _BCTokenBalances[account] */\n  swap1\n  swap2\n  swap1\n    /* \"BillionCash.sol\":5501:5538  Transfer(address(0), account, amount) */\n  0xddf252ad1be2c89b69c2b068fc378daa952ba7f163c4a11628f55a4df523b3ef\n  swap1\n  tag_24\n  swap1\n    /* \"BillionCash.sol\":5531:5537  amount */\n  dup6\n    /* \"#utility.yul\":2142:2167   */\n  dup2\n  mstore\n    /* \"#utility.yul\":2130:2132   */\n  0x20\n    /* \"#utility.yul\":2115:2133   */\n  add\n  swap1\n    /* \"#utility.yul\":1996:2173   */\n  jump\n    /* \"BillionCash.sol\":5501:5538  Transfer(address(0), account, amount) */\ntag_24:\n  mload(0x40)\n  dup1\n  swap2\n  sub\n  swap1\n  log3\n    /* \"BillionCash.sol\":5321:5546  function _mint(address account, uint256 amount) internal {... */\n  pop\n  pop\n  jump\t// out\n    /* \"@openzeppelin/contracts/utils/math/SafeMath.sol\":2755:2851  function add(uint256 a, uint256 b) internal pure returns (uint256) {... */\ntag_23:\n    /* \"@openzeppelin/contracts/utils/math/SafeMath.sol\":2813:2820  uint256 */\n  0x00\n    /* \"@openzeppelin/contracts/utils/math/SafeMath.sol\":2839:2844  a + b */\n  tag_27\n    /* \"@openzeppelin/contracts/utils/math/SafeMath.sol\":2843:2844  b */\n  dup3\n    /* \"@openzeppelin/contracts/utils/math/SafeMath.sol\":2839:2840  a */\n  dup5\n    /* \"@openzeppelin/contracts/utils/math/SafeMath.sol\":2839:2844  a + b */\n  tag_28\n  jump\t// in\ntag_27:\n    /* \"@openzeppelin/contracts/utils/math/SafeMath.sol\":2832:2844  return a + b */\n  swap1\n  pop\n    /* \"@openzeppelin/contracts/utils/math/SafeMath.sol\":2755:2851  function add(uint256 a, uint256 b) internal pure returns (uint256) {... */\ntag_26:\n  swap3\n  swap2\n  pop\n  pop\n  jump\t// out\n    /* \"#utility.yul\":14:141   */\ntag_29:\n    /* \"#utility.yul\":75:85   */\n  0x4e487b71\n    /* \"#utility.yul\":70:73   */\n  0xe0\n    /* \"#utility.yul\":66:86   */\n  shl\n    /* \"#utility.yul\":63:64   */\n  0x00\n    /* \"#utility.yul\":56:87   */\n  mstore\n    /* \"#utility.yul\":106:110   */\n  0x11\n    /* \"#utility.yul\":103:104   */\n  0x04\n    /* \"#utility.yul\":96:111   */\n  mstore\n    /* \"#utility.yul\":130:134   */\n  0x24\n    /* \"#utility.yul\":127:128   */\n  0x00\n    /* \"#utility.yul\":120:135   */\n  revert\n    /* \"#utility.yul\":146:568   */\ntag_30:\n    /* \"#utility.yul\":235:236   */\n  0x01\n    /* \"#utility.yul\":278:283   */\n  dup2\n    /* \"#utility.yul\":235:236   */\n  dup2\n    /* \"#utility.yul\":292:562   */\ntag_35:\n    /* \"#utility.yul\":313:320   */\n  dup1\n    /* \"#utility.yul\":303:311   */\n  dup6\n    /* \"#utility.yul\":300:321   */\n  gt\n    /* \"#utility.yul\":292:562   */\n  iszero\n  tag_37\n  jumpi\n    /* \"#utility.yul\":372:376   */\n  dup2\n    /* \"#utility.yul\":368:369   */\n  0x00\n    /* \"#utility.yul\":364:370   */\n  not\n    /* \"#utility.yul\":360:377   */\n  div\n    /* \"#utility.yul\":354:358   */\n  dup3\n    /* \"#utility.yul\":351:378   */\n  gt\n    /* \"#utility.yul\":348:401   */\n  iszero\n  tag_39\n  jumpi\n    /* \"#utility.yul\":381:399   */\n  tag_39\n  tag_29\n  jump\t// in\ntag_39:\n    /* \"#utility.yul\":431:438   */\n  dup1\n    /* \"#utility.yul\":421:429   */\n  dup6\n    /* \"#utility.yul\":417:439   */\n  and\n    /* \"#utility.yul\":414:469   */\n  iszero\n  tag_40\n  jumpi\n    /* \"#utility.yul\":451:467   */\n  swap2\n  dup2\n  mul\n  swap2\n    /* \"#utility.yul\":414:469   */\ntag_40:\n    /* \"#utility.yul\":530:552   */\n  swap4\n  dup5\n  shr\n  swap4\n    /* \"#utility.yul\":490:505   */\n  swap1\n  dup1\n  mul\n  swap1\n    /* \"#utility.yul\":292:562   */\n  jump(tag_35)\ntag_37:\n    /* \"#utility.yul\":296:299   */\n  pop\n    /* \"#utility.yul\":146:568   */\n  swap3\n  pop\n  swap3\n  swap1\n  pop\n  jump\t// out\n    /* \"#utility.yul\":573:1379   */\ntag_31:\n    /* \"#utility.yul\":622:627   */\n  0x00\n    /* \"#utility.yul\":652:660   */\n  dup3\n    /* \"#utility.yul\":642:722   */\n  tag_42\n  jumpi\n  pop\n    /* \"#utility.yul\":693:694   */\n  0x01\n    /* \"#utility.yul\":707:712   */\n  jump(tag_26)\n    /* \"#utility.yul\":642:722   */\ntag_42:\n    /* \"#utility.yul\":741:745   */\n  dup2\n    /* \"#utility.yul\":731:807   */\n  tag_43\n  jumpi\n  pop\n    /* \"#utility.yul\":778:779   */\n  0x00\n    /* \"#utility.yul\":792:797   */\n  jump(tag_26)\n    /* \"#utility.yul\":731:807   */\ntag_43:\n    /* \"#utility.yul\":823:827   */\n  dup2\n    /* \"#utility.yul\":841:842   */\n  0x01\n    /* \"#utility.yul\":836:895   */\n  dup2\n  eq\n  tag_45\n  jumpi\n    /* \"#utility.yul\":909:910   */\n  0x02\n    /* \"#utility.yul\":904:1034   */\n  dup2\n  eq\n  tag_46\n  jumpi\n    /* \"#utility.yul\":816:1034   */\n  jump(tag_44)\n    /* \"#utility.yul\":836:895   */\ntag_45:\n    /* \"#utility.yul\":866:867   */\n  0x01\n    /* \"#utility.yul\":857:867   */\n  swap2\n  pop\n    /* \"#utility.yul\":880:885   */\n  pop\n  jump(tag_26)\n    /* \"#utility.yul\":904:1034   */\ntag_46:\n    /* \"#utility.yul\":941:944   */\n  0xff\n    /* \"#utility.yul\":931:939   */\n  dup5\n    /* \"#utility.yul\":928:945   */\n  gt\n    /* \"#utility.yul\":925:968   */\n  iszero\n  tag_48\n  jumpi\n    /* \"#utility.yul\":948:966   */\n  tag_48\n  tag_29\n  jump\t// in\ntag_48:\n  pop\n  pop\n    /* \"#utility.yul\":1004:1005   */\n  0x01\n    /* \"#utility.yul\":990:1006   */\n  dup3\n  shl\n    /* \"#utility.yul\":1019:1024   */\n  jump(tag_26)\n    /* \"#utility.yul\":816:1034   */\ntag_44:\n  pop\n    /* \"#utility.yul\":1118:1120   */\n  0x20\n    /* \"#utility.yul\":1108:1116   */\n  dup4\n    /* \"#utility.yul\":1105:1121   */\n  lt\n    /* \"#utility.yul\":1099:1102   */\n  0x0133\n    /* \"#utility.yul\":1093:1097   */\n  dup4\n    /* \"#utility.yul\":1090:1103   */\n  lt\n    /* \"#utility.yul\":1086:1122   */\n  and\n    /* \"#utility.yul\":1080:1082   */\n  0x4e\n    /* \"#utility.yul\":1070:1078   */\n  dup5\n    /* \"#utility.yul\":1067:1083   */\n  lt\n    /* \"#utility.yul\":1062:1064   */\n  0x0b\n    /* \"#utility.yul\":1056:1060   */\n  dup5\n    /* \"#utility.yul\":1053:1065   */\n  lt\n    /* \"#utility.yul\":1049:1084   */\n  and\n    /* \"#utility.yul\":1046:1123   */\n  or\n    /* \"#utility.yul\":1043:1202   */\n  iszero\n  tag_49\n  jumpi\n  pop\n    /* \"#utility.yul\":1155:1174   */\n  dup2\n  dup2\n  exp\n    /* \"#utility.yul\":1187:1192   */\n  jump(tag_26)\n    /* \"#utility.yul\":1043:1202   */\ntag_49:\n    /* \"#utility.yul\":1234:1268   */\n  tag_50\n    /* \"#utility.yul\":1259:1267   */\n  dup4\n    /* \"#utility.yul\":1253:1257   */\n  dup4\n    /* \"#utility.yul\":1234:1268   */\n  tag_30\n  jump\t// in\ntag_50:\n    /* \"#utility.yul\":1304:1310   */\n  dup1\n    /* \"#utility.yul\":1300:1301   */\n  0x00\n    /* \"#utility.yul\":1296:1302   */\n  not\n    /* \"#utility.yul\":1292:1311   */\n  div\n    /* \"#utility.yul\":1283:1290   */\n  dup3\n    /* \"#utility.yul\":1280:1312   */\n  gt\n    /* \"#utility.yul\":1277:1335   */\n  iszero\n  tag_52\n  jumpi\n    /* \"#utility.yul\":1315:1333   */\n  tag_52\n  tag_29\n  jump\t// in\ntag_52:\n    /* \"#utility.yul\":1353:1373   */\n  mul\n  swap4\n    /* \"#utility.yul\":573:1379   */\n  swap3\n  pop\n  pop\n  pop\n  jump\t// out\n    /* \"#utility.yul\":1384:1515   */\ntag_2:\n    /* \"#utility.yul\":1444:1449   */\n  0x00\n    /* \"#utility.yul\":1473:1509   */\n  tag_27\n    /* \"#utility.yul\":1500:1508   */\n  dup4\n    /* \"#utility.yul\":1494:1498   */\n  dup4\n    /* \"#utility.yul\":1473:1509   */\n  tag_31\n  jump\t// in\n    /* \"#utility.yul\":1520:1688   */\ntag_4:\n    /* \"#utility.yul\":1560:1567   */\n  0x00\n    /* \"#utility.yul\":1626:1627   */\n  dup2\n    /* \"#utility.yul\":1622:1623   */\n  0x00\n    /* \"#utility.yul\":1618:1624   */\n  not\n    /* \"#utility.yul\":1614:1628   */\n  div\n    /* \"#utility.yul\":1611:1612   */\n  dup4\n    /* \"#utility.yul\":1608:1629   */\n  gt\n    /* \"#utility.yul\":1603:1604   */\n  dup3\n    /* \"#utility.yul\":1596:1605   */\n  iszero\n    /* \"#utility.yul\":1589:1606   */\n  iszero\n    /* \"#utility.yul\":1585:1630   */\n  and\n    /* \"#utility.yul\":1582:1653   */\n  iszero\n  tag_57\n  jumpi\n    /* \"#utility.yul\":1633:1651   */\n  tag_57\n  tag_29\n  jump\t// in\ntag_57:\n  pop\n    /* \"#utility.yul\":1673:1682   */\n  mul\n  swap1\n    /* \"#utility.yul\":1520:1688   */\n  jump\t// out\n    /* \"#utility.yul\":1693:1991   */\ntag_6:\n    /* \"#utility.yul\":1771:1777   */\n  0x00\n    /* \"#utility.yul\":1824:1826   */\n  0x20\n    /* \"#utility.yul\":1812:1821   */\n  dup3\n    /* \"#utility.yul\":1803:1810   */\n  dup5\n    /* \"#utility.yul\":1799:1822   */\n  sub\n    /* \"#utility.yul\":1795:1827   */\n  slt\n    /* \"#utility.yul\":1792:1844   */\n  iszero\n  tag_59\n  jumpi\n    /* \"#utility.yul\":1840:1841   */\n  0x00\n    /* \"#utility.yul\":1837:1838   */\n  dup1\n    /* \"#utility.yul\":1830:1842   */\n  revert\n    /* \"#utility.yul\":1792:1844   */\ntag_59:\n    /* \"#utility.yul\":1866:1882   */\n  dup2\n  mload\n  sub(shl(0xa0, 0x01), 0x01)\n    /* \"#utility.yul\":1911:1942   */\n  dup2\n  and\n    /* \"#utility.yul\":1901:1943   */\n  dup2\n  eq\n    /* \"#utility.yul\":1891:1961   */\n  tag_60\n  jumpi\n    /* \"#utility.yul\":1957:1958   */\n  0x00\n    /* \"#utility.yul\":1954:1955   */\n  dup1\n    /* \"#utility.yul\":1947:1959   */\n  revert\n    /* \"#utility.yul\":1891:1961   */\ntag_60:\n    /* \"#utility.yul\":1980:1985   */\n  swap4\n    /* \"#utility.yul\":1693:1991   */\n  swap3\n  pop\n  pop\n  pop\n  jump\t// out\n    /* \"#utility.yul\":2178:2306   */\ntag_28:\n    /* \"#utility.yul\":2218:2221   */\n  0x00\n    /* \"#utility.yul\":2249:2250   */\n  dup3\n    /* \"#utility.yul\":2245:2251   */\n  not\n    /* \"#utility.yul\":2242:2243   */\n  dup3\n    /* \"#utility.yul\":2239:2252   */\n  gt\n    /* \"#utility.yul\":2236:2275   */\n  iszero\n  tag_64\n  jumpi\n    /* \"#utility.yul\":2255:2273   */\n  tag_64\n  tag_29\n  jump\t// in\ntag_64:\n  pop\n    /* \"#utility.yul\":2291:2300   */\n  add\n  swap1\n    /* \"#utility.yul\":2178:2306   */\n  jump\t// out\ntag_32:\n    /* \"BillionCash.sol\":186:5673  contract BillionCash is Ownable {... */\n  dataSize(sub_0)\n  dup1\n  dataOffset(sub_0)\n  0x00\n  codecopy\n  0x00\n  return\nstop\n\nsub_0: assembly {\n        /* \"BillionCash.sol\":186:5673  contract BillionCash is Ownable {... */\n      mstore(0x40, 0x80)\n      callvalue\n      dup1\n      iszero\n      tag_1\n      jumpi\n      0x00\n      dup1\n      revert\n    tag_1:\n      pop\n      jumpi(tag_2, lt(calldatasize, 0x04))\n      shr(0xe0, calldataload(0x00))\n      dup1\n      0x7711c596\n      gt\n      tag_22\n      jumpi\n      dup1\n      0xba0fb861\n      gt\n      tag_23\n      jumpi\n      dup1\n      0xba0fb861\n      eq\n      tag_17\n      jumpi\n      dup1\n      0xd0d41fe1\n      eq\n      tag_18\n      jumpi\n      dup1\n      0xdd62ed3e\n      eq\n      tag_19\n      jumpi\n      dup1\n      0xeaf98d23\n      eq\n      tag_20\n      jumpi\n      dup1\n      0xf2fde38b\n      eq\n      tag_21\n      jumpi\n      0x00\n      dup1\n      revert\n    tag_23:\n      dup1\n      0x7711c596\n      eq\n      tag_12\n      jumpi\n      dup1\n      0x8da5cb5b\n      eq\n      tag_13\n      jumpi\n      dup1\n      0x95d89b41\n      eq\n      tag_14\n      jumpi\n      dup1\n      0xa457c2d7\n      eq\n      tag_15\n      jumpi\n      dup1\n      0xa9059cbb\n      eq\n      tag_16\n      jumpi\n      0x00\n      dup1\n      revert\n    tag_22:\n      dup1\n      0x23b872dd\n      gt\n      tag_24\n      jumpi\n      dup1\n      0x23b872dd\n      eq\n      tag_7\n      jumpi\n      dup1\n      0x313ce567\n      eq\n      tag_8\n      jumpi\n      dup1\n      0x39509351\n      eq\n      tag_9\n      jumpi\n      dup1\n      0x70a08231\n      eq\n      tag_10\n      jumpi\n      dup1\n      0x715018a6\n      eq\n      tag_11\n      jumpi\n      0x00\n      dup1\n      revert\n    tag_24:\n      dup1\n      0x01c234a8\n      eq\n      tag_3\n      jumpi\n      dup1\n      0x06fdde03\n      eq\n      tag_4\n      jumpi\n      dup1\n      0x095ea7b3\n      eq\n      tag_5\n      jumpi\n      dup1\n      0x18160ddd\n      eq\n      tag_6\n      jumpi\n    tag_2:\n      0x00\n      dup1\n      revert\n        /* \"BillionCash.sol\":686:733  uint256 public constant PERCENTS_DIVIDER = 1000 */\n    tag_3:\n      tag_25\n        /* \"BillionCash.sol\":729:733  1000 */\n      0x03e8\n        /* \"BillionCash.sol\":686:733  uint256 public constant PERCENTS_DIVIDER = 1000 */\n      dup2\n      jump\n    tag_25:\n      mload(0x40)\n        /* \"#utility.yul\":160:185   */\n      swap1\n      dup2\n      mstore\n        /* \"#utility.yul\":148:150   */\n      0x20\n        /* \"#utility.yul\":133:151   */\n      add\n        /* \"BillionCash.sol\":686:733  uint256 public constant PERCENTS_DIVIDER = 1000 */\n    tag_27:\n      mload(0x40)\n      dup1\n      swap2\n      sub\n      swap1\n      return\n        /* \"BillionCash.sol\":1133:1220  function name() public pure returns (string memory) {... */\n    tag_4:\n        /* \"BillionCash.sol\":1203:1212  tokenName */\n      0x40\n      dup1\n      mload\n      dup1\n      dup3\n      add\n      swap1\n      swap2\n      mstore\n      0x0b\n      dup2\n      mstore\n      shl(0xab, 0x084d2d8d8d2dedc86c2e6d)\n      0x20\n      dup3\n      add\n      mstore\n        /* \"BillionCash.sol\":1133:1220  function name() public pure returns (string memory) {... */\n    tag_29:\n      mload(0x40)\n      tag_27\n      swap2\n      swap1\n      tag_32\n      jump\t// in\n        /* \"BillionCash.sol\":3003:3245  function approve(address spender, uint256 value) public returns (bool) {... */\n    tag_5:\n      tag_33\n      tag_34\n      calldatasize\n      0x04\n      tag_35\n      jump\t// in\n    tag_34:\n      tag_36\n      jump\t// in\n    tag_33:\n      mload(0x40)\n        /* \"#utility.yul\":1419:1433   */\n      swap1\n      iszero\n        /* \"#utility.yul\":1412:1434   */\n      iszero\n        /* \"#utility.yul\":1394:1435   */\n      dup2\n      mstore\n        /* \"#utility.yul\":1382:1384   */\n      0x20\n        /* \"#utility.yul\":1367:1385   */\n      add\n        /* \"BillionCash.sol\":3003:3245  function approve(address spender, uint256 value) public returns (bool) {... */\n      tag_27\n        /* \"#utility.yul\":1254:1441   */\n      jump\n        /* \"BillionCash.sol\":1422:1513  function totalSupply() public view returns (uint256) {... */\n    tag_6:\n        /* \"BillionCash.sol\":1493:1505  _totalSupply */\n      sload(0x03)\n        /* \"BillionCash.sol\":1422:1513  function totalSupply() public view returns (uint256) {... */\n      jump(tag_25)\n        /* \"BillionCash.sol\":3253:4547  function transferFrom(... */\n    tag_7:\n      tag_33\n      tag_43\n      calldatasize\n      0x04\n      tag_44\n      jump\t// in\n    tag_43:\n      tag_45\n      jump\t// in\n        /* \"BillionCash.sol\":1327:1414  function decimals() public pure returns (uint8) {... */\n    tag_8:\n      mload(0x40)\n        /* \"BillionCash.sol\":506:508  18 */\n      0x12\n        /* \"#utility.yul\":2049:2085   */\n      dup2\n      mstore\n        /* \"#utility.yul\":2037:2039   */\n      0x20\n        /* \"#utility.yul\":2022:2040   */\n      add\n        /* \"BillionCash.sol\":1327:1414  function decimals() public pure returns (uint8) {... */\n      tag_27\n        /* \"#utility.yul\":1907:2091   */\n      jump\n        /* \"BillionCash.sol\":4555:4925  function increaseAllowance(address spender, uint256 addedValue)... */\n    tag_9:\n      tag_33\n      tag_52\n      calldatasize\n      0x04\n      tag_35\n      jump\t// in\n    tag_52:\n      tag_53\n      jump\t// in\n        /* \"BillionCash.sol\":1521:1634  function balanceOf(address owner) public view returns (uint256) {... */\n    tag_10:\n      tag_25\n      tag_56\n      calldatasize\n      0x04\n      tag_57\n      jump\t// in\n    tag_56:\n      sub(shl(0xa0, 0x01), 0x01)\n        /* \"BillionCash.sol\":1603:1626  _BCTokenBalances[owner] */\n      and\n        /* \"BillionCash.sol\":1576:1583  uint256 */\n      0x00\n        /* \"BillionCash.sol\":1603:1626  _BCTokenBalances[owner] */\n      swap1\n      dup2\n      mstore\n        /* \"BillionCash.sol\":1603:1619  _BCTokenBalances */\n      0x01\n        /* \"BillionCash.sol\":1603:1626  _BCTokenBalances[owner] */\n      0x20\n      mstore\n      0x40\n      swap1\n      keccak256\n      sload\n      swap1\n        /* \"BillionCash.sol\":1521:1634  function balanceOf(address owner) public view returns (uint256) {... */\n      jump\n        /* \"@openzeppelin/contracts/access/Ownable.sol\":1668:1769  function renounceOwnership() public virtual onlyOwner {... */\n    tag_11:\n      tag_60\n      tag_61\n      jump\t// in\n    tag_60:\n      stop\n        /* \"BillionCash.sol\":258:309  mapping(address => uint256) public _BCTokenBalances */\n    tag_12:\n      tag_25\n      tag_63\n      calldatasize\n      0x04\n      tag_57\n      jump\t// in\n    tag_63:\n      mstore(0x20, 0x01)\n      0x00\n      swap1\n      dup2\n      mstore\n      0x40\n      swap1\n      keccak256\n      sload\n      dup2\n      jump\n        /* \"@openzeppelin/contracts/access/Ownable.sol\":1036:1121  function owner() public view virtual returns (address) {... */\n    tag_13:\n        /* \"@openzeppelin/contracts/access/Ownable.sol\":1082:1089  address */\n      0x00\n        /* \"@openzeppelin/contracts/access/Ownable.sol\":1108:1114  _owner */\n      sload\n        /* \"@openzeppelin/contracts/access/Ownable.sol\":1036:1121  function owner() public view virtual returns (address) {... */\n      mload(0x40)\n      sub(shl(0xa0, 0x01), 0x01)\n        /* \"@openzeppelin/contracts/access/Ownable.sol\":1108:1114  _owner */\n      swap1\n      swap2\n      and\n        /* \"#utility.yul\":2494:2545   */\n      dup2\n      mstore\n        /* \"#utility.yul\":2482:2484   */\n      0x20\n        /* \"#utility.yul\":2467:2485   */\n      add\n        /* \"@openzeppelin/contracts/access/Ownable.sol\":1036:1121  function owner() public view virtual returns (address) {... */\n      tag_27\n        /* \"#utility.yul\":2348:2551   */\n      jump\n        /* \"BillionCash.sol\":1228:1319  function symbol() public pure returns (string memory) {... */\n    tag_14:\n        /* \"BillionCash.sol\":1300:1311  tokenSymbol */\n      0x40\n      dup1\n      mload\n      dup1\n      dup3\n      add\n      swap1\n      swap2\n      mstore\n      0x02\n      dup2\n      mstore\n      shl(0xf0, 0x4243)\n      0x20\n      dup3\n      add\n      mstore\n        /* \"BillionCash.sol\":1228:1319  function symbol() public pure returns (string memory) {... */\n      jump(tag_29)\n        /* \"BillionCash.sol\":4933:5313  function decreaseAllowance(address spender, uint256 subtractedValue)... */\n    tag_15:\n      tag_33\n      tag_74\n      calldatasize\n      0x04\n      tag_35\n      jump\t// in\n    tag_74:\n      tag_75\n      jump\t// in\n        /* \"BillionCash.sol\":1642:2824  function transfer(address to, uint256 value) public returns (bool) {... */\n    tag_16:\n      tag_33\n      tag_78\n      calldatasize\n      0x04\n      tag_35\n      jump\t// in\n    tag_78:\n      tag_79\n      jump\t// in\n        /* \"BillionCash.sol\":316:379  mapping(address => mapping(address => uint256)) public _allowed */\n    tag_17:\n      tag_25\n      tag_82\n      calldatasize\n      0x04\n      tag_83\n      jump\t// in\n    tag_82:\n      0x02\n      0x20\n      swap1\n      dup2\n      mstore\n      0x00\n      swap3\n      dup4\n      mstore\n      0x40\n      dup1\n      dup5\n      keccak256\n      swap1\n      swap2\n      mstore\n      swap1\n      dup3\n      mstore\n      swap1\n      keccak256\n      sload\n      dup2\n      jump\n        /* \"BillionCash.sol\":5554:5670  function setDevAddress(address payable _devAddress) external onlyOwner {... */\n    tag_18:\n      tag_60\n      tag_87\n      calldatasize\n      0x04\n      tag_57\n      jump\t// in\n    tag_87:\n      tag_89\n      jump\t// in\n        /* \"BillionCash.sol\":2832:2995  function allowance(address owner, address spender)... */\n    tag_19:\n      tag_25\n      tag_91\n      calldatasize\n      0x04\n      tag_83\n      jump\t// in\n    tag_91:\n      sub(shl(0xa0, 0x01), 0x01)\n        /* \"BillionCash.sol\":2963:2978  _allowed[owner] */\n      swap2\n      dup3\n      and\n        /* \"BillionCash.sol\":2931:2938  uint256 */\n      0x00\n        /* \"BillionCash.sol\":2963:2978  _allowed[owner] */\n      swap1\n      dup2\n      mstore\n        /* \"BillionCash.sol\":2963:2971  _allowed */\n      0x02\n        /* \"BillionCash.sol\":2963:2978  _allowed[owner] */\n      0x20\n      swap1\n      dup2\n      mstore\n      0x40\n      dup1\n      dup4\n      keccak256\n        /* \"BillionCash.sol\":2963:2987  _allowed[owner][spender] */\n      swap4\n      swap1\n      swap5\n      and\n      dup3\n      mstore\n      swap2\n      swap1\n      swap2\n      mstore\n      keccak256\n      sload\n      swap1\n        /* \"BillionCash.sol\":2832:2995  function allowance(address owner, address spender)... */\n      jump\n        /* \"BillionCash.sol\":740:780  uint256 public constant FEE_PERCENT = 50 */\n    tag_20:\n      tag_25\n        /* \"BillionCash.sol\":778:780  50 */\n      0x32\n        /* \"BillionCash.sol\":740:780  uint256 public constant FEE_PERCENT = 50 */\n      dup2\n      jump\n        /* \"@openzeppelin/contracts/access/Ownable.sol\":1918:2116  function transferOwnership(address newOwner) public virtual onlyOwner {... */\n    tag_21:\n      tag_60\n      tag_98\n      calldatasize\n      0x04\n      tag_57\n      jump\t// in\n    tag_98:\n      tag_99\n      jump\t// in\n        /* \"BillionCash.sol\":3003:3245  function approve(address spender, uint256 value) public returns (bool) {... */\n    tag_36:\n        /* \"BillionCash.sol\":3068:3072  bool */\n      0x00\n      sub(shl(0xa0, 0x01), 0x01)\n        /* \"BillionCash.sol\":3093:3114  spender != address(0) */\n      dup4\n      and\n        /* \"BillionCash.sol\":3085:3115  require(spender != address(0)) */\n      tag_103\n      jumpi\n      0x00\n      dup1\n      revert\n    tag_103:\n        /* \"BillionCash.sol\":3135:3145  msg.sender */\n      caller\n        /* \"BillionCash.sol\":3126:3146  _allowed[msg.sender] */\n      0x00\n      dup2\n      dup2\n      mstore\n        /* \"BillionCash.sol\":3126:3134  _allowed */\n      0x02\n        /* \"BillionCash.sol\":3126:3146  _allowed[msg.sender] */\n      0x20\n      swap1\n      dup2\n      mstore\n      0x40\n      dup1\n      dup4\n      keccak256\n      sub(shl(0xa0, 0x01), 0x01)\n        /* \"BillionCash.sol\":3126:3155  _allowed[msg.sender][spender] */\n      dup9\n      and\n      dup1\n      dup6\n      mstore\n      swap1\n      dup4\n      mstore\n      swap3\n      dup2\n      swap1\n      keccak256\n        /* \"BillionCash.sol\":3126:3163  _allowed[msg.sender][spender] = value */\n      dup7\n      swap1\n      sstore\n        /* \"BillionCash.sol\":3179:3215  Approval(msg.sender, spender, value) */\n      mload\n        /* \"#utility.yul\":160:185   */\n      dup6\n      dup2\n      mstore\n        /* \"BillionCash.sol\":3126:3155  _allowed[msg.sender][spender] */\n      swap2\n      swap3\n        /* \"BillionCash.sol\":3135:3145  msg.sender */\n      swap2\n        /* \"BillionCash.sol\":3179:3215  Approval(msg.sender, spender, value) */\n      0x8c5be1e5ebec7d5bd14f71427d1e84f3dd0314c0f7b2291e5b200ac8c7c3b925\n      swap2\n        /* \"#utility.yul\":133:151   */\n      add\n        /* \"BillionCash.sol\":3179:3215  Approval(msg.sender, spender, value) */\n    tag_104:\n      mload(0x40)\n      dup1\n      swap2\n      sub\n      swap1\n      log3\n      pop\n        /* \"BillionCash.sol\":3233:3237  true */\n      0x01\n        /* \"BillionCash.sol\":3003:3245  function approve(address spender, uint256 value) public returns (bool) {... */\n      swap3\n      swap2\n      pop\n      pop\n      jump\t// out\n        /* \"BillionCash.sol\":3253:4547  function transferFrom(... */\n    tag_45:\n      sub(shl(0xa0, 0x01), 0x01)\n        /* \"BillionCash.sol\":3400:3422  _BCTokenBalances[from] */\n      dup4\n      and\n        /* \"BillionCash.sol\":3366:3370  bool */\n      0x00\n        /* \"BillionCash.sol\":3400:3422  _BCTokenBalances[from] */\n      swap1\n      dup2\n      mstore\n        /* \"BillionCash.sol\":3400:3416  _BCTokenBalances */\n      0x01\n        /* \"BillionCash.sol\":3400:3422  _BCTokenBalances[from] */\n      0x20\n      mstore\n      0x40\n      dup2\n      keccak256\n      sload\n        /* \"BillionCash.sol\":3391:3422  value <= _BCTokenBalances[from] */\n      dup3\n      gt\n      iszero\n        /* \"BillionCash.sol\":3383:3423  require(value <= _BCTokenBalances[from]) */\n      tag_107\n      jumpi\n      0x00\n      dup1\n      revert\n    tag_107:\n      sub(shl(0xa0, 0x01), 0x01)\n        /* \"BillionCash.sol\":3451:3465  _allowed[from] */\n      dup5\n      and\n      0x00\n      swap1\n      dup2\n      mstore\n        /* \"BillionCash.sol\":3451:3459  _allowed */\n      0x02\n        /* \"BillionCash.sol\":3451:3465  _allowed[from] */\n      0x20\n      swap1\n      dup2\n      mstore\n      0x40\n      dup1\n      dup4\n      keccak256\n        /* \"BillionCash.sol\":3466:3476  msg.sender */\n      caller\n        /* \"BillionCash.sol\":3451:3477  _allowed[from][msg.sender] */\n      dup5\n      mstore\n      swap1\n      swap2\n      mstore\n      swap1\n      keccak256\n      sload\n        /* \"BillionCash.sol\":3442:3477  value <= _allowed[from][msg.sender] */\n      dup3\n      gt\n      iszero\n        /* \"BillionCash.sol\":3434:3478  require(value <= _allowed[from][msg.sender]) */\n      tag_108\n      jumpi\n      0x00\n      dup1\n      revert\n    tag_108:\n      sub(shl(0xa0, 0x01), 0x01)\n        /* \"BillionCash.sol\":3497:3513  to != address(0) */\n      dup4\n      and\n        /* \"BillionCash.sol\":3489:3514  require(to != address(0)) */\n      tag_109\n      jumpi\n      0x00\n      dup1\n      revert\n    tag_109:\n      sub(shl(0xa0, 0x01), 0x01)\n        /* \"BillionCash.sol\":3552:3574  _BCTokenBalances[from] */\n      dup5\n      and\n      0x00\n      swap1\n      dup2\n      mstore\n        /* \"BillionCash.sol\":3552:3568  _BCTokenBalances */\n      0x01\n        /* \"BillionCash.sol\":3552:3574  _BCTokenBalances[from] */\n      0x20\n      mstore\n      0x40\n      swap1\n      keccak256\n      sload\n        /* \"BillionCash.sol\":3552:3585  _BCTokenBalances[from].sub(value) */\n      tag_110\n      swap1\n        /* \"BillionCash.sol\":3579:3584  value */\n      dup4\n        /* \"BillionCash.sol\":3552:3578  _BCTokenBalances[from].sub */\n      tag_111\n        /* \"BillionCash.sol\":3552:3585  _BCTokenBalances[from].sub(value) */\n      jump\t// in\n    tag_110:\n      sub(shl(0xa0, 0x01), 0x01)\n        /* \"BillionCash.sol\":3527:3549  _BCTokenBalances[from] */\n      dup6\n      and\n      0x00\n      swap1\n      dup2\n      mstore\n        /* \"BillionCash.sol\":3527:3543  _BCTokenBalances */\n      0x01\n        /* \"BillionCash.sol\":3527:3549  _BCTokenBalances[from] */\n      0x20\n      mstore\n      0x40\n      dup2\n      keccak256\n        /* \"BillionCash.sol\":3527:3585  _BCTokenBalances[from] = _BCTokenBalances[from].sub(value) */\n      swap2\n      swap1\n      swap2\n      sstore\n        /* \"BillionCash.sol\":3622:3666  value.mul(FEE_PERCENT).div(PERCENTS_DIVIDER) */\n      tag_112\n        /* \"BillionCash.sol\":729:733  1000 */\n      0x03e8\n        /* \"BillionCash.sol\":3622:3644  value.mul(FEE_PERCENT) */\n      tag_113\n        /* \"BillionCash.sol\":3622:3627  value */\n      dup6\n        /* \"BillionCash.sol\":778:780  50 */\n      0x32\n        /* \"BillionCash.sol\":3622:3631  value.mul */\n      tag_114\n        /* \"BillionCash.sol\":3622:3644  value.mul(FEE_PERCENT) */\n      jump\t// in\n    tag_113:\n        /* \"BillionCash.sol\":3622:3648  value.mul(FEE_PERCENT).div */\n      swap1\n      tag_115\n        /* \"BillionCash.sol\":3622:3666  value.mul(FEE_PERCENT).div(PERCENTS_DIVIDER) */\n      jump\t// in\n    tag_112:\n        /* \"BillionCash.sol\":3598:3666  uint256 BCTokenForFee = value.mul(FEE_PERCENT).div(PERCENTS_DIVIDER) */\n      swap1\n      pop\n        /* \"BillionCash.sol\":3677:3701  uint256 tokensToTransfer */\n      0x00\n        /* \"BillionCash.sol\":3704:3808  value... */\n      tag_116\n        /* \"BillionCash.sol\":3598:3666  uint256 BCTokenForFee = value.mul(FEE_PERCENT).div(PERCENTS_DIVIDER) */\n      dup3\n        /* \"BillionCash.sol\":3704:3775  value... */\n      tag_118\n        /* \"BillionCash.sol\":3598:3666  uint256 BCTokenForFee = value.mul(FEE_PERCENT).div(PERCENTS_DIVIDER) */\n      dup2\n        /* \"BillionCash.sol\":3704:3775  value... */\n      dup2\n        /* \"BillionCash.sol\":3704:3709  value */\n      dup9\n        /* \"BillionCash.sol\":3598:3666  uint256 BCTokenForFee = value.mul(FEE_PERCENT).div(PERCENTS_DIVIDER) */\n      dup3\n        /* \"BillionCash.sol\":3704:3727  value... */\n      tag_111\n        /* \"BillionCash.sol\":3704:3742  value... */\n      jump\t// in\n    tag_118:\n        /* \"BillionCash.sol\":3704:3760  value... */\n      swap1\n      tag_111\n        /* \"BillionCash.sol\":3704:3775  value... */\n      jump\t// in\n        /* \"BillionCash.sol\":3704:3808  value... */\n    tag_116:\n      sub(shl(0xa0, 0x01), 0x01)\n        /* \"BillionCash.sol\":3844:3864  _BCTokenBalances[to] */\n      dup7\n      and\n      0x00\n      swap1\n      dup2\n      mstore\n        /* \"BillionCash.sol\":3844:3860  _BCTokenBalances */\n      0x01\n        /* \"BillionCash.sol\":3844:3864  _BCTokenBalances[to] */\n      0x20\n      mstore\n      0x40\n      swap1\n      keccak256\n      sload\n        /* \"BillionCash.sol\":3677:3808  uint256 tokensToTransfer = value... */\n      swap1\n      swap2\n      pop\n        /* \"BillionCash.sol\":3844:3886  _BCTokenBalances[to].add(tokensToTransfer) */\n      tag_119\n      swap1\n        /* \"BillionCash.sol\":3677:3808  uint256 tokensToTransfer = value... */\n      dup3\n        /* \"BillionCash.sol\":3844:3868  _BCTokenBalances[to].add */\n      tag_100\n        /* \"BillionCash.sol\":3844:3886  _BCTokenBalances[to].add(tokensToTransfer) */\n      jump\t// in\n    tag_119:\n      sub(shl(0xa0, 0x01), 0x01)\n        /* \"BillionCash.sol\":3821:3841  _BCTokenBalances[to] */\n      dup1\n      dup8\n      and\n      0x00\n      swap1\n      dup2\n      mstore\n        /* \"BillionCash.sol\":3821:3837  _BCTokenBalances */\n      0x01\n        /* \"BillionCash.sol\":3821:3841  _BCTokenBalances[to] */\n      0x20\n      mstore\n      0x40\n      dup1\n      dup3\n      keccak256\n        /* \"BillionCash.sol\":3821:3886  _BCTokenBalances[to] = _BCTokenBalances[to].add(tokensToTransfer) */\n      swap4\n      swap1\n      swap4\n      sstore\n        /* \"BillionCash.sol\":3947:3959  adminAddress */\n      sload(0x06)\n      swap1\n      swap2\n      and\n        /* \"BillionCash.sol\":3930:3960  _BCTokenBalances[adminAddress] */\n      dup2\n      mstore\n      keccak256\n      sload\n        /* \"BillionCash.sol\":3930:4003  _BCTokenBalances[adminAddress].add(... */\n      tag_120\n      swap1\n        /* \"BillionCash.sol\":3979:3992  BCTokenForFee */\n      dup4\n        /* \"BillionCash.sol\":3930:3964  _BCTokenBalances[adminAddress].add */\n      tag_100\n        /* \"BillionCash.sol\":3930:4003  _BCTokenBalances[adminAddress].add(... */\n      jump\t// in\n    tag_120:\n        /* \"BillionCash.sol\":3914:3926  adminAddress */\n      0x06\n      dup1\n      sload\n      sub(shl(0xa0, 0x01), 0x01)\n      swap1\n      dup2\n      and\n        /* \"BillionCash.sol\":3897:3927  _BCTokenBalances[adminAddress] */\n      0x00\n      swap1\n      dup2\n      mstore\n        /* \"BillionCash.sol\":3897:3913  _BCTokenBalances */\n      0x01\n        /* \"BillionCash.sol\":3897:3927  _BCTokenBalances[adminAddress] */\n      0x20\n      mstore\n      0x40\n      dup1\n      dup3\n      keccak256\n        /* \"BillionCash.sol\":3897:4003  _BCTokenBalances[adminAddress] = _BCTokenBalances[adminAddress].add(... */\n      swap5\n      swap1\n      swap5\n      sstore\n        /* \"BillionCash.sol\":4067:4079  adminAddress */\n      swap2\n      sload\n      and\n        /* \"BillionCash.sol\":4050:4080  _BCTokenBalances[adminAddress] */\n      dup2\n      mstore\n      keccak256\n      sload\n        /* \"BillionCash.sol\":4050:4123  _BCTokenBalances[adminAddress].add(... */\n      tag_121\n      swap1\n        /* \"BillionCash.sol\":4099:4112  BCTokenForFee */\n      dup4\n        /* \"BillionCash.sol\":4050:4084  _BCTokenBalances[adminAddress].add */\n      tag_100\n        /* \"BillionCash.sol\":4050:4123  _BCTokenBalances[adminAddress].add(... */\n      jump\t// in\n    tag_121:\n        /* \"BillionCash.sol\":4031:4046  marketingwallet */\n      sload(0x05)\n      sub(shl(0xa0, 0x01), 0x01)\n      swap1\n      dup2\n      and\n        /* \"BillionCash.sol\":4014:4047  _BCTokenBalances[marketingwallet] */\n      0x00\n      swap1\n      dup2\n      mstore\n        /* \"BillionCash.sol\":4014:4030  _BCTokenBalances */\n      0x01\n        /* \"BillionCash.sol\":4014:4047  _BCTokenBalances[marketingwallet] */\n      0x20\n      mstore\n      0x40\n      dup1\n      dup3\n      keccak256\n        /* \"BillionCash.sol\":4014:4123  _BCTokenBalances[marketingwallet] = _BCTokenBalances[adminAddress].add(... */\n      swap4\n      swap1\n      swap4\n      sstore\n        /* \"BillionCash.sol\":4183:4195  adminAddress */\n      sload(0x06)\n      swap1\n      swap2\n      and\n        /* \"BillionCash.sol\":4166:4196  _BCTokenBalances[adminAddress] */\n      dup2\n      mstore\n      keccak256\n      sload\n        /* \"BillionCash.sol\":4166:4239  _BCTokenBalances[adminAddress].add(... */\n      tag_122\n      swap1\n        /* \"BillionCash.sol\":4215:4228  BCTokenForFee */\n      dup4\n        /* \"BillionCash.sol\":4166:4200  _BCTokenBalances[adminAddress].add */\n      tag_100\n        /* \"BillionCash.sol\":4166:4239  _BCTokenBalances[adminAddress].add(... */\n      jump\t// in\n    tag_122:\n        /* \"BillionCash.sol\":4151:4162  pancakeswap */\n      sload(0x04)\n      sub(shl(0xa0, 0x01), 0x01)\n      swap1\n      dup2\n      and\n        /* \"BillionCash.sol\":4134:4163  _BCTokenBalances[pancakeswap] */\n      0x00\n      swap1\n      dup2\n      mstore\n        /* \"BillionCash.sol\":4134:4150  _BCTokenBalances */\n      0x01\n        /* \"BillionCash.sol\":4134:4163  _BCTokenBalances[pancakeswap] */\n      0x20\n      swap1\n      dup2\n      mstore\n      0x40\n      dup1\n      dup4\n      keccak256\n        /* \"BillionCash.sol\":4134:4239  _BCTokenBalances[pancakeswap] = _BCTokenBalances[adminAddress].add(... */\n      swap5\n      swap1\n      swap5\n      sstore\n        /* \"BillionCash.sol\":4279:4293  _allowed[from] */\n      swap2\n      dup10\n      and\n      dup2\n      mstore\n        /* \"BillionCash.sol\":4279:4287  _allowed */\n      0x02\n        /* \"BillionCash.sol\":4279:4293  _allowed[from] */\n      dup3\n      mstore\n      dup3\n      dup2\n      keccak256\n        /* \"BillionCash.sol\":4294:4304  msg.sender */\n      caller\n        /* \"BillionCash.sol\":4279:4305  _allowed[from][msg.sender] */\n      dup3\n      mstore\n      swap1\n      swap2\n      mstore\n      keccak256\n      sload\n        /* \"BillionCash.sol\":4279:4316  _allowed[from][msg.sender].sub(value) */\n      tag_123\n      swap1\n        /* \"BillionCash.sol\":4310:4315  value */\n      dup6\n        /* \"BillionCash.sol\":4279:4309  _allowed[from][msg.sender].sub */\n      tag_111\n        /* \"BillionCash.sol\":4279:4316  _allowed[from][msg.sender].sub(value) */\n      jump\t// in\n    tag_123:\n      sub(shl(0xa0, 0x01), 0x01)\n        /* \"BillionCash.sol\":4250:4264  _allowed[from] */\n      dup1\n      dup9\n      and\n      0x00\n      swap1\n      dup2\n      mstore\n        /* \"BillionCash.sol\":4250:4258  _allowed */\n      0x02\n        /* \"BillionCash.sol\":4250:4264  _allowed[from] */\n      0x20\n      swap1\n      dup2\n      mstore\n      0x40\n      dup1\n      dup4\n      keccak256\n        /* \"BillionCash.sol\":4265:4275  msg.sender */\n      caller\n        /* \"BillionCash.sol\":4250:4276  _allowed[from][msg.sender] */\n      dup1\n      dup6\n      mstore\n      swap3\n      mstore\n      swap2\n      dup3\n      swap1\n      keccak256\n        /* \"BillionCash.sol\":4250:4316  _allowed[from][msg.sender] = _allowed[from][msg.sender].sub(value) */\n      swap4\n      swap1\n      swap4\n      sstore\n        /* \"BillionCash.sol\":4355:4367  adminAddress */\n      sload(0x06)\n        /* \"BillionCash.sol\":4334:4383  Transfer(msg.sender, adminAddress, BCTokenForFee) */\n      swap1\n      mload\n        /* \"BillionCash.sol\":4355:4367  adminAddress */\n      swap2\n      and\n      swap2\n        /* \"BillionCash.sol\":4265:4275  msg.sender */\n      swap1\n      0x00\n      dup1\n      mload\n      0x20\n      data_ada389e1fc24a8587c776340efb91b36e675792ab631816100d55df0b5cf3cbc\n      dup4\n      codecopy\n      dup2\n      mload\n      swap2\n      mstore\n        /* \"BillionCash.sol\":4334:4383  Transfer(msg.sender, adminAddress, BCTokenForFee) */\n      swap1\n      tag_124\n      swap1\n        /* \"BillionCash.sol\":4369:4382  BCTokenForFee */\n      dup7\n        /* \"#utility.yul\":160:185   */\n      dup2\n      mstore\n        /* \"#utility.yul\":148:150   */\n      0x20\n        /* \"#utility.yul\":133:151   */\n      add\n      swap1\n        /* \"#utility.yul\":14:191   */\n      jump\n        /* \"BillionCash.sol\":4334:4383  Transfer(msg.sender, adminAddress, BCTokenForFee) */\n    tag_124:\n      mload(0x40)\n      dup1\n      swap2\n      sub\n      swap1\n      log3\n        /* \"BillionCash.sol\":4420:4435  marketingwallet */\n      sload(0x05)\n        /* \"BillionCash.sol\":4399:4451  Transfer(msg.sender, marketingwallet, BCTokenForFee) */\n      mload(0x40)\n        /* \"#utility.yul\":160:185   */\n      dup4\n      dup2\n      mstore\n      sub(shl(0xa0, 0x01), 0x01)\n        /* \"BillionCash.sol\":4420:4435  marketingwallet */\n      swap1\n      swap2\n      and\n      swap1\n        /* \"BillionCash.sol\":4408:4418  msg.sender */\n      caller\n      swap1\n      0x00\n      dup1\n      mload\n      0x20\n      data_ada389e1fc24a8587c776340efb91b36e675792ab631816100d55df0b5cf3cbc\n      dup4\n      codecopy\n      dup2\n      mload\n      swap2\n      mstore\n        /* \"BillionCash.sol\":4399:4451  Transfer(msg.sender, marketingwallet, BCTokenForFee) */\n      swap1\n        /* \"#utility.yul\":148:150   */\n      0x20\n        /* \"#utility.yul\":133:151   */\n      add\n        /* \"BillionCash.sol\":4399:4451  Transfer(msg.sender, marketingwallet, BCTokenForFee) */\n      mload(0x40)\n      dup1\n      swap2\n      sub\n      swap1\n      log3\n        /* \"BillionCash.sol\":4488:4499  pancakeswap */\n      sload(0x04)\n        /* \"BillionCash.sol\":4467:4515  Transfer(msg.sender, pancakeswap, BCTokenForFee) */\n      mload(0x40)\n        /* \"#utility.yul\":160:185   */\n      dup4\n      dup2\n      mstore\n      sub(shl(0xa0, 0x01), 0x01)\n        /* \"BillionCash.sol\":4488:4499  pancakeswap */\n      swap1\n      swap2\n      and\n      swap1\n        /* \"BillionCash.sol\":4476:4486  msg.sender */\n      caller\n      swap1\n      0x00\n      dup1\n      mload\n      0x20\n      data_ada389e1fc24a8587c776340efb91b36e675792ab631816100d55df0b5cf3cbc\n      dup4\n      codecopy\n      dup2\n      mload\n      swap2\n      mstore\n        /* \"BillionCash.sol\":4467:4515  Transfer(msg.sender, pancakeswap, BCTokenForFee) */\n      swap1\n        /* \"#utility.yul\":148:150   */\n      0x20\n        /* \"#utility.yul\":133:151   */\n      add\n        /* \"BillionCash.sol\":4467:4515  Transfer(msg.sender, pancakeswap, BCTokenForFee) */\n      mload(0x40)\n      dup1\n      swap2\n      sub\n      swap1\n      log3\n      pop\n        /* \"BillionCash.sol\":4535:4539  true */\n      0x01\n      swap6\n        /* \"BillionCash.sol\":3253:4547  function transferFrom(... */\n      swap5\n      pop\n      pop\n      pop\n      pop\n      pop\n      jump\t// out\n        /* \"BillionCash.sol\":4555:4925  function increaseAllowance(address spender, uint256 addedValue)... */\n    tag_53:\n        /* \"BillionCash.sol\":4653:4657  bool */\n      0x00\n      sub(shl(0xa0, 0x01), 0x01)\n        /* \"BillionCash.sol\":4683:4704  spender != address(0) */\n      dup4\n      and\n        /* \"BillionCash.sol\":4675:4705  require(spender != address(0)) */\n      tag_129\n      jumpi\n      0x00\n      dup1\n      revert\n    tag_129:\n        /* \"BillionCash.sol\":4772:4782  msg.sender */\n      caller\n        /* \"BillionCash.sol\":4763:4783  _allowed[msg.sender] */\n      0x00\n      swap1\n      dup2\n      mstore\n        /* \"BillionCash.sol\":4763:4771  _allowed */\n      0x02\n        /* \"BillionCash.sol\":4763:4783  _allowed[msg.sender] */\n      0x20\n      swap1\n      dup2\n      mstore\n      0x40\n      dup1\n      dup4\n      keccak256\n      sub(shl(0xa0, 0x01), 0x01)\n        /* \"BillionCash.sol\":4763:4792  _allowed[msg.sender][spender] */\n      dup8\n      and\n      dup5\n      mstore\n      swap1\n      swap2\n      mstore\n      swap1\n      keccak256\n      sload\n        /* \"BillionCash.sol\":4763:4808  _allowed[msg.sender][spender].add(addedValue) */\n      tag_130\n      swap1\n        /* \"BillionCash.sol\":4797:4807  addedValue */\n      dup4\n        /* \"BillionCash.sol\":4763:4796  _allowed[msg.sender][spender].add */\n      tag_100\n        /* \"BillionCash.sol\":4763:4808  _allowed[msg.sender][spender].add(addedValue) */\n      jump\t// in\n    tag_130:\n        /* \"BillionCash.sol\":4725:4735  msg.sender */\n      caller\n        /* \"BillionCash.sol\":4716:4736  _allowed[msg.sender] */\n      0x00\n      dup2\n      dup2\n      mstore\n        /* \"BillionCash.sol\":4716:4724  _allowed */\n      0x02\n        /* \"BillionCash.sol\":4716:4736  _allowed[msg.sender] */\n      0x20\n      swap1\n      dup2\n      mstore\n      0x40\n      dup1\n      dup4\n      keccak256\n      sub(shl(0xa0, 0x01), 0x01)\n        /* \"BillionCash.sol\":4716:4745  _allowed[msg.sender][spender] */\n      dup10\n      and\n      dup1\n      dup6\n      mstore\n      swap1\n      dup4\n      mstore\n      swap3\n      dup2\n      swap1\n      keccak256\n        /* \"BillionCash.sol\":4716:4819  _allowed[msg.sender][spender] = (... */\n      dup6\n      swap1\n      sstore\n        /* \"BillionCash.sol\":4835:4895  Approval(msg.sender, spender, _allowed[msg.sender][spender]) */\n      mload\n        /* \"#utility.yul\":160:185   */\n      swap4\n      dup5\n      mstore\n        /* \"BillionCash.sol\":4716:4745  _allowed[msg.sender][spender] */\n      swap1\n      swap3\n        /* \"BillionCash.sol\":4835:4895  Approval(msg.sender, spender, _allowed[msg.sender][spender]) */\n      0x8c5be1e5ebec7d5bd14f71427d1e84f3dd0314c0f7b2291e5b200ac8c7c3b925\n      swap2\n        /* \"#utility.yul\":133:151   */\n      add\n        /* \"BillionCash.sol\":4835:4895  Approval(msg.sender, spender, _allowed[msg.sender][spender]) */\n      tag_104\n        /* \"#utility.yul\":14:191   */\n      jump\n        /* \"@openzeppelin/contracts/access/Ownable.sol\":1668:1769  function renounceOwnership() public virtual onlyOwner {... */\n    tag_61:\n        /* \"@openzeppelin/contracts/access/Ownable.sol\":1082:1089  address */\n      0x00\n        /* \"@openzeppelin/contracts/access/Ownable.sol\":1108:1114  _owner */\n      sload\n      sub(shl(0xa0, 0x01), 0x01)\n      and\n        /* \"@openzeppelin/contracts/utils/Context.sol\":719:729  msg.sender */\n      caller\n        /* \"@openzeppelin/contracts/access/Ownable.sol\":1248:1271  owner() == _msgSender() */\n      eq\n        /* \"@openzeppelin/contracts/access/Ownable.sol\":1240:1308  require(owner() == _msgSender(), \"Ownable: caller is not the owner\") */\n      tag_137\n      jumpi\n      mload(0x40)\n      shl(0xe5, 0x461bcd)\n      dup2\n      mstore\n      0x04\n      add\n      tag_138\n      swap1\n      tag_139\n      jump\t// in\n    tag_138:\n      mload(0x40)\n      dup1\n      swap2\n      sub\n      swap1\n      revert\n    tag_137:\n        /* \"@openzeppelin/contracts/access/Ownable.sol\":1732:1762  _transferOwnership(address(0)) */\n      tag_141\n        /* \"@openzeppelin/contracts/access/Ownable.sol\":1759:1760  0 */\n      0x00\n        /* \"@openzeppelin/contracts/access/Ownable.sol\":1732:1750  _transferOwnership */\n      tag_142\n        /* \"@openzeppelin/contracts/access/Ownable.sol\":1732:1762  _transferOwnership(address(0)) */\n      jump\t// in\n    tag_141:\n        /* \"@openzeppelin/contracts/access/Ownable.sol\":1668:1769  function renounceOwnership() public virtual onlyOwner {... */\n      jump\t// out\n        /* \"BillionCash.sol\":4933:5313  function decreaseAllowance(address spender, uint256 subtractedValue)... */\n    tag_75:\n        /* \"BillionCash.sol\":5036:5040  bool */\n      0x00\n      sub(shl(0xa0, 0x01), 0x01)\n        /* \"BillionCash.sol\":5066:5087  spender != address(0) */\n      dup4\n      and\n        /* \"BillionCash.sol\":5058:5088  require(spender != address(0)) */\n      tag_146\n      jumpi\n      0x00\n      dup1\n      revert\n    tag_146:\n        /* \"BillionCash.sol\":5155:5165  msg.sender */\n      caller\n        /* \"BillionCash.sol\":5146:5166  _allowed[msg.sender] */\n      0x00\n      swap1\n      dup2\n      mstore\n        /* \"BillionCash.sol\":5146:5154  _allowed */\n      0x02\n        /* \"BillionCash.sol\":5146:5166  _allowed[msg.sender] */\n      0x20\n      swap1\n      dup2\n      mstore\n      0x40\n      dup1\n      dup4\n      keccak256\n      sub(shl(0xa0, 0x01), 0x01)\n        /* \"BillionCash.sol\":5146:5175  _allowed[msg.sender][spender] */\n      dup8\n      and\n      dup5\n      mstore\n      swap1\n      swap2\n      mstore\n      swap1\n      keccak256\n      sload\n        /* \"BillionCash.sol\":5146:5196  _allowed[msg.sender][spender].sub(subtractedValue) */\n      tag_130\n      swap1\n        /* \"BillionCash.sol\":5180:5195  subtractedValue */\n      dup4\n        /* \"BillionCash.sol\":5146:5179  _allowed[msg.sender][spender].sub */\n      tag_111\n        /* \"BillionCash.sol\":5146:5196  _allowed[msg.sender][spender].sub(subtractedValue) */\n      jump\t// in\n        /* \"BillionCash.sol\":1642:2824  function transfer(address to, uint256 value) public returns (bool) {... */\n    tag_79:\n        /* \"BillionCash.sol\":1754:1764  msg.sender */\n      caller\n        /* \"BillionCash.sol\":1703:1707  bool */\n      0x00\n        /* \"BillionCash.sol\":1737:1765  _BCTokenBalances[msg.sender] */\n      swap1\n      dup2\n      mstore\n        /* \"BillionCash.sol\":1737:1753  _BCTokenBalances */\n      0x01\n        /* \"BillionCash.sol\":1737:1765  _BCTokenBalances[msg.sender] */\n      0x20\n      mstore\n      0x40\n      dup2\n      keccak256\n      sload\n        /* \"BillionCash.sol\":1728:1765  value <= _BCTokenBalances[msg.sender] */\n      dup3\n      gt\n      iszero\n        /* \"BillionCash.sol\":1720:1766  require(value <= _BCTokenBalances[msg.sender]) */\n      tag_150\n      jumpi\n      0x00\n      dup1\n      revert\n    tag_150:\n      sub(shl(0xa0, 0x01), 0x01)\n        /* \"BillionCash.sol\":1785:1801  to != address(0) */\n      dup4\n      and\n        /* \"BillionCash.sol\":1777:1802  require(to != address(0)) */\n      tag_151\n      jumpi\n      0x00\n      dup1\n      revert\n    tag_151:\n        /* \"BillionCash.sol\":1815:1836  uint256 BCTokenForFee */\n      0x00\n        /* \"BillionCash.sol\":1839:1883  value.mul(FEE_PERCENT).div(PERCENTS_DIVIDER) */\n      tag_152\n        /* \"BillionCash.sol\":729:733  1000 */\n      0x03e8\n        /* \"BillionCash.sol\":1839:1861  value.mul(FEE_PERCENT) */\n      tag_113\n        /* \"BillionCash.sol\":1839:1844  value */\n      dup6\n        /* \"BillionCash.sol\":778:780  50 */\n      0x32\n        /* \"BillionCash.sol\":1839:1848  value.mul */\n      tag_114\n        /* \"BillionCash.sol\":1839:1861  value.mul(FEE_PERCENT) */\n      jump\t// in\n        /* \"BillionCash.sol\":1839:1883  value.mul(FEE_PERCENT).div(PERCENTS_DIVIDER) */\n    tag_152:\n        /* \"BillionCash.sol\":1815:1883  uint256 BCTokenForFee = value.mul(FEE_PERCENT).div(PERCENTS_DIVIDER) */\n      swap1\n      pop\n        /* \"BillionCash.sol\":1894:1918  uint256 tokensToTransfer */\n      0x00\n        /* \"BillionCash.sol\":1921:2025  value... */\n      tag_154\n        /* \"BillionCash.sol\":1815:1883  uint256 BCTokenForFee = value.mul(FEE_PERCENT).div(PERCENTS_DIVIDER) */\n      dup3\n        /* \"BillionCash.sol\":1921:1992  value... */\n      tag_118\n        /* \"BillionCash.sol\":1815:1883  uint256 BCTokenForFee = value.mul(FEE_PERCENT).div(PERCENTS_DIVIDER) */\n      dup2\n        /* \"BillionCash.sol\":1921:1992  value... */\n      dup2\n        /* \"BillionCash.sol\":1921:1926  value */\n      dup9\n        /* \"BillionCash.sol\":1815:1883  uint256 BCTokenForFee = value.mul(FEE_PERCENT).div(PERCENTS_DIVIDER) */\n      dup3\n        /* \"BillionCash.sol\":1921:1944  value... */\n      tag_111\n        /* \"BillionCash.sol\":1921:1959  value... */\n      jump\t// in\n        /* \"BillionCash.sol\":1921:2025  value... */\n    tag_154:\n        /* \"BillionCash.sol\":2086:2096  msg.sender */\n      caller\n        /* \"BillionCash.sol\":2069:2097  _BCTokenBalances[msg.sender] */\n      0x00\n      swap1\n      dup2\n      mstore\n        /* \"BillionCash.sol\":2069:2085  _BCTokenBalances */\n      0x01\n        /* \"BillionCash.sol\":2069:2097  _BCTokenBalances[msg.sender] */\n      0x20\n      mstore\n      0x40\n      swap1\n      keccak256\n      sload\n        /* \"BillionCash.sol\":1894:2025  uint256 tokensToTransfer = value... */\n      swap1\n      swap2\n      pop\n        /* \"BillionCash.sol\":2069:2108  _BCTokenBalances[msg.sender].sub(value) */\n      tag_157\n      swap1\n        /* \"BillionCash.sol\":2102:2107  value */\n      dup6\n        /* \"BillionCash.sol\":2069:2101  _BCTokenBalances[msg.sender].sub */\n      tag_111\n        /* \"BillionCash.sol\":2069:2108  _BCTokenBalances[msg.sender].sub(value) */\n      jump\t// in\n    tag_157:\n        /* \"BillionCash.sol\":2055:2065  msg.sender */\n      caller\n        /* \"BillionCash.sol\":2038:2066  _BCTokenBalances[msg.sender] */\n      0x00\n      swap1\n      dup2\n      mstore\n        /* \"BillionCash.sol\":2038:2054  _BCTokenBalances */\n      0x01\n        /* \"BillionCash.sol\":2038:2066  _BCTokenBalances[msg.sender] */\n      0x20\n      mstore\n      0x40\n      dup1\n      dup3\n      keccak256\n        /* \"BillionCash.sol\":2038:2108  _BCTokenBalances[msg.sender] = _BCTokenBalances[msg.sender].sub(value) */\n      swap3\n      swap1\n      swap3\n      sstore\n      sub(shl(0xa0, 0x01), 0x01)\n        /* \"BillionCash.sol\":2142:2162  _BCTokenBalances[to] */\n      dup8\n      and\n      dup2\n      mstore\n      keccak256\n      sload\n        /* \"BillionCash.sol\":2142:2184  _BCTokenBalances[to].add(tokensToTransfer) */\n      tag_158\n      swap1\n        /* \"BillionCash.sol\":2167:2183  tokensToTransfer */\n      dup3\n        /* \"BillionCash.sol\":2142:2166  _BCTokenBalances[to].add */\n      tag_100\n        /* \"BillionCash.sol\":2142:2184  _BCTokenBalances[to].add(tokensToTransfer) */\n      jump\t// in\n    tag_158:\n      sub(shl(0xa0, 0x01), 0x01)\n        /* \"BillionCash.sol\":2119:2139  _BCTokenBalances[to] */\n      dup1\n      dup8\n      and\n      0x00\n      swap1\n      dup2\n      mstore\n        /* \"BillionCash.sol\":2119:2135  _BCTokenBalances */\n      0x01\n        /* \"BillionCash.sol\":2119:2139  _BCTokenBalances[to] */\n      0x20\n      mstore\n      0x40\n      dup1\n      dup3\n      keccak256\n        /* \"BillionCash.sol\":2119:2184  _BCTokenBalances[to] = _BCTokenBalances[to].add(tokensToTransfer) */\n      swap4\n      swap1\n      swap4\n      sstore\n        /* \"BillionCash.sol\":2245:2257  adminAddress */\n      sload(0x06)\n      swap1\n      swap2\n      and\n        /* \"BillionCash.sol\":2228:2258  _BCTokenBalances[adminAddress] */\n      dup2\n      mstore\n      keccak256\n      sload\n        /* \"BillionCash.sol\":2228:2301  _BCTokenBalances[adminAddress].add(... */\n      tag_159\n      swap1\n        /* \"BillionCash.sol\":2277:2290  BCTokenForFee */\n      dup4\n        /* \"BillionCash.sol\":2228:2262  _BCTokenBalances[adminAddress].add */\n      tag_100\n        /* \"BillionCash.sol\":2228:2301  _BCTokenBalances[adminAddress].add(... */\n      jump\t// in\n    tag_159:\n        /* \"BillionCash.sol\":2212:2224  adminAddress */\n      0x06\n      dup1\n      sload\n      sub(shl(0xa0, 0x01), 0x01)\n      swap1\n      dup2\n      and\n        /* \"BillionCash.sol\":2195:2225  _BCTokenBalances[adminAddress] */\n      0x00\n      swap1\n      dup2\n      mstore\n        /* \"BillionCash.sol\":2195:2211  _BCTokenBalances */\n      0x01\n        /* \"BillionCash.sol\":2195:2225  _BCTokenBalances[adminAddress] */\n      0x20\n      mstore\n      0x40\n      dup1\n      dup3\n      keccak256\n        /* \"BillionCash.sol\":2195:2301  _BCTokenBalances[adminAddress] = _BCTokenBalances[adminAddress].add(... */\n      swap5\n      swap1\n      swap5\n      sstore\n        /* \"BillionCash.sol\":2365:2377  adminAddress */\n      swap2\n      sload\n      and\n        /* \"BillionCash.sol\":2348:2378  _BCTokenBalances[adminAddress] */\n      dup2\n      mstore\n      keccak256\n      sload\n        /* \"BillionCash.sol\":2348:2421  _BCTokenBalances[adminAddress].add(... */\n      tag_160\n      swap1\n        /* \"BillionCash.sol\":2397:2410  BCTokenForFee */\n      dup4\n        /* \"BillionCash.sol\":2348:2382  _BCTokenBalances[adminAddress].add */\n      tag_100\n        /* \"BillionCash.sol\":2348:2421  _BCTokenBalances[adminAddress].add(... */\n      jump\t// in\n    tag_160:\n        /* \"BillionCash.sol\":2329:2344  marketingwallet */\n      sload(0x05)\n      sub(shl(0xa0, 0x01), 0x01)\n      swap1\n      dup2\n      and\n        /* \"BillionCash.sol\":2312:2345  _BCTokenBalances[marketingwallet] */\n      0x00\n      swap1\n      dup2\n      mstore\n        /* \"BillionCash.sol\":2312:2328  _BCTokenBalances */\n      0x01\n        /* \"BillionCash.sol\":2312:2345  _BCTokenBalances[marketingwallet] */\n      0x20\n      mstore\n      0x40\n      dup1\n      dup3\n      keccak256\n        /* \"BillionCash.sol\":2312:2421  _BCTokenBalances[marketingwallet] = _BCTokenBalances[adminAddress].add(... */\n      swap4\n      swap1\n      swap4\n      sstore\n        /* \"BillionCash.sol\":2481:2493  adminAddress */\n      sload(0x06)\n      swap1\n      swap2\n      and\n        /* \"BillionCash.sol\":2464:2494  _BCTokenBalances[adminAddress] */\n      dup2\n      mstore\n      keccak256\n      sload\n        /* \"BillionCash.sol\":2464:2537  _BCTokenBalances[adminAddress].add(... */\n      tag_161\n      swap1\n        /* \"BillionCash.sol\":2513:2526  BCTokenForFee */\n      dup4\n        /* \"BillionCash.sol\":2464:2498  _BCTokenBalances[adminAddress].add */\n      tag_100\n        /* \"BillionCash.sol\":2464:2537  _BCTokenBalances[adminAddress].add(... */\n      jump\t// in\n    tag_161:\n        /* \"BillionCash.sol\":2449:2460  pancakeswap */\n      sload(0x04)\n      sub(shl(0xa0, 0x01), 0x01)\n      swap1\n      dup2\n      and\n        /* \"BillionCash.sol\":2432:2461  _BCTokenBalances[pancakeswap] */\n      0x00\n      swap1\n      dup2\n      mstore\n        /* \"BillionCash.sol\":2432:2448  _BCTokenBalances */\n      0x01\n        /* \"BillionCash.sol\":2432:2461  _BCTokenBalances[pancakeswap] */\n      0x20\n      swap1\n      dup2\n      mstore\n      0x40\n      swap2\n      dup3\n      swap1\n      keccak256\n        /* \"BillionCash.sol\":2432:2537  _BCTokenBalances[pancakeswap] = _BCTokenBalances[adminAddress].add(... */\n      swap4\n      swap1\n      swap4\n      sstore\n        /* \"BillionCash.sol\":2555:2597  Transfer(msg.sender, to, tokensToTransfer) */\n      mload\n        /* \"#utility.yul\":160:185   */\n      dup4\n      dup2\n      mstore\n        /* \"BillionCash.sol\":2555:2597  Transfer(msg.sender, to, tokensToTransfer) */\n      swap1\n      dup8\n      and\n      swap2\n        /* \"BillionCash.sol\":2564:2574  msg.sender */\n      caller\n      swap2\n      0x00\n      dup1\n      mload\n      0x20\n      data_ada389e1fc24a8587c776340efb91b36e675792ab631816100d55df0b5cf3cbc\n      dup4\n      codecopy\n      dup2\n      mload\n      swap2\n      mstore\n        /* \"BillionCash.sol\":2555:2597  Transfer(msg.sender, to, tokensToTransfer) */\n      swap2\n        /* \"#utility.yul\":133:151   */\n      add\n        /* \"BillionCash.sol\":2555:2597  Transfer(msg.sender, to, tokensToTransfer) */\n      mload(0x40)\n      dup1\n      swap2\n      sub\n      swap1\n      log3\n        /* \"BillionCash.sol\":2634:2646  adminAddress */\n      sload(0x06)\n        /* \"BillionCash.sol\":2613:2662  Transfer(msg.sender, adminAddress, BCTokenForFee) */\n      mload(0x40)\n        /* \"#utility.yul\":160:185   */\n      dup4\n      dup2\n      mstore\n      sub(shl(0xa0, 0x01), 0x01)\n        /* \"BillionCash.sol\":2634:2646  adminAddress */\n      swap1\n      swap2\n      and\n      swap1\n        /* \"BillionCash.sol\":2622:2632  msg.sender */\n      caller\n      swap1\n      0x00\n      dup1\n      mload\n      0x20\n      data_ada389e1fc24a8587c776340efb91b36e675792ab631816100d55df0b5cf3cbc\n      dup4\n      codecopy\n      dup2\n      mload\n      swap2\n      mstore\n        /* \"BillionCash.sol\":2613:2662  Transfer(msg.sender, adminAddress, BCTokenForFee) */\n      swap1\n        /* \"#utility.yul\":148:150   */\n      0x20\n        /* \"#utility.yul\":133:151   */\n      add\n        /* \"BillionCash.sol\":2613:2662  Transfer(msg.sender, adminAddress, BCTokenForFee) */\n      mload(0x40)\n      dup1\n      swap2\n      sub\n      swap1\n      log3\n        /* \"BillionCash.sol\":2699:2714  marketingwallet */\n      sload(0x05)\n        /* \"BillionCash.sol\":2678:2730  Transfer(msg.sender, marketingwallet, BCTokenForFee) */\n      mload(0x40)\n        /* \"#utility.yul\":160:185   */\n      dup4\n      dup2\n      mstore\n      sub(shl(0xa0, 0x01), 0x01)\n        /* \"BillionCash.sol\":2699:2714  marketingwallet */\n      swap1\n      swap2\n      and\n      swap1\n        /* \"BillionCash.sol\":2687:2697  msg.sender */\n      caller\n      swap1\n      0x00\n      dup1\n      mload\n      0x20\n      data_ada389e1fc24a8587c776340efb91b36e675792ab631816100d55df0b5cf3cbc\n      dup4\n      codecopy\n      dup2\n      mload\n      swap2\n      mstore\n        /* \"BillionCash.sol\":2678:2730  Transfer(msg.sender, marketingwallet, BCTokenForFee) */\n      swap1\n        /* \"#utility.yul\":148:150   */\n      0x20\n        /* \"#utility.yul\":133:151   */\n      add\n        /* \"BillionCash.sol\":2678:2730  Transfer(msg.sender, marketingwallet, BCTokenForFee) */\n      mload(0x40)\n      dup1\n      swap2\n      sub\n      swap1\n      log3\n        /* \"BillionCash.sol\":2767:2778  pancakeswap */\n      sload(0x04)\n        /* \"BillionCash.sol\":2746:2794  Transfer(msg.sender, pancakeswap, BCTokenForFee) */\n      mload(0x40)\n        /* \"#utility.yul\":160:185   */\n      dup4\n      dup2\n      mstore\n      sub(shl(0xa0, 0x01), 0x01)\n        /* \"BillionCash.sol\":2767:2778  pancakeswap */\n      swap1\n      swap2\n      and\n      swap1\n        /* \"BillionCash.sol\":2755:2765  msg.sender */\n      caller\n      swap1\n      0x00\n      dup1\n      mload\n      0x20\n      data_ada389e1fc24a8587c776340efb91b36e675792ab631816100d55df0b5cf3cbc\n      dup4\n      codecopy\n      dup2\n      mload\n      swap2\n      mstore\n        /* \"BillionCash.sol\":2746:2794  Transfer(msg.sender, pancakeswap, BCTokenForFee) */\n      swap1\n        /* \"#utility.yul\":148:150   */\n      0x20\n        /* \"#utility.yul\":133:151   */\n      add\n        /* \"BillionCash.sol\":2746:2794  Transfer(msg.sender, pancakeswap, BCTokenForFee) */\n      mload(0x40)\n      dup1\n      swap2\n      sub\n      swap1\n      log3\n      pop\n        /* \"BillionCash.sol\":2812:2816  true */\n      0x01\n      swap5\n        /* \"BillionCash.sol\":1642:2824  function transfer(address to, uint256 value) public returns (bool) {... */\n      swap4\n      pop\n      pop\n      pop\n      pop\n      jump\t// out\n        /* \"BillionCash.sol\":5554:5670  function setDevAddress(address payable _devAddress) external onlyOwner {... */\n    tag_89:\n        /* \"@openzeppelin/contracts/access/Ownable.sol\":1082:1089  address */\n      0x00\n        /* \"@openzeppelin/contracts/access/Ownable.sol\":1108:1114  _owner */\n      sload\n      sub(shl(0xa0, 0x01), 0x01)\n      and\n        /* \"@openzeppelin/contracts/utils/Context.sol\":719:729  msg.sender */\n      caller\n        /* \"@openzeppelin/contracts/access/Ownable.sol\":1248:1271  owner() == _msgSender() */\n      eq\n        /* \"@openzeppelin/contracts/access/Ownable.sol\":1240:1308  require(owner() == _msgSender(), \"Ownable: caller is not the owner\") */\n      tag_169\n      jumpi\n      mload(0x40)\n      shl(0xe5, 0x461bcd)\n      dup2\n      mstore\n      0x04\n      add\n      tag_138\n      swap1\n      tag_139\n      jump\t// in\n    tag_169:\n        /* \"BillionCash.sol\":5636:5648  adminAddress */\n      0x06\n        /* \"BillionCash.sol\":5636:5662  adminAddress = _devAddress */\n      dup1\n      sload\n      not(sub(shl(0xa0, 0x01), 0x01))\n      and\n      sub(shl(0xa0, 0x01), 0x01)\n      swap3\n      swap1\n      swap3\n      and\n      swap2\n      swap1\n      swap2\n      or\n      swap1\n      sstore\n        /* \"BillionCash.sol\":5554:5670  function setDevAddress(address payable _devAddress) external onlyOwner {... */\n      jump\t// out\n        /* \"@openzeppelin/contracts/access/Ownable.sol\":1918:2116  function transferOwnership(address newOwner) public virtual onlyOwner {... */\n    tag_99:\n        /* \"@openzeppelin/contracts/access/Ownable.sol\":1082:1089  address */\n      0x00\n        /* \"@openzeppelin/contracts/access/Ownable.sol\":1108:1114  _owner */\n      sload\n      sub(shl(0xa0, 0x01), 0x01)\n      and\n        /* \"@openzeppelin/contracts/utils/Context.sol\":719:729  msg.sender */\n      caller\n        /* \"@openzeppelin/contracts/access/Ownable.sol\":1248:1271  owner() == _msgSender() */\n      eq\n        /* \"@openzeppelin/contracts/access/Ownable.sol\":1240:1308  require(owner() == _msgSender(), \"Ownable: caller is not the owner\") */\n      tag_176\n      jumpi\n      mload(0x40)\n      shl(0xe5, 0x461bcd)\n      dup2\n      mstore\n      0x04\n      add\n      tag_138\n      swap1\n      tag_139\n      jump\t// in\n    tag_176:\n      sub(shl(0xa0, 0x01), 0x01)\n        /* \"@openzeppelin/contracts/access/Ownable.sol\":2006:2028  newOwner != address(0) */\n      dup2\n      and\n        /* \"@openzeppelin/contracts/access/Ownable.sol\":1998:2071  require(newOwner != address(0), \"Ownable: new owner is the zero address\") */\n      tag_179\n      jumpi\n      mload(0x40)\n      shl(0xe5, 0x461bcd)\n      dup2\n      mstore\n        /* \"#utility.yul\":3772:3774   */\n      0x20\n        /* \"@openzeppelin/contracts/access/Ownable.sol\":1998:2071  require(newOwner != address(0), \"Ownable: new owner is the zero address\") */\n      0x04\n      dup3\n      add\n        /* \"#utility.yul\":3754:3775   */\n      mstore\n        /* \"#utility.yul\":3811:3813   */\n      0x26\n        /* \"#utility.yul\":3791:3809   */\n      0x24\n      dup3\n      add\n        /* \"#utility.yul\":3784:3814   */\n      mstore\n        /* \"#utility.yul\":3850:3884   */\n      0x4f776e61626c653a206e6577206f776e657220697320746865207a65726f2061\n        /* \"#utility.yul\":3830:3848   */\n      0x44\n      dup3\n      add\n        /* \"#utility.yul\":3823:3885   */\n      mstore\n      shl(0xd0, 0x646472657373)\n        /* \"#utility.yul\":3901:3919   */\n      0x64\n      dup3\n      add\n        /* \"#utility.yul\":3894:3930   */\n      mstore\n        /* \"#utility.yul\":3947:3966   */\n      0x84\n      add\n        /* \"@openzeppelin/contracts/access/Ownable.sol\":1998:2071  require(newOwner != address(0), \"Ownable: new owner is the zero address\") */\n      tag_138\n        /* \"#utility.yul\":3570:3972   */\n      jump\n        /* \"@openzeppelin/contracts/access/Ownable.sol\":1998:2071  require(newOwner != address(0), \"Ownable: new owner is the zero address\") */\n    tag_179:\n        /* \"@openzeppelin/contracts/access/Ownable.sol\":2081:2109  _transferOwnership(newOwner) */\n      tag_182\n        /* \"@openzeppelin/contracts/access/Ownable.sol\":2100:2108  newOwner */\n      dup2\n        /* \"@openzeppelin/contracts/access/Ownable.sol\":2081:2099  _transferOwnership */\n      tag_142\n        /* \"@openzeppelin/contracts/access/Ownable.sol\":2081:2109  _transferOwnership(newOwner) */\n      jump\t// in\n    tag_182:\n        /* \"@openzeppelin/contracts/access/Ownable.sol\":1918:2116  function transferOwnership(address newOwner) public virtual onlyOwner {... */\n      pop\n      jump\t// out\n        /* \"@openzeppelin/contracts/utils/math/SafeMath.sol\":2755:2851  function add(uint256 a, uint256 b) internal pure returns (uint256) {... */\n    tag_100:\n        /* \"@openzeppelin/contracts/utils/math/SafeMath.sol\":2813:2820  uint256 */\n      0x00\n        /* \"@openzeppelin/contracts/utils/math/SafeMath.sol\":2839:2844  a + b */\n      tag_184\n        /* \"@openzeppelin/contracts/utils/math/SafeMath.sol\":2843:2844  b */\n      dup3\n        /* \"@openzeppelin/contracts/utils/math/SafeMath.sol\":2839:2840  a */\n      dup5\n        /* \"@openzeppelin/contracts/utils/math/SafeMath.sol\":2839:2844  a + b */\n      tag_185\n      jump\t// in\n    tag_184:\n        /* \"@openzeppelin/contracts/utils/math/SafeMath.sol\":2832:2844  return a + b */\n      swap4\n        /* \"@openzeppelin/contracts/utils/math/SafeMath.sol\":2755:2851  function add(uint256 a, uint256 b) internal pure returns (uint256) {... */\n      swap3\n      pop\n      pop\n      pop\n      jump\t// out\n        /* \"@openzeppelin/contracts/utils/math/SafeMath.sol\":3122:3218  function sub(uint256 a, uint256 b) internal pure returns (uint256) {... */\n    tag_111:\n        /* \"@openzeppelin/contracts/utils/math/SafeMath.sol\":3180:3187  uint256 */\n      0x00\n        /* \"@openzeppelin/contracts/utils/math/SafeMath.sol\":3206:3211  a - b */\n      tag_184\n        /* \"@openzeppelin/contracts/utils/math/SafeMath.sol\":3210:3211  b */\n      dup3\n        /* \"@openzeppelin/contracts/utils/math/SafeMath.sol\":3206:3207  a */\n      dup5\n        /* \"@openzeppelin/contracts/utils/math/SafeMath.sol\":3206:3211  a - b */\n      tag_188\n      jump\t// in\n        /* \"@openzeppelin/contracts/utils/math/SafeMath.sol\":3465:3561  function mul(uint256 a, uint256 b) internal pure returns (uint256) {... */\n    tag_114:\n        /* \"@openzeppelin/contracts/utils/math/SafeMath.sol\":3523:3530  uint256 */\n      0x00\n        /* \"@openzeppelin/contracts/utils/math/SafeMath.sol\":3549:3554  a * b */\n      tag_184\n        /* \"@openzeppelin/contracts/utils/math/SafeMath.sol\":3553:3554  b */\n      dup3\n        /* \"@openzeppelin/contracts/utils/math/SafeMath.sol\":3549:3550  a */\n      dup5\n        /* \"@openzeppelin/contracts/utils/math/SafeMath.sol\":3549:3554  a * b */\n      tag_191\n      jump\t// in\n        /* \"@openzeppelin/contracts/utils/math/SafeMath.sol\":3850:3946  function div(uint256 a, uint256 b) internal pure returns (uint256) {... */\n    tag_115:\n        /* \"@openzeppelin/contracts/utils/math/SafeMath.sol\":3908:3915  uint256 */\n      0x00\n        /* \"@openzeppelin/contracts/utils/math/SafeMath.sol\":3934:3939  a / b */\n      tag_184\n        /* \"@openzeppelin/contracts/utils/math/SafeMath.sol\":3938:3939  b */\n      dup3\n        /* \"@openzeppelin/contracts/utils/math/SafeMath.sol\":3934:3935  a */\n      dup5\n        /* \"@openzeppelin/contracts/utils/math/SafeMath.sol\":3934:3939  a / b */\n      tag_194\n      jump\t// in\n        /* \"@openzeppelin/contracts/access/Ownable.sol\":2270:2457  function _transferOwnership(address newOwner) internal virtual {... */\n    tag_142:\n        /* \"@openzeppelin/contracts/access/Ownable.sol\":2343:2359  address oldOwner */\n      0x00\n        /* \"@openzeppelin/contracts/access/Ownable.sol\":2362:2368  _owner */\n      dup1\n      sload\n      sub(shl(0xa0, 0x01), 0x01)\n        /* \"@openzeppelin/contracts/access/Ownable.sol\":2378:2395  _owner = newOwner */\n      dup4\n      dup2\n      and\n      not(sub(shl(0xa0, 0x01), 0x01))\n      dup4\n      and\n      dup2\n      or\n      dup5\n      sstore\n        /* \"@openzeppelin/contracts/access/Ownable.sol\":2410:2450  OwnershipTransferred(oldOwner, newOwner) */\n      mload(0x40)\n        /* \"@openzeppelin/contracts/access/Ownable.sol\":2362:2368  _owner */\n      swap2\n      swap1\n      swap3\n      and\n      swap3\n      dup4\n      swap2\n        /* \"@openzeppelin/contracts/access/Ownable.sol\":2410:2450  OwnershipTransferred(oldOwner, newOwner) */\n      0x8be0079c531659141344cd1fd0a4f28419497f9722a3daafe3b4186f6b6457e0\n      swap2\n        /* \"@openzeppelin/contracts/access/Ownable.sol\":2343:2359  address oldOwner */\n      swap1\n        /* \"@openzeppelin/contracts/access/Ownable.sol\":2410:2450  OwnershipTransferred(oldOwner, newOwner) */\n      log3\n        /* \"@openzeppelin/contracts/access/Ownable.sol\":2333:2457  {... */\n      pop\n        /* \"@openzeppelin/contracts/access/Ownable.sol\":2270:2457  function _transferOwnership(address newOwner) internal virtual {... */\n      pop\n      jump\t// out\n        /* \"#utility.yul\":196:793   */\n    tag_32:\n        /* \"#utility.yul\":308:312   */\n      0x00\n        /* \"#utility.yul\":337:339   */\n      0x20\n        /* \"#utility.yul\":366:368   */\n      dup1\n        /* \"#utility.yul\":355:364   */\n      dup4\n        /* \"#utility.yul\":348:369   */\n      mstore\n        /* \"#utility.yul\":398:404   */\n      dup4\n        /* \"#utility.yul\":392:405   */\n      mload\n        /* \"#utility.yul\":441:447   */\n      dup1\n        /* \"#utility.yul\":436:438   */\n      dup3\n        /* \"#utility.yul\":425:434   */\n      dup6\n        /* \"#utility.yul\":421:439   */\n      add\n        /* \"#utility.yul\":414:448   */\n      mstore\n        /* \"#utility.yul\":466:467   */\n      0x00\n        /* \"#utility.yul\":476:616   */\n    tag_202:\n        /* \"#utility.yul\":490:496   */\n      dup2\n        /* \"#utility.yul\":487:488   */\n      dup2\n        /* \"#utility.yul\":484:497   */\n      lt\n        /* \"#utility.yul\":476:616   */\n      iszero\n      tag_204\n      jumpi\n        /* \"#utility.yul\":585:599   */\n      dup6\n      dup2\n      add\n        /* \"#utility.yul\":581:604   */\n      dup4\n      add\n        /* \"#utility.yul\":575:605   */\n      mload\n        /* \"#utility.yul\":551:568   */\n      dup6\n      dup3\n      add\n        /* \"#utility.yul\":570:572   */\n      0x40\n        /* \"#utility.yul\":547:573   */\n      add\n        /* \"#utility.yul\":540:606   */\n      mstore\n        /* \"#utility.yul\":505:515   */\n      dup3\n      add\n        /* \"#utility.yul\":476:616   */\n      jump(tag_202)\n    tag_204:\n        /* \"#utility.yul\":634:640   */\n      dup2\n        /* \"#utility.yul\":631:632   */\n      dup2\n        /* \"#utility.yul\":628:641   */\n      gt\n        /* \"#utility.yul\":625:716   */\n      iszero\n      tag_205\n      jumpi\n        /* \"#utility.yul\":704:705   */\n      0x00\n        /* \"#utility.yul\":699:701   */\n      0x40\n        /* \"#utility.yul\":690:696   */\n      dup4\n        /* \"#utility.yul\":679:688   */\n      dup8\n        /* \"#utility.yul\":675:697   */\n      add\n        /* \"#utility.yul\":671:702   */\n      add\n        /* \"#utility.yul\":664:706   */\n      mstore\n        /* \"#utility.yul\":625:716   */\n    tag_205:\n      pop\n        /* \"#utility.yul\":777:779   */\n      0x1f\n        /* \"#utility.yul\":756:771   */\n      add\n      not(0x1f)\n        /* \"#utility.yul\":752:781   */\n      and\n        /* \"#utility.yul\":737:782   */\n      swap3\n      swap1\n      swap3\n      add\n        /* \"#utility.yul\":784:786   */\n      0x40\n        /* \"#utility.yul\":733:787   */\n      add\n      swap4\n        /* \"#utility.yul\":196:793   */\n      swap3\n      pop\n      pop\n      pop\n      jump\t// out\n        /* \"#utility.yul\":798:929   */\n    tag_197:\n      sub(shl(0xa0, 0x01), 0x01)\n        /* \"#utility.yul\":873:904   */\n      dup2\n      and\n        /* \"#utility.yul\":863:905   */\n      dup2\n      eq\n        /* \"#utility.yul\":853:923   */\n      tag_182\n      jumpi\n        /* \"#utility.yul\":919:920   */\n      0x00\n        /* \"#utility.yul\":916:917   */\n      dup1\n        /* \"#utility.yul\":909:921   */\n      revert\n        /* \"#utility.yul\":934:1249   */\n    tag_35:\n        /* \"#utility.yul\":1002:1008   */\n      0x00\n        /* \"#utility.yul\":1010:1016   */\n      dup1\n        /* \"#utility.yul\":1063:1065   */\n      0x40\n        /* \"#utility.yul\":1051:1060   */\n      dup4\n        /* \"#utility.yul\":1042:1049   */\n      dup6\n        /* \"#utility.yul\":1038:1061   */\n      sub\n        /* \"#utility.yul\":1034:1066   */\n      slt\n        /* \"#utility.yul\":1031:1083   */\n      iszero\n      tag_209\n      jumpi\n        /* \"#utility.yul\":1079:1080   */\n      0x00\n        /* \"#utility.yul\":1076:1077   */\n      dup1\n        /* \"#utility.yul\":1069:1081   */\n      revert\n        /* \"#utility.yul\":1031:1083   */\n    tag_209:\n        /* \"#utility.yul\":1118:1127   */\n      dup3\n        /* \"#utility.yul\":1105:1128   */\n      calldataload\n        /* \"#utility.yul\":1137:1168   */\n      tag_210\n        /* \"#utility.yul\":1162:1167   */\n      dup2\n        /* \"#utility.yul\":1137:1168   */\n      tag_197\n      jump\t// in\n    tag_210:\n        /* \"#utility.yul\":1187:1192   */\n      swap5\n        /* \"#utility.yul\":1239:1241   */\n      0x20\n        /* \"#utility.yul\":1224:1242   */\n      swap4\n      swap1\n      swap4\n      add\n        /* \"#utility.yul\":1211:1243   */\n      calldataload\n      swap4\n      pop\n      pop\n      pop\n        /* \"#utility.yul\":934:1249   */\n      jump\t// out\n        /* \"#utility.yul\":1446:1902   */\n    tag_44:\n        /* \"#utility.yul\":1523:1529   */\n      0x00\n        /* \"#utility.yul\":1531:1537   */\n      dup1\n        /* \"#utility.yul\":1539:1545   */\n      0x00\n        /* \"#utility.yul\":1592:1594   */\n      0x60\n        /* \"#utility.yul\":1580:1589   */\n      dup5\n        /* \"#utility.yul\":1571:1578   */\n      dup7\n        /* \"#utility.yul\":1567:1590   */\n      sub\n        /* \"#utility.yul\":1563:1595   */\n      slt\n        /* \"#utility.yul\":1560:1612   */\n      iszero\n      tag_213\n      jumpi\n        /* \"#utility.yul\":1608:1609   */\n      0x00\n        /* \"#utility.yul\":1605:1606   */\n      dup1\n        /* \"#utility.yul\":1598:1610   */\n      revert\n        /* \"#utility.yul\":1560:1612   */\n    tag_213:\n        /* \"#utility.yul\":1647:1656   */\n      dup4\n        /* \"#utility.yul\":1634:1657   */\n      calldataload\n        /* \"#utility.yul\":1666:1697   */\n      tag_214\n        /* \"#utility.yul\":1691:1696   */\n      dup2\n        /* \"#utility.yul\":1666:1697   */\n      tag_197\n      jump\t// in\n    tag_214:\n        /* \"#utility.yul\":1716:1721   */\n      swap3\n      pop\n        /* \"#utility.yul\":1773:1775   */\n      0x20\n        /* \"#utility.yul\":1758:1776   */\n      dup5\n      add\n        /* \"#utility.yul\":1745:1777   */\n      calldataload\n        /* \"#utility.yul\":1786:1819   */\n      tag_215\n        /* \"#utility.yul\":1745:1777   */\n      dup2\n        /* \"#utility.yul\":1786:1819   */\n      tag_197\n      jump\t// in\n    tag_215:\n        /* \"#utility.yul\":1446:1902   */\n      swap3\n      swap6\n        /* \"#utility.yul\":1838:1845   */\n      swap3\n      swap5\n      pop\n      pop\n      pop\n        /* \"#utility.yul\":1892:1894   */\n      0x40\n        /* \"#utility.yul\":1877:1895   */\n      swap2\n      swap1\n      swap2\n      add\n        /* \"#utility.yul\":1864:1896   */\n      calldataload\n      swap1\n        /* \"#utility.yul\":1446:1902   */\n      jump\t// out\n        /* \"#utility.yul\":2096:2343   */\n    tag_57:\n        /* \"#utility.yul\":2155:2161   */\n      0x00\n        /* \"#utility.yul\":2208:2210   */\n      0x20\n        /* \"#utility.yul\":2196:2205   */\n      dup3\n        /* \"#utility.yul\":2187:2194   */\n      dup5\n        /* \"#utility.yul\":2183:2206   */\n      sub\n        /* \"#utility.yul\":2179:2211   */\n      slt\n        /* \"#utility.yul\":2176:2228   */\n      iszero\n      tag_218\n      jumpi\n        /* \"#utility.yul\":2224:2225   */\n      0x00\n        /* \"#utility.yul\":2221:2222   */\n      dup1\n        /* \"#utility.yul\":2214:2226   */\n      revert\n        /* \"#utility.yul\":2176:2228   */\n    tag_218:\n        /* \"#utility.yul\":2263:2272   */\n      dup2\n        /* \"#utility.yul\":2250:2273   */\n      calldataload\n        /* \"#utility.yul\":2282:2313   */\n      tag_184\n        /* \"#utility.yul\":2307:2312   */\n      dup2\n        /* \"#utility.yul\":2282:2313   */\n      tag_197\n      jump\t// in\n        /* \"#utility.yul\":2556:2944   */\n    tag_83:\n        /* \"#utility.yul\":2624:2630   */\n      0x00\n        /* \"#utility.yul\":2632:2638   */\n      dup1\n        /* \"#utility.yul\":2685:2687   */\n      0x40\n        /* \"#utility.yul\":2673:2682   */\n      dup4\n        /* \"#utility.yul\":2664:2671   */\n      dup6\n        /* \"#utility.yul\":2660:2683   */\n      sub\n        /* \"#utility.yul\":2656:2688   */\n      slt\n        /* \"#utility.yul\":2653:2705   */\n      iszero\n      tag_222\n      jumpi\n        /* \"#utility.yul\":2701:2702   */\n      0x00\n        /* \"#utility.yul\":2698:2699   */\n      dup1\n        /* \"#utility.yul\":2691:2703   */\n      revert\n        /* \"#utility.yul\":2653:2705   */\n    tag_222:\n        /* \"#utility.yul\":2740:2749   */\n      dup3\n        /* \"#utility.yul\":2727:2750   */\n      calldataload\n        /* \"#utility.yul\":2759:2790   */\n      tag_223\n        /* \"#utility.yul\":2784:2789   */\n      dup2\n        /* \"#utility.yul\":2759:2790   */\n      tag_197\n      jump\t// in\n    tag_223:\n        /* \"#utility.yul\":2809:2814   */\n      swap2\n      pop\n        /* \"#utility.yul\":2866:2868   */\n      0x20\n        /* \"#utility.yul\":2851:2869   */\n      dup4\n      add\n        /* \"#utility.yul\":2838:2870   */\n      calldataload\n        /* \"#utility.yul\":2879:2912   */\n      tag_224\n        /* \"#utility.yul\":2838:2870   */\n      dup2\n        /* \"#utility.yul\":2879:2912   */\n      tag_197\n      jump\t// in\n    tag_224:\n        /* \"#utility.yul\":2931:2938   */\n      dup1\n        /* \"#utility.yul\":2921:2938   */\n      swap2\n      pop\n      pop\n        /* \"#utility.yul\":2556:2944   */\n      swap3\n      pop\n      swap3\n      swap1\n      pop\n      jump\t// out\n        /* \"#utility.yul\":3209:3565   */\n    tag_139:\n        /* \"#utility.yul\":3411:3413   */\n      0x20\n        /* \"#utility.yul\":3393:3414   */\n      dup1\n      dup3\n      mstore\n        /* \"#utility.yul\":3430:3448   */\n      dup2\n      dup2\n      add\n        /* \"#utility.yul\":3423:3453   */\n      mstore\n        /* \"#utility.yul\":3489:3523   */\n      0x4f776e61626c653a2063616c6c6572206973206e6f7420746865206f776e6572\n        /* \"#utility.yul\":3484:3486   */\n      0x40\n        /* \"#utility.yul\":3469:3487   */\n      dup3\n      add\n        /* \"#utility.yul\":3462:3524   */\n      mstore\n        /* \"#utility.yul\":3556:3558   */\n      0x60\n        /* \"#utility.yul\":3541:3559   */\n      add\n      swap1\n        /* \"#utility.yul\":3209:3565   */\n      jump\t// out\n        /* \"#utility.yul\":3977:4104   */\n    tag_198:\n        /* \"#utility.yul\":4038:4048   */\n      0x4e487b71\n        /* \"#utility.yul\":4033:4036   */\n      0xe0\n        /* \"#utility.yul\":4029:4049   */\n      shl\n        /* \"#utility.yul\":4026:4027   */\n      0x00\n        /* \"#utility.yul\":4019:4050   */\n      mstore\n        /* \"#utility.yul\":4069:4073   */\n      0x11\n        /* \"#utility.yul\":4066:4067   */\n      0x04\n        /* \"#utility.yul\":4059:4074   */\n      mstore\n        /* \"#utility.yul\":4093:4097   */\n      0x24\n        /* \"#utility.yul\":4090:4091   */\n      0x00\n        /* \"#utility.yul\":4083:4098   */\n      revert\n        /* \"#utility.yul\":4109:4237   */\n    tag_185:\n        /* \"#utility.yul\":4149:4152   */\n      0x00\n        /* \"#utility.yul\":4180:4181   */\n      dup3\n        /* \"#utility.yul\":4176:4182   */\n      not\n        /* \"#utility.yul\":4173:4174   */\n      dup3\n        /* \"#utility.yul\":4170:4183   */\n      gt\n        /* \"#utility.yul\":4167:4206   */\n      iszero\n      tag_233\n      jumpi\n        /* \"#utility.yul\":4186:4204   */\n      tag_233\n      tag_198\n      jump\t// in\n    tag_233:\n      pop\n        /* \"#utility.yul\":4222:4231   */\n      add\n      swap1\n        /* \"#utility.yul\":4109:4237   */\n      jump\t// out\n        /* \"#utility.yul\":4242:4367   */\n    tag_188:\n        /* \"#utility.yul\":4282:4286   */\n      0x00\n        /* \"#utility.yul\":4310:4311   */\n      dup3\n        /* \"#utility.yul\":4307:4308   */\n      dup3\n        /* \"#utility.yul\":4304:4312   */\n      lt\n        /* \"#utility.yul\":4301:4335   */\n      iszero\n      tag_236\n      jumpi\n        /* \"#utility.yul\":4315:4333   */\n      tag_236\n      tag_198\n      jump\t// in\n    tag_236:\n      pop\n        /* \"#utility.yul\":4352:4361   */\n      sub\n      swap1\n        /* \"#utility.yul\":4242:4367   */\n      jump\t// out\n        /* \"#utility.yul\":4372:4540   */\n    tag_191:\n        /* \"#utility.yul\":4412:4419   */\n      0x00\n        /* \"#utility.yul\":4478:4479   */\n      dup2\n        /* \"#utility.yul\":4474:4475   */\n      0x00\n        /* \"#utility.yul\":4470:4476   */\n      not\n        /* \"#utility.yul\":4466:4480   */\n      div\n        /* \"#utility.yul\":4463:4464   */\n      dup4\n        /* \"#utility.yul\":4460:4481   */\n      gt\n        /* \"#utility.yul\":4455:4456   */\n      dup3\n        /* \"#utility.yul\":4448:4457   */\n      iszero\n        /* \"#utility.yul\":4441:4458   */\n      iszero\n        /* \"#utility.yul\":4437:4482   */\n      and\n        /* \"#utility.yul\":4434:4505   */\n      iszero\n      tag_239\n      jumpi\n        /* \"#utility.yul\":4485:4503   */\n      tag_239\n      tag_198\n      jump\t// in\n    tag_239:\n      pop\n        /* \"#utility.yul\":4525:4534   */\n      mul\n      swap1\n        /* \"#utility.yul\":4372:4540   */\n      jump\t// out\n        /* \"#utility.yul\":4545:4762   */\n    tag_194:\n        /* \"#utility.yul\":4585:4586   */\n      0x00\n        /* \"#utility.yul\":4611:4612   */\n      dup3\n        /* \"#utility.yul\":4601:4733   */\n      tag_241\n      jumpi\n        /* \"#utility.yul\":4655:4665   */\n      0x4e487b71\n        /* \"#utility.yul\":4650:4653   */\n      0xe0\n        /* \"#utility.yul\":4646:4666   */\n      shl\n        /* \"#utility.yul\":4643:4644   */\n      0x00\n        /* \"#utility.yul\":4636:4667   */\n      mstore\n        /* \"#utility.yul\":4690:4694   */\n      0x12\n        /* \"#utility.yul\":4687:4688   */\n      0x04\n        /* \"#utility.yul\":4680:4695   */\n      mstore\n        /* \"#utility.yul\":4718:4722   */\n      0x24\n        /* \"#utility.yul\":4715:4716   */\n      0x00\n        /* \"#utility.yul\":4708:4723   */\n      revert\n        /* \"#utility.yul\":4601:4733   */\n    tag_241:\n      pop\n        /* \"#utility.yul\":4747:4756   */\n      div\n      swap1\n        /* \"#utility.yul\":4545:4762   */\n      jump\t// out\n    stop\n    data_ada389e1fc24a8587c776340efb91b36e675792ab631816100d55df0b5cf3cbc ddf252ad1be2c89b69c2b068fc378daa952ba7f163c4a11628f55a4df523b3ef\n\n    auxdata: 0xa2646970667358221220431a79dfd018e7a7ad0fdd6c7a84037e65390c984bb04d7f0901ed9cf9b55e9c64736f6c634300080a0033\n}\n",
				"bytecode": {
					"linkReferences": {},
					"object": "6080604052620000126012600a62000299565b620000209061c350620002a7565b60035560405162001040380380620010408339810160408190526200004591620002c9565b620000503362000084565b600680546001600160a01b0319166001600160a01b0383169081179091556003546200007d9190620000d4565b5062000316565b600080546001600160a01b038381166001600160a01b0319831681178455604051919092169283917f8be0079c531659141344cd1fd0a4f28419497f9722a3daafe3b4186f6b6457e09190a35050565b80620000df57600080fd5b6001600160a01b0382166000908152600160209081526040909120546200011191839062000a556200016f821b17901c565b6001600160a01b0383166000818152600160205260408082209390935591519091907fddf252ad1be2c89b69c2b068fc378daa952ba7f163c4a11628f55a4df523b3ef90620001639085815260200190565b60405180910390a35050565b60006200017d8284620002fb565b90505b92915050565b634e487b7160e01b600052601160045260246000fd5b600181815b80851115620001dd578160001904821115620001c157620001c162000186565b80851615620001cf57918102915b93841c9390800290620001a1565b509250929050565b600082620001f65750600162000180565b81620002055750600062000180565b81600181146200021e5760028114620002295762000249565b600191505062000180565b60ff8411156200023d576200023d62000186565b50506001821b62000180565b5060208310610133831016604e8410600b84101617156200026e575081810a62000180565b6200027a83836200019c565b806000190482111562000291576200029162000186565b029392505050565b60006200017d8383620001e5565b6000816000190483118215151615620002c457620002c462000186565b500290565b600060208284031215620002dc57600080fd5b81516001600160a01b0381168114620002f457600080fd5b9392505050565b6000821982111562000311576200031162000186565b500190565b610d1a80620003266000396000f3fe608060405234801561001057600080fd5b50600436106101215760003560e01c80637711c596116100ad578063ba0fb86111610071578063ba0fb86114610284578063d0d41fe1146102af578063dd62ed3e146102c2578063eaf98d23146102fb578063f2fde38b1461030357600080fd5b80637711c596146102055780638da5cb5b1461022557806395d89b4114610240578063a457c2d71461025e578063a9059cbb1461027157600080fd5b806323b872dd116100f457806323b872dd1461019d578063313ce567146101b057806339509351146101bf57806370a08231146101d2578063715018a6146101fb57600080fd5b806301c234a81461012657806306fdde0314610142578063095ea7b31461017257806318160ddd14610195575b600080fd5b61012f6103e881565b6040519081526020015b60405180910390f35b60408051808201909152600b81526a084d2d8d8d2dedc86c2e6d60ab1b60208201525b6040516101399190610adc565b610185610180366004610b46565b610316565b6040519015158152602001610139565b60035461012f565b6101856101ab366004610b72565b610390565b60405160128152602001610139565b6101856101cd366004610b46565b610631565b61012f6101e0366004610bb3565b6001600160a01b031660009081526001602052604090205490565b6102036106cb565b005b61012f610213366004610bb3565b60016020526000908152604090205481565b6000546040516001600160a01b039091168152602001610139565b604080518082019091526002815261424360f01b6020820152610165565b61018561026c366004610b46565b61070a565b61018561027f366004610b46565b61074d565b61012f610292366004610bd0565b600260209081526000928352604080842090915290825290205481565b6102036102bd366004610bb3565b61096e565b61012f6102d0366004610bd0565b6001600160a01b03918216600090815260026020908152604080832093909416825291909152205490565b61012f603281565b610203610311366004610bb3565b6109ba565b60006001600160a01b03831661032b57600080fd5b3360008181526002602090815260408083206001600160a01b03881680855290835292819020869055518581529192917f8c5be1e5ebec7d5bd14f71427d1e84f3dd0314c0f7b2291e5b200ac8c7c3b92591015b60405180910390a350600192915050565b6001600160a01b0383166000908152600160205260408120548211156103b557600080fd5b6001600160a01b03841660009081526002602090815260408083203384529091529020548211156103e557600080fd5b6001600160a01b0383166103f857600080fd5b6001600160a01b03841660009081526001602052604090205461041b9083610a68565b6001600160a01b03851660009081526001602052604081209190915561044e6103e8610448856032610a74565b90610a80565b905060006104688261046281818882610a68565b90610a68565b6001600160a01b03861660009081526001602052604090205490915061048e9082610a55565b6001600160a01b0380871660009081526001602052604080822093909355600654909116815220546104c09083610a55565b600680546001600160a01b0390811660009081526001602052604080822094909455915416815220546104f39083610a55565b6005546001600160a01b0390811660009081526001602052604080822093909355600654909116815220546105289083610a55565b6004546001600160a01b0390811660009081526001602090815260408083209490945591891681526002825282812033825290915220546105699085610a68565b6001600160a01b0380881660009081526002602090815260408083203380855292529182902093909355600654905191169190600080516020610cc5833981519152906105b99086815260200190565b60405180910390a36005546040518381526001600160a01b03909116903390600080516020610cc58339815191529060200160405180910390a36004546040518381526001600160a01b03909116903390600080516020610cc58339815191529060200160405180910390a350600195945050505050565b60006001600160a01b03831661064657600080fd5b3360009081526002602090815260408083206001600160a01b03871684529091529020546106749083610a55565b3360008181526002602090815260408083206001600160a01b038916808552908352928190208590555193845290927f8c5be1e5ebec7d5bd14f71427d1e84f3dd0314c0f7b2291e5b200ac8c7c3b925910161037f565b6000546001600160a01b031633146106fe5760405162461bcd60e51b81526004016106f590610c09565b60405180910390fd5b6107086000610a8c565b565b60006001600160a01b03831661071f57600080fd5b3360009081526002602090815260408083206001600160a01b03871684529091529020546106749083610a68565b3360009081526001602052604081205482111561076957600080fd5b6001600160a01b03831661077c57600080fd5b600061078f6103e8610448856032610a74565b905060006107a38261046281818882610a68565b336000908152600160205260409020549091506107c09085610a68565b33600090815260016020526040808220929092556001600160a01b038716815220546107ec9082610a55565b6001600160a01b03808716600090815260016020526040808220939093556006549091168152205461081e9083610a55565b600680546001600160a01b0390811660009081526001602052604080822094909455915416815220546108519083610a55565b6005546001600160a01b0390811660009081526001602052604080822093909355600654909116815220546108869083610a55565b6004546001600160a01b039081166000908152600160209081526040918290209390935551838152908716913391600080516020610cc5833981519152910160405180910390a36006546040518381526001600160a01b03909116903390600080516020610cc58339815191529060200160405180910390a36005546040518381526001600160a01b03909116903390600080516020610cc58339815191529060200160405180910390a36004546040518381526001600160a01b03909116903390600080516020610cc58339815191529060200160405180910390a3506001949350505050565b6000546001600160a01b031633146109985760405162461bcd60e51b81526004016106f590610c09565b600680546001600160a01b0319166001600160a01b0392909216919091179055565b6000546001600160a01b031633146109e45760405162461bcd60e51b81526004016106f590610c09565b6001600160a01b038116610a495760405162461bcd60e51b815260206004820152602660248201527f4f776e61626c653a206e6577206f776e657220697320746865207a65726f206160448201526564647265737360d01b60648201526084016106f5565b610a5281610a8c565b50565b6000610a618284610c54565b9392505050565b6000610a618284610c6c565b6000610a618284610c83565b6000610a618284610ca2565b600080546001600160a01b038381166001600160a01b0319831681178455604051919092169283917f8be0079c531659141344cd1fd0a4f28419497f9722a3daafe3b4186f6b6457e09190a35050565b600060208083528351808285015260005b81811015610b0957858101830151858201604001528201610aed565b81811115610b1b576000604083870101525b50601f01601f1916929092016040019392505050565b6001600160a01b0381168114610a5257600080fd5b60008060408385031215610b5957600080fd5b8235610b6481610b31565b946020939093013593505050565b600080600060608486031215610b8757600080fd5b8335610b9281610b31565b92506020840135610ba281610b31565b929592945050506040919091013590565b600060208284031215610bc557600080fd5b8135610a6181610b31565b60008060408385031215610be357600080fd5b8235610bee81610b31565b91506020830135610bfe81610b31565b809150509250929050565b6020808252818101527f4f776e61626c653a2063616c6c6572206973206e6f7420746865206f776e6572604082015260600190565b634e487b7160e01b600052601160045260246000fd5b60008219821115610c6757610c67610c3e565b500190565b600082821015610c7e57610c7e610c3e565b500390565b6000816000190483118215151615610c9d57610c9d610c3e565b500290565b600082610cbf57634e487b7160e01b600052601260045260246000fd5b50049056feddf252ad1be2c89b69c2b068fc378daa952ba7f163c4a11628f55a4df523b3efa2646970667358221220431a79dfd018e7a7ad0fdd6c7a84037e65390c984bb04d7f0901ed9cf9b55e9c64736f6c634300080a0033",
					"opcodes": "PUSH1 0x80 PUSH1 0x40 MSTORE PUSH3 0x12 PUSH1 0x12 PUSH1 0xA PUSH3 0x299 JUMP JUMPDEST PUSH3 0x20 SWAP1 PUSH2 0xC350 PUSH3 0x2A7 JUMP JUMPDEST PUSH1 0x3 SSTORE PUSH1 0x40 MLOAD PUSH3 0x1040 CODESIZE SUB DUP1 PUSH3 0x1040 DUP4 CODECOPY DUP2 ADD PUSH1 0x40 DUP2 SWAP1 MSTORE PUSH3 0x45 SWAP2 PUSH3 0x2C9 JUMP JUMPDEST PUSH3 0x50 CALLER PUSH3 0x84 JUMP JUMPDEST PUSH1 0x6 DUP1 SLOAD PUSH1 0x1 PUSH1 0x1 PUSH1 0xA0 SHL SUB NOT AND PUSH1 0x1 PUSH1 0x1 PUSH1 0xA0 SHL SUB DUP4 AND SWAP1 DUP2 OR SWAP1 SWAP2 SSTORE PUSH1 0x3 SLOAD PUSH3 0x7D SWAP2 SWAP1 PUSH3 0xD4 JUMP JUMPDEST POP PUSH3 0x316 JUMP JUMPDEST PUSH1 0x0 DUP1 SLOAD PUSH1 0x1 PUSH1 0x1 PUSH1 0xA0 SHL SUB DUP4 DUP2 AND PUSH1 0x1 PUSH1 0x1 PUSH1 0xA0 SHL SUB NOT DUP4 AND DUP2 OR DUP5 SSTORE PUSH1 0x40 MLOAD SWAP2 SWAP1 SWAP3 AND SWAP3 DUP4 SWAP2 PUSH32 0x8BE0079C531659141344CD1FD0A4F28419497F9722A3DAAFE3B4186F6B6457E0 SWAP2 SWAP1 LOG3 POP POP JUMP JUMPDEST DUP1 PUSH3 0xDF JUMPI PUSH1 0x0 DUP1 REVERT JUMPDEST PUSH1 0x1 PUSH1 0x1 PUSH1 0xA0 SHL SUB DUP3 AND PUSH1 0x0 SWAP1 DUP2 MSTORE PUSH1 0x1 PUSH1 0x20 SWAP1 DUP2 MSTORE PUSH1 0x40 SWAP1 SWAP2 KECCAK256 SLOAD PUSH3 0x111 SWAP2 DUP4 SWAP1 PUSH3 0xA55 PUSH3 0x16F DUP3 SHL OR SWAP1 SHR JUMP JUMPDEST PUSH1 0x1 PUSH1 0x1 PUSH1 0xA0 SHL SUB DUP4 AND PUSH1 0x0 DUP2 DUP2 MSTORE PUSH1 0x1 PUSH1 0x20 MSTORE PUSH1 0x40 DUP1 DUP3 KECCAK256 SWAP4 SWAP1 SWAP4 SSTORE SWAP2 MLOAD SWAP1 SWAP2 SWAP1 PUSH32 0xDDF252AD1BE2C89B69C2B068FC378DAA952BA7F163C4A11628F55A4DF523B3EF SWAP1 PUSH3 0x163 SWAP1 DUP6 DUP2 MSTORE PUSH1 0x20 ADD SWAP1 JUMP JUMPDEST PUSH1 0x40 MLOAD DUP1 SWAP2 SUB SWAP1 LOG3 POP POP JUMP JUMPDEST PUSH1 0x0 PUSH3 0x17D DUP3 DUP5 PUSH3 0x2FB JUMP JUMPDEST SWAP1 POP JUMPDEST SWAP3 SWAP2 POP POP JUMP JUMPDEST PUSH4 0x4E487B71 PUSH1 0xE0 SHL PUSH1 0x0 MSTORE PUSH1 0x11 PUSH1 0x4 MSTORE PUSH1 0x24 PUSH1 0x0 REVERT JUMPDEST PUSH1 0x1 DUP2 DUP2 JUMPDEST DUP1 DUP6 GT ISZERO PUSH3 0x1DD JUMPI DUP2 PUSH1 0x0 NOT DIV DUP3 GT ISZERO PUSH3 0x1C1 JUMPI PUSH3 0x1C1 PUSH3 0x186 JUMP JUMPDEST DUP1 DUP6 AND ISZERO PUSH3 0x1CF JUMPI SWAP2 DUP2 MUL SWAP2 JUMPDEST SWAP4 DUP5 SHR SWAP4 SWAP1 DUP1 MUL SWAP1 PUSH3 0x1A1 JUMP JUMPDEST POP SWAP3 POP SWAP3 SWAP1 POP JUMP JUMPDEST PUSH1 0x0 DUP3 PUSH3 0x1F6 JUMPI POP PUSH1 0x1 PUSH3 0x180 JUMP JUMPDEST DUP2 PUSH3 0x205 JUMPI POP PUSH1 0x0 PUSH3 0x180 JUMP JUMPDEST DUP2 PUSH1 0x1 DUP2 EQ PUSH3 0x21E JUMPI PUSH1 0x2 DUP2 EQ PUSH3 0x229 JUMPI PUSH3 0x249 JUMP JUMPDEST PUSH1 0x1 SWAP2 POP POP PUSH3 0x180 JUMP JUMPDEST PUSH1 0xFF DUP5 GT ISZERO PUSH3 0x23D JUMPI PUSH3 0x23D PUSH3 0x186 JUMP JUMPDEST POP POP PUSH1 0x1 DUP3 SHL PUSH3 0x180 JUMP JUMPDEST POP PUSH1 0x20 DUP4 LT PUSH2 0x133 DUP4 LT AND PUSH1 0x4E DUP5 LT PUSH1 0xB DUP5 LT AND OR ISZERO PUSH3 0x26E JUMPI POP DUP2 DUP2 EXP PUSH3 0x180 JUMP JUMPDEST PUSH3 0x27A DUP4 DUP4 PUSH3 0x19C JUMP JUMPDEST DUP1 PUSH1 0x0 NOT DIV DUP3 GT ISZERO PUSH3 0x291 JUMPI PUSH3 0x291 PUSH3 0x186 JUMP JUMPDEST MUL SWAP4 SWAP3 POP POP POP JUMP JUMPDEST PUSH1 0x0 PUSH3 0x17D DUP4 DUP4 PUSH3 0x1E5 JUMP JUMPDEST PUSH1 0x0 DUP2 PUSH1 0x0 NOT DIV DUP4 GT DUP3 ISZERO ISZERO AND ISZERO PUSH3 0x2C4 JUMPI PUSH3 0x2C4 PUSH3 0x186 JUMP JUMPDEST POP MUL SWAP1 JUMP JUMPDEST PUSH1 0x0 PUSH1 0x20 DUP3 DUP5 SUB SLT ISZERO PUSH3 0x2DC JUMPI PUSH1 0x0 DUP1 REVERT JUMPDEST DUP2 MLOAD PUSH1 0x1 PUSH1 0x1 PUSH1 0xA0 SHL SUB DUP2 AND DUP2 EQ PUSH3 0x2F4 JUMPI PUSH1 0x0 DUP1 REVERT JUMPDEST SWAP4 SWAP3 POP POP POP JUMP JUMPDEST PUSH1 0x0 DUP3 NOT DUP3 GT ISZERO PUSH3 0x311 JUMPI PUSH3 0x311 PUSH3 0x186 JUMP JUMPDEST POP ADD SWAP1 JUMP JUMPDEST PUSH2 0xD1A DUP1 PUSH3 0x326 PUSH1 0x0 CODECOPY PUSH1 0x0 RETURN INVALID PUSH1 0x80 PUSH1 0x40 MSTORE CALLVALUE DUP1 ISZERO PUSH2 0x10 JUMPI PUSH1 0x0 DUP1 REVERT JUMPDEST POP PUSH1 0x4 CALLDATASIZE LT PUSH2 0x121 JUMPI PUSH1 0x0 CALLDATALOAD PUSH1 0xE0 SHR DUP1 PUSH4 0x7711C596 GT PUSH2 0xAD JUMPI DUP1 PUSH4 0xBA0FB861 GT PUSH2 0x71 JUMPI DUP1 PUSH4 0xBA0FB861 EQ PUSH2 0x284 JUMPI DUP1 PUSH4 0xD0D41FE1 EQ PUSH2 0x2AF JUMPI DUP1 PUSH4 0xDD62ED3E EQ PUSH2 0x2C2 JUMPI DUP1 PUSH4 0xEAF98D23 EQ PUSH2 0x2FB JUMPI DUP1 PUSH4 0xF2FDE38B EQ PUSH2 0x303 JUMPI PUSH1 0x0 DUP1 REVERT JUMPDEST DUP1 PUSH4 0x7711C596 EQ PUSH2 0x205 JUMPI DUP1 PUSH4 0x8DA5CB5B EQ PUSH2 0x225 JUMPI DUP1 PUSH4 0x95D89B41 EQ PUSH2 0x240 JUMPI DUP1 PUSH4 0xA457C2D7 EQ PUSH2 0x25E JUMPI DUP1 PUSH4 0xA9059CBB EQ PUSH2 0x271 JUMPI PUSH1 0x0 DUP1 REVERT JUMPDEST DUP1 PUSH4 0x23B872DD GT PUSH2 0xF4 JUMPI DUP1 PUSH4 0x23B872DD EQ PUSH2 0x19D JUMPI DUP1 PUSH4 0x313CE567 EQ PUSH2 0x1B0 JUMPI DUP1 PUSH4 0x39509351 EQ PUSH2 0x1BF JUMPI DUP1 PUSH4 0x70A08231 EQ PUSH2 0x1D2 JUMPI DUP1 PUSH4 0x715018A6 EQ PUSH2 0x1FB JUMPI PUSH1 0x0 DUP1 REVERT JUMPDEST DUP1 PUSH4 0x1C234A8 EQ PUSH2 0x126 JUMPI DUP1 PUSH4 0x6FDDE03 EQ PUSH2 0x142 JUMPI DUP1 PUSH4 0x95EA7B3 EQ PUSH2 0x172 JUMPI DUP1 PUSH4 0x18160DDD EQ PUSH2 0x195 JUMPI JUMPDEST PUSH1 0x0 DUP1 REVERT JUMPDEST PUSH2 0x12F PUSH2 0x3E8 DUP2 JUMP JUMPDEST PUSH1 0x40 MLOAD SWAP1 DUP2 MSTORE PUSH1 0x20 ADD JUMPDEST PUSH1 0x40 MLOAD DUP1 SWAP2 SUB SWAP1 RETURN JUMPDEST PUSH1 0x40 DUP1 MLOAD DUP1 DUP3 ADD SWAP1 SWAP2 MSTORE PUSH1 0xB DUP2 MSTORE PUSH11 0x84D2D8D8D2DEDC86C2E6D PUSH1 0xAB SHL PUSH1 0x20 DUP3 ADD MSTORE JUMPDEST PUSH1 0x40 MLOAD PUSH2 0x139 SWAP2 SWAP1 PUSH2 0xADC JUMP JUMPDEST PUSH2 0x185 PUSH2 0x180 CALLDATASIZE PUSH1 0x4 PUSH2 0xB46 JUMP JUMPDEST PUSH2 0x316 JUMP JUMPDEST PUSH1 0x40 MLOAD SWAP1 ISZERO ISZERO DUP2 MSTORE PUSH1 0x20 ADD PUSH2 0x139 JUMP JUMPDEST PUSH1 0x3 SLOAD PUSH2 0x12F JUMP JUMPDEST PUSH2 0x185 PUSH2 0x1AB CALLDATASIZE PUSH1 0x4 PUSH2 0xB72 JUMP JUMPDEST PUSH2 0x390 JUMP JUMPDEST PUSH1 0x40 MLOAD PUSH1 0x12 DUP2 MSTORE PUSH1 0x20 ADD PUSH2 0x139 JUMP JUMPDEST PUSH2 0x185 PUSH2 0x1CD CALLDATASIZE PUSH1 0x4 PUSH2 0xB46 JUMP JUMPDEST PUSH2 0x631 JUMP JUMPDEST PUSH2 0x12F PUSH2 0x1E0 CALLDATASIZE PUSH1 0x4 PUSH2 0xBB3 JUMP JUMPDEST PUSH1 0x1 PUSH1 0x1 PUSH1 0xA0 SHL SUB AND PUSH1 0x0 SWAP1 DUP2 MSTORE PUSH1 0x1 PUSH1 0x20 MSTORE PUSH1 0x40 SWAP1 KECCAK256 SLOAD SWAP1 JUMP JUMPDEST PUSH2 0x203 PUSH2 0x6CB JUMP JUMPDEST STOP JUMPDEST PUSH2 0x12F PUSH2 0x213 CALLDATASIZE PUSH1 0x4 PUSH2 0xBB3 JUMP JUMPDEST PUSH1 0x1 PUSH1 0x20 MSTORE PUSH1 0x0 SWAP1 DUP2 MSTORE PUSH1 0x40 SWAP1 KECCAK256 SLOAD DUP2 JUMP JUMPDEST PUSH1 0x0 SLOAD PUSH1 0x40 MLOAD PUSH1 0x1 PUSH1 0x1 PUSH1 0xA0 SHL SUB SWAP1 SWAP2 AND DUP2 MSTORE PUSH1 0x20 ADD PUSH2 0x139 JUMP JUMPDEST PUSH1 0x40 DUP1 MLOAD DUP1 DUP3 ADD SWAP1 SWAP2 MSTORE PUSH1 0x2 DUP2 MSTORE PUSH2 0x4243 PUSH1 0xF0 SHL PUSH1 0x20 DUP3 ADD MSTORE PUSH2 0x165 JUMP JUMPDEST PUSH2 0x185 PUSH2 0x26C CALLDATASIZE PUSH1 0x4 PUSH2 0xB46 JUMP JUMPDEST PUSH2 0x70A JUMP JUMPDEST PUSH2 0x185 PUSH2 0x27F CALLDATASIZE PUSH1 0x4 PUSH2 0xB46 JUMP JUMPDEST PUSH2 0x74D JUMP JUMPDEST PUSH2 0x12F PUSH2 0x292 CALLDATASIZE PUSH1 0x4 PUSH2 0xBD0 JUMP JUMPDEST PUSH1 0x2 PUSH1 0x20 SWAP1 DUP2 MSTORE PUSH1 0x0 SWAP3 DUP4 MSTORE PUSH1 0x40 DUP1 DUP5 KECCAK256 SWAP1 SWAP2 MSTORE SWAP1 DUP3 MSTORE SWAP1 KECCAK256 SLOAD DUP2 JUMP JUMPDEST PUSH2 0x203 PUSH2 0x2BD CALLDATASIZE PUSH1 0x4 PUSH2 0xBB3 JUMP JUMPDEST PUSH2 0x96E JUMP JUMPDEST PUSH2 0x12F PUSH2 0x2D0 CALLDATASIZE PUSH1 0x4 PUSH2 0xBD0 JUMP JUMPDEST PUSH1 0x1 PUSH1 0x1 PUSH1 0xA0 SHL SUB SWAP2 DUP3 AND PUSH1 0x0 SWAP1 DUP2 MSTORE PUSH1 0x2 PUSH1 0x20 SWAP1 DUP2 MSTORE PUSH1 0x40 DUP1 DUP4 KECCAK256 SWAP4 SWAP1 SWAP5 AND DUP3 MSTORE SWAP2 SWAP1 SWAP2 MSTORE KECCAK256 SLOAD SWAP1 JUMP JUMPDEST PUSH2 0x12F PUSH1 0x32 DUP2 JUMP JUMPDEST PUSH2 0x203 PUSH2 0x311 CALLDATASIZE PUSH1 0x4 PUSH2 0xBB3 JUMP JUMPDEST PUSH2 0x9BA JUMP JUMPDEST PUSH1 0x0 PUSH1 0x1 PUSH1 0x1 PUSH1 0xA0 SHL SUB DUP4 AND PUSH2 0x32B JUMPI PUSH1 0x0 DUP1 REVERT JUMPDEST CALLER PUSH1 0x0 DUP2 DUP2 MSTORE PUSH1 0x2 PUSH1 0x20 SWAP1 DUP2 MSTORE PUSH1 0x40 DUP1 DUP4 KECCAK256 PUSH1 0x1 PUSH1 0x1 PUSH1 0xA0 SHL SUB DUP9 AND DUP1 DUP6 MSTORE SWAP1 DUP4 MSTORE SWAP3 DUP2 SWAP1 KECCAK256 DUP7 SWAP1 SSTORE MLOAD DUP6 DUP2 MSTORE SWAP2 SWAP3 SWAP2 PUSH32 0x8C5BE1E5EBEC7D5BD14F71427D1E84F3DD0314C0F7B2291E5B200AC8C7C3B925 SWAP2 ADD JUMPDEST PUSH1 0x40 MLOAD DUP1 SWAP2 SUB SWAP1 LOG3 POP PUSH1 0x1 SWAP3 SWAP2 POP POP JUMP JUMPDEST PUSH1 0x1 PUSH1 0x1 PUSH1 0xA0 SHL SUB DUP4 AND PUSH1 0x0 SWAP1 DUP2 MSTORE PUSH1 0x1 PUSH1 0x20 MSTORE PUSH1 0x40 DUP2 KECCAK256 SLOAD DUP3 GT ISZERO PUSH2 0x3B5 JUMPI PUSH1 0x0 DUP1 REVERT JUMPDEST PUSH1 0x1 PUSH1 0x1 PUSH1 0xA0 SHL SUB DUP5 AND PUSH1 0x0 SWAP1 DUP2 MSTORE PUSH1 0x2 PUSH1 0x20 SWAP1 DUP2 MSTORE PUSH1 0x40 DUP1 DUP4 KECCAK256 CALLER DUP5 MSTORE SWAP1 SWAP2 MSTORE SWAP1 KECCAK256 SLOAD DUP3 GT ISZERO PUSH2 0x3E5 JUMPI PUSH1 0x0 DUP1 REVERT JUMPDEST PUSH1 0x1 PUSH1 0x1 PUSH1 0xA0 SHL SUB DUP4 AND PUSH2 0x3F8 JUMPI PUSH1 0x0 DUP1 REVERT JUMPDEST PUSH1 0x1 PUSH1 0x1 PUSH1 0xA0 SHL SUB DUP5 AND PUSH1 0x0 SWAP1 DUP2 MSTORE PUSH1 0x1 PUSH1 0x20 MSTORE PUSH1 0x40 SWAP1 KECCAK256 SLOAD PUSH2 0x41B SWAP1 DUP4 PUSH2 0xA68 JUMP JUMPDEST PUSH1 0x1 PUSH1 0x1 PUSH1 0xA0 SHL SUB DUP6 AND PUSH1 0x0 SWAP1 DUP2 MSTORE PUSH1 0x1 PUSH1 0x20 MSTORE PUSH1 0x40 DUP2 KECCAK256 SWAP2 SWAP1 SWAP2 SSTORE PUSH2 0x44E PUSH2 0x3E8 PUSH2 0x448 DUP6 PUSH1 0x32 PUSH2 0xA74 JUMP JUMPDEST SWAP1 PUSH2 0xA80 JUMP JUMPDEST SWAP1 POP PUSH1 0x0 PUSH2 0x468 DUP3 PUSH2 0x462 DUP2 DUP2 DUP9 DUP3 PUSH2 0xA68 JUMP JUMPDEST SWAP1 PUSH2 0xA68 JUMP JUMPDEST PUSH1 0x1 PUSH1 0x1 PUSH1 0xA0 SHL SUB DUP7 AND PUSH1 0x0 SWAP1 DUP2 MSTORE PUSH1 0x1 PUSH1 0x20 MSTORE PUSH1 0x40 SWAP1 KECCAK256 SLOAD SWAP1 SWAP2 POP PUSH2 0x48E SWAP1 DUP3 PUSH2 0xA55 JUMP JUMPDEST PUSH1 0x1 PUSH1 0x1 PUSH1 0xA0 SHL SUB DUP1 DUP8 AND PUSH1 0x0 SWAP1 DUP2 MSTORE PUSH1 0x1 PUSH1 0x20 MSTORE PUSH1 0x40 DUP1 DUP3 KECCAK256 SWAP4 SWAP1 SWAP4 SSTORE PUSH1 0x6 SLOAD SWAP1 SWAP2 AND DUP2 MSTORE KECCAK256 SLOAD PUSH2 0x4C0 SWAP1 DUP4 PUSH2 0xA55 JUMP JUMPDEST PUSH1 0x6 DUP1 SLOAD PUSH1 0x1 PUSH1 0x1 PUSH1 0xA0 SHL SUB SWAP1 DUP2 AND PUSH1 0x0 SWAP1 DUP2 MSTORE PUSH1 0x1 PUSH1 0x20 MSTORE PUSH1 0x40 DUP1 DUP3 KECCAK256 SWAP5 SWAP1 SWAP5 SSTORE SWAP2 SLOAD AND DUP2 MSTORE KECCAK256 SLOAD PUSH2 0x4F3 SWAP1 DUP4 PUSH2 0xA55 JUMP JUMPDEST PUSH1 0x5 SLOAD PUSH1 0x1 PUSH1 0x1 PUSH1 0xA0 SHL SUB SWAP1 DUP2 AND PUSH1 0x0 SWAP1 DUP2 MSTORE PUSH1 0x1 PUSH1 0x20 MSTORE PUSH1 0x40 DUP1 DUP3 KECCAK256 SWAP4 SWAP1 SWAP4 SSTORE PUSH1 0x6 SLOAD SWAP1 SWAP2 AND DUP2 MSTORE KECCAK256 SLOAD PUSH2 0x528 SWAP1 DUP4 PUSH2 0xA55 JUMP JUMPDEST PUSH1 0x4 SLOAD PUSH1 0x1 PUSH1 0x1 PUSH1 0xA0 SHL SUB SWAP1 DUP2 AND PUSH1 0x0 SWAP1 DUP2 MSTORE PUSH1 0x1 PUSH1 0x20 SWAP1 DUP2 MSTORE PUSH1 0x40 DUP1 DUP4 KECCAK256 SWAP5 SWAP1 SWAP5 SSTORE SWAP2 DUP10 AND DUP2 MSTORE PUSH1 0x2 DUP3 MSTORE DUP3 DUP2 KECCAK256 CALLER DUP3 MSTORE SWAP1 SWAP2 MSTORE KECCAK256 SLOAD PUSH2 0x569 SWAP1 DUP6 PUSH2 0xA68 JUMP JUMPDEST PUSH1 0x1 PUSH1 0x1 PUSH1 0xA0 SHL SUB DUP1 DUP9 AND PUSH1 0x0 SWAP1 DUP2 MSTORE PUSH1 0x2 PUSH1 0x20 SWAP1 DUP2 MSTORE PUSH1 0x40 DUP1 DUP4 KECCAK256 CALLER DUP1 DUP6 MSTORE SWAP3 MSTORE SWAP2 DUP3 SWAP1 KECCAK256 SWAP4 SWAP1 SWAP4 SSTORE PUSH1 0x6 SLOAD SWAP1 MLOAD SWAP2 AND SWAP2 SWAP1 PUSH1 0x0 DUP1 MLOAD PUSH1 0x20 PUSH2 0xCC5 DUP4 CODECOPY DUP2 MLOAD SWAP2 MSTORE SWAP1 PUSH2 0x5B9 SWAP1 DUP7 DUP2 MSTORE PUSH1 0x20 ADD SWAP1 JUMP JUMPDEST PUSH1 0x40 MLOAD DUP1 SWAP2 SUB SWAP1 LOG3 PUSH1 0x5 SLOAD PUSH1 0x40 MLOAD DUP4 DUP2 MSTORE PUSH1 0x1 PUSH1 0x1 PUSH1 0xA0 SHL SUB SWAP1 SWAP2 AND SWAP1 CALLER SWAP1 PUSH1 0x0 DUP1 MLOAD PUSH1 0x20 PUSH2 0xCC5 DUP4 CODECOPY DUP2 MLOAD SWAP2 MSTORE SWAP1 PUSH1 0x20 ADD PUSH1 0x40 MLOAD DUP1 SWAP2 SUB SWAP1 LOG3 PUSH1 0x4 SLOAD PUSH1 0x40 MLOAD DUP4 DUP2 MSTORE PUSH1 0x1 PUSH1 0x1 PUSH1 0xA0 SHL SUB SWAP1 SWAP2 AND SWAP1 CALLER SWAP1 PUSH1 0x0 DUP1 MLOAD PUSH1 0x20 PUSH2 0xCC5 DUP4 CODECOPY DUP2 MLOAD SWAP2 MSTORE SWAP1 PUSH1 0x20 ADD PUSH1 0x40 MLOAD DUP1 SWAP2 SUB SWAP1 LOG3 POP PUSH1 0x1 SWAP6 SWAP5 POP POP POP POP POP JUMP JUMPDEST PUSH1 0x0 PUSH1 0x1 PUSH1 0x1 PUSH1 0xA0 SHL SUB DUP4 AND PUSH2 0x646 JUMPI PUSH1 0x0 DUP1 REVERT JUMPDEST CALLER PUSH1 0x0 SWAP1 DUP2 MSTORE PUSH1 0x2 PUSH1 0x20 SWAP1 DUP2 MSTORE PUSH1 0x40 DUP1 DUP4 KECCAK256 PUSH1 0x1 PUSH1 0x1 PUSH1 0xA0 SHL SUB DUP8 AND DUP5 MSTORE SWAP1 SWAP2 MSTORE SWAP1 KECCAK256 SLOAD PUSH2 0x674 SWAP1 DUP4 PUSH2 0xA55 JUMP JUMPDEST CALLER PUSH1 0x0 DUP2 DUP2 MSTORE PUSH1 0x2 PUSH1 0x20 SWAP1 DUP2 MSTORE PUSH1 0x40 DUP1 DUP4 KECCAK256 PUSH1 0x1 PUSH1 0x1 PUSH1 0xA0 SHL SUB DUP10 AND DUP1 DUP6 MSTORE SWAP1 DUP4 MSTORE SWAP3 DUP2 SWAP1 KECCAK256 DUP6 SWAP1 SSTORE MLOAD SWAP4 DUP5 MSTORE SWAP1 SWAP3 PUSH32 0x8C5BE1E5EBEC7D5BD14F71427D1E84F3DD0314C0F7B2291E5B200AC8C7C3B925 SWAP2 ADD PUSH2 0x37F JUMP JUMPDEST PUSH1 0x0 SLOAD PUSH1 0x1 PUSH1 0x1 PUSH1 0xA0 SHL SUB AND CALLER EQ PUSH2 0x6FE JUMPI PUSH1 0x40 MLOAD PUSH3 0x461BCD PUSH1 0xE5 SHL DUP2 MSTORE PUSH1 0x4 ADD PUSH2 0x6F5 SWAP1 PUSH2 0xC09 JUMP JUMPDEST PUSH1 0x40 MLOAD DUP1 SWAP2 SUB SWAP1 REVERT JUMPDEST PUSH2 0x708 PUSH1 0x0 PUSH2 0xA8C JUMP JUMPDEST JUMP JUMPDEST PUSH1 0x0 PUSH1 0x1 PUSH1 0x1 PUSH1 0xA0 SHL SUB DUP4 AND PUSH2 0x71F JUMPI PUSH1 0x0 DUP1 REVERT JUMPDEST CALLER PUSH1 0x0 SWAP1 DUP2 MSTORE PUSH1 0x2 PUSH1 0x20 SWAP1 DUP2 MSTORE PUSH1 0x40 DUP1 DUP4 KECCAK256 PUSH1 0x1 PUSH1 0x1 PUSH1 0xA0 SHL SUB DUP8 AND DUP5 MSTORE SWAP1 SWAP2 MSTORE SWAP1 KECCAK256 SLOAD PUSH2 0x674 SWAP1 DUP4 PUSH2 0xA68 JUMP JUMPDEST CALLER PUSH1 0x0 SWAP1 DUP2 MSTORE PUSH1 0x1 PUSH1 0x20 MSTORE PUSH1 0x40 DUP2 KECCAK256 SLOAD DUP3 GT ISZERO PUSH2 0x769 JUMPI PUSH1 0x0 DUP1 REVERT JUMPDEST PUSH1 0x1 PUSH1 0x1 PUSH1 0xA0 SHL SUB DUP4 AND PUSH2 0x77C JUMPI PUSH1 0x0 DUP1 REVERT JUMPDEST PUSH1 0x0 PUSH2 0x78F PUSH2 0x3E8 PUSH2 0x448 DUP6 PUSH1 0x32 PUSH2 0xA74 JUMP JUMPDEST SWAP1 POP PUSH1 0x0 PUSH2 0x7A3 DUP3 PUSH2 0x462 DUP2 DUP2 DUP9 DUP3 PUSH2 0xA68 JUMP JUMPDEST CALLER PUSH1 0x0 SWAP1 DUP2 MSTORE PUSH1 0x1 PUSH1 0x20 MSTORE PUSH1 0x40 SWAP1 KECCAK256 SLOAD SWAP1 SWAP2 POP PUSH2 0x7C0 SWAP1 DUP6 PUSH2 0xA68 JUMP JUMPDEST CALLER PUSH1 0x0 SWAP1 DUP2 MSTORE PUSH1 0x1 PUSH1 0x20 MSTORE PUSH1 0x40 DUP1 DUP3 KECCAK256 SWAP3 SWAP1 SWAP3 SSTORE PUSH1 0x1 PUSH1 0x1 PUSH1 0xA0 SHL SUB DUP8 AND DUP2 MSTORE KECCAK256 SLOAD PUSH2 0x7EC SWAP1 DUP3 PUSH2 0xA55 JUMP JUMPDEST PUSH1 0x1 PUSH1 0x1 PUSH1 0xA0 SHL SUB DUP1 DUP8 AND PUSH1 0x0 SWAP1 DUP2 MSTORE PUSH1 0x1 PUSH1 0x20 MSTORE PUSH1 0x40 DUP1 DUP3 KECCAK256 SWAP4 SWAP1 SWAP4 SSTORE PUSH1 0x6 SLOAD SWAP1 SWAP2 AND DUP2 MSTORE KECCAK256 SLOAD PUSH2 0x81E SWAP1 DUP4 PUSH2 0xA55 JUMP JUMPDEST PUSH1 0x6 DUP1 SLOAD PUSH1 0x1 PUSH1 0x1 PUSH1 0xA0 SHL SUB SWAP1 DUP2 AND PUSH1 0x0 SWAP1 DUP2 MSTORE PUSH1 0x1 PUSH1 0x20 MSTORE PUSH1 0x40 DUP1 DUP3 KECCAK256 SWAP5 SWAP1 SWAP5 SSTORE SWAP2 SLOAD AND DUP2 MSTORE KECCAK256 SLOAD PUSH2 0x851 SWAP1 DUP4 PUSH2 0xA55 JUMP JUMPDEST PUSH1 0x5 SLOAD PUSH1 0x1 PUSH1 0x1 PUSH1 0xA0 SHL SUB SWAP1 DUP2 AND PUSH1 0x0 SWAP1 DUP2 MSTORE PUSH1 0x1 PUSH1 0x20 MSTORE PUSH1 0x40 DUP1 DUP3 KECCAK256 SWAP4 SWAP1 SWAP4 SSTORE PUSH1 0x6 SLOAD SWAP1 SWAP2 AND DUP2 MSTORE KECCAK256 SLOAD PUSH2 0x886 SWAP1 DUP4 PUSH2 0xA55 JUMP JUMPDEST PUSH1 0x4 SLOAD PUSH1 0x1 PUSH1 0x1 PUSH1 0xA0 SHL SUB SWAP1 DUP2 AND PUSH1 0x0 SWAP1 DUP2 MSTORE PUSH1 0x1 PUSH1 0x20 SWAP1 DUP2 MSTORE PUSH1 0x40 SWAP2 DUP3 SWAP1 KECCAK256 SWAP4 SWAP1 SWAP4 SSTORE MLOAD DUP4 DUP2 MSTORE SWAP1 DUP8 AND SWAP2 CALLER SWAP2 PUSH1 0x0 DUP1 MLOAD PUSH1 0x20 PUSH2 0xCC5 DUP4 CODECOPY DUP2 MLOAD SWAP2 MSTORE SWAP2 ADD PUSH1 0x40 MLOAD DUP1 SWAP2 SUB SWAP1 LOG3 PUSH1 0x6 SLOAD PUSH1 0x40 MLOAD DUP4 DUP2 MSTORE PUSH1 0x1 PUSH1 0x1 PUSH1 0xA0 SHL SUB SWAP1 SWAP2 AND SWAP1 CALLER SWAP1 PUSH1 0x0 DUP1 MLOAD PUSH1 0x20 PUSH2 0xCC5 DUP4 CODECOPY DUP2 MLOAD SWAP2 MSTORE SWAP1 PUSH1 0x20 ADD PUSH1 0x40 MLOAD DUP1 SWAP2 SUB SWAP1 LOG3 PUSH1 0x5 SLOAD PUSH1 0x40 MLOAD DUP4 DUP2 MSTORE PUSH1 0x1 PUSH1 0x1 PUSH1 0xA0 SHL SUB SWAP1 SWAP2 AND SWAP1 CALLER SWAP1 PUSH1 0x0 DUP1 MLOAD PUSH1 0x20 PUSH2 0xCC5 DUP4 CODECOPY DUP2 MLOAD SWAP2 MSTORE SWAP1 PUSH1 0x20 ADD PUSH1 0x40 MLOAD DUP1 SWAP2 SUB SWAP1 LOG3 PUSH1 0x4 SLOAD PUSH1 0x40 MLOAD DUP4 DUP2 MSTORE PUSH1 0x1 PUSH1 0x1 PUSH1 0xA0 SHL SUB SWAP1 SWAP2 AND SWAP1 CALLER SWAP1 PUSH1 0x0 DUP1 MLOAD PUSH1 0x20 PUSH2 0xCC5 DUP4 CODECOPY DUP2 MLOAD SWAP2 MSTORE SWAP1 PUSH1 0x20 ADD PUSH1 0x40 MLOAD DUP1 SWAP2 SUB SWAP1 LOG3 POP PUSH1 0x1 SWAP5 SWAP4 POP POP POP POP JUMP JUMPDEST PUSH1 0x0 SLOAD PUSH1 0x1 PUSH1 0x1 PUSH1 0xA0 SHL SUB AND CALLER EQ PUSH2 0x998 JUMPI PUSH1 0x40 MLOAD PUSH3 0x461BCD PUSH1 0xE5 SHL DUP2 MSTORE PUSH1 0x4 ADD PUSH2 0x6F5 SWAP1 PUSH2 0xC09 JUMP JUMPDEST PUSH1 0x6 DUP1 SLOAD PUSH1 0x1 PUSH1 0x1 PUSH1 0xA0 SHL SUB NOT AND PUSH1 0x1 PUSH1 0x1 PUSH1 0xA0 SHL SUB SWAP3 SWAP1 SWAP3 AND SWAP2 SWAP1 SWAP2 OR SWAP1 SSTORE JUMP JUMPDEST PUSH1 0x0 SLOAD PUSH1 0x1 PUSH1 0x1 PUSH1 0xA0 SHL SUB AND CALLER EQ PUSH2 0x9E4 JUMPI PUSH1 0x40 MLOAD PUSH3 0x461BCD PUSH1 0xE5 SHL DUP2 MSTORE PUSH1 0x4 ADD PUSH2 0x6F5 SWAP1 PUSH2 0xC09 JUMP JUMPDEST PUSH1 0x1 PUSH1 0x1 PUSH1 0xA0 SHL SUB DUP2 AND PUSH2 0xA49 JUMPI PUSH1 0x40 MLOAD PUSH3 0x461BCD PUSH1 0xE5 SHL DUP2 MSTORE PUSH1 0x20 PUSH1 0x4 DUP3 ADD MSTORE PUSH1 0x26 PUSH1 0x24 DUP3 ADD MSTORE PUSH32 0x4F776E61626C653A206E6577206F776E657220697320746865207A65726F2061 PUSH1 0x44 DUP3 ADD MSTORE PUSH6 0x646472657373 PUSH1 0xD0 SHL PUSH1 0x64 DUP3 ADD MSTORE PUSH1 0x84 ADD PUSH2 0x6F5 JUMP JUMPDEST PUSH2 0xA52 DUP2 PUSH2 0xA8C JUMP JUMPDEST POP JUMP JUMPDEST PUSH1 0x0 PUSH2 0xA61 DUP3 DUP5 PUSH2 0xC54 JUMP JUMPDEST SWAP4 SWAP3 POP POP POP JUMP JUMPDEST PUSH1 0x0 PUSH2 0xA61 DUP3 DUP5 PUSH2 0xC6C JUMP JUMPDEST PUSH1 0x0 PUSH2 0xA61 DUP3 DUP5 PUSH2 0xC83 JUMP JUMPDEST PUSH1 0x0 PUSH2 0xA61 DUP3 DUP5 PUSH2 0xCA2 JUMP JUMPDEST PUSH1 0x0 DUP1 SLOAD PUSH1 0x1 PUSH1 0x1 PUSH1 0xA0 SHL SUB DUP4 DUP2 AND PUSH1 0x1 PUSH1 0x1 PUSH1 0xA0 SHL SUB NOT DUP4 AND DUP2 OR DUP5 SSTORE PUSH1 0x40 MLOAD SWAP2 SWAP1 SWAP3 AND SWAP3 DUP4 SWAP2 PUSH32 0x8BE0079C531659141344CD1FD0A4F28419497F9722A3DAAFE3B4186F6B6457E0 SWAP2 SWAP1 LOG3 POP POP JUMP JUMPDEST PUSH1 0x0 PUSH1 0x20 DUP1 DUP4 MSTORE DUP4 MLOAD DUP1 DUP3 DUP6 ADD MSTORE PUSH1 0x0 JUMPDEST DUP2 DUP2 LT ISZERO PUSH2 0xB09 JUMPI DUP6 DUP2 ADD DUP4 ADD MLOAD DUP6 DUP3 ADD PUSH1 0x40 ADD MSTORE DUP3 ADD PUSH2 0xAED JUMP JUMPDEST DUP2 DUP2 GT ISZERO PUSH2 0xB1B JUMPI PUSH1 0x0 PUSH1 0x40 DUP4 DUP8 ADD ADD MSTORE JUMPDEST POP PUSH1 0x1F ADD PUSH1 0x1F NOT AND SWAP3 SWAP1 SWAP3 ADD PUSH1 0x40 ADD SWAP4 SWAP3 POP POP POP JUMP JUMPDEST PUSH1 0x1 PUSH1 0x1 PUSH1 0xA0 SHL SUB DUP2 AND DUP2 EQ PUSH2 0xA52 JUMPI PUSH1 0x0 DUP1 REVERT JUMPDEST PUSH1 0x0 DUP1 PUSH1 0x40 DUP4 DUP6 SUB SLT ISZERO PUSH2 0xB59 JUMPI PUSH1 0x0 DUP1 REVERT JUMPDEST DUP3 CALLDATALOAD PUSH2 0xB64 DUP2 PUSH2 0xB31 JUMP JUMPDEST SWAP5 PUSH1 0x20 SWAP4 SWAP1 SWAP4 ADD CALLDATALOAD SWAP4 POP POP POP JUMP JUMPDEST PUSH1 0x0 DUP1 PUSH1 0x0 PUSH1 0x60 DUP5 DUP7 SUB SLT ISZERO PUSH2 0xB87 JUMPI PUSH1 0x0 DUP1 REVERT JUMPDEST DUP4 CALLDATALOAD PUSH2 0xB92 DUP2 PUSH2 0xB31 JUMP JUMPDEST SWAP3 POP PUSH1 0x20 DUP5 ADD CALLDATALOAD PUSH2 0xBA2 DUP2 PUSH2 0xB31 JUMP JUMPDEST SWAP3 SWAP6 SWAP3 SWAP5 POP POP POP PUSH1 0x40 SWAP2 SWAP1 SWAP2 ADD CALLDATALOAD SWAP1 JUMP JUMPDEST PUSH1 0x0 PUSH1 0x20 DUP3 DUP5 SUB SLT ISZERO PUSH2 0xBC5 JUMPI PUSH1 0x0 DUP1 REVERT JUMPDEST DUP2 CALLDATALOAD PUSH2 0xA61 DUP2 PUSH2 0xB31 JUMP JUMPDEST PUSH1 0x0 DUP1 PUSH1 0x40 DUP4 DUP6 SUB SLT ISZERO PUSH2 0xBE3 JUMPI PUSH1 0x0 DUP1 REVERT JUMPDEST DUP3 CALLDATALOAD PUSH2 0xBEE DUP2 PUSH2 0xB31 JUMP JUMPDEST SWAP2 POP PUSH1 0x20 DUP4 ADD CALLDATALOAD PUSH2 0xBFE DUP2 PUSH2 0xB31 JUMP JUMPDEST DUP1 SWAP2 POP POP SWAP3 POP SWAP3 SWAP1 POP JUMP JUMPDEST PUSH1 0x20 DUP1 DUP3 MSTORE DUP2 DUP2 ADD MSTORE PUSH32 0x4F776E61626C653A2063616C6C6572206973206E6F7420746865206F776E6572 PUSH1 0x40 DUP3 ADD MSTORE PUSH1 0x60 ADD SWAP1 JUMP JUMPDEST PUSH4 0x4E487B71 PUSH1 0xE0 SHL PUSH1 0x0 MSTORE PUSH1 0x11 PUSH1 0x4 MSTORE PUSH1 0x24 PUSH1 0x0 REVERT JUMPDEST PUSH1 0x0 DUP3 NOT DUP3 GT ISZERO PUSH2 0xC67 JUMPI PUSH2 0xC67 PUSH2 0xC3E JUMP JUMPDEST POP ADD SWAP1 JUMP JUMPDEST PUSH1 0x0 DUP3 DUP3 LT ISZERO PUSH2 0xC7E JUMPI PUSH2 0xC7E PUSH2 0xC3E JUMP JUMPDEST POP SUB SWAP1 JUMP JUMPDEST PUSH1 0x0 DUP2 PUSH1 0x0 NOT DIV DUP4 GT DUP3 ISZERO ISZERO AND ISZERO PUSH2 0xC9D JUMPI PUSH2 0xC9D PUSH2 0xC3E JUMP JUMPDEST POP MUL SWAP1 JUMP JUMPDEST PUSH1 0x0 DUP3 PUSH2 0xCBF JUMPI PUSH4 0x4E487B71 PUSH1 0xE0 SHL PUSH1 0x0 MSTORE PUSH1 0x12 PUSH1 0x4 MSTORE PUSH1 0x24 PUSH1 0x0 REVERT JUMPDEST POP DIV SWAP1 JUMP INVALID 0xDD CALLCODE MSTORE 0xAD SHL 0xE2 0xC8 SWAP12 PUSH10 0xC2B068FC378DAA952BA7 CALL PUSH4 0xC4A11628 CREATE2 GAS 0x4D CREATE2 0x23 0xB3 0xEF LOG2 PUSH5 0x6970667358 0x22 SLT KECCAK256 NUMBER BYTE PUSH26 0xDFD018E7A7AD0FDD6C7A84037E65390C984BB04D7F0901ED9CF9 0xB5 0x5E SWAP13 PUSH5 0x736F6C6343 STOP ADDMOD EXP STOP CALLER "
				},
				"gasEstimates": {
					"creation": {
						"codeDepositCost": "670800",
						"executionCost": "infinite",
						"totalCost": "infinite"
					},
					"external": {
						"FEE_PERCENT()": "272",
						"PERCENTS_DIVIDER()": "208",
						"_BCTokenBalances(address)": "2525",
						"_allowed(address,address)": "infinite",
						"allowance(address,address)": "infinite",
						"approve(address,uint256)": "24582",
						"balanceOf(address)": "2609",
						"decimals()": "222",
						"decreaseAllowance(address,uint256)": "26984",
						"increaseAllowance(address,uint256)": "26965",
						"name()": "infinite",
						"owner()": "2346",
						"renounceOwnership()": "28225",
						"setDevAddress(address)": "26749",
						"symbol()": "infinite",
						"totalSupply()": "2371",
						"transfer(address,uint256)": "infinite",
						"transferFrom(address,address,uint256)": "infinite",
						"transferOwnership(address)": "infinite"
					},
					"internal": {
						"_mint(address,uint256)": "infinite"
					}
				},
				"methodIdentifiers": {
					"FEE_PERCENT()": "eaf98d23",
					"PERCENTS_DIVIDER()": "01c234a8",
					"_BCTokenBalances(address)": "7711c596",
					"_allowed(address,address)": "ba0fb861",
					"allowance(address,address)": "dd62ed3e",
					"approve(address,uint256)": "095ea7b3",
					"balanceOf(address)": "70a08231",
					"decimals()": "313ce567",
					"decreaseAllowance(address,uint256)": "a457c2d7",
					"increaseAllowance(address,uint256)": "39509351",
					"name()": "06fdde03",
					"owner()": "8da5cb5b",
					"renounceOwnership()": "715018a6",
					"setDevAddress(address)": "d0d41fe1",
					"symbol()": "95d89b41",
					"totalSupply()": "18160ddd",
					"transfer(address,uint256)": "a9059cbb",
					"transferFrom(address,address,uint256)": "23b872dd",
					"transferOwnership(address)": "f2fde38b"
				}
			},
			"storageLayout": {
				"storage": [
					{
						"astId": 7,
						"contract": "BillionCash.sol:BillionCash",
						"label": "_owner",
						"offset": 0,
						"slot": "0",
						"type": "t_address"
					},
					{
						"astId": 451,
						"contract": "BillionCash.sol:BillionCash",
						"label": "_BCTokenBalances",
						"offset": 0,
						"slot": "1",
						"type": "t_mapping(t_address,t_uint256)"
					},
					{
						"astId": 457,
						"contract": "BillionCash.sol:BillionCash",
						"label": "_allowed",
						"offset": 0,
						"slot": "2",
						"type": "t_mapping(t_address,t_mapping(t_address,t_uint256))"
					},
					{
						"astId": 476,
						"contract": "BillionCash.sol:BillionCash",
						"label": "_totalSupply",
						"offset": 0,
						"slot": "3",
						"type": "t_uint256"
					},
					{
						"astId": 478,
						"contract": "BillionCash.sol:BillionCash",
						"label": "pancakeswap",
						"offset": 0,
						"slot": "4",
						"type": "t_address_payable"
					},
					{
						"astId": 480,
						"contract": "BillionCash.sol:BillionCash",
						"label": "marketingwallet",
						"offset": 0,
						"slot": "5",
						"type": "t_address_payable"
					},
					{
						"astId": 482,
						"contract": "BillionCash.sol:BillionCash",
						"label": "adminAddress",
						"offset": 0,
						"slot": "6",
						"type": "t_address_payable"
					}
				],
				"types": {
					"t_address": {
						"encoding": "inplace",
						"label": "address",
						"numberOfBytes": "20"
					},
					"t_address_payable": {
						"encoding": "inplace",
						"label": "address payable",
						"numberOfBytes": "20"
					},
					"t_mapping(t_address,t_mapping(t_address,t_uint256))": {
						"encoding": "mapping",
						"key": "t_address",
						"label": "mapping(address => mapping(address => uint256))",
						"numberOfBytes": "32",
						"value": "t_mapping(t_address,t_uint256)"
					},
					"t_mapping(t_address,t_uint256)": {
						"encoding": "mapping",
						"key": "t_address",
						"label": "mapping(address => uint256)",
						"numberOfBytes": "32",
						"value": "t_uint256"
					},
					"t_uint256": {
						"encoding": "inplace",
						"label": "uint256",
						"numberOfBytes": "32"
					}
				}
			},
			"userdoc": {
				"kind": "user",
				"methods": {},
				"version": 1
			}
		}
	}
}