{
	"BillionCash.sol": {
		"BillionCash": {
			"abi": [
				{
					"inputs": [
						{
							"internalType": "address",
							"name": "_developmentWallet",
							"type": "address"
						},
						{
							"internalType": "address",
							"name": "_marketingWallet",
							"type": "address"
						},
						{
							"internalType": "address",
							"name": "_pancakeswap",
							"type": "address"
						}
					],
					"stateMutability": "nonpayable",
					"type": "constructor"
				},
				{
					"anonymous": false,
					"inputs": [
						{
							"indexed": true,
							"internalType": "address",
							"name": "owner",
							"type": "address"
						},
						{
							"indexed": true,
							"internalType": "address",
							"name": "spender",
							"type": "address"
						},
						{
							"indexed": false,
							"internalType": "uint256",
							"name": "value",
							"type": "uint256"
						}
					],
					"name": "Approval",
					"type": "event"
				},
				{
					"anonymous": false,
					"inputs": [
						{
							"indexed": true,
							"internalType": "address",
							"name": "previousOwner",
							"type": "address"
						},
						{
							"indexed": true,
							"internalType": "address",
							"name": "newOwner",
							"type": "address"
						}
					],
					"name": "OwnershipTransferred",
					"type": "event"
				},
				{
					"anonymous": false,
					"inputs": [
						{
							"indexed": true,
							"internalType": "address",
							"name": "from",
							"type": "address"
						},
						{
							"indexed": true,
							"internalType": "address",
							"name": "to",
							"type": "address"
						},
						{
							"indexed": false,
							"internalType": "uint256",
							"name": "value",
							"type": "uint256"
						}
					],
					"name": "Transfer",
					"type": "event"
				},
				{
					"inputs": [],
					"name": "FEE_PERCENT",
					"outputs": [
						{
							"internalType": "uint256",
							"name": "",
							"type": "uint256"
						}
					],
					"stateMutability": "view",
					"type": "function"
				},
				{
					"inputs": [],
					"name": "PERCENTS_DIVIDER",
					"outputs": [
						{
							"internalType": "uint256",
							"name": "",
							"type": "uint256"
						}
					],
					"stateMutability": "view",
					"type": "function"
				},
				{
					"inputs": [
						{
							"internalType": "address",
							"name": "",
							"type": "address"
						}
					],
					"name": "_BCTokenBalances",
					"outputs": [
						{
							"internalType": "uint256",
							"name": "",
							"type": "uint256"
						}
					],
					"stateMutability": "view",
					"type": "function"
				},
				{
					"inputs": [
						{
							"internalType": "address",
							"name": "",
							"type": "address"
						},
						{
							"internalType": "address",
							"name": "",
							"type": "address"
						}
					],
					"name": "_allowed",
					"outputs": [
						{
							"internalType": "uint256",
							"name": "",
							"type": "uint256"
						}
					],
					"stateMutability": "view",
					"type": "function"
				},
				{
					"inputs": [
						{
							"internalType": "address",
							"name": "owner",
							"type": "address"
						},
						{
							"internalType": "address",
							"name": "spender",
							"type": "address"
						}
					],
					"name": "allowance",
					"outputs": [
						{
							"internalType": "uint256",
							"name": "",
							"type": "uint256"
						}
					],
					"stateMutability": "view",
					"type": "function"
				},
				{
					"inputs": [
						{
							"internalType": "address",
							"name": "spender",
							"type": "address"
						},
						{
							"internalType": "uint256",
							"name": "value",
							"type": "uint256"
						}
					],
					"name": "approve",
					"outputs": [
						{
							"internalType": "bool",
							"name": "",
							"type": "bool"
						}
					],
					"stateMutability": "nonpayable",
					"type": "function"
				},
				{
					"inputs": [
						{
							"internalType": "address",
							"name": "owner",
							"type": "address"
						}
					],
					"name": "balanceOf",
					"outputs": [
						{
							"internalType": "uint256",
							"name": "",
							"type": "uint256"
						}
					],
					"stateMutability": "view",
					"type": "function"
				},
				{
					"inputs": [],
					"name": "decimals",
					"outputs": [
						{
							"internalType": "uint8",
							"name": "",
							"type": "uint8"
						}
					],
					"stateMutability": "pure",
					"type": "function"
				},
				{
					"inputs": [
						{
							"internalType": "address",
							"name": "spender",
							"type": "address"
						},
						{
							"internalType": "uint256",
							"name": "subtractedValue",
							"type": "uint256"
						}
					],
					"name": "decreaseAllowance",
					"outputs": [
						{
							"internalType": "bool",
							"name": "",
							"type": "bool"
						}
					],
					"stateMutability": "nonpayable",
					"type": "function"
				},
				{
					"inputs": [
						{
							"internalType": "address",
							"name": "spender",
							"type": "address"
						},
						{
							"internalType": "uint256",
							"name": "addedValue",
							"type": "uint256"
						}
					],
					"name": "increaseAllowance",
					"outputs": [
						{
							"internalType": "bool",
							"name": "",
							"type": "bool"
						}
					],
					"stateMutability": "nonpayable",
					"type": "function"
				},
				{
					"inputs": [],
					"name": "name",
					"outputs": [
						{
							"internalType": "string",
							"name": "",
							"type": "string"
						}
					],
					"stateMutability": "pure",
					"type": "function"
				},
				{
					"inputs": [],
					"name": "owner",
					"outputs": [
						{
							"internalType": "address",
							"name": "",
							"type": "address"
						}
					],
					"stateMutability": "view",
					"type": "function"
				},
				{
					"inputs": [],
					"name": "renounceOwnership",
					"outputs": [],
					"stateMutability": "nonpayable",
					"type": "function"
				},
				{
					"inputs": [
						{
							"internalType": "address",
							"name": "_developmentAddress",
							"type": "address"
						}
					],
					"name": "setDevelopmentAddress",
					"outputs": [],
					"stateMutability": "nonpayable",
					"type": "function"
				},
				{
					"inputs": [
						{
							"internalType": "address",
							"name": "_marketAddress",
							"type": "address"
						}
					],
					"name": "setMarketAddress",
					"outputs": [],
					"stateMutability": "nonpayable",
					"type": "function"
				},
				{
					"inputs": [
						{
							"internalType": "address",
							"name": "_pancakeAddress",
							"type": "address"
						}
					],
					"name": "setPancakeAddress",
					"outputs": [],
					"stateMutability": "nonpayable",
					"type": "function"
				},
				{
					"inputs": [],
					"name": "symbol",
					"outputs": [
						{
							"internalType": "string",
							"name": "",
							"type": "string"
						}
					],
					"stateMutability": "pure",
					"type": "function"
				},
				{
					"inputs": [],
					"name": "totalSupply",
					"outputs": [
						{
							"internalType": "uint256",
							"name": "",
							"type": "uint256"
						}
					],
					"stateMutability": "view",
					"type": "function"
				},
				{
					"inputs": [
						{
							"internalType": "address",
							"name": "to",
							"type": "address"
						},
						{
							"internalType": "uint256",
							"name": "value",
							"type": "uint256"
						}
					],
					"name": "transfer",
					"outputs": [
						{
							"internalType": "bool",
							"name": "",
							"type": "bool"
						}
					],
					"stateMutability": "nonpayable",
					"type": "function"
				},
				{
					"inputs": [
						{
							"internalType": "address",
							"name": "from",
							"type": "address"
						},
						{
							"internalType": "address",
							"name": "to",
							"type": "address"
						},
						{
							"internalType": "uint256",
							"name": "value",
							"type": "uint256"
						}
					],
					"name": "transferFrom",
					"outputs": [
						{
							"internalType": "bool",
							"name": "",
							"type": "bool"
						}
					],
					"stateMutability": "nonpayable",
					"type": "function"
				},
				{
					"inputs": [
						{
							"internalType": "address",
							"name": "newOwner",
							"type": "address"
						}
					],
					"name": "transferOwnership",
					"outputs": [],
					"stateMutability": "nonpayable",
					"type": "function"
				}
			],
			"devdoc": {
				"kind": "dev",
				"methods": {
					"owner()": {
						"details": "Returns the address of the current owner."
					},
					"renounceOwnership()": {
						"details": "Leaves the contract without owner. It will not be possible to call `onlyOwner` functions anymore. Can only be called by the current owner. NOTE: Renouncing ownership will leave the contract without an owner, thereby removing any functionality that is only available to the owner."
					},
					"transferOwnership(address)": {
						"details": "Transfers ownership of the contract to a new account (`newOwner`). Can only be called by the current owner."
					}
				},
				"version": 1
			},
			"evm": {
				"assembly": "    /* \"BillionCash.sol\":186:6090  contract BillionCash is Ownable {... */\n  mstore(0x40, 0x80)\n    /* \"BillionCash.sol\":546:572  10**uint256(tokenDecimals) */\n  tag_1\n    /* \"BillionCash.sol\":506:508  18 */\n  0x12\n    /* \"BillionCash.sol\":546:548  10 */\n  0x0a\n    /* \"BillionCash.sol\":546:572  10**uint256(tokenDecimals) */\n  tag_2\n  jump\t// in\ntag_1:\n    /* \"BillionCash.sol\":538:572  50000 * 10**uint256(tokenDecimals) */\n  tag_3\n  swap1\n    /* \"BillionCash.sol\":538:543  50000 */\n  0xc350\n    /* \"BillionCash.sol\":538:572  50000 * 10**uint256(tokenDecimals) */\n  tag_4\n  jump\t// in\ntag_3:\n    /* \"BillionCash.sol\":515:572  uint256 _totalSupply = 50000 * 10**uint256(tokenDecimals) */\n  0x03\n  sstore\n    /* \"BillionCash.sol\":965:1268  constructor(... */\n  callvalue\n  dup1\n  iszero\n  tag_5\n  jumpi\n  0x00\n  dup1\n  revert\ntag_5:\n  pop\n  mload(0x40)\n  sub(codesize, bytecodeSize)\n  dup1\n  bytecodeSize\n  dup4\n  codecopy\n  dup2\n  add\n  0x40\n  dup2\n  swap1\n  mstore\n  tag_6\n  swap2\n  tag_7\n  jump\t// in\ntag_6:\n    /* \"@openzeppelin/contracts/access/Ownable.sol\":921:953  _transferOwnership(_msgSender()) */\n  tag_11\n    /* \"@openzeppelin/contracts/utils/Context.sol\":719:729  msg.sender */\n  caller\n    /* \"@openzeppelin/contracts/access/Ownable.sol\":921:939  _transferOwnership */\n  tag_14\n    /* \"@openzeppelin/contracts/access/Ownable.sol\":921:953  _transferOwnership(_msgSender()) */\n  jump\t// in\ntag_11:\n    /* \"BillionCash.sol\":1098:1110  adminAddress */\n  0x06\n    /* \"BillionCash.sol\":1098:1131  adminAddress = _developmentWallet */\n  dup1\n  sload\n  sub(shl(0xa0, 0x01), 0x01)\n  dup1\n  dup7\n  and\n  not(sub(shl(0xa0, 0x01), 0x01))\n  swap3\n  dup4\n  and\n  or\n  swap1\n  swap3\n  sstore\n    /* \"BillionCash.sol\":1142:1157  marketingwallet */\n  0x05\n    /* \"BillionCash.sol\":1142:1176  marketingwallet = _marketingWallet */\n  dup1\n  sload\n  dup6\n  dup5\n  and\n  swap1\n  dup4\n  and\n  dup2\n  or\n  swap1\n  swap2\n  sstore\n    /* \"BillionCash.sol\":1187:1198  pancakeswap */\n  0x04\n    /* \"BillionCash.sol\":1187:1213  pancakeswap = _pancakeswap */\n  dup1\n  sload\n  swap4\n  dup6\n  and\n  swap4\n  swap1\n  swap3\n  and\n  swap3\n  swap1\n  swap3\n  or\n  swap1\n  sstore\n    /* \"BillionCash.sol\":1247:1259  _totalSupply */\n  sload(0x03)\n    /* \"BillionCash.sol\":1224:1260  _mint(marketingwallet, _totalSupply) */\n  tag_16\n  swap2\n    /* \"BillionCash.sol\":1142:1176  marketingwallet = _marketingWallet */\n  swap1\n    /* \"BillionCash.sol\":1224:1229  _mint */\n  tag_17\n    /* \"BillionCash.sol\":1224:1260  _mint(marketingwallet, _totalSupply) */\n  jump\t// in\ntag_16:\n    /* \"BillionCash.sol\":965:1268  constructor(... */\n  pop\n  pop\n  pop\n    /* \"BillionCash.sol\":186:6090  contract BillionCash is Ownable {... */\n  jump(tag_34)\n    /* \"@openzeppelin/contracts/access/Ownable.sol\":2270:2457  function _transferOwnership(address newOwner) internal virtual {... */\ntag_14:\n    /* \"@openzeppelin/contracts/access/Ownable.sol\":2343:2359  address oldOwner */\n  0x00\n    /* \"@openzeppelin/contracts/access/Ownable.sol\":2362:2368  _owner */\n  dup1\n  sload\n  sub(shl(0xa0, 0x01), 0x01)\n    /* \"@openzeppelin/contracts/access/Ownable.sol\":2378:2395  _owner = newOwner */\n  dup4\n  dup2\n  and\n  not(sub(shl(0xa0, 0x01), 0x01))\n  dup4\n  and\n  dup2\n  or\n  dup5\n  sstore\n    /* \"@openzeppelin/contracts/access/Ownable.sol\":2410:2450  OwnershipTransferred(oldOwner, newOwner) */\n  mload(0x40)\n    /* \"@openzeppelin/contracts/access/Ownable.sol\":2362:2368  _owner */\n  swap2\n  swap1\n  swap3\n  and\n  swap3\n  dup4\n  swap2\n    /* \"@openzeppelin/contracts/access/Ownable.sol\":2410:2450  OwnershipTransferred(oldOwner, newOwner) */\n  0x8be0079c531659141344cd1fd0a4f28419497f9722a3daafe3b4186f6b6457e0\n  swap2\n    /* \"@openzeppelin/contracts/access/Ownable.sol\":2343:2359  address oldOwner */\n  swap1\n    /* \"@openzeppelin/contracts/access/Ownable.sol\":2410:2450  OwnershipTransferred(oldOwner, newOwner) */\n  log3\n    /* \"@openzeppelin/contracts/access/Ownable.sol\":2333:2457  {... */\n  pop\n    /* \"@openzeppelin/contracts/access/Ownable.sol\":2270:2457  function _transferOwnership(address newOwner) internal virtual {... */\n  pop\n  jump\t// out\n    /* \"BillionCash.sol\":5468:5693  function _mint(address account, uint256 amount) internal {... */\ntag_17:\n    /* \"BillionCash.sol\":5544:5555  amount != 0 */\n  dup1\n    /* \"BillionCash.sol\":5536:5556  require(amount != 0) */\n  tag_22\n  jumpi\n  0x00\n  dup1\n  revert\ntag_22:\n  sub(shl(0xa0, 0x01), 0x01)\n    /* \"BillionCash.sol\":5595:5620  _BCTokenBalances[account] */\n  dup3\n  and\n  0x00\n  swap1\n  dup2\n  mstore\n    /* \"BillionCash.sol\":5595:5611  _BCTokenBalances */\n  0x01\n    /* \"BillionCash.sol\":5595:5620  _BCTokenBalances[account] */\n  0x20\n  swap1\n  dup2\n  mstore\n  0x40\n  swap1\n  swap2\n  keccak256\n  sload\n    /* \"BillionCash.sol\":5595:5632  _BCTokenBalances[account].add(amount) */\n  tag_23\n  swap2\n    /* \"BillionCash.sol\":5625:5631  amount */\n  dup4\n  swap1\n    /* \"BillionCash.sol\":5595:5624  _BCTokenBalances[account].add */\n  tag_0_107\n  tag_24\n  dup3\n  shl\n  or\n    /* \"BillionCash.sol\":5595:5632  _BCTokenBalances[account].add(amount) */\n  swap1\n  shr\n  jump\t// in\ntag_23:\n  sub(shl(0xa0, 0x01), 0x01)\n    /* \"BillionCash.sol\":5567:5592  _BCTokenBalances[account] */\n  dup4\n  and\n  0x00\n  dup2\n  dup2\n  mstore\n    /* \"BillionCash.sol\":5567:5583  _BCTokenBalances */\n  0x01\n    /* \"BillionCash.sol\":5567:5592  _BCTokenBalances[account] */\n  0x20\n  mstore\n  0x40\n  dup1\n  dup3\n  keccak256\n    /* \"BillionCash.sol\":5567:5632  _BCTokenBalances[account] = _BCTokenBalances[account].add(amount) */\n  swap4\n  swap1\n  swap4\n  sstore\n    /* \"BillionCash.sol\":5648:5685  Transfer(address(0), account, amount) */\n  swap2\n  mload\n    /* \"BillionCash.sol\":5567:5592  _BCTokenBalances[account] */\n  swap1\n  swap2\n  swap1\n    /* \"BillionCash.sol\":5648:5685  Transfer(address(0), account, amount) */\n  0xddf252ad1be2c89b69c2b068fc378daa952ba7f163c4a11628f55a4df523b3ef\n  swap1\n  tag_25\n  swap1\n    /* \"BillionCash.sol\":5678:5684  amount */\n  dup6\n    /* \"#utility.yul\":2404:2429   */\n  dup2\n  mstore\n    /* \"#utility.yul\":2392:2394   */\n  0x20\n    /* \"#utility.yul\":2377:2395   */\n  add\n  swap1\n    /* \"#utility.yul\":2258:2435   */\n  jump\n    /* \"BillionCash.sol\":5648:5685  Transfer(address(0), account, amount) */\ntag_25:\n  mload(0x40)\n  dup1\n  swap2\n  sub\n  swap1\n  log3\n    /* \"BillionCash.sol\":5468:5693  function _mint(address account, uint256 amount) internal {... */\n  pop\n  pop\n  jump\t// out\n    /* \"@openzeppelin/contracts/utils/math/SafeMath.sol\":2755:2851  function add(uint256 a, uint256 b) internal pure returns (uint256) {... */\ntag_24:\n    /* \"@openzeppelin/contracts/utils/math/SafeMath.sol\":2813:2820  uint256 */\n  0x00\n    /* \"@openzeppelin/contracts/utils/math/SafeMath.sol\":2839:2844  a + b */\n  tag_28\n    /* \"@openzeppelin/contracts/utils/math/SafeMath.sol\":2843:2844  b */\n  dup3\n    /* \"@openzeppelin/contracts/utils/math/SafeMath.sol\":2839:2840  a */\n  dup5\n    /* \"@openzeppelin/contracts/utils/math/SafeMath.sol\":2839:2844  a + b */\n  tag_29\n  jump\t// in\ntag_28:\n    /* \"@openzeppelin/contracts/utils/math/SafeMath.sol\":2832:2844  return a + b */\n  swap1\n  pop\n    /* \"@openzeppelin/contracts/utils/math/SafeMath.sol\":2755:2851  function add(uint256 a, uint256 b) internal pure returns (uint256) {... */\ntag_27:\n  swap3\n  swap2\n  pop\n  pop\n  jump\t// out\n    /* \"#utility.yul\":14:141   */\ntag_30:\n    /* \"#utility.yul\":75:85   */\n  0x4e487b71\n    /* \"#utility.yul\":70:73   */\n  0xe0\n    /* \"#utility.yul\":66:86   */\n  shl\n    /* \"#utility.yul\":63:64   */\n  0x00\n    /* \"#utility.yul\":56:87   */\n  mstore\n    /* \"#utility.yul\":106:110   */\n  0x11\n    /* \"#utility.yul\":103:104   */\n  0x04\n    /* \"#utility.yul\":96:111   */\n  mstore\n    /* \"#utility.yul\":130:134   */\n  0x24\n    /* \"#utility.yul\":127:128   */\n  0x00\n    /* \"#utility.yul\":120:135   */\n  revert\n    /* \"#utility.yul\":146:568   */\ntag_31:\n    /* \"#utility.yul\":235:236   */\n  0x01\n    /* \"#utility.yul\":278:283   */\n  dup2\n    /* \"#utility.yul\":235:236   */\n  dup2\n    /* \"#utility.yul\":292:562   */\ntag_37:\n    /* \"#utility.yul\":313:320   */\n  dup1\n    /* \"#utility.yul\":303:311   */\n  dup6\n    /* \"#utility.yul\":300:321   */\n  gt\n    /* \"#utility.yul\":292:562   */\n  iszero\n  tag_39\n  jumpi\n    /* \"#utility.yul\":372:376   */\n  dup2\n    /* \"#utility.yul\":368:369   */\n  0x00\n    /* \"#utility.yul\":364:370   */\n  not\n    /* \"#utility.yul\":360:377   */\n  div\n    /* \"#utility.yul\":354:358   */\n  dup3\n    /* \"#utility.yul\":351:378   */\n  gt\n    /* \"#utility.yul\":348:401   */\n  iszero\n  tag_41\n  jumpi\n    /* \"#utility.yul\":381:399   */\n  tag_41\n  tag_30\n  jump\t// in\ntag_41:\n    /* \"#utility.yul\":431:438   */\n  dup1\n    /* \"#utility.yul\":421:429   */\n  dup6\n    /* \"#utility.yul\":417:439   */\n  and\n    /* \"#utility.yul\":414:469   */\n  iszero\n  tag_42\n  jumpi\n    /* \"#utility.yul\":451:467   */\n  swap2\n  dup2\n  mul\n  swap2\n    /* \"#utility.yul\":414:469   */\ntag_42:\n    /* \"#utility.yul\":530:552   */\n  swap4\n  dup5\n  shr\n  swap4\n    /* \"#utility.yul\":490:505   */\n  swap1\n  dup1\n  mul\n  swap1\n    /* \"#utility.yul\":292:562   */\n  jump(tag_37)\ntag_39:\n    /* \"#utility.yul\":296:299   */\n  pop\n    /* \"#utility.yul\":146:568   */\n  swap3\n  pop\n  swap3\n  swap1\n  pop\n  jump\t// out\n    /* \"#utility.yul\":573:1379   */\ntag_32:\n    /* \"#utility.yul\":622:627   */\n  0x00\n    /* \"#utility.yul\":652:660   */\n  dup3\n    /* \"#utility.yul\":642:722   */\n  tag_44\n  jumpi\n  pop\n    /* \"#utility.yul\":693:694   */\n  0x01\n    /* \"#utility.yul\":707:712   */\n  jump(tag_27)\n    /* \"#utility.yul\":642:722   */\ntag_44:\n    /* \"#utility.yul\":741:745   */\n  dup2\n    /* \"#utility.yul\":731:807   */\n  tag_45\n  jumpi\n  pop\n    /* \"#utility.yul\":778:779   */\n  0x00\n    /* \"#utility.yul\":792:797   */\n  jump(tag_27)\n    /* \"#utility.yul\":731:807   */\ntag_45:\n    /* \"#utility.yul\":823:827   */\n  dup2\n    /* \"#utility.yul\":841:842   */\n  0x01\n    /* \"#utility.yul\":836:895   */\n  dup2\n  eq\n  tag_47\n  jumpi\n    /* \"#utility.yul\":909:910   */\n  0x02\n    /* \"#utility.yul\":904:1034   */\n  dup2\n  eq\n  tag_48\n  jumpi\n    /* \"#utility.yul\":816:1034   */\n  jump(tag_46)\n    /* \"#utility.yul\":836:895   */\ntag_47:\n    /* \"#utility.yul\":866:867   */\n  0x01\n    /* \"#utility.yul\":857:867   */\n  swap2\n  pop\n    /* \"#utility.yul\":880:885   */\n  pop\n  jump(tag_27)\n    /* \"#utility.yul\":904:1034   */\ntag_48:\n    /* \"#utility.yul\":941:944   */\n  0xff\n    /* \"#utility.yul\":931:939   */\n  dup5\n    /* \"#utility.yul\":928:945   */\n  gt\n    /* \"#utility.yul\":925:968   */\n  iszero\n  tag_50\n  jumpi\n    /* \"#utility.yul\":948:966   */\n  tag_50\n  tag_30\n  jump\t// in\ntag_50:\n  pop\n  pop\n    /* \"#utility.yul\":1004:1005   */\n  0x01\n    /* \"#utility.yul\":990:1006   */\n  dup3\n  shl\n    /* \"#utility.yul\":1019:1024   */\n  jump(tag_27)\n    /* \"#utility.yul\":816:1034   */\ntag_46:\n  pop\n    /* \"#utility.yul\":1118:1120   */\n  0x20\n    /* \"#utility.yul\":1108:1116   */\n  dup4\n    /* \"#utility.yul\":1105:1121   */\n  lt\n    /* \"#utility.yul\":1099:1102   */\n  0x0133\n    /* \"#utility.yul\":1093:1097   */\n  dup4\n    /* \"#utility.yul\":1090:1103   */\n  lt\n    /* \"#utility.yul\":1086:1122   */\n  and\n    /* \"#utility.yul\":1080:1082   */\n  0x4e\n    /* \"#utility.yul\":1070:1078   */\n  dup5\n    /* \"#utility.yul\":1067:1083   */\n  lt\n    /* \"#utility.yul\":1062:1064   */\n  0x0b\n    /* \"#utility.yul\":1056:1060   */\n  dup5\n    /* \"#utility.yul\":1053:1065   */\n  lt\n    /* \"#utility.yul\":1049:1084   */\n  and\n    /* \"#utility.yul\":1046:1123   */\n  or\n    /* \"#utility.yul\":1043:1202   */\n  iszero\n  tag_51\n  jumpi\n  pop\n    /* \"#utility.yul\":1155:1174   */\n  dup2\n  dup2\n  exp\n    /* \"#utility.yul\":1187:1192   */\n  jump(tag_27)\n    /* \"#utility.yul\":1043:1202   */\ntag_51:\n    /* \"#utility.yul\":1234:1268   */\n  tag_52\n    /* \"#utility.yul\":1259:1267   */\n  dup4\n    /* \"#utility.yul\":1253:1257   */\n  dup4\n    /* \"#utility.yul\":1234:1268   */\n  tag_31\n  jump\t// in\ntag_52:\n    /* \"#utility.yul\":1304:1310   */\n  dup1\n    /* \"#utility.yul\":1300:1301   */\n  0x00\n    /* \"#utility.yul\":1296:1302   */\n  not\n    /* \"#utility.yul\":1292:1311   */\n  div\n    /* \"#utility.yul\":1283:1290   */\n  dup3\n    /* \"#utility.yul\":1280:1312   */\n  gt\n    /* \"#utility.yul\":1277:1335   */\n  iszero\n  tag_54\n  jumpi\n    /* \"#utility.yul\":1315:1333   */\n  tag_54\n  tag_30\n  jump\t// in\ntag_54:\n    /* \"#utility.yul\":1353:1373   */\n  mul\n  swap4\n    /* \"#utility.yul\":573:1379   */\n  swap3\n  pop\n  pop\n  pop\n  jump\t// out\n    /* \"#utility.yul\":1384:1515   */\ntag_2:\n    /* \"#utility.yul\":1444:1449   */\n  0x00\n    /* \"#utility.yul\":1473:1509   */\n  tag_28\n    /* \"#utility.yul\":1500:1508   */\n  dup4\n    /* \"#utility.yul\":1494:1498   */\n  dup4\n    /* \"#utility.yul\":1473:1509   */\n  tag_32\n  jump\t// in\n    /* \"#utility.yul\":1520:1688   */\ntag_4:\n    /* \"#utility.yul\":1560:1567   */\n  0x00\n    /* \"#utility.yul\":1626:1627   */\n  dup2\n    /* \"#utility.yul\":1622:1623   */\n  0x00\n    /* \"#utility.yul\":1618:1624   */\n  not\n    /* \"#utility.yul\":1614:1628   */\n  div\n    /* \"#utility.yul\":1611:1612   */\n  dup4\n    /* \"#utility.yul\":1608:1629   */\n  gt\n    /* \"#utility.yul\":1603:1604   */\n  dup3\n    /* \"#utility.yul\":1596:1605   */\n  iszero\n    /* \"#utility.yul\":1589:1606   */\n  iszero\n    /* \"#utility.yul\":1585:1630   */\n  and\n    /* \"#utility.yul\":1582:1653   */\n  iszero\n  tag_59\n  jumpi\n    /* \"#utility.yul\":1633:1651   */\n  tag_59\n  tag_30\n  jump\t// in\ntag_59:\n  pop\n    /* \"#utility.yul\":1673:1682   */\n  mul\n  swap1\n    /* \"#utility.yul\":1520:1688   */\n  jump\t// out\n    /* \"#utility.yul\":1693:1870   */\ntag_33:\n    /* \"#utility.yul\":1772:1785   */\n  dup1\n  mload\n  sub(shl(0xa0, 0x01), 0x01)\n    /* \"#utility.yul\":1814:1845   */\n  dup2\n  and\n    /* \"#utility.yul\":1804:1846   */\n  dup2\n  eq\n    /* \"#utility.yul\":1794:1864   */\n  tag_61\n  jumpi\n    /* \"#utility.yul\":1860:1861   */\n  0x00\n    /* \"#utility.yul\":1857:1858   */\n  dup1\n    /* \"#utility.yul\":1850:1862   */\n  revert\n    /* \"#utility.yul\":1794:1864   */\ntag_61:\n    /* \"#utility.yul\":1693:1870   */\n  swap2\n  swap1\n  pop\n  jump\t// out\n    /* \"#utility.yul\":1875:2253   */\ntag_7:\n    /* \"#utility.yul\":1963:1969   */\n  0x00\n    /* \"#utility.yul\":1971:1977   */\n  dup1\n    /* \"#utility.yul\":1979:1985   */\n  0x00\n    /* \"#utility.yul\":2032:2034   */\n  0x60\n    /* \"#utility.yul\":2020:2029   */\n  dup5\n    /* \"#utility.yul\":2011:2018   */\n  dup7\n    /* \"#utility.yul\":2007:2030   */\n  sub\n    /* \"#utility.yul\":2003:2035   */\n  slt\n    /* \"#utility.yul\":2000:2052   */\n  iszero\n  tag_63\n  jumpi\n    /* \"#utility.yul\":2048:2049   */\n  0x00\n    /* \"#utility.yul\":2045:2046   */\n  dup1\n    /* \"#utility.yul\":2038:2050   */\n  revert\n    /* \"#utility.yul\":2000:2052   */\ntag_63:\n    /* \"#utility.yul\":2071:2111   */\n  tag_64\n    /* \"#utility.yul\":2101:2110   */\n  dup5\n    /* \"#utility.yul\":2071:2111   */\n  tag_33\n  jump\t// in\ntag_64:\n    /* \"#utility.yul\":2061:2111   */\n  swap3\n  pop\n    /* \"#utility.yul\":2130:2179   */\n  tag_65\n    /* \"#utility.yul\":2175:2177   */\n  0x20\n    /* \"#utility.yul\":2164:2173   */\n  dup6\n    /* \"#utility.yul\":2160:2178   */\n  add\n    /* \"#utility.yul\":2130:2179   */\n  tag_33\n  jump\t// in\ntag_65:\n    /* \"#utility.yul\":2120:2179   */\n  swap2\n  pop\n    /* \"#utility.yul\":2198:2247   */\n  tag_66\n    /* \"#utility.yul\":2243:2245   */\n  0x40\n    /* \"#utility.yul\":2232:2241   */\n  dup6\n    /* \"#utility.yul\":2228:2246   */\n  add\n    /* \"#utility.yul\":2198:2247   */\n  tag_33\n  jump\t// in\ntag_66:\n    /* \"#utility.yul\":2188:2247   */\n  swap1\n  pop\n    /* \"#utility.yul\":1875:2253   */\n  swap3\n  pop\n  swap3\n  pop\n  swap3\n  jump\t// out\n    /* \"#utility.yul\":2440:2568   */\ntag_29:\n    /* \"#utility.yul\":2480:2483   */\n  0x00\n    /* \"#utility.yul\":2511:2512   */\n  dup3\n    /* \"#utility.yul\":2507:2513   */\n  not\n    /* \"#utility.yul\":2504:2505   */\n  dup3\n    /* \"#utility.yul\":2501:2514   */\n  gt\n    /* \"#utility.yul\":2498:2537   */\n  iszero\n  tag_70\n  jumpi\n    /* \"#utility.yul\":2517:2535   */\n  tag_70\n  tag_30\n  jump\t// in\ntag_70:\n  pop\n    /* \"#utility.yul\":2553:2562   */\n  add\n  swap1\n    /* \"#utility.yul\":2440:2568   */\n  jump\t// out\ntag_34:\n    /* \"BillionCash.sol\":186:6090  contract BillionCash is Ownable {... */\n  dataSize(sub_0)\n  dup1\n  dataOffset(sub_0)\n  0x00\n  codecopy\n  0x00\n  return\nstop\n\nsub_0: assembly {\n        /* \"BillionCash.sol\":186:6090  contract BillionCash is Ownable {... */\n      mstore(0x40, 0x80)\n      callvalue\n      dup1\n      iszero\n      tag_1\n      jumpi\n      0x00\n      dup1\n      revert\n    tag_1:\n      pop\n      jumpi(tag_2, lt(calldatasize, 0x04))\n      shr(0xe0, calldataload(0x00))\n      dup1\n      0x7711c596\n      gt\n      tag_24\n      jumpi\n      dup1\n      0xa9059cbb\n      gt\n      tag_25\n      jumpi\n      dup1\n      0xa9059cbb\n      eq\n      tag_18\n      jumpi\n      dup1\n      0xba0fb861\n      eq\n      tag_19\n      jumpi\n      dup1\n      0xdd62ed3e\n      eq\n      tag_20\n      jumpi\n      dup1\n      0xeaf98d23\n      eq\n      tag_21\n      jumpi\n      dup1\n      0xf2fde38b\n      eq\n      tag_22\n      jumpi\n      dup1\n      0xfae92612\n      eq\n      tag_23\n      jumpi\n      0x00\n      dup1\n      revert\n    tag_25:\n      dup1\n      0x7711c596\n      eq\n      tag_13\n      jumpi\n      dup1\n      0x8da5cb5b\n      eq\n      tag_14\n      jumpi\n      dup1\n      0x95d89b41\n      eq\n      tag_15\n      jumpi\n      dup1\n      0xa457c2d7\n      eq\n      tag_16\n      jumpi\n      dup1\n      0xa70b4607\n      eq\n      tag_17\n      jumpi\n      0x00\n      dup1\n      revert\n    tag_24:\n      dup1\n      0x29b1c15c\n      gt\n      tag_26\n      jumpi\n      dup1\n      0x29b1c15c\n      eq\n      tag_8\n      jumpi\n      dup1\n      0x313ce567\n      eq\n      tag_9\n      jumpi\n      dup1\n      0x39509351\n      eq\n      tag_10\n      jumpi\n      dup1\n      0x70a08231\n      eq\n      tag_11\n      jumpi\n      dup1\n      0x715018a6\n      eq\n      tag_12\n      jumpi\n      0x00\n      dup1\n      revert\n    tag_26:\n      dup1\n      0x01c234a8\n      eq\n      tag_3\n      jumpi\n      dup1\n      0x06fdde03\n      eq\n      tag_4\n      jumpi\n      dup1\n      0x095ea7b3\n      eq\n      tag_5\n      jumpi\n      dup1\n      0x18160ddd\n      eq\n      tag_6\n      jumpi\n      dup1\n      0x23b872dd\n      eq\n      tag_7\n      jumpi\n    tag_2:\n      0x00\n      dup1\n      revert\n        /* \"BillionCash.sol\":662:709  uint256 public constant PERCENTS_DIVIDER = 1000 */\n    tag_3:\n      tag_27\n        /* \"BillionCash.sol\":705:709  1000 */\n      0x03e8\n        /* \"BillionCash.sol\":662:709  uint256 public constant PERCENTS_DIVIDER = 1000 */\n      dup2\n      jump\n    tag_27:\n      mload(0x40)\n        /* \"#utility.yul\":160:185   */\n      swap1\n      dup2\n      mstore\n        /* \"#utility.yul\":148:150   */\n      0x20\n        /* \"#utility.yul\":133:151   */\n      add\n        /* \"BillionCash.sol\":662:709  uint256 public constant PERCENTS_DIVIDER = 1000 */\n    tag_29:\n      mload(0x40)\n      dup1\n      swap2\n      sub\n      swap1\n      return\n        /* \"BillionCash.sol\":1276:1363  function name() public pure returns (string memory) {... */\n    tag_4:\n        /* \"BillionCash.sol\":1346:1355  tokenName */\n      0x40\n      dup1\n      mload\n      dup1\n      dup3\n      add\n      swap1\n      swap2\n      mstore\n      0x0b\n      dup2\n      mstore\n      shl(0xab, 0x084d2d8d8d2dedc86c2e6d)\n      0x20\n      dup3\n      add\n      mstore\n        /* \"BillionCash.sol\":1276:1363  function name() public pure returns (string memory) {... */\n    tag_31:\n      mload(0x40)\n      tag_29\n      swap2\n      swap1\n      tag_34\n      jump\t// in\n        /* \"BillionCash.sol\":3148:3390  function approve(address spender, uint256 value) public returns (bool) {... */\n    tag_5:\n      tag_35\n      tag_36\n      calldatasize\n      0x04\n      tag_37\n      jump\t// in\n    tag_36:\n      tag_38\n      jump\t// in\n    tag_35:\n      mload(0x40)\n        /* \"#utility.yul\":1400:1414   */\n      swap1\n      iszero\n        /* \"#utility.yul\":1393:1415   */\n      iszero\n        /* \"#utility.yul\":1375:1416   */\n      dup2\n      mstore\n        /* \"#utility.yul\":1363:1365   */\n      0x20\n        /* \"#utility.yul\":1348:1366   */\n      add\n        /* \"BillionCash.sol\":3148:3390  function approve(address spender, uint256 value) public returns (bool) {... */\n      tag_29\n        /* \"#utility.yul\":1235:1422   */\n      jump\n        /* \"BillionCash.sol\":1565:1656  function totalSupply() public view returns (uint256) {... */\n    tag_6:\n        /* \"BillionCash.sol\":1636:1648  _totalSupply */\n      sload(0x03)\n        /* \"BillionCash.sol\":1565:1656  function totalSupply() public view returns (uint256) {... */\n      jump(tag_27)\n        /* \"BillionCash.sol\":3398:4694  function transferFrom(... */\n    tag_7:\n      tag_35\n      tag_45\n      calldatasize\n      0x04\n      tag_46\n      jump\t// in\n    tag_45:\n      tag_47\n      jump\t// in\n        /* \"BillionCash.sol\":5701:5834  function setDevelopmentAddress(address  _developmentAddress) external onlyOwner {... */\n    tag_8:\n      tag_49\n      tag_50\n      calldatasize\n      0x04\n      tag_51\n      jump\t// in\n    tag_50:\n      tag_52\n      jump\t// in\n    tag_49:\n      stop\n        /* \"BillionCash.sol\":1470:1557  function decimals() public pure returns (uint8) {... */\n    tag_9:\n      mload(0x40)\n        /* \"BillionCash.sol\":506:508  18 */\n      0x12\n        /* \"#utility.yul\":2093:2129   */\n      dup2\n      mstore\n        /* \"#utility.yul\":2081:2083   */\n      0x20\n        /* \"#utility.yul\":2066:2084   */\n      add\n        /* \"BillionCash.sol\":1470:1557  function decimals() public pure returns (uint8) {... */\n      tag_29\n        /* \"#utility.yul\":1951:2135   */\n      jump\n        /* \"BillionCash.sol\":4702:5072  function increaseAllowance(address spender, uint256 addedValue)... */\n    tag_10:\n      tag_35\n      tag_58\n      calldatasize\n      0x04\n      tag_37\n      jump\t// in\n    tag_58:\n      tag_59\n      jump\t// in\n        /* \"BillionCash.sol\":1664:1777  function balanceOf(address owner) public view returns (uint256) {... */\n    tag_11:\n      tag_27\n      tag_62\n      calldatasize\n      0x04\n      tag_51\n      jump\t// in\n    tag_62:\n      sub(shl(0xa0, 0x01), 0x01)\n        /* \"BillionCash.sol\":1746:1769  _BCTokenBalances[owner] */\n      and\n        /* \"BillionCash.sol\":1719:1726  uint256 */\n      0x00\n        /* \"BillionCash.sol\":1746:1769  _BCTokenBalances[owner] */\n      swap1\n      dup2\n      mstore\n        /* \"BillionCash.sol\":1746:1762  _BCTokenBalances */\n      0x01\n        /* \"BillionCash.sol\":1746:1769  _BCTokenBalances[owner] */\n      0x20\n      mstore\n      0x40\n      swap1\n      keccak256\n      sload\n      swap1\n        /* \"BillionCash.sol\":1664:1777  function balanceOf(address owner) public view returns (uint256) {... */\n      jump\n        /* \"@openzeppelin/contracts/access/Ownable.sol\":1668:1769  function renounceOwnership() public virtual onlyOwner {... */\n    tag_12:\n      tag_49\n      tag_66\n      jump\t// in\n        /* \"BillionCash.sol\":258:309  mapping(address => uint256) public _BCTokenBalances */\n    tag_13:\n      tag_27\n      tag_68\n      calldatasize\n      0x04\n      tag_51\n      jump\t// in\n    tag_68:\n      mstore(0x20, 0x01)\n      0x00\n      swap1\n      dup2\n      mstore\n      0x40\n      swap1\n      keccak256\n      sload\n      dup2\n      jump\n        /* \"@openzeppelin/contracts/access/Ownable.sol\":1036:1121  function owner() public view virtual returns (address) {... */\n    tag_14:\n        /* \"@openzeppelin/contracts/access/Ownable.sol\":1082:1089  address */\n      0x00\n        /* \"@openzeppelin/contracts/access/Ownable.sol\":1108:1114  _owner */\n      sload\n        /* \"@openzeppelin/contracts/access/Ownable.sol\":1036:1121  function owner() public view virtual returns (address) {... */\n      mload(0x40)\n      sub(shl(0xa0, 0x01), 0x01)\n        /* \"@openzeppelin/contracts/access/Ownable.sol\":1108:1114  _owner */\n      swap1\n      swap2\n      and\n        /* \"#utility.yul\":2286:2337   */\n      dup2\n      mstore\n        /* \"#utility.yul\":2274:2276   */\n      0x20\n        /* \"#utility.yul\":2259:2277   */\n      add\n        /* \"@openzeppelin/contracts/access/Ownable.sol\":1036:1121  function owner() public view virtual returns (address) {... */\n      tag_29\n        /* \"#utility.yul\":2140:2343   */\n      jump\n        /* \"BillionCash.sol\":1371:1462  function symbol() public pure returns (string memory) {... */\n    tag_15:\n        /* \"BillionCash.sol\":1443:1454  tokenSymbol */\n      0x40\n      dup1\n      mload\n      dup1\n      dup3\n      add\n      swap1\n      swap2\n      mstore\n      0x02\n      dup2\n      mstore\n      shl(0xf0, 0x4243)\n      0x20\n      dup3\n      add\n      mstore\n        /* \"BillionCash.sol\":1371:1462  function symbol() public pure returns (string memory) {... */\n      jump(tag_31)\n        /* \"BillionCash.sol\":5080:5460  function decreaseAllowance(address spender, uint256 subtractedValue)... */\n    tag_16:\n      tag_35\n      tag_79\n      calldatasize\n      0x04\n      tag_37\n      jump\t// in\n    tag_79:\n      tag_80\n      jump\t// in\n        /* \"BillionCash.sol\":5967:6087  function setPancakeAddress(address  _pancakeAddress) external onlyOwner {... */\n    tag_17:\n      tag_49\n      tag_83\n      calldatasize\n      0x04\n      tag_51\n      jump\t// in\n    tag_83:\n      tag_84\n      jump\t// in\n        /* \"BillionCash.sol\":1785:2969  function transfer(address to, uint256 value) public returns (bool) {... */\n    tag_18:\n      tag_35\n      tag_86\n      calldatasize\n      0x04\n      tag_37\n      jump\t// in\n    tag_86:\n      tag_87\n      jump\t// in\n        /* \"BillionCash.sol\":316:379  mapping(address => mapping(address => uint256)) public _allowed */\n    tag_19:\n      tag_27\n      tag_90\n      calldatasize\n      0x04\n      tag_91\n      jump\t// in\n    tag_90:\n      0x02\n      0x20\n      swap1\n      dup2\n      mstore\n      0x00\n      swap3\n      dup4\n      mstore\n      0x40\n      dup1\n      dup5\n      keccak256\n      swap1\n      swap2\n      mstore\n      swap1\n      dup3\n      mstore\n      swap1\n      keccak256\n      sload\n      dup2\n      jump\n        /* \"BillionCash.sol\":2977:3140  function allowance(address owner, address spender)... */\n    tag_20:\n      tag_27\n      tag_95\n      calldatasize\n      0x04\n      tag_91\n      jump\t// in\n    tag_95:\n      sub(shl(0xa0, 0x01), 0x01)\n        /* \"BillionCash.sol\":3108:3123  _allowed[owner] */\n      swap2\n      dup3\n      and\n        /* \"BillionCash.sol\":3076:3083  uint256 */\n      0x00\n        /* \"BillionCash.sol\":3108:3123  _allowed[owner] */\n      swap1\n      dup2\n      mstore\n        /* \"BillionCash.sol\":3108:3116  _allowed */\n      0x02\n        /* \"BillionCash.sol\":3108:3123  _allowed[owner] */\n      0x20\n      swap1\n      dup2\n      mstore\n      0x40\n      dup1\n      dup4\n      keccak256\n        /* \"BillionCash.sol\":3108:3132  _allowed[owner][spender] */\n      swap4\n      swap1\n      swap5\n      and\n      dup3\n      mstore\n      swap2\n      swap1\n      swap2\n      mstore\n      keccak256\n      sload\n      swap1\n        /* \"BillionCash.sol\":2977:3140  function allowance(address owner, address spender)... */\n      jump\n        /* \"BillionCash.sol\":716:756  uint256 public constant FEE_PERCENT = 50 */\n    tag_21:\n      tag_27\n        /* \"BillionCash.sol\":754:756  50 */\n      0x32\n        /* \"BillionCash.sol\":716:756  uint256 public constant FEE_PERCENT = 50 */\n      dup2\n      jump\n        /* \"@openzeppelin/contracts/access/Ownable.sol\":1918:2116  function transferOwnership(address newOwner) public virtual onlyOwner {... */\n    tag_22:\n      tag_49\n      tag_102\n      calldatasize\n      0x04\n      tag_51\n      jump\t// in\n    tag_102:\n      tag_103\n      jump\t// in\n        /* \"BillionCash.sol\":5840:5961  function setMarketAddress(address  _marketAddress) external onlyOwner {... */\n    tag_23:\n      tag_49\n      tag_105\n      calldatasize\n      0x04\n      tag_51\n      jump\t// in\n    tag_105:\n      tag_106\n      jump\t// in\n        /* \"BillionCash.sol\":3148:3390  function approve(address spender, uint256 value) public returns (bool) {... */\n    tag_38:\n        /* \"BillionCash.sol\":3213:3217  bool */\n      0x00\n      sub(shl(0xa0, 0x01), 0x01)\n        /* \"BillionCash.sol\":3238:3259  spender != address(0) */\n      dup4\n      and\n        /* \"BillionCash.sol\":3230:3260  require(spender != address(0)) */\n      tag_110\n      jumpi\n      0x00\n      dup1\n      revert\n    tag_110:\n        /* \"BillionCash.sol\":3280:3290  msg.sender */\n      caller\n        /* \"BillionCash.sol\":3271:3291  _allowed[msg.sender] */\n      0x00\n      dup2\n      dup2\n      mstore\n        /* \"BillionCash.sol\":3271:3279  _allowed */\n      0x02\n        /* \"BillionCash.sol\":3271:3291  _allowed[msg.sender] */\n      0x20\n      swap1\n      dup2\n      mstore\n      0x40\n      dup1\n      dup4\n      keccak256\n      sub(shl(0xa0, 0x01), 0x01)\n        /* \"BillionCash.sol\":3271:3300  _allowed[msg.sender][spender] */\n      dup9\n      and\n      dup1\n      dup6\n      mstore\n      swap1\n      dup4\n      mstore\n      swap3\n      dup2\n      swap1\n      keccak256\n        /* \"BillionCash.sol\":3271:3308  _allowed[msg.sender][spender] = value */\n      dup7\n      swap1\n      sstore\n        /* \"BillionCash.sol\":3324:3360  Approval(msg.sender, spender, value) */\n      mload\n        /* \"#utility.yul\":160:185   */\n      dup6\n      dup2\n      mstore\n        /* \"BillionCash.sol\":3271:3300  _allowed[msg.sender][spender] */\n      swap2\n      swap3\n        /* \"BillionCash.sol\":3280:3290  msg.sender */\n      swap2\n        /* \"BillionCash.sol\":3324:3360  Approval(msg.sender, spender, value) */\n      0x8c5be1e5ebec7d5bd14f71427d1e84f3dd0314c0f7b2291e5b200ac8c7c3b925\n      swap2\n        /* \"#utility.yul\":133:151   */\n      add\n        /* \"BillionCash.sol\":3324:3360  Approval(msg.sender, spender, value) */\n    tag_111:\n      mload(0x40)\n      dup1\n      swap2\n      sub\n      swap1\n      log3\n      pop\n        /* \"BillionCash.sol\":3378:3382  true */\n      0x01\n        /* \"BillionCash.sol\":3148:3390  function approve(address spender, uint256 value) public returns (bool) {... */\n      swap3\n      swap2\n      pop\n      pop\n      jump\t// out\n        /* \"BillionCash.sol\":3398:4694  function transferFrom(... */\n    tag_47:\n      sub(shl(0xa0, 0x01), 0x01)\n        /* \"BillionCash.sol\":3545:3567  _BCTokenBalances[from] */\n      dup4\n      and\n        /* \"BillionCash.sol\":3511:3515  bool */\n      0x00\n        /* \"BillionCash.sol\":3545:3567  _BCTokenBalances[from] */\n      swap1\n      dup2\n      mstore\n        /* \"BillionCash.sol\":3545:3561  _BCTokenBalances */\n      0x01\n        /* \"BillionCash.sol\":3545:3567  _BCTokenBalances[from] */\n      0x20\n      mstore\n      0x40\n      dup2\n      keccak256\n      sload\n        /* \"BillionCash.sol\":3536:3567  value <= _BCTokenBalances[from] */\n      dup3\n      gt\n      iszero\n        /* \"BillionCash.sol\":3528:3568  require(value <= _BCTokenBalances[from]) */\n      tag_114\n      jumpi\n      0x00\n      dup1\n      revert\n    tag_114:\n      sub(shl(0xa0, 0x01), 0x01)\n        /* \"BillionCash.sol\":3596:3610  _allowed[from] */\n      dup5\n      and\n      0x00\n      swap1\n      dup2\n      mstore\n        /* \"BillionCash.sol\":3596:3604  _allowed */\n      0x02\n        /* \"BillionCash.sol\":3596:3610  _allowed[from] */\n      0x20\n      swap1\n      dup2\n      mstore\n      0x40\n      dup1\n      dup4\n      keccak256\n        /* \"BillionCash.sol\":3611:3621  msg.sender */\n      caller\n        /* \"BillionCash.sol\":3596:3622  _allowed[from][msg.sender] */\n      dup5\n      mstore\n      swap1\n      swap2\n      mstore\n      swap1\n      keccak256\n      sload\n        /* \"BillionCash.sol\":3587:3622  value <= _allowed[from][msg.sender] */\n      dup3\n      gt\n      iszero\n        /* \"BillionCash.sol\":3579:3623  require(value <= _allowed[from][msg.sender]) */\n      tag_115\n      jumpi\n      0x00\n      dup1\n      revert\n    tag_115:\n      sub(shl(0xa0, 0x01), 0x01)\n        /* \"BillionCash.sol\":3642:3658  to != address(0) */\n      dup4\n      and\n        /* \"BillionCash.sol\":3634:3659  require(to != address(0)) */\n      tag_116\n      jumpi\n      0x00\n      dup1\n      revert\n    tag_116:\n      sub(shl(0xa0, 0x01), 0x01)\n        /* \"BillionCash.sol\":3697:3719  _BCTokenBalances[from] */\n      dup5\n      and\n      0x00\n      swap1\n      dup2\n      mstore\n        /* \"BillionCash.sol\":3697:3713  _BCTokenBalances */\n      0x01\n        /* \"BillionCash.sol\":3697:3719  _BCTokenBalances[from] */\n      0x20\n      mstore\n      0x40\n      swap1\n      keccak256\n      sload\n        /* \"BillionCash.sol\":3697:3730  _BCTokenBalances[from].sub(value) */\n      tag_117\n      swap1\n        /* \"BillionCash.sol\":3724:3729  value */\n      dup4\n        /* \"BillionCash.sol\":3697:3723  _BCTokenBalances[from].sub */\n      tag_118\n        /* \"BillionCash.sol\":3697:3730  _BCTokenBalances[from].sub(value) */\n      jump\t// in\n    tag_117:\n      sub(shl(0xa0, 0x01), 0x01)\n        /* \"BillionCash.sol\":3672:3694  _BCTokenBalances[from] */\n      dup6\n      and\n      0x00\n      swap1\n      dup2\n      mstore\n        /* \"BillionCash.sol\":3672:3688  _BCTokenBalances */\n      0x01\n        /* \"BillionCash.sol\":3672:3694  _BCTokenBalances[from] */\n      0x20\n      mstore\n      0x40\n      dup2\n      keccak256\n        /* \"BillionCash.sol\":3672:3730  _BCTokenBalances[from] = _BCTokenBalances[from].sub(value) */\n      swap2\n      swap1\n      swap2\n      sstore\n        /* \"BillionCash.sol\":3767:3811  value.mul(FEE_PERCENT).div(PERCENTS_DIVIDER) */\n      tag_119\n        /* \"BillionCash.sol\":705:709  1000 */\n      0x03e8\n        /* \"BillionCash.sol\":3767:3789  value.mul(FEE_PERCENT) */\n      tag_120\n        /* \"BillionCash.sol\":3767:3772  value */\n      dup6\n        /* \"BillionCash.sol\":754:756  50 */\n      0x32\n        /* \"BillionCash.sol\":3767:3776  value.mul */\n      tag_121\n        /* \"BillionCash.sol\":3767:3789  value.mul(FEE_PERCENT) */\n      jump\t// in\n    tag_120:\n        /* \"BillionCash.sol\":3767:3793  value.mul(FEE_PERCENT).div */\n      swap1\n      tag_122\n        /* \"BillionCash.sol\":3767:3811  value.mul(FEE_PERCENT).div(PERCENTS_DIVIDER) */\n      jump\t// in\n    tag_119:\n        /* \"BillionCash.sol\":3743:3811  uint256 BCTokenForFee = value.mul(FEE_PERCENT).div(PERCENTS_DIVIDER) */\n      swap1\n      pop\n        /* \"BillionCash.sol\":3822:3846  uint256 tokensToTransfer */\n      0x00\n        /* \"BillionCash.sol\":3849:3953  value... */\n      tag_123\n        /* \"BillionCash.sol\":3743:3811  uint256 BCTokenForFee = value.mul(FEE_PERCENT).div(PERCENTS_DIVIDER) */\n      dup3\n        /* \"BillionCash.sol\":3849:3920  value... */\n      tag_125\n        /* \"BillionCash.sol\":3743:3811  uint256 BCTokenForFee = value.mul(FEE_PERCENT).div(PERCENTS_DIVIDER) */\n      dup2\n        /* \"BillionCash.sol\":3849:3920  value... */\n      dup2\n        /* \"BillionCash.sol\":3849:3854  value */\n      dup9\n        /* \"BillionCash.sol\":3743:3811  uint256 BCTokenForFee = value.mul(FEE_PERCENT).div(PERCENTS_DIVIDER) */\n      dup3\n        /* \"BillionCash.sol\":3849:3872  value... */\n      tag_118\n        /* \"BillionCash.sol\":3849:3887  value... */\n      jump\t// in\n    tag_125:\n        /* \"BillionCash.sol\":3849:3905  value... */\n      swap1\n      tag_118\n        /* \"BillionCash.sol\":3849:3920  value... */\n      jump\t// in\n        /* \"BillionCash.sol\":3849:3953  value... */\n    tag_123:\n      sub(shl(0xa0, 0x01), 0x01)\n        /* \"BillionCash.sol\":3989:4009  _BCTokenBalances[to] */\n      dup7\n      and\n      0x00\n      swap1\n      dup2\n      mstore\n        /* \"BillionCash.sol\":3989:4005  _BCTokenBalances */\n      0x01\n        /* \"BillionCash.sol\":3989:4009  _BCTokenBalances[to] */\n      0x20\n      mstore\n      0x40\n      swap1\n      keccak256\n      sload\n        /* \"BillionCash.sol\":3822:3953  uint256 tokensToTransfer = value... */\n      swap1\n      swap2\n      pop\n        /* \"BillionCash.sol\":3989:4031  _BCTokenBalances[to].add(tokensToTransfer) */\n      tag_126\n      swap1\n        /* \"BillionCash.sol\":3822:3953  uint256 tokensToTransfer = value... */\n      dup3\n        /* \"BillionCash.sol\":3989:4013  _BCTokenBalances[to].add */\n      tag_107\n        /* \"BillionCash.sol\":3989:4031  _BCTokenBalances[to].add(tokensToTransfer) */\n      jump\t// in\n    tag_126:\n      sub(shl(0xa0, 0x01), 0x01)\n        /* \"BillionCash.sol\":3966:3986  _BCTokenBalances[to] */\n      dup1\n      dup8\n      and\n      0x00\n      swap1\n      dup2\n      mstore\n        /* \"BillionCash.sol\":3966:3982  _BCTokenBalances */\n      0x01\n        /* \"BillionCash.sol\":3966:3986  _BCTokenBalances[to] */\n      0x20\n      mstore\n      0x40\n      dup1\n      dup3\n      keccak256\n        /* \"BillionCash.sol\":3966:4031  _BCTokenBalances[to] = _BCTokenBalances[to].add(tokensToTransfer) */\n      swap4\n      swap1\n      swap4\n      sstore\n        /* \"BillionCash.sol\":4092:4104  adminAddress */\n      sload(0x06)\n      swap1\n      swap2\n      and\n        /* \"BillionCash.sol\":4075:4105  _BCTokenBalances[adminAddress] */\n      dup2\n      mstore\n      keccak256\n      sload\n        /* \"BillionCash.sol\":4075:4148  _BCTokenBalances[adminAddress].add(... */\n      tag_127\n      swap1\n        /* \"BillionCash.sol\":4124:4137  BCTokenForFee */\n      dup4\n        /* \"BillionCash.sol\":4075:4109  _BCTokenBalances[adminAddress].add */\n      tag_107\n        /* \"BillionCash.sol\":4075:4148  _BCTokenBalances[adminAddress].add(... */\n      jump\t// in\n    tag_127:\n        /* \"BillionCash.sol\":4059:4071  adminAddress */\n      sload(0x06)\n      sub(shl(0xa0, 0x01), 0x01)\n      swap1\n      dup2\n      and\n        /* \"BillionCash.sol\":4042:4072  _BCTokenBalances[adminAddress] */\n      0x00\n      swap1\n      dup2\n      mstore\n        /* \"BillionCash.sol\":4042:4058  _BCTokenBalances */\n      0x01\n        /* \"BillionCash.sol\":4042:4072  _BCTokenBalances[adminAddress] */\n      0x20\n      mstore\n      0x40\n      dup1\n      dup3\n      keccak256\n        /* \"BillionCash.sol\":4042:4148  _BCTokenBalances[adminAddress] = _BCTokenBalances[adminAddress].add(... */\n      swap4\n      swap1\n      swap4\n      sstore\n        /* \"BillionCash.sol\":4212:4227  marketingwallet */\n      sload(0x05)\n      swap1\n      swap2\n      and\n        /* \"BillionCash.sol\":4195:4228  _BCTokenBalances[marketingwallet] */\n      dup2\n      mstore\n      keccak256\n      sload\n        /* \"BillionCash.sol\":4195:4271  _BCTokenBalances[marketingwallet].add(... */\n      tag_128\n      swap1\n        /* \"BillionCash.sol\":4247:4260  BCTokenForFee */\n      dup4\n        /* \"BillionCash.sol\":4195:4232  _BCTokenBalances[marketingwallet].add */\n      tag_107\n        /* \"BillionCash.sol\":4195:4271  _BCTokenBalances[marketingwallet].add(... */\n      jump\t// in\n    tag_128:\n        /* \"BillionCash.sol\":4176:4191  marketingwallet */\n      sload(0x05)\n      sub(shl(0xa0, 0x01), 0x01)\n      swap1\n      dup2\n      and\n        /* \"BillionCash.sol\":4159:4192  _BCTokenBalances[marketingwallet] */\n      0x00\n      swap1\n      dup2\n      mstore\n        /* \"BillionCash.sol\":4159:4175  _BCTokenBalances */\n      0x01\n        /* \"BillionCash.sol\":4159:4192  _BCTokenBalances[marketingwallet] */\n      0x20\n      mstore\n      0x40\n      dup1\n      dup3\n      keccak256\n        /* \"BillionCash.sol\":4159:4271  _BCTokenBalances[marketingwallet] = _BCTokenBalances[marketingwallet].add(... */\n      swap4\n      swap1\n      swap4\n      sstore\n        /* \"BillionCash.sol\":4331:4342  pancakeswap */\n      sload(0x04)\n      swap1\n      swap2\n      and\n        /* \"BillionCash.sol\":4314:4343  _BCTokenBalances[pancakeswap] */\n      dup2\n      mstore\n      keccak256\n      sload\n        /* \"BillionCash.sol\":4314:4386  _BCTokenBalances[pancakeswap].add(... */\n      tag_129\n      swap1\n        /* \"BillionCash.sol\":4362:4375  BCTokenForFee */\n      dup4\n        /* \"BillionCash.sol\":4314:4347  _BCTokenBalances[pancakeswap].add */\n      tag_107\n        /* \"BillionCash.sol\":4314:4386  _BCTokenBalances[pancakeswap].add(... */\n      jump\t// in\n    tag_129:\n        /* \"BillionCash.sol\":4299:4310  pancakeswap */\n      sload(0x04)\n      sub(shl(0xa0, 0x01), 0x01)\n      swap1\n      dup2\n      and\n        /* \"BillionCash.sol\":4282:4311  _BCTokenBalances[pancakeswap] */\n      0x00\n      swap1\n      dup2\n      mstore\n        /* \"BillionCash.sol\":4282:4298  _BCTokenBalances */\n      0x01\n        /* \"BillionCash.sol\":4282:4311  _BCTokenBalances[pancakeswap] */\n      0x20\n      swap1\n      dup2\n      mstore\n      0x40\n      dup1\n      dup4\n      keccak256\n        /* \"BillionCash.sol\":4282:4386  _BCTokenBalances[pancakeswap] = _BCTokenBalances[pancakeswap].add(... */\n      swap5\n      swap1\n      swap5\n      sstore\n        /* \"BillionCash.sol\":4426:4440  _allowed[from] */\n      swap2\n      dup10\n      and\n      dup2\n      mstore\n        /* \"BillionCash.sol\":4426:4434  _allowed */\n      0x02\n        /* \"BillionCash.sol\":4426:4440  _allowed[from] */\n      dup3\n      mstore\n      dup3\n      dup2\n      keccak256\n        /* \"BillionCash.sol\":4441:4451  msg.sender */\n      caller\n        /* \"BillionCash.sol\":4426:4452  _allowed[from][msg.sender] */\n      dup3\n      mstore\n      swap1\n      swap2\n      mstore\n      keccak256\n      sload\n        /* \"BillionCash.sol\":4426:4463  _allowed[from][msg.sender].sub(value) */\n      tag_130\n      swap1\n        /* \"BillionCash.sol\":4457:4462  value */\n      dup6\n        /* \"BillionCash.sol\":4426:4456  _allowed[from][msg.sender].sub */\n      tag_118\n        /* \"BillionCash.sol\":4426:4463  _allowed[from][msg.sender].sub(value) */\n      jump\t// in\n    tag_130:\n      sub(shl(0xa0, 0x01), 0x01)\n        /* \"BillionCash.sol\":4397:4411  _allowed[from] */\n      dup1\n      dup9\n      and\n      0x00\n      swap1\n      dup2\n      mstore\n        /* \"BillionCash.sol\":4397:4405  _allowed */\n      0x02\n        /* \"BillionCash.sol\":4397:4411  _allowed[from] */\n      0x20\n      swap1\n      dup2\n      mstore\n      0x40\n      dup1\n      dup4\n      keccak256\n        /* \"BillionCash.sol\":4412:4422  msg.sender */\n      caller\n        /* \"BillionCash.sol\":4397:4423  _allowed[from][msg.sender] */\n      dup1\n      dup6\n      mstore\n      swap3\n      mstore\n      swap2\n      dup3\n      swap1\n      keccak256\n        /* \"BillionCash.sol\":4397:4463  _allowed[from][msg.sender] = _allowed[from][msg.sender].sub(value) */\n      swap4\n      swap1\n      swap4\n      sstore\n        /* \"BillionCash.sol\":4502:4514  adminAddress */\n      sload(0x06)\n        /* \"BillionCash.sol\":4481:4530  Transfer(msg.sender, adminAddress, BCTokenForFee) */\n      swap1\n      mload\n        /* \"BillionCash.sol\":4502:4514  adminAddress */\n      swap2\n      and\n      swap2\n        /* \"BillionCash.sol\":4412:4422  msg.sender */\n      swap1\n      0x00\n      dup1\n      mload\n      0x20\n      data_ada389e1fc24a8587c776340efb91b36e675792ab631816100d55df0b5cf3cbc\n      dup4\n      codecopy\n      dup2\n      mload\n      swap2\n      mstore\n        /* \"BillionCash.sol\":4481:4530  Transfer(msg.sender, adminAddress, BCTokenForFee) */\n      swap1\n      tag_131\n      swap1\n        /* \"BillionCash.sol\":4516:4529  BCTokenForFee */\n      dup7\n        /* \"#utility.yul\":160:185   */\n      dup2\n      mstore\n        /* \"#utility.yul\":148:150   */\n      0x20\n        /* \"#utility.yul\":133:151   */\n      add\n      swap1\n        /* \"#utility.yul\":14:191   */\n      jump\n        /* \"BillionCash.sol\":4481:4530  Transfer(msg.sender, adminAddress, BCTokenForFee) */\n    tag_131:\n      mload(0x40)\n      dup1\n      swap2\n      sub\n      swap1\n      log3\n        /* \"BillionCash.sol\":4567:4582  marketingwallet */\n      sload(0x05)\n        /* \"BillionCash.sol\":4546:4598  Transfer(msg.sender, marketingwallet, BCTokenForFee) */\n      mload(0x40)\n        /* \"#utility.yul\":160:185   */\n      dup4\n      dup2\n      mstore\n      sub(shl(0xa0, 0x01), 0x01)\n        /* \"BillionCash.sol\":4567:4582  marketingwallet */\n      swap1\n      swap2\n      and\n      swap1\n        /* \"BillionCash.sol\":4555:4565  msg.sender */\n      caller\n      swap1\n      0x00\n      dup1\n      mload\n      0x20\n      data_ada389e1fc24a8587c776340efb91b36e675792ab631816100d55df0b5cf3cbc\n      dup4\n      codecopy\n      dup2\n      mload\n      swap2\n      mstore\n        /* \"BillionCash.sol\":4546:4598  Transfer(msg.sender, marketingwallet, BCTokenForFee) */\n      swap1\n        /* \"#utility.yul\":148:150   */\n      0x20\n        /* \"#utility.yul\":133:151   */\n      add\n        /* \"BillionCash.sol\":4546:4598  Transfer(msg.sender, marketingwallet, BCTokenForFee) */\n      mload(0x40)\n      dup1\n      swap2\n      sub\n      swap1\n      log3\n        /* \"BillionCash.sol\":4635:4646  pancakeswap */\n      sload(0x04)\n        /* \"BillionCash.sol\":4614:4662  Transfer(msg.sender, pancakeswap, BCTokenForFee) */\n      mload(0x40)\n        /* \"#utility.yul\":160:185   */\n      dup4\n      dup2\n      mstore\n      sub(shl(0xa0, 0x01), 0x01)\n        /* \"BillionCash.sol\":4635:4646  pancakeswap */\n      swap1\n      swap2\n      and\n      swap1\n        /* \"BillionCash.sol\":4623:4633  msg.sender */\n      caller\n      swap1\n      0x00\n      dup1\n      mload\n      0x20\n      data_ada389e1fc24a8587c776340efb91b36e675792ab631816100d55df0b5cf3cbc\n      dup4\n      codecopy\n      dup2\n      mload\n      swap2\n      mstore\n        /* \"BillionCash.sol\":4614:4662  Transfer(msg.sender, pancakeswap, BCTokenForFee) */\n      swap1\n        /* \"#utility.yul\":148:150   */\n      0x20\n        /* \"#utility.yul\":133:151   */\n      add\n        /* \"BillionCash.sol\":4614:4662  Transfer(msg.sender, pancakeswap, BCTokenForFee) */\n      mload(0x40)\n      dup1\n      swap2\n      sub\n      swap1\n      log3\n      pop\n        /* \"BillionCash.sol\":4682:4686  true */\n      0x01\n      swap6\n        /* \"BillionCash.sol\":3398:4694  function transferFrom(... */\n      swap5\n      pop\n      pop\n      pop\n      pop\n      pop\n      jump\t// out\n        /* \"BillionCash.sol\":5701:5834  function setDevelopmentAddress(address  _developmentAddress) external onlyOwner {... */\n    tag_52:\n        /* \"@openzeppelin/contracts/access/Ownable.sol\":1082:1089  address */\n      0x00\n        /* \"@openzeppelin/contracts/access/Ownable.sol\":1108:1114  _owner */\n      sload\n      sub(shl(0xa0, 0x01), 0x01)\n      and\n        /* \"@openzeppelin/contracts/utils/Context.sol\":719:729  msg.sender */\n      caller\n        /* \"@openzeppelin/contracts/access/Ownable.sol\":1248:1271  owner() == _msgSender() */\n      eq\n        /* \"@openzeppelin/contracts/access/Ownable.sol\":1240:1308  require(owner() == _msgSender(), \"Ownable: caller is not the owner\") */\n      tag_138\n      jumpi\n      mload(0x40)\n      shl(0xe5, 0x461bcd)\n      dup2\n      mstore\n      0x04\n      add\n      tag_139\n      swap1\n      tag_140\n      jump\t// in\n    tag_139:\n      mload(0x40)\n      dup1\n      swap2\n      sub\n      swap1\n      revert\n    tag_138:\n        /* \"BillionCash.sol\":5792:5804  adminAddress */\n      0x06\n        /* \"BillionCash.sol\":5792:5826  adminAddress = _developmentAddress */\n      dup1\n      sload\n      not(sub(shl(0xa0, 0x01), 0x01))\n      and\n      sub(shl(0xa0, 0x01), 0x01)\n      swap3\n      swap1\n      swap3\n      and\n      swap2\n      swap1\n      swap2\n      or\n      swap1\n      sstore\n        /* \"BillionCash.sol\":5701:5834  function setDevelopmentAddress(address  _developmentAddress) external onlyOwner {... */\n      jump\t// out\n        /* \"BillionCash.sol\":4702:5072  function increaseAllowance(address spender, uint256 addedValue)... */\n    tag_59:\n        /* \"BillionCash.sol\":4800:4804  bool */\n      0x00\n      sub(shl(0xa0, 0x01), 0x01)\n        /* \"BillionCash.sol\":4830:4851  spender != address(0) */\n      dup4\n      and\n        /* \"BillionCash.sol\":4822:4852  require(spender != address(0)) */\n      tag_144\n      jumpi\n      0x00\n      dup1\n      revert\n    tag_144:\n        /* \"BillionCash.sol\":4919:4929  msg.sender */\n      caller\n        /* \"BillionCash.sol\":4910:4930  _allowed[msg.sender] */\n      0x00\n      swap1\n      dup2\n      mstore\n        /* \"BillionCash.sol\":4910:4918  _allowed */\n      0x02\n        /* \"BillionCash.sol\":4910:4930  _allowed[msg.sender] */\n      0x20\n      swap1\n      dup2\n      mstore\n      0x40\n      dup1\n      dup4\n      keccak256\n      sub(shl(0xa0, 0x01), 0x01)\n        /* \"BillionCash.sol\":4910:4939  _allowed[msg.sender][spender] */\n      dup8\n      and\n      dup5\n      mstore\n      swap1\n      swap2\n      mstore\n      swap1\n      keccak256\n      sload\n        /* \"BillionCash.sol\":4910:4955  _allowed[msg.sender][spender].add(addedValue) */\n      tag_145\n      swap1\n        /* \"BillionCash.sol\":4944:4954  addedValue */\n      dup4\n        /* \"BillionCash.sol\":4910:4943  _allowed[msg.sender][spender].add */\n      tag_107\n        /* \"BillionCash.sol\":4910:4955  _allowed[msg.sender][spender].add(addedValue) */\n      jump\t// in\n    tag_145:\n        /* \"BillionCash.sol\":4872:4882  msg.sender */\n      caller\n        /* \"BillionCash.sol\":4863:4883  _allowed[msg.sender] */\n      0x00\n      dup2\n      dup2\n      mstore\n        /* \"BillionCash.sol\":4863:4871  _allowed */\n      0x02\n        /* \"BillionCash.sol\":4863:4883  _allowed[msg.sender] */\n      0x20\n      swap1\n      dup2\n      mstore\n      0x40\n      dup1\n      dup4\n      keccak256\n      sub(shl(0xa0, 0x01), 0x01)\n        /* \"BillionCash.sol\":4863:4892  _allowed[msg.sender][spender] */\n      dup10\n      and\n      dup1\n      dup6\n      mstore\n      swap1\n      dup4\n      mstore\n      swap3\n      dup2\n      swap1\n      keccak256\n        /* \"BillionCash.sol\":4863:4966  _allowed[msg.sender][spender] = (... */\n      dup6\n      swap1\n      sstore\n        /* \"BillionCash.sol\":4982:5042  Approval(msg.sender, spender, _allowed[msg.sender][spender]) */\n      mload\n        /* \"#utility.yul\":160:185   */\n      swap4\n      dup5\n      mstore\n        /* \"BillionCash.sol\":4863:4892  _allowed[msg.sender][spender] */\n      swap1\n      swap3\n        /* \"BillionCash.sol\":4982:5042  Approval(msg.sender, spender, _allowed[msg.sender][spender]) */\n      0x8c5be1e5ebec7d5bd14f71427d1e84f3dd0314c0f7b2291e5b200ac8c7c3b925\n      swap2\n        /* \"#utility.yul\":133:151   */\n      add\n        /* \"BillionCash.sol\":4982:5042  Approval(msg.sender, spender, _allowed[msg.sender][spender]) */\n      tag_111\n        /* \"#utility.yul\":14:191   */\n      jump\n        /* \"@openzeppelin/contracts/access/Ownable.sol\":1668:1769  function renounceOwnership() public virtual onlyOwner {... */\n    tag_66:\n        /* \"@openzeppelin/contracts/access/Ownable.sol\":1082:1089  address */\n      0x00\n        /* \"@openzeppelin/contracts/access/Ownable.sol\":1108:1114  _owner */\n      sload\n      sub(shl(0xa0, 0x01), 0x01)\n      and\n        /* \"@openzeppelin/contracts/utils/Context.sol\":719:729  msg.sender */\n      caller\n        /* \"@openzeppelin/contracts/access/Ownable.sol\":1248:1271  owner() == _msgSender() */\n      eq\n        /* \"@openzeppelin/contracts/access/Ownable.sol\":1240:1308  require(owner() == _msgSender(), \"Ownable: caller is not the owner\") */\n      tag_151\n      jumpi\n      mload(0x40)\n      shl(0xe5, 0x461bcd)\n      dup2\n      mstore\n      0x04\n      add\n      tag_139\n      swap1\n      tag_140\n      jump\t// in\n    tag_151:\n        /* \"@openzeppelin/contracts/access/Ownable.sol\":1732:1762  _transferOwnership(address(0)) */\n      tag_154\n        /* \"@openzeppelin/contracts/access/Ownable.sol\":1759:1760  0 */\n      0x00\n        /* \"@openzeppelin/contracts/access/Ownable.sol\":1732:1750  _transferOwnership */\n      tag_155\n        /* \"@openzeppelin/contracts/access/Ownable.sol\":1732:1762  _transferOwnership(address(0)) */\n      jump\t// in\n    tag_154:\n        /* \"@openzeppelin/contracts/access/Ownable.sol\":1668:1769  function renounceOwnership() public virtual onlyOwner {... */\n      jump\t// out\n        /* \"BillionCash.sol\":5080:5460  function decreaseAllowance(address spender, uint256 subtractedValue)... */\n    tag_80:\n        /* \"BillionCash.sol\":5183:5187  bool */\n      0x00\n      sub(shl(0xa0, 0x01), 0x01)\n        /* \"BillionCash.sol\":5213:5234  spender != address(0) */\n      dup4\n      and\n        /* \"BillionCash.sol\":5205:5235  require(spender != address(0)) */\n      tag_159\n      jumpi\n      0x00\n      dup1\n      revert\n    tag_159:\n        /* \"BillionCash.sol\":5302:5312  msg.sender */\n      caller\n        /* \"BillionCash.sol\":5293:5313  _allowed[msg.sender] */\n      0x00\n      swap1\n      dup2\n      mstore\n        /* \"BillionCash.sol\":5293:5301  _allowed */\n      0x02\n        /* \"BillionCash.sol\":5293:5313  _allowed[msg.sender] */\n      0x20\n      swap1\n      dup2\n      mstore\n      0x40\n      dup1\n      dup4\n      keccak256\n      sub(shl(0xa0, 0x01), 0x01)\n        /* \"BillionCash.sol\":5293:5322  _allowed[msg.sender][spender] */\n      dup8\n      and\n      dup5\n      mstore\n      swap1\n      swap2\n      mstore\n      swap1\n      keccak256\n      sload\n        /* \"BillionCash.sol\":5293:5343  _allowed[msg.sender][spender].sub(subtractedValue) */\n      tag_145\n      swap1\n        /* \"BillionCash.sol\":5327:5342  subtractedValue */\n      dup4\n        /* \"BillionCash.sol\":5293:5326  _allowed[msg.sender][spender].sub */\n      tag_118\n        /* \"BillionCash.sol\":5293:5343  _allowed[msg.sender][spender].sub(subtractedValue) */\n      jump\t// in\n        /* \"BillionCash.sol\":5967:6087  function setPancakeAddress(address  _pancakeAddress) external onlyOwner {... */\n    tag_84:\n        /* \"@openzeppelin/contracts/access/Ownable.sol\":1082:1089  address */\n      0x00\n        /* \"@openzeppelin/contracts/access/Ownable.sol\":1108:1114  _owner */\n      sload\n      sub(shl(0xa0, 0x01), 0x01)\n      and\n        /* \"@openzeppelin/contracts/utils/Context.sol\":719:729  msg.sender */\n      caller\n        /* \"@openzeppelin/contracts/access/Ownable.sol\":1248:1271  owner() == _msgSender() */\n      eq\n        /* \"@openzeppelin/contracts/access/Ownable.sol\":1240:1308  require(owner() == _msgSender(), \"Ownable: caller is not the owner\") */\n      tag_165\n      jumpi\n      mload(0x40)\n      shl(0xe5, 0x461bcd)\n      dup2\n      mstore\n      0x04\n      add\n      tag_139\n      swap1\n      tag_140\n      jump\t// in\n    tag_165:\n        /* \"BillionCash.sol\":6050:6061  pancakeswap */\n      0x04\n        /* \"BillionCash.sol\":6050:6079  pancakeswap = _pancakeAddress */\n      dup1\n      sload\n      not(sub(shl(0xa0, 0x01), 0x01))\n      and\n      sub(shl(0xa0, 0x01), 0x01)\n      swap3\n      swap1\n      swap3\n      and\n      swap2\n      swap1\n      swap2\n      or\n      swap1\n      sstore\n        /* \"BillionCash.sol\":5967:6087  function setPancakeAddress(address  _pancakeAddress) external onlyOwner {... */\n      jump\t// out\n        /* \"BillionCash.sol\":1785:2969  function transfer(address to, uint256 value) public returns (bool) {... */\n    tag_87:\n        /* \"BillionCash.sol\":1897:1907  msg.sender */\n      caller\n        /* \"BillionCash.sol\":1846:1850  bool */\n      0x00\n        /* \"BillionCash.sol\":1880:1908  _BCTokenBalances[msg.sender] */\n      swap1\n      dup2\n      mstore\n        /* \"BillionCash.sol\":1880:1896  _BCTokenBalances */\n      0x01\n        /* \"BillionCash.sol\":1880:1908  _BCTokenBalances[msg.sender] */\n      0x20\n      mstore\n      0x40\n      dup2\n      keccak256\n      sload\n        /* \"BillionCash.sol\":1871:1908  value <= _BCTokenBalances[msg.sender] */\n      dup3\n      gt\n      iszero\n        /* \"BillionCash.sol\":1863:1909  require(value <= _BCTokenBalances[msg.sender]) */\n      tag_169\n      jumpi\n      0x00\n      dup1\n      revert\n    tag_169:\n      sub(shl(0xa0, 0x01), 0x01)\n        /* \"BillionCash.sol\":1928:1944  to != address(0) */\n      dup4\n      and\n        /* \"BillionCash.sol\":1920:1945  require(to != address(0)) */\n      tag_170\n      jumpi\n      0x00\n      dup1\n      revert\n    tag_170:\n        /* \"BillionCash.sol\":1958:1979  uint256 BCTokenForFee */\n      0x00\n        /* \"BillionCash.sol\":1982:2026  value.mul(FEE_PERCENT).div(PERCENTS_DIVIDER) */\n      tag_171\n        /* \"BillionCash.sol\":705:709  1000 */\n      0x03e8\n        /* \"BillionCash.sol\":1982:2004  value.mul(FEE_PERCENT) */\n      tag_120\n        /* \"BillionCash.sol\":1982:1987  value */\n      dup6\n        /* \"BillionCash.sol\":754:756  50 */\n      0x32\n        /* \"BillionCash.sol\":1982:1991  value.mul */\n      tag_121\n        /* \"BillionCash.sol\":1982:2004  value.mul(FEE_PERCENT) */\n      jump\t// in\n        /* \"BillionCash.sol\":1982:2026  value.mul(FEE_PERCENT).div(PERCENTS_DIVIDER) */\n    tag_171:\n        /* \"BillionCash.sol\":1958:2026  uint256 BCTokenForFee = value.mul(FEE_PERCENT).div(PERCENTS_DIVIDER) */\n      swap1\n      pop\n        /* \"BillionCash.sol\":2037:2061  uint256 tokensToTransfer */\n      0x00\n        /* \"BillionCash.sol\":2064:2168  value... */\n      tag_173\n        /* \"BillionCash.sol\":1958:2026  uint256 BCTokenForFee = value.mul(FEE_PERCENT).div(PERCENTS_DIVIDER) */\n      dup3\n        /* \"BillionCash.sol\":2064:2135  value... */\n      tag_125\n        /* \"BillionCash.sol\":1958:2026  uint256 BCTokenForFee = value.mul(FEE_PERCENT).div(PERCENTS_DIVIDER) */\n      dup2\n        /* \"BillionCash.sol\":2064:2135  value... */\n      dup2\n        /* \"BillionCash.sol\":2064:2069  value */\n      dup9\n        /* \"BillionCash.sol\":1958:2026  uint256 BCTokenForFee = value.mul(FEE_PERCENT).div(PERCENTS_DIVIDER) */\n      dup3\n        /* \"BillionCash.sol\":2064:2087  value... */\n      tag_118\n        /* \"BillionCash.sol\":2064:2102  value... */\n      jump\t// in\n        /* \"BillionCash.sol\":2064:2168  value... */\n    tag_173:\n        /* \"BillionCash.sol\":2229:2239  msg.sender */\n      caller\n        /* \"BillionCash.sol\":2212:2240  _BCTokenBalances[msg.sender] */\n      0x00\n      swap1\n      dup2\n      mstore\n        /* \"BillionCash.sol\":2212:2228  _BCTokenBalances */\n      0x01\n        /* \"BillionCash.sol\":2212:2240  _BCTokenBalances[msg.sender] */\n      0x20\n      mstore\n      0x40\n      swap1\n      keccak256\n      sload\n        /* \"BillionCash.sol\":2037:2168  uint256 tokensToTransfer = value... */\n      swap1\n      swap2\n      pop\n        /* \"BillionCash.sol\":2212:2251  _BCTokenBalances[msg.sender].sub(value) */\n      tag_176\n      swap1\n        /* \"BillionCash.sol\":2245:2250  value */\n      dup6\n        /* \"BillionCash.sol\":2212:2244  _BCTokenBalances[msg.sender].sub */\n      tag_118\n        /* \"BillionCash.sol\":2212:2251  _BCTokenBalances[msg.sender].sub(value) */\n      jump\t// in\n    tag_176:\n        /* \"BillionCash.sol\":2198:2208  msg.sender */\n      caller\n        /* \"BillionCash.sol\":2181:2209  _BCTokenBalances[msg.sender] */\n      0x00\n      swap1\n      dup2\n      mstore\n        /* \"BillionCash.sol\":2181:2197  _BCTokenBalances */\n      0x01\n        /* \"BillionCash.sol\":2181:2209  _BCTokenBalances[msg.sender] */\n      0x20\n      mstore\n      0x40\n      dup1\n      dup3\n      keccak256\n        /* \"BillionCash.sol\":2181:2251  _BCTokenBalances[msg.sender] = _BCTokenBalances[msg.sender].sub(value) */\n      swap3\n      swap1\n      swap3\n      sstore\n      sub(shl(0xa0, 0x01), 0x01)\n        /* \"BillionCash.sol\":2285:2305  _BCTokenBalances[to] */\n      dup8\n      and\n      dup2\n      mstore\n      keccak256\n      sload\n        /* \"BillionCash.sol\":2285:2327  _BCTokenBalances[to].add(tokensToTransfer) */\n      tag_177\n      swap1\n        /* \"BillionCash.sol\":2310:2326  tokensToTransfer */\n      dup3\n        /* \"BillionCash.sol\":2285:2309  _BCTokenBalances[to].add */\n      tag_107\n        /* \"BillionCash.sol\":2285:2327  _BCTokenBalances[to].add(tokensToTransfer) */\n      jump\t// in\n    tag_177:\n      sub(shl(0xa0, 0x01), 0x01)\n        /* \"BillionCash.sol\":2262:2282  _BCTokenBalances[to] */\n      dup1\n      dup8\n      and\n      0x00\n      swap1\n      dup2\n      mstore\n        /* \"BillionCash.sol\":2262:2278  _BCTokenBalances */\n      0x01\n        /* \"BillionCash.sol\":2262:2282  _BCTokenBalances[to] */\n      0x20\n      mstore\n      0x40\n      dup1\n      dup3\n      keccak256\n        /* \"BillionCash.sol\":2262:2327  _BCTokenBalances[to] = _BCTokenBalances[to].add(tokensToTransfer) */\n      swap4\n      swap1\n      swap4\n      sstore\n        /* \"BillionCash.sol\":2388:2400  adminAddress */\n      sload(0x06)\n      swap1\n      swap2\n      and\n        /* \"BillionCash.sol\":2371:2401  _BCTokenBalances[adminAddress] */\n      dup2\n      mstore\n      keccak256\n      sload\n        /* \"BillionCash.sol\":2371:2444  _BCTokenBalances[adminAddress].add(... */\n      tag_178\n      swap1\n        /* \"BillionCash.sol\":2420:2433  BCTokenForFee */\n      dup4\n        /* \"BillionCash.sol\":2371:2405  _BCTokenBalances[adminAddress].add */\n      tag_107\n        /* \"BillionCash.sol\":2371:2444  _BCTokenBalances[adminAddress].add(... */\n      jump\t// in\n    tag_178:\n        /* \"BillionCash.sol\":2355:2367  adminAddress */\n      sload(0x06)\n      sub(shl(0xa0, 0x01), 0x01)\n      swap1\n      dup2\n      and\n        /* \"BillionCash.sol\":2338:2368  _BCTokenBalances[adminAddress] */\n      0x00\n      swap1\n      dup2\n      mstore\n        /* \"BillionCash.sol\":2338:2354  _BCTokenBalances */\n      0x01\n        /* \"BillionCash.sol\":2338:2368  _BCTokenBalances[adminAddress] */\n      0x20\n      mstore\n      0x40\n      dup1\n      dup3\n      keccak256\n        /* \"BillionCash.sol\":2338:2444  _BCTokenBalances[adminAddress] = _BCTokenBalances[adminAddress].add(... */\n      swap4\n      swap1\n      swap4\n      sstore\n        /* \"BillionCash.sol\":2508:2523  marketingwallet */\n      sload(0x05)\n      swap1\n      swap2\n      and\n        /* \"BillionCash.sol\":2491:2524  _BCTokenBalances[marketingwallet] */\n      dup2\n      mstore\n      keccak256\n      sload\n        /* \"BillionCash.sol\":2491:2567  _BCTokenBalances[marketingwallet].add(... */\n      tag_179\n      swap1\n        /* \"BillionCash.sol\":2543:2556  BCTokenForFee */\n      dup4\n        /* \"BillionCash.sol\":2491:2528  _BCTokenBalances[marketingwallet].add */\n      tag_107\n        /* \"BillionCash.sol\":2491:2567  _BCTokenBalances[marketingwallet].add(... */\n      jump\t// in\n    tag_179:\n        /* \"BillionCash.sol\":2472:2487  marketingwallet */\n      sload(0x05)\n      sub(shl(0xa0, 0x01), 0x01)\n      swap1\n      dup2\n      and\n        /* \"BillionCash.sol\":2455:2488  _BCTokenBalances[marketingwallet] */\n      0x00\n      swap1\n      dup2\n      mstore\n        /* \"BillionCash.sol\":2455:2471  _BCTokenBalances */\n      0x01\n        /* \"BillionCash.sol\":2455:2488  _BCTokenBalances[marketingwallet] */\n      0x20\n      mstore\n      0x40\n      dup1\n      dup3\n      keccak256\n        /* \"BillionCash.sol\":2455:2567  _BCTokenBalances[marketingwallet] = _BCTokenBalances[marketingwallet].add(... */\n      swap4\n      swap1\n      swap4\n      sstore\n        /* \"BillionCash.sol\":2627:2638  pancakeswap */\n      sload(0x04)\n      swap1\n      swap2\n      and\n        /* \"BillionCash.sol\":2610:2639  _BCTokenBalances[pancakeswap] */\n      dup2\n      mstore\n      keccak256\n      sload\n        /* \"BillionCash.sol\":2610:2682  _BCTokenBalances[pancakeswap].add(... */\n      tag_180\n      swap1\n        /* \"BillionCash.sol\":2658:2671  BCTokenForFee */\n      dup4\n        /* \"BillionCash.sol\":2610:2643  _BCTokenBalances[pancakeswap].add */\n      tag_107\n        /* \"BillionCash.sol\":2610:2682  _BCTokenBalances[pancakeswap].add(... */\n      jump\t// in\n    tag_180:\n        /* \"BillionCash.sol\":2595:2606  pancakeswap */\n      sload(0x04)\n      sub(shl(0xa0, 0x01), 0x01)\n      swap1\n      dup2\n      and\n        /* \"BillionCash.sol\":2578:2607  _BCTokenBalances[pancakeswap] */\n      0x00\n      swap1\n      dup2\n      mstore\n        /* \"BillionCash.sol\":2578:2594  _BCTokenBalances */\n      0x01\n        /* \"BillionCash.sol\":2578:2607  _BCTokenBalances[pancakeswap] */\n      0x20\n      swap1\n      dup2\n      mstore\n      0x40\n      swap2\n      dup3\n      swap1\n      keccak256\n        /* \"BillionCash.sol\":2578:2682  _BCTokenBalances[pancakeswap] = _BCTokenBalances[pancakeswap].add(... */\n      swap4\n      swap1\n      swap4\n      sstore\n        /* \"BillionCash.sol\":2700:2742  Transfer(msg.sender, to, tokensToTransfer) */\n      mload\n        /* \"#utility.yul\":160:185   */\n      dup4\n      dup2\n      mstore\n        /* \"BillionCash.sol\":2700:2742  Transfer(msg.sender, to, tokensToTransfer) */\n      swap1\n      dup8\n      and\n      swap2\n        /* \"BillionCash.sol\":2709:2719  msg.sender */\n      caller\n      swap2\n      0x00\n      dup1\n      mload\n      0x20\n      data_ada389e1fc24a8587c776340efb91b36e675792ab631816100d55df0b5cf3cbc\n      dup4\n      codecopy\n      dup2\n      mload\n      swap2\n      mstore\n        /* \"BillionCash.sol\":2700:2742  Transfer(msg.sender, to, tokensToTransfer) */\n      swap2\n        /* \"#utility.yul\":133:151   */\n      add\n        /* \"BillionCash.sol\":2700:2742  Transfer(msg.sender, to, tokensToTransfer) */\n      mload(0x40)\n      dup1\n      swap2\n      sub\n      swap1\n      log3\n        /* \"BillionCash.sol\":2779:2791  adminAddress */\n      sload(0x06)\n        /* \"BillionCash.sol\":2758:2807  Transfer(msg.sender, adminAddress, BCTokenForFee) */\n      mload(0x40)\n        /* \"#utility.yul\":160:185   */\n      dup4\n      dup2\n      mstore\n      sub(shl(0xa0, 0x01), 0x01)\n        /* \"BillionCash.sol\":2779:2791  adminAddress */\n      swap1\n      swap2\n      and\n      swap1\n        /* \"BillionCash.sol\":2767:2777  msg.sender */\n      caller\n      swap1\n      0x00\n      dup1\n      mload\n      0x20\n      data_ada389e1fc24a8587c776340efb91b36e675792ab631816100d55df0b5cf3cbc\n      dup4\n      codecopy\n      dup2\n      mload\n      swap2\n      mstore\n        /* \"BillionCash.sol\":2758:2807  Transfer(msg.sender, adminAddress, BCTokenForFee) */\n      swap1\n        /* \"#utility.yul\":148:150   */\n      0x20\n        /* \"#utility.yul\":133:151   */\n      add\n        /* \"BillionCash.sol\":2758:2807  Transfer(msg.sender, adminAddress, BCTokenForFee) */\n      mload(0x40)\n      dup1\n      swap2\n      sub\n      swap1\n      log3\n        /* \"BillionCash.sol\":2844:2859  marketingwallet */\n      sload(0x05)\n        /* \"BillionCash.sol\":2823:2875  Transfer(msg.sender, marketingwallet, BCTokenForFee) */\n      mload(0x40)\n        /* \"#utility.yul\":160:185   */\n      dup4\n      dup2\n      mstore\n      sub(shl(0xa0, 0x01), 0x01)\n        /* \"BillionCash.sol\":2844:2859  marketingwallet */\n      swap1\n      swap2\n      and\n      swap1\n        /* \"BillionCash.sol\":2832:2842  msg.sender */\n      caller\n      swap1\n      0x00\n      dup1\n      mload\n      0x20\n      data_ada389e1fc24a8587c776340efb91b36e675792ab631816100d55df0b5cf3cbc\n      dup4\n      codecopy\n      dup2\n      mload\n      swap2\n      mstore\n        /* \"BillionCash.sol\":2823:2875  Transfer(msg.sender, marketingwallet, BCTokenForFee) */\n      swap1\n        /* \"#utility.yul\":148:150   */\n      0x20\n        /* \"#utility.yul\":133:151   */\n      add\n        /* \"BillionCash.sol\":2823:2875  Transfer(msg.sender, marketingwallet, BCTokenForFee) */\n      mload(0x40)\n      dup1\n      swap2\n      sub\n      swap1\n      log3\n        /* \"BillionCash.sol\":2912:2923  pancakeswap */\n      sload(0x04)\n        /* \"BillionCash.sol\":2891:2939  Transfer(msg.sender, pancakeswap, BCTokenForFee) */\n      mload(0x40)\n        /* \"#utility.yul\":160:185   */\n      dup4\n      dup2\n      mstore\n      sub(shl(0xa0, 0x01), 0x01)\n        /* \"BillionCash.sol\":2912:2923  pancakeswap */\n      swap1\n      swap2\n      and\n      swap1\n        /* \"BillionCash.sol\":2900:2910  msg.sender */\n      caller\n      swap1\n      0x00\n      dup1\n      mload\n      0x20\n      data_ada389e1fc24a8587c776340efb91b36e675792ab631816100d55df0b5cf3cbc\n      dup4\n      codecopy\n      dup2\n      mload\n      swap2\n      mstore\n        /* \"BillionCash.sol\":2891:2939  Transfer(msg.sender, pancakeswap, BCTokenForFee) */\n      swap1\n        /* \"#utility.yul\":148:150   */\n      0x20\n        /* \"#utility.yul\":133:151   */\n      add\n        /* \"BillionCash.sol\":2891:2939  Transfer(msg.sender, pancakeswap, BCTokenForFee) */\n      mload(0x40)\n      dup1\n      swap2\n      sub\n      swap1\n      log3\n      pop\n        /* \"BillionCash.sol\":2957:2961  true */\n      0x01\n      swap5\n        /* \"BillionCash.sol\":1785:2969  function transfer(address to, uint256 value) public returns (bool) {... */\n      swap4\n      pop\n      pop\n      pop\n      pop\n      jump\t// out\n        /* \"@openzeppelin/contracts/access/Ownable.sol\":1918:2116  function transferOwnership(address newOwner) public virtual onlyOwner {... */\n    tag_103:\n        /* \"@openzeppelin/contracts/access/Ownable.sol\":1082:1089  address */\n      0x00\n        /* \"@openzeppelin/contracts/access/Ownable.sol\":1108:1114  _owner */\n      sload\n      sub(shl(0xa0, 0x01), 0x01)\n      and\n        /* \"@openzeppelin/contracts/utils/Context.sol\":719:729  msg.sender */\n      caller\n        /* \"@openzeppelin/contracts/access/Ownable.sol\":1248:1271  owner() == _msgSender() */\n      eq\n        /* \"@openzeppelin/contracts/access/Ownable.sol\":1240:1308  require(owner() == _msgSender(), \"Ownable: caller is not the owner\") */\n      tag_189\n      jumpi\n      mload(0x40)\n      shl(0xe5, 0x461bcd)\n      dup2\n      mstore\n      0x04\n      add\n      tag_139\n      swap1\n      tag_140\n      jump\t// in\n    tag_189:\n      sub(shl(0xa0, 0x01), 0x01)\n        /* \"@openzeppelin/contracts/access/Ownable.sol\":2006:2028  newOwner != address(0) */\n      dup2\n      and\n        /* \"@openzeppelin/contracts/access/Ownable.sol\":1998:2071  require(newOwner != address(0), \"Ownable: new owner is the zero address\") */\n      tag_192\n      jumpi\n      mload(0x40)\n      shl(0xe5, 0x461bcd)\n      dup2\n      mstore\n        /* \"#utility.yul\":3176:3178   */\n      0x20\n        /* \"@openzeppelin/contracts/access/Ownable.sol\":1998:2071  require(newOwner != address(0), \"Ownable: new owner is the zero address\") */\n      0x04\n      dup3\n      add\n        /* \"#utility.yul\":3158:3179   */\n      mstore\n        /* \"#utility.yul\":3215:3217   */\n      0x26\n        /* \"#utility.yul\":3195:3213   */\n      0x24\n      dup3\n      add\n        /* \"#utility.yul\":3188:3218   */\n      mstore\n        /* \"#utility.yul\":3254:3288   */\n      0x4f776e61626c653a206e6577206f776e657220697320746865207a65726f2061\n        /* \"#utility.yul\":3234:3252   */\n      0x44\n      dup3\n      add\n        /* \"#utility.yul\":3227:3289   */\n      mstore\n      shl(0xd0, 0x646472657373)\n        /* \"#utility.yul\":3305:3323   */\n      0x64\n      dup3\n      add\n        /* \"#utility.yul\":3298:3334   */\n      mstore\n        /* \"#utility.yul\":3351:3370   */\n      0x84\n      add\n        /* \"@openzeppelin/contracts/access/Ownable.sol\":1998:2071  require(newOwner != address(0), \"Ownable: new owner is the zero address\") */\n      tag_139\n        /* \"#utility.yul\":2974:3376   */\n      jump\n        /* \"@openzeppelin/contracts/access/Ownable.sol\":1998:2071  require(newOwner != address(0), \"Ownable: new owner is the zero address\") */\n    tag_192:\n        /* \"@openzeppelin/contracts/access/Ownable.sol\":2081:2109  _transferOwnership(newOwner) */\n      tag_195\n        /* \"@openzeppelin/contracts/access/Ownable.sol\":2100:2108  newOwner */\n      dup2\n        /* \"@openzeppelin/contracts/access/Ownable.sol\":2081:2099  _transferOwnership */\n      tag_155\n        /* \"@openzeppelin/contracts/access/Ownable.sol\":2081:2109  _transferOwnership(newOwner) */\n      jump\t// in\n    tag_195:\n        /* \"@openzeppelin/contracts/access/Ownable.sol\":1918:2116  function transferOwnership(address newOwner) public virtual onlyOwner {... */\n      pop\n      jump\t// out\n        /* \"BillionCash.sol\":5840:5961  function setMarketAddress(address  _marketAddress) external onlyOwner {... */\n    tag_106:\n        /* \"@openzeppelin/contracts/access/Ownable.sol\":1082:1089  address */\n      0x00\n        /* \"@openzeppelin/contracts/access/Ownable.sol\":1108:1114  _owner */\n      sload\n      sub(shl(0xa0, 0x01), 0x01)\n      and\n        /* \"@openzeppelin/contracts/utils/Context.sol\":719:729  msg.sender */\n      caller\n        /* \"@openzeppelin/contracts/access/Ownable.sol\":1248:1271  owner() == _msgSender() */\n      eq\n        /* \"@openzeppelin/contracts/access/Ownable.sol\":1240:1308  require(owner() == _msgSender(), \"Ownable: caller is not the owner\") */\n      tag_199\n      jumpi\n      mload(0x40)\n      shl(0xe5, 0x461bcd)\n      dup2\n      mstore\n      0x04\n      add\n      tag_139\n      swap1\n      tag_140\n      jump\t// in\n    tag_199:\n        /* \"BillionCash.sol\":5921:5936  marketingwallet */\n      0x05\n        /* \"BillionCash.sol\":5921:5953  marketingwallet = _marketAddress */\n      dup1\n      sload\n      not(sub(shl(0xa0, 0x01), 0x01))\n      and\n      sub(shl(0xa0, 0x01), 0x01)\n      swap3\n      swap1\n      swap3\n      and\n      swap2\n      swap1\n      swap2\n      or\n      swap1\n      sstore\n        /* \"BillionCash.sol\":5840:5961  function setMarketAddress(address  _marketAddress) external onlyOwner {... */\n      jump\t// out\n        /* \"@openzeppelin/contracts/utils/math/SafeMath.sol\":2755:2851  function add(uint256 a, uint256 b) internal pure returns (uint256) {... */\n    tag_107:\n        /* \"@openzeppelin/contracts/utils/math/SafeMath.sol\":2813:2820  uint256 */\n      0x00\n        /* \"@openzeppelin/contracts/utils/math/SafeMath.sol\":2839:2844  a + b */\n      tag_203\n        /* \"@openzeppelin/contracts/utils/math/SafeMath.sol\":2843:2844  b */\n      dup3\n        /* \"@openzeppelin/contracts/utils/math/SafeMath.sol\":2839:2840  a */\n      dup5\n        /* \"@openzeppelin/contracts/utils/math/SafeMath.sol\":2839:2844  a + b */\n      tag_204\n      jump\t// in\n    tag_203:\n        /* \"@openzeppelin/contracts/utils/math/SafeMath.sol\":2832:2844  return a + b */\n      swap4\n        /* \"@openzeppelin/contracts/utils/math/SafeMath.sol\":2755:2851  function add(uint256 a, uint256 b) internal pure returns (uint256) {... */\n      swap3\n      pop\n      pop\n      pop\n      jump\t// out\n        /* \"@openzeppelin/contracts/utils/math/SafeMath.sol\":3122:3218  function sub(uint256 a, uint256 b) internal pure returns (uint256) {... */\n    tag_118:\n        /* \"@openzeppelin/contracts/utils/math/SafeMath.sol\":3180:3187  uint256 */\n      0x00\n        /* \"@openzeppelin/contracts/utils/math/SafeMath.sol\":3206:3211  a - b */\n      tag_203\n        /* \"@openzeppelin/contracts/utils/math/SafeMath.sol\":3210:3211  b */\n      dup3\n        /* \"@openzeppelin/contracts/utils/math/SafeMath.sol\":3206:3207  a */\n      dup5\n        /* \"@openzeppelin/contracts/utils/math/SafeMath.sol\":3206:3211  a - b */\n      tag_207\n      jump\t// in\n        /* \"@openzeppelin/contracts/utils/math/SafeMath.sol\":3465:3561  function mul(uint256 a, uint256 b) internal pure returns (uint256) {... */\n    tag_121:\n        /* \"@openzeppelin/contracts/utils/math/SafeMath.sol\":3523:3530  uint256 */\n      0x00\n        /* \"@openzeppelin/contracts/utils/math/SafeMath.sol\":3549:3554  a * b */\n      tag_203\n        /* \"@openzeppelin/contracts/utils/math/SafeMath.sol\":3553:3554  b */\n      dup3\n        /* \"@openzeppelin/contracts/utils/math/SafeMath.sol\":3549:3550  a */\n      dup5\n        /* \"@openzeppelin/contracts/utils/math/SafeMath.sol\":3549:3554  a * b */\n      tag_210\n      jump\t// in\n        /* \"@openzeppelin/contracts/utils/math/SafeMath.sol\":3850:3946  function div(uint256 a, uint256 b) internal pure returns (uint256) {... */\n    tag_122:\n        /* \"@openzeppelin/contracts/utils/math/SafeMath.sol\":3908:3915  uint256 */\n      0x00\n        /* \"@openzeppelin/contracts/utils/math/SafeMath.sol\":3934:3939  a / b */\n      tag_203\n        /* \"@openzeppelin/contracts/utils/math/SafeMath.sol\":3938:3939  b */\n      dup3\n        /* \"@openzeppelin/contracts/utils/math/SafeMath.sol\":3934:3935  a */\n      dup5\n        /* \"@openzeppelin/contracts/utils/math/SafeMath.sol\":3934:3939  a / b */\n      tag_213\n      jump\t// in\n        /* \"@openzeppelin/contracts/access/Ownable.sol\":2270:2457  function _transferOwnership(address newOwner) internal virtual {... */\n    tag_155:\n        /* \"@openzeppelin/contracts/access/Ownable.sol\":2343:2359  address oldOwner */\n      0x00\n        /* \"@openzeppelin/contracts/access/Ownable.sol\":2362:2368  _owner */\n      dup1\n      sload\n      sub(shl(0xa0, 0x01), 0x01)\n        /* \"@openzeppelin/contracts/access/Ownable.sol\":2378:2395  _owner = newOwner */\n      dup4\n      dup2\n      and\n      not(sub(shl(0xa0, 0x01), 0x01))\n      dup4\n      and\n      dup2\n      or\n      dup5\n      sstore\n        /* \"@openzeppelin/contracts/access/Ownable.sol\":2410:2450  OwnershipTransferred(oldOwner, newOwner) */\n      mload(0x40)\n        /* \"@openzeppelin/contracts/access/Ownable.sol\":2362:2368  _owner */\n      swap2\n      swap1\n      swap3\n      and\n      swap3\n      dup4\n      swap2\n        /* \"@openzeppelin/contracts/access/Ownable.sol\":2410:2450  OwnershipTransferred(oldOwner, newOwner) */\n      0x8be0079c531659141344cd1fd0a4f28419497f9722a3daafe3b4186f6b6457e0\n      swap2\n        /* \"@openzeppelin/contracts/access/Ownable.sol\":2343:2359  address oldOwner */\n      swap1\n        /* \"@openzeppelin/contracts/access/Ownable.sol\":2410:2450  OwnershipTransferred(oldOwner, newOwner) */\n      log3\n        /* \"@openzeppelin/contracts/access/Ownable.sol\":2333:2457  {... */\n      pop\n        /* \"@openzeppelin/contracts/access/Ownable.sol\":2270:2457  function _transferOwnership(address newOwner) internal virtual {... */\n      pop\n      jump\t// out\n        /* \"#utility.yul\":196:793   */\n    tag_34:\n        /* \"#utility.yul\":308:312   */\n      0x00\n        /* \"#utility.yul\":337:339   */\n      0x20\n        /* \"#utility.yul\":366:368   */\n      dup1\n        /* \"#utility.yul\":355:364   */\n      dup4\n        /* \"#utility.yul\":348:369   */\n      mstore\n        /* \"#utility.yul\":398:404   */\n      dup4\n        /* \"#utility.yul\":392:405   */\n      mload\n        /* \"#utility.yul\":441:447   */\n      dup1\n        /* \"#utility.yul\":436:438   */\n      dup3\n        /* \"#utility.yul\":425:434   */\n      dup6\n        /* \"#utility.yul\":421:439   */\n      add\n        /* \"#utility.yul\":414:448   */\n      mstore\n        /* \"#utility.yul\":466:467   */\n      0x00\n        /* \"#utility.yul\":476:616   */\n    tag_221:\n        /* \"#utility.yul\":490:496   */\n      dup2\n        /* \"#utility.yul\":487:488   */\n      dup2\n        /* \"#utility.yul\":484:497   */\n      lt\n        /* \"#utility.yul\":476:616   */\n      iszero\n      tag_223\n      jumpi\n        /* \"#utility.yul\":585:599   */\n      dup6\n      dup2\n      add\n        /* \"#utility.yul\":581:604   */\n      dup4\n      add\n        /* \"#utility.yul\":575:605   */\n      mload\n        /* \"#utility.yul\":551:568   */\n      dup6\n      dup3\n      add\n        /* \"#utility.yul\":570:572   */\n      0x40\n        /* \"#utility.yul\":547:573   */\n      add\n        /* \"#utility.yul\":540:606   */\n      mstore\n        /* \"#utility.yul\":505:515   */\n      dup3\n      add\n        /* \"#utility.yul\":476:616   */\n      jump(tag_221)\n    tag_223:\n        /* \"#utility.yul\":634:640   */\n      dup2\n        /* \"#utility.yul\":631:632   */\n      dup2\n        /* \"#utility.yul\":628:641   */\n      gt\n        /* \"#utility.yul\":625:716   */\n      iszero\n      tag_224\n      jumpi\n        /* \"#utility.yul\":704:705   */\n      0x00\n        /* \"#utility.yul\":699:701   */\n      0x40\n        /* \"#utility.yul\":690:696   */\n      dup4\n        /* \"#utility.yul\":679:688   */\n      dup8\n        /* \"#utility.yul\":675:697   */\n      add\n        /* \"#utility.yul\":671:702   */\n      add\n        /* \"#utility.yul\":664:706   */\n      mstore\n        /* \"#utility.yul\":625:716   */\n    tag_224:\n      pop\n        /* \"#utility.yul\":777:779   */\n      0x1f\n        /* \"#utility.yul\":756:771   */\n      add\n      not(0x1f)\n        /* \"#utility.yul\":752:781   */\n      and\n        /* \"#utility.yul\":737:782   */\n      swap3\n      swap1\n      swap3\n      add\n        /* \"#utility.yul\":784:786   */\n      0x40\n        /* \"#utility.yul\":733:787   */\n      add\n      swap4\n        /* \"#utility.yul\":196:793   */\n      swap3\n      pop\n      pop\n      pop\n      jump\t// out\n        /* \"#utility.yul\":798:971   */\n    tag_216:\n        /* \"#utility.yul\":866:886   */\n      dup1\n      calldataload\n      sub(shl(0xa0, 0x01), 0x01)\n        /* \"#utility.yul\":915:946   */\n      dup2\n      and\n        /* \"#utility.yul\":905:947   */\n      dup2\n      eq\n        /* \"#utility.yul\":895:965   */\n      tag_226\n      jumpi\n        /* \"#utility.yul\":961:962   */\n      0x00\n        /* \"#utility.yul\":958:959   */\n      dup1\n        /* \"#utility.yul\":951:963   */\n      revert\n        /* \"#utility.yul\":895:965   */\n    tag_226:\n        /* \"#utility.yul\":798:971   */\n      swap2\n      swap1\n      pop\n      jump\t// out\n        /* \"#utility.yul\":976:1230   */\n    tag_37:\n        /* \"#utility.yul\":1044:1050   */\n      0x00\n        /* \"#utility.yul\":1052:1058   */\n      dup1\n        /* \"#utility.yul\":1105:1107   */\n      0x40\n        /* \"#utility.yul\":1093:1102   */\n      dup4\n        /* \"#utility.yul\":1084:1091   */\n      dup6\n        /* \"#utility.yul\":1080:1103   */\n      sub\n        /* \"#utility.yul\":1076:1108   */\n      slt\n        /* \"#utility.yul\":1073:1125   */\n      iszero\n      tag_228\n      jumpi\n        /* \"#utility.yul\":1121:1122   */\n      0x00\n        /* \"#utility.yul\":1118:1119   */\n      dup1\n        /* \"#utility.yul\":1111:1123   */\n      revert\n        /* \"#utility.yul\":1073:1125   */\n    tag_228:\n        /* \"#utility.yul\":1144:1173   */\n      tag_229\n        /* \"#utility.yul\":1163:1172   */\n      dup4\n        /* \"#utility.yul\":1144:1173   */\n      tag_216\n      jump\t// in\n    tag_229:\n        /* \"#utility.yul\":1134:1173   */\n      swap5\n        /* \"#utility.yul\":1220:1222   */\n      0x20\n        /* \"#utility.yul\":1205:1223   */\n      swap4\n      swap1\n      swap4\n      add\n        /* \"#utility.yul\":1192:1224   */\n      calldataload\n      swap4\n      pop\n      pop\n      pop\n        /* \"#utility.yul\":976:1230   */\n      jump\t// out\n        /* \"#utility.yul\":1427:1755   */\n    tag_46:\n        /* \"#utility.yul\":1504:1510   */\n      0x00\n        /* \"#utility.yul\":1512:1518   */\n      dup1\n        /* \"#utility.yul\":1520:1526   */\n      0x00\n        /* \"#utility.yul\":1573:1575   */\n      0x60\n        /* \"#utility.yul\":1561:1570   */\n      dup5\n        /* \"#utility.yul\":1552:1559   */\n      dup7\n        /* \"#utility.yul\":1548:1571   */\n      sub\n        /* \"#utility.yul\":1544:1576   */\n      slt\n        /* \"#utility.yul\":1541:1593   */\n      iszero\n      tag_232\n      jumpi\n        /* \"#utility.yul\":1589:1590   */\n      0x00\n        /* \"#utility.yul\":1586:1587   */\n      dup1\n        /* \"#utility.yul\":1579:1591   */\n      revert\n        /* \"#utility.yul\":1541:1593   */\n    tag_232:\n        /* \"#utility.yul\":1612:1641   */\n      tag_233\n        /* \"#utility.yul\":1631:1640   */\n      dup5\n        /* \"#utility.yul\":1612:1641   */\n      tag_216\n      jump\t// in\n    tag_233:\n        /* \"#utility.yul\":1602:1641   */\n      swap3\n      pop\n        /* \"#utility.yul\":1660:1698   */\n      tag_234\n        /* \"#utility.yul\":1694:1696   */\n      0x20\n        /* \"#utility.yul\":1683:1692   */\n      dup6\n        /* \"#utility.yul\":1679:1697   */\n      add\n        /* \"#utility.yul\":1660:1698   */\n      tag_216\n      jump\t// in\n    tag_234:\n        /* \"#utility.yul\":1650:1698   */\n      swap2\n      pop\n        /* \"#utility.yul\":1745:1747   */\n      0x40\n        /* \"#utility.yul\":1734:1743   */\n      dup5\n        /* \"#utility.yul\":1730:1748   */\n      add\n        /* \"#utility.yul\":1717:1749   */\n      calldataload\n        /* \"#utility.yul\":1707:1749   */\n      swap1\n      pop\n        /* \"#utility.yul\":1427:1755   */\n      swap3\n      pop\n      swap3\n      pop\n      swap3\n      jump\t// out\n        /* \"#utility.yul\":1760:1946   */\n    tag_51:\n        /* \"#utility.yul\":1819:1825   */\n      0x00\n        /* \"#utility.yul\":1872:1874   */\n      0x20\n        /* \"#utility.yul\":1860:1869   */\n      dup3\n        /* \"#utility.yul\":1851:1858   */\n      dup5\n        /* \"#utility.yul\":1847:1870   */\n      sub\n        /* \"#utility.yul\":1843:1875   */\n      slt\n        /* \"#utility.yul\":1840:1892   */\n      iszero\n      tag_236\n      jumpi\n        /* \"#utility.yul\":1888:1889   */\n      0x00\n        /* \"#utility.yul\":1885:1886   */\n      dup1\n        /* \"#utility.yul\":1878:1890   */\n      revert\n        /* \"#utility.yul\":1840:1892   */\n    tag_236:\n        /* \"#utility.yul\":1911:1940   */\n      tag_203\n        /* \"#utility.yul\":1930:1939   */\n      dup3\n        /* \"#utility.yul\":1911:1940   */\n      tag_216\n      jump\t// in\n        /* \"#utility.yul\":2348:2608   */\n    tag_91:\n        /* \"#utility.yul\":2416:2422   */\n      0x00\n        /* \"#utility.yul\":2424:2430   */\n      dup1\n        /* \"#utility.yul\":2477:2479   */\n      0x40\n        /* \"#utility.yul\":2465:2474   */\n      dup4\n        /* \"#utility.yul\":2456:2463   */\n      dup6\n        /* \"#utility.yul\":2452:2475   */\n      sub\n        /* \"#utility.yul\":2448:2480   */\n      slt\n        /* \"#utility.yul\":2445:2497   */\n      iszero\n      tag_241\n      jumpi\n        /* \"#utility.yul\":2493:2494   */\n      0x00\n        /* \"#utility.yul\":2490:2491   */\n      dup1\n        /* \"#utility.yul\":2483:2495   */\n      revert\n        /* \"#utility.yul\":2445:2497   */\n    tag_241:\n        /* \"#utility.yul\":2516:2545   */\n      tag_242\n        /* \"#utility.yul\":2535:2544   */\n      dup4\n        /* \"#utility.yul\":2516:2545   */\n      tag_216\n      jump\t// in\n    tag_242:\n        /* \"#utility.yul\":2506:2545   */\n      swap2\n      pop\n        /* \"#utility.yul\":2564:2602   */\n      tag_243\n        /* \"#utility.yul\":2598:2600   */\n      0x20\n        /* \"#utility.yul\":2587:2596   */\n      dup5\n        /* \"#utility.yul\":2583:2601   */\n      add\n        /* \"#utility.yul\":2564:2602   */\n      tag_216\n      jump\t// in\n    tag_243:\n        /* \"#utility.yul\":2554:2602   */\n      swap1\n      pop\n        /* \"#utility.yul\":2348:2608   */\n      swap3\n      pop\n      swap3\n      swap1\n      pop\n      jump\t// out\n        /* \"#utility.yul\":2613:2969   */\n    tag_140:\n        /* \"#utility.yul\":2815:2817   */\n      0x20\n        /* \"#utility.yul\":2797:2818   */\n      dup1\n      dup3\n      mstore\n        /* \"#utility.yul\":2834:2852   */\n      dup2\n      dup2\n      add\n        /* \"#utility.yul\":2827:2857   */\n      mstore\n        /* \"#utility.yul\":2893:2927   */\n      0x4f776e61626c653a2063616c6c6572206973206e6f7420746865206f776e6572\n        /* \"#utility.yul\":2888:2890   */\n      0x40\n        /* \"#utility.yul\":2873:2891   */\n      dup3\n      add\n        /* \"#utility.yul\":2866:2928   */\n      mstore\n        /* \"#utility.yul\":2960:2962   */\n      0x60\n        /* \"#utility.yul\":2945:2963   */\n      add\n      swap1\n        /* \"#utility.yul\":2613:2969   */\n      jump\t// out\n        /* \"#utility.yul\":3381:3508   */\n    tag_217:\n        /* \"#utility.yul\":3442:3452   */\n      0x4e487b71\n        /* \"#utility.yul\":3437:3440   */\n      0xe0\n        /* \"#utility.yul\":3433:3453   */\n      shl\n        /* \"#utility.yul\":3430:3431   */\n      0x00\n        /* \"#utility.yul\":3423:3454   */\n      mstore\n        /* \"#utility.yul\":3473:3477   */\n      0x11\n        /* \"#utility.yul\":3470:3471   */\n      0x04\n        /* \"#utility.yul\":3463:3478   */\n      mstore\n        /* \"#utility.yul\":3497:3501   */\n      0x24\n        /* \"#utility.yul\":3494:3495   */\n      0x00\n        /* \"#utility.yul\":3487:3502   */\n      revert\n        /* \"#utility.yul\":3513:3641   */\n    tag_204:\n        /* \"#utility.yul\":3553:3556   */\n      0x00\n        /* \"#utility.yul\":3584:3585   */\n      dup3\n        /* \"#utility.yul\":3580:3586   */\n      not\n        /* \"#utility.yul\":3577:3578   */\n      dup3\n        /* \"#utility.yul\":3574:3587   */\n      gt\n        /* \"#utility.yul\":3571:3610   */\n      iszero\n      tag_249\n      jumpi\n        /* \"#utility.yul\":3590:3608   */\n      tag_249\n      tag_217\n      jump\t// in\n    tag_249:\n      pop\n        /* \"#utility.yul\":3626:3635   */\n      add\n      swap1\n        /* \"#utility.yul\":3513:3641   */\n      jump\t// out\n        /* \"#utility.yul\":3646:3771   */\n    tag_207:\n        /* \"#utility.yul\":3686:3690   */\n      0x00\n        /* \"#utility.yul\":3714:3715   */\n      dup3\n        /* \"#utility.yul\":3711:3712   */\n      dup3\n        /* \"#utility.yul\":3708:3716   */\n      lt\n        /* \"#utility.yul\":3705:3739   */\n      iszero\n      tag_252\n      jumpi\n        /* \"#utility.yul\":3719:3737   */\n      tag_252\n      tag_217\n      jump\t// in\n    tag_252:\n      pop\n        /* \"#utility.yul\":3756:3765   */\n      sub\n      swap1\n        /* \"#utility.yul\":3646:3771   */\n      jump\t// out\n        /* \"#utility.yul\":3776:3944   */\n    tag_210:\n        /* \"#utility.yul\":3816:3823   */\n      0x00\n        /* \"#utility.yul\":3882:3883   */\n      dup2\n        /* \"#utility.yul\":3878:3879   */\n      0x00\n        /* \"#utility.yul\":3874:3880   */\n      not\n        /* \"#utility.yul\":3870:3884   */\n      div\n        /* \"#utility.yul\":3867:3868   */\n      dup4\n        /* \"#utility.yul\":3864:3885   */\n      gt\n        /* \"#utility.yul\":3859:3860   */\n      dup3\n        /* \"#utility.yul\":3852:3861   */\n      iszero\n        /* \"#utility.yul\":3845:3862   */\n      iszero\n        /* \"#utility.yul\":3841:3886   */\n      and\n        /* \"#utility.yul\":3838:3909   */\n      iszero\n      tag_255\n      jumpi\n        /* \"#utility.yul\":3889:3907   */\n      tag_255\n      tag_217\n      jump\t// in\n    tag_255:\n      pop\n        /* \"#utility.yul\":3929:3938   */\n      mul\n      swap1\n        /* \"#utility.yul\":3776:3944   */\n      jump\t// out\n        /* \"#utility.yul\":3949:4166   */\n    tag_213:\n        /* \"#utility.yul\":3989:3990   */\n      0x00\n        /* \"#utility.yul\":4015:4016   */\n      dup3\n        /* \"#utility.yul\":4005:4137   */\n      tag_257\n      jumpi\n        /* \"#utility.yul\":4059:4069   */\n      0x4e487b71\n        /* \"#utility.yul\":4054:4057   */\n      0xe0\n        /* \"#utility.yul\":4050:4070   */\n      shl\n        /* \"#utility.yul\":4047:4048   */\n      0x00\n        /* \"#utility.yul\":4040:4071   */\n      mstore\n        /* \"#utility.yul\":4094:4098   */\n      0x12\n        /* \"#utility.yul\":4091:4092   */\n      0x04\n        /* \"#utility.yul\":4084:4099   */\n      mstore\n        /* \"#utility.yul\":4122:4126   */\n      0x24\n        /* \"#utility.yul\":4119:4120   */\n      0x00\n        /* \"#utility.yul\":4112:4127   */\n      revert\n        /* \"#utility.yul\":4005:4137   */\n    tag_257:\n      pop\n        /* \"#utility.yul\":4151:4160   */\n      div\n      swap1\n        /* \"#utility.yul\":3949:4166   */\n      jump\t// out\n    stop\n    data_ada389e1fc24a8587c776340efb91b36e675792ab631816100d55df0b5cf3cbc ddf252ad1be2c89b69c2b068fc378daa952ba7f163c4a11628f55a4df523b3ef\n\n    auxdata: 0xa2646970667358221220284b50340951187e38915a5b8e92aa61fc2ebfa917171f93c394b0046ced42a064736f6c634300080a0033\n}\n",
				"bytecode": {
					"linkReferences": {},
					"object": "6080604052620000126012600a620002ca565b620000209061c350620002d8565b6003553480156200003057600080fd5b506040516200117638038062001176833981016040819052620000539162000317565b6200005e33620000b5565b600680546001600160a01b038086166001600160a01b0319928316179092556005805485841690831681179091556004805493851693909216929092179055600354620000ac919062000105565b5050506200037c565b600080546001600160a01b038381166001600160a01b0319831681178455604051919092169283917f8be0079c531659141344cd1fd0a4f28419497f9722a3daafe3b4186f6b6457e09190a35050565b806200011057600080fd5b6001600160a01b0382166000908152600160209081526040909120546200014291839062000b2d620001a0821b17901c565b6001600160a01b0383166000818152600160205260408082209390935591519091907fddf252ad1be2c89b69c2b068fc378daa952ba7f163c4a11628f55a4df523b3ef90620001949085815260200190565b60405180910390a35050565b6000620001ae828462000361565b90505b92915050565b634e487b7160e01b600052601160045260246000fd5b600181815b808511156200020e578160001904821115620001f257620001f2620001b7565b808516156200020057918102915b93841c9390800290620001d2565b509250929050565b6000826200022757506001620001b1565b816200023657506000620001b1565b81600181146200024f57600281146200025a576200027a565b6001915050620001b1565b60ff8411156200026e576200026e620001b7565b50506001821b620001b1565b5060208310610133831016604e8410600b84101617156200029f575081810a620001b1565b620002ab8383620001cd565b8060001904821115620002c257620002c2620001b7565b029392505050565b6000620001ae838362000216565b6000816000190483118215151615620002f557620002f5620001b7565b500290565b80516001600160a01b03811681146200031257600080fd5b919050565b6000806000606084860312156200032d57600080fd5b6200033884620002fa565b92506200034860208501620002fa565b91506200035860408501620002fa565b90509250925092565b60008219821115620003775762000377620001b7565b500190565b610dea806200038c6000396000f3fe608060405234801561001057600080fd5b50600436106101375760003560e01c80637711c596116100b8578063a9059cbb1161007c578063a9059cbb146102ad578063ba0fb861146102c0578063dd62ed3e146102eb578063eaf98d2314610324578063f2fde38b1461032c578063fae926121461033f57600080fd5b80637711c5961461022e5780638da5cb5b1461024e57806395d89b4114610269578063a457c2d714610287578063a70b46071461029a57600080fd5b806329b1c15c116100ff57806329b1c15c146101c6578063313ce567146101db57806339509351146101ea57806370a08231146101fd578063715018a61461022657600080fd5b806301c234a81461013c57806306fdde0314610158578063095ea7b31461018857806318160ddd146101ab57806323b872dd146101b3575b600080fd5b6101456103e881565b6040519081526020015b60405180910390f35b60408051808201909152600b81526a084d2d8d8d2dedc86c2e6d60ab1b60208201525b60405161014f9190610bb4565b61019b610196366004610c25565b610352565b604051901515815260200161014f565b600354610145565b61019b6101c1366004610c4f565b6103cc565b6101d96101d4366004610c8b565b61066f565b005b6040516012815260200161014f565b61019b6101f8366004610c25565b6106c4565b61014561020b366004610c8b565b6001600160a01b031660009081526001602052604090205490565b6101d961075e565b61014561023c366004610c8b565b60016020526000908152604090205481565b6000546040516001600160a01b03909116815260200161014f565b604080518082019091526002815261424360f01b602082015261017b565b61019b610295366004610c25565b610794565b6101d96102a8366004610c8b565b6107d7565b61019b6102bb366004610c25565b610823565b6101456102ce366004610ca6565b600260209081526000928352604080842090915290825290205481565b6101456102f9366004610ca6565b6001600160a01b03918216600090815260026020908152604080832093909416825291909152205490565b610145603281565b6101d961033a366004610c8b565b610a46565b6101d961034d366004610c8b565b610ae1565b60006001600160a01b03831661036757600080fd5b3360008181526002602090815260408083206001600160a01b03881680855290835292819020869055518581529192917f8c5be1e5ebec7d5bd14f71427d1e84f3dd0314c0f7b2291e5b200ac8c7c3b92591015b60405180910390a350600192915050565b6001600160a01b0383166000908152600160205260408120548211156103f157600080fd5b6001600160a01b038416600090815260026020908152604080832033845290915290205482111561042157600080fd5b6001600160a01b03831661043457600080fd5b6001600160a01b0384166000908152600160205260409020546104579083610b40565b6001600160a01b03851660009081526001602052604081209190915561048a6103e8610484856032610b4c565b90610b58565b905060006104a48261049e81818882610b40565b90610b40565b6001600160a01b0386166000908152600160205260409020549091506104ca9082610b2d565b6001600160a01b0380871660009081526001602052604080822093909355600654909116815220546104fc9083610b2d565b6006546001600160a01b0390811660009081526001602052604080822093909355600554909116815220546105319083610b2d565b6005546001600160a01b0390811660009081526001602052604080822093909355600454909116815220546105669083610b2d565b6004546001600160a01b0390811660009081526001602090815260408083209490945591891681526002825282812033825290915220546105a79085610b40565b6001600160a01b0380881660009081526002602090815260408083203380855292529182902093909355600654905191169190600080516020610d95833981519152906105f79086815260200190565b60405180910390a36005546040518381526001600160a01b03909116903390600080516020610d958339815191529060200160405180910390a36004546040518381526001600160a01b03909116903390600080516020610d958339815191529060200160405180910390a350600195945050505050565b6000546001600160a01b031633146106a25760405162461bcd60e51b815260040161069990610cd9565b60405180910390fd5b600680546001600160a01b0319166001600160a01b0392909216919091179055565b60006001600160a01b0383166106d957600080fd5b3360009081526002602090815260408083206001600160a01b03871684529091529020546107079083610b2d565b3360008181526002602090815260408083206001600160a01b038916808552908352928190208590555193845290927f8c5be1e5ebec7d5bd14f71427d1e84f3dd0314c0f7b2291e5b200ac8c7c3b92591016103bb565b6000546001600160a01b031633146107885760405162461bcd60e51b815260040161069990610cd9565b6107926000610b64565b565b60006001600160a01b0383166107a957600080fd5b3360009081526002602090815260408083206001600160a01b03871684529091529020546107079083610b40565b6000546001600160a01b031633146108015760405162461bcd60e51b815260040161069990610cd9565b600480546001600160a01b0319166001600160a01b0392909216919091179055565b3360009081526001602052604081205482111561083f57600080fd5b6001600160a01b03831661085257600080fd5b60006108656103e8610484856032610b4c565b905060006108798261049e81818882610b40565b336000908152600160205260409020549091506108969085610b40565b33600090815260016020526040808220929092556001600160a01b038716815220546108c29082610b2d565b6001600160a01b0380871660009081526001602052604080822093909355600654909116815220546108f49083610b2d565b6006546001600160a01b0390811660009081526001602052604080822093909355600554909116815220546109299083610b2d565b6005546001600160a01b03908116600090815260016020526040808220939093556004549091168152205461095e9083610b2d565b6004546001600160a01b039081166000908152600160209081526040918290209390935551838152908716913391600080516020610d95833981519152910160405180910390a36006546040518381526001600160a01b03909116903390600080516020610d958339815191529060200160405180910390a36005546040518381526001600160a01b03909116903390600080516020610d958339815191529060200160405180910390a36004546040518381526001600160a01b03909116903390600080516020610d958339815191529060200160405180910390a3506001949350505050565b6000546001600160a01b03163314610a705760405162461bcd60e51b815260040161069990610cd9565b6001600160a01b038116610ad55760405162461bcd60e51b815260206004820152602660248201527f4f776e61626c653a206e6577206f776e657220697320746865207a65726f206160448201526564647265737360d01b6064820152608401610699565b610ade81610b64565b50565b6000546001600160a01b03163314610b0b5760405162461bcd60e51b815260040161069990610cd9565b600580546001600160a01b0319166001600160a01b0392909216919091179055565b6000610b398284610d24565b9392505050565b6000610b398284610d3c565b6000610b398284610d53565b6000610b398284610d72565b600080546001600160a01b038381166001600160a01b0319831681178455604051919092169283917f8be0079c531659141344cd1fd0a4f28419497f9722a3daafe3b4186f6b6457e09190a35050565b600060208083528351808285015260005b81811015610be157858101830151858201604001528201610bc5565b81811115610bf3576000604083870101525b50601f01601f1916929092016040019392505050565b80356001600160a01b0381168114610c2057600080fd5b919050565b60008060408385031215610c3857600080fd5b610c4183610c09565b946020939093013593505050565b600080600060608486031215610c6457600080fd5b610c6d84610c09565b9250610c7b60208501610c09565b9150604084013590509250925092565b600060208284031215610c9d57600080fd5b610b3982610c09565b60008060408385031215610cb957600080fd5b610cc283610c09565b9150610cd060208401610c09565b90509250929050565b6020808252818101527f4f776e61626c653a2063616c6c6572206973206e6f7420746865206f776e6572604082015260600190565b634e487b7160e01b600052601160045260246000fd5b60008219821115610d3757610d37610d0e565b500190565b600082821015610d4e57610d4e610d0e565b500390565b6000816000190483118215151615610d6d57610d6d610d0e565b500290565b600082610d8f57634e487b7160e01b600052601260045260246000fd5b50049056feddf252ad1be2c89b69c2b068fc378daa952ba7f163c4a11628f55a4df523b3efa2646970667358221220284b50340951187e38915a5b8e92aa61fc2ebfa917171f93c394b0046ced42a064736f6c634300080a0033",
					"opcodes": "PUSH1 0x80 PUSH1 0x40 MSTORE PUSH3 0x12 PUSH1 0x12 PUSH1 0xA PUSH3 0x2CA JUMP JUMPDEST PUSH3 0x20 SWAP1 PUSH2 0xC350 PUSH3 0x2D8 JUMP JUMPDEST PUSH1 0x3 SSTORE CALLVALUE DUP1 ISZERO PUSH3 0x30 JUMPI PUSH1 0x0 DUP1 REVERT JUMPDEST POP PUSH1 0x40 MLOAD PUSH3 0x1176 CODESIZE SUB DUP1 PUSH3 0x1176 DUP4 CODECOPY DUP2 ADD PUSH1 0x40 DUP2 SWAP1 MSTORE PUSH3 0x53 SWAP2 PUSH3 0x317 JUMP JUMPDEST PUSH3 0x5E CALLER PUSH3 0xB5 JUMP JUMPDEST PUSH1 0x6 DUP1 SLOAD PUSH1 0x1 PUSH1 0x1 PUSH1 0xA0 SHL SUB DUP1 DUP7 AND PUSH1 0x1 PUSH1 0x1 PUSH1 0xA0 SHL SUB NOT SWAP3 DUP4 AND OR SWAP1 SWAP3 SSTORE PUSH1 0x5 DUP1 SLOAD DUP6 DUP5 AND SWAP1 DUP4 AND DUP2 OR SWAP1 SWAP2 SSTORE PUSH1 0x4 DUP1 SLOAD SWAP4 DUP6 AND SWAP4 SWAP1 SWAP3 AND SWAP3 SWAP1 SWAP3 OR SWAP1 SSTORE PUSH1 0x3 SLOAD PUSH3 0xAC SWAP2 SWAP1 PUSH3 0x105 JUMP JUMPDEST POP POP POP PUSH3 0x37C JUMP JUMPDEST PUSH1 0x0 DUP1 SLOAD PUSH1 0x1 PUSH1 0x1 PUSH1 0xA0 SHL SUB DUP4 DUP2 AND PUSH1 0x1 PUSH1 0x1 PUSH1 0xA0 SHL SUB NOT DUP4 AND DUP2 OR DUP5 SSTORE PUSH1 0x40 MLOAD SWAP2 SWAP1 SWAP3 AND SWAP3 DUP4 SWAP2 PUSH32 0x8BE0079C531659141344CD1FD0A4F28419497F9722A3DAAFE3B4186F6B6457E0 SWAP2 SWAP1 LOG3 POP POP JUMP JUMPDEST DUP1 PUSH3 0x110 JUMPI PUSH1 0x0 DUP1 REVERT JUMPDEST PUSH1 0x1 PUSH1 0x1 PUSH1 0xA0 SHL SUB DUP3 AND PUSH1 0x0 SWAP1 DUP2 MSTORE PUSH1 0x1 PUSH1 0x20 SWAP1 DUP2 MSTORE PUSH1 0x40 SWAP1 SWAP2 KECCAK256 SLOAD PUSH3 0x142 SWAP2 DUP4 SWAP1 PUSH3 0xB2D PUSH3 0x1A0 DUP3 SHL OR SWAP1 SHR JUMP JUMPDEST PUSH1 0x1 PUSH1 0x1 PUSH1 0xA0 SHL SUB DUP4 AND PUSH1 0x0 DUP2 DUP2 MSTORE PUSH1 0x1 PUSH1 0x20 MSTORE PUSH1 0x40 DUP1 DUP3 KECCAK256 SWAP4 SWAP1 SWAP4 SSTORE SWAP2 MLOAD SWAP1 SWAP2 SWAP1 PUSH32 0xDDF252AD1BE2C89B69C2B068FC378DAA952BA7F163C4A11628F55A4DF523B3EF SWAP1 PUSH3 0x194 SWAP1 DUP6 DUP2 MSTORE PUSH1 0x20 ADD SWAP1 JUMP JUMPDEST PUSH1 0x40 MLOAD DUP1 SWAP2 SUB SWAP1 LOG3 POP POP JUMP JUMPDEST PUSH1 0x0 PUSH3 0x1AE DUP3 DUP5 PUSH3 0x361 JUMP JUMPDEST SWAP1 POP JUMPDEST SWAP3 SWAP2 POP POP JUMP JUMPDEST PUSH4 0x4E487B71 PUSH1 0xE0 SHL PUSH1 0x0 MSTORE PUSH1 0x11 PUSH1 0x4 MSTORE PUSH1 0x24 PUSH1 0x0 REVERT JUMPDEST PUSH1 0x1 DUP2 DUP2 JUMPDEST DUP1 DUP6 GT ISZERO PUSH3 0x20E JUMPI DUP2 PUSH1 0x0 NOT DIV DUP3 GT ISZERO PUSH3 0x1F2 JUMPI PUSH3 0x1F2 PUSH3 0x1B7 JUMP JUMPDEST DUP1 DUP6 AND ISZERO PUSH3 0x200 JUMPI SWAP2 DUP2 MUL SWAP2 JUMPDEST SWAP4 DUP5 SHR SWAP4 SWAP1 DUP1 MUL SWAP1 PUSH3 0x1D2 JUMP JUMPDEST POP SWAP3 POP SWAP3 SWAP1 POP JUMP JUMPDEST PUSH1 0x0 DUP3 PUSH3 0x227 JUMPI POP PUSH1 0x1 PUSH3 0x1B1 JUMP JUMPDEST DUP2 PUSH3 0x236 JUMPI POP PUSH1 0x0 PUSH3 0x1B1 JUMP JUMPDEST DUP2 PUSH1 0x1 DUP2 EQ PUSH3 0x24F JUMPI PUSH1 0x2 DUP2 EQ PUSH3 0x25A JUMPI PUSH3 0x27A JUMP JUMPDEST PUSH1 0x1 SWAP2 POP POP PUSH3 0x1B1 JUMP JUMPDEST PUSH1 0xFF DUP5 GT ISZERO PUSH3 0x26E JUMPI PUSH3 0x26E PUSH3 0x1B7 JUMP JUMPDEST POP POP PUSH1 0x1 DUP3 SHL PUSH3 0x1B1 JUMP JUMPDEST POP PUSH1 0x20 DUP4 LT PUSH2 0x133 DUP4 LT AND PUSH1 0x4E DUP5 LT PUSH1 0xB DUP5 LT AND OR ISZERO PUSH3 0x29F JUMPI POP DUP2 DUP2 EXP PUSH3 0x1B1 JUMP JUMPDEST PUSH3 0x2AB DUP4 DUP4 PUSH3 0x1CD JUMP JUMPDEST DUP1 PUSH1 0x0 NOT DIV DUP3 GT ISZERO PUSH3 0x2C2 JUMPI PUSH3 0x2C2 PUSH3 0x1B7 JUMP JUMPDEST MUL SWAP4 SWAP3 POP POP POP JUMP JUMPDEST PUSH1 0x0 PUSH3 0x1AE DUP4 DUP4 PUSH3 0x216 JUMP JUMPDEST PUSH1 0x0 DUP2 PUSH1 0x0 NOT DIV DUP4 GT DUP3 ISZERO ISZERO AND ISZERO PUSH3 0x2F5 JUMPI PUSH3 0x2F5 PUSH3 0x1B7 JUMP JUMPDEST POP MUL SWAP1 JUMP JUMPDEST DUP1 MLOAD PUSH1 0x1 PUSH1 0x1 PUSH1 0xA0 SHL SUB DUP2 AND DUP2 EQ PUSH3 0x312 JUMPI PUSH1 0x0 DUP1 REVERT JUMPDEST SWAP2 SWAP1 POP JUMP JUMPDEST PUSH1 0x0 DUP1 PUSH1 0x0 PUSH1 0x60 DUP5 DUP7 SUB SLT ISZERO PUSH3 0x32D JUMPI PUSH1 0x0 DUP1 REVERT JUMPDEST PUSH3 0x338 DUP5 PUSH3 0x2FA JUMP JUMPDEST SWAP3 POP PUSH3 0x348 PUSH1 0x20 DUP6 ADD PUSH3 0x2FA JUMP JUMPDEST SWAP2 POP PUSH3 0x358 PUSH1 0x40 DUP6 ADD PUSH3 0x2FA JUMP JUMPDEST SWAP1 POP SWAP3 POP SWAP3 POP SWAP3 JUMP JUMPDEST PUSH1 0x0 DUP3 NOT DUP3 GT ISZERO PUSH3 0x377 JUMPI PUSH3 0x377 PUSH3 0x1B7 JUMP JUMPDEST POP ADD SWAP1 JUMP JUMPDEST PUSH2 0xDEA DUP1 PUSH3 0x38C PUSH1 0x0 CODECOPY PUSH1 0x0 RETURN INVALID PUSH1 0x80 PUSH1 0x40 MSTORE CALLVALUE DUP1 ISZERO PUSH2 0x10 JUMPI PUSH1 0x0 DUP1 REVERT JUMPDEST POP PUSH1 0x4 CALLDATASIZE LT PUSH2 0x137 JUMPI PUSH1 0x0 CALLDATALOAD PUSH1 0xE0 SHR DUP1 PUSH4 0x7711C596 GT PUSH2 0xB8 JUMPI DUP1 PUSH4 0xA9059CBB GT PUSH2 0x7C JUMPI DUP1 PUSH4 0xA9059CBB EQ PUSH2 0x2AD JUMPI DUP1 PUSH4 0xBA0FB861 EQ PUSH2 0x2C0 JUMPI DUP1 PUSH4 0xDD62ED3E EQ PUSH2 0x2EB JUMPI DUP1 PUSH4 0xEAF98D23 EQ PUSH2 0x324 JUMPI DUP1 PUSH4 0xF2FDE38B EQ PUSH2 0x32C JUMPI DUP1 PUSH4 0xFAE92612 EQ PUSH2 0x33F JUMPI PUSH1 0x0 DUP1 REVERT JUMPDEST DUP1 PUSH4 0x7711C596 EQ PUSH2 0x22E JUMPI DUP1 PUSH4 0x8DA5CB5B EQ PUSH2 0x24E JUMPI DUP1 PUSH4 0x95D89B41 EQ PUSH2 0x269 JUMPI DUP1 PUSH4 0xA457C2D7 EQ PUSH2 0x287 JUMPI DUP1 PUSH4 0xA70B4607 EQ PUSH2 0x29A JUMPI PUSH1 0x0 DUP1 REVERT JUMPDEST DUP1 PUSH4 0x29B1C15C GT PUSH2 0xFF JUMPI DUP1 PUSH4 0x29B1C15C EQ PUSH2 0x1C6 JUMPI DUP1 PUSH4 0x313CE567 EQ PUSH2 0x1DB JUMPI DUP1 PUSH4 0x39509351 EQ PUSH2 0x1EA JUMPI DUP1 PUSH4 0x70A08231 EQ PUSH2 0x1FD JUMPI DUP1 PUSH4 0x715018A6 EQ PUSH2 0x226 JUMPI PUSH1 0x0 DUP1 REVERT JUMPDEST DUP1 PUSH4 0x1C234A8 EQ PUSH2 0x13C JUMPI DUP1 PUSH4 0x6FDDE03 EQ PUSH2 0x158 JUMPI DUP1 PUSH4 0x95EA7B3 EQ PUSH2 0x188 JUMPI DUP1 PUSH4 0x18160DDD EQ PUSH2 0x1AB JUMPI DUP1 PUSH4 0x23B872DD EQ PUSH2 0x1B3 JUMPI JUMPDEST PUSH1 0x0 DUP1 REVERT JUMPDEST PUSH2 0x145 PUSH2 0x3E8 DUP2 JUMP JUMPDEST PUSH1 0x40 MLOAD SWAP1 DUP2 MSTORE PUSH1 0x20 ADD JUMPDEST PUSH1 0x40 MLOAD DUP1 SWAP2 SUB SWAP1 RETURN JUMPDEST PUSH1 0x40 DUP1 MLOAD DUP1 DUP3 ADD SWAP1 SWAP2 MSTORE PUSH1 0xB DUP2 MSTORE PUSH11 0x84D2D8D8D2DEDC86C2E6D PUSH1 0xAB SHL PUSH1 0x20 DUP3 ADD MSTORE JUMPDEST PUSH1 0x40 MLOAD PUSH2 0x14F SWAP2 SWAP1 PUSH2 0xBB4 JUMP JUMPDEST PUSH2 0x19B PUSH2 0x196 CALLDATASIZE PUSH1 0x4 PUSH2 0xC25 JUMP JUMPDEST PUSH2 0x352 JUMP JUMPDEST PUSH1 0x40 MLOAD SWAP1 ISZERO ISZERO DUP2 MSTORE PUSH1 0x20 ADD PUSH2 0x14F JUMP JUMPDEST PUSH1 0x3 SLOAD PUSH2 0x145 JUMP JUMPDEST PUSH2 0x19B PUSH2 0x1C1 CALLDATASIZE PUSH1 0x4 PUSH2 0xC4F JUMP JUMPDEST PUSH2 0x3CC JUMP JUMPDEST PUSH2 0x1D9 PUSH2 0x1D4 CALLDATASIZE PUSH1 0x4 PUSH2 0xC8B JUMP JUMPDEST PUSH2 0x66F JUMP JUMPDEST STOP JUMPDEST PUSH1 0x40 MLOAD PUSH1 0x12 DUP2 MSTORE PUSH1 0x20 ADD PUSH2 0x14F JUMP JUMPDEST PUSH2 0x19B PUSH2 0x1F8 CALLDATASIZE PUSH1 0x4 PUSH2 0xC25 JUMP JUMPDEST PUSH2 0x6C4 JUMP JUMPDEST PUSH2 0x145 PUSH2 0x20B CALLDATASIZE PUSH1 0x4 PUSH2 0xC8B JUMP JUMPDEST PUSH1 0x1 PUSH1 0x1 PUSH1 0xA0 SHL SUB AND PUSH1 0x0 SWAP1 DUP2 MSTORE PUSH1 0x1 PUSH1 0x20 MSTORE PUSH1 0x40 SWAP1 KECCAK256 SLOAD SWAP1 JUMP JUMPDEST PUSH2 0x1D9 PUSH2 0x75E JUMP JUMPDEST PUSH2 0x145 PUSH2 0x23C CALLDATASIZE PUSH1 0x4 PUSH2 0xC8B JUMP JUMPDEST PUSH1 0x1 PUSH1 0x20 MSTORE PUSH1 0x0 SWAP1 DUP2 MSTORE PUSH1 0x40 SWAP1 KECCAK256 SLOAD DUP2 JUMP JUMPDEST PUSH1 0x0 SLOAD PUSH1 0x40 MLOAD PUSH1 0x1 PUSH1 0x1 PUSH1 0xA0 SHL SUB SWAP1 SWAP2 AND DUP2 MSTORE PUSH1 0x20 ADD PUSH2 0x14F JUMP JUMPDEST PUSH1 0x40 DUP1 MLOAD DUP1 DUP3 ADD SWAP1 SWAP2 MSTORE PUSH1 0x2 DUP2 MSTORE PUSH2 0x4243 PUSH1 0xF0 SHL PUSH1 0x20 DUP3 ADD MSTORE PUSH2 0x17B JUMP JUMPDEST PUSH2 0x19B PUSH2 0x295 CALLDATASIZE PUSH1 0x4 PUSH2 0xC25 JUMP JUMPDEST PUSH2 0x794 JUMP JUMPDEST PUSH2 0x1D9 PUSH2 0x2A8 CALLDATASIZE PUSH1 0x4 PUSH2 0xC8B JUMP JUMPDEST PUSH2 0x7D7 JUMP JUMPDEST PUSH2 0x19B PUSH2 0x2BB CALLDATASIZE PUSH1 0x4 PUSH2 0xC25 JUMP JUMPDEST PUSH2 0x823 JUMP JUMPDEST PUSH2 0x145 PUSH2 0x2CE CALLDATASIZE PUSH1 0x4 PUSH2 0xCA6 JUMP JUMPDEST PUSH1 0x2 PUSH1 0x20 SWAP1 DUP2 MSTORE PUSH1 0x0 SWAP3 DUP4 MSTORE PUSH1 0x40 DUP1 DUP5 KECCAK256 SWAP1 SWAP2 MSTORE SWAP1 DUP3 MSTORE SWAP1 KECCAK256 SLOAD DUP2 JUMP JUMPDEST PUSH2 0x145 PUSH2 0x2F9 CALLDATASIZE PUSH1 0x4 PUSH2 0xCA6 JUMP JUMPDEST PUSH1 0x1 PUSH1 0x1 PUSH1 0xA0 SHL SUB SWAP2 DUP3 AND PUSH1 0x0 SWAP1 DUP2 MSTORE PUSH1 0x2 PUSH1 0x20 SWAP1 DUP2 MSTORE PUSH1 0x40 DUP1 DUP4 KECCAK256 SWAP4 SWAP1 SWAP5 AND DUP3 MSTORE SWAP2 SWAP1 SWAP2 MSTORE KECCAK256 SLOAD SWAP1 JUMP JUMPDEST PUSH2 0x145 PUSH1 0x32 DUP2 JUMP JUMPDEST PUSH2 0x1D9 PUSH2 0x33A CALLDATASIZE PUSH1 0x4 PUSH2 0xC8B JUMP JUMPDEST PUSH2 0xA46 JUMP JUMPDEST PUSH2 0x1D9 PUSH2 0x34D CALLDATASIZE PUSH1 0x4 PUSH2 0xC8B JUMP JUMPDEST PUSH2 0xAE1 JUMP JUMPDEST PUSH1 0x0 PUSH1 0x1 PUSH1 0x1 PUSH1 0xA0 SHL SUB DUP4 AND PUSH2 0x367 JUMPI PUSH1 0x0 DUP1 REVERT JUMPDEST CALLER PUSH1 0x0 DUP2 DUP2 MSTORE PUSH1 0x2 PUSH1 0x20 SWAP1 DUP2 MSTORE PUSH1 0x40 DUP1 DUP4 KECCAK256 PUSH1 0x1 PUSH1 0x1 PUSH1 0xA0 SHL SUB DUP9 AND DUP1 DUP6 MSTORE SWAP1 DUP4 MSTORE SWAP3 DUP2 SWAP1 KECCAK256 DUP7 SWAP1 SSTORE MLOAD DUP6 DUP2 MSTORE SWAP2 SWAP3 SWAP2 PUSH32 0x8C5BE1E5EBEC7D5BD14F71427D1E84F3DD0314C0F7B2291E5B200AC8C7C3B925 SWAP2 ADD JUMPDEST PUSH1 0x40 MLOAD DUP1 SWAP2 SUB SWAP1 LOG3 POP PUSH1 0x1 SWAP3 SWAP2 POP POP JUMP JUMPDEST PUSH1 0x1 PUSH1 0x1 PUSH1 0xA0 SHL SUB DUP4 AND PUSH1 0x0 SWAP1 DUP2 MSTORE PUSH1 0x1 PUSH1 0x20 MSTORE PUSH1 0x40 DUP2 KECCAK256 SLOAD DUP3 GT ISZERO PUSH2 0x3F1 JUMPI PUSH1 0x0 DUP1 REVERT JUMPDEST PUSH1 0x1 PUSH1 0x1 PUSH1 0xA0 SHL SUB DUP5 AND PUSH1 0x0 SWAP1 DUP2 MSTORE PUSH1 0x2 PUSH1 0x20 SWAP1 DUP2 MSTORE PUSH1 0x40 DUP1 DUP4 KECCAK256 CALLER DUP5 MSTORE SWAP1 SWAP2 MSTORE SWAP1 KECCAK256 SLOAD DUP3 GT ISZERO PUSH2 0x421 JUMPI PUSH1 0x0 DUP1 REVERT JUMPDEST PUSH1 0x1 PUSH1 0x1 PUSH1 0xA0 SHL SUB DUP4 AND PUSH2 0x434 JUMPI PUSH1 0x0 DUP1 REVERT JUMPDEST PUSH1 0x1 PUSH1 0x1 PUSH1 0xA0 SHL SUB DUP5 AND PUSH1 0x0 SWAP1 DUP2 MSTORE PUSH1 0x1 PUSH1 0x20 MSTORE PUSH1 0x40 SWAP1 KECCAK256 SLOAD PUSH2 0x457 SWAP1 DUP4 PUSH2 0xB40 JUMP JUMPDEST PUSH1 0x1 PUSH1 0x1 PUSH1 0xA0 SHL SUB DUP6 AND PUSH1 0x0 SWAP1 DUP2 MSTORE PUSH1 0x1 PUSH1 0x20 MSTORE PUSH1 0x40 DUP2 KECCAK256 SWAP2 SWAP1 SWAP2 SSTORE PUSH2 0x48A PUSH2 0x3E8 PUSH2 0x484 DUP6 PUSH1 0x32 PUSH2 0xB4C JUMP JUMPDEST SWAP1 PUSH2 0xB58 JUMP JUMPDEST SWAP1 POP PUSH1 0x0 PUSH2 0x4A4 DUP3 PUSH2 0x49E DUP2 DUP2 DUP9 DUP3 PUSH2 0xB40 JUMP JUMPDEST SWAP1 PUSH2 0xB40 JUMP JUMPDEST PUSH1 0x1 PUSH1 0x1 PUSH1 0xA0 SHL SUB DUP7 AND PUSH1 0x0 SWAP1 DUP2 MSTORE PUSH1 0x1 PUSH1 0x20 MSTORE PUSH1 0x40 SWAP1 KECCAK256 SLOAD SWAP1 SWAP2 POP PUSH2 0x4CA SWAP1 DUP3 PUSH2 0xB2D JUMP JUMPDEST PUSH1 0x1 PUSH1 0x1 PUSH1 0xA0 SHL SUB DUP1 DUP8 AND PUSH1 0x0 SWAP1 DUP2 MSTORE PUSH1 0x1 PUSH1 0x20 MSTORE PUSH1 0x40 DUP1 DUP3 KECCAK256 SWAP4 SWAP1 SWAP4 SSTORE PUSH1 0x6 SLOAD SWAP1 SWAP2 AND DUP2 MSTORE KECCAK256 SLOAD PUSH2 0x4FC SWAP1 DUP4 PUSH2 0xB2D JUMP JUMPDEST PUSH1 0x6 SLOAD PUSH1 0x1 PUSH1 0x1 PUSH1 0xA0 SHL SUB SWAP1 DUP2 AND PUSH1 0x0 SWAP1 DUP2 MSTORE PUSH1 0x1 PUSH1 0x20 MSTORE PUSH1 0x40 DUP1 DUP3 KECCAK256 SWAP4 SWAP1 SWAP4 SSTORE PUSH1 0x5 SLOAD SWAP1 SWAP2 AND DUP2 MSTORE KECCAK256 SLOAD PUSH2 0x531 SWAP1 DUP4 PUSH2 0xB2D JUMP JUMPDEST PUSH1 0x5 SLOAD PUSH1 0x1 PUSH1 0x1 PUSH1 0xA0 SHL SUB SWAP1 DUP2 AND PUSH1 0x0 SWAP1 DUP2 MSTORE PUSH1 0x1 PUSH1 0x20 MSTORE PUSH1 0x40 DUP1 DUP3 KECCAK256 SWAP4 SWAP1 SWAP4 SSTORE PUSH1 0x4 SLOAD SWAP1 SWAP2 AND DUP2 MSTORE KECCAK256 SLOAD PUSH2 0x566 SWAP1 DUP4 PUSH2 0xB2D JUMP JUMPDEST PUSH1 0x4 SLOAD PUSH1 0x1 PUSH1 0x1 PUSH1 0xA0 SHL SUB SWAP1 DUP2 AND PUSH1 0x0 SWAP1 DUP2 MSTORE PUSH1 0x1 PUSH1 0x20 SWAP1 DUP2 MSTORE PUSH1 0x40 DUP1 DUP4 KECCAK256 SWAP5 SWAP1 SWAP5 SSTORE SWAP2 DUP10 AND DUP2 MSTORE PUSH1 0x2 DUP3 MSTORE DUP3 DUP2 KECCAK256 CALLER DUP3 MSTORE SWAP1 SWAP2 MSTORE KECCAK256 SLOAD PUSH2 0x5A7 SWAP1 DUP6 PUSH2 0xB40 JUMP JUMPDEST PUSH1 0x1 PUSH1 0x1 PUSH1 0xA0 SHL SUB DUP1 DUP9 AND PUSH1 0x0 SWAP1 DUP2 MSTORE PUSH1 0x2 PUSH1 0x20 SWAP1 DUP2 MSTORE PUSH1 0x40 DUP1 DUP4 KECCAK256 CALLER DUP1 DUP6 MSTORE SWAP3 MSTORE SWAP2 DUP3 SWAP1 KECCAK256 SWAP4 SWAP1 SWAP4 SSTORE PUSH1 0x6 SLOAD SWAP1 MLOAD SWAP2 AND SWAP2 SWAP1 PUSH1 0x0 DUP1 MLOAD PUSH1 0x20 PUSH2 0xD95 DUP4 CODECOPY DUP2 MLOAD SWAP2 MSTORE SWAP1 PUSH2 0x5F7 SWAP1 DUP7 DUP2 MSTORE PUSH1 0x20 ADD SWAP1 JUMP JUMPDEST PUSH1 0x40 MLOAD DUP1 SWAP2 SUB SWAP1 LOG3 PUSH1 0x5 SLOAD PUSH1 0x40 MLOAD DUP4 DUP2 MSTORE PUSH1 0x1 PUSH1 0x1 PUSH1 0xA0 SHL SUB SWAP1 SWAP2 AND SWAP1 CALLER SWAP1 PUSH1 0x0 DUP1 MLOAD PUSH1 0x20 PUSH2 0xD95 DUP4 CODECOPY DUP2 MLOAD SWAP2 MSTORE SWAP1 PUSH1 0x20 ADD PUSH1 0x40 MLOAD DUP1 SWAP2 SUB SWAP1 LOG3 PUSH1 0x4 SLOAD PUSH1 0x40 MLOAD DUP4 DUP2 MSTORE PUSH1 0x1 PUSH1 0x1 PUSH1 0xA0 SHL SUB SWAP1 SWAP2 AND SWAP1 CALLER SWAP1 PUSH1 0x0 DUP1 MLOAD PUSH1 0x20 PUSH2 0xD95 DUP4 CODECOPY DUP2 MLOAD SWAP2 MSTORE SWAP1 PUSH1 0x20 ADD PUSH1 0x40 MLOAD DUP1 SWAP2 SUB SWAP1 LOG3 POP PUSH1 0x1 SWAP6 SWAP5 POP POP POP POP POP JUMP JUMPDEST PUSH1 0x0 SLOAD PUSH1 0x1 PUSH1 0x1 PUSH1 0xA0 SHL SUB AND CALLER EQ PUSH2 0x6A2 JUMPI PUSH1 0x40 MLOAD PUSH3 0x461BCD PUSH1 0xE5 SHL DUP2 MSTORE PUSH1 0x4 ADD PUSH2 0x699 SWAP1 PUSH2 0xCD9 JUMP JUMPDEST PUSH1 0x40 MLOAD DUP1 SWAP2 SUB SWAP1 REVERT JUMPDEST PUSH1 0x6 DUP1 SLOAD PUSH1 0x1 PUSH1 0x1 PUSH1 0xA0 SHL SUB NOT AND PUSH1 0x1 PUSH1 0x1 PUSH1 0xA0 SHL SUB SWAP3 SWAP1 SWAP3 AND SWAP2 SWAP1 SWAP2 OR SWAP1 SSTORE JUMP JUMPDEST PUSH1 0x0 PUSH1 0x1 PUSH1 0x1 PUSH1 0xA0 SHL SUB DUP4 AND PUSH2 0x6D9 JUMPI PUSH1 0x0 DUP1 REVERT JUMPDEST CALLER PUSH1 0x0 SWAP1 DUP2 MSTORE PUSH1 0x2 PUSH1 0x20 SWAP1 DUP2 MSTORE PUSH1 0x40 DUP1 DUP4 KECCAK256 PUSH1 0x1 PUSH1 0x1 PUSH1 0xA0 SHL SUB DUP8 AND DUP5 MSTORE SWAP1 SWAP2 MSTORE SWAP1 KECCAK256 SLOAD PUSH2 0x707 SWAP1 DUP4 PUSH2 0xB2D JUMP JUMPDEST CALLER PUSH1 0x0 DUP2 DUP2 MSTORE PUSH1 0x2 PUSH1 0x20 SWAP1 DUP2 MSTORE PUSH1 0x40 DUP1 DUP4 KECCAK256 PUSH1 0x1 PUSH1 0x1 PUSH1 0xA0 SHL SUB DUP10 AND DUP1 DUP6 MSTORE SWAP1 DUP4 MSTORE SWAP3 DUP2 SWAP1 KECCAK256 DUP6 SWAP1 SSTORE MLOAD SWAP4 DUP5 MSTORE SWAP1 SWAP3 PUSH32 0x8C5BE1E5EBEC7D5BD14F71427D1E84F3DD0314C0F7B2291E5B200AC8C7C3B925 SWAP2 ADD PUSH2 0x3BB JUMP JUMPDEST PUSH1 0x0 SLOAD PUSH1 0x1 PUSH1 0x1 PUSH1 0xA0 SHL SUB AND CALLER EQ PUSH2 0x788 JUMPI PUSH1 0x40 MLOAD PUSH3 0x461BCD PUSH1 0xE5 SHL DUP2 MSTORE PUSH1 0x4 ADD PUSH2 0x699 SWAP1 PUSH2 0xCD9 JUMP JUMPDEST PUSH2 0x792 PUSH1 0x0 PUSH2 0xB64 JUMP JUMPDEST JUMP JUMPDEST PUSH1 0x0 PUSH1 0x1 PUSH1 0x1 PUSH1 0xA0 SHL SUB DUP4 AND PUSH2 0x7A9 JUMPI PUSH1 0x0 DUP1 REVERT JUMPDEST CALLER PUSH1 0x0 SWAP1 DUP2 MSTORE PUSH1 0x2 PUSH1 0x20 SWAP1 DUP2 MSTORE PUSH1 0x40 DUP1 DUP4 KECCAK256 PUSH1 0x1 PUSH1 0x1 PUSH1 0xA0 SHL SUB DUP8 AND DUP5 MSTORE SWAP1 SWAP2 MSTORE SWAP1 KECCAK256 SLOAD PUSH2 0x707 SWAP1 DUP4 PUSH2 0xB40 JUMP JUMPDEST PUSH1 0x0 SLOAD PUSH1 0x1 PUSH1 0x1 PUSH1 0xA0 SHL SUB AND CALLER EQ PUSH2 0x801 JUMPI PUSH1 0x40 MLOAD PUSH3 0x461BCD PUSH1 0xE5 SHL DUP2 MSTORE PUSH1 0x4 ADD PUSH2 0x699 SWAP1 PUSH2 0xCD9 JUMP JUMPDEST PUSH1 0x4 DUP1 SLOAD PUSH1 0x1 PUSH1 0x1 PUSH1 0xA0 SHL SUB NOT AND PUSH1 0x1 PUSH1 0x1 PUSH1 0xA0 SHL SUB SWAP3 SWAP1 SWAP3 AND SWAP2 SWAP1 SWAP2 OR SWAP1 SSTORE JUMP JUMPDEST CALLER PUSH1 0x0 SWAP1 DUP2 MSTORE PUSH1 0x1 PUSH1 0x20 MSTORE PUSH1 0x40 DUP2 KECCAK256 SLOAD DUP3 GT ISZERO PUSH2 0x83F JUMPI PUSH1 0x0 DUP1 REVERT JUMPDEST PUSH1 0x1 PUSH1 0x1 PUSH1 0xA0 SHL SUB DUP4 AND PUSH2 0x852 JUMPI PUSH1 0x0 DUP1 REVERT JUMPDEST PUSH1 0x0 PUSH2 0x865 PUSH2 0x3E8 PUSH2 0x484 DUP6 PUSH1 0x32 PUSH2 0xB4C JUMP JUMPDEST SWAP1 POP PUSH1 0x0 PUSH2 0x879 DUP3 PUSH2 0x49E DUP2 DUP2 DUP9 DUP3 PUSH2 0xB40 JUMP JUMPDEST CALLER PUSH1 0x0 SWAP1 DUP2 MSTORE PUSH1 0x1 PUSH1 0x20 MSTORE PUSH1 0x40 SWAP1 KECCAK256 SLOAD SWAP1 SWAP2 POP PUSH2 0x896 SWAP1 DUP6 PUSH2 0xB40 JUMP JUMPDEST CALLER PUSH1 0x0 SWAP1 DUP2 MSTORE PUSH1 0x1 PUSH1 0x20 MSTORE PUSH1 0x40 DUP1 DUP3 KECCAK256 SWAP3 SWAP1 SWAP3 SSTORE PUSH1 0x1 PUSH1 0x1 PUSH1 0xA0 SHL SUB DUP8 AND DUP2 MSTORE KECCAK256 SLOAD PUSH2 0x8C2 SWAP1 DUP3 PUSH2 0xB2D JUMP JUMPDEST PUSH1 0x1 PUSH1 0x1 PUSH1 0xA0 SHL SUB DUP1 DUP8 AND PUSH1 0x0 SWAP1 DUP2 MSTORE PUSH1 0x1 PUSH1 0x20 MSTORE PUSH1 0x40 DUP1 DUP3 KECCAK256 SWAP4 SWAP1 SWAP4 SSTORE PUSH1 0x6 SLOAD SWAP1 SWAP2 AND DUP2 MSTORE KECCAK256 SLOAD PUSH2 0x8F4 SWAP1 DUP4 PUSH2 0xB2D JUMP JUMPDEST PUSH1 0x6 SLOAD PUSH1 0x1 PUSH1 0x1 PUSH1 0xA0 SHL SUB SWAP1 DUP2 AND PUSH1 0x0 SWAP1 DUP2 MSTORE PUSH1 0x1 PUSH1 0x20 MSTORE PUSH1 0x40 DUP1 DUP3 KECCAK256 SWAP4 SWAP1 SWAP4 SSTORE PUSH1 0x5 SLOAD SWAP1 SWAP2 AND DUP2 MSTORE KECCAK256 SLOAD PUSH2 0x929 SWAP1 DUP4 PUSH2 0xB2D JUMP JUMPDEST PUSH1 0x5 SLOAD PUSH1 0x1 PUSH1 0x1 PUSH1 0xA0 SHL SUB SWAP1 DUP2 AND PUSH1 0x0 SWAP1 DUP2 MSTORE PUSH1 0x1 PUSH1 0x20 MSTORE PUSH1 0x40 DUP1 DUP3 KECCAK256 SWAP4 SWAP1 SWAP4 SSTORE PUSH1 0x4 SLOAD SWAP1 SWAP2 AND DUP2 MSTORE KECCAK256 SLOAD PUSH2 0x95E SWAP1 DUP4 PUSH2 0xB2D JUMP JUMPDEST PUSH1 0x4 SLOAD PUSH1 0x1 PUSH1 0x1 PUSH1 0xA0 SHL SUB SWAP1 DUP2 AND PUSH1 0x0 SWAP1 DUP2 MSTORE PUSH1 0x1 PUSH1 0x20 SWAP1 DUP2 MSTORE PUSH1 0x40 SWAP2 DUP3 SWAP1 KECCAK256 SWAP4 SWAP1 SWAP4 SSTORE MLOAD DUP4 DUP2 MSTORE SWAP1 DUP8 AND SWAP2 CALLER SWAP2 PUSH1 0x0 DUP1 MLOAD PUSH1 0x20 PUSH2 0xD95 DUP4 CODECOPY DUP2 MLOAD SWAP2 MSTORE SWAP2 ADD PUSH1 0x40 MLOAD DUP1 SWAP2 SUB SWAP1 LOG3 PUSH1 0x6 SLOAD PUSH1 0x40 MLOAD DUP4 DUP2 MSTORE PUSH1 0x1 PUSH1 0x1 PUSH1 0xA0 SHL SUB SWAP1 SWAP2 AND SWAP1 CALLER SWAP1 PUSH1 0x0 DUP1 MLOAD PUSH1 0x20 PUSH2 0xD95 DUP4 CODECOPY DUP2 MLOAD SWAP2 MSTORE SWAP1 PUSH1 0x20 ADD PUSH1 0x40 MLOAD DUP1 SWAP2 SUB SWAP1 LOG3 PUSH1 0x5 SLOAD PUSH1 0x40 MLOAD DUP4 DUP2 MSTORE PUSH1 0x1 PUSH1 0x1 PUSH1 0xA0 SHL SUB SWAP1 SWAP2 AND SWAP1 CALLER SWAP1 PUSH1 0x0 DUP1 MLOAD PUSH1 0x20 PUSH2 0xD95 DUP4 CODECOPY DUP2 MLOAD SWAP2 MSTORE SWAP1 PUSH1 0x20 ADD PUSH1 0x40 MLOAD DUP1 SWAP2 SUB SWAP1 LOG3 PUSH1 0x4 SLOAD PUSH1 0x40 MLOAD DUP4 DUP2 MSTORE PUSH1 0x1 PUSH1 0x1 PUSH1 0xA0 SHL SUB SWAP1 SWAP2 AND SWAP1 CALLER SWAP1 PUSH1 0x0 DUP1 MLOAD PUSH1 0x20 PUSH2 0xD95 DUP4 CODECOPY DUP2 MLOAD SWAP2 MSTORE SWAP1 PUSH1 0x20 ADD PUSH1 0x40 MLOAD DUP1 SWAP2 SUB SWAP1 LOG3 POP PUSH1 0x1 SWAP5 SWAP4 POP POP POP POP JUMP JUMPDEST PUSH1 0x0 SLOAD PUSH1 0x1 PUSH1 0x1 PUSH1 0xA0 SHL SUB AND CALLER EQ PUSH2 0xA70 JUMPI PUSH1 0x40 MLOAD PUSH3 0x461BCD PUSH1 0xE5 SHL DUP2 MSTORE PUSH1 0x4 ADD PUSH2 0x699 SWAP1 PUSH2 0xCD9 JUMP JUMPDEST PUSH1 0x1 PUSH1 0x1 PUSH1 0xA0 SHL SUB DUP2 AND PUSH2 0xAD5 JUMPI PUSH1 0x40 MLOAD PUSH3 0x461BCD PUSH1 0xE5 SHL DUP2 MSTORE PUSH1 0x20 PUSH1 0x4 DUP3 ADD MSTORE PUSH1 0x26 PUSH1 0x24 DUP3 ADD MSTORE PUSH32 0x4F776E61626C653A206E6577206F776E657220697320746865207A65726F2061 PUSH1 0x44 DUP3 ADD MSTORE PUSH6 0x646472657373 PUSH1 0xD0 SHL PUSH1 0x64 DUP3 ADD MSTORE PUSH1 0x84 ADD PUSH2 0x699 JUMP JUMPDEST PUSH2 0xADE DUP2 PUSH2 0xB64 JUMP JUMPDEST POP JUMP JUMPDEST PUSH1 0x0 SLOAD PUSH1 0x1 PUSH1 0x1 PUSH1 0xA0 SHL SUB AND CALLER EQ PUSH2 0xB0B JUMPI PUSH1 0x40 MLOAD PUSH3 0x461BCD PUSH1 0xE5 SHL DUP2 MSTORE PUSH1 0x4 ADD PUSH2 0x699 SWAP1 PUSH2 0xCD9 JUMP JUMPDEST PUSH1 0x5 DUP1 SLOAD PUSH1 0x1 PUSH1 0x1 PUSH1 0xA0 SHL SUB NOT AND PUSH1 0x1 PUSH1 0x1 PUSH1 0xA0 SHL SUB SWAP3 SWAP1 SWAP3 AND SWAP2 SWAP1 SWAP2 OR SWAP1 SSTORE JUMP JUMPDEST PUSH1 0x0 PUSH2 0xB39 DUP3 DUP5 PUSH2 0xD24 JUMP JUMPDEST SWAP4 SWAP3 POP POP POP JUMP JUMPDEST PUSH1 0x0 PUSH2 0xB39 DUP3 DUP5 PUSH2 0xD3C JUMP JUMPDEST PUSH1 0x0 PUSH2 0xB39 DUP3 DUP5 PUSH2 0xD53 JUMP JUMPDEST PUSH1 0x0 PUSH2 0xB39 DUP3 DUP5 PUSH2 0xD72 JUMP JUMPDEST PUSH1 0x0 DUP1 SLOAD PUSH1 0x1 PUSH1 0x1 PUSH1 0xA0 SHL SUB DUP4 DUP2 AND PUSH1 0x1 PUSH1 0x1 PUSH1 0xA0 SHL SUB NOT DUP4 AND DUP2 OR DUP5 SSTORE PUSH1 0x40 MLOAD SWAP2 SWAP1 SWAP3 AND SWAP3 DUP4 SWAP2 PUSH32 0x8BE0079C531659141344CD1FD0A4F28419497F9722A3DAAFE3B4186F6B6457E0 SWAP2 SWAP1 LOG3 POP POP JUMP JUMPDEST PUSH1 0x0 PUSH1 0x20 DUP1 DUP4 MSTORE DUP4 MLOAD DUP1 DUP3 DUP6 ADD MSTORE PUSH1 0x0 JUMPDEST DUP2 DUP2 LT ISZERO PUSH2 0xBE1 JUMPI DUP6 DUP2 ADD DUP4 ADD MLOAD DUP6 DUP3 ADD PUSH1 0x40 ADD MSTORE DUP3 ADD PUSH2 0xBC5 JUMP JUMPDEST DUP2 DUP2 GT ISZERO PUSH2 0xBF3 JUMPI PUSH1 0x0 PUSH1 0x40 DUP4 DUP8 ADD ADD MSTORE JUMPDEST POP PUSH1 0x1F ADD PUSH1 0x1F NOT AND SWAP3 SWAP1 SWAP3 ADD PUSH1 0x40 ADD SWAP4 SWAP3 POP POP POP JUMP JUMPDEST DUP1 CALLDATALOAD PUSH1 0x1 PUSH1 0x1 PUSH1 0xA0 SHL SUB DUP2 AND DUP2 EQ PUSH2 0xC20 JUMPI PUSH1 0x0 DUP1 REVERT JUMPDEST SWAP2 SWAP1 POP JUMP JUMPDEST PUSH1 0x0 DUP1 PUSH1 0x40 DUP4 DUP6 SUB SLT ISZERO PUSH2 0xC38 JUMPI PUSH1 0x0 DUP1 REVERT JUMPDEST PUSH2 0xC41 DUP4 PUSH2 0xC09 JUMP JUMPDEST SWAP5 PUSH1 0x20 SWAP4 SWAP1 SWAP4 ADD CALLDATALOAD SWAP4 POP POP POP JUMP JUMPDEST PUSH1 0x0 DUP1 PUSH1 0x0 PUSH1 0x60 DUP5 DUP7 SUB SLT ISZERO PUSH2 0xC64 JUMPI PUSH1 0x0 DUP1 REVERT JUMPDEST PUSH2 0xC6D DUP5 PUSH2 0xC09 JUMP JUMPDEST SWAP3 POP PUSH2 0xC7B PUSH1 0x20 DUP6 ADD PUSH2 0xC09 JUMP JUMPDEST SWAP2 POP PUSH1 0x40 DUP5 ADD CALLDATALOAD SWAP1 POP SWAP3 POP SWAP3 POP SWAP3 JUMP JUMPDEST PUSH1 0x0 PUSH1 0x20 DUP3 DUP5 SUB SLT ISZERO PUSH2 0xC9D JUMPI PUSH1 0x0 DUP1 REVERT JUMPDEST PUSH2 0xB39 DUP3 PUSH2 0xC09 JUMP JUMPDEST PUSH1 0x0 DUP1 PUSH1 0x40 DUP4 DUP6 SUB SLT ISZERO PUSH2 0xCB9 JUMPI PUSH1 0x0 DUP1 REVERT JUMPDEST PUSH2 0xCC2 DUP4 PUSH2 0xC09 JUMP JUMPDEST SWAP2 POP PUSH2 0xCD0 PUSH1 0x20 DUP5 ADD PUSH2 0xC09 JUMP JUMPDEST SWAP1 POP SWAP3 POP SWAP3 SWAP1 POP JUMP JUMPDEST PUSH1 0x20 DUP1 DUP3 MSTORE DUP2 DUP2 ADD MSTORE PUSH32 0x4F776E61626C653A2063616C6C6572206973206E6F7420746865206F776E6572 PUSH1 0x40 DUP3 ADD MSTORE PUSH1 0x60 ADD SWAP1 JUMP JUMPDEST PUSH4 0x4E487B71 PUSH1 0xE0 SHL PUSH1 0x0 MSTORE PUSH1 0x11 PUSH1 0x4 MSTORE PUSH1 0x24 PUSH1 0x0 REVERT JUMPDEST PUSH1 0x0 DUP3 NOT DUP3 GT ISZERO PUSH2 0xD37 JUMPI PUSH2 0xD37 PUSH2 0xD0E JUMP JUMPDEST POP ADD SWAP1 JUMP JUMPDEST PUSH1 0x0 DUP3 DUP3 LT ISZERO PUSH2 0xD4E JUMPI PUSH2 0xD4E PUSH2 0xD0E JUMP JUMPDEST POP SUB SWAP1 JUMP JUMPDEST PUSH1 0x0 DUP2 PUSH1 0x0 NOT DIV DUP4 GT DUP3 ISZERO ISZERO AND ISZERO PUSH2 0xD6D JUMPI PUSH2 0xD6D PUSH2 0xD0E JUMP JUMPDEST POP MUL SWAP1 JUMP JUMPDEST PUSH1 0x0 DUP3 PUSH2 0xD8F JUMPI PUSH4 0x4E487B71 PUSH1 0xE0 SHL PUSH1 0x0 MSTORE PUSH1 0x12 PUSH1 0x4 MSTORE PUSH1 0x24 PUSH1 0x0 REVERT JUMPDEST POP DIV SWAP1 JUMP INVALID 0xDD CALLCODE MSTORE 0xAD SHL 0xE2 0xC8 SWAP12 PUSH10 0xC2B068FC378DAA952BA7 CALL PUSH4 0xC4A11628 CREATE2 GAS 0x4D CREATE2 0x23 0xB3 0xEF LOG2 PUSH5 0x6970667358 0x22 SLT KECCAK256 0x28 0x4B POP CALLVALUE MULMOD MLOAD XOR PUSH31 0x38915A5B8E92AA61FC2EBFA917171F93C394B0046CED42A064736F6C634300 ADDMOD EXP STOP CALLER "
				},
				"gasEstimates": {
					"creation": {
						"codeDepositCost": "712400",
						"executionCost": "infinite",
						"totalCost": "infinite"
					},
					"external": {
						"FEE_PERCENT()": "272",
						"PERCENTS_DIVIDER()": "208",
						"_BCTokenBalances(address)": "2531",
						"_allowed(address,address)": "infinite",
						"allowance(address,address)": "infinite",
						"approve(address,uint256)": "24588",
						"balanceOf(address)": "2615",
						"decimals()": "222",
						"decreaseAllowance(address,uint256)": "26990",
						"increaseAllowance(address,uint256)": "26971",
						"name()": "infinite",
						"owner()": "2346",
						"renounceOwnership()": "28225",
						"setDevelopmentAddress(address)": "26734",
						"setMarketAddress(address)": "26843",
						"setPancakeAddress(address)": "26822",
						"symbol()": "infinite",
						"totalSupply()": "2371",
						"transfer(address,uint256)": "infinite",
						"transferFrom(address,address,uint256)": "infinite",
						"transferOwnership(address)": "28419"
					},
					"internal": {
						"_mint(address,uint256)": "infinite"
					}
				},
				"methodIdentifiers": {
					"FEE_PERCENT()": "eaf98d23",
					"PERCENTS_DIVIDER()": "01c234a8",
					"_BCTokenBalances(address)": "7711c596",
					"_allowed(address,address)": "ba0fb861",
					"allowance(address,address)": "dd62ed3e",
					"approve(address,uint256)": "095ea7b3",
					"balanceOf(address)": "70a08231",
					"decimals()": "313ce567",
					"decreaseAllowance(address,uint256)": "a457c2d7",
					"increaseAllowance(address,uint256)": "39509351",
					"name()": "06fdde03",
					"owner()": "8da5cb5b",
					"renounceOwnership()": "715018a6",
					"setDevelopmentAddress(address)": "29b1c15c",
					"setMarketAddress(address)": "fae92612",
					"setPancakeAddress(address)": "a70b4607",
					"symbol()": "95d89b41",
					"totalSupply()": "18160ddd",
					"transfer(address,uint256)": "a9059cbb",
					"transferFrom(address,address,uint256)": "23b872dd",
					"transferOwnership(address)": "f2fde38b"
				}
			},
			"storageLayout": {
				"storage": [
					{
						"astId": 7,
						"contract": "BillionCash.sol:BillionCash",
						"label": "_owner",
						"offset": 0,
						"slot": "0",
						"type": "t_address"
					},
					{
						"astId": 451,
						"contract": "BillionCash.sol:BillionCash",
						"label": "_BCTokenBalances",
						"offset": 0,
						"slot": "1",
						"type": "t_mapping(t_address,t_uint256)"
					},
					{
						"astId": 457,
						"contract": "BillionCash.sol:BillionCash",
						"label": "_allowed",
						"offset": 0,
						"slot": "2",
						"type": "t_mapping(t_address,t_mapping(t_address,t_uint256))"
					},
					{
						"astId": 476,
						"contract": "BillionCash.sol:BillionCash",
						"label": "_totalSupply",
						"offset": 0,
						"slot": "3",
						"type": "t_uint256"
					},
					{
						"astId": 478,
						"contract": "BillionCash.sol:BillionCash",
						"label": "pancakeswap",
						"offset": 0,
						"slot": "4",
						"type": "t_address"
					},
					{
						"astId": 480,
						"contract": "BillionCash.sol:BillionCash",
						"label": "marketingwallet",
						"offset": 0,
						"slot": "5",
						"type": "t_address"
					},
					{
						"astId": 482,
						"contract": "BillionCash.sol:BillionCash",
						"label": "adminAddress",
						"offset": 0,
						"slot": "6",
						"type": "t_address"
					}
				],
				"types": {
					"t_address": {
						"encoding": "inplace",
						"label": "address",
						"numberOfBytes": "20"
					},
					"t_mapping(t_address,t_mapping(t_address,t_uint256))": {
						"encoding": "mapping",
						"key": "t_address",
						"label": "mapping(address => mapping(address => uint256))",
						"numberOfBytes": "32",
						"value": "t_mapping(t_address,t_uint256)"
					},
					"t_mapping(t_address,t_uint256)": {
						"encoding": "mapping",
						"key": "t_address",
						"label": "mapping(address => uint256)",
						"numberOfBytes": "32",
						"value": "t_uint256"
					},
					"t_uint256": {
						"encoding": "inplace",
						"label": "uint256",
						"numberOfBytes": "32"
					}
				}
			},
			"userdoc": {
				"kind": "user",
				"methods": {},
				"version": 1
			}
		}
	}
}